:020000040800F2
:10000000205F0020AD010008F3250008472000080C
:10001000F1250008330300085346000800000000E3
:10002000000000000000000000000000FB2E00089F
:1000300035030008000000007F270008FD2E00089F
:10004000C7010008C7010008C7010008C701000870
:10005000C701000881270008C7010008C701000880
:10006000C7010008C7010008C7010008C701000850
:10007000C7010008C7010008C7010008C701000840
:10008000C7010008C7010008C70100080000000000
:10009000000000000000000000000000C701000890
:1000A000C7010008C7010008C7010008C701000810
:1000B000C7010008C7010008C7010008C701000800
:1000C000C7010008C7010008C70100085D2D00082E
:1000D000C7010008C7010008C701000800000000B0
:1000E000C7010008C7010008C701000800000000A0
:1000F000000000000000000000000000C701000830
:1001000000000000C7010008C7010008C70100087F
:1001100000000000000000000000000000000000DF
:10012000C7010008C7010008C7010008C70100088F
:10013000C7010008000000000000000000000000EF
:10014000000000000000000000000000F52500088D
:10015000C7010008C7010008C7010008C70100085F
:10016000C7010008C70100080000000000000000EF
:10017000000000000000000000000000000000007F
:1001800000000000C701000800000000000000009F
:10019000C7010008C7010008DFF80CD000F08CF898
:1001A0000048004729630008205F00200648804778
:1001B00006480047FEE7FEE7FEE7FEE7FEE7FEE74C
:1001C000FEE7FEE7FEE7FEE7A12F00089901000821
:1001D0002DE9F05F0546002092469B46884606467C
:1001E000814640241BE0284641464746224600F00F
:1001F00053F853465A46C01A914110D31146184637
:10020000224600F03AF82D1A67EB01084F462246C5
:100210000120002100F031F817EB00094E41201EAB
:10022000A4F10104DFDC484631462A464346BDE8D6
:10023000F09F40EA01039B0703D009E008C9121FA1
:1002400008C0042AFAD203E011F8013B00F8013B90
:10025000521EF9D27047D2B201E000F8012B491EBC
:10026000FBD270470022F6E710B513460A46044653
:100270001946FFF7F0FF204610BD202A04DB203A84
:1002800000FA02F1002070479140C2F1200320FAE9
:1002900003F3194390407047202A04DB203A21FAE7
:1002A00002F00021704721FA02F3D040C2F120028F
:1002B0009140084319467047064C074D06E0E06838
:1002C00040F0010394E8070098471034AC42F6D39D
:1002D000FFF766FFB4130308D413030870B58C1836
:1002E00010F8015B15F0070301D110F8013B2A114A
:1002F00006D110F8012B03E010F8016B01F8016B37
:100300005B1EF9D12B0705D40023521E0DD401F832
:10031000013BFAE710F8013BCB1A921C03E013F8FB
:10032000015B01F8015B521EF9D5A142D8D3002030
:1003300070BDFEE770477047002200F001B8000072
:1003400030B50E4B054601205C7A002C14D1587A4A
:100350001C54587A03EB800045605D7A03F1080075
:100360002A54587A421C5A72303008703A20487029
:100370002F208870CC70002030BD0000103B002082
:1003800090F83510022903D0802141650120704783
:10039000052180F835100068016821F00101016035
:1003A0000020704770B5044600F0D8F80546601C80
:1003B00002D004480078044400F0D0F8401BA0426A
:1003C000FAD370BD940000202DE9F84FDFF860B13A
:1003D00000224FF001084FF0030A4FF00F090BF114
:1003E000040E00BF0B6808FA02F42340A3426ED14A
:1003F0004D68022D01D0122D0ED1D50800EB850CD1
:10040000DCF820505607F70E09FA07F6B5430E69D7
:10041000BE402E43CCF82060066855000F790AFADA
:1004200005FC07F0030726EA0C06AF4037430760D8
:100430004E68012E05D0022E03D0112E01D0122EAF
:100440000ED18668CF6826EA0C06AF403743876036
:100450004668A6430C79C4F30014944034434460C6
:10046000C6688C6826EA0C06AC403443C4604C680D
:10047000E40056D52F4C256845F480452560246856
:1004800022F0030504F4804400942B4C2E19D6F876
:10049000084895072F0F09FA07F5AC43274DA842E6
:1004A00001D1002515E0264DA84201D1012510E01B
:1004B000244DA84201D102250BE0234DA84201D1D1
:1004C000032506E0214DA84202D1042501E028E0E1
:1004D0000725BD402543C6F80858DBF800405D46B7
:1004E0004E689C43F60300D51C432C60DEF80040A8
:1004F00075464E689C43B60300D51C432C600C4DDA
:1005000008352C684E689C43F60200D51C432C60CD
:10051000074D0C352C684E689C43B60200D51C4331
:100520002C60521C102AFFF45DAFBDE8F88F00006C
:10053000003C0140443802400030014000000240CD
:100540000004024000080240000C0240001002407B
:100550000AB1816170470904FBE700000148806827
:10056000704700009400002002488168027811441E
:1005700081607047940000200B4810B5016841F479
:1005800000710160016841F480610160016841F41B
:1005900080710160032000F077F8002000F006F879
:1005A00000F024F8002010BD003C024070B50D4D55
:1005B00004464FF47A712878B1FBF0F00A490968D3
:1005C000B1FBF0F001F02BFD48B9102C07D200224E
:1005D0002146501E00F038F800206C6070BD0120EC
:1005E00070BD000094000020A00000200E4808B557
:1005F000016841F480410160006800F4804000908F
:100600000948001F016841F0805101600068002224
:1006100000F0805000901146052000F015F8BDE86C
:100620000840052000F002B844380240002809DBE9
:1006300000F01F02012191404009800000F1E020FC
:10064000C0F8001170470000F0B40E4B1B680C4658
:10065000C3F30223C3F10705042D00D90425191D96
:10066000072901D2002300E0DB1E012606FA05F16E
:10067000491E214099409E40761E16403143F0BCF1
:1006800004F02CB90CED00E0064900F00702086800
:100690004FF6FF03184040EA0220034A1043086067
:1006A000704700000CED00E00000FA05704700689C
:1006B000416200207047F0B50368586A39B19C6AFE
:1006C0004FF4827600EB144400204D1E0AE040EA0D
:1006D000024098620FE006EB8007DF59401C04EBF4
:1006E0001744C0B2A842F6D344EA02404FF48072E5
:1006F00002EB810158500020F0BDD0F8040402F054
:10070000A0BEC1EBC10200EB8202D0F80404926CDF
:1007100002F0F3BDC1EBC10200EB8202D0F8040489
:10072000D2F8082202F04CBED0F8040402F08BBECE
:1007300070B504460B0601F00F00C0EBC00104EBDE
:1007400081014FF001024FF0000503D581F83D20F3
:100750003C3103E081F8FD5101F5FE71087094F819
:10076000BC03012808D084F8BC23206803F0E6FA13
:1007700084F8BC53002070BD022070BD70B50446E3
:1007800001F00F006268904201D9012070BD0B0694
:1007900001F00F01C1EBC10104EB81014FF0010237
:1007A0004FF0000503D581F83D203C3103E081F88E
:1007B000FD5101F5FE718D70087094F8BC0301289D
:1007C00008D084F8BC23206803F08EFC84F8BC5366
:1007D000002070BD022070BD10B5044690F8BC0327
:1007E00001280AD0012084F8BC03080607D501F0CF
:1007F0000F01206803F0CAFD04E0022010BD20684C
:1008000003F0B4FD002084F8BC0310BD01F00F011B
:10081000C1EBC10100EB8100D0F8140270472DE953
:10082000F04104460F0601F00F00C0EBC00104EBDD
:1008300081014FF001064FF0000503D581F83D60BE
:100840003C3103E081F8FD5101F5FE7108708A60CA
:10085000CB704A7802B1C880022B00D10D7194F898
:10086000BC03012809D084F8BC63206803F0B6F902
:10087000284684F8BC53BDE8F0810220FBE770B540
:100880000C4601F00F05C5EBC50100EB8101C1F875
:100890001032C1F808220023C1F8143281F8FD316A
:1008A00081F8FC51036901F5FE71012B00D10A6149
:1008B0002207027C006803D003F06EFC002070BDAC
:1008C00003F060FBFAE770B504460D4601F00F0037
:1008D0006168884201D9012070BD29064FF00006E9
:1008E0004FF0010207D5C0EBC00104EB810181F894
:1008F0003D203C3107E0C5EBC50104EB810181F8E7
:10090000FD6101F5FE718A70087094F8BC0301283E
:1009100007D084F8BC23206803F012FC280702D01B
:1009200007E0022070BD217C04F57172206803F09D
:10093000AFFB84F8BC63002070BD70B50C4601F0BD
:100940000F05C5EBC50100EB81010B658A6400232F
:100950004B65012381F83D3001F83C5F0369012BB1
:1009600000D10A612207027C006803D003F014FC66
:10097000002070BD03F006FBFAE700002DE9FC5FE4
:1009800004460068002681464D4603F01EFD0028FF
:100990007ED1206803F045FD002879D0206803F05F
:1009A00040FD800704D52068416901F002014161E2
:1009B000206803F036FD010304F571704FF0010B60
:1009C000009076D5206803F00BFD0746DFF810A4F1
:1009D0006DE0F80769D0F1B2206803F01AFD804697
:1009E000C00707D005EB4611C1F808BB31462046C9
:1009F00001F006FE5FEA087033D52068016C00EB59
:100A000046100191D0F8081B2269012A019A0FD0E3
:100A1000F44B9A4214D1090403D54FF40041C0F8B5
:100A2000081B204600F0C1FA206901280FD013E00E
:100A3000524505D9090403D54FF40041C0F8081BFD
:100A4000204600F0B2FA01985045EDD804E0206845
:100A50000121009A03F01CFB05EB46110820C1F8A8
:100A6000080B5FEAC86004D505EB46111020C1F8F9
:100A7000080B5FEA88600FD52069012804D120683F
:100A80000121009A03F004FB202005EB461101E050
:100A9000A4E10EE0C1F8080B5FEA884005D505EB3C
:100AA00046114FF40050C1F8080B7F08761C002F48
:100AB0008FD1206803F0B5FC40034FF0000A60D5E9
:100AC000206803F086FC0746002658E0F80754D05B
:100AD000F1B2206803F08BFC8046C00726D006F0F8
:100AE0000F020BFA02F0D5F834288243C5F83428F7
:100AF00005EB4610C0F808B92069012807D1C6EBFC
:100B0000C60004EB8000D0E9112111448164F1B2E8
:100B10002046FFF7F6FD2069012807D136B9206D80
:100B200020B920680121009A03F0B2FA5FEA087048
:100B300004D505EB46110820C1F808095FEAC86032
:100B400004D505EB46111020C1F808095FEA48609A
:100B500004D505EB46114020C1F808095FEA88700A
:100B600004D505EB46110220C1F808095FEA0860C8
:100B700003D53146204601F0B1FD7F08761C002FD9
:100B8000A4D1206803F04DFC002811DAD5F8040840
:100B900020F00100C5F8040894F8F40301282BD0D4
:100BA000204600F0E6F92068416901F0004141610A
:100BB000206803F036FC00050BD5D5F80808C007FF
:100BC00002D0204600F01AFA2068416901F4006161
:100BD0004161206803F025FCC0045DD5D5F8040808
:100BE00020F00100C5F804081021206803F0CEFBB6
:100BF00000214FF67F321AE084F8F4A3002120464A
:100C0000FFF754FDCFE700BF05EB4110C0F80829FE
:100C1000D0F8003923F40013C0F80039C0F8082BCD
:100C2000D0F8003B23F40013C0F8003B491C606877
:100C30008842E9D8D5F81C0840F00110C5F81C0816
:100C4000206B60B1D5F8840840F00B00C5F884082B
:100C5000D5F8440840F00B00C5F844080CE0D5F87E
:100C6000140842F22B010843C5F81408D5F81008FF
:100C700040F00B00C5F81008D5F8000820F4FE601D
:100C8000C5F80008217C2068009A03F001FA20686A
:100C9000416901F480514161206803F0C2FB800486
:100CA00018D5206802F0DAFF206803F081FB60B3FA
:100CB0000320E06000F0FCFA23680146227B18461E
:100CC00003F0EAFB204600F041F92068416901F495
:100CD00000514161206803F0A4FBC00638D52068AC
:100CE000816921F010018161D9F8207007F00F00AF
:100CF000C0EBC00004EB8005C7F3434005F5FE756B
:100D0000022805D0062814D01DE0C4F80CA0D1E7B5
:100D100047F6F0710F4216D0C7F30A12174648463D
:100D2000E96803F082FBE8683844E860A869384461
:100D300008E008224846009903F077FBA869C7F34A
:100D40000A110844A8612068816941F0100181619D
:100D5000206803F066FB000707D5204600F00DF978
:100D60002068416901F008014161206803F059FBE6
:100D7000C00208D5F1B2204600F036F8206841697B
:100D800001F480114161206803F04BFB800208D51B
:100D9000F1B2204600F02CF82068416901F40011FE
:100DA0004161206803F03DFB400007D52046FFF776
:100DB000A4FC2068416901F080414161206803F092
:100DC00030FB40070AD520684568680702D52046F1
:100DD000FFF7AAFC2068416829434160BDE8FC9FF9
:100DE0000A30544F0A31544FD0F8040402F084BB47
:100DF000D0F8040402F082BB2DE9F0418AB004006F
:100E000004D094F8BD03002520B108E001200AB009
:100E1000BDE8F08184F8BC53204600F05BF8032065
:100E200084F8BD03206803F0A7F804F1100128221C
:100E300088466846FFF7FDF994E80F0002F028FFA6
:100E40000226D0BB0021206803F0FDFA0020012714
:100E50000FE000BFC0EBC00104EB810181F83D70E1
:100E600001F83C0FC880CD708D60CD60401CC0B2D1
:100E70004D6161688142EDD8002011E0C0EBC001F6
:100E800004EB810181F8FD5181F8FC0181F8FF51EB
:100E9000C1F80452C1F80852401CC0B2C1F8105247
:100EA00061688142EAD8282241466846FFF7C1F9C5
:100EB00094E80F0002F09AFF10B184F8BD63A5E733
:100EC00084F8385084F8BD73206802F083FF002056
:100ED0009DE7000000B5006887B0B0F1A04F2FD1AA
:100EE00018480021026842F001020260006800F028
:100EF000010005904FF4C05000900220CDE901019F
:100F0000032003900A20049069460F48FFF75CFA1B
:100F10000C48001D016841F080010160094814304F
:100F2000016841F4804101600068002200F48040C3
:100F3000059001214320FFF787FB4320FFF776FB55
:100F400007B000BD303802400000024070B50446D2
:100F5000C0680125022801D0FFF7EDF92946D4F831
:100F6000040402F01CFBD4F80404BDE8704002F055
:100F7000DCBAD0F8040402F000BBD0F8040402F09C
:100F800002BB10B5044690F8BC0301280BD0012029
:100F900084F8BC0384F83810206803F06BFA002052
:100FA00084F8BC0310BD022010BDD0F8042400F565
:100FB0007171104602F0FFBA10B50446006894F84B
:100FC000BC13012906D0012184F8BC13A16A0129B0
:100FD00002D008E0022010BDA169012903D0816B75
:100FE00041F480318163206802F0E8FE206803F05C
:100FF000B7F9002084F8BC0310BD000010B504460A
:10100000D0F8040402F016FB2068D0F8001E41F06E
:101010000101C0F8001E206A002804D002480168BF
:1010200041F00601016010BD10ED00E02DE9F8432C
:10103000044600684FF00109C1074FF0000601D1D6
:10104000400729D5DFF82081C8F86860FFF786FAE5
:101050000746464D05E000BFFFF780FAC01B022897
:1010600059D828680001F7D4A068217B800140EAA4
:101070000170616808433D4984310860C8F8689090
:10108000FFF76CFA074604E0FFF768FAC01B022876
:1010900041D828680001F7D52078800752D5334819
:1010A0004030016841F0805101600068304D00F02F
:1010B00080500090286840F480702860FFF74EFA56
:1010C000074604E0FFF74AFAC01B022823D8286825
:1010D000C005F7D5254D7035286810F4407020D034
:1010E000218A01F4407181421BD02868214920F4F3
:1010F0004070C1F800900E6028602868C00710D0CA
:10110000FFF72CFA064641F2883707E0FFF726FA88
:10111000801BB84202D90320BDE8F8832868800705
:10112000F4D521691148C1F301220830032A12D0F5
:10113000016821F4F81101602868218AC1F30B01CC
:10114000084328602078000703D50B49207DC1F8AB
:10115000E0010020E0E70268084B22F4F812194091
:101160000A430260E8E700000000474200380240FE
:1011700000700040400E474200104742FFFCFF0F46
:101180002DE9F0470E46050065D0DFF81481D8F848
:101190000000F7B200F00F00B04207D288F80070EC
:1011A000D8F8000000F00F00B04254D128683D4C40
:1011B000810712D5400703D5206840F4E050206035
:1011C0002878000703D5206840F46040206020683C
:1011D000A96820F0F000084320602878C0072DD0CF
:1011E000304968680839012812D0022813D0032832
:1011F00011D00968890700292DDA216821F003013F
:1012000001432160FFF7AAF9814641F2883A0EE0D6
:1012100009688903EFE709688901ECE7FFF79EF9A0
:10122000A0EB0901514502D90320BDE8F0872068F1
:10123000696800F00C00B0EB810FEFD1D8F8001016
:10124000404601F00F01B14207D90770006800F075
:101250000F00B04201D00120E7E72878400705D50C
:101260002068E96820F4E0500843206028780007EF
:1012700006D52068296920F4604040EAC10020605A
:1012800000F01CF82168084AC1F30311515CC84002
:10129000064908600020FFF789F90020C5E7000033
:1012A000003C02400838024062670008A0000020AD
:1012B0000148006870470000A0000020154810B5E4
:1012C000006810F00C02144813D01449042A0FD0FF
:1012D000082A0ED10F4C241F2268236802F03F0217
:1012E0005B0207D52068C0F38810A0FB010106E06F
:1012F000084610BD2168C1F38811A1FB000100233D
:10130000FEF766FF2168C1F30141491C4900B0FBAB
:10131000F1F010BD083802400024F40040787D014F
:101320002DE9F84F050076D02878DFF8F8B2BE4CEA
:10133000C00749D0DBF800105846C1F381010129EC
:1013400008D00068C0F3810002280AD1201D00687F
:10135000400206D52068800336D568680028E2D0B0
:1013600032E06868B0F5803F10D0B0F5A02F20685B
:1013700010D020F480302060206820F4802020608D
:101380006868A0B1FFF7EAF806460CE0206840F470
:101390008030F4E740F480202060F7E7FFF7DEF8C4
:1013A000801B642873D820688003F7D50CE0FFF712
:1013B000D5F8064605E000BFFFF7D0F8801B64288B
:1013C000F0D820688003F7D42878DFF8608280079F
:1013D0004FF000093ED5DBF80010584611F00C0F15
:1013E00009D00068C0F3810002280BD18D48001F8E
:1013F0000068400206D42068800715D5E8680128F7
:1014000009D111E0E868B8B10120C8F80000FFF781
:10141000A5F8064605E002E1FFF7A0F8801B0228C8
:10142000C0D820688007F7D52068296920F0F80027
:1014300040EAC10020600DE0C8F80090FFF78EF888
:10144000064604E0FFF78AF8801B02281FD82068B0
:101450008007F7D42878000722D5724E744869694E
:101460006C3671B101210160FFF778F8074604E09E
:10147000FFF774F8C01B022809D830688007F7D539
:101480000EE0C0F80090FFF769F8074605E083E03A
:10149000FFF764F8C01B02287ED830688007F7D4B5
:1014A0002878400768D5DFF87CA100270AF1380AC0
:1014B000DAF80000C0000BD4DAF8001041F08051D7
:1014C000CAF80010DAF80000012700F08050009000
:1014D000584E3068C00510D4306840F480703060D9
:1014E000FFF73CF8009005E0FFF738F80099401A44
:1014F000022851D83068C005F6D54A4EA86868362B
:1015000001280FD00528306810D020F0010030608D
:10151000306820F004003060A868B8B1FFF71EF80A
:1015200000900FE0306840F00100F4E740F0040064
:101530003060F7E7FFF712F80099411A41F288305E
:10154000814264D830688007F4D50EE0FFF706F8D2
:10155000009007E0FFF702F80099411A41F2883045
:10156000814254D830688007F4D42FB1DAF80010E3
:1015700021F08051CAF80010A869C0B3DBF8001050
:10158000C1F3810102294AD00228484607D0C8F891
:101590006000FEF7E3FF00E039E005463AE0474629
:1015A000C8F86000FEF7DAFF064604E0FEF7D6FF53
:1015B000801B02282BD820688001F7D4D5E90701C9
:1015C0000843A96A1C4A490802EB01416A6A41EAD8
:1015D0008211084395F82C1040EA01611148001F60
:1015E000016001203866FEF7B9FF054605E014E00A
:1015F000FEF7B4FF401B022809D820688001F7D508
:101600000BE000BFFEF7AAFF401B022802D903200F
:10161000BDE8F88F20688001F4D40020F8E70120AD
:10162000F6E7000008380240003802400000474258
:10163000800E4742007000400000FFFF00685030FD
:1016400050F8210070470068503040F82120704762
:1016500010B500680B4641680D480140080CD87071
:10166000C1F304245C7001F03F049C70C1F342316B
:10167000197052B901F085F8D870587801F081F8E6
:101680005870987801F07DF89870002010BD000027
:101690003FFFFF0010B50B460168896A5960016879
:1016A0000969C1F30E019960006801680E480140A4
:1016B000C1F305401870C1F306245C7001F07F048B
:1016C0009C70402404EA1141D97052B901F059F8D4
:1016D0001870587801F055F85870987801F051F862
:1016E0009870002010BD00007F7F7F0070B504005F
:1016F00002D0607F10B106E0012070BD002020778D
:10170000204600F049F8022060772168CA2048622C
:10171000216853204862204601F048F8FF2504263E
:1017200018BB206881681B4A114081602168886865
:1017300062681043D4E904231A4310438860216887
:10174000E068086120680169228941EA024101617B
:101750002068C16821F08001C1602068806880062F
:1017600007D4204600F0FEF818B12068456266777D
:10177000C2E72068016C21F4802101642068016CBB
:10178000A26911430164206845620120607700204E
:1017900070BD0000BFFF8FFF00680349884202D17F
:1017A0000249012008607047002800403C0E474273
:1017B0002DE9F0470446007F0B4601281FD04FF06B
:1017C000010984F81C9002206077DAB19878D97802
:1017D00040EA014558781978000240EA4130054353
:1017E0002168CA204862216853204862204600F0E0
:1017F000DDFF0026FF274FF0040860BB1AE002203F
:10180000BDE8F0875878C10603D500F0EF000A3034
:101810005870D87800F0BEFF0204587800F0BAFF84
:1018200042EA0022987800F0B5FF0243187842EAB5
:101830004035D5E70F480540206845602068C168FD
:1018400021F08001C1602068806880060AD42046AB
:1018500000F088F830B12068476284F81D80267750
:101860000120CDE72068476284F81D90267700208C
:10187000C6E700003FFFFF002DE9F0470446007F68
:101880000D46012827D04FF0010A84F81CA0022041
:1018900060772068002680684FEA4060F2B1002837
:1018A00000DBEE70A878297840EA01476878E9788B
:1018B000000240EA014007432168CA2048622168CB
:1018C00053204862204600F071FF4FF0FF084FF0B0
:1018D0000409A0BB16E00220BDE8F087002800DB69
:1018E000EE70287800F056FF0204687800F052FF8E
:1018F00042EA0022A87800F04DFF0243E87842EA6D
:101900000047D9E7164807402068076020688168CB
:1019100021F480218160D5E90301084321688A68A8
:10192000104388602068C16821F08001C160206890
:10193000806880060BD4204600F014F838B1216886
:10194000C1F8248084F81D9026770120C4E721681F
:10195000C1F8248084F81DA026770020BCE7000091
:101960007F7F7F0070B504460068C16821F0A00148
:10197000C160FEF7F3FD05464FF47A7607E000BF3D
:10198000FEF7ECFD401BB04201D9032070BD20687A
:10199000C0688006F4D5002070BD704738B5016876
:1019A00004464A688868C043430606D5C30704D185
:1019B000D3435B0601D4216C05E0830708D4D343ED
:1019C0001B0605D4616C01B02046BDE830400847D5
:1019D000830603D5430601D5C30551D4D3439B06E3
:1019E0004ED443060AD494F85130032B49D0636D8A
:1019F00043F004036365CB688B680093830609D4C6
:101A0000636D43F0010363658B6800930B6823F0FB
:101A100040030B60C00506D4606D40F008006065AF
:101A2000206880680090606D002829D02068416897
:101A300021F0E0014160012084F85100900701D4B9
:101A4000D00722D02068416821F003014160114D88
:101A5000E06C40B10565E06CFEF792FC18B1606D7A
:101A600040F040006065A06C002809D00565A06CBE
:101A7000FEF786FC002803D0606D40F040006065F2
:101A800038BDC8688868009038BD2046FFF785FFDC
:101A900038BD0000692D000870B5040005D0002590
:101AA000A56294F8510010B106E0012070BD84F8E1
:101AB0005050204600F030F8022084F85100206891
:101AC000016821F040010160D4E901010843D4E933
:101AD00003121143084361690843218B01F400712B
:101AE0000843E1690843216A0843A16A0843216861
:101AF0000860A069042101EA1040616A0843216876
:101B000048602068C16921F40061C16165650120F8
:101B100084F85100002070BD10B586B00446142131
:101B20006846FEF79FFB17492068884228D116486F
:101B30000021026842F480520260006800F4805084
:101B4000059011481438026842F0010202600068F2
:101B500000F001000590E02000900220CDE9010195
:101B6000032003900520049069460848FEF72CFCEA
:101B7000002211462320FEF767FD2320FEF756FDC5
:101B800006B010BD00300140443802400000024061
:101B90002DE9F84F044640680025984616460F4642
:101BA0004FF0040BB0F5827F01D1A06888B194F8A2
:101BB0005000012818D0012084F85000FEF7CEFC18
:101BC000814694F851004FF0000A01280ED00225FA
:101BD0007DE084F851B013460A462046CDF80080D7
:101BE00000F02CF9BDE8F88F0220FBE7002F6DD044
:101BF000002E6BD084F851B0C4F854A0A763A68718
:101C0000E687C4F830A0A4F834A0A4F836A0C4F83D
:101C100040A0C4F844A0A068B0F5004F04D12068EB
:101C2000016821F48041016020680168490603D4FD
:101C3000016841F040010160E068D8B139E02068F6
:101C40008168C90709D0007BA16B0870A06B401C9C
:101C5000A063E08F401EE0870CE0FEF77FFCA0EB66
:101C60000901414503D3B8F1FF3F03D036E0B8F195
:101C7000000F33D0E08F0028E1D11DE0206881689B
:101C8000C90709D0C068A16B0880A06B801CA06345
:101C9000E08F401EE0870CE0FEF760FCA0EB09013E
:101CA000414503D3B8F1FF3F03D017E0B8F1000F6F
:101CB00014D0E08F0028E1D14A464146204601F089
:101CC0005BF808B120206065606D00B1012501203E
:101CD00084F8510084F850A0284683E70325F6E7EE
:101CE0002DE9F84F044690F8500000271D4616468F
:101CF000894601280DD04FF0010B84F850B0FEF753
:101D00002DFC804694F85100BA46012804D00227E1
:101D10008EE00220BDE8F88FB9F1000F7DD0002ED3
:101D20007BD0032084F85100C4F854A0C4F830904C
:101D3000A686E686C4F838A0A4F83CA0A4F83EA085
:101D4000C4F844A0C4F840A0A068B0F5004F04D186
:101D50002068016841F480410160206801684906FB
:101D600003D4016841F040010160E068B0F5006F04
:101D7000606803D030B3012E24D040E008B1012EBA
:101D80001CD1206B21680088C86006E0206881684B
:101D9000890709D5216B0988C160206B801C2063ED
:101DA000E08E401EE08609E0FEF7D8FBA0EB0800BD
:101DB000A84202D3681C01D031E07DB3E08E002838
:101DC000E4D11FE0206B21680078087306E02068EA
:101DD0008168890709D5216B09780173206B401C44
:101DE0002063E08E401EE08609E0FEF7B7FBA0EB23
:101DF0000800A84202D3681C01D010E075B1E08E43
:101E00000028E4D142462946204600F0D6FF08B11A
:101E100020206065A06820B107E008E0FFE7032705
:101E200006E02068C16880680090606D00B10127FD
:101E300084F851B084F850A038466BE72DE9F84F8C
:101E4000044690F8500000270A9E1D4692468B4695
:101E50004FF0010901280ED0012084F85000FEF750
:101E60007DFB804694F85100616801280CD0B1F5E3
:101E7000827F07D102E00220BDE8F88FA16809B98E
:101E8000042801D00227C2E0BBF1000F27D0BAF12D
:101E9000000F24D01DB394F85100042802D005206F
:101EA00084F8510000206065C4F838A0E587A58754
:101EB000C4F830B0E586A5862064606420680168B7
:101EC000490603D4016841F040010160E068B0F5C3
:101ED000006F606805D0E8B3012D46D07FE0012790
:101EE00095E008B1012D39D1206B21680088C860C8
:101EF000206B801C2063E08E401EE0862EE0206870
:101F0000816889070FD5E18E69B1B9F1010F0AD156
:101F1000216B0988C160206B801C2063E08E401E0D
:101F2000E0864FF0000920688168C9070CD0E18F76
:101F300051B1C068A16B0880A06B801CA063E08FCA
:101F4000401EE0874FF00109FEF708FBA0EB0800F8
:101F5000B04200E009E001D3701C50D1E08E0028AF
:101F6000CDD1E08F0028CAD13FE0206B21680078F6
:101F70000873206B401C2063E08E401EE0862EE03C
:101F80002068816889070FD5E18E69B1B9F1010F29
:101F90000AD1216B09780173206B401C2063E08E0D
:101FA000401EE0864FF0000920688168C9070CD008
:101FB000E18F51B1C068A16B0870A06B401CA06399
:101FC000E08F401EE0874FF00109FEF7C7FAA0EB53
:101FD0000800B04202D3701C01D010E07EB1E08E48
:101FE0000028CDD1E08F0028CAD142463146204694
:101FF00000F0E3FE28B101272020606507E00327F9
:1020000005E0A06818B92068C168806800900120C8
:1020100084F85100002084F8500038462CE710B5B1
:10202000401EB0F1807F01D3012010BD4FF0E024AD
:1020300060610F21601702F051FC0020A0610720B1
:102040002061002010BDFEE7F0B500230A243025F2
:1020500037261F4611E000BFB4EB107F02D905EB15
:10206000107C01E006EB107C01F813C001EB430C7F
:1020700000015B1C8CF80170DBB29342ECD3F0BD25
:1020800070B5D0F89042054604F58051087E38B905
:10209000486928B1607A18B90121284601F0B8FAD8
:1020A0008121284601F0B4FA607A022809D141F270
:1020B0000C0022182846BDE870401F23012101F0C2
:1020C0002BBA70BD70B5D0F89042064604F5805525
:1020D00001212869286368696863304601F0C7F9FF
:1020E0001F280AD12649E868884206D1697E01295D
:1020F00003D8A87E08B1102808D9697E20230522BC
:10210000304600F0AFFD022060720AE041F21B0091
:102110002218304600F07AFB0028207A08DA0528D9
:1021200004D03046BDE87040FFF7AABF012121E08E
:10213000022824D0012822D0032820D06589C5B1E7
:1021400004F10C02D6F89042304604F580514B69F8
:10215000AB4200D32B464E6B9BB2751B4D630025E3
:1021600081F8385004212172BDE87040812101F0CE
:102170006ABA00213046BDE8704000F08BB870BDEF
:102180005553424310B5D0F89042627A022A08D0E3
:1021900009060BD5012A09D0BDE81040012100F045
:1021A00079B8812101F034FA0020607210BD10B5B9
:1021B000D0F890220446107A022805D0032801D0D6
:1021C000042811D100210AE041F21900815C801C31
:1021D0000244204600F01AFB002805DA01212046BF
:1021E000BDE8104000F056B810BD10B5D0F89022F0
:1021F0000446107A88B1012814D141F21900815C9B
:10220000801C0244204600F001FB00280ADA204628
:10221000BDE81040012100F03DB82046BDE8104067
:10222000FFF750BF10BDD0F8900200210172704737
:1022300070B5D0F8904205460021217204F5805017
:10224000617280F85D1080F85C10D5F89402016826
:10225000002088470121284601F000F98121284605
:1022600001F0FCF841F20C0022182846BDE870404D
:102270001F23012101F050B9D0F8901200221F2332
:102280000A7201224A7241F20C020A44012101F051
:1022900043B9000070B5D0F89042054604F580526D
:1022A0000B48D06282F838100020207241F22C00D6
:1022B00022180D238121284601F0C5F941F20C00B6
:1022C00022182846BDE870401F23012101F024B9DF
:1022D0005553425330B595B019491A48FEF72CF8BA
:1022E000174C0546641E48222070174901A8FDF7C7
:1022F000A0FF002D10D10122611C144803F092FAB6
:10230000207058B102202070C00200220090104BB3
:102310001146601C02F0E0FF15B030BD0A220DA18D
:10232000104803F0ABFA0028F6D113AB472201A9FD
:102330000C4803F0F4FB0B4802F0BAFFECE7000096
:1023400007000020100000206C130308D4010020B7
:102350004C22002053544D3332BACBD0C4B0E52EBA
:102360007478740008120020F0B587B01421684614
:10237000FDF778FF2A480024016841F0040101605C
:10238000016801F004010591016841F080010160DC
:10239000016801F080010591016841F001010160CF
:1023A000016801F001010591016841F0020101603D
:1023B0000068012200F002001A4D560305903146D4
:1023C0002846FEF7C5F8184F012210213846FEF7BF
:1023D000BFF800960126CDE90164694628460394BA
:1023E000FDF7F2FF48F20F700325CDE900056946BD
:1023F00002943846FDF7E8FF1020CDE90006694653
:102400003846CDE90245FDF7DFFF4FF2FF70CDE919
:102410000005694602940548FDF7D6FF07B0F0BDF8
:102420003038024000080240000002400004024030
:10243000F0B587B014216846FDF714FF4348002427
:1024400041490594C0E900147F218160FF21C0E962
:10245000031444618461FFF749F908B1FDF76BFF8C
:1024600001213A48FFF7EAF843F2F222904229D0DC
:1024700001213648FFF7E7F88DF800408DF801405C
:102480008DF8024003940122694630480494FFF716
:10249000F3F908B1FDF74FFF01208DF81400042176
:1024A0008DF815108DF8160019208DF817000122EF
:1024B00005A92648FFF77CF9002801D0FDF73BFF6E
:1024C00007B0F0BD224C2068224D00014FF40056A9
:1024D00040F2F3170FD5002231462846FEF738F8B0
:1024E0000920FDF75FFF012231462846FEF730F84C
:1024F0003846FDF757FF206840011FD500223146BE
:102500002846FEF725F80920FDF74CFF0122314649
:102510002846FEF71DF86320FDF744FF00223146F0
:102520002846FEF715F80920FDF73CFF0122314649
:102530002846FEF70DF83846FDF734FF206840F0D6
:1025400080702060BCE70000002800405C01002093
:1025500074380240000802400F4810B50D49016070
:102560004FF48271416000218160C1604FF40072BC
:102570000161C0E90512C1610162416281620A2103
:10258000C162FFF789FA002803D0BDE81040FDF7CB
:10259000D2BE10BD003001407C01002010B50022E9
:1025A0000F49104800F082FE08B1FDF7C4FE0E4945
:1025B0000C4801F05FF908B1FDF7BDFE0B49094871
:1025C00001F0B4F808B1FDF7B6FE064801F0A8F92D
:1025D000002803D0BDE81040FDF7ADBE10BD0000DF
:1025E000240000204C320020B000002074000020A5
:1025F000FEE770470148FEF7C1B90000E836002049
:102600002DE9F041044600680E46016C00EB4615CA
:10261000D5F8080B276920234FF40042012F08D07A
:102620002C4FB9424FD1010449D500BFC5F8082B42
:102630004DE0DFF8A4C05FEA007E04F5717711D5A4
:10264000614503D9000401D5C5F8082B2046FEF7E3
:10265000ACFC3A460121206801F01AFD0820C5F8BB
:10266000080B34E05FEA806E02D5C5F8083B2EE027
:1026700010F0280F2BD1614501D90004D6D4C6EB48
:10268000C60004EB8000D5F8102BD0F80412C2F37A
:1026900012028A1AC0F81422D0F808221144C0F895
:1026A0000812F1B22046FEF735F886B9D4F81002C8
:1026B00068B93A460121206801F0EAFC07E080068B
:1026C00001D5C5F8083BF1B22046FEF723F80020FB
:1026D000BDE8F0810A31544F0A30544F2DE9F84FCC
:1026E0000E46C1EBC60100EB810481460568D4E9C2
:1026F00014103C34884202D90120BDE8F88F081A32
:10270000A168814200D20846C01C870805EB461824
:102710001BE000BFA0EB010AA068504500D2824632
:102720000AF10300870899F8100000901FFA8AF355
:10273000F2B22846E16801F023FFE16801EB0A00EC
:10274000E060A16901EB0A00A061D8F8180980B225
:10275000B84205D3D4E90501814201D20028D9D17C
:10276000D4E90501884208D806F00F01012088400D
:10277000D5F834188143C5F834180020BDE77047F8
:102780007047010901EB810100F00F0000EB4100EF
:10279000C0B27047002102E00A38C0B2491C0A28C2
:1027A000FAD2090740EA11607047000070B504468C
:1027B0000068C168490614D44FF0FF31C160FDF7CD
:1027C000CDFE05464FF47A7607E000BFFDF7C6FE62
:1027D000401BB04201D9032070BD2068C06840068C
:1027E000F4D5002070BD10B5D0F890421A4404F51D
:1027F0008054236E9A4206D92123052200F032FA32
:102800004FF0FF3010BD002010BD00002DE9F04159
:1028100013780024232B70D00DDC1A2B6ED005DC2E
:10282000EBB1032B39D0122B11D168E01B2B01D057
:102830001E2B0CD18FE02A2B72D004DC252B70D0FC
:10284000282B04D1ADE02F2B6CD05A2B6BD020233A
:10285000052200F007FA4FF0FF30BDE8F081D0F814
:102860009072054607F580500E46416921B1417EC0
:10287000202305222846A1E0D5F89402816830463D
:10288000884740B13A2302223146284600F0EAF94F
:10289000052038729FE07C819DE0D0F890020021F5
:1028A0004318491CC9B21C731229F9D37021017352
:1028B0000C21C17400F5805191F85C5091F85D30A5
:1028C0009D4213D000EBC503A3F6C47303F5005378
:1028D0006D1C1E7886735E7906761B794376EBB2A3
:1028E00081F85C30042B01D181F85C4012214181D8
:1028F000117912296FD841816DE04CE02FE05478B6
:10290000D0F89032E4070FD0072034495881401E98
:102910000004000C03EB00040A5C2273F7D15AE0B8
:1029200042E03BE043E028E0D0F8940201EBC10133
:102930001279C06900EB81010879401D824200D8FC
:102940001046588104E0401E80B21C180A5C2273B5
:102950000028F8D13FE0D0F8900244813BE0D0F865
:10296000901208201E4A4881401E0004000C01EB12
:102970000004135C2373F7D12DE0D0F890020821F6
:10298000184A4181491E0904090C00EB0104535CFB
:102990002373F7D11FE000F02EF91CE000F0FDF8E2
:1029A00019E000F0B1F816E000F07CF913E052787D
:1029B000D0F89052920704D52423052200F052F952
:1029C00009E0A5F69C7202F500520CCAFFF70BFF56
:1029D000002800DB6C8100203FE700005213030851
:1029E00059130308611303082DE9F047D0F89062EA
:1029F000074606F580548846B4F85E00A56E4FF48D
:102A0000805145438D4200D30D46B5FBF0F083B2B3
:102A1000D7F8940206F10C01626ED0F810C0894616
:102A20004046E047002809DA11230422414638468F
:102A300000F018F94FF0FF30BDE8F087ABB24A461E
:102A40008121384600F0FFFDB4F85E00626EB5FBF0
:102A5000F0F1B5FBF0F011446166A16E081AA066B2
:102A6000616BA1EB0501616301D10320307200208D
:102A7000E2E72DE9F0478846D0F89012074601F5C5
:102A800080544FF48055B4F85E00A66E4643AE42C3
:102A900000D32E46B6FBF0F083B2D7F894020C3187
:102AA000626ED0F814C089464046E047002809DA33
:102AB000032304224146384600F0D4F84FF0FF309B
:102AC000BDE8F087B4F85E10626EB6FBF1F010441A
:102AD0006066B6FBF1F0A26E101AA066626BA2EB04
:102AE000060262630BD04843A84200D20546ABB24F
:102AF0004A460121384600F00FFD0020E0E70021A2
:102B00003846FFF7C7FBF8E72DE9F047D0F89052B9
:102B100007461646287A8946A8BB05F580544FF02B
:102B2000FF38207E00062AD5D7F8940281684846EF
:102B3000884730B13A2302224946384600F092F8DD
:102B400011E0D6F80200494600BA20F0FF02707981
:102B500002436266B6F8070043BA3846A366FFF739
:102B600042FE002802DA4046BDE8F08702202872C3
:102B7000B4F85E10A06E48436169884204D02023F7
:102B8000617E0522D9E7FFE74FF48050688149460E
:102B90003846BDE8F047FFF727BF70B505460E463B
:102BA000D5E9A44004F58351436841F25E00221840
:102BB0003046984740B13A2302223146284600F079
:102BC00051F84FF0FF3070BD04F58051086E401E83
:102BD000020E2273020C6273020AA273E0730020D9
:102BE00020746074B1F85E00010AA174E0740820DA
:102BF0006081002070BD2DE9FC410546D0F890426F
:102C000000200F4606462118401C80B20E730C2887
:102C1000F9D3D5F894026A4601A943683846984723
:102C200048B13A2302223946284600F01BF84FF0FB
:102C3000FF30BDE8FC810820E0730198401E010EC2
:102C40002174010C6174010AA174E07402202075E2
:102C50006675BDF80000010AA175E0750C20608161
:102C60000020E6E7D0F8901201F5805090F85D3032
:102C700001EBC30303F5805383F83C2090F85D30EB
:102C8000002201EBC30101F5805181F8402090F84A
:102C90005D10491CC9B280F85D10042901D180F88B
:102CA0005D2070472DE9F047D0F890520646174650
:102CB000287A894620B13046BDE8F047FFF7D9BEF3
:102CC00005F580544FF0FF38207E000631D4D6F849
:102CD000940281684846884728B13A230AE0304682
:102CE000FFF7C0FF1BE0D6F89402C168484688474A
:102CF00018B1272302224946F1E7D7F802004946D6
:102D000000BA20F0FF02787902436266B7F8070044
:102D100043BA3046A366FFF766FD002802DA404654
:102D2000BDE8F087B4F85E00A16E41436069884257
:102D300003D02023617E0522D1E74FF480508142E9
:102D400000D3014601208BB22872014605F10C0226
:102D5000304600F0E1FB0020E2E700000148FEF70A
:102D60001DBE00007C01002010B5806B0021C187D2
:102D7000C186FEF712FE10BD38B504464068B0F5B6
:102D8000827F0BD1A068B0F5004F02D0B0F5806F04
:102D900004D12068036823F0400303600B460092CF
:102DA00000228021204600F018F8002804D0606D31
:102DB00040F020006065032038BD38B50B46009216
:102DC00004460022802100F008F8002804D0606D3D
:102DD00040F020006065032038BD2DE9F0411D461C
:102DE00017460E460446DDF8188008E0681C06D039
:102DF000FDF7B4FBA0EB0800A8420BD255B1206848
:102E0000806836EA000030D00020B842EED10020C1
:102E1000BDE8F0812068416821F0E0014160606810
:102E2000B0F5827F0BD1A068B0F5004F02D0B0F5AD
:102E3000806F04D12068016821F040010160A06A20
:102E4000B0F5005F09D12068016821F400510160EC
:102E50002068016841F400510160012084F85100AC
:102E6000002084F850000320D2E70120CDE74FF482
:102E7000806008608000108000207047002070474C
:102E800010B501F04BFC002010BD00207047002061
:102E900070472DE9F0411F4615460E4600244FF4B9
:102EA000805809E029034246304601F057FC641C73
:102EB000A4B26D1C06F58056BC42F3D30020BDE8D9
:102EC000F0812DE9F047984616460F4600254FF44D
:102ED00080590DE03403204601F0BCFB21464A46F0
:102EE000384601F06BFC6D1CADB2761C07F58057BF
:102EF0004545EFD30020BDE8F0877047FDF734BBB0
:102F000030B599B030216846FDF7ACF914210CA812
:102F1000FDF7A8F9182111A8FDF7A4F91E4800250E
:102F2000016841F080510160006800F08050179006
:102F30001A48016841F4404101600068022400F42D
:102F400040401790052000904FF480300190012000
:102F500002908005CDE90640192008904FF4A87032
:102F6000099004200A9007200B906846FEF7D8F9D4
:102F70000CA90F2081E83100E002CDE90F05022104
:102F80000CA8FEF7FDF8E0011590119411A8FEF7CA
:102F90004DF819B030BD00004038024000700040CC
:102FA0001048016841F4700101600F48016841F068
:102FB000010101600C4A00210832116002680B4BCC
:102FC0001A400260031D0A4A1A60026822F4802235
:102FD000026005480C3001600249580680390860DB
:102FE0007047000088ED00E000380240FFFFF6FE69
:102FF0001030002410B5D0F88C2252689047002081
:1030000010BD134610B50A46002100F085FA0020D5
:1030100010BD134610B50A46002100F014FB002035
:1030200010BD10B50446802100F0F2FA2046BDE83C
:103030001040002100F0ECBA10B505210023C0F8C3
:103040006C121A46194600F067FA002010BD10B540
:103050000223C261C0F86C32026213460A460021A4
:1030600000F0F1FA002010BD10B504210023C0F8D3
:103070006C121A46194600F0E6FA002010BD000056
:1030800010B50A46024903A000F0E0F8004810BD60
:10309000E83400204D534320436F6E66696700009B
:1030A00012200880004870474400002010B50A46EE
:1030B000024903A000F0CAF8004810BDE83400201F
:1030C0004D534320496E746572666163650000006C
:1030D00004200880004870474000002010B50A46D0
:1030E000024903A000F0B2F8004810BDE834002007
:1030F00053544D6963726F656C656374726F6E696A
:103100006373000010B50A46024903A000F09EF860
:10311000004810BDE834002053544D3332204D6137
:1031200073732053746F72616765000010B51A20C5
:1031300008800A480168001D0468001D006808181E
:1031400009D008220649FEF77FFF05490422103105
:103150002046FEF779FF0248801E10BD107AFF1F3F
:103160005A000020F8B5044648880D46010A08298F
:103170004BD2DFE801F04A0409174A4A4048D4F824
:103180008812207C0A6832E0207C02260028D4F8CD
:103190008C0205D0C16A684688470146467041E006
:1031A000816AF8E7C0B206282FD2DFE800F00308F2
:1031B0000D12171CD4F88812207C4A6817E0D4F846
:1031C0008812207C8A6812E0D4F88812207CCA68B1
:1031D0000DE0D4F88812207C0A6908E0D4F888123F
:1031E000207C4A6903E0D4F88812207C8A69694609
:1031F0009047014616E0207C38B9D4F88C02416B28
:1032000068468847F5E7207C20B129462046FFF72D
:1032100008FFF8BDD4F88C02016B68468847014668
:1032200007204870BDF8000048B1EA8852B18242D8
:1032300000D90246ADF800202046FFF708FFE888D5
:103240000028E6D12046FFF70FFFF8BD70B5002338
:1032500000281ED00446002502E06D1CEDB2641C5F
:103260002678002EF9D1022404EB4504148012784C
:10327000CA545B1C0322CA5400245B1C06E0CA54D7
:103280005B1CDAB28C54521CD3B2401C0278002A68
:10329000F5D170BD01004FF0000004D0012901D02C
:1032A000022901D0022070470120704710B580B17B
:1032B000D0F88C3213B10023C0F88C3209B1C0F8B9
:1032C0008812012180F87412027000F0D5F80020F5
:1032D00010BD022010BD10B5D0F89802FDF74EFACF
:1032E000BDE81040FFF7D6BF10B5D0F89802FDF743
:1032F0001FFABDE81040FFF7CDBF2DE9F04117469A
:10330000044651B1D4F88C0242691AB194F874029F
:10331000032851D00220BDE8F081D4F86C3200259A
:1033200004F11400022B03D0042B3AD0C3B33CE0C9
:10333000D0E903639E4207D9F11AC1608AB23946C7
:103340002046FFF766FE12E08068B0FBF3F103FB56
:10335000110199B9984211D3D4F8701288420DD254
:10336000002211462046FFF754FEC4F87052002395
:103370001A461946204600F0CFF816E0D4F88C0221
:10338000C16829B194F87402032801D12046884706
:103390008021204600F03CF92046FFF74DFE04E076
:1033A000FFE78021204600F033F994F878020128E5
:1033B00004D184F8785201E0204690470020AAE723
:1033C00070B51546044649B1D4F88C0282691AB129
:1033D00094F87402032830D0022070BDD4F86C1227
:1033E00004F5A070032902D005291ED027E0D0E9FA
:1033F00003218A420BD9531AC3600846834200D383
:1034000003469AB229462046FFF7FBFD17E0D4F8A1
:103410008C02016929B194F87402032801D1204675
:1034200088472046FFF720FE09E000200146C4F847
:103430006C02204600F0ECF801E0204690470020A6
:1034400070BD0020704710B5012180F87412D0F8CB
:103450008C22017952689047002010BD10B5D0F839
:103460009802FDF7B9F9BDE81040FFF713BFD0F897
:103470009802FDF7CBB9000010B5017839BB1549AA
:103480000222C1F80404C0F898124FF0A04008606E
:10349000042048600020C1E90320C1E90620086239
:1034A0004862C86208630846FDF7A6FC08B1FCF74D
:1034B00042FF80210748FDF7FAF840220021054825
:1034C000FDF7F9F8802201210248FDF7F4F8002009
:1034D00010BD0000E83600200A0601F07F01D0F898
:1034E0009802C1EBC10100EB810002D590F83E00CB
:1034F000704790F8FE017047002070470020704729
:1035000010B51C461346D0F898022246FDF787F9FD
:10351000BDE81040FFF7BEBE10B5D0F89802FDF729
:10352000AEF9BDE81040FFF7B5BE70B50022044605
:1035300040231146FFF7E4FF40260125C4F85061FF
:103540003346002280212046C4F84451FFF7D8FFBB
:103550006662A56184F874520020C4F86C02606051
:10356000C4F87C02D4F8900228B1D4F88C0200216F
:10357000426820469047002070BD90F8751280F890
:1035800074120020704710B590F87412032904D10A
:10359000D0F88C12C96901B18847002010BD0174B0
:1035A0000020704710B5D0F89802FDF7EAFCBDE89E
:1035B0001040FFF76FBE70B5044600F52070054659
:1035C00000F044F90120C4F86C02B4F88602C4F893
:1035D000700294F8800210F01F010AD001290DD06A
:1035E000022910D000F08001204600F011F80020E0
:1035F00070BD2946204600F098F9F8E72946204694
:1036000000F0C4FAF3E72946204600F017FAEEE787
:1036100010B5D0F89802FDF756F9BDE81040FFF755
:1036200039BE10B5D0F89802FDF7C6FCBDE81040D1
:10363000FFF730BE90F8741280F87512042180F8FC
:1036400074120020704710B5D0F89802FDF775F994
:10365000BDE81040FFF71EBE10B5FEF7A8FD002024
:1036600010BD10B5FEF7C1FD002010BD70B50446B9
:103670000121FFF739FE002581212046C4F8585169
:10368000FFF732FE2046E562FEF7CDFDD4F890024A
:1036900018B102F0D5FCC4F89052002070BD0000B3
:1036A0000A21018000487047480100202021018044
:1036B0000048704708010020202101800048704721
:1036C000E8000020202101800048704728010020E8
:1036D00070B50446007C0125D0B1402302220121AF
:1036E0002046FFF70DFF4023C4F8585102228121E4
:1036F0002046FFF705FF41F26C00E56202F05CFE38
:10370000C4F8900280B12046FEF792FD002070BD03
:103710004FF400763346022201212046FFF7F0FEE7
:103720003346C4F85851E1E7022070BD09B1C0F832
:103730009412002070472DE9F8430026D0F89072CB
:103740000546ADF8006008780C46B04610F0600100
:1037500020D020293DD16178FE2902D0FF2938D11F
:103760000EE0618881BBE188012932D1000630D5A5
:10377000D5F89402806980470122394638601FE0FD
:10378000618809BBE188F9B9000622D42846FEF712
:1037900073FD23E0607830B1012825D00A2809D0D4
:1037A0000B2816D111E095F87402032811D10222DA
:1037B000694605E095F8740203280AD10122391DF3
:1037C0002846FFF744FC09E003E095F8740203285B
:1037D00007D021462846FFF724FC02263046BDE8E4
:1037E000F883A0787860F9E721792846FFF736FE5C
:1037F00021792846FFF778FDA0884FF001070106E0
:1038000000F00F0000EB80004FF4007305EB800028
:103810000BD5C0F81880287C00B1402302228121FA
:103820002846FFF76DFEEF620BE0C0F84481287C6C
:1038300000B14023022201212846FFF761FEC5F8AE
:10384000587121792846FEF79DFCC7E70A78027077
:103850004A7842708A78CB7802EB032242800A7958
:103860004B7902EB032282808A79C97902EB01212C
:10387000C18070470246002011B1C2F88C12704717
:103880000220704710B5D0F88C2202241AB11268B9
:10389000904700B90024204610BD000070B50E46C8
:1038A0001E4D897804462970012931D894F8740294
:1038B00002280BD003280FD031462046FFF7B1FB7A
:1038C00029782046BDE87040FFF794BBD9B10320AA
:1038D000616084F8740209E071B16068884212D0B6
:1038E000C1B22046FFF786FB297861602046FFF7CA
:1038F000C9FF02280CD006E0022084F8740220469A
:103900006160FFF777FB2046BDE87040FFF7ACBB76
:1039100031462046BDE87040FFF783BBAC00002075
:1039200010B5FFF77EFE002010BD2DE9F0410A78AA
:10393000002612F0600208D0202A01D0402A70D15F
:10394000D0F88C22926890476DE04B7800220125D8
:103950000A2B66D2DFE803F0405D65576508056510
:103960002C29FFF7FFFB5EE004468888D8B9C88899
:10397000C8B94888802816D200F07F0794F87402EE
:10398000032810D084F8767239462046FFF70AFEE5
:103990002046FFF769FB1FB1022084F8740242E061
:1039A00084F874523FE020463BE0FFF777FF3AE0AF
:1039B000CB88012B35D190F87432012B04D0022B27
:1039C00002D0032B2DD104E08260012200F1080116
:1039D00016E00122011D13E090F87422012A03D0A1
:1039E000022A01D0032A1CD1CA88022A19D1C56033
:1039F000D0F87C1209B10321C160022200F10C0150
:103A0000FFF725FB0FE0498801290CD1C0F87C5253
:103A100011E090F87432012B08D0022B06D0032B52
:103A200004D0FFF7FEFA3046BDE8F081498801294D
:103A3000F9D1C0F87C22FFF717FBF4E72DE9F0413C
:103A40000A46044610780027097910F060030AD06E
:103A5000202B01D0402B50D1D4F88C021146836822
:103A6000204698478FE0C0F34110012806D05078D7
:103A7000D0B301282AD003283FD107E0D4F88C0224
:103A8000114683682046BDE8F041184794F8740257
:103A9000022802D0032872D10AE071B380296ED0C7
:103AA0002046FFF7B5FD80212046FFF7B1FD6AE013
:103AB000508838B931B1802904D0D08810B9204657
:103AC000FFF7A6FD2046FFF7CFFA5CE094F87402FA
:103AD0000228E2D0032852D1508898BB4806F1D082
:103AE0002046FFF7F8FBEDE7FFE794F874020026A5
:103AF000022803D0032842D112E040E009B1802916
:103B00003DD1080601F07F0000EB800004EB80014E
:103B100001D5143101E001F5A07102220E602AE006
:103B2000080601F00F0000EB800004EB80000AD5CE
:103B3000806920B301F07F0000EB800004EB80057A
:103B400014350BE01FE0D0F84401C0B101F07F0054
:103B500000EB800004EB800505F5A07541B18029DC
:103B600006D02046FFF7B8FC10B10120286000E025
:103B70002E60022229462046FFF769FA03E011462B
:103B80002046FFF74EFA3846BDE8F08170B505468D
:103B900008780C4610F0600003D0202801D040289F
:103BA00016D195F87402012803D0022801D0032809
:103BB0000ED1207901280BD8D5F88C0282682846CE
:103BC0009047E188014306D12846FFF74DFA02E00D
:103BD0002846FFF726FA002070BD000070B50A786D
:103BE000012302F00F054E78AB401B4CD0F81C5857
:103BF000012E17D045EA0343C0F81C3800EB4210F1
:103C0000D0F8002B12040BD4D0F8002B0B89C97804
:103C1000C3F30A031A4344EA81410A43C0F8002B64
:103C2000002070BD9BB21D43C0F81C5800EB421031
:103C3000D0F800391B04F3D4D0F800390D89C978C5
:103C4000C5F30A0589042B4341EA82510B43234300
:103C5000C0F80039E4E7000000800010D0F8001937
:103C60006FF30A01C0F80019D0F80818C1F3410138
:103C7000022905D1D0F8001941F00301C0F800195C
:103C8000D0F8041841F48071C0F80418002070477F
:103C900070B5044606990A9E049D0D98012916D018
:103CA000E06840F04000E060204600F02BF8A16B97
:103CB0001EB321F48031A163012D07D1A16841F029
:103CC0000601A160A16841F02001A16070BDA16B57
:103CD00021F48031A163E168094A1140E160E168A3
:103CE00021F44011E160012803D1E06840F4801024
:103CF000E060204600F006F8DEE741F48031DAE7C4
:103D0000BFFFBDFF01220C4902E0521C8A420BD8C2
:103D10000369002BF9DA026942F001020261012213
:103D200004E0521C8A4201D9032070470369DB0773
:103D3000F7D1002070470000400D030030B50B782C
:103D40004D78012203F00F0402FA04F4012DD0F89B
:103D50003C5817D025EA0444C0F83C48D0F81C4829
:103D6000097801F00F018A4024EA0241C0F81C18CA
:103D700000EB4310D0F8001B0E4A1140C0F8001BA6
:103D8000002030BDA4B2A543C0F83C58D0F81C4870
:103D9000097801F00F018A4091B28C43C0F81C48A9
:103DA00000EB4310D0F80019034A1140C0F8001985
:103DB000E6E700000078F3EF007833EC10B5D0F8B8
:103DC000041821F00201C0F804180320FCF7EAFAF5
:103DD000002010BD10B5D0F8041841F00201C0F861
:103DE00004180320FCF7DEFA002010BD2DE9F04F87
:103DF0000025DDE90BCB0E460446DDF84090099F17
:103E00002846294604EB8002C2F80411401C0F2802
:103E1000F8D3B9F1000F204618D0006820F4001242
:103E20002260A06B40F40022A26308468846C4F8D2
:103E3000000ED4F800182046C4F80018BCF1010F99
:103E400010D0D0F8001841F0030110E0806B40F46E
:103E50000012A263A06B20F40022A263A06B20F4E6
:103E60008022E1E7D0F800180BB141F00101C0F861
:103E70000018102100F08AFA00B10125204600F058
:103E800075FA00B101254046C4F81088C4F81488BA
:103E9000C4F81C8800214FF000634FF090484FF6A3
:103EA0007F3A14E004EB4112D2F800C9BCF1000FD4
:103EB00006DA11B1C2F8008904E0C4F8003901E063
:103EC000C2F80009C2F81009C2F808A9491C8E42BC
:103ED000E8D8002115E000BF04EB4112D2F800CB76
:103EE000BCF1000F06DA11B1C2F8008B04E0C4F88F
:103EF000003B01E0C2F8000BC2F8100BC2F808AB9F
:103F0000491C8E42E8D8D4F8101821F4807221465A
:103F1000C4F81028012F08D1134AC1F83028D1F86D
:103F20003018124A1143C4F83018A0616FF0804075
:103F300060611FB9A06940F01000A061A0690C4940
:103F40000843A061BBF1000F03D0A06940F0080056
:103F5000A061B9F1010F03D1A06906490843A0612E
:103F60002846BDE8F08F000000018000030001003A
:103F700000383C8004000040816821F0010181602C
:103F80000020704770B50D784E78404CEBB200EBD6
:103F90004313012E1FD0D3F8100B6FF31200C3F898
:103FA000100BD3F8100B2040C3F8100B486908B170
:103FB00088684861D3F8100B40F40020C3F8100B58
:103FC000D3F8100B8C68C4F312042043C3F8100B11
:103FD000012A4ED051E04E69002ED3F8106932D03C
:103FE0006FF31206C3F81069D3F810692640C3F8BE
:103FF00010694E698C68A64200D94C61D3F810490B
:1040000044F40024C3F81049D3F810494E69C6F3AC
:1040100012063443C3F81049012A22D04A694AB132
:10402000D0F83428097801F00F03012199400A43A0
:10403000C0F8342800EB4510D0F8001941F00441D5
:10404000C0F800191FE02640C3F81069D3F81049E2
:1040500044F40024C3F81049D3F810496FF3120454
:10406000D8E709690029E5D000EB4512C2F8141918
:10407000E0E7C86808B1C3F8140BD3F8000B40F0B0
:104080000440C3F8000B002070BD0000FFFF07E0F4
:1040900010B5036C134CA34203D9D0F8003B002B9E
:1040A0001EDB0023C0F8103BD0F8103B43F4002384
:1040B000C0F8103BD0F8103B43F01803C0F8103B99
:1040C000D0F8103B43F0C043C0F8103B012907D1A2
:1040D000C0F8142BD0F8001B41F08021C0F8001B61
:1040E000002010BD0A30544F4A780B78012A00EBAB
:1040F00043100BD0D0F8002B22F40012C0F8002B94
:10410000C978032914D0022912D017E0D0F8002969
:1041100022F40012C0F80029C978032901D002292D
:104120000CD1D0F8001941F08051C0F8001905E019
:10413000D0F8001B41F08051C0F8001B00207047F0
:104140000A784B78D1B200EB4110012B12D0D0F895
:10415000001B002906DB2AB1D0F8001B21F08041AA
:10416000C0F8001BD0F8001B41F40011C0F8001B80
:1041700000207047D0F80019002906DB2AB1D0F8DA
:10418000001921F08041C0F80019D0F8001941F45D
:104190000011C0F80019EBE7F8B50C784F786F4DB7
:1041A000E3B26FF0604600EB4313012F26D0D3F843
:1041B000104B6FF31204C3F8104BD3F8104B2C4084
:1041C000C3F8104B4C69002C6FD08D682C44641ED2
:1041D000B4FBF5F4D3F8105BA4B206EAC446354349
:1041E000C3F8105BD3F8105B8E686643C6F3120405
:1041F0002543C3F8105B012A7ED096E04F691FB3B8
:10420000D3F810796FF31207C3F81079D3F8107947
:104210002F40C3F810794F698D682F447F1EB7FB7C
:10422000F5F506EAC545D3F810693543C3F81059CA
:10423000D3F810594E69C6F312063543C3F8105926
:10424000CD78012D10D01BE0D3F810692E40C3F8B3
:104250001069D3F8105945F40025C3F81059D3F864
:1042600010596FF3120509E0D3F8105925F0C04535
:10427000C3F81059D3F8105945F00055C3F8105938
:10428000012A13D0CB78012B18D04B692BB3D0F86F
:1042900034380D7805F00F060125B5402B43C0F8E2
:1042A0003438CB78012B09D017E02BE00B69002BB9
:1042B000F7D000EB4415C5F81439F2E7D0F8083808
:1042C000DB0500EB4413D3F8005902D445F0005548
:1042D00001E045F08055C3F8005900EB4413D3F8D2
:1042E000004944F00444C3F80049CB78012B32D193
:1042F00000928A8A93B200E013E00A78C96800F05D
:104300003FF928E0D3F8104B8D68C5F312052C4314
:10431000C3F8104BD3F8104B44F40024C3F8104BEF
:1043200069E7CA680AB1C3F8142BC97801290CD10E
:10433000D0F80808C005D3F8000B02D440F00050B4
:1043400001E040F08050C3F8000BD3F8000B40F0C0
:104350000440C3F8000B0020F8BD0000FFFF07E099
:10436000816841F001018160002070470021102226
:104370000261054A491C914201D903207047036933
:10438000DB06F7D400207047400D030000222023F5
:1043900043EA811101610549521C8A4201D9032077
:1043A000704703699B06F7D400207047400D030057
:1043B000D0F8080810F0060004D0022803D0062820
:1043C00001D00020704703207047406900F00100D1
:1043D0007047D0F81818D0F81C08084080B2704711
:1043E000D0F81818D0F81C080840000C704710B519
:1043F000D0F81038D0F8342801F00F0400EB411049
:10440000E24002F00102D0F8080943EAC21210406B
:1044100010BD00EB4111D1F8081BD0F8140808407A
:1044200070474169806908407047D21C10B59308F5
:10443000002200F5805002E00468521C10C19A422C
:10444000FAD3084610BD10B5C26822F0C042C2605F
:10445000012902D029B1012010BDC16841F00051ED
:1044600002E0C16841F08041C1603220FBF79AFF51
:10447000002010BDD0F8002822F4FE62C0F8002809
:10448000D0F800284FF4FE6303EA01110A43C0F894
:104490000028002070470000032A3ED1264A274BFF
:1044A0000A449A4201D20F2138E0254A254B0A449A
:1044B0009A4201D20E2131E0234A244B0A449A4207
:1044C00001D20D212AE0224A224B0A449A4201D20B
:1044D0000C2123E0204A214B0A449A4201D20B21AD
:1044E0001CE01F4A1F4B0A449A4201D20A2115E0E0
:1044F0001D4A1E4B0A449A420FD31D4A1D4B0A44C3
:104500009A4201D2082109E01B4A11441B4A9142F8
:1045100001D2072102E0062100E00921C26822F44D
:104520007052C260C2684FF4705303EA81210A439B
:10453000C260002070470000405327FF00350C0088
:10454000401E1BFF40420F0000DC0BFF804F12009B
:10455000808CF9FE20D6130060B6E5FE60E31600FD
:1045600000D3CEFE40771B00C05BB3FEC09121009C
:1045700000CA91FE20753800E05459FEE09C4100CD
:1045800010B5029C64B9DB1C9C0800EB02300023D0
:1045900000F5805002E004C902605B1CA342FAD31C
:1045A000002010BD02480021017000787047000013
:1045B0000F00002089B101290CD0022903D0032962
:1045C00005D0042070474FF48050108005E04FF470
:1045D000803001E04FF480601060002070472DE9CA
:1045E000F0411F4615460E4600244FF4805808E05F
:1045F00029034246304600F0B1F8641C6D1C06F5F4
:104600008056BC42F4D30020BDE8F081024800216E
:1046100001700078704700000F0000202DE9F0477E
:10462000984616460F4600254FF480590CE0340397
:10463000204600F00FF821464A46384600F0BEF802
:104640006D1C761C07F580574545F0D30020BDE86A
:10465000F087FEE738B50446FBF780FF05462020CB
:104660008DF80000200C8DF80100200A8DF8020062
:104670008DF8034000F002F9114C00221021204671
:10468000FBF766FF4FF47A73042269460D48FDF785
:1046900027FB012210212046FBF75AFF40F6B834D1
:1046A00007E000BFFBF75AFF401BA04201D90320DF
:1046B00038BD00F009F80228F4D0002038BD000011
:1046C000000002407C0100207CB511A0114C006864
:1046D0000090002210212046FBF73AFF4FF47A7534
:1046E0002B46012269460C48FDF7FAFA2B460122B7
:1046F00001A90948FDF74CFA012210212046FBF7D9
:1047000027FF9DF80400C00700D002207CBD0000F8
:1047100005000000000002407C01002038B50CA01C
:104720000C4C00680090002210212046FBF710FF7F
:104730004FF47A73022269460748FDF7D1FA012245
:1047400010212046FBF704FFBDE83840FFF7BCBF4F
:1047500066990000000002407C010020F8B5054683
:1047600003208DF80000080C8DF80100080A8DF870
:104770000200104F14468DF8031000221021384615
:10478000FBF7E6FE4FF47A763346042269460A4880
:10479000FDF7A6FAA2B2334629460748FDF7F8F915
:1047A00008B10120F8BD012210213846FBF7D0FEE8
:1047B0000020F8BD000002407C0100202DE9F84FE8
:1047C00016460C468346FBF7C9FE0746002001E06B
:1047D00000F58070A042FBD9051BB54200D93546D3
:1047E00004EB060ADFF88C804FF002094FF47A766A
:1047F0008DF80090200C8DF80100200A8DF8020041
:104800008DF8034000F03AF8002210214046FBF7F3
:104810009FFE3346042269461748FDF761FA30B916
:10482000AAB2334659461448FDF75AFA10B101208E
:10483000BDE8F88F012210214046FBF789FE06E013
:10484000FBF78CFEC01BB04201D90320F0E7FFF755
:104850003BFF0228F4D02C4404F58070AB44504553
:1048600002D9AAEB040501E04FF480755445BFD38B
:104870000020DDE7000002407C010020F8B514A014
:1048800000680090FBF76AFE124E054600221021D8
:104890003046FBF75DFE4FF47A74234601226946E9
:1048A0000D48FDF71DFA012210213046FBF750FE9E
:1048B00007E000BFFBF752FE401BA04201D90320D6
:1048C000F8BDFFF701FF0228F4D00020F8BD00007A
:1048D00006000000000002407C0100200907090ECC
:1048E000002804DB00F1E02080F80014704700F09D
:1048F0000F0000F1E02080F8141D704702E008C8A6
:10490000121F08C1002AFAD170477047002001E049
:1049100001C1121F002AFBD17047000010B50446E8
:104920000020E070401E2063204601F08CFD08B19D
:10493000042010BD04F2322001F0F0FCA0F52A4161
:10494000553901D0032010BD94F83400E92805D072
:10495000EB2814D194F83600902810D104F16A00A5
:1049600001F0D1FC0749B1EB002F06D004F186001D
:1049700001F0C9FC0449884201D1002010BD022089
:1049800010BD0000004641544641543300E0401C35
:1049900002780AB18A42FAD1D0B27047F0B500224B
:1049A000144D134605EB021426685EB10768BE423B
:1049B00009D166688768BE4205D1A4684669B442D9
:1049C00004D000E00123521C022AEBD3022A01D0BA
:1049D00069B904E04BB9022907D01220F0BD05EBFC
:1049E00002108089B0F5807F01D00020F0BD10203A
:1049F000F0BD0000F03A002030B50021054B0C4618
:104A000003EB01121568854200D11460491C02298C
:104A1000F6D330BDF03A00200268090BC06A528913
:104A2000B1FBF2F1001D04C81AB1914203D3891AF7
:104A3000F8E7002070470068084470478269891EC3
:104A4000921E8A4201D800207047C26A408901FB49
:104A5000002070472DE9F05F82460C4601F11A00F4
:104A600001F05CFC78BB2078012700F03F00401E7D
:104A700000EB8001DFF8589001EBC00500264FF6EF
:104A8000FF7B00BF19F80600204401F047FC804678
:104A90006FB1FF2D17D201F02FF907463AF8150034
:104AA0006D1C01F029F987420DD1474601E0D84538
:104AB00009D1761C0D2EE5D32078400606D52FB1FE
:104AC0003AF8150010B10020BDE8F09F0120FBE787
:104AD000726700082DE9F04105680F00804606D096
:104AE00001F01CFB022809D20120BDE8F0812E69EB
:104AF00016B1A869B04207D8012605E0411CF4D0E0
:104B0000A9698142F1D83E463446A869641CA04296
:104B100002D80224022E0AD32146404601F0FEFAB2
:104B200038B10128E1D0411CDFD0B442EDD10020E2
:104B3000DBE74FF0FF3632462146284601F09CFC69
:104B400030B957B122463946284601F095FC20B1CC
:104B500001280FD001242046C7E72C61D5E90501C3
:104B6000891E884201D8401E6861287940F0010002
:104B70002871F0E73446EEE72DE9F84F82460068E9
:104B80000F680024C66888462546785D6D1C20287D
:104B90002AD32F2823D05C2821D0FF2C49D2A0F182
:104BA00081017D290BD8795D6D1C01EB0020A1F1FD
:104BB000400280B23F2A02D380397F2939D20121B5
:104BC00001F074F85FEA000933D0B9F1800F12D216
:104BD000014675A0FFF7DAFE58BB0CE06D1C795D4D
:104BE0002F29FBD05C29F9D07A19C8F80020202899
:104BF00005D204250FE026F81490641CC5E70025B3
:104C000009E000BF06EB440030F8020C202801D078
:104C10002E2802D1641E002CF4D1002026F81400A6
:104C20003CB10B2220210AF1240001F005FC0027F1
:104C300003E00620BDE8F88F7F1C36F81700202817
:104C4000FAD02E28F8D01FB145F0030500E0641E0D
:104C50002CB106EB440030F8020C2E28F7D14FF0AF
:104C600000094FF0080BCDF8009000BF36F8170090
:104C700007F101075FEA000824D0B8F1200F04D043
:104C8000B8F12E0F04D1A74202D045F00305EDE79D
:104C90000098584501D2A74219D1BBF10B0F0FD094
:104CA000A74201D045F003050CD84FF00800009052
:104CB0004FEA896027464FF00B0B4FEA1069D5E7A2
:104CC00045F003059AF82400E52849D04BE040461A
:104CD000B8F1800F07D301F00FF8002100F0E6FFD4
:104CE000804645F00205B8F1FF0F13D90099ABF1EA
:104CF0000100814204D345F00305CDF800B0B5E7CB
:104D00000AEB01004FEA182280F824200098401C8A
:104D100000901CE0B8F1000F04D0014625A0FFF779
:104D200035FE20B14FF05F0845F003050FE0A8F114
:104D30004100192802D849F0020908E0A8F16100F1
:104D4000192804D8413049F001091FFA80F8009A67
:104D50000AEB020181F824800098401C009085E74E
:104D600005218AF82410BBF1080F03D14FEA8960AE
:104D70004FEA1069C9F38100032803D06FEA0901E3
:104D8000890701D145F00205A90709D409F00301FB
:104D9000012901D145F01005012801D145F0080590
:104DA0008AF82F50002045E7222A3A3C3E3F7C7F7C
:104DB000000000002B2C3B3D5B5D0000401E0228E4
:104DC00012D20A4901EB00118889B0F5807F05D025
:104DD00008B1401E80B2888110B103E00020FAE7DC
:104DE000002008600020704702207047F03A002041
:104DF0002DE9F04704460021D0F8009000F0CCF9EE
:104E000000285BD1FF25471EA84627634846E16975
:104E100001F019FB060050D1216A087850B1CA7A16
:104E2000E52802F03F02A2713FD0130704D50F2AF4
:104E30003BD105E0042640E00F2A01D0E5B120E097
:104E400094F82F20520632D4420606D591F80D80F0
:104E500000F0BF00626905462263A84209D14A7B7F
:104E6000424506D1D9F80C00FFF7F4FD08B16D1EDC
:104E700000E0FF25EDB21AE0084601F0CCFB40450A
:104E80001BD094F82F00C0070FD1D4F8201004F1E4
:104E900024000B2211F8013B10F8015B5B1B521E32
:104EA00002D0002BF6D000E03BB1FF2527630021A4
:104EB000204600F005F80600A8D03046BDE8F0878F
:104EC0002DE9F047054647690468C06989462037DF
:104ED00010B1B7F5001F02D30420BDE8F0873905F3
:104EE00060D1401CE861A9694FF0000829B16089D0
:104EF000401E10EA173F05D054E02089B0EB571F41
:104F00001DD94FE0284601F009F9064601281BD9B2
:104F1000701C33D0A069B0423ED8B9F1000F0ED05A
:104F20002846A969FFF7D6FD06000BD0012E0BD04D
:104F3000701C23D0204601F0BFFBF8B906E0C5F88D
:104F40001C80C9E70720C8E70220C6E74FF480525B
:104F5000002104F1340001F06FFA4FF000083146EF
:104F60002046FFF76BFD4FF0010920630DE000BF05
:104F700084F80390204601F09FFB08B10120ACE7C4
:104F8000206B08F10108401C206361894145EFD87E
:104F9000216BA1EB0800206331462046AE61FFF78C
:104FA0004DFDE861C7F30B00204434306F61286287
:104FB000002092E72DE9F04F0446D0F8009090F8D9
:104FC0002F0089B010F0A00F03D0062009B0BDE873
:104FD000F08F0025D9F80C0000E06D1C30F815109A
:104FE0000029FAD104F124010C226846039101F052
:104FF00019FA9DF80B00C00719D0402084F82F0043
:10500000012633466946D9F80C20039801F040F890
:105010002046FFF7EDFE10B9761C642EF1D3642E06
:105020000FD00428D2D19DF80B0084F82F009DF8F2
:105030000B00800707D50D200C35B5FBF0F56D1C76
:1050400002E00720C2E7012500212046276800F082
:10505000A3F888B900263846E16901F0F4F958B997
:10506000206A0078E5280AD048B1002601212046B0
:10507000FFF726FF0028EED0042812D012E0761C9D
:105080002846AE42F2D1451E059567D06169684257
:1050900001EB4011204600F07FF85FEA000803D0E2
:1050A00076E00720804673E0039801F0B4FA4FF6EB
:1050B000FF7B07904846E16901F0C5F95FEA000807
:1050C00066D1D9F80C0006900598D4F82080C0B2BB
:1050D0000490079988F80D100F2188F80B10002113
:1050E00088F80C1008F11A0001F091FA0498DFF822
:1050F000A4A0401E00EB800101EBC006002701E0E8
:105100005D4503D0069830F81650761C1AF8071043
:1051100001EB0800294601F07AFA05B95D467F1CCB
:105120000D2FEDD35D4505D0069830F8160008B177
:10513000049803E0049840F04000049088F80000D0
:10514000012189F8031000212046FFF7B9FE5FEA2C
:1051500000081DD10598401E0590ABD14846E16975
:1051600001F071F95FEA000812D120220021206AC3
:1051700001F062F90B22206A039901F053F994F8C7
:105180002F00216A00F018000873012089F803003D
:1051900040461BE7726700082DE9F04107680E469C
:1051A0000546B1F5001F36D2F00634D16E61AC6809
:1051B00024B93878032805D3BC6A1CB178894FEA32
:1051C000003812E03889B0EB561F24D9B86A12E0D3
:1051D000284600F0A3FF0446401C1AD0022C1AD324
:1051E000B869A04217D9A6EB080646452146EFD27A
:1051F0003846FFF723FCC5E9064060B100EB1630E6
:10520000E861C6F30B003844343028620020BDE862
:10521000F0810120FBE70220F9E70000084910B502
:105220000B5C002253B901220A540A1801EB8000DA
:10523000127A40680168104688470246104610BD41
:10524000103B002030B4054C231804EB80001B7A7F
:10525000406804691846A44630BC6047103B0020F3
:1052600030B4054D2C1805EB8000247A4068856821
:105270002046AC4630BC6047103B0020044A111861
:1052800002EB8000097A4068426808461047000037
:10529000103B002030B4054D2C1805EB8000247A1B
:1052A0004068C5682046AC4630BC6047103B0020D3
:1052B00038B5044600F0ECFB00280CD169462046C6
:1052C00001F023FA002806D12069FFF777FD0028B6
:1052D00001D10021216038BD2DE9FF4F91B01E465C
:1052E000144611A81E9D00F09DFF002803DA0B2034
:1052F00015B0BDE8F08FF64951F8201009B1002231
:105300000A70C0B20490FFF789FFC10701D00320E3
:10531000EEE7400701D50A20EAE70EAA0321049828
:10532000FFF790FF38B90E9828B1B0F5004F02D8BA
:10533000411E084201D001200E904FF4805A24B142
:1053400054453AD3B4F1807F37D8601E044234D13B
:10535000B5FBFAFBB4FBFAF75FEA0B30344610906A
:105360007ED00CAA01210498FFF76CFF002878D1A9
:1053700012980C9900076FEAA0104FEA906949450E
:105380006ED3A1EB090086460C90802868D3802F4D
:1053900013D812984FF6F5728007129840F6F573FD
:1053A00007D500F0070002287ED01298C0077BD0F6
:1053B00001E0C00701D0022696E0132098E73D00E7
:1053C0000ED100204FEA5E4C0125C24901E06D007C
:1053D000401C31F81080B8F1000F01D0E045F6D93B
:1053E000BEFBF5F00AEB8001C91DB1FBFAF82021E4
:1053F000039100210791904232D9B74988422FD8B2
:1054000029E000BFB349002001254FEA1E3C0E39B8
:1054100001E06D00401C31F81080B8F1000F01D0A0
:10542000E045F6D9BEFBF5F0984203D9042101EB23
:10543000400006E0012600EB40000321401C01EB88
:1054400050005044401EB0FBFAF801208103039045
:10545000B1FBFAF007900398484400EB080101E023
:1054600055E034E10590079808440E9900EB010CD3
:10547000491EACF1010C2CEA010CACEB0001032E2F
:1054800019D0884400EB0511A1EB090171453ED804
:1054900003990798AEEB0101A1EB0801081AB0FBD4
:1054A000F5F00190032E00E024E00ED0022E13D080
:1054B000012E2AD02DE0DDF80CC08C44CDF80CC0B4
:1054C000DDF814C061440591DCE7904221D8F7B9BA
:1054D0006F087FF474AF1AE0904211D93FB94020B1
:1054E000B0EB450F03D36F003D009BD18AE71298C4
:1054F000800707D5032662E76F00802FF4D906E006
:10550000984206D8002FF7D001E0984201D90E202A
:10551000EEE652460021204600F08EFF0B226FA1DE
:10552000204600F07FFF514604F10B0001F06FF8B8
:105530006573039881B204F10E0001F068F8012050
:105540002074032E0ED0410204F1110001F05FF827
:105550000C99B1F5803F07D289B204F1130001F034
:1055600056F805E00021EFE704F1200001F047F8CC
:10557000F82060753F2104F1180001F048F8FF2180
:1055800004F11A0001F043F8494604F11C0001F04F
:1055900036F82927032E27D000F01EFE014604F11D
:1055A000270001F02CF81FFA88F104F1160001F031
:1055B0002EF8802084F8240084F8267013224AA153
:1055C00004F12B0000F02EFF04F5FF704AF6552180
:1055D000089001F01CF801234A4621460498FFF781
:1055E00059FE002873D124E000F0F6FD014604F1D5
:1055F000430001F004F8414604F1240000F0FFFFED
:10560000022104F12C0000F0FAFF012104F1300026
:1056100000F0FDFF062104F1320000F0F8FF8020C9
:1056200084F8400084F84270132234A104F147004A
:10563000C8E7032E32D1012309F10602214604985E
:10564000FFF728FE52460021204600F0F5FE3049C3
:10565000204600F0D4FF2F4904F5F27000F0CFFF90
:10566000019904F5F470491E00F0C9FF022104F508
:10567000F67000F0C4FF4AF65521089800F0C7FF05
:10568000012309F1070221460498FFF703FE0123D5
:1056900009F1010221460498FFF7FCFD0021204694
:1056A000109A00F0C9FE6FF00701032E02D0012E00
:1056B00032D032E0204600F0A2FF4FF0FF31201D33
:1056C00000F09DFF6FF0704104F1080026E073E0E8
:1056D000A80000208E670008F5FFFF0FEBFE904D3D
:1056E00053444F53352E30004E4F204E414D4520F0
:1056F0002020204641542020202020004E4F204EC4
:10570000414D4520202020464154333220202000A6
:1057100052526141727241614149204600F06FFF6F
:10572000474658465F4500D8384680460346DDE97F
:1057300004022146FFF7AEFDF0BB52460021204691
:1057400000F07AFE0599B7EB080701EB0800059019
:10575000E7D1032E00D0079D58465D4501D9074685
:1057600000E02F46DDE904023B462146FFF792FDAB
:1057700010BB0598ED1B38440590EDD1032E05D0E4
:105780000C98B0F5803F03D3062604E00C2602E017
:10579000022E38D001261298000736D45246002136
:1057A000204600F049FE4AF65521089800F02FFFE8
:1057B00004F5DF75002000E02FE0287001216970FA
:1057C000A970E8702E710C9909EB010043F6C161D4
:1057D000B0FBF1F0FE2169713F2141EA9001A9710E
:1057E000E871494605F1080000F009FF05F10C00D9
:1057F0000C9900F004FF0123002221460498FFF7D2
:1058000049FD50B901E00426C5E70022114604987D
:10581000FFF718FD00283FF47BAD012068E500008C
:10582000F8FFFF002DE9F74181B090460298009003
:10583000684600F0F7FC040003D50B2004B0BDE877
:10584000F0810D4E002756F824501DB12846FFF771
:10585000D3F82F700198002800D0077046F8240074
:1058600002D0B8F1010F01D00020E7E7002201A922
:1058700002A800F081FAE1E7A80000202DE9F74333
:10588000ADF5147D05000BD002F03F0632466946A7
:1058900095A800F071FA04004FF0000805D0EFE081
:1058A00009200DF5177DBDE8F083009810A901903F
:1058B000C16001A8959900F089FB04000ED19DF804
:1058C0003300000601D5062408E0700801D001214C
:1058D00000E0002101A8FFF761F8044616F01C0F54
:1058E0005DD04FF00109C4B1042C10D100206749EC
:1058F00002E0401C022804D201EB00121268002AC8
:10590000F7D1022807D001A8FFF754FB044646F060
:1059100008065CB1B4E01224B2E09DF80A0010F071
:10592000110F47D1700701D50824A9E0300747D5EA
:1059300000F052FC0746099839460E3000F05FFE31
:1059400009983946163000F05AFE09992020C8728D
:105950000999009800F0C4FC0746002209990098B4
:1059600000F039FE099800211C3000F048FE009933
:1059700081F8039017B3D1F830900022394601A87E
:1059800000F0EFFD04007BD14946009800F05BFD7C
:1059900004000098A7F1010707610DD070E0ECBB8F
:1059A0009DF80A00C10601D5042469E0B10703D5BA
:1059B000C00701D0072463E0300701D546F0400658
:1059C0000098006B68620998A862700801D00121F4
:1059D00000E0002101A800F043FC2861B8B3099958
:1059E000009800F07DFCA86009981C3000F08BFC4A
:1059F000C5F82C80E86000992960009905F1300015
:105A00004FF48052C988A9802E7585F81580C5F895
:105A1000208000218146C5F8188000E030E000F0C9
:105A20000BFDB0062ED5EE6866B3AE610098A9688E
:105A3000408907030FE0284600F070FB014601286B
:105A400000D80224481C03D0F61B24B105E01BE05B
:105A50000124F61B01E0BE42EDD8E96184B93005AE
:105A600010D00098FEF7EAFF70B100EB16322A6200
:105A70000098012349464078FFF7F2FB10B101245A
:105A8000C5F8008020460CE70224F9E7F03A002030
:105A9000F8B50446694600F038FE00280ED1217D95
:105AA0004A060BD508060ED50098226A01234078D5
:105AB00004F13001FFF7EEFB08B10120F8BD207DB5
:105AC00000F07F00207500F087FB0646616A0098B1
:105AD00000F0B9FC0028F1D1A56A2946E87A40F027
:105AE0002000E872A268206800F075FD05F11C0036
:105AF000E16800F084FD314605F1160000F07FFDFD
:105B0000002105F1120000F082FD00980121C17012
:105B100000F08EFD217D01F0BF012175F8BD2DE95A
:105B2000FE4F04460020884618609946154602A993
:105B3000204600F0EAFD002806D1607D002803D150
:105B4000207D800702D40720BDE8FE8FA0690127D1
:105B500042194FF0020A04F1300B824200D2C543D1
:105B60009BE0A169080575D102984089401E10EAA2
:105B7000113618D129B1E06A38B12046FEF74CFF42
:105B800007E0A06838B9002100E0E1692046FEF78F
:105B9000A1FF00287DD001282DD0411C54D0E06108
:105BA000A16801B9A060207D00060BD50298226A89
:105BB000012340785946FFF76DFBA0BB207D00F024
:105BC0007F002075E1690298FEF738FF98B13044F4
:105BD0000190280B009027D03218029841898A4200
:105BE00001D9891B0091DDE9003240784146FFF779
:105BF00051FBC0B903E084F815A00220A4E7216A94
:105C00000198081A009988420AD208EB00314FF433
:105C10008052584600F006FC207D00F07F00207581
:105C20000098060328E00FE0216A019881420FD016
:105C3000E168A06988420BD2029801235946407856
:105C4000019AFFF70DFB18B1677501207CE701E0B1
:105C500001982062208BC0F30B00C0F58056AE4245
:105C600000D92E46204432464146303000F0DAFB5F
:105C7000207D40F080002075A069B0443044A061D0
:105C8000E168884200D80846E060D9F80000811930
:105C900000E005E0AD1BC9F80010002D7FF461AFF6
:105CA000207D40F04000207500204DE770B5802831
:105CB0001BD345F2205309B10D4D00E00D4D0021DD
:105CC00010245A1A02EBD27201EB620235F82260FC
:105CD000864206D001D2114600E01346641EF0D180
:105CE00004E01CB105EB8200408870BD002070BD4F
:105CF00020BC01089C67000830B5B0F5805F01D278
:105D00001B4900E01B4931F8022B002A15D09042B4
:105D100013D331F8024B230AE5B252FA84F48442D9
:105D200021D9092B09D2DFE803F005090E1113155B
:105D300017191B00801A31F8100030BD811A01F0CC
:105D40000101401A00E0103880B230BD2038FBE776
:105D50003038F9E71A38F7E70830F5E75038F3E755
:105D6000A0F5E350F0E7002BCDD101EB4501CAE7E8
:105D7000A4100308961203082DE9FF41002790465E
:105D80000E460F6000F04EFA050003D50B2004B05C
:105D9000BDE8F0818A4850F825409CB134602078F5
:105DA00008F0FE0620B16078FFF768FAC1070BD053
:105DB0002770E8B2B8466070FFF730FAC10708D024
:105DC0000320E4E70C20E2E70EB1400704D40020F2
:105DD000DDE71EB1400701D50A20D8E7002631468D
:105DE0002046FEF79BFD022822D100254FEA0D0731
:105DF00004EB051090F8F61100F5F97019B10830B0
:105E000000F081FA00E0002047F825006D1C042D09
:105E1000EED3002557F8256036B131462046FEF70F
:105E20007DFD022801D203E003206D1C042DF1D377
:105E3000042809D002286DD204F13F0000F06EFA68
:105E4000B0F5805F66D101E00120A0E704F14A00CF
:105E500000F064FA18B904F1580000F054FAE06157
:105E600094F84450A570012D01D0022D52D1454324
:105E700094F841006081E8B3411E08424AD104F120
:105E8000450000F04BFA2081400643D104F1470061
:105E900000F044FA070004D104F1540000F033FA92
:105EA000074604F1420000F039FA010032D023899C
:105EB000481900EBD31297422CD3B81A6789B0FB6C
:105EC000F7F0B8B103274FF6F57C604500D80227FC
:105ED00040F6F57C604500D80127801C3244E26220
:105EE0003144A061C4E90861032F15D013B12944DE
:105EF000A16200E00EE0022F1FD000F0010100EBD4
:105F0000400001EB500000BFE16900F6FF70B1EB0B
:105F1000103F14D20D203AE704F15E0000F0FEF9C4
:105F20000028F7D120890028F4D104F1600000F0A6
:105F3000EAF9A062A0698000E6E74000E4E74FF0DC
:105F4000FF306061206180202071032F2CD104F18B
:105F5000640000F0E3F9012826D1711C204600F00E
:105F600072FA08BB84F8048004F2322000F0D6F9FB
:105F7000A0F52A41553917D104F1340000F0C3F9D6
:105F80001049884210D104F5067000F0BCF90E49A2
:105F9000884209D104F5077000F0B5F9606104F595
:105FA000087000F0B0F9206105492770091F0888C2
:105FB000401C0880E0802046FEF71EFD07E7000039
:105FC000A8000020525261417272416173B50446CB
:105FD0000568019801E0401C019001782F29FAD052
:105FE0005C29F8D00021A16001980078202806D211
:105FF000802084F82F002046FFF7CEF87CBD01A951
:106000002046FEF7B9FD0028F8D12046FEF7F0FE45
:1060100094F82F1028B10428F0D14907EED40520B8
:106020007CBD4907FCD4A079C006F8D5A08AC0F38E
:106030000B0041192846343100F052F9A060DEE728
:1060400010B5002821D0114B0022001F196803E071
:10605000814203D80A4649680029F9D152B1136830
:10606000841A9C4204D1006818441060104602E073
:10607000506000E0186039B102680B1A934203D1F6
:106080000B681A4402604968416010BD5401002049
:106090007CB516461C4605460B2200F0C3F9052CBC
:1060A00011D91D4A0CE00021B61C2346044663F3B7
:1060B0005F044008E30300D55440491C1029F4D381
:1060C00030880028EFD107214FEA0D0304F00F00BC
:1060D0003030392800D9C01D5854491E2409F5D143
:1060E0007E20002258544C1E06E081387D2802D8BC
:1060F000A24206D0521C521C8A4202D2A85C20281E
:10610000F3D1082902D2585C491C00E02020A85491
:10611000521C082AF5D37CBD211001002DE9F04165
:1061200004680D4602290CD3A069A84209D9207839
:106130004FF0FF36012808D0370D02282BD0032856
:1061400039D001263046BDE8F081606A05EB55077D
:1061500000EB1731204600F076F90028F2D1C7F3A2
:106160000B0020447F1C90F83480606A00EB1731EC
:10617000204600F068F90028E4D1C7F30B00204462
:1061800090F8341048EA0120E90701D00609D9E760
:10619000C0F30B06D6E7606A00EBD521204600F07D
:1061A00052F90028CED107EA45002044343000F0EF
:1061B000B5F80646C6E7606A00EB9521204600F078
:1061C00042F90028BED107EA85002044343000F0AF
:1061D0009AF820F07046B5E770B500220E490F48D6
:1061E000FBF758FA00220E490C48FBF731FA0C482D
:1061F000C6784178837808480278457884787006B4
:1062000000F1205040EA415040EA034040EAC220F9
:1062100040EA4510204370BD382200205C01002078
:106220000B00002010B504464FF0FF302268002A12
:1062300013D0114600E0491C0B78202B0ED33A2BCB
:10624000F9D112F8013B303B0A2B06D28A4204D125
:10625000002B02D1491C1846216010BD002010BD42
:10626000F0B502461D4BD2F80050002003EB00149D
:106270002668AE4207D166689768BE4203D1A4681B
:106280005669B44202D0401C0228EFD3022814D130
:10629000002002E0401C022804D203EB0014246812
:1062A000002CF7D102280ED003EB0014256095686E
:1062B00065605269A2600022A281002903EB0011EF
:1062C000898902D019B10020F0BD491C01E04FF4CA
:1062D000807103EB0012401C9181F0BDF03A002068
:1062E00070B506460D4601F11A0000F017F8044695
:1062F0003078032805D105F1140000F00FF844EAC6
:106300000044204670BDC178827842EA012142787B
:10631000007842EA012140EA012070474178007884
:1063200040EA012070470000FAF726F9FCF7E8FD83
:10633000FCF71AF8FCF710F9FBF7CCFFFCF72EF985
:10634000FCF776F850261A4CDFF8688000254FF4E9
:10635000005760780028A08805D0401E0004000C7B
:10636000A08009D009E0401C80B2A080B0F5C86FC1
:1063700003D30120607000E06570A088B0FBF6F0E8
:10638000C1B22170A078142801D9A57001E0401C89
:10639000A070A078884201D3012200E00022394693
:1063A0004046FAF7D5F80020F9F7FCFFD1E70000E6
:1063B0000000002000080240F0B50B30154D20F021
:1063C00007010024144A0FE003688B420BD38B4271
:1063D00005D95E1A43184768C3E9006700E04368BF
:1063E000136002C004E0021D10680028ECD12046B2
:1063F000002802D1286808B10020F0BD064A0748ED
:106400001060074A121A22F00702C0E90024012096
:106410002860D7E75801002054010020243B0020C9
:10642000205B0020002A05D011F8013B00F8013B59
:10643000521EF9D1704700005FFA81F100F8011B8C
:10644000521EFBD1704770B50446006B0D46002606
:10645000A8420FD0204600F02FF906000AD160783C
:1064600001232A4604F13401FEF7FAFE08B1751E35
:1064700001262563304670BD2DE9F04702261746F8
:106480000D460446022969D3A069A84266D920783E
:106490004FF00109012806D040F6FF78022836D0D7
:1064A00003285BD143E0616A05EB550801EB183125
:1064B0002046FFF7C8FF060050D1C8F30B00204468
:1064C000343008F10108E90704D00178FAB262F328
:1064D0001F1100E03946017084F80390616A20467C
:1064E00001EB1831FFF7AFFF060037D1C8F30B00FF
:1064F00020443430E90702D0C7F3071105E00178E2
:10650000C7F3032201F0F0011143017024E0606A37
:1065100000EBD5212046FFF796FF06001ED108EAC2
:1065200045002044B9B2343000F071F814E0606ADC
:1065300000EB95212046FFF786FF06000ED108EA02
:106540008500204434300546FFF7DDFE67F31B006D
:106550000146284600F053F884F803903046BDE821
:10656000F0872DE9F041056813460E4607460229DB
:106570002DD3A869B0422AD93BB14FF0FF3219465A
:106580002846FFF779FF00281FD131463846FFF72C
:10659000C5FD040018D0012C19D0601C19D00022B0
:1065A00031462846FFF768FF00280ED1D5E90510CF
:1065B000821E914205D2491C6961297941F001018D
:1065C00029712646B042E0D80020BDE8F0810220C3
:1065D000FBE70120F9E770B50C460646154691B277
:1065E00004F11A0000F013F83078032806D1290CC2
:1065F00004F11400BDE8704000F009B870BD0170EE
:10660000090A4170090A8170090AC1707047017056
:10661000090A41707047014600200B22430803EB32
:10662000C01011F8013B521E1844C0B2F6D1704799
:1066300070B5044600F040F8050036D120780328F4
:106640002CD12079012829D1020304F13400002142
:106650000646FFF7F1FE4AF6552104F23220FFF715
:10666000D6FF13493046FFF7CAFF124904F50670FA
:10667000FFF7C5FF04F507706169FFF7C0FF04F578
:1066800008702169FFF7BBFF226A0123521C2263B5
:1066900060783146FEF7FEFD002020710022607810
:1066A0001146FEF7CFFD00B10125284670BD000060
:1066B00052526141727241612DE9F0410446C07845
:1066C0000027F8B1256B04F13401607801232A46D4
:1066D0008846FEF7DFFD08B1012713E00020E070D7
:1066E000606AE169281A88420CD2A67808E0E0695D
:1066F0000123054460782A464146FEF7CBFD761E0D
:10670000022EF4D23846BDE8F08170B50E46040082
:106710004FF009050CD0206850B1017841B1A18833
:10672000C288914204D14078FEF7A8FDC00703D08B
:1067300000203060284670BD00252068F9E7008001
:1067400002021F00000053544D20202020205072D0
:106750006F64756374202020202020202020302E9C
:1067600030310000000000000000010203040607B1
:10677000080901030507090E10121416181C1E0043
:1067800001000400100040000001000200000100B0
:10679000020004000800100020000000A400E8A18E
:1067A000A700ECA1A800A7A1B000E3A1B100C0A17F
:1067B000B700A4A1D700C1A1E000A4A8E100A2A84D
:1067C000E800A8A8E900A6A8EA00BAA8EC00ACA8CE
:1067D000ED00AAA8F200B0A8F300AEA8F700C2A18D
:1067E000F900B4A8FA00B2A8FC00B9A80101A1A858
:1067F0001301A5A81B01A7A82B01A9A84401BDA8A6
:106800004801BEA84D01ADA86B01B1A8CE01A3A857
:10681000D001ABA8D201AFA8D401B3A8D601B5A8C6
:10682000D801B6A8DA01B7A8DC01B8A85102BBA804
:106830006102C0A8C702A6A1C902A5A1CA0240A8B8
:10684000CB0241A8D90242A89103A1A69203A2A615
:106850009303A3A69403A4A69503A5A69603A6A6B0
:106860009703A7A69803A8A69903A9A69A03AAA680
:106870009B03ABA69C03ACA69D03ADA69E03AEA650
:106880009F03AFA6A003B0A6A103B1A6A303B2A61F
:10689000A403B3A6A503B4A6A603B5A6A703B6A6EC
:1068A000A803B7A6A903B8A6B103C1A6B203C2A69E
:1068B000B303C3A6B403C4A6B503C5A6B603C6A650
:1068C000B703C7A6B803C8A6B903C9A6BA03CAA620
:1068D000BB03CBA6BC03CCA6BD03CDA6BE03CEA6F0
:1068E000BF03CFA6C003D0A6C103D1A6C303D2A6BF
:1068F000C403D3A6C503D4A6C603D5A6C703D6A68C
:10690000C803D7A6C903D8A60104A7A71004A1A746
:106910001104A2A71204A3A71304A4A71404A5A7F3
:106920001504A6A71604A8A71704A9A71804AAA7C0
:106930001904ABA71A04ACA71B04ADA71C04AEA78F
:106940001D04AFA71E04B0A71F04B1A72004B2A75F
:106950002104B3A72204B4A72304B5A72404B6A72F
:106960002504B7A72604B8A72704B9A72804BAA7FF
:106970002904BBA72A04BCA72B04BDA72C04BEA7CF
:106980002D04BFA72E04C0A72F04C1A73004D1A790
:106990003104D2A73204D3A73304D4A73404D5A733
:1069A0003504D6A73604D8A73704D9A73804DAA700
:1069B0003904DBA73A04DCA73B04DDA73C04DEA7CF
:1069C0003D04DFA73E04E0A73F04E1A74004E2A79F
:1069D0004104E3A74204E4A74304E5A74404E6A76F
:1069E0004504E7A74604E8A74704E9A74804EAA73F
:1069F0004904EBA74A04ECA74B04EDA74C04EEA70F
:106A00004D04EFA74E04F0A74F04F1A75104D7A7F8
:106A100010205CA9132043A81420AAA1152044A883
:106A20001620ACA11820AEA11920AFA11C20B0A146
:106A30001D20B1A1252045A82620ADA13020EBA125
:106A40003220E4A13320E5A1352046A83B20F9A15E
:106A5000AC2080000321E6A1052147A8092148A810
:106A60001621EDA1212159A96021F1A26121F2A2F3
:106A70006221F3A26321F4A26421F5A26521F6A2AA
:106A80006621F7A26721F8A26821F9A26921FAA27A
:106A90006A21FBA26B21FCA27021A1A27121A2A2FA
:106AA0007221A3A27321A4A27421A5A27521A6A27A
:106AB0007621A7A27721A8A27821A9A27921AAA24A
:106AC0009021FBA19121FCA19221FAA19321FDA18A
:106AD000962149A897214AA898214BA899214CA80A
:106AE0000822CAA10F22C7A11122C6A115224DA8B2
:106AF0001A22CCA11D22D8A11E22DEA11F224EA83F
:106B00002022CFA123224FA82522CEA12722C4A133
:106B10002822C5A12922C9A12A22C8A12B22D2A19B
:106B20002E22D3A13422E0A13522DFA13622C3A137
:106B30003722CBA13D22D7A14822D6A14C22D5A1F4
:106B4000522250A86022D9A16122D4A16422DCA1E2
:106B50006522DDA1662251A8672252A86E22DAA121
:106B60006F22DBA1952292A89922D1A1A522CDA1C5
:106B7000BF2253A81223D0A16024D9A26124DAA293
:106B80006224DBA26324DCA26424DDA26524DEA2ED
:106B90006624DFA26724E0A26824E1A26924E2A2BD
:106BA0007424C5A27524C6A27624C7A27724C8A2DD
:106BB0007824C9A27924CAA27A24CBA27B24CCA2AD
:106BC0007C24CDA27D24CEA27E24CFA27F24D0A27D
:106BD0008024D1A28124D2A28224D3A28324D4A24D
:106BE0008424D5A28524D6A28624D7A28724D8A21D
:106BF0008824B1A28924B2A28A24B3A28B24B4A28D
:106C00008C24B5A28D24B6A28E24B7A28F24B8A25C
:106C10009024B9A29124BAA29224BBA29324BCA22C
:106C20009424BDA29524BEA29624BFA29724C0A2FC
:106C30009824C1A29924C2A29A24C3A29B24C4A2CC
:106C40000025A4A90125A5A90225A6A90325A7A970
:106C50000425A8A90525A9A90625AAA90725ABA940
:106C60000825ACA90925ADA90A25AEA90B25AFA910
:106C70000C25B0A90D25B1A90E25B2A90F25B3A9E0
:106C80001025B4A91125B5A91225B6A91325B7A9B0
:106C90001425B8A91525B9A91625BAA91725BBA980
:106CA0001825BCA91925BDA91A25BEA91B25BFA950
:106CB0001C25C0A91D25C1A91E25C2A91F25C3A920
:106CC0002025C4A92125C5A92225C6A92325C7A9F0
:106CD0002425C8A92525C9A92625CAA92725CBA9C0
:106CE0002825CCA92925CDA92A25CEA92B25CFA990
:106CF0002C25D0A92D25D1A92E25D2A92F25D3A960
:106D00003025D4A93125D5A93225D6A93325D7A92F
:106D10003425D8A93525D9A93625DAA93725DBA9FF
:106D20003825DCA93925DDA93A25DEA93B25DFA9CF
:106D30003C25E0A93D25E1A93E25E2A93F25E3A99F
:106D40004025E4A94125E5A94225E6A94325E7A96F
:106D50004425E8A94525E9A94625EAA94725EBA93F
:106D60004825ECA94925EDA94A25EEA94B25EFA90F
:106D7000502554A8512555A8522556A8532557A843
:106D8000542558A8552559A856255AA857255BA813
:106D900058255CA859255DA85A255EA85B255FA8E3
:106DA0005C2560A85D2561A85E2562A85F2563A8B3
:106DB000602564A8612565A8622566A8632567A883
:106DC000642568A8652569A866256AA867256BA853
:106DD00068256CA869256DA86A256EA86B256FA823
:106DE0006C2570A86D2571A86E2572A86F2573A8F3
:106DF000702574A8712575A8722576A8732577A8C3
:106E0000812578A8822579A883257AA884257BA85E
:106E100085257CA886257DA887257EA8882580A82D
:106E2000892581A88A2582A88B2583A88C2584A8FA
:106E30008D2585A88E2586A88F2587A8932588A8C7
:106E4000942589A895258AA8A025F6A1A125F5A1B4
:106E5000B225F8A1B325F7A1BC258BA8BD258CA828
:106E6000C625F4A1C725F3A1CB25F0A1CE25F2A11B
:106E7000CF25F1A1E2258DA8E3258EA8E4258FA8D2
:106E8000E52590A80526EFA10626EEA1092691A8E2
:106E90004026E2A14226E1A10030A1A10130A2A139
:106EA0000230A3A10330A8A10530A9A1063065A92D
:106EB000073096A90830B4A10930B5A10A30B6A1AF
:106EC0000B30B7A10C30B8A10D30B9A10E30BAA16A
:106ED0000F30BBA11030BEA11130BFA1123093A85A
:106EE0001330FEA11430B2A11530B3A11630BCA1ED
:106EF0001730BDA11D3094A81E3095A8213040A99F
:106F0000223041A9233042A9243043A9253044A985
:106F1000263045A9273046A9283047A9293048A955
:106F20004130A1A44230A2A44330A3A44430A4A47D
:106F30004530A5A44630A6A44730A7A44830A8A44D
:106F40004930A9A44A30AAA44B30ABA44C30ACA41D
:106F50004D30ADA44E30AEA44F30AFA45030B0A4ED
:106F60005130B1A45230B2A45330B3A45430B4A4BD
:106F70005530B5A45630B6A45730B7A45830B8A48D
:106F80005930B9A45A30BAA45B30BBA45C30BCA45D
:106F90005D30BDA45E30BEA45F30BFA46030C0A42D
:106FA0006130C1A46230C2A46330C3A46430C4A4FD
:106FB0006530C5A46630C6A46730C7A46830C8A4CD
:106FC0006930C9A46A30CAA46B30CBA46C30CCA49D
:106FD0006D30CDA46E30CEA46F30CFA47030D0A46D
:106FE0007130D1A47230D2A47330D3A47430D4A43D
:106FF0007530D5A47630D6A47730D7A47830D8A40D
:107000007930D9A47A30DAA47B30DBA47C30DCA4DC
:107010007D30DDA47E30DEA47F30DFA48030E0A4AC
:107020008130E1A48230E2A48330E3A48430E4A47C
:107030008530E5A48630E6A48730E7A48830E8A44C
:107040008930E9A48A30EAA48B30EBA48C30ECA41C
:107050008D30EDA48E30EEA48F30EFA49030F0A4EC
:107060009130F1A49230F2A49330F3A49B3061A943
:107070009C3062A99D3066A99E3067A9A130A1A568
:10708000A230A2A5A330A3A5A430A4A5A530A5A590
:10709000A630A6A5A730A7A5A830A8A5A930A9A560
:1070A000AA30AAA5AB30ABA5AC30ACA5AD30ADA530
:1070B000AE30AEA5AF30AFA5B030B0A5B130B1A500
:1070C000B230B2A5B330B3A5B430B4A5B530B5A5D0
:1070D000B630B6A5B730B7A5B830B8A5B930B9A5A0
:1070E000BA30BAA5BB30BBA5BC30BCA5BD30BDA570
:1070F000BE30BEA5BF30BFA5C030C0A5C130C1A540
:10710000C230C2A5C330C3A5C430C4A5C530C5A50F
:10711000C630C6A5C730C7A5C830C8A5C930C9A5DF
:10712000CA30CAA5CB30CBA5CC30CCA5CD30CDA5AF
:10713000CE30CEA5CF30CFA5D030D0A5D130D1A57F
:10714000D230D2A5D330D3A5D430D4A5D530D5A54F
:10715000D630D6A5D730D7A5D830D8A5D930D9A51F
:10716000DA30DAA5DB30DBA5DC30DCA5DD30DDA5EF
:10717000DE30DEA5DF30DFA5E030E0A5E130E1A5BF
:10718000E230E2A5E330E3A5E430E4A5E530E5A58F
:10719000E630E6A5E730E7A5E830E8A5E930E9A55F
:1071A000EA30EAA5EB30EBA5EC30ECA5ED30EDA52F
:1071B000EE30EEA5EF30EFA5F030F0A5F130F1A5FF
:1071C000F230F2A5F330F3A5F430F4A5F530F5A5CF
:1071D000F630F6A5FC3060A9FD3063A9FE3064A945
:1071E0000531C5A80631C6A80731C7A80831C8A807
:1071F0000931C9A80A31CAA80B31CBA80C31CCA8D7
:107200000D31CDA80E31CEA80F31CFA81031D0A8A6
:107210001131D1A81231D2A81331D3A81431D4A876
:107220001531D5A81631D6A81731D7A81831D8A846
:107230001931D9A81A31DAA81B31DBA81C31DCA816
:107240001D31DDA81E31DEA81F31DFA82031E0A8E6
:107250002131E1A82231E2A82331E3A82431E4A8B6
:107260002531E5A82631E6A82731E7A82831E8A886
:107270002931E9A82032E5A22132E6A22232E7A292
:107280002332E8A22432E9A22532EAA22632EBA276
:107290002732ECA22832EDA22932EEA231325AA9CD
:1072A000A33249A98E334AA98F334BA99C334CA9E9
:1072B0009D334DA99E334EA9A1334FA9C43350A984
:1072C000CE3351A9D13352A9D23353A9D53354A9BE
:1072D000004EBBD2014EA1B6024E4081034EDFC626
:1072E000044E4181054E4281064E4381074EF2CD48
:1072F000084EC9D5094EFDC80A4ECFC90B4EC2CFA4
:107300000C4EA2D80D4EBBB20E4EEBD30F4E4481A5
:10731000104EA4D8114EF3B3124E4581134EA8D788
:10732000144ED2C7154EA7D8164EC0CA174E468166
:10733000184EF0C7194EFBB11A4EB5D21B4ED4B43D
:107340001C4EABB61D4EBFCB1E4EA9D81F4E47815B
:10735000204E4881214E4981224EAAB6234E4A81B1
:10736000244EBDC1254ECFD1264E4B81274EA5C9F7
:10737000284EADD8294E4C812A4EF6B82B4EBED1A0
:107380002C4EDCE32D4ED0D62E4E4D812F4E4E810D
:10739000304EE1B7314E4F81324EAEB4334E508154
:1073A000344ED9C1354E5181364EBCD8374E5281FC
:1073B000384EE8CD394EA4B53A4EAACE3B4EF7D65C
:1073C0003C4E53813D4EF6C03E4ED9BE3F4EAFD8E7
:1073D000404E5481414E5581424E5681434ECBC45E
:1073E000444E5781454EC3BE464E5881474EB1D894
:1073F000484EB4C3494EE5D24A4E59814B4EAED6A3
:107400004C4EDACE4D4EA7D54E4EF5BA4F4EA6B7DE
:10741000504ED6C0514E5A81524EB9C6534ED2C567
:10742000544EC7C7554E5B81564ED4B9574E5C81FA
:10743000584ECBB3594ED2D25A4E5D815B4E5E81CF
:107440005C4EBFD85D4EC5BE5E4EF2C65F4EB2D238
:10745000604EB0CF614EE7CF624E5F81634E608178
:10746000644E6181654E6281664EE9CA674E6381F2
:10747000684E6481694EC0D86A4E65816B4E6681E4
:107480006C4E67816D4E68816E4E69816F4E6A8168
:10749000704EF2C2714ED2C2724E6B81734EE9C809
:1074A000744E6C81754E6D81764E6E81774E6F8114
:1074B000784E7081794E71817A4E72817B4E7381E4
:1074C0007C4E74817D4E75817E4EACC77F4E768139
:1074D000804E7781814E7881824E7981834E7A8188
:1074E000844E7B81854E7C81864ECBC1874E7D81CB
:1074F000884EE8D3894EF9D58A4E7E818B4EC2CA1A
:107500008C4EFEB68D4EA1D88E4EDAD38F4EF7BF7D
:10751000904E8081914EC6D4924EA5BB934EC1D859
:10752000944EE5CE954EAEBE964E8181974E8281A9
:10753000984EA8D8994E83819A4EC7D19B4EA9D018
:107540009C4E84819D4E85819E4E86819F4EBDD8E6
:10755000A04EEFD9A14EF6CDA24EBABFA34E878161
:10756000A44EBBBDA54EA5BAA64EE0D2A74EFAB218
:10757000A84EE0BAA94EB6C4AA4E8881AB4EEDCF54
:10758000AC4EA9BEAD4EA4CDAE4EC1C1AF4E8981A9
:10759000B04E8A81B14E8B81B24ED7C7B34EF1D96E
:1075A000B44E8C81B54EF4D9B64E8D81B74E8E81D6
:1075B000B84E8F81B94E9081BA4ECBC8BB4EE9D838
:1075C000BC4E9181BD4E9281BE4E9381BF4EDAD2A8
:1075D000C04EB2CAC14ECAC8C24EECD8C34EEAD8D9
:1075E000C44EC6D8C54EF6BDC64ECDC6C74EF0B3C6
:1075F000C84E9481C94EEBD8CA4EF1BDCB4EE9BD01
:10760000CC4E9581CD4ED4C8CE4ED3B4CF4E9681BC
:10761000D04E9781D14ED8C2D24E9881D34ED6B299
:10762000D44ED0D7D54ECBCAD64EFBCBD74ECCD529
:10763000D84EB6B8D94EC9CFDA4E9981DB4E9A8171
:10764000DC4E9B81DD4EDAD9DE4EF0D8DF4EAAC784
:10765000E04E9C81E14EEED8E24E9D81E34EFAB4BD
:10766000E44EEEC1E54ED4D2E64E9E81E74E9F81B8
:10767000E84EEDD8E94EA081EA4EC7D2EB4EEFD8E6
:10768000EC4EC7C3ED4EA181EE4EA281EF4EA38119
:10769000F04EF6D1F14EA481F24ED9D6F34EF2D887
:1076A000F44EA581F54EF5D8F64EFEBCF74EDBBC88
:1076B000F84EA681F94EA781FA4EA881FB4ECEC89E
:1076C000FC4EA981FD4EDDB7FE4EAA81FF4EC2B72A
:1076D000004FAB81014FF3C6024FAC81034FAD8128
:1076E000044FAE81054FAF81064FB081074FB18186
:1076F000084FB281094FF8D80A4FC1D20B4FB3815E
:107700000C4FB4810D4FE9CE0E4FBFBC0F4FFCB7ED
:10771000104FA5B7114FDDD0124FB581134FB68171
:10772000144FB781154FB881164FB981174FDAD66C
:10773000184FC5D3194FEFBB1A4FE1BB1B4FF1D800
:107740001C4FBA811D4FBB811E4FA1C91F4FB0CE28
:10775000204FABB4214FBC81224FF3D8234FBD81C2
:10776000244FCBC9254FF6D8264FD7C2274FF7D87D
:10777000284FBE81294FBF812A4FB1CE2B4FF9D858
:107780002C4FC0812D4FC1812E4FC2812F4FAEB2E1
:10779000304FC0B9314FC381324FA3D9334FC48169
:1077A000344FE9B0354FC581364FE6C1374FC681FA
:1077B000384FECC9394FC7813A4FC5CB3B4FC881D1
:1077C0003C4FC6CB3D4FA4D93E4FC9813F4FCA81E4
:1077D000404FCB81414FCC81424FCD81434FE8B5E3
:1077E000444FCE81454FCF81464FABB5474FD081F7
:1077F000484FD181494FD2814A4FD3814B4FD481D9
:107800004C4FD5814D4FBBCE4E4FCDB54F4FA1D72D
:10781000504FF4D7514FD3D3524FD681534FE5CC6D
:10782000544FD781554FCEBA564FD881574FA2D912
:10783000584FDCD9594FE0D35A4FFDD85B4FF0B7C2
:107840005C4FF7D75D4FFED85E4FFAD85F4FA1D996
:10785000604FE3C4614FD981624FDA81634FB6D381
:10786000644FF4D8654FDDD9664FDB81674FFBD895
:10787000684FDC81694FE5C56A4FDD816B4FDE8162
:107880006C4FD0C06D4FDF816E4FE0816F4FF0D1F4
:10789000704FDBB0714FE181724FE281734FD1BC09
:1078A000744FA6D9754FE381764FA5D9774FE48100
:1078B000784FE581794FE6817A4FE7817B4FACD9EC
:1078C0007C4FAED97D4FE8817E4FABD97F4FB9CA8F
:1078D000804FE981814FEA81824FEB81834FA9D9A3
:1078E000844FB6D6854FEC81864FED81874FEE8170
:1078F000884FDEB3894FA8D98A4FEF818B4FFDC0E7
:107900008C4FF0818D4FCCCA8E4FF1818F4FAAD909
:10791000904FF281914FA7D9924FF381934FF48109
:10792000944FB0D9954FF581964FF681974FB1B6E8
:10793000984FF781994FF8819A4FF9819B4FA9B9D8
:107940009C4FFA819D4FC0D29E4FFB819F4FFC817F
:10795000A04FC0CFA14FFD81A24FFE81A34FC2C255
:10796000A44F4082A54FC4BDA64FECD5A74FE0B2AF
:10797000A84FC8C7A94FEBBFAA4FADD9AB4F4182A3
:10798000AC4FAFD9AD4F4282AE4FEACEAF4FEEBA59
:10799000B04F4382B14F4482B24F4582B34F4682CB
:1079A000B44F4782B54FD6C7B64F4882B74F4982CA
:1079B000B84F4A82B94F4B82BA4F4C82BB4F4D826F
:1079C000BC4F4E82BD4F4F82BE4F5082BF4FE3B17E
:1079D000C04F5182C14F5282C24F5382C34FD9B45C
:1079E000C44FEDB6C54FB4D9C64F5482C74F558268
:1079F000C84F5682C94F5782CA4FA1BFCB4F58823A
:107A0000CC4F5982CD4F5A82CE4FDED9CF4FCEC701
:107A1000D04FFEC0D14FB8D9D24F5B82D34F5C82DA
:107A2000D44F5D82D54F5E82D64F5F82D74FD7CB82
:107A3000D84FFDB7D94F6082DA4FB5D9DB4F61829D
:107A4000DC4FB7D9DD4FA3B1DE4FE1D3DF4FB9D95A
:107A5000E04F6282E14FC5D0E24F6382E34FB6D977
:107A6000E44F6482E54F6582E64FB1D9E74F668205
:107A7000E84FB2D9E94FA9C1EA4FB3D9EB4F6782BA
:107A8000EC4F6882ED4FF3BCEE4FDED0EF4FA9B85C
:107A9000F04F6982F14FE3BEF24F6A82F34FBDD9D6
:107AA000F44F6B82F54F6C82F64F6D82F74F6E820A
:107AB000F84FBAD9F94F6F82FA4FB3B0FB4F7082CB
:107AC000FC4F7182FD4F7282FE4FC2D9FF4F73820D
:107AD0000050748201507582025076820350778282
:107AE000045078820550798206507A8207507B8252
:107AF00008507C8209507D820A507E820B50808221
:107B00000C50C4D90D50B6B10E5081820F50BFD960
:107B100010508282115083821250B9B51350848262
:107B20001450F3BE155085821650868217508782F6
:107B30001850C8CC1950F2BA1A50D0D21B508882B3
:107B40001C50C3D91D5089821E508A821F50E8BD27
:107B500020508B822150ABB322508C8223508D82D7
:107B600024508E822550C5D92650EBBE27508F82D7
:107B70002850C6D92950BBD92A50DFC42B50908237
:107B80002C50BED92D50C1D92E50C0D92F50918222
:107B90003050928231509382325094823350958289
:107BA0003450968235509782365098823750998259
:107BB00038509A8239509B823A50AED53B509C82C5
:107BC0003C50B5D63D509D823E50E3C73F509E820B
:107BD00040509F824150A0824250A1824350C8D958
:107BE0004450A2824550A3824650A4824750D9BC3B
:107BF0004850CAD94950A5824A50A6824B50A78204
:107C00004C50BCD94D50A8824E50CBD94F50ABC62A
:107C10005050A9825150AA825250AB825350AC822C
:107C20005450AD825550C9D95650AE825750AF828C
:107C30005850B0825950B1825A50F6D75B50B28238
:107C40005C50A3CD5D50B3825E50B4825F50B5826C
:107C50006050B6826150B7826250B8826350B98278
:107C60006450BA826550A1BD6650BB826750BC8229
:107C70006850BD826950BE826A50BF826B50C0821C
:107C80006C50CCD96D50C1826E50C2826F50C3828D
:107C90007050C4827150C5827250C6827350C782C0
:107CA0007450C8827550C9827650BCC57750B5CD26
:107CB0007850CA827950CB827A50CC827B50CDD911
:107CC0007C50CD827D50CE827E50C7D97F50A5B3E7
:107CD0008050FEBF8150CF828250D0828350D182AB
:107CE0008450D2828550B5B88650D3828750D482D2
:107CF0008850FCC08950D5828A50D6828B50D7825A
:107D00008C50D8828D50F8B08E50D9828F50DA8244
:107D10009050DB829150DC829250DD829350DE8263
:107D20009450DF829550E0829650E1829750E28233
:107D30009850E3829950E4829A50E5829B50E68203
:107D40009C50E7829D50E8829E50E9829F50EA82D3
:107D5000A050EB82A150EC82A250ED82A350F6B469
:107D6000A450EE82A550CED9A650EF82A750CFD90D
:107D7000A850A2B4A950D0D9AA50F082AB50F18239
:107D8000AC50DFB4AD50F282AE50F382AF50F4820B
:107D9000B050F582B150F682B250C1B0B350F78204
:107DA000B450F882B550F982B650FA82B750FB82CF
:107DB000B850FC82B950FD82BA50D1D9BB50B5C978
:107DC000BC50FE82BD504083BE504183BF504283B1
:107DD000C0504383C1504483C2504583C35046833F
:107DE000C4504783C5504883C6504983C7504A830F
:107DF000C8504B83C9504C83CA504D83CB504E83DF
:107E0000CC504F83CD505083CE505183CF50F1CFC3
:107E1000D0505283D1505383D2505483D350558382
:107E2000D4505683D5505783D650D2D9D750588383
:107E3000D8505983D9505A83DA50C5C1DB505B837F
:107E4000DC505C83DD505D83DE505E83DF505F83FA
:107E5000E0506083E1506183E2506283E3506383CA
:107E6000E4506483E5506583E650D6D9E750AEC947
:107E7000E8506683E9506783EA506883EB50698372
:107E8000EC50D5D9ED50D4D9EE50D7D9EF506A8304
:107E9000F0506B83F1506C83F2506D83F350DBCB69
:107EA000F4506E83F550A9BDF6506F83F750708380
:107EB000F8507183F9507283FA507383FB50A7C650
:107EC000FC507483FD507583FE507683FF5077839A
:107ED000005178830151798302517A8303517B8366
:107EE00004517C8305517D830651D3D90751D8D9DC
:107EF00008517E83095180830A5181830B51D9D95E
:107F00000C5182830D5183830E5184830F518583DD
:107F100010518683115187831251E5C8135188830C
:107F20001451898315518A8316518B8317518C8381
:107F300018518D8319518E831A518F831B51908351
:107F40001C5191831D5192831E5193831F51948321
:107F5000205195832151DCC0225196832351978370
:107F6000245198832551998326519A8327519B83C5
:107F700028519C8329519D832A519E832B519F8395
:107F80002C51A0832D51A1832E51A2832F51A38365
:107F90003051A4833151A5833251A6833351A78335
:107FA0003451A8833551A9833651AA833751AB8305
:107FB0003851AC833951AD833A51AE833B51AF83D5
:107FC0003C51B0833D51B1833E51B2833F51F9B62C
:107FD0004051A3D84151CAD44251B3834351AAD48A
:107FE0004451D6D04551E4B34651D7D54751B48317
:107FF0004851C8CF4951E2B94A51B5834B51CBBF23
:108000004C51B6834D51E2C34E51B7834F51B883A3
:108010005051B9835151D2B65251BA835351BB8397
:108020005451C3CD5551EED95651F0D95751BC8357
:108030005851BD835951BE835A51B3B55B51BF836B
:108040005C51B5B65D51C0835E51C1835F51C2833F
:108050006051C3836151C4836251A4BE6351C5831F
:108060006451C6836551EBC86651C7836751C883A5
:108070006851ABC86951C9836A51CA836B51CBB08F
:108080006C51ABB96D51F9C16E51E2D96F51CB83CF
:108090007051BCC07151B2B97251CC837351D8B90F
:1080A0007451CBD07551F8B17651E4C67751DFBE2B
:1080B0007851E4B57951C8D77A51CD837B51F8D145
:1080C0007C51E6BC7D51DECA7E51CE837F51CF8389
:1080D0008051BDBC8151E6D98251E7D88351D0830C
:1080E0008451D1838551DAC48651D2838751D38399
:1080F0008851D4B88951BDC88A51D4838B51D58356
:108100008C51E1B28D51D9D48E51D6838F51D78302
:108110009051D8839151D9839251B0C39351DA834E
:108120009451DB839551E1C39651A2DA9751DFC890
:108130009851DC839951B4D09A51DD839B51FCBE98
:108140009C51A9C59D51DE839E51DF839F51E083E1
:10815000A051DAB9A151E183A251A3DAA351E2837C
:10816000A451A9D4A551A4DAA651E383A751E4836D
:10817000A851E583A951E683AA51E783AB51FBD906
:10818000AC51ACB6AD51E883AE51E983AF51EBB71A
:10819000B051F9B1B151FCD9B251E5B3B351F6BE0A
:1081A000B451EA83B551F6BFB651B1D2B751E4C06C
:1081B000B851EB83B951EC83BA51ED83BB51B3B6DF
:1081C000BC51FED9BD51FDD9BE51EE83BF51EF83E5
:1081D000C051BBBEC151F083C251F183C351F28380
:1081E000C451E0C6C551F383C651BCD7C751A1DA0B
:1081F000C851F483C951B9C1CA51F583CB51F2B505
:10820000CC51E8C1CD51F683CE51F783CF51F5BCA7
:10821000D051F883D151D5B4D251F983D351FA83D7
:10822000D451FB83D551FC83D651FD83D751FE83B6
:10823000D8514084D9514184DA514284DB51DDC1A7
:10824000DC514384DD51FDC4DE514484DF5145845B
:10825000E051B8BCE151B2B7E2514684E3514784E2
:10826000E451EFB7E5514884E6514984E7514A8427
:10827000E8514B84E9514C84EA514D84EB51ECD9DF
:10828000EC514E84ED51BEC6EE514F84EF51ADBF5F
:10829000F051CBBBF1515084F2515184F351CAB526
:1082A000F4515284F551C9DBF651D7D0F7515384BC
:1082B000F851B9CDF951BCB0FA51F6B3FB51F7BB47
:1082C000FC51CADBFD51AFBAFE515484FF51E4D4D6
:1082D0000052B6B50152F3B50252D6D80352D0C8F7
:1082E00004525584055256840652D6B70752D0C759
:1082F0000852D7D8095257840A52AFBF0B5258843C
:108300000C5259840D52BBDB0E52D8D80F525A84EE
:1083100010525B841152CCD01252AEBB13525C840B
:1083200014525D8415525E841652BEEB1752D0C1B2
:108330001852F5C11952F2D41A52D5B81B52B4B41E
:108340001C525F841D52F5B31E5260841F5261841B
:108350002052BEC921526284225263842352648413
:108360002452D0C5255265842652668427526784DC
:108370002852D9C52952FBC02A5268842B52F0B129
:108380002C5269842D52D9D82E52CEB92F526A84DC
:108390003052BDB531526B8432526C843352DAD8CC
:1083A00034526D8435526E843652C6D63752A2CBC3
:1083B0003852AFC83952B2C93A52CCB43B52CCBF92
:1083C0003C526F843D52F4B93E5270843F52DBD828
:1083D0004052DCD84152E7B64252C1BC4352EACCCB
:1083E0004452718445527284465273844752748455
:1083F00048527584495276844A52F7CF4B5277845B
:108400004C52DDD84D52B0C74E5278844F527984C9
:108410005052D0B95152A3BD52527A8453527B84E8
:108420005452DECC55527C845652CAC657527D8473
:1084300058527E84595280845A5281845B5282847D
:108440005C52E0D85D5283845E52DED85F528484F1
:10845000605285846152DFD8625286846352878479
:10846000645288846552FEB0665289846752E7BEC2
:1084700068528A846952A3CA6A52F4BC6B528B84D4
:108480006C528C846D528D846E528E846F52B1B852
:1084900070528F84715290847252EEB873529184EC
:1084A0007452928475529384765294847752958450
:1084B00078529684795297847A5298847B52998420
:1084C0007C529A847D52E2D87E529B847F52CBBDEF
:1084D00080529C848152E4D88252E3D883529D8496
:1084E00084529E8485529F848652A0848752A184A0
:1084F0008852FCC58952A2848A52A3848B52A484D8
:108500008C52A5848D52A6848E52A7848F52A88443
:108510009052E5D89152A9849252AA849352E6D8F7
:108520009452AB849552AC849652AD849752AE84EB
:108530009852AF849952B0849A52B1849B52A6C18A
:108540009C52B2849D52B0C89E52ECB09F52A6B9C4
:10855000A052D3BCA152F1CEA252BDDBA352D3C1D3
:10856000A452B384A552B484A652B584A752B6844B
:10857000A852AFB6A952FAD6AA52ACC5AB52D9BDD1
:10858000AC52BEDBAD52BFDBAE52B784AF52B88443
:10859000B052B984B152F8C0B252A2BEB352CDC0EB
:1085A000B452BA84B552BB84B652BC84B752BD84AF
:1085B000B852BE84B952BF84BA52C084BB52C1847F
:1085C000BC52C284BD52C384BE52C0DBBF52C6CAB5
:1085D000C052C484C152C584C252C684C352AAB216
:1085E000C452C784C552C884C652C984C752C2D3B4
:1085F000C852CA84C952E3C3CA52CB84CB52ABD14E
:10860000CC52CC84CD52CD84CE52CE84CF52CF84A6
:10861000D052C2DBD152D084D252D5C0D352D184F1
:10862000D452D284D552D384D652C3DBD752D48409
:10863000D852B1BFD952D584DA52D684DB52D7840E
:10864000DC52D884DD52D984DE52DA84DF52BCC4D5
:10865000E052DB84E152DC84E252DD84E352DE84CA
:10866000E452DAC7E552DF84E652E084E752E1845F
:10867000E852E284E952E384EA52E484EB52E5846E
:10868000EC52E684ED52E784EE52E884EF52E9843E
:10869000F052C4DBF152EA84F252EB84F352EC84E0
:1086A000F452ED84F552EE84F652EF84F752F084E2
:1086B000F852F184F952E8D9FA52D7C9FB52F28440
:1086C000FC52F384FD52F484FE52B4B9FF52F0CE52
:1086D0000053C8D40153F5840253F6840353F7843E
:1086E0000453F8840553FCB00653D2B40753F984FD
:1086F0000853D9D00953FA840A53FB840B53FC84E2
:108700000C53FD840D53E9D90E53FE840F53CBDE79
:108710001053EBD9115340851253418513534285B1
:10872000145343851553B0D81653AFBB1753B1B18B
:10873000185344851953D7B31A53CED81B534585C4
:108740001C5346851D53D1D41E5347851F5348855E
:108750002053B3BD2153EFBF225349852353BBCFD1
:1087600024534A8525534B852653D0D827534C850F
:1087700028534D8529534E852A53CBB72B534F850C
:108780002C5350852D5351852E53D1D82F535285BC
:108790003053538531535485325355853353568561
:1087A00034535785355358853653598537535A8531
:1087B00038535B853953A5C63A53F8C73B53BDD2EE
:1087C0003C535C853D535D853E53D2D83F53E4C452
:1087D00040535E854153AECA42535F854353A7C79A
:1087E000445360854553A6D8465361854753FDC918
:1087F0004853E7CE4953DCBB4A53EBB04B53628539
:108800004C5363854D5364854E53AABB4F53ADD033
:10881000505365855153B0B15253E4D75353BFD72A
:10882000545366855553A5B55653F4C25753CFC418
:1088300058536785595368855A53A9B25B53698564
:108840005C53B7B25D536A855E53E5B15F53B2DFE7
:108850006053BCD56153A8BF6253ACC26353D5D833
:108860006453B1C265536B856653D4D86753D4CE75
:1088700068536C856953E0DA6A536D856B53C0CEDB
:108880006C536E856D536F856E53B4D86F53AEC302
:108890007053A1D37153A3CE725370857353B4BC7C
:1088A0007453B4C87553D1C2765371857753EDBEF6
:1088B0007853B6D0795372857A53E1DA7B53738556
:1088C0007C5374857D5375857E5376857F53E4C7CD
:1088D00080537785815378858253A7B383537985F5
:1088E0008453F2B68553FCCC8653FAC087537A85FD
:1088F00088537B858953F7C08A537C858B53B9D1C4
:108900008C53E1D18D53C7D88E537D858F537E858F
:1089100090538085915381859253828593538385AB
:10892000945384859553DEB29653858597538685F7
:108930009853E5C0995387859A53F1BA9B5388851C
:108940009C5389859D53C8D89E538A859F53ADD427
:10895000A0538B85A1538C85A253E1CFA353C9D8D3
:10896000A4538D85A553CAD8A653C3CFA7538E85CC
:10897000A853F8B3A953C7BEAA538F85AB539085AC
:10898000AC539185AD539285AE53CBD8AF539385FD
:10899000B0539485B1539585B2539685B35397855B
:1089A000B4539885B5539985B653CCDBB7539A85A4
:1089B000B8539B85B9539C85BA539D85BB53A5C8B5
:1089C000BC539E85BD539F85BE53A085BF53D8CF52
:1089D000C053A185C153FEC8C253CEB2C353A285B2
:1089E000C453A385C553A485C653A585C753A6857F
:1089F000C853D6D3C953E6B2CA53B0BCCB53D1D3B4
:108A0000CC53ABCBCD53B4B7CE53A785CF53A885AA
:108A1000D053A985D153A2B7D253AA85D353AB85DE
:108A2000D453E5CAD553AC85D653A1C8D753DCCAB5
:108A3000D853E4B1D953F0D0DA53AD85DB53D1C567
:108A4000DC53AE85DD53AF85DE53B085DF53C5DB28
:108A5000E053FEB5E153B185E253B285E353DABF8B
:108A6000E453C5B9E553E4BEE653EDC1E753B3851E
:108A7000E853B6DFE953B5DFEA53BBD6EB53D0BDBD
:108A8000EC53D9D5ED53C8B0EE53A3B6EF53C9BFDD
:108A9000F053A8CCF153B3DFF253B7CAF353D2D398
:108AA000F453B485F553CFD8F653B6D2F753C5BABD
:108AB000F853BECBF953BECCFA53B585FB53B7DFA1
:108AC000FC53F0B5FD53B4DFFE53B685FF53B785B5
:108AD0000054B8850154F5D30254B9850354D4B376
:108AE0000454F7B80554BA850654BADF0754BB8559
:108AF0000854CFBA0954AABC0A54F5B50B54BC8526
:108B00000C54ACCD0D54FBC30E54F3BA0F54F4C047
:108B10001054C2CD1154F2CF1254B8DF1354C5CF44
:108B20001454BD851554C0C21654B9DF1754F0C291
:108B30001854BE851954BF851A54C0851B54FDBEF8
:108B40001C54C1851D54DFC11E54CCCD1F54F7D217
:108B50002054CDB72154C1DF2254C2852354C4DF31
:108B60002454C3852554C4852654F1B72754C9B06D
:108B70002854D6B62954D4B72A54C5852B54ACBA38
:108B80002C54FDCC2D54D4BF2E54B1CB2F54F4C64D
:108B90003054C6853154A8D63254C5DF3354C78506
:108BA0003454E2CE3554B3B33654C8853754C985EE
:108BB0003854FCCE3954B5B43A54CA853B54C7CE68
:108BC0003C54F0BA3D54CB853E54E1CE3F54CC8565
:108BD0004054BDD14154CD854254CE854354C0DF6D
:108BE0004454CF854554D0854654F4B44754D18578
:108BF0004854CAB34954D2854A54E6B84B54BBDFF3
:108C00004C54D3854D54D4854E54D5854F54D68578
:108C10005054C5C45154D7855254BCDF5354BDDFA2
:108C20005454BEDF5554BBC55654BFDF5754C2DF42
:108C30005854B1D45954C3DF5A54D8855B54BAC779
:108C40005C54D8CE5D54D9855E54DA855F54DB859B
:108C50006054DC856154DD856254D8C46354DE857C
:108C60006454CADF6554DF856654CFDF6754E085FE
:108C70006854DCD66954E1856A54E2856B54E38517
:108C80006C54E4856D54E5856E54E6856F54E78534
:108C90007054E8857154C9DF7254DADF7354B6CE6C
:108CA0007454E9857554C7BA7654CEDF7754C8DF5B
:108CB0007854DEC57954EA857A54EB857B54EBC948
:108CC0007C54F4BA7D54FCC37E54EC857F54ED850E
:108CD0008054D7BE8154EE858254C6DF8354EF851D
:108CE0008454CDDF8554F0858654D8C58754F185EA
:108CF0008854F2858954F3858A54F4858B54A6D51B
:108D00008C54CDBA8D54F5858E54CCBE8F54BDD3C2
:108D10009054C0B89154F6859254E4D69354F78594
:108D20009454C7DF9554BEB99654A7BF9754F8859D
:108D30009854F9859954FCC19A54CBDF9B54CCDFED
:108D40009C54FA859D54D0DF9E54FB859F54FC852E
:108D5000A054FD85A154FE85A2544086A354DBDFB8
:108D6000A454E5DFA5544186A654D7DFA754D6DF27
:108D7000A854C9D7A954E3DFAA54E4DFAB54EBE508
:108D8000AC54A7D2AD54D2DFAE544286AF54A9BF83
:108D9000B0544386B154DBD4B2544486B354C8BFF4
:108DA000B454D4DFB5544586B6544686B754478686
:108DB000B854CCCFB9544886BA544986BB54DDDF89
:108DC000BC544A86BD54CAD1BE544B86BF54DEDF64
:108DD000C054A7B0C154B7C6C254D3DFC3544C86E5
:108DE000C454E5BAC5544D86C654DFB6C754DBCD6E
:108DF000C854FEB9C954D5D4CA544E86CB544F86F4
:108E0000CC54DFDFCD54ECCFCE54A5B0CF54E7DF48
:108E1000D054D1DFD154C6D1D254D5DFD354D8DF0A
:108E2000D454D9DFD554DCDFD6545086D754A9BBEF
:108E3000D8545186D954E0DFDA54E1DFDB5452864E
:108E4000DC54E2DFDD54E6DFDE54E8DFDF54B4D388
:108E5000E0545386E1545486E2545586E3545686D2
:108E6000E4545786E554E7B8E654B6C5E754EADF5C
:108E7000E854DAC9E954A8C1EA54C4C4EB5458868A
:108E8000EC545986ED54DEBFEE54F8CFEF545A86B9
:108E9000F0545B86F1545C86F254DCD5F354EEDF7B
:108EA000F4545D86F5545E86F6545F86F75460860A
:108EB000F8546186F9546286FA54B8B2FB5463865A
:108EC000FC54DFBAFD54ECDFFE546486FF54C1DB72
:108ED000005565860155E4D10255668603556786BF
:108EE00004556886055569860655F4CB0755BDB40B
:108EF00008556A860955A6B00A556B860B556C86CF
:108F00000C556D860D556E860E556F860F55F1DF2B
:108F10001055C6CC1155F2DF125570861355718667
:108F20001455EDDF155572861655738617557486E0
:108F300018557586195576861A5577861B55E9DFBB
:108F40001C5578861D5579861E557A861F557B8659
:108F50002055EBDF21557C862255EFDF2355F0DFCE
:108F60002455BDBB25557D8626557E862755F3DFC6
:108F700028558086295581862A55F4DF2B5582860F
:108F80002C55A3BB2D5583862E55DBCA2F55A8CE55
:108F90003055A7E03155AAB3325584863355A6E043
:108FA0003455858635558686365587863755A1E0F2
:108FB00038558886395589863A558A863B558B8639
:108FC0003C55FEDF3D558C863E55D9CD3F55FCDFE7
:108FD00040558D864155FADF42558E864355D0BFA8
:108FE0004455C4D745558F864655CCC947559086BC
:108FF000485591864955F8DF4A55A1B04B559286A0
:109000004C5593864D5594864E5595864F5596866C
:109010005055FDDF51559786525598865355998680
:1090200054559A865555FBDF5655A2E057559B86F9
:1090300058559C8659559D865A559E865B559F86E8
:109040005C55A8E05D55A0865E55A1865F55A28659
:109050006055A3866155C8B76255A4866355A58639
:109060006455A1C66555B6C96655B2C06755F5DFEA
:109070006855A6866955A7866A55BEC56B55A886EC
:109080006C55C4D86D55F9DF6E55F6C46F55A98679
:109090007055AA867155AB867255AC867355AD86F0
:1090A0007455AE867555A3E07655A4E07755A5E0D6
:1090B0007855A5D07955AF867A55B0867B55B4E002
:1090C0007C55E4CC7D55B1867E55B1E07F55B286A6
:1090D0008055A6BF8155AFE08255B9CE8355ABE030
:1090E0008455C6C98555B3868655B4868755AEC0A6
:1090F0008855AEE08955EDBA8A55B0BA8B55A9E0CE
:109100008C55B5868D55B6868E55B7868F55F6DF4C
:109110009055B8869155B3E09255B9869355BA8665
:109120009455B8E09555BB869655BC869755BD8637
:109130009855ADB49955B9E09A55BE869B55BF86F2
:109140009C55B2CF9D55C8BA9E55C0869F55B0E07C
:10915000A055C186A155C286A255C386A355C48613
:10916000A455C586A555C686A655C786A755FAD067
:10917000A855C886A955C986AA55CA86AB55CB86B7
:10918000AC55CC86AD55CD86AE55CE86AF55CF8687
:10919000B055D086B155ACE0B255D186B355FBD4AD
:1091A000B455D286B555F7DFB655D386B755E7C562
:1091B000B855D486B955ADE0BA55D586BB55F7D369
:1091C000BC55D686BD55B6E0BE55B7E0BF55D7866F
:1091D000C055D886C155D986C255DA86C355DB86B7
:1091E000C455C4E0C555E1D0C655DC86C755DD86FB
:1091F000C855DE86C955BCE0CA55DF86CB55E0862A
:10920000CC55C9E0CD55CAE0CE55E186CF55E286B2
:10921000D055E386D155BEE0D255AAE0D355A4C9B6
:10922000D455C1E0D555E486D655B2E0D755E5868C
:10923000D855E686D955E786DA55E886DB55E986BE
:10924000DC55C8CADD55C3E0DE55EA86DF55B5E01A
:10925000E055EB86E155CBCEE255EC86E355C3CB2A
:10926000E455CDE0E555C6E0E655C2E0E755ED86AC
:10927000E855CBE0E955EE86EA55BAE0EB55BFE09C
:10928000EC55C0E0ED55EF86EE55F086EF55C5E0A4
:10929000F055F186F155F286F255C7E0F355C8E076
:1092A000F455F386F555CCE0F655F486F755BBE05A
:1092B000F855F586F955F686FA55F786FB55F88682
:1092C000FC55F986FD55D4CBFE55D5E0FF55FA8601
:1092D0000056D6E00156D2E00256FB860356FC86C5
:1092E0000456FD860556FE8606564087075641877A
:1092F0000856D0E00956CEBC0A5642870B56438723
:109300000C56D1E00D5644870E56C2B80F56C5D83C
:109310001056458711564687125647871356488779
:109320001456498715564A8716564B8717564C8749
:109330001856EAD019564D871A564E871B56EFC25B
:109340001C564F871D5650871E56CFE01F56BDE056
:109350002056518721565287225653872356D4E0F0
:109360002456D3E025565487265655872756D7E0EE
:1093700028565687295657872A5658872B56598775
:109380002C56DCE02D56D8E02E565A872F565B8798
:1093900030565C873156F6D63256B0B333565D87B9
:1093A0003456ECD735565E873656BBCB37565F877B
:1093B000385660873956DAE03A5661873B56FBCE1D
:1093C0003C5662873D5663873E5664873F56D9BAFE
:1093D0004056658741566687425667874356688779
:1093E0004456698745566A8746566B8747566C8749
:1093F00048566D8749566E874A566F874B56708719
:109400004C56E1E04D56DDE04E56ADD24F567187D9
:1094100050567287515673875256748753567587C4
:109420005456E2E055567687565677875756DBE016
:109430005856D9E05956DFE05A5678875B567987F7
:109440005C56E0E05D567A875E567B875F567C8788
:1094500060567D8761567E876256DEE06356808760
:109460006456E4E06556818766568287675683872F
:109470006856F7C66956ACD86A56EBD46B56E6E028
:109480006C56C9CA6D5684876E5685876F56868717
:10949000705687877156E5E07256888773568987BC
:1094A00074568A8775568B877656C1B877568C87DF
:1094B00078568D8779568E877A568F877B56E7E068
:1094C0007C56E8E07D5690877E5691877F5692873E
:1094D00080569387815694878256958783569687C0
:1094E000845697878556E9E08656E3E08756988745
:1094F0008856998789569A878A569B878B569C8768
:109500008C569D878D569E878E56BFBA8F56E7CC58
:1095100090569F879156A0879256A1879356EAE06E
:109520009456A2879556A3879656A4879756A587E3
:109530009856A6879956A7879A56A8879B56A987B3
:109540009C56AA879D56AB879E56AC879F56AD8783
:10955000A056AE87A156AF87A256B087A356F9CFC3
:10956000A456B187A556B287A656B387A756B48727
:10957000A856B587A956B687AA56B787AB56B887F7
:10958000AC56B987AD56BA87AE56BB87AF56EBE03F
:10959000B056BC87B156BD87B256BE87B356BF879B
:1095A000B456C087B556C187B656C287B756C2C82B
:1095B000B856C387B956C487BA56C587BB56C6873F
:1095C000BC56C0BDBD56C787BE56C887BF56C987E3
:1095D000C056CA87C156CB87C256CC87C356CD87E3
:1095E000C456CE87C556CF87C656D087C756D187B3
:1095F000C856D287C956D387CA56D2C4CB56D48749
:10960000CC56D587CD56D687CE56D787CF56D88756
:10961000D056D987D156DA87D256DB87D356DC8726
:10962000D456ECE0D556DD87D656DE87D756EDE02A
:10963000D856DF87D956E087DA56F4C7DB56C4CB55
:10964000DC56E187DD56EEE0DE56D8BBDF56B6D8F5
:10965000E056F2D2E156EFE0E256C5CDE356E2879E
:10966000E456DAB6E556E387E656E487E756E5873B
:10967000E856E687E956E787EA56E887EB56F1E0D1
:10968000EC56E987ED56B0D4EE56EA87EF56EB87F5
:10969000F056A7C0F156D1B4F256EC87F356ED87D9
:1096A000F456A7CEF556F0E0F656EE87F756EF875C
:1096B000F856F087F956F2E0FA56CCB9FB56F18726
:1096C000FC56F287FD56FAB9FE56BCCDFF56F3E0C4
:1096D0000057F3870157F4870257F5870357D4C61D
:1096E0000457F4E00557F6870657B2D40757F787B3
:1096F0000857A6C80957F6E00A57F5E00B57F88750
:109700000C57F9870D57FA870E57FB870F57FC87C1
:109710001057FD871157FE8712574088135741880D
:109720001457428815574388165744881757458859
:1097300018574688195747881A5748881B57498829
:109740001C57F7E01D574A881E574B881F57C1CD3D
:1097500020574C8821574D8822574E882357A5CA39
:1097600024574F88255750882657518827575288A5
:109770002857DAD42957D7DB2A57D9DB2B575388F8
:109780002C57D8DB2D57E7B92E57DCDB2F57DDDB05
:109790003057D8B531575488325755883357DADBAC
:1097A0003457568835575788365758883757598809
:1097B00038575A883957DBDB3A57A1B33B57DFDBC1
:1097C0003C575B883D575C883E57F8BB3F575D88E8
:1097D0004057B7D641575E884257E0DB43575F8812
:1097E0004457608845576188465762884757F9BE95
:1097F00048576388495764884A57BBB74B576588B1
:109800004C57D0DB4D57AECC4E57B2BF4F57B5BBC0
:109810005057F8D75157D3BF525766885357678868
:10982000545768885557698856576A885757E9BF0B
:1098300058576B8859576C885A57E1BC5B57B3CC63
:109840005C57DEDB5D57D3B05E57EBCE5F57D8B7C2
:109850006057B9D76157C2C662576D8863576E8823
:109860006457A4C065576F886657B9CC675770882E
:109870006857E7DB6957E1DB6A57BAC66B57E3DB2A
:109880006C5771886D57E8DB6E5772886F57F7C554
:109890007057738871577488725775887357EADBED
:1098A00074577688755777887657E9DB7757C0BF46
:1098B00078577888795779887A577A887B57E6DBA2
:1098C0007C57E5DB7D577B887E577C887F577D887A
:1098D00080577E88815780888257B9B48357ACC03F
:1098E0008457A2C28557E2DB8657E4DB875781881D
:1098F00088578288895783888A5784888B57CDD028
:109900008C57EDDB8D5785888E5786888F578788D3
:1099100090578888915789889257DDC09357F2DB1A
:1099200094578A8895578B8896578C8897578D8837
:1099300098578E8899578F889A5790889B57E2B688
:109940009C5791889D5792889E5793889F579488DB
:10995000A057F3DBA157D2DBA257B8B9A357ABD4BA
:10996000A457ECDBA5579588A657D1BFA757F0DBC6
:10997000A8579688A957D1DBAA579788AB57E6B561
:10998000AC579888AD57EBDBAE57E5BFAF5799881A
:10999000B0579A88B1579B88B257EEDBB3579C8873
:1099A000B457F1DBB5579D88B6579E88B7579F8847
:1099B000B857F9DBB957A088BA57A188BB57A28816
:1099C000BC57A388BD57A488BE57A588BF57A68893
:1099D000C057A788C157A888C257A1B9C357A3B019
:1099E000C457A988C557AA88C657AB88C757AC883B
:1099F000C857AD88C957AE88CA57AF88CB57F1C290
:109A0000CC57B088CD57B188CE57C7B3CF57EFDB0F
:109A1000D057B288D157B388D257F8DBD357B48820
:109A2000D457D2C6D557F4DBD657B588D757B688A2
:109A3000D857F5DBD957F7DBDA57F6DBDB57B788B2
:109A4000DC57B888DD57FEDBDE57B988DF57F2D325
:109A5000E057BAB2E157BA88E257BB88E357BC88EF
:109A6000E457FDDBE557BD88E657BE88E757BF885A
:109A7000E857C088E957C188EA57C288EB57C388BE
:109A8000EC57C488ED57A4DCEE57C588EF57FBDBD5
:109A9000F057C688F157C788F257C888F357C98866
:109AA000F457FADBF557CA88F657CB88F757CC88B6
:109AB000F857FCDBF957E0C5FA57F9BBFB57CD88DF
:109AC000FC57CE88FD57A3DCFE57CF88FF57D088C0
:109AD0000058A5DC0158D1880258C3CC0358D2885D
:109AE0000458D3880558D4880658D1B60758C0DD25
:109AF0000858D5880958D6880A58D7880B58A1DC49
:109B00000C58D8880D58A2DC0E58D9880F58DA881E
:109B10001058DB881158B5C71258DC881358DD88F7
:109B20001458DE881558E9B61658DF881758E088AB
:109B30001858E1881958A7DC1A58E2881B58E3889E
:109B40001C58E4881D58E5881E58A6DC1F58E68876
:109B50002058A9DC2158A4B12258E7882358E88866
:109B60002458CCB52558E9882658EA882758EB8828
:109B70002858EC882958ED882A58B0BF2B58EE8811
:109B80002C58EF882D58F0882E58F1882F58F288DD
:109B90003058DFD13158F3883258F4883358F5887B
:109BA0003458F6883558C2B63658F7883758F8888A
:109BB0003858F9883958FA883A58FB883B58FC8855
:109BC0003C58FD883D58FE883E5840893F584189A1
:109BD00040584289415843894258448943584589ED
:109BE0004458A8DC4558468946584789475848890B
:109BF0004858498949584A894A584B894B584C8991
:109C00004C58FACB4D58F3EB4E584D894F584E896E
:109C100050584F895158DCCB52585089535851896C
:109C20005458FECB55585289565853895758548921
:109C30005858C1CC595855895A5856895B58578934
:109C40005C5858895D5859895E58FBC85F585A89D5
:109C500060585B8961585C8962585D8963585E8988
:109C600064585F896558AADC6658608967586189BD
:109C700068586289695863896A5864896B58EECC60
:109C80006C58ABDC6D5865896E5866896F5867896A
:109C9000705868897158698972586A8973586B89D4
:109CA00074586C8975586D8976586E8977586F89A4
:109CB00078587089795871897A5872897B58738974
:109CC0007C5874897D5875897E58D3DB7F58768996
:109CD0008058AFDC8158ACDC825877898358B3BE9A
:109CE000845878898558FBCA8658798987587A8933
:109CF00088587B898958ADDC8A587C898B587D8946
:109D00008C587E898D5880898E5881898F58828998
:109D100090588389915884899258CAC99358B9C474
:109D2000945885899558868996588789975888893F
:109D3000985889899958BDC79A58AEDC9B588A892A
:109D40009C588B899D588C899E58F6D49F58E6D094
:109D5000A0588D89A1588E89A2588F89A3589089BF
:109D6000A4589189A5589289A6589389A75894898F
:109D7000A858ABC4A958D5B6AA589589AB589689A6
:109D8000AC589789AD589889AE589989AF589A8937
:109D9000B0589B89B1589C89B2589D89B3589E8907
:109DA000B4589F89B558A089B658A189B758A289D7
:109DB000B858A389B958A489BA58A589BB58A689A7
:109DC000BC58D4DBBD58A789BE58A889BF58A989FB
:109DD000C058AA89C158DAB1C258AB89C358AC89F6
:109DE000C458AD89C558D5DBC658AE89C758AF89A8
:109DF000C858B089C958B189CA58B289CB58B389F3
:109E0000CC58B489CD58B589CE58B689CF58B789C2
:109E1000D058B889D158D6DBD258B989D358BA8925
:109E2000D458BB89D558BEBAD658BC89D758BD8935
:109E3000D858BE89D958BF89DA58C089DB58C1893A
:109E4000DC58C289DD58C389DE58C489DF58C5890A
:109E5000E058C689E158C789E258C889E358C989DA
:109E6000E458C0C8E558CA89E658CB89E758CC8978
:109E7000E858CD89E958CE89EA58CF89EB58BFCA4E
:109E8000EC58C9C8ED58D089EE58B3D7EF58D189EE
:109E9000F058F9C9F158D289F258D389F358C7BF9D
:109EA000F458D489F558D589F658F8BAF758D689B0
:109EB000F858D789F958BCD2FA58D889FB58D989AB
:109EC000FC58DA89FD58DB89FE58DC89FF58DD89AA
:109ED0000059DE890159DF890259BAE20359E08944
:109EE0000459A6B40559E1890659E2890759B8B160
:109EF0000859E3890959E4890A59E5890B59E68922
:109F00000C59E7890D59B4B80E59E8890F59C4CFD7
:109F10001059E9891159EA891259EB891359EC89C9
:109F20001459E7D91559A6CF1659E2CD1759ED891D
:109F30001859EE891959EDD91A59E0B61B59EF890C
:109F40001C59B9D21D59F0891E59F1891F59BBB945
:109F50002059F2892159F3892259F4892359F58925
:109F60002459B9E22559B7E22659F6892759F3B49D
:109F70002859F7892959ECCC2A59ABCC2B59F2B77F
:109F80002C59F8892D59B2D82E59EBD12F59BBBA7B
:109F90003059F9893159A7CA3259FA893359FB899D
:109FA0003459B7CD3559FC893659FD893759C4D252
:109FB0003859E4BF3959D0BC3A59E1B63B59FE890A
:109FC0003C59C5DE3D59408A3E59418A3F59428A33
:109FD0004059438A4159C6DE4259BCDB4359448A41
:109FE0004459D9D14559458A4659468A4759E6C602
:109FF0004859CEC44959EEB74A59478A4B59DCB73C
:10A000004C59488A4D59498A4E59FCBF4F59E0D79F
:10A0100050594A8A5159F5C652594B8A53594C8A5C
:10A020005459BCB15559C8DE5659B1BD5759D7CC52
:10A030005859CADE59594D8A5A59C9DE5B594E8A58
:10A040005C594F8A5D59508A5E59518A5F59528ACC
:10A050006059ECB56159538A6259DDC96359548A14
:10A060006459558A6559C2B06659568A6759578AE4
:10A070006859588A6959598A6A595A8A6B595B8A48
:10A080006C595C8A6D595D8A6E595E8A6F595F8A18
:10A090007059608A7159618A7259628A7359AEC562
:10A0A0007459ABC57559638A7659CCC47759648A9B
:10A0B0007859E9BC7959FDCB7A59658A7B59668A0A
:10A0C0007C59678A7D59C3BA7E59688A7F59698AE3
:10A0D00080596A8A8159F9E58259E7C88359FAE5B6
:10A0E0008459FDCD85596B8A8659B1D78759BEB839
:10A0F0008859E8C289596C8A8A59D1C88B596D8AA6
:10A100008C596E8A8D59FBE58E596F8A8F59708AEA
:10A110009059718A9159728A9259CAB69359CBBC97
:10A120009459738A9559748A9659FDD19759A1E625
:10A130009859758A9959EEC39A59768A9B59778AA4
:10A140009C59788A9D59798A9E59A4E69F597A8AA2
:10A15000A0597B8AA1597C8AA2597D8AA359FEE520
:10A16000A459A5E6A559D7CDA6597E8AA759808AB4
:10A17000A859C1B7A959FCE5AA59FDE5AB59A3E611
:10A18000AC59818AAD59828AAE59DDC4AF59A8E66F
:10A19000B059838AB159848AB259A7E6B359858ADE
:10A1A000B459868AB559878AB659888AB759898A2F
:10A1B000B8598A8AB959C3C3BA598B8ABB59DEC602
:10A1C000BC598C8ABD598D8ABE59AAE6BF598E8A60
:10A1D000C0598F8AC159908AC259918AC359928AAB
:10A1E000C459938AC559948AC659B7C4C759958A20
:10A1F000C859968AC959978ACA59A2E6CB59BCCA86
:10A20000CC59988ACD59998ACE599A8ACF599B8A26
:10A21000D059E3BDD159C3B9D259A6E6D359D5D047
:10A22000D459AFCED5599C8AD6599D8AD759A9E61B
:10A23000D859B0E6D9599E8ADA59A6D2DB599F8AF5
:10A24000DC59AABDDD59ADE6DE59A08ADF59A18AE5
:10A25000E059A28AE159A38AE259A48AE359AFE6F8
:10A26000E459A58AE559D1C0E659A68AE759A78AD3
:10A27000E859CCD2E959A88AEA59A98AEB59AA8A9D
:10A28000EC59A7BCED59AB8AEE59AC8AEF59AD8AAF
:10A29000F059AE8AF159AF8AF259B08AF359B18AAE
:10A2A000F459B28AF559B38AF659B48AF759B58A7E
:10A2B000F859B68AF959B1E6FA59B78AFB59F6D274
:10A2C000FC59B88AFD59B98AFE59BA8AFF59CBD7C9
:10A2D000005ABB8A015AFECD025ABC8A035ADECD0F
:10A2E000045AA6C2055AABE6065AACE6075ABFBDE9
:10A2F000085AAEE6095AB3E60A5ABD8A0B5ABE8A14
:10A300000C5AB2E60D5ABF8A0E5AC08A0F5AC18A39
:10A31000105AC28A115AB6E6125AC38A135AB8E6BC
:10A32000145AC48A155AC58A165AC68A175AC78A31
:10A33000185AEFC4195AC88A1A5AC98A1B5ACA8AA3
:10A340001C5AC8C41D5ACB8A1E5ACC8A1F5AEABE50
:10A35000205AEFC9215ACD8A225ACE8A235AB7E60B
:10A36000245ACF8A255AF0B6265AD08A275AD18A3B
:10A37000285AD28A295AE4C32A5AD38A2B5AD48A11
:10A380002C5AD58A2D5AD68A2E5AD78A2F5AD88A2D
:10A39000305AD98A315AE9D3325AB4E6335ADA8A72
:10A3A000345AB5E6355ADB8A365AA2C8375ADC8A9F
:10A3B000385ADD8A395ADE8A3A5ADF8A3B5AE08AAD
:10A3C0003C5ABDE63D5AE18A3E5AE28A3F5AE38A48
:10A3D000405AB9E6415AE48A425AE58A435AE68A23
:10A3E000445AE78A455AE88A465AC5C6475AE98A0E
:10A3F000485AEA8A495AF1CD4A5ABBE64B5AEB8A87
:10A400004C5AEC8A4D5AED8A4E5AEE8A4F5AEF8AD0
:10A41000505AF08A515AF18A525AF28A535AF38AA0
:10A42000545AF48A555ABCE6565AF58A575AF68A4F
:10A43000585AF78A595AF88A5A5AE9BB5B5AF98A24
:10A440005C5AFA8A5D5AFB8A5E5AFC8A5F5AFD8A18
:10A45000605AFE8A615A408B625ABEE6635A418B4B
:10A46000645A428B655A438B665A448B675ABAE6E4
:10A47000685A458B695A468B6A5AB7C06B5A478BE4
:10A480006C5A488B6D5A498B6E5A4A8B6F5A4B8B5C
:10A49000705A4C8B715A4D8B725A4E8B735A4F8B2C
:10A4A000745AA4D3755ABFE6765AF4C9775AC3E6EC
:10A4B000785A508B795A518B7A5AC4E67B5A528B10
:10A4C0007C5A538B7D5A548B7E5A558B7F5AF6D0CB
:10A4D000805A568B815A578B825A588B835A598B84
:10A4E000845A5A8B855A5B8B865A5C8B875A5D8B54
:10A4F000885A5E8B895A5F8B8A5A608B8B5A618B24
:10A500008C5A628B8D5A638B8E5A648B8F5A658BF3
:10A51000905A668B915A678B925ABDC3935A688B37
:10A52000945A698B955A6A8B965A6B8B975A6C8B97
:10A53000985A6D8B995A6E8B9A5AC4C39B5AC2E62D
:10A540009C5A6F8B9D5A708B9E5A718B9F5A728B3F
:10A55000A05A738BA15A748BA25A758BA35A768B0F
:10A56000A45A778BA55A788BA65A798BA75A7A8BDF
:10A57000A85A7B8BA95A7C8BAA5AC1E6AB5A7D8B11
:10A58000AC5A7E8BAD5A808BAE5A818BAF5A828B80
:10A59000B05A838BB15A848BB25AC7E6B35AB1CF43
:10A5A000B45A858BB55AF4EBB65A868BB75A878B5B
:10A5B000B85ACAE6B95A888BBA5A898BBB5A8A8B61
:10A5C000BC5A8B8BBD5A8C8BBE5AC5E6BF5A8D8B3D
:10A5D000C05A8E8BC15ADEBCC25AA9C9C35A8F8BCE
:10A5E000C45A908BC55A918BC65A928BC75A938B7B
:10A5F000C85A948BC95AB5BCCA5A958BCB5A968BFC
:10A60000CC5AD3CFCD5A978BCE5A988BCF5A998BA1
:10A61000D05A9A8BD15A9B8BD25AC8E6D35A9C8B6C
:10A62000D45AC9E6D55A9D8BD65ACEE6D75A9E8BB8
:10A63000D85AD0E6D95A9F8BDA5AA08BDB5AA18B15
:10A64000DC5AD1E6DD5AA28BDE5AA38BDF5AA48BEB
:10A65000E05ACBE6E15AD5B5E25AA58BE35ACCE6EF
:10A66000E45AA68BE55AA78BE65ACFE6E75AA88BA1
:10A67000E85AA98BE95ADBC4EA5AAA8BEB5AC6E618
:10A68000EC5AAB8BED5AAC8BEE5AAD8BEF5AAE8BCE
:10A69000F05AAF8BF15ACDE6F25AB08BF35AB18B28
:10A6A000F45AB28BF55AB38BF65AB48BF75AB58B72
:10A6B000F85AB68BF95AB78BFA5AB88BFB5AB98B42
:10A6C000FC5ABA8BFD5ABB8BFE5ABC8BFF5ABD8B12
:10A6D000005BBE8B015BBF8B025BC08B035BC18BDE
:10A6E000045BC28B055BC38B065BC48B075BC58BAE
:10A6F000085BC68B095BD2E60A5BC78B0B5BC88B1A
:10A700000C5BC98B0D5BCA8B0E5BCB8B0F5BCC8B51
:10A71000105BCD8B115BCE8B125BCF8B135BD08B21
:10A72000145BD18B155BD28B165BD4E6175BD3E63B
:10A73000185BD38B195BD48B1A5BD58B1B5BD68BC9
:10A740001C5BD78B1D5BD88B1E5BD98B1F5BDA8B99
:10A75000205BDB8B215BDC8B225BDD8B235BDE8B69
:10A76000245BDF8B255BE08B265BE18B275BE28B39
:10A77000285BE38B295BE48B2A5BE58B2B5BE68B09
:10A780002C5BE78B2D5BE88B2E5BE98B2F5BEA8BD9
:10A79000305BEB8B315BEC8B325BD5E6335BED8B67
:10A7A000345BF8D9355BEE8B365BEF8B375BD6E6E7
:10A7B000385BF08B395BF18B3A5BF28B3B5BF38B55
:10A7C0003C5BF48B3D5BF58B3E5BF68B3F5BF78B25
:10A7D000405BD7E6415BF88B425BF98B435BFA8BBE
:10A7E000445BFB8B455BFC8B465BFD8B475BFE8BC9
:10A7F000485B408C495B418C4A5B428C4B5B438C91
:10A800004C5B448C4D5B458C4E5B468C4F5B478C60
:10A81000505BD3D7515BDDE6525B488C535BDEE681
:10A82000545BD7BF555BD0D4565B498C575BD6D7AA
:10A83000585BE6B4595BEFCB5A5BDAE65B5BC3D897
:10A840005C5BCED75D5BA2D05E5B4A8C5F5BCFC3A7
:10A85000605B4B8C615B4C8C625BDFE6635BBEBC18
:10A86000645BC2B9655BDBE6665BA7D1675B4D8C59
:10A87000685B4E8C695BA2BA6A5BCFC26B5B4F8C24
:10A880006C5BABD86D5B508C6E5B518C6F5B528C8C
:10A89000705BEBCA715BEEE5725B538C735BDCE65D
:10A8A000745B548C755BF5B7765B558C775B568C17
:10A8B000785B578C795B588C7A5BE6C87B5B598CEC
:10A8C0007C5B5A8C7D5BF5C47E5B5B8C7F5B5C8CB8
:10A8D000805BB2E5815BFEC4825B5D8C835BFCCBFD
:10A8E000845BB3E5855BACD5865B5E8C875BEED322
:10A8F000885BD8CA895BB2B08A5B5F8C8B5BCECB3E
:10A900008C5BEACD8D5B608C8E5B618C8F5BEABA71
:10A91000905B628C915B638C925B648C935BB5E51E
:10A92000945B658C955BB4E5965B668C975BDAD738
:10A93000985BD9B9995BE6D69A5BA8B69B5BF0CDDC
:10A940009C5BCBD29D5BA6B19E5BB5CA9F5B678CBF
:10A95000A05BE8B3A15BF3C9A25BCDBFA35BFBD057
:10A96000A45BD2CAA55BB6E5A65BC2BBA75B688C3D
:10A97000A85B698CA95B6A8CAA5BDCCFAB5BACB9CA
:10A98000AC5B6B8CAD5B6C8CAE5B6D8CAF5B6E8CC3
:10A99000B05BD7D4B15B6F8CB25B708CB35BA6BA83
:10A9A000B45BE7D1B55BFCCFB65BD2BCB75B718C57
:10A9B000B85BB7E5B95BDDC8BA5B728CBB5B738C07
:10A9C000BC5B748CBD5BEDBFBE5BF6B1BF5BDECB29
:10A9D000C05B758CC15B768CC25BC5BCC35B778C7E
:10A9E000C45BC4BCC55BFAD2C65BDCC3C75BDCBF5F
:10A9F000C85B788CC95B798CCA5B7A8CCB5B7B8CAF
:10AA0000CC5BBBB8CD5B7C8CCE5B7D8CCF5B7E8C16
:10AA1000D05BC2C3D15B808CD25BAEBAD35BA2D415
:10AA2000D45B818CD55B828CD65B838CD75B848C2A
:10AA3000D85B858CD95B868CDA5B878CDB5B888CFA
:10AA4000DC5B898CDD5BDEC7DE5BAFC4DF5BECB259
:10AA5000E05B8A8CE15BD1B9E25B8B8CE35B8C8C35
:10AA6000E45BBBE5E55BC8C1E65B8D8CE75B8E8C88
:10AA7000E85BAFD5E95B8F8CEA5B908CEB5B918CEC
:10AA8000EC5B928CED5B938CEE5BBCE5EF5B948CA6
:10AA9000F05BBEE5F15B958CF25B968CF35B978C7B
:10AAA000F45B988CF55B998CF65B9A8CF75B9B8CCE
:10AAB000F85BE7B4F95BD4B6FA5BC2CBFB5BB0D111
:10AAC000FC5BBCB5FD5B9C8CFE5B9D8CFF5BD9CABF
:10AAD000005C9E8C015CE2B7025C9F8C035CA08CE6
:10AAE000045CE4C9055CA18C065CABBD075CA28C70
:10AAF000085CA38C095CBECE0A5CF0D70B5CA48C0E
:10AB00000C5CA58C0D5CA68C0E5CA78C0F5CA1D098
:10AB1000105CA88C115CD9C9125CA98C135CAA8C3E
:10AB2000145CFBB6155CD8E6165CE2BC175CAB8C1B
:10AB3000185CBEB3195CAC8C1A5CD0C91B5CAD8CC4
:10AB40001C5CD9E61D5CA2B31E5CAE8C1F5CAF8C96
:10AB5000205CB08C215CB18C225CCCDE235CB28C9E
:10AB6000245CC8D3255CCDDE265CB38C275CA2D2E6
:10AB7000285CB48C295CB58C2A5CB68C2B5CB78CB9
:10AB80002C5CCEDE2D5CB88C2E5CB98C2F5CBA8C24
:10AB9000305CBB8C315CCDBE325CBC8C335CBD8C1C
:10ABA000345CCFDE355CBE8C365CBF8C375CC08CD1
:10ABB000385CACCA395CFCD23A5CDFB33B5CEAE59A
:10ABC0003C5CE1C43D5CA1BE3E5CB2CE3F5CF2C4E5
:10ABD000405CD6BE415CA8C6425CE3B2435CC18C1B
:10ABE000445CC28C455CD3BE465CC38C475CC48C61
:10ABF000485CFCC7495CEBCC4A5CECBD4B5CDDCEF1
:10AC00004C5CC58C4D5CC68C4E5CBACA4F5CC1C6F0
:10AC1000505CECE5515CBCD0525CC78C535CC88C7A
:10AC2000545CC98C555CB9D5565CCA8C575CCB8CCE
:10AC3000585CCC8C595CEDE55A5CCD8C5B5CCE8C61
:10AC40005C5CCF8C5D5CD08C5E5CF4CA5F5CD18C4C
:10AC5000605CC0CD615CC5C2625CD28C635CEFE5B8
:10AC6000645CD38C655CC4C2665CF0E5675CD48CC4
:10AC7000685CD58C695CD68C6A5CD78C6B5CD88C34
:10AC80006C5CD98C6D5CDA8C6E5CF8E56F5CCDCD5C
:10AC9000705CDB8C715CBDC9725CDC8C735CDD8CC0
:10ACA000745CDE8C755CDF8C765CE08C775CE18CB0
:10ACB000785CE28C795CD9D27A5CA8E17B5CE38C2D
:10ACC0007C5CE48C7D5CE58C7E5CE68C7F5CECD30C
:10ACD000805CE78C815CEACB825CF1C6835CE88CAB
:10ACE000845CE98C855CEA8C865CEB8C875CEC8C04
:10ACF000885CACE1895CED8C8A5CEE8C8B5CEF8CC3
:10AD00008C5CA7E18D5CA9E18E5CF08C8F5CF18C92
:10AD1000905CAAE1915CAFE1925CF28C935CF38C65
:10AD2000945CEDB2955CF48C965CABE1975CDAB820
:10AD3000985CADE1995CAEE19A5CB0E19B5CBAB520
:10AD40009C5CB1E19D5CF58C9E5CF68C9F5CF78C05
:10AD5000A05CF88CA15CF98CA25CB3E1A35CB8E1C7
:10AD6000A45CFA8CA55CFB8CA65CFC8CA75CFD8CBF
:10AD7000A85CFE8CA95CD2D1AA5C408DAB5CB6E12C
:10AD8000AC5CB5E1AD5CEBC1AE5C418DAF5C428DBE
:10AD9000B05C438DB15CB7E1B25C448DB35CC0D4B0
:10ADA000B45C458DB55CB2E1B65C468DB75CBAE18A
:10ADB000B85CB6B0B95C478DBA5C488DBB5C498D58
:10ADC000BC5C4A8DBD5CB4E1BE5C4B8DBF5CF9BF21
:10ADD000C05C4C8DC15CB9E1C25C4D8DC35C4E8DD5
:10ADE000C45CBBE1C55C4F8DC65C508DC75C518DAA
:10ADF000C85C528DC95C538DCA5C548DCB5CBEE17E
:10AE0000CC5C558DCD5C568DCE5C578DCF5C588D0E
:10AE1000D05C598DD15C5A8DD25CBCE1D35C5B8D2A
:10AE2000D45C5C8DD55C5D8DD65C5E8DD75C5F8DB2
:10AE3000D85C608DD95CC5D6DA5C618DDB5C628DD7
:10AE4000DC5C638DDD5C648DDE5C658DDF5C668D56
:10AE5000E05C678DE15CBFCFE25C688DE35C698D8F
:10AE6000E45CBDE1E55CBFE1E65CCDC2E75C6A8D18
:10AE7000E85CEBB6E95C6B8DEA5CF8D3EB5C6C8D5F
:10AE8000EC5C6D8DED5CCDC7EE5C6E8DEF5C6F8D17
:10AE9000F05CE5B7F15C708DF25C718DF35C728DE6
:10AEA000F45C738DF55C748DF65C758DF75C768D56
:10AEB000F85C778DF95C788DFA5C798DFB5CFEBE71
:10AEC000FC5C7A8DFD5C7B8DFE5C7C8DFF5C7D8DFA
:10AED000005D7E8D015D808D025DC0E1035DC1E19D
:10AEE000045D818D055D828D065DC7E1075DE7B379
:10AEF000085D838D095D848D0A5D858D0B5D868D72
:10AF00000C5D878D0D5D888D0E5DE9C60F5D898DA9
:10AF1000105D8A8D115D8B8D125D8C8D135D8D8D15
:10AF2000145DDEB4155D8E8D165DC2D1175D8F8DFB
:10AF3000185D908D195D918D1A5D928D1B5DC8E134
:10AF40001C5D938D1D5D948D1E5DC6E11F5D958D0D
:10AF5000205D968D215D978D225D988D235D998D65
:10AF6000245DC5E1255D9A8D265DC3E1275DC2E1C3
:10AF7000285D9B8D295DC0B12A5D9C8D2B5D9D8DCB
:10AF80002C5D9E8D2D5DB8D52E5DC4E12F5D9F8D0E
:10AF9000305DA08D315DA18D325DA28D335DA38DBD
:10AFA000345DCBE1355DA48D365DA58D375DA68D15
:10AFB000385DA78D395DA88D3A5DA98D3B5DAA8D61
:10AFC0003C5DAB8D3D5DCCE13E5DCAE13F5DAC8D4E
:10AFD000405DAD8D415DAE8D425DAF8D435DB08D09
:10AFE000445DB18D455DB28D465DB38D475DFAEF31
:10AFF000485DB48D495DB58D4A5DD3E14B5DD2E1CD
:10B000004C5DB6C74D5DB68D4E5DB78D4F5DB88D4D
:10B01000505DB98D515DBA8D525DBB8D535DBC8D58
:10B02000545DBD8D555DBE8D565DBF8D575DC08D28
:10B03000585DC9E1595DC18D5A5DC28D5B5DCEE140
:10B040005C5DC38D5D5DD0E15E5DC48D5F5DC58D72
:10B05000605DC68D615DC78D625DC88D635DC98DA4
:10B06000645DCA8D655DCB8D665DCC8D675DCD8D74
:10B07000685DCE8D695DD4E16A5DCF8D6B5DD1E198
:10B080006C5DCDE16D5DD08D6E5DD18D6F5DCFE17D
:10B09000705DD28D715DD38D725DD48D735DD58DF4
:10B0A000745DD5E1755DD68D765DD78D775DD88D74
:10B0B000785DD98D795DDA8D7A5DDB8D7B5DDC8D98
:10B0C0007C5DDD8D7D5DDE8D7E5DDF8D7F5DE08D68
:10B0D000805DE18D815DE28D825DD6E1835DE38DF2
:10B0E000845DE48D855DE58D865DE68D875DE78D0C
:10B0F000885DE88D895DE98D8A5DEA8D8B5DEB8DDC
:10B100008C5DEC8D8D5DED8D8E5DEE8D8F5DEF8DAB
:10B11000905DF08D915DF18D925DF28D935DF38D7B
:10B12000945DF48D955DF58D965DF68D975DF78D4B
:10B13000985DF88D995DD7E19A5DF98D9B5DFA8DEB
:10B140009C5DFB8D9D5DD8E19E5DFC8D9F5DFD8DC1
:10B15000A05DFE8DA15D408EA25D418EA35D428EFD
:10B16000A45D438EA55D448EA65D458EA75D468E8B
:10B17000A85D478EA95D488EAA5D498EAB5D4A8E5B
:10B18000AC5D4B8EAD5D4C8EAE5D4D8EAF5D4E8E2B
:10B19000B05D4F8EB15D508EB25D518EB35D528EFB
:10B1A000B45D538EB55D548EB65D558EB75DDAE1F4
:10B1B000B85D568EB95D578EBA5D588EBB5D598E9F
:10B1C000BC5D5A8EBD5D5B8EBE5D5C8EBF5D5D8E6F
:10B1D000C05D5E8EC15D5F8EC25D608EC35D618E3F
:10B1E000C45D628EC55DDBE1C65D638EC75D648E46
:10B1F000C85D658EC95D668ECA5D678ECB5D688EE3
:10B20000CC5D698ECD5DA1CECE5D6A8ECF5D6B8E3D
:10B21000D05D6C8ED15D6D8ED25D6E8ED35D6F8E86
:10B22000D45D708ED55D718ED65D728ED75D738E56
:10B23000D85D748ED95D758EDA5D768EDB5DDDE767
:10B24000DC5D778EDD5DA8B4DE5DDDD6DF5D788EFA
:10B25000E05D798EE15DB2D1E25DB2B3E35D7A8EFD
:10B26000E45D7B8EE55DA4B9E65DF3D7E75DC9C714
:10B27000E85DDEBEE95DAEB9EA5D7C8EEB5DD7CE02
:10B28000EC5D7D8EED5D7E8EEE5DEEB2EF5DCFDB33
:10B29000F05D808EF15DBABCF25DD1D2F35DC8CBBA
:10B2A000F45DCDB0F55D818EF65D828EF75DEFCFFA
:10B2B000F85D838EF95D848EFA5D858EFB5D868EEA
:10B2C000FC5D878EFD5DE3D9FE5DEDBDFF5D888E83
:10B2D000005E898E015ED2B1025ED0CA035EBCB24E
:10B2E000045E8A8E055EA7CB065EABB7075E8B8ECB
:10B2F000085EA6CA095E8C8E0A5E8D8E0B5E8E8EEF
:10B300000C5EA3CF0D5E8F8E0E5E908E0F5EF8E00A
:10B31000105ECAD5115EFBE0125E918E135E928EB6
:10B32000145EFAE0155EC1C5165EFBCC175E938E07
:10B33000185EB1C1195EF9E01A5EE3D61B5EAFB2CA
:10B340001C5EC4D61D5EDBB51E5E948E1F5E958EA0
:10B35000205E968E215E978E225E988E235E998E59
:10B36000245E9A8E255E9B8E265EF8B4275EA1D65B
:10B37000285E9C8E295E9D8E2A5E9E8E2B5E9F8E01
:10B380002C5EA08E2D5EAFCF2E5EEFB02F5EA18E15
:10B39000305EA28E315EFCE0325EA38E335EA48E00
:10B3A000345EA58E355EA68E365EA78E375EA1E131
:10B3B000385EA3B3395EA88E3A5EA98E3B5EFDE08F
:10B3C0003C5EFEE03D5EB1C33E5EAA8E3F5EAB8E4C
:10B3D000405EAC8E415EAD8E425EDDC3435EAE8E9E
:10B3E000445EA2E1455EF9B7465EAF8E475EB08E21
:10B3F000485EB18E495EB28E4A5EB38E4B5EB48EAD
:10B400004C5ECFBB4D5EB58E4E5EB68E4F5EB78E38
:10B41000505EB88E515EB98E525EBA8E535EBB8E50
:10B42000545EA3E1555EBBC4565EBC8E575EBD8EB6
:10B43000585EBE8E595EBF8E5A5EC08E5B5EA4E1C2
:10B440005C5EC18E5D5EC28E5E5EA5E15F5EC38E98
:10B45000605EC48E615EA6E1625EB1B4635EC58E5D
:10B46000645EC68E655EC78E665EC88E675EC98E78
:10B47000685ECA8E695ECB8E6A5ECC8E6B5ECD8E48
:10B480006C5ECE8E6D5ECF8E6E5ED08E6F5ED18E18
:10B49000705ED28E715ED38E725EC9B8735EBDC6A9
:10B4A000745EEAC4755ED48E765EA2B2775ED58E87
:10B4B000785ED2D0795ED68E7A5EDBE77B5EC3BBE8
:10B4C0007C5ED7D37D5EC4D37E5ED78E7F5EE3B9CC
:10B4D000805ECFE2815ED88E825ED98E835EDA8E08
:10B4E000845EAFD7855EDB8E865EECC7875ED3B1A8
:10B4F000885EDC8E895EDD8E8A5EB2B48B5ED1E2C0
:10B500008C5EDE8E8D5EDF8E8E5EE08E8F5EF2D084
:10B51000905EAEC2915ED0E2925EE18E935EE2BF3B
:10B52000945EA6D3955ED7B5965ED2E2975EEAB5F5
:10B53000985EE28E995EEDC39A5EFDB89B5EE38EE7
:10B540009C5EAEB89D5EE48E9E5ED3C59F5ECFB717
:10B55000A05ED4E2A15EE58EA25EE68EA35EE78EDB
:10B56000A45EE88EA55ED3E2A65EC8B6A75EF9D754
:10B57000A85EE98EA95EEA8EAA5EEB8EAB5EEC8ECB
:10B58000AC5EED8EAD5EA5CDAE5EEE8EAF5EEF8EA7
:10B59000B05EF08EB15EF18EB25EF28EB35ED8E236
:10B5A000B45EF38EB55ED6E2B65EFCCAB75EB5BFDA
:10B5B000B85EB9D3B95ED5E2BA5EF48EBB5EF58EE5
:10B5C000BC5EF68EBD5EF78EBE5ED7E2BF5EF88EC5
:10B5D000C05EF98EC15EFA8EC25EFB8EC35EFC8ECB
:10B5E000C45EFD8EC55EFE8EC65E408FC75E418F17
:10B5F000C85E428FC95EAEC1CA5EC8C0CB5E438F13
:10B60000CC5E448FCD5E458FCE5E468FCF5E478F3A
:10B61000D05E488FD15EDBE2D25EDAE2D35EAAC0B2
:10B62000D45E498FD55E4A8FD65ECEC1D75E4B8F32
:10B63000D85E4C8FD95E4D8FDA5E4E8FDB5EDCE2DA
:10B64000DC5E4F8FDD5E508FDE5E518FDF5E528F8E
:10B65000E05E538FE15E548FE25E558FE35E568F5E
:10B66000E45E578FE55E588FE65E598FE75E5A8F2E
:10B67000E85EDDE2E95E5B8FEA5EDEE2EB5E5C8F58
:10B68000EC5E5D8FED5E5E8FEE5E5F8FEF5E608FD6
:10B69000F05E618FF15E628FF25E638FF35E648FA6
:10B6A000F45EC8DBF55E658FF65ED3D1F75EA2CDA2
:10B6B000F85E668FF95E678FFA5EA8BDFB5E688FE5
:10B6C000FC5E698FFD5E6A8FFE5EC3DEFF5EA5D8FD
:10B6D000005FAABF015FCDDB025FECD2035FFAC659
:10B6E000045FAAC5055F6B8F065F6C8F075F6D8F68
:10B6F000085FC4DE095F6E8F0A5FD7B10B5FAEDFF4
:10B700000C5F6F8F0D5F708F0E5F718F0F5FBDCA03
:10B71000105F728F115FB1DF125F738F135FADB96E
:10B72000145F748F155FFDD2165F758F175FA5B814
:10B73000185FEBBA195F768F1A5F778F1B5FDAB3EA
:10B740001C5F788F1D5F798F1E5F7A8F1F5FDCB55E
:10B75000205FC5D5215F7B8F225F7C8F235F7D8F2C
:10B76000245F7E8F255FD6C3265FD2CF275FA1BB24
:10B77000285F808F295FF3E52A5FF2E52B5F818FD9
:10B780002C5F828F2D5FF4E52E5F838F2F5FE4CDDA
:10B79000305F848F315FF5C8325F858F335F868F6E
:10B7A000345F878F355F888F365F898F375F8A8FE9
:10B7B000385F8B8F395FAFB53A5FBFC73B5F8C8F08
:10B7C0003C5FF6E53D5F8D8F3E5F8E8F3F5F8F8FD5
:10B7D000405FB0EC415F908F425F918F435F928FEB
:10B7E000445F938F455F948F465F958F475F968F39
:10B7F000485F978F495F988F4A5F998F4B5F9A8F09
:10B800004C5F9B8F4D5F9C8F4E5F9D8F4F5F9E8FD8
:10B81000505FE6E5515F9F8F525FE9B9535FB1B565
:10B82000545FA08F555FBCC2565FE8E5575FE7E500
:10B83000585FE9E5595FA18F5A5FA28F5B5FA38FC5
:10B840005C5FA48F5D5FCDD25E5FA58F5F5FA68FCB
:10B85000605FA78F615FEAE1625FCED0635FA88F10
:10B86000645FAECD655FA98F665FE5D1675FAA8F24
:10B87000685FAB8F695FCAB26A5FEBB16B5FAC8F19
:10B880006C5FF2B16D5FEDC56E5FAD8F6F5FAE8FB8
:10B89000705FC3D5715FB0D3725FAF8F735FDCE150
:10B8A000745FB08F755FB18F765FB28F775FDDE1C8
:10B8B000785FB38F795FDBD27A5FB48F7B5FB9B388
:10B8C0007C5FCBB17D5FB58F7E5FB68F7F5FB78FBB
:10B8D000805FF9CD815FF7D5825FDEE1835FB88F4E
:10B8E000845FB6BE855FFDB4865FB98F875FDFE199
:10B8F000885FDCBA895FE0E18A5FB2BB8B5FC9C257
:10B900008C5FE1E18D5FBA8F8E5FBB8F8F5FBC8FE5
:10B91000905FECD0915FBD8F925FBDCD935FBE8F86
:10B92000945FBF8F955FE2E1965FC08F975FC3B56D
:10B93000985FC7C5995FE3E19A5FC18F9B5FC28F34
:10B940009C5FE4E19D5FC38F9E5FC48F9F5FC58F47
:10B95000A05FC68FA15FF9D3A25FC78FA35FC88F17
:10B96000A45FC98FA55FCA8FA65FCB8FA75FCC8F5F
:10B97000A85FE5E1A95FCD8FAA5FADD1AB5FCE8FA8
:10B98000AC5FCF8FAD5FE6E1AE5FA2CEAF5FD08F91
:10B99000B05FD18FB15FD28FB25FD38FB35FD48FDF
:10B9A000B45FD58FB55FE7E1B65FD68FB75FC2B53D
:10B9B000B85FD78FB95FD88FBA5FD98FBB5FDA8F87
:10B9C000BC5FE8E1BD5FD5BBBE5FDB8FBF5FDC8FD7
:10B9D000C05FDD8FC15FDE8FC25FDF8FC35FC4D00A
:10B9E000C45FE0E2C55FD8B1C65FE4D2C75FE08F55
:10B9F000C85FE18FC95FE1E2CA5FE28FCB5FE38F8F
:10BA0000CC5FC9BCCD5FCCC8CE5FE48FCF5FE3E233
:10BA1000D05FFEECD15FFDECD25FAFDFD35FE58F8F
:10BA2000D45FE68FD55FE78FD65FE2E2D75FBED601
:10BA3000D85FFCCDD95FA6C3DA5FE88FDB5FE98F03
:10BA4000DC5FEA8FDD5FC3E3DE5FEB8FDF5FEC8FF0
:10BA5000E05FD2D6E15FE7E2E25FED8FE35FEE8F7A
:10BA6000E45FE8E2E55FEF8FE65FF08FE75FC7D363
:10BA7000E85FF18FE95FF28FEA5FECE2EB5FECBF2A
:10BA8000EC5FF38FED5FEDE2EE5FE5E2EF5FF48FE9
:10BA9000F05FF58FF15FC0B3F25FF68FF35FF78F62
:10BAA000F45FF88FF55FEEC4F65FF98FF75FFA8FFA
:10BAB000F85FEEE2F95FFB8FFA5FFC8FFB5FC3D0AC
:10BAC000FC5FFD8FFD5FF6BAFE5FE9E2FF5FDEB768
:10BAD0000060B3BB0160ACCC0260CBCB0360E4E29E
:10BAE0000460E6E20560EAE20660EBE20760FE8FD2
:10BAF00008604090096041900A60F7E20B60429054
:10BB00000C6043900D60F4E20E60F5D40F60F3E238
:10BB100010604490116045901260ADC5136046906E
:10BB20001460FAD51560C2C51660C0B217604790A0
:10BB3000186048901960EFE21A6049901B60F2E2C9
:10BB40001C60AFC11D60BCCB1E604A901F604B9053
:10BB50002060A1B52160F9E222604C9023604D90F5
:10BB600024604E902560B1BC2660F1E22760D4D0FD
:10BB70002860B9D42960F5E22A60D6B92B60F6E2D4
:10BB80002C604F902D6050902E6051902F60D3C745
:10BB900030605290316053903260549033605590D1
:10BBA000346056903560F0E23660579037605890B8
:10BBB0003860599039605A903A605B903B60DCD7AE
:10BBC0003C60A1ED3D605C903E605D903F60F8E2BE
:10BBD00040605E904160A5ED4260FEE24360D1CAE4
:10BBE00044605F90456060904660619047606290FD
:10BBF00048606390496064904A6065904B60B5C14D
:10BC00004C6066904D60D0BB4E6067904F6068900E
:10BC10005060D6BF516069905260E3BA53606A9039
:10BC200054606B905560A1CB56606C9057606D90DE
:10BC300058606E905960A6ED5A60A3ED5B606F90FE
:10BC40005C6070905D60A2ED5E6071905F6072906C
:10BC500060607390616074906260D6BB6360A7EDB2
:10BC60006460F4D065607590666076906760A4ED5E
:10BC70006860DEBA6960F7B66A60A1E36B60B2B66D
:10BC80006C60F1CC6D60A7B96E6077906F60A2CFE9
:10BC90007060A1C771607890726079907360D2BF54
:10BCA00074607A9075607B907660F1B677607C9076
:10BCB0007860FAE27960FBE27A60FDE27B60FCE2A8
:10BCC0007C60D5C47D60A2E37E607D907F60C1D33F
:10BCD00080607E9081608090826081908360A7E325
:10BCE0008460C4C7856082908660839087608490FA
:10BCF000886085908960A4CF8A6086908B608790E9
:10BD00008C60A9E38D60B7BA8E6088908F6089904F
:10BD100090608A9091608B909260A8E393608C9081
:10BD20009460DABB95608D909660A3E397608E90E7
:10BD300098608F90996090909A60A4E39B60AAE3CA
:10BD40009C6091909D60A6E39E6092909F60F2CE71
:10BD5000A060C6D3A1609390A2609490A360BCBB86
:10BD6000A4609590A5609690A660C3D4A7609790B4
:10BD7000A860FAC4A9609890AA609990AB60A8EDF9
:10BD8000AC60FCD0AD60A5E3AE609A90AF60F5C347
:10BD9000B0609B90B160ADE3B260AFB1B3609C9016
:10BDA000B460B2E3B5609D90B6609E90B7609F901E
:10BDB000B860C2BCB960A090BA60A190BB60ACE3AF
:10BDC000BC60BFB5BD60A290BE60A390BF60A490F0
:10BDD000C060A590C160A690C260A790C360A89003
:10BDE000C460A990C560E9C7C660B0E3C760AA9007
:10BDF000C860AB90C960AC90CA60AABECB60EFCD02
:10BE0000CC60AD90CD60AE90CE60AF90CF60B09082
:10BE1000D060B190D160F3BBD260B290D360B390E8
:10BE2000D460B490D560E8CCD660B590D760B690B9
:10BE3000D860AFE3D960B790DA60B1E3DB60B89067
:10BE4000DC60A7CFDD60AEE3DE60B990DF60A9CE35
:10BE5000E060DDBBE160BA90E260BB90E360BC9063
:10BE6000E460BD90E560BE90E660EBB5E760E5BEDE
:10BE7000E860D2B2E960CDB3EA60BF90EB60B9B1DF
:10BE8000EC60ABE3ED60D1B2EE60ACB5EF60DFB972
:10BE9000F060E8B6F160C090F260C190F360EBCF63
:10BEA000F460B7E3F560C290F660CCBBF760C39076
:10BEB000F860C490F960C7C8FA60CAD0FB60C5904A
:10BEC000FC60C690FD60C790FE60C890FF60C9909E
:10BED0000061B8E30161EEB30261CA900361CB90E7
:10BEE0000461CC900561CD900661A9ED0761CE900B
:10BEF0000861FAD30961E4D30A61CF900B61D09055
:10BF00000C61D1900D61AAED0E61B9E30F61E2D22F
:10BF10001061D2901161D3901261D4901361D590C9
:10BF20001461D6901561B5E31661D7901761D8906A
:10BF30001861D9901961DA901A61DED31B61DB9028
:10BF40001C61DC901D61DD901E61DE901F61D0B828
:10BF50002061B3E32161DF902261E0902361B6E3C9
:10BF60002461DFB72561E1902661B4E32761A2C0B7
:10BF70002861E2902961E3902A61E4902B61BAE3A1
:10BF80002C61E5902D61E6902E61E7902F61E8909D
:10BF90003061E9903161EA903261EB903361EC906D
:10BFA0003461ED903561EE903661EF903761F0903D
:10BFB0003861F1903961F2903A61F3903B61F4900D
:10BFC0003C61F5903D61F6903E61F7903F61B8D4D9
:10BFD0004061F8904161F9904261FA904361FB90B1
:10BFE0004461FC904561FD904661FE90476140913F
:10BFF0004861C8B4496141914A61BBE34B614291D8
:10C000004C61C5BB4D6143914E61F7C94F6144918D
:10C01000506145915161E5C9526146915361479123
:10C02000546148915561BDC45661499157614A9127
:10C0300058614B9159614C915A614D915B614E91A0
:10C040005C614F915D61ABED5E6150915F615191BB
:10C0500060615291616153916261FDC2636154916B
:10C060006461559165615691666157916761DBBB6B
:10C070006861AEBF696158916A6159916B615A916B
:10C080006C615B916D615C916E615D916F615E91C0
:10C090007061BFCE71615F917261609173616191F6
:10C0A000746162917561BCE3766163917761B6BF3B
:10C0B00078616491796165917A6166917B6167913C
:10C0C0007C6168917D6169917E616A917F616B910C
:10C0D00080616C9181616D9182616E9183616F91DC
:10C0E00084617091856171918661729187617391AC
:10C0F00088617491896175918A6176918B61EFB1E4
:10C100008C6177918D6178918E61F7D48F6179918F
:10C1100090617A9191617B9192617C9193617D9123
:10C120009461BEE395617E91966180919761819162
:10C1300098618291996183919A6184919B618591C3
:10C140009C6186919D61ADED9E6187919F61889113
:10C15000A0618991A1618A91A2618B91A3618C9167
:10C16000A4618D91A5618E91A6618F91A761BFE3B6
:10C17000A861A9BAA961ACEDAA619091AB61919156
:10C18000AC61BDE3AD619291AE619391AF61949169
:10C19000B0619591B1619691B2619791B3619891B7
:10C1A000B4619991B5619A91B6619B91B761C0E311
:10C1B000B8619C91B9619D91BA619E91BB619F915B
:10C1C000BC61A091BD61A191BE61B6BABF61A291EF
:10C1D000C061A391C161A491C261AEB6C361A591D2
:10C1E000C461A691C561A791C661A891C761A991D3
:10C1F000C861B8D0C961AA91CA61C3B0CB61AEEDC4
:10C20000CC61AB91CD61AC91CE61AD91CF61AE917E
:10C21000D061AF91D161AFEDD261C1C0D361B091B6
:10C22000D461C1E3D561B191D661B291D761B391C7
:10C23000D861B491D961B591DA61B691DB61B791FA
:10C24000DC61B891DD61B991DE61BA91DF61BB91CA
:10C25000E061BC91E161BD91E261BE91E361BF919A
:10C26000E461C091E561C191E661B3C5E761C29146
:10C27000E861C391E961C491EA61C591EB61C6913E
:10C28000EC61C791ED61C891EE61C991EF61CA910E
:10C29000F061CB91F161CC91F261CD91F361CE91DE
:10C2A000F461CF91F561C2E3F661D091F761D1916C
:10C2B000F861D291F961D391FA61D491FB61D59182
:10C2C000FC61D691FD61D791FE61D891FF61B2DC2E
:10C2D0000062D9910162DA910262DB910362DC9122
:10C2E0000462DD910562DE910662B0ED0762DF91C6
:10C2F0000862EAB80962E0910A62ECCE0B62A7EA32
:10C300000C62E7D00D62F9CA0E62D6C80F62B7CFD1
:10C310001062C9B31162D2CE1262E4BD1362E19120
:10C320001462E2911562DEE31662F2BB1762A8EABC
:10C330001862BDD51962E3911A62DDC61B62A9EAD3
:10C340001C62E4911D62E5911E62E6911F62AAEAF9
:10C350002062E7912162ACEA2262ABEA2362E891B3
:10C360002462AEEA2562ADEA2662E9912762EA918B
:10C370002862EB912962EC912A62D8BD2B62ED9183
:10C380002C62AFEA2D62EE912E62BEC22F62EF9157
:10C390003062F0913162F1913262F2913362C1B454
:10C3A0003462F7B43562F3913662F4913762A7BB19
:10C3B0003862F5913962F6913A62F7913B62F891F1
:10C3C0003C62F9913D62E6EC3E62E5EC3F62BFB74C
:10C3D0004062F9CB4162E2B14262FA914362E7EC1A
:10C3E0004462FB914562FC914662FD914762C8C977
:10C3F0004862E8EC4962E9EC4A62FE914B62D6CAB7
:10C400004C62D0DE4D62C5B24E62FAD44F624092A9
:10C41000506241925162CBC65262C7B05362F2B4CD
:10C420005462D3C855624292566243925762449214
:10C430005862D0CD596245925A6246925B62B8BF4B
:10C440005C6247925D6248925E6249925F624A9284
:10C4500060624B9261624C9262624D926362DBBF9A
:10C4600064624E9265624F926662A4C76762B4D6F8
:10C47000686250926962A9C06A62D1DE6B62A8C923
:10C480006C62EFD16D62A4C56E62E7B06F62B6B345
:10C490007062C5C871625192726252927362E2B068
:10C4A00074625392756254927662F6B777625592CF
:10C4B000786256927962FAC57A6257927B62589294
:10C4C0007C62F3B67D6259927E62D2D57F62D0B330
:10C4D0008062BCBC81625A9282625B9283625C928F
:10C4E0008462ADB385625D9286625E9287625F927E
:10C4F000886260928962F1BE8A62D1B08B62619279
:10C500008C6262928D6263928E6264928F62659297
:10C51000906266929162D6D29262E3CA9362A5D784
:10C52000946267929562B6CD9662B6B69762B9BFCD
:10C530009862DBD5996268929A62A7B89B62D7C568
:10C540009C6269929D626A929E626B929F62D2DE49
:10C55000A062D9BFA162D5C2A262C0C7A3626C9219
:10C56000A462A4BBA562A8B1A6626D92A7626E92F6
:10C57000A862EAC5A9626F92AA627092AB62FBC51B
:10C58000AC62A7CCAD627192AE627292AF627392EE
:10C59000B0627492B162A7B1B2627592B3627692E0
:10C5A000B4627792B562D6B5B6627892B762799284
:10C5B000B8627A92B962A8C4BA627B92BB62D3DED7
:10C5C000BC62BAD1BD62E9B3BE627C92BF62F2C303
:10C5D000C0627D92C1627E92C262F7B7C3628092EE
:10C5E000C462F4D6C562A3B5C662F0B2C762B4C471
:10C5F000C862E9C4C962ADC0CA62D4DECB628192AE
:10C60000CC62E8B0CD62C4C5CE62E0C1CF62829296
:10C61000D062D5B9D1628392D262DCBED362D8CD6A
:10C62000D462CEB0D5628492D662CFCDD762D6DE48
:10C63000D862D0BED962BED7DA62D5DEDB62D0D591
:10C64000DC62DDB0DD628592DE628692DF62E2C48A
:10C65000E0628792E1628892E262A3C2E362F0BC88
:10C66000E4628992E562B5D3E662B9C0E762A1C52A
:10C67000E862A6B2E962F1D4EA628A92EB628B9236
:10C68000EC62A8C0ED62C3CAEE62D7DEEF62FCD5F1
:10C69000F0628C92F162B0B9F2628D92F362ADC831
:10C6A000F462A9CBF5628E92F662D9DEF762BDBF65
:10C6B000F8628F92F9629092FA629192FB62929282
:10C6C000FC62B4C6FD62A7D7FE62B0CAFF62C3C4F3
:10C6D000006393920163D6B30263D2B90363949269
:10C6E0000463959205639692066397920763B8D6A2
:10C6F0000863FCEA0963B4B00A6398920B639992E9
:10C700000C639A920D639B920E63E6BF0F639C923B
:10C7100010639D921163F4CC12639E9213639F92F7
:10C720001463A0921563A1921663DACD1763A292E7
:10C730001863A3921963A4921A63BFD61B63CEC277
:10C740001C63A5921D63CECE1E63A2CC1F63AED028
:10C750002063D3C42163B2B52263D8DE2363F5D549
:10C760002463B7BC2563D3BB2663A6922763A79235
:10C770002863A4B02963A8922A63B2C52B63ECB4E2
:10C780002C63A9922D63AA922E63AB922F63F1D5ED
:10C790003063AC923163AD923263FDEA3363AE92A3
:10C7A0003463AF923563B0923663B1923763B2921D
:10C7B0003863B3923963DADE3A63A6CD3B63B49251
:10C7C0003C63B5923D63ECCD3E63B6923F63B79256
:10C7D0004063B8924163B9924263E6CE4363DCDEC4
:10C7E0004463BA924563B1CD4663A6C04763BB922A
:10C7F0004863BC924963BDD74A63BD924B63DBDE9D
:10C800004C63C6B04D63B4BA4E63D3C94F63F3C42F
:10C810005063E8BE5163BE925263BF925363C092AD
:10C820005463C1925563B6B25663C2925763C392C2
:10C830005863C4925963C5925A63C6925B63C792A8
:10C840005C63C8925D63C9925E63CCC05F63F0CBEA
:10C850006063CA926163F1BC6263BBBB6363B7B5DB
:10C860006463CB926563CC926663CD926763F5C5D2
:10C870006863CE926963E6DE6A63CF926B63D0929F
:10C880006C63D1926D63E3DE6E63DDBE6F63D29243
:10C890007063D3927163DFDE7263D4927363D59257
:10C8A0007463D6927563D7927663B7B47763DDBD50
:10C8B0007863D8927963D9927A63E0DE7B63EDC4C2
:10C8C0007C63DA927D63DB927E63DC927F63DD9230
:10C8D0008063C6CF8163DE928263E0B58363DF92BB
:10C8E0008463E0928563E1928663E2928763DEB6B9
:10C8F0008863DACA8963F4B58A63E5DE8B63E39201
:10C900008C63C6D58D63E4928E63E1DE8F63CDCCFC
:10C910009063FEC69163E5929263C5C59363E69208
:10C920009463E7929563E8929663B4D29763E99231
:10C930009863F2BE9963EA929A63EB929B63EC92DE
:10C940009C63ED929D63EE929E63EF929F63F092E3
:10C95000A063D3C2A163F192A263BDCCA363B8B3B9
:10C96000A463F292A563D3BDA663F392A763D8BF75
:10C97000A863C6CDA963DAD1AA63EBB4AB63F49222
:10C98000AC63E4DEAD63DDDEAE63E7DEAF63F5929C
:10C99000B063FEEAB163F692B263F792B363B0C2DA
:10C9A000B463E2DEB563F892B663F992B763C0D6BA
:10C9B000B863A7B5B963FA92BA63F4B2BB63FB92EA
:10C9C000BC63E8DEBD63FC92BE63F2DEBF63FD9232
:10C9D000C063FE92C1634093C2634193C3634293B9
:10C9E000C463EDDEC5634393C663F1DEC76344935E
:10C9F000C8634593C963E0C8CA634693CB63479352
:10CA0000CC634893CD63E1D7CE63EFDECF63E8C359
:10CA1000D063E1CCD1634993D263E5B2D3634A9347
:10CA2000D4634B93D5634C93D663BED2D7634D93F7
:10CA3000D8634E93D9634F93DA635093DB6351937A
:10CA4000DC635293DD635393DE63EEDEDF63549366
:10CA5000E063EBDEE163D5CEE2635593E363A7B415
:10CA6000E4635693E5635793E6635893E7635993FA
:10CA7000E8635A93E963ABBFEA63BEBEEB635B93C3
:10CA8000EC635C93ED63D2BDEE635D93EF635E9305
:10CA9000F0635F93F1636093F263E9DEF3636193A4
:10CAA000F463AED4F5636293F663DEDEF7636393FB
:10CAB000F863EADEF9636493FA636593FB63669354
:10CAC000FC636793FD63BFC0FE636893FF63ECDEA6
:10CAD0000064F3B20164E9B80264A7C20364699315
:10CAE00004646A930564C1BD06646B9307646C9328
:10CAF00008646D9309646E930A646F930B64F5DEAA
:10CB00000C64F8DE0D6470930E6471930F64ABB225
:10CB10001064A4B411647293126473931364EAB43E
:10CB20001464A6C915647493166475931764769398
:10CB300018647793196478931A6479931B64F6DE0A
:10CB40001C64D1CB1D647A931E64E3B81F647B938D
:10CB50002064F7DE2164FADE22647C9323647D93F3
:10CB600024647E93256480932664F9DE2764819390
:10CB700028648293296483932A64C2CC2B648493AF
:10CB80002C64E1B02D64EEB42E6485932F648693FB
:10CB900030648793316488933264899333648A93D1
:10CBA0003464BAE535648B9336648C9337648D9323
:10CBB00038648E9339648F933A64AFD03B6490931A
:10CBC0003C6491933D64EBB23E6492933F64A1EB6D
:10CBD000406493934164F4DE426494934364959378
:10CBE0004464E3C94564F3DE4664DAB04764A1D225
:10CBF0004864F7B1496496934A64AFCC4B64979309
:10CC00004C6498934D6499934E649A934F649B93AC
:10CC100050649C9351649D935264F0DE53649E93E0
:10CC20005464A4CB55649F935664A0935764A19316
:10CC30005864AAD55964A2935A64A3935B64A493DD
:10CC40005C64A5935D64A6935E64FBDE5F64A7935A
:10CC50006064A8936164A9936264AA936364AB93CC
:10CC60006464AC936564AD936664AE936764DDB44D
:10CC70006864AF936964A6C46A64B0936B64B1934B
:10CC80006C64B2936D64FDDE6E64B3936F64B493B1
:10CC90007064B5937164B6937264B7937364B89318
:10CCA0007464B9937564BA937664BB937764BC93E8
:10CCB0007864FEC37964A1C47A64A1DF7B64BD9308
:10CCC0007C64BE937D64BF937E64C0937F64C19394
:10CCD0008064C2938164C3938264CCC18364C4932F
:10CCE0008464FCDE8564EFBE8664C5938764B2C647
:10CCF0008864C6938964C7938A64C8938B64C99314
:10CD00008C64CA938D64CB938E64CC938F64CD93E3
:10CD10009064CE939164C5B39264F6C89364CF9344
:10CD20009464D0939564BACB9664FEDE9764D193F5
:10CD30009864D2939964A4DF9A64D3939B64D49348
:10CD40009C64D5939D64D6939E64B2D79F64D79319
:10CD5000A064D893A164D993A264DA93A364DB930B
:10CD6000A464B7B3A564DC93A664DD93A764DE93E3
:10CD7000A864DF93A964C3C1AA64E093AB64E193A0
:10CD8000AC64CBC7AD64A5B2AE64E9B4AF64E29362
:10CD9000B064ABD7B164E393B264E493B364E59356
:10CDA000B464E693B564ECC4B664E793B764A2DFF9
:10CDB000B864A3DFB964E893BA64A5DFBB64E99300
:10CDC000BC64B3BABD64EA93BE64EB93BF64EC93F6
:10CDD000C064A6DFC164ED93C264DEC0C364EE9399
:10CDE000C464EF93C564C3C9C664F093C764F19388
:10CDF000C864F293C964F393CA64F493CB64F59363
:10CE0000CC64F693CD64D9B2CE64E6C7CF64F79311
:10CE1000D064A7DFD164F893D264DCC7D364F993FC
:10CE2000D464FA93D564FB93D664FC93D764A8DFEB
:10CE3000D864A2EBD964FD93DA64FE93DB6440947A
:10CE4000DC644194DD644294DE64D3CBDF644394BC
:10CE5000E0644494E1644594E264AADFE3644694A8
:10CE6000E464A9DFE5644794E664C1B2E7644894EA
:10CE7000E8644994E9644A94EA644B94EB644C9402
:10CE8000EC644D94ED644E94EE644F94EF645094D2
:10CE9000F0645194F1645294F2645394F3645494A2
:10CEA000F4645594F5645694F6645794F764589472
:10CEB000F8645994F9645A94FA645B94FB645C9442
:10CEC000FC645D94FD645E94FE645F94FF64609412
:10CED0000065CAC501656194026562940365639447
:10CEE00004656494056565940665669407656794B2
:10CEF000086568940965ABDF0A6569940B656A94F7
:10CF00000C656B940D656C940E656D940F656E9455
:10CF100010656F94116570941265DCD4136571947B
:10CF200014657294156573941665749417657594F9
:10CF30001865C1C8196576941A6577941B6578944D
:10CF40001C6579941D657A941E657B941F657C949D
:10CF500020657D9421657E9422658094236581946B
:10CF6000246582942565ACDF2665839427658494C7
:10CF700028658594296586942A6587942B65F0BE7B
:10CF80002C6588942D6589942E65ADDF2F65A7D615
:10CF900030658A9431658B9432658C9433658D94B9
:10CFA0003465B7EA3565B6EB3665D5CA37658E9414
:10CFB0003865FCD83965C4B83A658F943B65A5B926
:10CFC0003C6590943D6591943E65C5B73F65FED53F
:10CFD0004065929441659394426594944365959419
:10CFE000446596944565CAB9466597944765989493
:10CFF0004865A7D04965CDF44A6599944B659A94E4
:10D000004C65D0B54D659B944E659C944F65F4C3BB
:10D0100050659D945165C8BE52659E9453659F941A
:10D020005465A0945565B7EB5665BDB05765A1949E
:10D030005865A2945965CCBD5A65A3945B65B2C18D
:10D040005C65A4945D65D6B15E65A8B35F65A59483
:10D050006065A6946165A7946265D2B86365A2C94C
:10D060006465A8946565A9946665D8B66765AA9451
:10D070006865AB946965AC946A65AD946B65B8EB13
:10D080006C65B4BE6D65AE946E65AF946F65B0941B
:10D090007065FDCA7165B1947265C3C77365B2945A
:10D0A0007465FBD57565B3947665B4947765F3B70D
:10D0B0007865B5947965B6947A65B7947B65B894CC
:10D0C0007C65B9947D65BA947E65BB947F65BC949C
:10D0D0008065BD948165BE948265BF948365C0946C
:10D0E0008465C1948565C2948665C3948765C4CE02
:10D0F0008865C4948965C5948A65C6948B65ABD5EB
:10D100008C65F3B18D65C7948E65C8948F65C9949D
:10D110009065B3EC9165DFB09265CA949365B5EC08
:10D120009465CB949565CC949665CD949765B7B688
:10D130009865CE949965CFC19A65CF949B65FAF5B1
:10D140009C65B1D09D65D0949E65D1949F65E5D5D1
:10D15000A065D294A165D3CEA265D394A365D494DF
:10D16000A465EFBDA565E2B3A665D594A765ABB888
:10D17000A865D694A965B6D5AA65D794AB65BDED6B
:10D18000AC65D894AD65CFB6AE65D994AF65B9CB73
:10D19000B065C2D0B165DA94B265DB94B365DC9456
:10D1A000B465DD94B565DE94B665DF94B765E0944B
:10D1B000B865E194B965BDB7BA65E294BB65E3941F
:10D1C000BC65B6ECBD65A9CABE65E494BF65E594CF
:10D1D000C065E694C165D4C5C265E794C365B9EC82
:10D1E000C465B8ECC565C3C2C665B7ECC765E8944D
:10D1F000C865E994C965EA94CA65EB94CB65FDD02E
:10D20000CC65BAECCD65EC94CE65BBECCF65E5D7CB
:10D21000D065ED94D165EE94D265BCECD365EF9406
:10D22000D465F094D565F194D665BDECD765ECC6B0
:10D23000D865F294D965F394DA65F494DB65F594D6
:10D24000DC65F694DD65F794DE65F894DF65F994A6
:10D25000E065DECEE165FA94E265C8BCE365FB9467
:10D26000E465FC94E565D5C8E665A9B5E765C9BE82
:10D27000E865BCD6E965E7D4EA65FD94EB65FE9404
:10D28000EC65AED1ED65F1D0EE65B8EAEF65B9EACF
:10D29000F065BAEAF165B5BAF2654095F365419576
:10D2A000F4654295F5654395F665B1CAF765F5BF36
:10D2B000F8654495F9654595FA65FACDFB6546959F
:10D2C000FC654795FD654895FE654995FF654A955E
:10D2D0000066C0EA01664B950266BAB00366BEEA14
:10D2E00004664C9505664D950666A5C007664E9585
:10D2F00008664F95096650950A66BBEA0B6651951C
:10D300000C66FDB20D6652950E66F7C30F66E8BB5C
:10D310001066539511665495126655951366D7D2CB
:10D320001466F4CE1566BFEA1666569517665795CD
:10D33000186658951966BCEA1A6659951B665A957F
:10D340001C665B951D66C3EA1E665C951F66C7D0AA
:10D350002066B3D321665D9522665E9523665F9550
:10D36000246660952566BAB4266661952766C1C3B2
:10D370002866F2D7296662952A6663952B666495BE
:10D380002C6665952D66D1D52E6666952F66C7CA23
:10D39000306667953166C5EA326668953366699589
:10D3A0003466C4EA3566C7EA3666C6EA37666A9501
:10D3B00038666B9539666C953A666D953B666E95E9
:10D3C0003C66E7D63D666F953E66D4CF3F66709566
:10D3D000406671954166CBEA426672954366CEBB64
:10D3E0004466739545667495466675954766769569
:10D3F00048667795496678954A6679954B66FABD91
:10D400004C66CEC94D667A954E667B954F66CCEAE2
:10D4100050667C9551667D955266B9C95366FECFBC
:10D420005466CAEA5566CED45666CDEA5766CFEA48
:10D4300058667E95596680955A66EDCD5B668195F6
:10D440005C6682955D6683955E6684955F66C9EAD3
:10D45000606685956166CEEA6266869563668795A5
:10D460006466EECE656688956666DEBB67668995FE
:10D470006866BFB369668A956A668B956B668C959C
:10D480006C668D956D668E956E66D5C66F66B0BE00
:10D490007066FACE71668F957266909573669195F7
:10D4A0007466E7C7756692957666A7BE7766D0EA1A
:10D4B00078669395796694957A66C7D67B669595D6
:10D4C0007C6696957D6697957E66C0C17F669895C9
:10D4D0008066999581669A958266DDD483669B9570
:10D4E0008466D1EA85669C9586669D958766BECFE3
:10D4F00088669E9589669F958A66A0958B66A1959C
:10D500008C66D2EA8D66A2958E66A3958F66A495E9
:10D510009066A5959166EECA9266A6959366A795C4
:10D520009466A8959566A9959666AFC59766B5B0B9
:10D530009866AA959966AB959A66AC959B66AD95EB
:10D540009C66AE959D66D4EA9E66AF959F66B09543
:10D55000A066B195A166B295A266B395A366B4958F
:10D56000A466B595A566B695A666B795A766D3EAEF
:10D57000A866DFF4A966B895AA66B995AB66BA95B0
:10D58000AC66BB95AD66BC95AE66BAC4AF66BD95DC
:10D59000B066BE95B166BF95B266C095B366C195DB
:10D5A000B466A9B1B566C295B666C395B766C495AB
:10D5B000B866C595B966DFE5BA66C695BB66C79518
:10D5C000BC66C895BD66C995BE66D5EABF66CA95F4
:10D5D000C066CB95C166CC95C266CD95C366CE9527
:10D5E000C466CF95C566D095C666D195C766D295F7
:10D5F000C866D395C966D495CA66D595CB66D695C7
:10D60000CC66D795CD66D895CE66D995CF66DA9596
:10D61000D066DB95D166DC95D266DD95D366DE9566
:10D62000D466DF95D566E095D666E195D766E29536
:10D63000D866E395D966EFCADA66E495DB66D6EA82
:10D64000DC66D7EADD66D8C6DE66E595DF66E69578
:10D65000E066E795E166E895E266E995E366EA95B6
:10D66000E466EB95E566EC95E666D8EAE766ED9547
:10D67000E866EE95E966D9EAEA66EF95EB66F0951D
:10D68000EC66F195ED66F295EE66F395EF66F4952E
:10D69000F066BBD4F166F595F266FAC7F366B7D2C9
:10D6A000F466FCB8F566F695F666F795F766C2EA95
:10D6B000F866F895F966DCB2FA66F995FB66FA95B4
:10D6C000FC66FCC2FD66FB95FE66F8D4FF66E6CC00
:10D6D0000067EED70167FC950267FD950367FE952D
:10D6E000046740960567419606674296076743962A
:10D6F0000867C2D40967D0D30A67C3EB0B67F3C5C9
:10D700000C6744960D67FEB70E6745960F67469601
:10D710001067D4EB116747961267489613674996CE
:10D720001467B7CB1567DEEB16674A961767CAC052
:10D7300018674B9619674C961A674D961B67FBCD79
:10D740001C674E961D67AFB31E674F961F67DAC6FC
:10D750002067509621675196226752962367539609
:10D7600024675496256755962667FCEB27675696DF
:10D770002867BEC4296757962A67B4CE2B67A9C409
:10D780002C67BEB12D67FDD42E6758962F67F5CA5A
:10D79000306759963167ECD632675A9633675B9695
:10D7A0003467D3C63567E4B636675C9637675D96EF
:10D7B00038675E9639675F963A67FABB3B67609653
:10D7C0003C6761963D67E0D03E6762963F6763962F
:10D7D0004067B1C9416764964267D3D44367A8C81C
:10D7E00044676596456766964667CBB84767679610
:10D7F0004867BEE84967BCC94A6768964B6769963F
:10D800004C67BBE84D676A964E67EEC04F67D3D052
:10D810005067C4B25167E5B452676B965367BCE872
:10D8200054676C9655676D965667C8D557676E9660
:10D8300058676F96596770965A6771965B677296CC
:10D840005C67C5B65D6773965E67BDE85F67F8CADB
:10D850006067DCB86167F5CC62677496636775963C
:10D86000646776966567B4C06667779667677896EB
:10D870006867EED16967BFE86A67C2E86B67799647
:10D880006C677A966D67BCBA6E677B966F67ADB151
:10D890007067DCBD71677C967267BDEA7367C3E829
:10D8A00074677D967567C6E876677E967767CBE87E
:10D8B00078678096796781967A6782967B67839688
:10D8C0007C67CCE87D6784967E67C9CB7F67E5B0CF
:10D8D000806785968167ABBC8267869683678796EB
:10D8E0008467B9B985678896866789968767C1E82E
:10D8F00088678A968967F7CD8A678B968B67CAE8AF
:10D900008C678C968D678D968E678E968F678F96B7
:10D910009067F6CE916790969267919693679296EC
:10D92000946793969567EDD5966794969767D6C159
:10D930009867C4E8996795969A67B6C39B67969669
:10D940009C67FBB99D67A6D69E67C8E89F679796B8
:10D95000A0679896A1679996A267E0CAA367E6D4E4
:10D96000A4679A96A567C0E8A6679B96A767C5E8CF
:10D97000A867C7E8A9679C96AA67B9C7AB67E3B76A
:10D98000AC679D96AD67C9E8AE679E96AF67DDBF91
:10D99000B067D2E8B1679F96B267A096B367D7E841
:10D9A000B467A196B567D5E8B667DCBCB767CFBCEE
:10D9B000B867DBE8B967A296BA67A396BB67A49677
:10D9C000BC67A596BD67A696BE67A796BF67A896D3
:10D9D000C067A996C167DEE8C267AA96C367DAE89E
:10D9E000C467FAB1C567AB96C667AC96C767AD9614
:10D9F000C867AE96C967AF96CA67B096CB67B1964F
:10DA0000CC67B296CD67B396CE67B496CF67D8B0E1
:10DA1000D067B3C4D167CCB8D267E2C6D367BEC8FB
:10DA2000D467E1C8D567B596D667B696D767B79677
:10DA3000D867CFE8D967D4E8DA67D6E8DB67B89665
:10DA4000DC67F1B9DD67D8E8DE67F5D7DF67B9963F
:10DA5000E067FBC4E167BA96E267DCE8E367BB9680
:10DA6000E467BC96E567E9B2E667BD96E767BE96F0
:10DA7000E867BF96E967D1E8EA67C096EB67C196A9
:10DA8000EC67EDBCED67C296EE67C396EF67C2BF69
:10DA9000F067CDE8F167F9D6F267C496F367F8C18D
:10DAA000F467F1B2F567C596F667C696F767C7964D
:10DAB000F867C896F967C996FA67CA96FB67CB9666
:10DAC000FC67CC96FD67DFE8FE67CD96FF67C1CAAD
:10DAD0000068D9E80168CE960268CF960368D096B0
:10DAE0000468D1960568A4D50668D2960768EAB19D
:10DAF0000868BBD50968CEE80A68D0E80B68B0B6FC
:10DB00000C68D3E80D68D3960E68DDE80F68B8C0DE
:10DB10001068D4961168F7CA1268D5961368A8CB16
:10DB20001468D6961568D7961668DCC61768F5C0CF
:10DB30001868D8961968D9961A68DA961B68DB9621
:10DB40001C68DC961D68E9E81E68DD961F68DE9695
:10DB50002068DF962168A3D02268E0962368E196CA
:10DB60002468E2962568E3962668E4962768E59699
:10DB70002868E6962968F2E82A68EAD62B68E796CC
:10DB80002C68E8962D68E9962E68EA962F68EB9641
:10DB90003068EC963168ED963268E0E83368E1E889
:10DBA0003468EE963568EF963668F0963768F9D1A6
:10DBB0003868CBBA3968F9B83A68F1963B68F2969A
:10DBC0003C68F1B83D68D4D43E68EFE83F68F3960E
:10DBD0004068EEE84168ECE84268F0B94368D2CCAE
:10DBE0004468E6E84568A6CE4668F2BF4768F49602
:10DBF0004868B8B04968F1E84A68F0E84B68F596BB
:10DC00004C68C0D74D68F6964E68E4E84F68F796C2
:10DC10005068A9CD5168A3C95268F8965368B8BB3B
:10DC20005468DBBD5568EAE85668F9965768FA9675
:10DC30005868FB965968FC965A68FD965B68FE9694
:10DC40005C6840975D6841975E6842975F6843975C
:10DC50006068E2E86168E3E86268E5E86368B5B5D2
:10DC60006468E7E86568C5C76668EBE86768EDE87B
:10DC70006868B0BD6968AED76A6844976B68F8E8B1
:10DC80006C6845976D6846976E6847976F684897C8
:10DC90007068499771684A9772684B9773684C9798
:10DCA0007468F5E875684D977668B0CD7768F6E8E2
:10DCB00078684E9779684F977A6850977B68519744
:10DCC0007C6852977D6853977E6854977F68559714
:10DCD000806856978168BAC1826857978368E8E878
:10DCE000846858978568B7C38668F0B08768599785
:10DCF00088685A9789685B978A685C978B685D9794
:10DD00008C685E978D685F978E6860978F68F4E87F
:10DD10009068619791686297926863979368F7E853
:10DD20009468649795686597966866979768A3B9AD
:10DD300098686797996868979A6869979B686A97DF
:10DD40009C686B979D686C979E686D979F686E97AF
:10DD5000A0686F97A1687097A268D2C9A3687197ED
:10DD6000A4687297A5687397A668CEC3A768E0CE2B
:10DD7000A868E6C0A9687497AA687597AB68769793
:10DD8000AC687797AD68F3CBAE687897AF68DDCCB9
:10DD9000B068B5D0B1687997B2687A97B368E1CACC
:10DDA000B4687B97B568F3E8B6687C97B7687D97E9
:10DDB000B8687E97B9688097BA688197BB68829780
:10DDC000BC688397BD688497BE688597BF6886974F
:10DDD000C068ECBCC1688797C268F9E8C3688897D7
:10DDE000C4688997C5688A97C6688B97C7688C97F7
:10DDF000C8688D97C968DEC3CA688E97CB68E5C6C8
:10DE0000CC688F97CD68F7B9CE689097CF68919717
:10DE1000D0689297D1689397D268F4B0D3689497FA
:10DE2000D4689597D568D8D7D6689697D7689797C6
:10DE3000D868ACBCD9689897DA68EFC5DB68999761
:10DE4000DC689A97DD689B97DE689C97DF689D97F2
:10DE5000E068C4CCE1689E97E2689F97E368A6E912
:10DE6000E468A097E568A197E668A297E768A3979A
:10DE7000E868A497E968A597EA68A697EB68A7976A
:10DE8000EC68A897ED68A997EE68ADC9EF68AA9706
:10DE9000F068A2E9F168E2C0F268AB97F368AC976A
:10DEA000F468AD97F568C3BFF668AE97F768AF97AB
:10DEB000F868B097F968FEE8FA68D7B9FB68B197D7
:10DEC000FC68FBE8FD68B297FE68B397FF68B497FB
:10DED0000069B5970169A4E90269B6970369B79724
:10DEE0000469B8970569CED20669B9970769BA97E8
:10DEF0000869BB970969BC970A69BD970B69A3E9D3
:10DF00000C69BE970D69B2D60E69B5D70F69BF9778
:10DF10001069A7E91169C0971269B7BD1369C19764
:10DF20001469C2971569C3971669C4971769C5978D
:10DF30001869C6971969C7971A69C8971B69C9975D
:10DF40001C69CA971D69CB971E69CC971F69FCE8AD
:10DF50002069FDE82169CD972269CE972369CF9783
:10DF60002469A1E92569D0972669D1972769D297B5
:10DF70002869D3972969D4972A69D5972B69D697A9
:10DF80002C69D7972D69D6CD2E69D8972F69D99747
:10DF90003069ACD23169DA973269DB973369DC9743
:10DFA0003469B2E93569DD973669DE973769DF97FD
:10DFB0003869E0973969A9E93A69E1973B69E297DD
:10DFC0003C69E3973D69AAB43E69E4973F69BBB4F5
:10DFD0004069E5974169E6974269ABE94369E7978C
:10DFE0004469E8974569E9974669EA974769EB9775
:10DFF0004869EC974969ED974A69EE974B69EF9745
:10E000004C69F0974D69F1974E69F2974F69F39714
:10E010005069F4975169F5975269F6975369F797E4
:10E020005469A8D05569F8975669F9975769A5E9D1
:10E030005869FA975969FB975A69FEB35B69FC976F
:10E040005C69FD975D69ACE95E69E3C05F69FE9755
:10E050006069AAE961694098626941986369B9E9B0
:10E0600064694298656943986669B8E96769449844
:10E0700068694598696946986A6947986B69AEE925
:10E080006C6948986D6949986E69FAE86F694A98B1
:10E0900070694B987169A8E972694C9873694D98D9
:10E0A00074694E9875694F98766950987769ACBFD6
:10E0B0007869B1E97969BAE97A6951987B695298C6
:10E0C0007C69A5C27D6953987E6954987F6955988B
:10E0D0008069AFE9816956988269C5B883695798A4
:10E0E0008469ADE9856958988669DCD38769B4E9A4
:10E0F0008869B5E98969B7E98A6959988B695A9835
:10E100008C695B988D69C7E98E695C988F695D98A9
:10E1100090695E9891695F98926960989369619837
:10E120009469C6C09569C5E99669629897696398CC
:10E130009869B0E9996964989A6965989B69BBE99F
:10E140009C69F1B09D6966989E6967989F69689817
:10E15000A0696998A1696A98A2696B98A3696C988B
:10E16000A4696D98A5696E98A6696F98A769BCE9BE
:10E17000A869A5D5A9697098AA697198AB69BEE923
:10E18000AC697298AD69BFE9AE697398AF6974986C
:10E19000B0697598B169C1E9B2697698B369779841
:10E1A000B469F1C1B5697898B6697998B769B6C8A4
:10E1B000B8697A98B9697B98BA697C98BB69BDE9F6
:10E1C000BC697D98BD697E98BE698098BF69819859
:10E1D000C0698298C169C2E9C2698398C369849899
:10E1E000C4698598C5698698C6698798C7698898FB
:10E1F000C8698998C9698A98CA69C3E9CB698B9843
:10E20000CC69B3E9CD698C98CE69B6E9CF698D98B0
:10E21000D069B1BBD1698E98D2698F98D369909833
:10E22000D469C0E9D5699198D6699298D7699398CD
:10E23000D8699498D9699598DA699698DB69F7BC9A
:10E24000DC699798DD699898DE699998DF69C4E977
:10E25000E069C6E9E1699A98E2699B98E3699C984C
:10E26000E4699D98E5699E98E6699F98E769A0989A
:10E27000E869A198E969A298EA69A398EB69A4986A
:10E28000EC69A598ED69CAE9EE69A698EF69A798C7
:10E29000F069A898F169A998F269CEE9F369AA989A
:10E2A000F469AB98F569AC98F669AD98F769AE98E2
:10E2B000F869AF98F969B098FA69B198FB69B298B2
:10E2C000FC69B398FD69DBB2FE69B498FF69C8E9DF
:10E2D000006AB598016AB698026AB798036AB89856
:10E2E000046AB998056ABA98066ABB98076ABC9826
:10E2F000086ABD98096ABE980A6AAEB70B6ABF98E9
:10E300000C6AC0980D6AC1980E6AC2980F6AC398C9
:10E31000106AC498116AC598126AC698136AC79899
:10E32000146AC898156AC998166ACA98176ACBE918
:10E33000186ACCE9196ACB981A6ACC981B6ACD98EE
:10E340001C6ACE981D6ACF981E6AD0981F6AC1D5E4
:10E35000206AD198216AA3C4226AD298236AD398EA
:10E36000246AD498256AD598266AD698276AD798B9
:10E37000286AD8E9296AD8982A6AE1BA2B6AD99812
:10E380002C6ADA982D6ADB982E6ADC982F6AC9E924
:10E39000306ADD98316AA3D3326ADE98336ADF9837
:10E3A000346AE098356AD4E9366AE198376AE298C7
:10E3B000386AE398396AE4983A6AE5983B6AE698DD
:10E3C0003C6AE7983D6AD7E93E6AD0E93F6AE89837
:10E3D000406AE998416AEA98426AEB98436AEC9885
:10E3E000446ACFE9456AED98466AEE98476AC1C724
:10E3F000486AEF98496AF0984A6AF1984B6AF2982D
:10E400004C6AF3984D6AF4984E6AF5984F6AF698FC
:10E41000506AD2E9516AF798526AF898536AF998A3
:10E42000546AFA98556AFB98566AFC98576AFD98A0
:10E43000586AD9E9596AC8B35A6AFE985B6AD3E93F
:10E440005C6A40995D6A41995E6A42995F6A439944
:10E45000606A4499616AF0CF626A4599636A469935
:10E46000646A4799656ACDE9666A4899676A499915
:10E47000686A4A99696A4B996A6A4C996B6A4D99BC
:10E480006C6A4E996D6A4F996E6A50996F6A51998C
:10E49000706A5299716AF7B3726A5399736A5499A0
:10E4A000746A5599756A5699766A5799776A589930
:10E4B000786A5999796AD6E97A6A5A997B6A5B9936
:10E4C0007C6ADAE97D6A5C997E6A5D997F6A5E9909
:10E4D000806AB4CC816A5F99826A6099836A619923
:10E4E000846AADCF856A6299866A6399876A6499FE
:10E4F000886A6599896A66998A6A67998B6A689950
:10E500008C6A69998D6A6A998E6AD5E98F6A6B9966
:10E51000906ADCE9916ADBE9926A6C99936A6D9979
:10E52000946A6E99956A6F99966A7099976ADEE90E
:10E53000986A7199996A72999A6A73999B6A74999F
:10E540009C6A75999D6A76999E6A77999F6A78996F
:10E55000A06AD1E9A16A7999A26A7A99A36A7B999A
:10E56000A46A7C99A56A7D99A66A7E99A76A809912
:10E57000A86A8199A96ADDE9AA6A8299AB6ADFE98A
:10E58000AC6ACAC3AD6A8399AE6A8499AF6A859949
:10E59000B06A8699B16A8799B26A8899B36A89998B
:10E5A000B46A8A99B56A8B99B66A8C99B76A8D995B
:10E5B000B86A8E99B96A8F99BA6A9099BB6A91992B
:10E5C000BC6A9299BD6A9399BE6A9499BF6A9599FB
:10E5D000C06A9699C16A9799C26A9899C36A9999CB
:10E5E000C46A9A99C56A9B99C66A9C99C76A9D999B
:10E5F000C86A9E99C96A9F99CA6AA099CB6AA1996B
:10E60000CC6AA299CD6AA399CE6AA499CF6AA5993A
:10E61000D06AA699D16AA799D26AA899D36AA9990A
:10E62000D46AAA99D56AAB99D66AAC99D76AAD99DA
:10E63000D86AAE99D96AAF99DA6AB099DB6AB199AA
:10E64000DC6AB299DD6AB399DE6AB499DF6AB5997A
:10E65000E06AB699E16AB799E26AB899E36AB9994A
:10E66000E46ABA99E56ABB99E66ABC99E76ABD991A
:10E67000E86ABE99E96ABF99EA6AC099EB6AC199EA
:10E68000EC6AC299ED6AC399EE6AC499EF6AC599BA
:10E69000F06AC699F16AC799F26AC899F36AC9998A
:10E6A000F46ACA99F56ACB99F66ACC99F76ACD995A
:10E6B000F86ACE99F96ACF99FA6AD099FB6AD1992A
:10E6C000FC6AD299FD6AD399FE6AD499FF6AD599FA
:10E6D000006BD699016BD799026BD899036BD999C6
:10E6E000046BDA99056BDB99066BDC99076BDD9996
:10E6F000086BDE99096BDF990A6BE0990B6BE19966
:10E700000C6BE2990D6BE3990E6BE4990F6BE59935
:10E71000106BE699116BE799126BE899136BE99905
:10E72000146BEA99156BEB99166BEC99176BED99D5
:10E73000186BEE99196BEF991A6BF0991B6BF199A5
:10E740001C6BF2991D6BF3991E6BF4991F6BF59975
:10E75000206BB7C7216BCEB4226BB6BB236BC0D086
:10E76000246BA3EC256BF699266BF799276BB7C53D
:10E77000286BF899296BF9992A6BFA992B6BFB99FD
:10E780002C6BFC992D6BFD992E6BFE992F6B409A8B
:10E79000306B419A316B429A326BFBD3336B439AA5
:10E7A000346B449A356B459A366B469A376BA4ECBA
:10E7B000386B479A396BA5EC3A6BDBC63B6B489AD2
:10E7C0003C6B499A3D6B4A9A3E6BEEBF3F6B4B9A4E
:10E7D000406B4C9A416B4D9A426B4E9A436BA6EC40
:10E7E000446B4F9A456B509A466BA7EC476BAAD087
:10E7F000486B519A496BB8C74A6B529A4B6B539A04
:10E800004C6BE8B84D6B549A4E6B559A4F6B569AB9
:10E81000506B579A516B589A526B599A536B5A9A3C
:10E82000546B5B9A556B5C9A566B5D9A576B5E9A0C
:10E83000586B5F9A596BA8EC5A6B609A5B6B619A44
:10E840005C6B629A5D6B639A5E6B649A5F6B659AB0
:10E85000606B669A616B679A626BB9D6636BFDD524
:10E86000646BCBB4656BBDB2666BE4CE676BE7C619
:10E87000686B689A696B699A6A6BE1CD6B6B6A9A8F
:10E880006C6B6B9A6D6B6C9A6E6B6D9A6F6B6E9A0C
:10E89000706B6F9A716B709A726B719A736B729ADC
:10E8A000746B739A756B749A766B759A776B769AAC
:10E8B000786B779A796BF5B47A6B789A7B6BC0CB6F
:10E8C0007C6BDFBC7D6B799A7E6B7A9A7F6B7B9ACF
:10E8D000806B7C9A816BE2E9826BE3E9836BEAD11E
:10E8E000846BE5E9856B7D9A866BF9B4876BE4E907
:10E8F000886B7E9A896BB3D18A6BE2CA8B6BD0B27C
:10E900008C6B809A8D6BE8E98E6B819A8F6B829A03
:10E91000906B839A916B849A926BE6E9936BE7E92B
:10E92000946B859A956B869A966BB3D6976B879AFC
:10E93000986B889A996B899A9A6BE9E99B6BEAE9DB
:10E940009C6B8A9A9D6B8B9A9E6B8C9A9F6B8D9A0F
:10E95000A06B8E9AA16BEBE9A26B8F9AA36B909A36
:10E96000A46B919AA56B929AA66B939AA76B949AB3
:10E97000A86B959AA96B969AAA6BECE9AB6B979AE0
:10E98000AC6B989AAD6B999AAE6B9A9AAF6B9B9A57
:10E99000B06B9C9AB16B9D9AB26B9E9AB36BAFECC5
:10E9A000B46BB9C5B56BCEB6B66B9F9AB76BF3D2E5
:10E9B000B86BA09AB96BA19ABA6BA29ABB6BA39AD7
:10E9C000BC6BA49ABD6BA59ABE6BA69ABF6BEEB545
:10E9D000C06BA79AC16BD9BBC26BB1ECC36BA89AD1
:10E9E000C46BA99AC56BE3D2C66BAA9AC76BAB9AE4
:10E9F000C86BAC9AC96BAD9ACA6BAE9ACB6BE3CEBF
:10EA0000CC6BAF9ACD6BB8C4CE6BB09ACF6BBFC393
:10EA1000D06BB19AD16BB29AD26BBEB6D36BB9D868
:10EA2000D46BC8B1D56BCFB1D66BD1B1D76BFEC5A6
:10EA3000D86BB39AD96BD0B1DA6BB49ADB6BABC33A
:10EA4000DC6BB59ADD6BB69ADE6BB79ADF6BB89A62
:10EA5000E06BB99AE16BB1D5E26BBA9AE36BBB9A02
:10EA6000E46BBC9AE56BBD9AE66BBE9AE76BBF9A06
:10EA7000E86BC09AE96BC19AEA6BA4EBEB6BC1BA85
:10EA8000EC6BC29AED6BC39AEE6BC49AEF6BBACC87
:10EA9000F06BC59AF16BC69AF26BC79AF36BA5EB54
:10EAA000F46BC89AF56BA7EBF66BC99AF76BCA9A29
:10EAB000F86BCB9AF96BA8EBFA6BCC9AFB6BCD9AFF
:10EAC000FC6BCE9AFD6BA6EBFE6BCF9AFF6BD09AD8
:10EAD000006CD19A016CD29A026CD39A036CD49ACE
:10EAE000046CD59A056CA9EB066CABEB076CAAEB32
:10EAF000086CD69A096CD79A0A6CD89A0B6CD99A7A
:10EB00000C6CDA9A0D6CACEB0E6CDB9A0F6CCFCA06
:10EB1000106CB5D8116CF1C3126CDC9A136CA5C3E0
:10EB2000146CF8C6156CADEB166CCAC4176CDD9A84
:10EB3000186CAEEB196CAFEB1A6CB0EB1B6CD5B765
:10EB40001C6CDE9A1D6CDF9A1E6CE09A1F6CFAB783
:10EB5000206CE19A216CB1EB226CE2C7236CE29A43
:10EB6000246CB3EB256CE39A266CA4BA276CF5D120
:10EB7000286CB1B0296CB2EB2A6CB4EB2B6CE49A24
:10EB80002C6CE59A2D6CE69A2E6CAAB52F6CC8C237
:10EB9000306CE8C7316CE79A326CB5EB336CE89AAD
:10EBA000346CAECB356CDFE3366CE99A376CEA9A9D
:10EBB000386CC0D3396CEB9A3A6CEC9A3B6CED9A9A
:10EBC0003C6CEE9A3D6CDBD93E6CEF9A3F6CF09A50
:10EBD000406CA1CD416CADD6426CF3C7436CF19A49
:10EBE000446CF29A456CF39A466CE0D9476CE3BBEF
:10EBF000486CF49A496CBABA4A6CE2E34B6CF59AE9
:10EC00004C6CF69A4D6CF79A4E6CF89A4F6CF99AD8
:10EC1000506CABCF516CFA9A526CFB9A536CFC9AC5
:10EC2000546CE0E3556CC7C9566CFD9A576CB9BA81
:10EC3000586CFE9A596C409B5A6C419B5B6CB4D1EA
:10EC40005C6CE1E35D6CEAC85E6CAFB95F6CADBD56
:10EC5000606CD8B3616CDBCE626C429B636C439B8F
:10EC6000646CC0CC656C449B666C459B676C469B32
:10EC7000686CE8E3696CE9E36A6CF4CD6B6C479B04
:10EC80006C6C489B6D6C499B6E6C4A9B6F6C4B9B8C
:10EC9000706CADCC716C4C9B726CB3BC736C4D9B47
:10ECA000746CEAE3756C4E9B766CEBE3776C4F9B70
:10ECB000786C509B796CDAD07A6C519B7B6C529B50
:10ECC0007C6C539B7D6CFBC67E6CDAB77F6C549B6F
:10ECD000806C559B816CDFC7826CCAD2836CD6CEA8
:10ECE000846C569B856CE4E3866CECE3876C579BE5
:10ECF000886CF2C9896CC1B38A6C589B8B6C599B28
:10ED00008C6CE7E38D6C5A9B8E6C5B9B8F6CE3C6BF
:10ED1000906CE5E3916C5C9B926C5D9B936CB3EDA6
:10ED2000946CE6E3956C5E9B966C5F9B976C609B26
:10ED3000986C619B996CB3C99A6C629B9B6CE6C59D
:10ED40009C6C639B9D6C649B9E6C659B9F6CB5B932
:10ED5000A06C669BA16CBBC3A26C679BA36CE3E336
:10ED6000A46CBDC5A56CA4C1A66CD9C2A76CD7B252
:10ED7000A86C689BA96CEDE3AA6CA6BBAB6CADC498
:10ED8000AC6C699BAD6CF0E3AE6CDABEAF6C6A9BA9
:10ED9000B06C6B9BB16CFBE3B26CF5E3B36CD3BAB4
:10EDA000B46C6C9BB56C6D9BB66C6E9BB76C6F9BBB
:10EDB000B86CD0B7B96CCDD3BA6C709BBB6CCED6E7
:10EDC000BC6CD3D5BD6CC1B9BE6CB4D5BF6CD8D149
:10EDD000C06C719BC16C729BC26C739BC36C749B47
:10EDE000C46CB9D0C56CF6C7C66C759BC76C769BF6
:10EDF000C86C779BC96CAAC8CA6CB4B2CB6C789B40
:10EE0000CC6CDAC3CD6C799BCE6C7A9BCF6C7B9B40
:10EE1000D06CEEE3D16C7C9BD26C7D9BD36CFCE31D
:10EE2000D46CEFE3D56CA8B7D66CF7E3D76CF4E3FA
:10EE3000D86C7E9BD96C809BDA6C819BDB6CBAB7FB
:10EE4000DC6C829BDD6C839BDE6CA2C5DF6C849BDB
:10EE5000E06CF6E3E16CDDC5E26CA8B2E36CFCC6E5
:10EE6000E46C859BE56CE0C4E66C869BE76C879B55
:10EE7000E86CA2D7E96C889BEA6CE1C0EB6CF9E323
:10EE8000EC6C899BED6C8A9BEE6CFAE3EF6CFDE316
:10EE9000F06CA9CCF16CF3E3F26C8B9BF36CBED3FA
:10EEA000F46C8C9BF56CC3B1F66CB4EDF76CF1E3CC
:10EEB000F86CF2E3F96C8D9BFA6CF8E3FB6CBAD05A
:10EEC000FC6CC3C6FD6CF3D4FE6CFEE3FF6C8E9B42
:10EED000006D8F9B016DE0BD026D909B036D919B5A
:10EEE000046DA7E4056D929B066D939B076DA6E4E8
:10EEF000086D949B096D959B0A6D969B0B6DF3D1E4
:10EF00000C6DA3E40D6D979B0E6DA9E40F6D989B9E
:10EF1000106D999B116D9A9B126DF7C8136D9B9B99
:10EF2000146D9C9B156D9D9B166D9E9B176DB4CFAC
:10EF3000186D9F9B196DA8E41A6DAEE41B6DE5C2B8
:10EF40001C6DA09B1D6DA19B1E6DB4B61F6DA29B79
:10EF5000206DA39B216DA49B226DA59B236DA69B79
:10EF6000246DA79B256DF2BD266DA89B276DA2E49D
:10EF7000286DA99B296DAA9B2A6DE9BA2B6DAAE47D
:10EF80002C6DAB9B2D6DAC9B2E6DACE42F6DAD9BB2
:10EF9000306DAE9B316DFDB6326DDED6336DB2E4B1
:10EFA000346DAF9B356DADE4366DB09B376DB19B65
:10EFB000386DB29B396DA1E43A6DB39B3B6DEEBBEE
:10EFC0003C6DDDCD3D6DA2C73E6DC9C53F6DB49BA7
:10EFD000406DB59B416DF7C1426DB69B436DA4E496
:10EFE000446DB79B456DB3C7466DACBD476DBDBDA8
:10EFF000486DA5E4496DB89B4A6DC7D74B6DE2B229
:10F000004C6DB99B4D6DABE44E6DC3BC4F6DAFE421
:10F01000506DBA9B516DEBBB526DB0E4536DA8C5FA
:10F02000546DB1E4556DBB9B566DBC9B576DBD9B3C
:10F03000586DBE9B596DE3D55A6DA3BF5B6DBF9BE9
:10F040005C6DBAE45D6DC09B5E6DB7E45F6DC19BA6
:10F05000606DBBE4616DC29B626DC39B636DBDE47B
:10F06000646DC49B656DC59B666DD6C6676DC69B9A
:10F07000686DC79B696DC6BA6A6DCBC06B6DC89B66
:10F080006C6DC99B6D6DCA9B6E6DA1B86F6DB4E45C
:10F09000706DCB9B716DCC9B726DCD9B736DCE9B58
:10F0A000746DA1D4756DCF9B766DD09B776DA3BA2F
:10F0B000786DFEBD796DD19B7A6DD29B7B6DD39BB4
:10F0C0007C6DBCE47D6DD49B7E6DD59B7F6DD69BA6
:10F0D000806DD79B816DD89B826DBFCD836DD99B91
:10F0E000846DDA9B856DF9C4866DDB9B876DDC9B37
:10F0F000886DFBCF896DE6C98A6DDD9B8B6DDE9BCC
:10F100008C6DBFD38D6DDF9B8E6DD1CF8F6DE09BEE
:10F11000906DE19B916DB3E4926DE29B936DB8E4C9
:10F12000946DB9E4956DE9CC966DE39B976DE49B86
:10F13000986DE59B996DE69B9A6DE79B9B6DCECC98
:10F140009C6DE89B9D6DD4C09E6DB5E49F6DB0C174
:10F15000A06DB6E4A16DD0CEA26DE99BA36DC1BB3D
:10F16000A46DD3B5A56DEA9BA66DF3C8A76DA7BD29
:10F17000A86DC7D5A96DACC9AA6DA2B8AB6DCAE41C
:10F18000AC6DEB9BAD6DEC9BAE6DCCE4AF6DC4D1C3
:10F19000B06DED9BB16DEE9BB26DBAD2B36DEF9BCE
:10F1A000B46DF09BB56DADBAB66DF19BB76DF29BCA
:10F1B000B86DD4BAB96DF39BBA6DF49BBB6DF59B7A
:10F1C000BC6DF69BBD6DF79BBE6DF89BBF6DC3E438
:10F1D000C06DEDB5C16DF99BC26DFA9BC36DFB9B14
:10F1E000C46DCDD7C56DC0E4C66DFDCFC76DBFE49E
:10F1F000C86DFC9BC96DFD9BCA6DFE9BCB6DDCC1D0
:10F20000CC6DCACCCD6D409CCE6D419CCF6D429CE7
:10F21000D06D439CD16DE7CAD26D449CD36D459CA3
:10F22000D46D469CD56D479CD66DD7C4D76D489C90
:10F23000D86DD4CCD96DC8E4DA6D499CDB6D4A9C9D
:10F24000DC6D4B9CDD6DC7E4DE6DC1E4DF6D4C9C75
:10F25000E06DC4E4E16DADB5E26D4D9CE36D4E9C97
:10F26000E46DD9D3E56D4F9CE66DC6E4E76D509C27
:10F27000E86D519CE96D529CEA6D539CEB6DF9D29F
:10F28000EC6DE3B4ED6D549CEE6DB4BBEF6D559C2D
:10F29000F06D569CF16DEEC9F26D579CF36DBEB4E6
:10F2A000F46D589CF56D599CF66D5A9CF76DECBB4E
:10F2B000F86D5B9CF96DCDD1FA6D5C9CFB6DEDCC6E
:10F2C000FC6DB5EDFD6D5D9CFE6D5E9CFF6D5F9C04
:10F2D000006E609C016E619C026E629C036E639C7A
:10F2E000046E649C056EE5C7066E659C076E669CA1
:10F2F000086E679C096E689C0A6EA8D40B6E699CA8
:10F300000C6ECBE40D6ED5D70E6EC2E40F6E6A9C08
:10F31000106EA5BD116EC5E4126E6B9C136E6C9CD5
:10F32000146EE6D3156E6D9C166EC9E4176EF8C99F
:10F33000186E6E9C196E6F9C1A6EBEE41B6E709CEC
:10F340001C6E719C1D6EE5D31E6E729C1F6E739CAD
:10F35000206EFEC7216EC9B6226E749C236EFCD44B
:10F36000246EB3B2256ED7E4266E759C276E769C0C
:10F37000286E779C296EC2CE2A6E789C2B6ECDE4C7
:10F380002C6E799C2D6EBCCE2E6E7A9C2F6EDBB8C7
:10F39000306E7B9C316E7C9C326ED6E4336E7D9CED
:10F3A000346ECABF356E7E9C366E809C376E819CF3
:10F3B000386ECED3396E829C3A6EECC33B6E839C22
:10F3C0003C6E849C3D6E859C3E6E869C3F6E879C09
:10F3D000406E889C416E899C426E8A9C436EC8C573
:10F3E000446ED8E4456E8B9C466E8C9C476E8D9C1B
:10F3F000486E8E9C496E8F9C4A6E909C4B6E919C81
:10F400004C6E929C4D6EC4CD4E6ECFE44F6E939C6D
:10F41000506E949C516E959C526E969C536ED4E4A3
:10F42000546ED5E4556E979C566EFEBA576E989CF6
:10F43000586EE6CF596E999C5A6E9A9C5B6EBFD5FA
:10F440005C6E9B9C5D6E9C9C5E6E9D9C5F6ED2E430
:10F45000606E9E9C616E9F9C626EA09C636EA19C80
:10F46000646EA29C656EA39C666EA49C676EA59C50
:10F47000686EA69C696EA79C6A6EA89C6B6ED0E4B1
:10F480006C6EA99C6D6EAA9C6E6ECEE46F6EAB9C8A
:10F49000706EAC9C716EAD9C726EAE9C736EAF9CC8
:10F4A000746EB09C756EB19C766EB29C776EB39C98
:10F4B000786EB49C796EB59C7A6EB69C7B6EB79C68
:10F4C0007C6EB89C7D6EB99C7E6EE5CD7F6EAACABF
:10F4D000806EBA9C816EBB9C826EBC9C836EA3C006
:10F4E000846EBD9C856EA6BD866ED3E4876EBE9C81
:10F4F000886EBF9C896EC8B88A6EC09C8B6EC19C9A
:10F500008C6EC29C8D6EC39C8E6EC49C8F6EE7E425
:10F51000906EB4D4916EC59C926EC69C936EC79C3F
:10F52000946EC89C956EC99C966ECA9C976ECB9C37
:10F53000986EDBE4996ECC9C9A6ECD9C9B6ECE9CB3
:10F540009C6EEFC19D6ECF9C9E6ED09C9F6EE9E439
:10F55000A06ED19CA16ED29CA26EE7D2A36ED39C6A
:10F56000A46ED49CA56EDFE4A66ED59CA76EE0E4E5
:10F57000A86ED69CA96ED79CAA6EAACFAB6ED89C5B
:10F58000AC6ED99CAD6EDA9CAE6EDB9CAF6EDDCB03
:10F59000B06EDC9CB16EDAE4B26ED1E4B36EDD9C89
:10F5A000B46EE5E4B56EDE9CB66EDCC8B76EE3E41F
:10F5B000B86EDF9CB96EE09CBA6EE7C4BB6EE2E445
:10F5C000BC6EE19CBD6EE1E4BE6EE29CBF6EE39C4E
:10F5D000C06EE49CC16EFCB3C26EE8E4C36EE59CF1
:10F5E000C46EE69CC56EE79CC66EE89CC76EE1B52E
:10F5F000C86EE99CC96EEA9CCA6EEB9CCB6ECCD7F8
:10F60000CC6EEC9CCD6EED9CCE6EEE9CCF6EE6E4A7
:10F61000D06EEF9CD16EACBBD26EF09CD36ED2D7C5
:10F62000D46ECFCCD56EF8EBD66EF19CD76EE4E4F9
:10F63000D86EF29CD96EF39CDA6EF6B9DB6EF49C50
:10F64000DC6EF59CDD6EF69CDE6ECDD6DF6ED9E409
:10F65000E06EDCE4E16EFAC2E26EDEE4E36EF79C9B
:10F66000E46ECBC2E56EC4C0E66ED0C2E76EF89C15
:10F67000E86EF5B1E96EB2CCEA6EF99CEB6EFA9CDD
:10F68000EC6EFB9CED6EFC9CEE6EFD9CEF6EFE9CAA
:10F69000F06E409DF16E419DF26E429DF36E439D72
:10F6A000F46ECEB5F56E449DF66E459DF76E469DA3
:10F6B000F86E479DF96EEFE4FA6E489DFB6E499D2A
:10F6C000FC6E4A9DFD6E4B9DFE6E4C9DFF6E4D9DEA
:10F6D000006F4E9D016F4F9D026FAFC6036F509D2F
:10F6E000046F519D056F529D066FE1C6076F539DD4
:10F6F000086F549D096FF5E40A6F559D0B6F569D79
:10F700000C6F579D0D6F589D0E6F599D0F6FA9C2BD
:10F71000106F5A9D116F5B9D126F5C9D136FECC053
:10F72000146FDDD1156FEEE4166F5D9D176F5E9D52
:10F73000186F5F9D196F609D1A6F619D1B6F629DB1
:10F740001C6F639D1D6F649D1E6F659D1F6F669D81
:10F75000206FAEC4216F679D226F689D236F699DE6
:10F76000246FEDE4256F6A9D266F6B9D276F6C9D5E
:10F77000286F6D9D296FF6E42A6FF4E42B6FFEC2AB
:10F780002C6F6E9D2D6FDDE42E6F6F9D2F6FF0E45B
:10F79000306F709D316FFECA326F719D336FC4D56B
:10F7A000346F729D356F739D366FF1E4376F749DC2
:10F7B000386F759D396F769D3A6F779D3B6F789D59
:10F7C0003C6F799D3D6F7A9D3E6FFAD13F6F7B9D77
:10F7D000406F7C9D416F7D9D426F7E9D436F809DFC
:10F7E000446F819D456F829D466FEBE4476FECE46B
:10F7F000486F839D496F849D4A6F859D4B6FF2E4EE
:10F800004C6F869D4D6FABCE4E6F879D4F6F889D21
:10F81000506F899D516F8A9D526F8B9D536F8C9D48
:10F82000546F8D9D556F8E9D566F8F9D576F909D18
:10F83000586FCBC5596F919D5A6F929D5B6F939D89
:10F840005C6FB1C75D6F949D5E6FBAC25F6F959D2F
:10F85000606F969D616F979D626FEAE4636F989DFC
:10F86000646F999D656F9A9D666FCAC1676F9B9D16
:10F87000686F9C9D696F9D9D6A6F9E9D6B6F9F9D3C
:10F880006C6FA09D6D6FB6CC6E6FB1B36F6FA19DA5
:10F89000706FA29D716FA39D726FFBE4736FA49D47
:10F8A000746FF3E4756FA59D766FA69D776FA79D26
:10F8B000786FFAE4796FA89D7A6FFDE47B6FA99D5C
:10F8C0007C6FFCE47D6FAA9D7E6FAB9D7F6FAC9DCE
:10F8D000806FAD9D816FAE9D826FAF9D836FB09D38
:10F8E000846FCEB3856FB19D866FB29D876FB39DD8
:10F8F000886FBAB3896FF7E48A6FB49D8B6FB59D3B
:10F900008C6FF9E48D6FF8E48E6FECC58F6FB69D48
:10F91000906FB79D916FB89D926FB99D936FBA9D8F
:10F92000946FBB9D956FBC9D966FBD9D976FBE9D5F
:10F93000986FBF9D996FC09D9A6FC19D9B6FC29D2F
:10F940009C6FBDC09D6FC39D9E6FC49D9F6FC59DE5
:10F95000A06FC69DA16FE8D4A26FC79DA36FC89D7D
:10F96000A46FC99DA56FCA9DA66FCB9DA76FA2E589
:10F97000A86FCC9DA96FCD9DAA6FCE9DAB6FCF9D7B
:10F98000AC6FD09DAD6FD19DAE6FD29DAF6FD39D4B
:10F99000B06FD49DB16FD59DB26FD69DB36FC4B01B
:10F9A000B46FD79DB56FD89DB66FA4E5B76FD99DDD
:10F9B000B86FDA9DB96FA3E5BA6FDB9DBB6FDC9DB5
:10F9C000BC6FDD9DBD6FDE9DBE6FDF9DBF6FE09D97
:10F9D000C06FA4BCC16FE19DC26FA5E5C36FE29D7E
:10F9E000C46FE39DC56FE49DC66FE59DC76FE69D3F
:10F9F000C86FE79DC96FA1E5CA6FE89DCB6FE99D10
:10FA0000CC6FEA9DCD6FEB9DCE6FEC9DCF6FED9DE2
:10FA1000D06FEE9DD16FFEE4D26FF4B1D36FEF9D46
:10FA2000D46FF09DD56FF19DD66FF29DD76FF39D8A
:10FA3000D86FF49DD96FF59DDA6FF69DDB6FF79D5A
:10FA4000DC6FF89DDD6FF99DDE6FA8E5DF6FFA9D35
:10FA5000E06FA9E5E16FA6E5E26FFB9DE36FFC9D1A
:10FA6000E46FFD9DE56FFE9DE66F409EE76F419E52
:10FA7000E86F429EE96F439EEA6F449EEB6F459E9E
:10FA8000EC6F469EED6F479EEE6FA7E5EF6FAAE520
:10FA9000F06F489EF16F499EF26F4A9EF36F4B9E46
:10FAA000F46F4C9EF56F4D9EF66F4E9EF76F4F9E16
:10FAB000F86F509EF96F519EFA6F529EFB6F539EE6
:10FAC000FC6F549EFD6F559EFE6F569EFF6F579EB6
:10FAD0000070589E0170599E02705A9E03705B9E82
:10FAE00004705C9E05705D9E06705E9E07705F9E52
:10FAF0000870609E0970619E0A70629E0B70639E22
:10FB00000C70649E0D70659E0E70669E0F70679EF1
:10FB10001070689E1170D9C61270699E13706A9E2B
:10FB200014706B9E15706C9E16706D9E17706E9E95
:10FB300018706F9E1970709E1A70ABE51B70ADE562
:10FB40001C70719E1D70729E1E70739E1F70749E3D
:10FB50002070759E2170769E2270779E2370ACE592
:10FB60002470789E2570799E26707A9E27707B9EE1
:10FB700028707C9E29707D9E2A707E9E2B70809EB0
:10FB80002C70819E2D70829E2E70839E2F70849E7D
:10FB90003070859E3170869E3270879E3370889E4D
:10FBA0003470899E3570AFE536708A9E37708B9EB3
:10FBB00038708C9E3970AEE53A708D9E3B708E9E8B
:10FBC0003C708F9E3D70909E3E70919E3F70929EC5
:10FBD0004070939E4170949E4270959E4370969E95
:10FBE0004470979E4570989E4670999E47709A9E65
:10FBF00048709B9E49709C9E4A709D9E4B709E9E35
:10FC00004C70E0B94D709F9E4E70A09E4F70B0E555
:10FC10005070A19E5170A29E5270A39E5370A49EDC
:10FC20005470A59E5570A69E5670A79E5770A89EAC
:10FC30005870A99E5970AA9E5A70AB9E5B70AC9E7C
:10FC40005C70AD9E5D70AE9E5E70B1E55F70AF9E04
:10FC50006070B09E6170B19E6270B29E6370B39E20
:10FC60006470B49E6570B59E6670B69E6770B79EF0
:10FC70006870B89E6970B99E6A70BA9E6B70F0BB6E
:10FC80006C70E1EC6D70F0C36E70BB9E6F70C6B5AA
:10FC90007070D2BB7170BC9E7270BD9E7370BE9E40
:10FCA0007470BF9E7570E9C17670EED47770C09E97
:10FCB0007870C4BE7970C19E7A70C29E7B70C39EFC
:10FCC0007C70C6D77D70C49E7E70D6D47F70D3B250
:10FCD0008070BEEC8170C59E8270C69E8370C79E88
:10FCE0008470C89E8570C1EA8670C99E8770CA9E5E
:10FCF0008870CB9E8970AFC28A70B6B48B70CC9E70
:10FD00008C70CD9E8D70CE9E8E70D7D18F70CF9E11
:10FD10009070D09E9170D19E9270B4B39370D29E29
:10FD20009470B2C89570BBBF9670C0EC9770D39EAC
:10FD30009870D49E9970CBD69A70D59E9B70D69EA3
:10FD40009C70BFEC9D70C1EC9E70D79E9F70D89E3A
:10FD5000A070D99EA170DA9EA270DB9EA370DC9E7B
:10FD6000A470DD9EA570DE9EA670DF9EA770E09E4B
:10FD7000A870E19EA970E29EAA70E39EAB70C5ECEC
:10FD8000AC70E6BEAD70BFCCAE70DAC5AF70BCBEB5
:10FD9000B070E49EB170C6ECB270E59EB370FEB177
:10FDA000B470E69EB570E79EB670E89EB770C4EC7E
:10FDB000B870A8D5B970E3B5BA70E99EBB70C2EC53
:10FDC000BC70B6C1BD70E3B3BE70EA9EBF70EB9E5F
:10FDD000C070C3ECC170B8CBC270C3C0C370FECCDE
:10FDE000C470EC9EC570ED9EC670EE9EC770EF9E0F
:10FDF000C870D2C1C970F09ECA70C8ECCB70F19EB9
:10FE0000CC70F29ECD70F39ECE70F49ECF70F59EB6
:10FE1000D070F69ED170F79ED270F89ED370F99E86
:10FE2000D470FA9ED570FB9ED670FC9ED770FD9E56
:10FE3000D870E6BAD970D3C0DA70FE9EDB70F2D605
:10FE4000DC70409FDD70419FDE70429FDF70CCD13F
:10FE5000E070439FE170449FE270459FE370469FCE
:10FE6000E470BEBFE570479FE670B3B7E770D5C9D1
:10FE7000E870C7ECE970E2BBEA70489FEB70CCCC4D
:10FE8000EC70FDBDED70C8C8EE70499FEF70A9CF52
:10FE9000F0704A9FF1704B9FF2704C9FF3704D9F32
:10FEA000F4704E9FF5704F9FF670509FF770E9CD3C
:10FEB000F870519FF970EBC5FA70529FFB70539F19
:10FEC000FC70549FFD70E9B7FE70559FFF70569F00
:10FED0000071579F0171589F0271599F03715A9F7A
:10FEE00004715B9F05715C9F06715D9F07715E9F4A
:10FEF00008715F9F0971C9D10A71B8BA0B71609F0F
:10FF00000C71619F0D71629F0E71639F0F71649FF1
:10FF10001071C9EC1171659F1271669F1371CAEC63
:10FF20001471679F1571C0BB1671CBEC1771689F78
:10FF30001871E2EC1971BAB11A71D9B71B71699FC6
:10FF40001C716A9F1D716B9F1E716C9F1F716D9F4D
:10FF500020716E9F21716F9F2271709F2371719F1D
:10FF60002471729F2571739F2671B9BD2771749F8B
:10FF70002871759F2971769F2A71779F2B71789FC1
:10FF80002C71799F2D717A9F2E717B9F2F71CCECF4
:10FF90003071E6D13171CDEC32717C9F33717D9F30
:10FFA00034717E9F3571809F3671BBC83771819FD8
:10FFB0003871829F3971839F3A71849F3B71859F0D
:10FFC0003C71869F3D71879F3E71889F3F71899FDD
:10FFD00040718A9F41718B9F42718C9F43718D9FAD
:10FFE00044718E9F4571D1EC46718F9F4771909FF0
:10FFF0004871919F4971929F4A71D3EC4B71939FC5
:020000040801F1
:100000004C71CDBB4D71949F4E71E5BC4F71959F66
:100010005071969F5171979F5271989F5371999FFC
:1000200054719A9F55719B9F56719C9F57719D9FCC
:1000300058719E9F59719F9F5A71A09F5B71A19F9C
:100040005C71CFEC5D71A29F5E71B7C95F71A39FB8
:100050006071A49F6171A59F6271A69F6371A79F44
:100060006471BAC36571A89F6671E3EC6771D5D5F9
:100070006871D0EC6971A99F6A71AA9F6B71AB9F7F
:100080006C71AC9F6D71AD9F6E71F3D66F71AE9F49
:100090007071AF9F7171B09F7271D2EC7371CEECC1
:1000A0007471B19F7571B29F7671B39F7771B49F70
:1000B0007871D4EC7971B59F7A71D5EC7B71B69F6C
:1000C0007C71B79F7D71BFC97E71B89F7F71B99FE9
:1000D0008071BA9F8171BB9F8271BC9F8371BD9FEC
:1000E0008471A8CF8571BE9F8671BF9F8771C09FA5
:1000F0008871C19F8971C29F8A71DCD08B71C39F47
:100100008C71C49F8D71C59F8E71C69F8F71ACD14C
:100110009071C79F9171C89F9271C99F9371CA9F37
:100120009471DBC89571CB9F9671CC9F9771CD9FD1
:100130009871D6EC9971F5CE9A71CE9F9B71CF9F35
:100140009C71D09F9D71D19F9E71D29F9F71ECCA6F
:10015000A071DAECA171D39FA271D49FA371D59F36
:10016000A471D69FA571D79FA671D89FA771D99F5B
:10017000A871D9ECA971DA9FAA71DB9FAB71DC9FE2
:10018000AC71BEB0AD71DD9FAE71DE9FAF71DF9F10
:10019000B071E09FB171E19FB271E29FB371D7EC92
:1001A000B471E39FB571D8ECB671E49FB771E59F68
:1001B000B871E69FB971E4ECBA71E79FBB71E89F33
:1001C000BC71E99FBD71EA9FBE71EB9FBF71EC9F4F
:1001D000C071ED9FC171EE9FC271EF9FC371BCC82A
:1001E000C471F09FC571F19FC671F29FC771F39FF3
:1001F000C871F49FC971F59FCA71F69FCB71F79FC3
:10020000CC71F89FCD71F99FCE71C7C1CF71FA9FA4
:10021000D071FB9FD171FC9FD271FD9FD371FE9F66
:10022000D471DCECD571E0D1D67140A0D77141A07A
:10023000D87142A0D97143A0DA7144A0DB7145A006
:10024000DC7146A0DD7147A0DE7148A0DF7149A0D6
:10025000E071DBECE1714AA0E2714BA0E3714CA0CC
:10026000E4714DA0E571EFD4E6714EA0E771DDECCD
:10027000E8714FA0E97150A0EA7151A0EB7152A052
:10028000EC7153A0ED7154A0EE71C6DBEF7155A077
:10029000F07156A0F17157A0F27158A0F37159A0F6
:1002A000F4715AA0F5715BA0F6715CA0F7715DA0C6
:1002B000F8715EA0F971DEECFA715FA0FB7160A0CD
:1002C000FC7161A0FD7162A0FE7163A0FF7164A06A
:1002D000007265A0017266A0027267A0037268A036
:1002E000047269A005726AA00672ACB107726BA0B5
:1002F00008726CA009726DA00A726EA00B726FA0DA
:100300000C7270A00D7271A00E7272A00F7273A0A9
:10031000107274A0117275A0127276A0137277A079
:10032000147278A0157279A016727AA017727BA049
:1003300018727CA019727DA01A727EA01B7280A018
:100340001C7281A01D72DFEC1E7282A01F7283A03E
:10035000207284A0217285A0227286A0237287A0B9
:10036000247288A0257289A026728AA027728BA089
:100370002872E0EC29728CA02A72A6D72B728DA06D
:100380002C72C0C52D728EA02E728FA02F7290A0DD
:100390003072BCEB3172AEB0327291A0337292A067
:1003A000347293A03572F4BE3672B8B83772AFD2D9
:1003B0003872D6B03972F9B53A7294A03B72B3D89C
:1003C0003C7295A03D72ACCB3E7296A03F72DDE3CD
:1003D000407297A0417298A0427299A043729AA06D
:1003E00044729BA045729CA046729DA04772ACC609
:1003F0004872E6B049729EA04A729FA04B72A0A0BC
:100400004C72C6C54D72B9EB4E72A1A04F72A2A03C
:100410005072A3A05172A4A05272BAEB5372A5A05D
:100420005472A6A05572A7A05672BBEB5772A8A033
:100430005872A9A05972C0D15A72AAA05B72A3C502
:100440005C72ABA05D72F2EA5E72ACA05F72B2C485
:100450006072ADA06172B5C46272CEC06372AEA0AC
:100460006472AFA06572B0A06672F3EA6772C1C42D
:100470006872B1A06972EFCE6A72B2A06B72B3A05B
:100480006C72B4A06D72B5A06E72F0EA6F72F4EA8D
:100490007072B6A07172B7A07272FCC97372B8A004
:1004A0007472B9A07572A3C77672BAA07772BBA036
:1004B0007872BCA07972D8CC7A72FECE7B72BDA065
:1004C0007C72BEA07D72BFA07E72F5EA7F72F6EAF2
:1004D0008072ACCF8172E7C08272C0A08372C1A06B
:1004E0008472F7EA8572C2A08672C3A08772C4A024
:1004F0008872C5A08972C6A08A72BFB68B72F8EAEC
:100500008C72C7A08D72F9EA8E72C8A08F72FAEA57
:100510009072C9A09172CAA09272FBEA9372CBA0AA
:100520009472CCA09572CDA09672CEA09772CFA0F7
:100530009872D0A09972D1A09A72D2A09B72D3A0C7
:100540009C72D4A09D72D5A09E72D6A09F72F1EA33
:10055000A072D7A0A172D8A0A272D9A0A372DAA06B
:10056000A472DBA0A572DCA0A672DDA0A772DEA03B
:10057000A872DFA0A972E0A0AA72E1A0AB72E2A00B
:10058000AC72AEC8AD72EBE1AE72E3A0AF72B8B7B9
:10059000B072ECE1B172E4A0B272E5A0B372E6A071
:1005A000B472EDE1B572E7A0B672B4D7B772EEE1FE
:1005B000B872EFE1B972CCD3BA72E8A0BB72E9A00D
:1005C000BC72EAA0BD72EBA0BE72ECA0BF72EDA03F
:1005D000C072EEA0C172F1E1C272F1BFC372F0E16C
:1005E000C472D2B5C572EFA0C672F0A0C772F1A0F6
:1005F000C872B7B1C972F2A0CA72F3A0CB72F4A0EC
:10060000CC72F5A0CD72F3E1CE72F2E1CF72F6A01A
:10061000D072FCBAD172F7A0D272F4E1D372F8A012
:10062000D472F9A0D572FAA0D672FBA0D772B7B96E
:10063000D872FCA0D972D1BEDA72FDA0DB72FEA026
:10064000DC7240AADD7241AADE72FCC4DF7242AAEB
:10065000E072DDBAE172C6BDE27243AAE37244AA57
:10066000E47245AAE57246AAE67247AAE77248AA6A
:10067000E872F5E1E972F7E1EA7249AAEB724AAA77
:10068000EC72C0B6ED72C1CFEE72A8CAEF72F6E19D
:10069000F072F8D5F172FCD3F272F8E1F372FCE17A
:1006A000F472F9E1F5724BAAF6724CAAF772FAE10C
:1006B000F872EAC0F9724DAAFA72FEE1FB72A1E289
:1006C000FC72C7C0FD724EAAFE724FAAFF7250AAFA
:1006D000007351AA0173FBE1027352AA0373FDE197
:1006E000047353AA057354AA067355AA077356AA2E
:1006F000087357AA097358AA0A73A5E20B7359AA7B
:100700000C735AAA0D735BAA0E73D4C10F735CAA43
:1007100010735DAA11735EAA12735FAA1373A3E22A
:10072000147360AA1573A8E21673FEB21773A2E2DF
:10073000187361AA197362AA1A7363AA1B73CDC3D3
:100740001C73C2B21D73A7E21E73A6E21F7364AAD4
:10075000207365AA2173A4E22273A9E2237366AA17
:10076000247367AA2573ABE2267368AA277369AA64
:1007700028736AAA2973C9D02A73EDD62B73A8C32C
:100780002C73ACE22D736BAA2E73D7CF2F736CAA88
:1007900030736DAA3173AEE232736EAA33736FAAEF
:1007A0003473EFBA357370AA367371AA3773E0E900
:1007B0003873ADE23973AAE23A7372AA3B7373AA33
:1007C0003C7374AA3D7375AA3E73ABBB3F73B3D43D
:1007D000407376AA417377AA427378AA437379AAC1
:1007E00044737AAA45737BAA46737CAA47737DAA91
:1007F00048737EAA497380AA4A7381AA4B7382AA5E
:100800004C7383AA4D73B0E24E7384AA4F7385AACA
:100810005073AFE2517386AA5273E1E9537387AA0A
:10082000547388AA557389AA56738AAA5773B1E27A
:1008300058738BAA59738CAA5A738DAA5B738EAAAC
:100840005C738FAA5D7390AA5E7391AA5F7392AA7C
:100850006073B2E2617393AA627394AA637395AAF8
:10086000647396AA657397AA667398AA677399AA20
:1008700068739AAA69739BAA6A739CAA6B739DAAF0
:100880006C73B3E26D73A1CC6E739EAA6F73B4E206
:1008900070739FAA7173A0AA727340AB737341AB5C
:1008A000747342AB757343AB767344AB777345ABEC
:1008B000787346AB797347AB7A7348AB7B7349ABBC
:1008C0007C734AAB7D734BAB7E73B5E27F734CABED
:1008D00080734DAB81734EAB82734FAB837350AB60
:1008E0008473FED0857351AB867352AB8773CAC2D3
:1008F000887353AB8973F1D38A7354AB8B73F5CD83
:100900008C7355AB8D7356AB8E73E0E78F7357AB1B
:10091000907358AB9173E1E7927359AB93735AABF1
:1009200094735BAB95735CAB9673C1BE97735DAB11
:1009300098735EAB99735FAB9A7360AB9B73EAC2BB
:100940009C7361AB9D7362AB9E7363AB9F73E4E773
:10095000A07364ABA17365ABA273E3E7A37366AB4B
:10096000A47367ABA57368ABA67369ABA7736AABD7
:10097000A8736BABA973E6CDAA736CABAB73B5C3AD
:10098000AC736DABAD736EABAE73E2E7AF73B7BB79
:10099000B073D6CFB1736FABB273E1C1B373E9E794
:1009A000B47370ABB57371ABB67372ABB773E8E782
:1009B000B87373ABB97374ABBA73F4E7BB73A3B218
:1009C000BC7375ABBD7376ABBE7377ABBF7378ABDF
:1009D000C073EAE7C17379ABC273E6E7C3737AAB5E
:1009E000C4737BABC5737CABC6737DABC7737EAB87
:1009F000C873ECE7C973EBE7CA73BAC9CB7380ABB2
:100A0000CC7381ABCD73E4D5CE7382ABCF73E5E706
:100A1000D073A9B7D173E7E7D27383ABD37384AB39
:100A2000D47385ABD57386ABD67387ABD77388ABDE
:100A3000D87389ABD973EEE7DA738AABDB738BAB10
:100A4000DC738CABDD738DABDE73F3E7DF738EABE2
:100A5000E073E9D6E1738FABE27390ABE37391ABD4
:100A6000E47392ABE573EDE7E67393ABE773F2E7FC
:100A7000E87394ABE973F1E7EA7395ABEB7396AB6C
:100A8000EC7397ABED73E0B0EE7398ABEF7399AB8B
:100A9000F0739AABF1739BABF273F5E7F3739CAB16
:100AA000F4739DABF5739EABF6739FABF773A0AB7E
:100AB000F87340ACF97341ACFA7342ACFB7343ACCE
:100AC000FC7344ACFD7345ACFE7346ACFF7347AC9E
:100AD000007448AC017449AC02744AAC0374F2C7A8
:100AE00004744BAC0574C5C00674EDC007744CACFF
:100AF00008744DAC0974F0C10A74F0E70B744EAC85
:100B00000C744FAC0D7450AC0E7451AC0F74F6E70E
:100B10001074F6CB117452AC127453AC137454AC01
:100B2000147455AC157456AC167457AC177458AC95
:100B3000187459AC19745AAC1A74A2E81B74A1E861
:100B40001C745BAC1D745CAC1E745DAC1F745EAC3D
:100B500020745FAC217460AC2274C1D7237461AC83
:100B6000247462AC2574FAE72674F9E7277463AC41
:100B70002874FBE7297464AC2A74F7E72B7465AC1E
:100B80002C74FEE72D7466AC2E74FDE72F7467ACF1
:100B90003074FCE7317468AC327469AC3374D5C11D
:100BA0003474D9C73574FDC53674C3C537746AAC9F
:100BB00038746BAC39746CAC3A746DAC3B746EAC1D
:100BC0003C74EDC73D746FAC3E7470AC3F7471AC57
:100BD000407472AC4174A3E8427473AC437474AC57
:100BE000447475AC457476AC467477AC477478AC95
:100BF000487479AC49747AAC4A747BAC4B747CAC65
:100C00004C747DAC4D747EAC4E7480AC4F7481AC32
:100C1000507482AC517483AC527484AC537485AC00
:100C2000547486AC5574A6E8567487AC5774A5E81E
:100C3000587488AC5974A7E85A74F7BA5B74F8E72B
:100C40005C74A4E85D7489AC5E74F0C85F74AAC972
:100C500060748AAC61748BAC62748CAC63748DAC60
:100C600064748EAC65748FAC667490AC677491AC30
:100C7000687492AC697493AC6A7494AC6B7495AC00
:100C80006C7496AC6D74A9E86E7497AC6F7498AC84
:100C90007074E5B9717499AC72749AAC73749BAC4E
:100CA00074749CAC75749DAC7674FED17774A8E8AE
:100CB00078749EAC79749FAC7A74A0AC7B7440ADB0
:100CC0007C7441AD7D7442AD7E74AAE87F7443ADFF
:100CD0008074ADE88174AEE8827444AD8374A7C1BA
:100CE000847445AD857446AD867447AD8774AFE8AE
:100CF000887448AD897449AD8A744AAD8B74B0E884
:100D00008C744BAD8D744CAD8E74ACE88F744DAD5E
:100D10009074B4E891744EAD92744FAD937450AD2D
:100D2000947451AD957452AD967453AD977454AD9F
:100D3000987455AD997456AD9A7457AD9B7458AD6F
:100D40009C74ABE89D7459AD9E74B1E89F745AAD24
:100D5000A0745BADA1745CADA2745DADA3745EAD17
:100D6000A4745FADA57460ADA67461ADA774B5E859
:100D7000A874B2E8A974B3E8AA7462ADAB7463ADA9
:100D8000AC7464ADAD7465ADAE7466ADAF7467AD93
:100D9000B07468ADB17469ADB2746AADB3746BAD63
:100DA000B4746CADB5746DADB6746EADB7746FAD33
:100DB000B87470ADB97471ADBA74B7E8BB7472AD84
:100DC000BC7473ADBD7474ADBE7475ADBF7476ADD7
:100DD000C07477ADC17478ADC27479ADC3747AADA7
:100DE000C4747BADC5747CADC6747DADC7747EAD77
:100DF000C87480ADC97481ADCA7482ADCB7483AD43
:100E0000CC7484ADCD7485ADCE7486ADCF7487AD12
:100E1000D07488ADD17489ADD274B6E8D3748AAD7C
:100E2000D4748BADD5748CADD6748DADD7748EADB6
:100E3000D8748FADD97490ADDA7491ADDB7492AD86
:100E4000DC74CFB9DD7493ADDE74ACF0DF7494ADB7
:100E5000E074ADF0E17495ADE274B0C6E374EAB04D
:100E6000E474BFC8E57496ADE674DFCDE77497AD62
:100E7000E87498ADE97499ADEA749AADEB749BADE2
:100E8000EC749CADED749DADEE74CDCEEF74B1EA13
:100E9000F0749EADF1749FADF274A0ADF37440AEEA
:100EA000F474B2EAF57441AEF674BFC6F774C9B40F
:100EB000F87442AEF97443AEFA7444AEFB7445AEB6
:100EC000FC7446AEFD7447AEFE7448AEFF74B3EAE0
:100ED000007549AE01754AAE02754BAE03754CAE56
:100EE0000475E7D505754DAE06754EAE07754FAE68
:100EF000087550AE097551AE0A7552AE0B7553AEFA
:100F00000C7554AE0D75F9DD0E7555AE0F75B4EA5E
:100F1000107556AE1175B5EA127557AE1375B6EA6F
:100F2000147558AE157559AE16755AAE17755BAE79
:100F30001875CAB81975B0DF1A75F5C91B755CAE9E
:100F40001C75F0CC1D755DAE1E755EAE1F75FAC9C1
:100F500020755FAE217560AE227561AE237562AEFD
:100F6000247563AE2575FBC9267564AE277565AE1D
:100F70002875C3D32975A6CB2A7566AE2B75A6B87E
:100F80002C75AEF02D75C2B12E7567AE2F75B8E514
:100F90003075EFCC3175C9D33275D7BC3375EAC91A
:100FA000347568AE3575E7B5367569AE3775D0C43A
:100FB0003875E9B539756AAE3A75AEEE3B75ADBBBD
:100FC0003C756BAE3D756CAE3E75DEE73F756DAE44
:100FD0004075AFEE41756EAE42756FAE437570AE43
:100FE000447571AE4575A9B3467572AE477573AE5B
:100FF0004875B2EE497574AE4A7575AE4B75B1EE73
:101000004C75E7BD4D7576AE4E75B0EE4F75B7CEEB
:10101000507577AE517578AE527579AE53757AAE1C
:101020005475CFC555757BAE56757CAE57757DAE84
:1010300058757EAE5975F4C15A75CEDB5B75B3EE4B
:101040005C75F3D05D7580AE5E7581AE5F7582AE06
:10105000607583AE617584AE627585AE637586AE6C
:10106000647587AE6575D4C26675E8C6677588AE67
:10107000687589AE69758AAE6A75ACB76B758BAEEB
:101080006C758CAE6D758DAE6E758EAE6F758FAEE8
:10109000707590AE717591AE7275B4EE737592AE57
:1010A0007475EBB3757593AE767594AE777595AE32
:1010B0007875FBBB7975B5EE7A7596AE7B7597AE94
:1010C0007C7598AE7D7599AE7E759AAE7F75DCE7BE
:1010D00080759BAE81759CAE82759DAE8375B6EEB4
:1010E00084759EAE85759FAE8675AEBD8775A0AEC4
:1010F000887540AF897541AF8A7542AF8B75E2F153
:101100008C7543AF8D7544AF8E7545AF8F75E8CA4A
:10111000907546AF9175C9D29275DAF0937547AF65
:101120009475DBF0957548AF9675DCF09775C6C180
:10113000987549AF9975EDB89A75CEBE9B754AAF53
:101140009C754BAF9D75DEF09E754CAF9F75B1C51C
:10115000A075DDF0A175F1D1A2754DAFA375E0F0DA
:10116000A475CCB0A575EABDA6754EAFA7754FAFF7
:10117000A87550AFA97551AFAA7552AFAB75DFD244
:10118000AC75DFF0AD7553AFAE75AFB4AF75E8B702
:10119000B075E6F0B175E5F0B275A3C6B375E1F0D0
:1011A000B475E2F0B575C3B4B67554AFB77555AF45
:1011B000B875E3F0B975EED5BA7556AFBB7557AFD4
:1011C000BC75DBCCBD75D2BEBE75B2BCBF7558AFA9
:1011D000C07559AFC1755AAFC275E8F0C375E7F075
:1011E000C475E4F0C575A1B2C6755BAFC775A2D66C
:1011F000C875B8D3C975B7BECA75ACC8CB755CAF76
:10120000CC755DAFCD75EAF0CE755EAFCF755FAFD3
:10121000D07560AFD17561AFD275F7D1D37562AFBC
:10122000D475CCD6D575DBBAD675E9F0D77563AF72
:10123000D875BBB6D97564AFDA7565AFDB75B4CD5B
:10124000DC7566AFDD7567AFDE75A6C6DF7568AFA6
:10125000E07569AFE1756AAFE275A1C1E375EBF0C6
:10126000E475EEF0E5756BAFE675EDF0E775F0F05F
:10127000E875ECF0E9756CAFEA75BEBBEB75EFF0A5
:10128000EC756DAFED756EAFEE756FAFEF7570AF5E
:10129000F075B5CCF175F2F0F27571AFF37572AF10
:1012A000F475D5B3F57573AFF67574AFF77575AFA3
:1012B000F87576AFF975D4B1FA7577AFFB7578AF7D
:1012C000FC75F3F0FD7579AFFE757AAFFF75F4F03C
:1012D0000076F6F00176E1B402767BAF0376F1F0AA
:1012E00004767CAF0576F7F006767DAF07767EAFA5
:1012F000087680AF097681AF0A76FAF00B7682AF76
:101300000C76F8F00D7683AF0E7684AF0F7685AF4E
:101310001076F5F0117686AF127687AF137688AF28
:10132000147689AF1576FDF016768AAF1776F9F048
:101330001876FCF01976FEF01A768BAF1B76A1F1C9
:101340001C768CAF1D768DAF1E768EAF1F76C1CE0C
:101350002076A4F121768FAF2276A3F1237690AF89
:101360002476F6C12576FBF02676DDCA277691AF86
:10137000287692AF2976F1B42A76F1B12B76B1CCEA
:101380002C7693AF2D76A6F12E7694AF2F7695AF6F
:101390003076A7F1317696AF327697AF3376ACF1EF
:1013A0003476CED53576A9F1367698AF377699AFC3
:1013B0003876B3C839769AAF3A769BAF3B769CAF16
:1013C0003C76A2F13D769DAF3E76ABF13F76A8F13B
:1013D0004076A5F141769EAF42769FAF4376AAF163
:1013E0004476A0AF457640B0467641B0477642B0ED
:1013F000487643B0497644B04A7645B04B7646B01D
:101400004C76A9B04D76ADF14E7647B04F7648B0E8
:10141000507649B051764AB052764BB053764CB0C4
:101420005476AFF155764DB05676B1F157764EB051
:1014300058764FB0597650B05A7651B05B7652B06C
:101440005C76B0F15D7653B05E76AEF15F7654B007
:10145000607655B0617656B0627657B06376A2D1A9
:10146000647658B0657659B066765AB067765BB0E8
:1014700068765CB069765DB06A765EB06B76B2F124
:101480006C765FB06D7660B06E7661B06F76B3F1FA
:10149000707662B0717663B0727664B0737665B060
:1014A000747666B0757667B0767668B0777669B030
:1014B0007876EFB979766AB07A766BB07B76C7B515
:1014C0007C766CB07D76D7B07E76D9B07F766DB005
:1014D00080766EB081766FB08276EDD4837670B010
:1014E0008476C4B5857671B08676D4BD8776CABB5E
:1014F0008876A7F0897672B08A7673B08B76DEB87C
:101500008C7674B08D7675B08E76A8F08F7676B0C6
:10151000907677B09176A8B0927678B09376A9F06D
:10152000947679B095767AB09676EECD97767BB054
:1015300098767CB09976AAF09A767DB09B767EB04C
:101540009C7680B09D7681B09E7682B09F7683B087
:10155000A07684B0A17685B0A27686B0A37687B057
:10156000A476ABF0A57688B0A67689B0A7768AB0C7
:10157000A8768BB0A9768CB0AA768DB0AB768EB0FB
:10158000AC768FB0AD7690B0AE76A4C6AF7691B0A3
:10159000B07692B0B176E5D6B276E4F1B37693B098
:1015A000B476E5F1B57694B0B67695B0B77696B0E8
:1015B000B87697B0B97698B0BA7699B0BB769AB04B
:1015C000BC769BB0BD769CB0BE769DB0BF76F3C3B3
:1015D000C0769EB0C1769FB0C276DBD3C376A0B092
:1015E000C47640B1C576D1D6C676E8C5C77641B1D6
:1015F000C876AFD3C97642B1CA76E6D2CB7643B1CC
:10160000CC7644B1CD76C1EECE76BBB0CF76B5D533
:10161000D076CED1D176E0BCD276D0BAD37645B1F1
:10162000D476F8BFD57646B1D676C7B8D776C1B5E9
:10163000D876CCC5D97647B1DA7648B1DB76A2CA7E
:10164000DC7649B1DD764AB1DE764BB1DF76CBC3CD
:10165000E0764CB1E1764DB1E2764EB1E3764FB132
:10166000E47650B1E576C2EEE67651B1E77652B156
:10167000E87653B1E97654B1EA7655B1EB7656B1D6
:10168000EC7657B1ED7658B1EE76BFC4EF76A2B6E0
:10169000F07659B1F176ECEDF276A4C3F3765AB157
:1016A000F476B1D6F5765BB1F6765CB1F7765DB1DE
:1016B000F876E0CFF976EFEDFA765EB1FB765FB1C2
:1016C000FC76CEC5FD7660B1FE76DCB6FF7661B104
:1016D000007762B10177A1CA027763B1037764B181
:1016E0000477EDED057765B1067766B10777F0ED24
:1016F0000877F1ED0977BCC30A7767B10B77B4BF00
:101700000C7768B10D77EEED0E7769B10F776AB19E
:1017100010776BB111776CB112776DB113776EB131
:1017200014776FB1157770B1167771B1177772B101
:10173000187773B11977F4ED1A77F2ED1B7774B15E
:101740001C7775B11D7776B11E7777B11F77E6D517
:101750002077DFC3217778B12277F3ED237779B152
:1017600024777AB125777BB12677F6ED27777CB1A0
:101770002877A3D52977A3D12A777DB12B777EB19E
:101780002C7780B12D77F5ED2E7781B12F77D0C3EF
:10179000307782B1317783B1327784B1337785B1D5
:1017A000347786B13577F7ED3677F4BF3777ECBE0F
:1017B0003877F8ED397787B13A77F7CC3B7788B14E
:1017C0003C77DBD13D7789B13E778AB13F778BB1EA
:1017D0004077C5D74177F6D542778CB14377FCED9A
:1017E00044778DB145778EB146778FB14777FBED62
:1017F000487790B1497791B14A7792B14B7793B1DD
:101800004C7794B14D7795B14E7796B14F7797B1AC
:101810005077F9ED5177FAED527798B1537799B146
:1018200054779AB155779BB156779CB157779DB154
:1018300058779EB159779FB15A77FDED5B77A6BE79
:101840005C77A0B15D7740B25E7741B25F7742B21C
:10185000607743B26177AFCB6277A1EE6377BDB6B5
:10186000647744B26577A2EE6677C0C4677745B205
:101870006877FEED697746B26A7747B26B77DEBD6F
:101880006C77C7B26D7748B26E7749B26F774AB25C
:1018900070774BB271774CB272774DB273774EB2AC
:1018A00074774FB2757750B2767751B2777752B27C
:1018B000787753B27977C3B67A7754B27B7755B2DB
:1018C0007C7756B27D77A5EE7E77BAD87F77A3EE88
:1018D0008077A6EE817757B2827758B2837759B274
:1018E0008477E9C38577F2B386775AB287775BB29C
:1018F00088775CB289775DB28A775EB28B775FB2A8
:101900008C77A7EE8D77A4EE8E77B9CF8F7760B204
:10191000907761B29177A8EE9277F7C2937762B22F
:10192000947763B2957764B2967765B2977766B22B
:10193000987767B2997768B29A7769B29B776AB2FB
:101940009C776BB29D776CB29E776DB29F77A9EE54
:10195000A077AAEEA1776EB2A277ABDEA3776FB2C3
:10196000A47770B2A577B3C6A67771B2A777C6C7BA
:10197000A87772B2A977F5D6AA77C9B5AB7773B253
:10198000AC77B2CBAD7774B2AE7775B2AF7776B2D3
:10199000B077ABEEB17777B2B27778B2B377ABCD41
:1019A000B47779B2B577ACEEB6777AB2B7777BB267
:1019B000B8777CB2B9777DB2BA777EB2BB77B0D553
:1019C000BC7780B2BD77ADEEBE7781B2BF77C4F68B
:1019D000C07782B2C17783B2C27784B2C37785B24F
:1019E000C47786B2C57787B2C67788B2C77789B21F
:1019F000C8778AB2C9778BB2CA778CB2CB778DB2EF
:101A0000CC778EB2CD77C7DBCE778FB2CF7790B25F
:101A1000D07791B2D17792B2D27793B2D37794B292
:101A2000D47795B2D57796B2D67797B2D777A3B455
:101A3000D87798B2D97799B2DA779AB2DB77ACC314
:101A4000DC77E6F1DD779BB2DE779CB2DF779DB283
:101A5000E0779EB2E1779FB2E277B8CAE377D3D25C
:101A6000E477A0B2E577AAD6E67740B3E777F2EF5E
:101A7000E87741B3E977D8BEEA7742B3EB77C3BDE5
:101A8000EC77F3EFED77CCB6EE77ABB0EF7743B30F
:101A9000F07744B3F17745B3F27746B3F377AFCA43
:101AA000F47747B3F57748B3F677B6EDF77749B3F0
:101AB000F877B7EDF9774AB3FA774BB3FB774CB3C6
:101AC000FC774DB3FD77F9CEFE77AFB7FF77F3BF65
:101AD0000078B8ED0178EBC20278B0C903784EB354
:101AE00004784FB3057850B3067851B3077852B3F2
:101AF000087853B30978B9ED0A7854B30B7855B325
:101B00000C78F6C60D78B3BF0E7856B30F7857B37E
:101B1000107858B31178BCED1278F8C5137859B322
:101B20001478D0D115785AB31678A9D71778BAEDAA
:101B30001878BBED19785BB31A78E2D11B785CB3E7
:101B40001C78BFED1D78C0ED1E785DB31F78C4ED25
:101B500020785EB321785FB3227860B32378C8ED34
:101B6000247861B32578C6ED2678CEED2778E8D5C0
:101B7000287862B32978C9ED2A7863B32B7864B3E7
:101B80002C78C7ED2D78BEED2E7865B32F7866B32F
:101B90003078E9C5317867B3327868B3337869B3A0
:101BA0003478C6C635786AB336786BB33778E9C906
:101BB0003878D2D43978C1ED3A78C2ED3B78C3EDAC
:101BC0003C78C5ED3D786CB33E78F9C03F786DB395
:101BD0004078A1B441786EB342786FB3437870B364
:101BE000447871B34578E8B9467872B34778D0ED58
:101BF000487873B3497874B34A7875B34B7876B341
