:020000040800F2
:10000000F8FF0020D55B02085FF901084DF90108EF
:1000100061F9010871F9010881F901080000000087
:1000200000000000000000000000000091F901083D
:1000300093F901080000000069FE0108C5FE0108EF
:10004000C35A020801FA01080DFA010815FA01085D
:10005000C35A0208C35A020895F901089BF901081E
:10006000A1F90108A7F90108ADF901082D2002083E
:100070003D2002084D2002085D2002086D20020884
:100080007D2002088D200208C35A020800000000EB
:10009000000000000000000000000000B3F90108AB
:1000A00029FA01082FFA010841FA010847FA010864
:1000B0004DFA010853FA010859FA0108C35A020817
:1000C000C35A0208C35A0208C35A0208C35A020894
:1000D000C35A020879FA01087FFA010800000000FB
:1000E000D7F9010807FA0108C35A02080000000006
:1000F0000000000000000000000000009D20020839
:1001000000000000C35A020861FA0108C35A02083D
:1001100000000000000000000000000000000000DF
:10012000AD200208BD200208CD200208DD20020813
:10013000ED200208000000000000000000000000A8
:10014000000000000000000000000000C35A020888
:10015000FD2002080D2102081D21020885FA010870
:10016000C35A0208C35A0208000000000000000041
:10017000000000000000000000000000000000007F
:1001800000000000C35A0208000000000000000048
:04019000C35A020844
:10019400034B1B685B681A69026018610020704792
:1001A400C0080020034B1B685B681A6912681A6157
:1001B400704700BFC0080020C460056146618761C4
:1001C400C0F81C80C0F82090C0F824A0C0F828B063
:1001D400C0F82CD080ED0C8B80ED0E9B80ED10AB25
:1001E400C0F808E0FFF7D4BF08B5114B1B685A6884
:1001F40013690BB91FF084F9196858601161184626
:10020400C468056946698769D0F81C80D0F82090D5
:10021400D0F824A0D0F828B0D0F82CD090ED0C8BD6
:1002240090ED0E9B90ED10ABD0F808E001207047E4
:10023400C008002010B50021044600F009FB18B9DD
:1002440014B1204608F06EFD10BD002100F000BB83
:1002540010B50121044600F0FBFA18B914B1204688
:1002640008F060FD10BDFFF7E5BF10B501220C4694
:1002740000F032FC18B914B1204608F053FD10BD4B
:1002840000F02ABC00F0BABB2DE9F0432A4C00254B
:100294004FF00309D4F8F0710021013143189A0892
:1002A40003F00303BA5C5B0042FA03F303F00303B5
:1002B400022BF2D0D4F8FC3109018A0803EB0010B8
:1002C40081B300EB820103681A0728D1D4F8FC211A
:1002D4009A4224D89A1AD4F800624FEA921C12095E
:1002E40002F003079E424FEA470718D9D4F8F0E119
:1002F4001EF80C8048FA07F303F00303012B0ED118
:1003040009FA07F747EA080705F582783F2D0EF842
:100314000C709ABF24F818200135C4F80432043054
:100324008842D0D12DB1013D05F5827334F8130014
:10033400B0E7BDE8F08300BF10060020F0B4194E0A
:10034400D6E97E53C01AC10904096B5C04F007079F
:100354000122BA4023EA02036B54D6F89432D6F849
:10036400F0518009984238BFC6F89402295C04F021
:100374000303A00803275B0007FA03F321EA03033E
:100384002B540134D6F8F051A00804F00303295C7F
:100394005A0041FA02F202F00302022AEBD0F0BC46
:1003A400704700BF1006002021F00F0370B5164AF5
:1003B400164D1C1AE400A2FB0424640A0219A3EBE0
:1003C4008416C5F8F82100212246C5E97F63C5E9F2
:1003D4007C041AF069FFA2000732D208D5F8F801AC
:1003E40000211AF061FF00234FF480314FF0FF32F7
:1003F40005F52670C5F88812C5E9A332C5F894320C
:10040400BDE8704020F02EB9F32C23FA100600202A
:10041400034AB2F888320133A2F88832704700BF29
:1004240010060020034AB2F88832013BA2F8883251
:10043400704700BF10060020034BB3F88802003059
:1004440018BF0120704700BF10060020F8B51C4CEF
:10045400B4F8883200220133A4F88832C4F88C221C
:10046400C4F80422251D04F5E676032755F8042F65
:10047400130719D1D4F8FC01824215D3101AD4F809
:1004840000124FEA901C000900F003038A424FEA6D
:10049400430309D2D4F8F01111F80CE04EFA03F238
:1004A40002F00302012A02D0AE42DFD1F8BD07FAFE
:1004B40003F343EA0E0301F80C30FFF7E5FEF3E71C
:1004C4001006002079B3F8B5041F174E04EB81051C
:1004D400032754F8043F1A0719D1D6F8FC019842AF
:1004E40015D8181AD6F800124FEA901C000900F02B
:1004F400030299424FEA420209D9D6F8F01111F8E1
:100504000CE04EFA02F303F00303012B02D0A542E0
:10051400DFD1F8BD07FA02F242EA0E0201F80C201C
:10052400FFF7B2FEF3E77047100600202DE9F04F05
:10053400824CD4F8F431D4F8042285B09B00002A0C
:1005440000F0868000264FF0030BC4F80462002BF1
:1005540068D0002002E00130984274D2D4F8F071DF
:10056400810800F00302795C520041FA02F202F0C1
:100574000302032AEFD1844600230022013202EB56
:100584000C014FEA910E01F0030117F80EE0490047
:100594004EFA01F101F003010229EFD0D4F8FC1165
:1005A40012014FEA920E01EB0C1C92B30CEB8E0E6F
:1005B400DCF800703A0728D1D4F8FC21974224D300
:1005C400BA1AD4F800524FEA9218120902F0030141
:1005D400AF424FEA410118D2D4F8F09119F808A0BB
:1005E4004AFA01F707F00307012F0ED10BFA01F1C4
:1005F40041EA0A0103F5827A3F2B09F808109ABFF1
:1006040024F81A200133C4F804720CF1040CF445E4
:10061400CED193B1013B03F58272D4F8F07134F872
:1006240012C0AAE7B4F888320022013BA4F8883249
:10063400C4F8942205B0BDE8F08FD4F8F431013049
:100644009B0098428AD3D4F80422002A7FF47DAF19
:10065400002BE7D04FF0000E76464FF003094FF021
:100664000108022704E0012930D001369E42D9D284
:100674004FEA960AD4F8F00106F0030510F80A20B0
:100684006D0042FA05F101F00301022900EB0A0CA6
:100694000DD00329E7D107FA05F522EA050500F88C
:1006A4000A50D4F8F4314FF0000E9B00DDE7BEF1A0
:1006B400000FDAD009FA05F522EA05058CF8005096
:1006C400D4F8F4314FF0010E9B00CEE7F308D4F8D0
:1006D400F811019311F803E006F0070B4EFA0BF042
:1006E4001944C307E6D53001D4F8FC2152F800C000
:1006F4001044BCF1000F14D002AAB12107F034FE5B
:10070400DDE9013242B108F021FDDDE9020108F022
:1007140003FD08F031FD019BD4F8F81111F803E052
:10072400194408FA0BFB2EEA0B0E81F800E0D4F80A
:10073400F03103EB0A0C13F80A20BBE71006002083
:10074400054BB3F8882200210132A3F88822C3F8AC
:100754000412FFF7EBBE00BF100600203B4BD3E9A9
:100764007F122DE9F047D3E97C760023C0E90133F9
:10077400C0E90333C0E90533521A02601D46B600CE
:100784009E469C461C461A4699461946984617F8B2
:10079400093049000B4103F00303012B47D0002B20
:1007A4003DD0022B02D1013545600134013296421D
:1007B4000ED04FEA920902F0030117F809304FEA0C
:1007C400410A43FA0AF313F0030301D0012BDED1EB
:1007D400012C11D0022C02D141690131416181699E
:1007E400A14238BF846196420FD0012B23D04FEA37
:1007F400920902F00301CAE70169013101618169CB
:10080400A14238BF84619642EFD1C44516D99642BD
:10081400C0F80CC012D0E0464FF0000CE7E70EF130
:10082400010EC0F808E00CF1010C1C46BEE70135CE
:1008340045601C46BAE7E045EED2E8E72D014FEAF1
:100844000E13C0E90153BDE8F08700BF1006002075
:100854000F302DE9F047060951D0674DB5F88832BD
:10086400002B4CD1B5F88A32002B0C460CBF4FF04C
:10087400010E4FF0000E47D1D5F89402D5F8F4716B
:10088400874239D9D5F8F0C1411E614400221AE0EB
:100894000132964253D913F00C0F1ED10132964205
:1008A40040F2A08013F0300F1CD10132964240F286
:1008B4009C8013F0C00F1AD10132964240F2988006
:1008C4000130B84218D211F8013F13F0030FDFD002
:1008D40013F00C0F4FF00002E0D013F0300F4FF084
:1008E4000002E2D013F0C00F4FF00002E4D0013058
:1008F400B8424FF00002E6D3BEF1000F14D04FF01F
:1009040000084046BDE8F087D5E9A3239A42B3D353
:1009140022F022FDD5F89402D5F8F471874288BFFD
:100924004FF0010EAED8EAE722F016FDD5F8940296
:10093400D5F8F47187424FF0010EA3D8DFE78000A9
:10094400811A012A01F1010703D1431C9B08C5F850
:1009540094324FEA970E07F003034FEA43081CF85A
:100964000E90012303FA08F3023143EA0903884293
:100974000CF80E3013D34FF002084FEA910CD5F85F
:10098400F0E101F003031EF80C905B0008FA03F396
:10099400013143EA090388420EF80C30EDD2D5F850
:1009A400FCA1D5F88C324FEA07190AEB09081E445A
:1009B400120140460021C5F88C621AF075FCE30769
:1009C4009FD50023D5F8F8114AF80930FA08012315
:1009D400885C07F0070703FA07F707438F5440467C
:1009E400BDE8F08780000130AAE780000230A7E765
:1009F40080000330A4E700BF10060020F0B41B4EB3
:100A0400B6F888327BBB70B3D6E97E53C01AC109ED
:100A140004096B5C04F007070122BA4023EA0203CD
:100A24006B54D6F8942283099342D6F8F00138BF68
:100A3400C6F89432C15CA50804F0030303275B00E5
:100A440007FA03F321EA030343550134D6F8F0010E
:100A5400A50804F00303415D5A0041FA02F202F0D2
:100A64000302022AEBD0F0BC704700BF100600203E
:100A740010F00F030DD11749D1F8FC21824208D898
:100A840010B4D1F80042844205D818465DF8044BEE
:100A9400704700207047801AD1F8F041810902099B
:100AA400615C02F003004000014101F003010129EF
:100AB4001846EBD101301318990803F00303615C65
:100AC4005B0041FA03F303F00303022BF2D00001AD
:100AD400DCE700BF100600202DE9F84F0B4607465F
:100AE400002800F0A680574DB5F88842002971D03F
:100AF400002C71D1D5F8FC01D5F8F431381A4FEA3D
:100B0400101C0CF1010E4FEA830901F10F06F145A7
:100B14004FEA161640F29380D5F8F0A14FF0010881
:100B24004FEA9E0B0EF003031AF80BB05B004BFA6E
:100B340003F303F00303022B52D023B9013408EB6F
:100B44000403B3424ED3464540D021D34444B44277
:100B54004DD2002A40D0C009D5F8F8311B5C0CF006
:100B6400070C43FA0CFC08460CF00101FFF770FE79
:100B7400044688B34FEA081239461AF051FBB5F817
:100B8400883223BB3846FFF7D9FB2046BDE8F88FEF
:100B940066443046C4444FF003094FEA900ED5F83A
:100BA400F01100F0030311F80E405B0009FA03F39F
:100BB400013024EA0303604501F80E30EDD1D5F885
:100BC4009432B6089E4238BFC5F894623C4620462B
:100BD400BDE8F88F002CD6D000242046BDE8F88F5D
:100BE40008F101080EF1010EF14599D1ABE70CEBC8
:100BF4000802B444944510D902219008D5F8F04174
:100C040002F0030314F800E05B0001FA03F301327D
:100C140043EA0E0394452354EFD1A6EB08021201D4
:100C240007EB081000213C461AF03EFB2046BDE8C5
:100C3400F88F01461846BDE8F84FFFF709BE4FF09C
:100C4400010880E71006002010B58AB003A80B4CF9
:100C5400FFF784FD059B00932046DDE90323084943
:100C640000F0C4FE069A099B019200932046DDE938
:100C74000723044900F0BAFE0AB010BD90E502084B
:100C840034B3020858B302082DE9F047DFF864A131
:100C94004949DAF8FC21494800F0A8FEDAF8F411D1
:100CA400890074D0DFF85091DFF85081434F00255C
:100CB4000CE0012E46D02E224149384600F096FE23
:100CC400DAF8F41101358900A94260D905F0030668
:100CD400AA064FEA4606DAF8F0010BD0AB08C35C6B
:100CE40043FA06F606F00306022E29D0032EE0D1BD
:100CF4006D22E1E72C46A20804F00303825C5B004A
:100D040042FA03F39B0702D101348C42F3D3621BF2
:100D14007F2A0CD992092B49384600F067FEDAF88D
:100D2400F43124F03F05B5EB830F30D2002609EAF5
:100D340005124146384600F059FEDAF8F001CDE7D5
:100D44003D22B9E7DAF8FC111F4B2A018A589A426E
:100D540023D01E4B9A4222D01D4B9A4225D01D4BC4
:100D64009A421ED01C4B9A421BD01C4B9A421AD05A
:100D74001B4B9A4217D01B4B9A4218D01A4B9A42DB
:100D840017D01A4B9A420CBF4D22682294E7184997
:100D94000A48BDE8F04700F0E8BA54228CE74C2238
:100DA4008AE7532288E7412286E7442284E74622E1
:100DB40082E7422280E700BFECB2020890E5020815
:100DC40030B302080CB30208981B03085C0A03083A
:100DD40040FD0208C8180308EC1503084CF9020882
:100DE40010F90208D80403082C050308E80B0308CB
:100DF40008B3020810060020F0FF0F0028B3020811
:100E0400054B5B695A68824204D8801A043053F84F
:100E1400200070471B68F5E710060020014441F2EA
:100E24000553884204D398B2002808BF01207047B4
:100E340010F8012B03EB43135340F2E70448054B2E
:100E440043610023C0F8D03100F5EE701FF00ABCF6
:100E5400100600203CB402082DE9F84F824689466A
:100E6400FFF7DCFF134B5C6983460CB920461EE098
:100E7400E66804F1100808EB86064546B5422F469D
:100E840001D32468F1E755F8040B03885B45F5D1D9
:100E940083784B45F2D14A46514603301AF02AFA78
:100EA4000028EBD16068A7EB080700EBA700BDE8BA
:100EB400F88F00BF100600202DE9F04780460E464B
:100EC400FFF7CAFF0246002874D1FF2E03D93E491A
:100ED4003E4807F01DFF3E4CD4F8D001351D90B1BB
:100EE400D4E975132B448B422BD92944FFF7C8F955
:100EF4000746E8B90246D4F8D811D4F8D001FFF770
:100F0400BFF9C4F8D071802D2F4638BF80273846EA
:100F1400FFF79BF9C4F8D00100284FD12846FFF70A
:100F240094F9C4F8D001002847D1284607F0FAFE06
:100F3400D4F8D4312B44C4F8D431D4F8D031002BB4
:100F4400E1D0D4F8D891D4F8D0A131464D444046EC
:100F5400C4F8D851FFF762FF0AEB09070AF8090041
:100F6400000A7870BE7032464146F81C1AF058F9EF
:100F7400BB190026DE706369D3E90253AB420FD379
:100F84006D00281D8000FFF760F90028CDD062694C
:100F940002605368D268C6601344C0E901356061D9
:100FA4006369D9685A68481C0431D860013A43F827
:100FB400217002441046BDE8F0872F460023C4F890
:100FC400D471C4F8D831BCE7DBC10208700203084D
:100FD4001006002010B504461AF0AEF9014620466A
:100FE400BDE81040FFF768BF08B5FFF709FF0088A8
:100FF40008BD08B5FFF704FF807808BD08B5FFF702
:10100400FFFE033008BD08B5FFF7FAFE83780B60D6
:10101400033008BD2DE9F8431D46002303600B602F
:1010240013602B60174BDFF860905C6907468846B5
:1010340016460CB14C4505D12B68326813442B601D
:10104400BDE8F8833B6801333B60E268D8F80030C0
:101054001344C8F80030E26804F1100303EB820281
:10106400934207D32046FFF703FD2B6824681844F6
:101074002860DEE753F8041B8878316804310144A2
:101084003160EDE7100600203CB402082DE9F84376
:101094000E4B0F4F5C69DFF83C80DFF83C900CB1DD
:1010A400BC4201D1BDE8F883E36804F1100505EB07
:1010B4008306B54201D32468F1E755F8042B414671
:1010C4000332484600F092FCF3E700BF100600200C
:1010D4003CB40208D4C1020890E5020838B544685B
:1010E40003680C449C42054610D9037BDB0703D5F7
:1010F4000021074807F00CFE103424F007040834DC
:1011040021468068FFF7B1F82C60A86038BD00BFA5
:101114007002030870B504460E4611461546FFF7E3
:10112400DDFFD4E901302A46314618441AF0A4F808
:1011340062682A44626070BD70B5466804468E4297
:10114400354628BF0D460121FFF7C8FFA368681C78
:101154005919721B18441AF08FF86368A068013398
:101164006360284470BD38B50446081E08BF0120DA
:10117400002520606560FFF75DF8237BA06065F3C0
:101184000003237338BD38B505460C460131FFF71B
:10119400EAFF6C6038BD0023C0E90132037B0160C3
:1011A40043F001030373704738B514460546FFF74F
:1011B400DAFF024B2560636038BD00BF19110008D7
:1011C400037BDB0710B5044602D48068FFF75AF8A6
:1011D4000023A36010BD38B505461020FFF72AF898
:1011E40029460446FFF7BFFF204638BD10B5044624
:1011F40050B1037BDB0702D48068FFF743F8204635
:10120400BDE81040FFF73EB810BD000038B5037BC1
:10121400DB0704460D4603D50021074807F078FD97
:10122400016880682944FFF720F82368A0601D4402
:101234002560184438BD00BF7002030838B5044661
:101244000D46FFF74BFFD4E901301D446560184497
:1012540038BDD0E900239A4210B5044602D10121D9
:10126400FFF7D4FFD4E901320021D154A06810BDA6
:1012740010B50C460121FFF7E1FF047010BD7F2972
:10128400F8B50C46CEB204D80121FFF7D7FF06709B
:10129400F8BD06F03F06B1F5006FC1F3871546F0BF
:1012A400800607D20221FFF7C9FF65F03F050570EC
:1012B4004670EDE705F03F05B1F5803FC1F3073710
:1012C40045F0800508D20321FFF7B8FF67F01F033C
:1012D400037045708670DBE70421FFF7AFFFA40CB1
:1012E40007F03F0364F00F0463F07F03047043705E
:1012F4008570C670CCE738B5054608460C461AF02A
:101304001BF8214602462846BDE83840FFF702BFD5
:1013140010B51446FFF710FF047010BD10B5144645
:10132400FFF70AFF047010BD43688B422CBF5B1AA1
:1013340000234360704738B5154642688A42044624
:101344000B4603D929448A4201D8436038BD8068DA
:10135400521A0144184419F08FFF6268521B6260EC
:10136400F4E7084611461EF003BC70B5054608466E
:101374000E4619F0E1FF044620B102466B68286866
:1013840031469847204670BD2DE9F74F01919DF8ED
:10139400301091460D9A11F0DF0F0646A2EB0902B8
:1013A4003DD030290CA9244F0EBF4FF010080F4632
:1013B4004FF0010813F0800435D002EBD2746410AE
:1013C400151B002C36DDA246D045C346A8BFD34624
:1013D400736830685A463946AAEB0B0A9847BAF143
:1013E400000FF1DCB9F1000F05D073680199306882
:1013F4004A4698474C44002D0DDD2C44A845C1466F
:10140400A8BFA946736830684A463946A5EB090562
:101414009847002DF2DC204603B0BDE8F08F074F5B
:101424004FF01008C6E713F0010501D11446C8E7D0
:101434001546D7E70024D5E7B4E50208A3E502087A
:101444002DE9F04389B007460020119D9DF848809E
:10145400139E8DF80F0002B3814219DA2D228DF804
:101464000F204942109A08ACA2F10A000DF1100EA7
:10147400B1FBF3FC03FB1C12092A8CBF1218303297
:1014840004F8012D74450FD08B420DD86146EFE767
:10149400A80727D52B228DF80F200029E2D130236D
:1014A4008DF81F300DF11F0415F040099DF80F3021
:1014B4001CD023B30122CDE900822B460DF10F018C
:1014C4003846FFF761FF013E814608AACDE9008650
:1014D4002B46121B21463846FFF756FF484409B0F5
:1014E400BDE8F0836A07D8D52022D4E7002BECD0DE
:1014F40004AA9442E9D904F8013C013CE5E7994681
:10150400E3E700002DE9F04F93B080461E46C8077C
:101514009DF874301C9D06930C469146DDE91E7AB5
:101524000BD4A10703D12268794B9A4205D02046F7
:1015340008F0C0FA400040F0010415F0810306D120
:10154400069A302A03D15745B8BF57469A462046D3
:101554000AF0A1FF00280DF1280B18DBAA0712D509
:101564002B238DF828300DF12903E806F6B21DD59A
:10157400B9F1020F0DD11A46302102F8021B711C79
:101584005970134612E06B0701D52023E9E75B4647
:10159400EBE7B9F1080F60D1A9054FF030021A70DA
:1015A40045BF06F10E025A7001330233002215F0D2
:1015B400200F1A70A3EB0B0305930EA90CBF13465F
:1015C4002C23BAF1010F0B91C8BF45F0400510213F
:1015D400CDE90C1215F040018DF827200791CDE9D3
:1015E400026344D0CDE9009223460DAA0CA90BA8AE
:1015F4000AF020FE03782D2B814606D18DF8273082
:101604000D9B013B00F101090D93BAF1010F3CDD83
:101614000D9C079B5445B8BF54462BB19DF8273009
:1016240003B10134059B1C44A7422BDD15F00103D3
:10163400A7EB040427D126461C4625F001054EB12C
:1016440020230093002301961A4632494046FFF7AF
:101654009BFE06463023069319E0B9F1100FA5D17D
:101664001A46302102F8021B06F1170188E70AAB7B
:10167400CDE900930DAA23460CA90BA80AF0DAFDC4
:101684008146C2E700240026D7E700242646079BAC
:10169400DBB19DF8273053B100230122CDE900329C
:1016A4000DF127014046FFF76FFE013F0644059BFD
:1016B4005BB100230122CDE900325946059A404628
:1016C400FFF762FE059B0644FF1A069B0093BAF1DE
:1016D400010FC8BF574601972B460D9A494640460D
:1016E400FFF752FE06444CB12023009300230194DB
:1016F4001A4608494046FFF747FE06440B980EABCE
:10170400984201D0FEF7BEFD304613B0BDE8F08F1D
:10171400C4080308C34E03082DE9F04316468BB0F2
:10172400B20780469946129F3CD416F0040F0CBFB2
:101734000023202300930A46139B202102A805F0CE
:10174400A1FDF30504460DD5431C1F2B0AD80AAA94
:101754001444252204F8202C0AAA1A44002102F871
:10176400201C1C4616F040051ED09DF808302F2B77
:101774004FF000031AD8012202A9CDE900324046F5
:10178400FFF702FE013F0546013C0DF10901CDE9D9
:101794000097334622464046FFF7F6FD28440BB037
:1017A400BDE8F0832B23C5E702A9F0E702A91D4693
:1017B400EDE700002DE9F04F824689B0144600267B
:1017C4000B461D4613F8012B0AB1252AF9D1A9426B
:1017D40008D26F1ADAF80430DAF800003A4698476B
:1017E4003E4429460B78002B00F0F8800131202379
:1017F4004FF000090A4612F8015B0DB90A271DE0F3
:101804002D2D03D149F001091146F3E72B2D02D107
:1018140049F00209F8E7202D02D149F00409F3E761
:10182400212D02D149F00809EEE7302D22D149F0EB
:1018340040092B46E8E707FB0525303D884611F8AB
:10184400012BA2F130000928F5D92E2A39D198F8B4
:1018540001202A2A10D04FF0000B0A27884611F8DD
:10186400012BA2F1300009280CD807FB0B2BABF19C
:10187400300BF3E70025C1E754F8042B08F1020804
:1018840022EAE27B98F800206C2A08BF08F10108DC
:1018940098F80070002F00F0A180642F7DD028D824
:1018A400502F2DD010D8A7F14502022A40F2838090
:1018B400DAF80430DAF8000001224146984701368C
:1018C40049E04FF0FF3BDDE7622F38D049D8582F6D
:1018D400EED17A1C27F00F070F3F02F00602FFB289
:1018E400CDE90235CDF804900097C2F1100300222F
:1018F4005BE0712F3FD00BD8672F5CD9702FD7D105
:10190400CDE9023561230093CDF804901023EEE76E
:10191400752FDED0782FDCD0732FC9D1BBF1FF3FF8
:1019240054F8047B05D13846059319F005FD059B51
:101934008346CDE900355A464B46394607E054F80C
:10194400042BCDE900354B4642B1264904225046CA
:10195400FFF71AFD064408F1010131E70522224987
:10196400F5E754F8042B8DF81C20CDE9003501224D
:101974004B4607A9EBE707A954F8040B0593FFF7B7
:1019840042FBBBF1FF3F059B08BFDDF81CB0CDE96E
:10199400003501464B465A46D9E7CDE90235612365
:1019A4000093CDF804900A23012254F8041B5046F6
:1019B400FFF746FDCEE7073424F00704F4E80201FC
:1019C400059329F0BFFACDE9005B00EE100A059BF0
:1019D4004A4639465046FFF79FFEBBE7304609B0FA
:1019E400BDE8F08F98E502089DE502080EB403B542
:1019F40003AA52F8041B0192FFF7DCFE02B05DF863
:101A040004EB03B0704703781A060AD503F07F038A
:101A14004022134207D110F8012F02F0C00180299F
:101A240005D01846704723EA02035208F1E702F092
:101A34003F0242EA8313EEE7421C10460132037868
:101A440003F0C003802BF8D070470023814201D8F3
:101A54001846704711F8012D02F0C002802A18BF01
:101A64000133F3E701440346002099421A4600D8A3
:101A74007047127802F0C002802A03F1010318BFF4
:101A84000130F2E77F289DBF024B185CC0F3400091
:101A940000207047C5E502087F289DBF024B185CF3
:101AA400C0F3C00000207047C5E502087F289DBF31
:101AB400024B185CC0F3800000207047C5E50208A3
:101AC4007F289DBF024B185CC0F380100020704734
:101AD400C5E502087F2809D8064B1B5C13F00C0FE0
:101AE40006D1A0F15F035842584170470020704767
:101AF40001207047C5E502087F289DBF024B185C92
:101B0400C0F3001000207047C5E502087F289DBF80
:101B1400024B185CC0F3401000207047C5E5020872
:101B240008B50246FFF7E8FF00B12032104608BDB1
:101B340008B50246FFF7EAFF00B1203A104608BD97
:101B44003038092884BF20F020000738704710B5CA
:101B540001440246E5240020914203D8B0FA80F003
:101B6400400917E012F8013B30B103F0C003802BA9
:101B740011D10138C0B2EFE7BF2B09D9F72B09D82F
:101B8400DB0803F0060344FA03F303F00300E3E77E
:101B94001B06E1D510BD0020FCE7023981420B464B
:101BA40003D31A880239002AF8D002331B1A5810BA
:101BB400704770B51C09944215D2121B01EB440105
:101BC400154603F00F030E46012D31F8024B18BFE2
:101BD4003468DC40A4B2013D20F8024BF3D104B9CF
:101BE400013A104670BD0022FBE7F0B5059D0024C4
:101BF400521B2746A5420FD16D00441900230D4402
:101C04009A4214D104EB42031FB1012124F81210AB
:101C14000233181A4010F0BD31F8146033F814C0C0
:101C240066443E4420F81460370C0134E2E735F88A
:101C340013603E4424F81360370C0133E0E7F0B43A
:101C4400049E0025921B2C46AE420AD176008519CB
:101C540000230E449A420FD105EB4201F0BCFFF77A
:101C64009CBF31F815703C4433F81570E41B20F820
:101C7400154024140135E7E736F813100C4425F811
:101C8400134024140133E5E72DE9F043079CDDF804
:101C940028E0DDE908760239154684464FF6FF78D8
:101CA400A4EB020955B900EB42011FB1012320F84E
:101CB40012300231BDE8F043FFF76FBF31F8024F35
:101CC400013D4444264405EB0904AC4296BF33F875
:101CD400024B4FF6FF744444744486EA040E17FA28
:101CE4008EF72CF8027B4FEA144E360C3F0CD9E7E2
:101CF40038B502290446806838BF02210D4618B160
:101D04002368B1EB930F07D96900FEF7AEFA236895
:101D1400A06065F39F03236038BD38B505460C20E9
:101D2400FEF788FA2A78037862F300036FF341031D
:101D34000446037028682368C0F39D0060F39F0382
:101D440023606B6863604000FEF774FAA0602A6841
:101D5400A968C2F39D02520019F062FA204638BD08
:101D640010B54B0018441A4409B9084610BD30F8A0
:101D7400023D32F8024D1B1B002B02DB04D101395A
:101D8400F2E74FF0FF30F1E70120EFE710B504462A
:101D940038B18068FEF776FA2046BDE81040FEF7B9
:101DA40071BA10BD38B505460C460221FFF7A0FFF5
:101DB400002C2B78B4BF0122002262F300032B70A5
:101DC4004FF00003B8BF64426B6004B938BDD5E975
:101DD4000132581C686022F81340240CF5E70023F4
:101DE400C0E900338360704728B103789B0702D4AD
:101DF4008068FEF747BA704738B505460C4649680F
:101E0400FFF776FF22782B78A86862F300032B7023
:101E140063686B606268A1685200BDE8384019F0DD
:101E2400FFB9034609B959607047FFF7BBBF08B54E
:101E3400FFF7D5FFBDE80840FFF7F3BF30B40468EF
:101E440062F39F04046004F0FC0444F002040022E2
:101E54000470C0E9012130BC1946FFF7E2BFF8B5B0
:101E64009DF818700421064614461D46FFF740FFEE
:101E74008FB1002C75F100030DDA624265EB450366
:101E84000120317860F3000131700021716052EA61
:101E9400030104D1F8BD22462B460020F1E7D6E920
:101EA40001104C1C746020F81120110C41EA03410C
:101EB400180C0A460346EAE72DE9F04110EE106AD1
:101EC4000378F20F62F300030370C6F30F4313F4B5
:101ED400FF43074603D100237B60BDE8F081B3F5DF
:101EE400FF4FF8D0C6F3C753A3F17F04002CF2DBF5
:101EF40004D10121BDE8F041FFF754BFB3F16F08ED
:101F040048BFA3F16008C6F31606162C4FEA28183A
:101F140046F4000621DCC4F11704E64000242546FB
:101F240041463846FFF7E4FEC7F8048025B16A004D
:101F34000021B86819F0B8F944B1BB6806FA04F294
:101F440023F81520C4F11004E6400135A845C4D097
:101F5400BB6823F81560360CF7E7B3F1960504F176
:101F6400090448BFA3F1870504F00F042D11D7E736
:101F74002DE9F84304468F18C2F35B020D46511C49
:101F84009846089EFFF7B4FE2278002368F3000207
:101F94002270636029461FFA86FCB942084602D3C0
:101FA400401BBDE8F8830278A2F13003092B01F14C
:101FB400010105D9A2F14103192B14D8A2F1370369
:101FC400B342EDD2D4E901E0F0468146B8F1000F06
:101FD40010D100EB4E0213B120F81E300232121A57
:101FE40052106260D9E7A2F16103192BD8D8A2F18B
:101FF4005703E5E7B9F8002002FB0C3329F8023B4C
:1020040008F1FF381B0CE1E7F8B5044615461E46F7
:10201400C1B1531E1E444FF0FF37E9000F310909C7
:102024002046FFF765FE237800216FF30003237039
:1020340061604DB9D4E9011000EB4101FFF7ADFD3A
:102044006060F8BD0127E8E700230F2908DC327837
:102054008A401343013D9BB201F108013E44F4D18F
:102064006268501C6060A068103920F81230E0E704
:102074000A46416838B5044609B9506890B11378E6
:10208400257803F0010305F00100181A0AD15368FA
:10209400994208D30AD89268A068FFF761FEEB075B
:1020A40048BF404238BD4FF0FF30F8E70120F6E763
:1020B400884210B5044601D0FFF79EFE23786FF3E3
:1020C4000003237010BD884210B5044601D0FFF709
:1020D40093FE2378C3F30002C2F1010262F300030A
:1020E400237010BD88421FB5044601D0FFF784FE5B
:1020F400626862B901212046FFF7FAFDA268012354
:1021040013806360237843F00103237010E0237885
:10211400D9070FD56FF30003A16823700123ADF82D
:102124000E30009308460DF10E03FFF788FD606042
:1021340004B010BD511C2046FFF7DAFDD4E901219B
:102144000123ADF80E30009308460DF10E03FFF79E
:102154004CFD6060D6E72DE9F0470E464968054618
:10216400174601B12AB931462846BDE8F047FFF7C2
:1021740043BE02F10F0424092144FFF7B9FD70683E
:10218400A968B36817F00F0E04EB000707F10048C5
:1021940008F1FF384FEA480801EB080C08BF4FF07C
:1021A400100E03EB40090146E2460022CEF1100E68
:1021B40011BB6FF0010358430CEB000922FA0EF235
:1021C4002CF8002003FB049304F100420233013A8B
:1021D4001846520019F068F808F10208034643440F
:1021E40017B133F8022D8AB16F6032782B7862F31D
:1021F40000032B70BDE8F08739F8023D1A4322FA38
:102204000EF32AF8023912040139D1E7013FE7E756
:10221400F0B50E46496885B00546144601B12AB9A1
:1022240031462846FFF7E8FD05B0F0BDFFF760FD35
:10223400D6E901212346A868FFF7BBFC6860317822
:102244002B7861F300032B70DB070246ECD50023E7
:102254007768ADF80E3021099F4201D08B420FD12F
:102264008F42E1D9B36804F00F0433F8111001234D
:1022740003FA04F4013C214213D0ADF80E3008E017
:10228400B06830F8130050B101238F42ADF80E301E
:10229400E8D8A96801234AB90B806B60C4E701330D
:1022A400DAE7BDF80E30002BBED0F2E70093084603
:1022B4000DF10E03FFF799FC6860B5E773B5536839
:1022C4000C46496899420646154606D308D89268D2
:1022D400A068FFF745FD002802DA23462C461D4678
:1022E40023782A7861685340DB0713D401313046E0
:1022F400FFF7FEFC6B680093AB68B068D4E901217A
:10230400FFF773FC70602278337862F30003337054
:1023140002B070BD3046FFF7EBFC6B680093AB680E
:10232400B068D4E90121FFF78AFCEBE7F7B55368FD
:102334000C46496899420646154606D328D8926841
:10234400A068FFF70DFD002822DA234601272C465A
:102354001D4623782A7861685340DB071AD501317A
:102364003046FFF7C5FC6B680093AB68B068D4E9EE
:102374000121FFF73AFC7060237803F001030FB1E9
:1023840083F00103327863F30002327003B0F0BDCE
:102394000027DEE73046FFF7ABFC6B680093AB68C1
:1023A400B068D4E90121FFF74AFCE4E72DE9F04FD6
:1023B40015464A686B689A420E463EBF2E460B4647
:1023C4001D4633787168DB0785B0044621D42B7829
:1023D40013F001071DD1FFF78BFCD5E9011CA068A0
:1023E400B6683B4699420BD100EB4101FFF7D5FBA0
:1023F400237860606FF30003237005B0BDE8F08FAD
:1024040036F813203CF813502A4020F813200133E7
:10241400E8E701312046FFF76BFC32782F78AB6890
:10242400009382EA0703DB4303F00103C3F1000CCA
:1024340002F001021FFA8CF1C2F1000C02911FFAA2
:102444008CF10191B168D6F804E0A068A1F1020A08
:10245400696807F00107C7F10008A1EB0E011FFA34
:1024640088F8F44681460391BCF1000F15D100EBC6
:102474004E011BB1012320F81E300231FFF78DFB02
:10248400606033782A78C3F30003C2F30002134078
:10249400227863F300022270AFE73AF802BF019991
:1024A40081EA0B0B03990CF1FF3C5A4401EB0C0B32
:1024B400E3459FBF009931F802BB009188EA0B0BFA
:1024C40088BFC3465F44029902EA070B8BEA010BFB
:1024D40013FA8BF329F8023B3F0C120C1B0CC3E7D5
:1024E4002DE9F84F16464A6873689A420D463EBF76
:1024F40035460B461E462B786968DB0704462ED406
:10250400327812F001082AD1FFF7F2FBD6E9013C38
:10251400A9686D68A768ED1A4246934210D15B0022
:10252400194400223B44954213D103EB4503DB1BC2
:102534005B10636023786FF300032370BDE8F88FAA
:1025440031F812003CF81260304327F812000132CF
:10255400E3E731F8120023F812000132E3E7013116
:102564002046FFF7C5FBD6E901232F783678696842
:10257400A068AD6807F0010706F00106C7F100087E
:10258400C6F1000CA5F1020E1FFA88F81FFA8CFCA4
:102594000D4682464FF00109A2EB010B45B900EB51
:1025A4004101FFF7FAFA2378606043F00103C4E7BE
:1025B4003EF8022F013D88EA020217440BEB0502A4
:1025C400AA4296BF33F8022B62468CEA02021644F2
:1025D40047EA0602D24319FA82F22AF8022B360C91
:1025E4003F0C4FEA1249D9E7F0B516464A687368BA
:1025F4009A4238BF0B460C463CBF34461E462778E9
:10260400337861685F4017F0010785B005463AD119
:10261400FFF76EFB237813F0010328D1D6E90117E5
:10262400A2686468A868641A994210D149000A44EF
:1026340000230144A34214D101EB4301FFF7ADFA97
:102644002B7868606FF300032B7005B0F0BD32F88F
:10265400136037F813C086EA0C0620F813600133C0
:10266400E2E732F8136021F813600133E2E7CDE9C1
:102674000277019773680093B368A868D4E90121CD
:10268400FFF702FBDCE70131FFF732FB3378A86880
:10269400DB4303F0010303932378DB4303F00103DB
:1026A40002930123019373680093B368D4E9012171
:1026B400FFF7EAFA2B78686043F00103C4E72DE9D9
:1026C400F04F4B6885B004460E4615460BB153686F
:1026D40023B90023636005B0BDE8F08F814234D193
:1026E400FFF71BFBA5420646074600D105466B686B
:1026F400716820461944FFF7FBFA2268A068C2F308
:102704009D025200002118F0CFFDB368A168019327
:10271400AB68D6F804A002936B68039300228B1E67
:10272400009301EB4A0C13460398904239D163603D
:102734002A78337853402278384663F300022270B3
:1027440005B0BDE8F04FFFF721BB824204D1FFF78B
:10275400E4FA05460746CAE70027C8E738F8029FA7
:102764000298994430F812003BF8023B00FB0393B3
:10277400A8F800300EF1FF3E1B0CBEF1000FEDD1A6
:10278400E6460CF1020813B1ACF80030C6460098D6
:10279400AEEB010E02304FEA6E030132C4460090E4
:1027A400C2E7DDE9008BD6460023E6E74B6870B547
:1027B4000646144613B11378DA0702D50023736072
:1027C40070BD636823B90121BDE87040FFF7EABA20
:1027D4000846FFF7A2FA05462046FFF79EFA0121B4
:1027E40004463046FFF7DEFA636883B1A3681B88AA
:1027F400DB0704D52A4631463046FFF760FFD4E9AB
:10280400012101230846FFF7D4F9606038B928464E
:10281400FFF7BCFA2046BDE87040FFF7B7BA2A4676
:1028240029462846FFF74BFFDEE72DE9F04F0C461B
:1028340051688FB09146013105460293FFF758FA6B
:10284400D9F80420A86801325200002118F02CFDA8
:1028540000236B60D9F8041020460131FFF748FAD1
:1028640049462046FFF7C8FA029B67685B680193F4
:10287400BB4232D8029BD4F808B09E68AB6803937D
:102884002DD3324639465846FFF76AFA002823D139
:10289400039A6060012313806B60029A99F80030F8
:1028A40012785340DB0714D52B7843F001032B70C7
:1028B400636873B14FF0FF310BA8FFF7B8FA0BAAA6
:1028C40029462846FFF7FAFC029A21462046FFF7DC
:1028D400F5FC0FB0BDE8F08F01DA0023DCE7019BC3
:1028E40003F1004001384FEA400A36F81020002373
:1028F40012F4004F03F1010152D07A009BB24FF061
:10290400000E791C02F102080592C3F110022BF8A3
:1029140017E0D8446160DC4677460492C44543D34B
:1029240036F8100000FA03F20492019A012A09D938
:1029340006EB0A00C3F1100730F8020CF840049FBC
:10294400074304970198059A091A6960039801F1ED
:102954000041013900EB410105910AF1020109919D
:10296400B11E5A440891D4F804A00199514527D3C3
:102974000AF1004A0AF1FF3A0BEB4A0A0020C3F1BC
:102984001006D3457BD96FF000416B682BB15A1800
:10299400039830F81220002A7BD06FF000417DE0CC
:1029A400520092B20B46A3E7BCF800E00EFA03F221
:1029B4001743049A2CF8027B2EFA02F7BFB2ADE754
:1029C400118832F8027C47EA01470499B7FBF1F712
:1029D4000999511A069108990791DDF818C0002148
:1029E4008E4662450CD81088091A002941D10599F0
:1029F40021F8027905910AF1FF31023A6160B2E7E8
:102A0400079EBCF8008036F8020F0796984040EA0B
:102A14001E4E1FFA8EF07843404503D2A8EB000601
:102A24008E420FD80144A1EB08081FFA88F1003147
:102A3400C8F1000618BF0121B6B201EB18412CF809
:102A4400026BCEE7761AB6B20021F8E738F802CF67
:102A54000CFA03FC4CEA1E4EB6F800C010FA8EF0D5
:102A6400604426F8020B000CB242EFD8091A013F69
:102A7400BBE70020DDF82080069E8646F4E7BAF81E
:102A8400002042FA03F10143B2402AF8021990B23D
:102A940077E7013B6B6078E7013B63606368002B79
:102AA4003FF4FBAE5A183BF81220002AF4D0F4E6A7
:102AB400F0B51F464B6885B006460C4615464BB12B
:102AC4001378DA0706D47B68012B07D1BB681B880F
:102AD400012B03D10023736005B0F0BD0121304602
:102AE400FFF760F96B68002BF6D02046FFF715F965
:102AF40004462846FFF711F9054601A8FFF76FF9C8
:102B04006B68B3B1AB681B88DB070AD52246314634
:102B14003046FFF7D4FD3B463246314601A8FFF765
:102B240084FED5E9012101230846FFF742F86860D5
:102B340048B901A8FFF758F92046FFF727F92846B6
:102B4400FFF724F9C8E7224621462046FFF7B7FDE0
:102B54003B462246214601A8FFF767FED0E710B5A1
:102B6400D0E90121002301EB4202914205D302780E
:102B7400D20748BF5B42184610BD32F8024D44EA02
:102B84000343F2E730B5D0E90124002304EB420209
:102B9400944206D30278D20748BF5B420B600120FF
:102BA40030BDB3F5004F04D232F8025D45EA034369
:102BB400EEE70020F4E72DE9F043884661B19F1861
:102BC400D0E901140025A4F1020E4FF00109AC462E
:102BD4001A4419B9BDE8F0831F46F1E73EF8024FE5
:102BE4000CF1100C44EA0545BCF1070F01DC013976
:102BF400EFE70678ACB2F60741BFE44359FA84F430
:102C0400A4B24FEA1429E4B2B8F1000F09D07E1E31
:102C140007F8014CB342DDD0ACF1080C2D0A37465D
:102C2400E2E73E4606F8014B9642F4E7D0E901326A
:102C34009FED0C0A9FED0C7A02EB43039A4205D3F5
:102C44000378DB0748BFB1EE400A704733F8021D32
:102C540007EE901AF8EEE77AE0EE077AB0EE670A2C
:102C6400ECE700BF00000000000080472DE9F84FAA
:102C740044689DF828A00B9D8046894616469B46CD
:102C84009CB982B1561E2B4616F8012F18463AB944
:102C940030230370002300F8013F401BBDE8F88F88
:102CA40003F8012BF0E72846F2E764002046FDF71D
:102CB400C1FA22460746D8F8081018F0B1FAABF169
:102CC4003A0B28462A4607EB040CACF10203002118
:102CD4009F421C4633D930313929144688BF5944A0
:102CE40004F8011B3B469C45194632D8BAF1000F43
:102CF40008D00123211A032902BF941C82F801A0E1
:102D04002046D3B13846FDF7BDFA3EB1304618F03F
:102D140013FB23463044B0421C4623D898F80030B5
:102D2400DB0744BF2D2304F8013B2B46621E9A4265
:102D34001DD800232370601BB0E72246C5E7248812
:102D440044EA0141B1FBF9F423F8024909FB1411E7
:102D5400BEE7098802330029C5D0BAF1000FECD0D0
:102D64000023C7E710F8012D03F8012BD3E71978E6
:102D7400107803F8010B02F80119D8E7D0E9023200
:102D840093423DBF5A1C826018784FF0FF30704761
:102D9400036810B5044613B14068FDF773FA204682
:102DA400BDE81040FDF76EBAF8B5054610200C4694
:102DB4001F461646FDF73EFA054B8460C0E90074D1
:102DC4003444C4606B60034B2860AB60F8BD00BF43
:102DD400812D0008952D00080369272B1DD0222B77
:102DE4001BD0752B03D023F01002622A10D1426944
:102DF400272A12D0222A10D0722B09D1622A0ED18E
:102E04008069272809D0A0F122035842584170470D
:102E1400622B04D14369722BF1E701207047002033
:102E2400704702690A2A10B5044622D1C3690133E6
:102E3400C3610123236263692361A3696361D4E9E4
:102E4400010398476369A0610D2B07D10A239842B7
:102E5400636103D1D4E901039847A061A3690133F5
:102E640006D163695A1C03D00A2B1CBF0A23A36131
:102E740010BD036A092A04BF073323F00703013393
:102E8400D8E770B504460E4600252069431C01D1DD
:102E9400284670BD0A2808D116B1A36A002BF7D0C2
:102EA4002046FFF7BEFF0125EFE7FEF7EBFD18B163
:102EB4002046FFF7B6FFE8E72369232B08D1204615
:102EC400FFF7AFFF23695A1CDFD00A2BF7D1DCE7E9
:102ED4005C2BDDD163690A2BDAD12046FFF7A1FF11
:102EE400E6E700002DE9F74F044600218164FFF76F
:102EF400C8FFE369A363636A256AE563002B04DA08
:102F0400062284F84020013304E007D0052284F827
:102F14004020013B636203B0BDE8F08F90B3A36A25
:102F240083BBD4E90C20042384F840306FF00043C1
:102F3400D118013D30F811108D42ECD017D9E16A57
:102F44008A4207D308314900FDF78FF9E36A6063C9
:102F54000833E362D4E90C32591C216322F813507C
:102F6400636AD0E7013A2263626A013A6262226BC1
:102F7400D11830F811108D42F4D3CCD0022384F848
:102F84004030C8E72169481C01D10023F7E72046F7
:102F9400FFF722FF8146002800F03C81002384F8DB
:102FA40040302369752B5BD0622B4ED16369722B41
:102FB4000DBF4F460027012502250B2394F840201E
:102FC400002A55D184F840303DB12046FFF729FF4F
:102FD400022D02D12046FFF724FF23692046222B2D
:102FE40014BF4FF027084FF02208FFF71AFF236998
:102FF400434540D1636998453DD12046FFF711FF11
:103004002046FFF70EFF03264FF0000A04F14405A3
:10301400D4F810B0BBF1FF3F00F0F680012E03D1CD
:10302400BBF10A0F00F0F080B24526D3514604F1FB
:103034004400FEF779F901212046FFF722FF2046DC
:10304400FFF7CAFE0028ACD165E7722B0CD1636987
:10305400622B4F4615BF012502250A230B23ADE73A
:1030640001250A230027A9E700250A232F46A5E7FF
:103074009A42A9D04FE70126C6E7D84509D141466F
:1030840028460AF1010AFEF7FAF82046FFF7C9FEBE
:10309400BEE7BBF15C0F40F0AC802046FFF7C1FEF9
:1030A400D4F810A02FB15C212846FEF7E8F8D346E7
:1030B40065E0BAF1620F00F0858027D8BAF14E0FAF
:1030C4006ED010D8BAF1220F1ED0BAF1270F1BD040
:1030D400BAF10A0F61D0AAF1300BBBF1070FE2D8A5
:1030E4004FF0030A66E0BAF15C0F0DD0BAF1610F3C
:1030F4006BD0BAF1550FEED194F840200B2A1FD1B2
:103104005C212846FEF7BBF8D3463EE0BAF1740FC3
:103114005ED00BD8BAF16E0F5DD0BAF1720F5DD0EC
:10312400BAF1660FD7D14FF00C0B2EE0BAF1760F3F
:1031340057D0E1D3BAF1780FCDD14FF0020A06E0AF
:10314400BAF1750F0CBF4FF0040A4FF0080A4FF0A4
:10315400000B11E02046FFF764FE2269019210463D
:10316400FEF7AEFC002800F06281019A1046FEF7DB
:10317400E7FC4FEA0B1B83441AF1FF3AEAD2BBF196
:10318400FF3F0AD0AD4B9B4539D894F840300A2B09
:103194002AD159462846FEF772F84FF0000A74E720
:1031A400A74805F0A7FF2046FFF73BFE2269303A07
:1031B40002EBCB0B6269303A072AE0D8BAF1010A74
:1031C400F1D1DCE74FF0080BDFE74FF0070BDCE74A
:1031D4004FF0090BD9E74FF00A0BD6E74FF00D0B70
:1031E400D3E74FF00B0BD0E7BBF1FF0F07D80B2B46
:1031F40005D15FFA8BF12846FEF73AF8CDE74FF098
:10320400010384F84030C8E7B2453CBF032284F888
:1032140040200BE70846FEF73FFC054620691DB930
:103224005F2801D07F283ED9072384F8403004F179
:103234004405C1B22846FEF71BF82046FFF7F1FD0E
:103244002069421C1BD12846FEF703F87D4E074631
:10325400002556F8041B384618F07CF800281CD1C9
:103264000D35EDB2102D84F840507FF454AE764BFA
:10327400D3F8E031002B0CBF0F230D237FE6FEF7BC
:103284000BFC40B920695F2805D07F2803D8FEF7DE
:103294000DFC0028D7D0217CCCE7FFF63CAE0135ED
:1032A400242DD6D137E6FEF701FC68B321692E2917
:1032B40035D1092384F8403004F144063046FDF743
:1032C400DEFF2046FFF7ADFD09272069431C3FF4CC
:1032D40022AE002D35D120F02003452B31D16521BC
:1032E400304684F84070FDF7CAFF2046FFF799FD89
:1032F40021692B2901D02D29E7D13046FDF7BFFFE5
:103304002046FFF78EFDE0E723692E2B04D1606988
:10331400FEF7CCFB0028C9D100264C4D31E0082330
:10332400302984F84030C7D1656945F02005A5F1FE
:103334006203162B9DBF464DDD4005F001050025B7
:10334400BAE7FEF7A9FB28B121692E290DD184F82B
:103354004070D2E72069FEF7A9FB0028F4D1236965
:103364002E2BF1D05F2BCBD0D5E521F020034A2BB7
:10337400C3D1ECE7652F01D0632F00D101350136AD
:1033840001352F7817B12369BB42F3D12046FFF7EB
:1033940048FD0FB90123F2E5212F07D123693D2B05
:1033A400F8D12046FFF73DFD3723E8E52E2F0FD156
:1033B40023692E2B02D163692E2B01D05A23DEE51B
:1033C4002046FFF72EFD2046FFF72BFD0C23D6E504
:1033D4000335334615F8027C632F0FD0652F0DD0CB
:1033E4001C4AD35C84F8403003F0FB02522A01D01B
:1033F400542B14D1A36A0133A3628CE515F8012C74
:103404002169914206F1010607D12046FFF709FD23
:103414003346652FE4D00235DCE7632FFAE7532AFD
:1034240002D0552B7FF477ADA36A013BE4E74FF05C
:10343400010384F840308346A7E600BFFFFF100075
:1034440088E6020850E702081006002045E6020854
:103454000120400024E702087FB5064601AD542050
:1034640085E80E00FCF7E6FE0446034695E80700EF
:1034740043F8046B83E8070001236FF00102C4E9F9
:10348400073200250A22C4E90B23C4E90955142094
:10349400FCF7D0FE2021606304F14400FDF763FED5
:1034A400636B20461D80C4E905552561FFF7B9FC0F
:1034B4002046FFF7B6FC2046FFF7B3FC2046FFF793
:1034C40011FDE36B012B18BF0523204618BF84F8B8
:1034D400403004B070BD30B585B001AC054620461F
:1034E400FFF762FC94E80E002846FFF7B5FF05B02D
:1034F40030BD30B585B001AC01460546204617F015
:10350400ADF82846FDF766FD94E80E00FFF7A4FF2A
:1035140005B030BD10B5044670B1C3684068984723
:1035240004F14400FDF74CFE606BFCF7ABFE204653
:10353400BDE81040FCF7A6BE10BDD0E90432013B43
:10354400036152F823007047C1F17F5101F57F11E7
:10355400036901F57F513F311944436953F8210050
:103564007047F8B5446A06460D46B4B1D4E9000381
:103574000B44834222D90831002201442046FCF73F
:103584007FFE0246B8B9616820460831FCF778FE30
:1035940063682360336A63603462802D2F4638BFCA
:1035A400802707F10800FCF745FE0023076043600D
:1035B4000446706202E023682B442360606805447B
:1035C400656008342044F8BD38B50D46D0E90313CE
:1035D4008B42044608D3103189004069FCF745FE4C
:1035E400E36860611033E360D4E90432591C21615B
:1035F40042F8235038BDF8B50D461F46D0E90013F4
:103604008B420446164608D31031C9008068FCF783
:103614002CFE2168A06010312160D4E901104B1CFC
:10362400636050F8312065F3170200EBC10340F8E2
:103634003120DE705F60F8BD10B48469CAB2002323
:10364400A16B5DF8044BFFF7D6BF0000F7B58669A0
:103654000F4696F84010072905461FD1D6E91210E7
:10366400FDF72AFC8E2F04460ED18100002241F082
:10367400020105F1280005F017FF28B14468E307AB
:1036840020D544F0010002E0200140F00200014690
:10369400284603B0BDE8F040FFF796BF082907D1DC
:1036A40033460022D6E9121004F058F80446E6E73F
:1036B400092912D1009600230122D6E9121004F040
:1036C400CBF804460C212846B66BFFF74AFF40F2BC
:1036D40039130660C0E90134D9E7A1F10A03012BCB
:1036E4001CD8D6E912100A290BD8FDF7E5FB96F889
:1036F400403048B10A2B0CBF06210A2141EA0010D0
:10370400C5E7FDF7A9FBF2E7064C0748D6E9122105
:103714000A2B08BF20460AF0AFFFD2E7090141F0A7
:103724000E00B4E7C8180308EC150308DE2807D018
:1037340010F0010306D043080CBF0120002070479D
:103744000120704718467047FE2807D010F0010387
:1037540006D0430814BF01200020704701207047A1
:103764001846704710F0010204D040F001000860D0
:1037740001207047A8B110F003030FD10279392A50
:103784000ED183680B6013F001000AD19A0708D1A7
:103794001868044BC31A5842584170471046704782
:1037A40018467047C40803082DE9F04F2C2A85B049
:1037B4000446884616461D460BD10021FFF7C4FE79
:1037C40080B3810702D10379902B2BD005B0BDE8DB
:1037D400F08FA2F11D03012B53D82F462A460AE08D
:1037E4001D2E41D1FFF7B0FFB0B90846FFF79EFF89
:1037F400002808BF4A4602F1FF396FB1013F39463C
:103804002046FFF7A1FE2369A3EB020C636901467E
:1038140043F82C00002FE3D1002149452CD16D1A27
:10382400012DD3D0A6F12203022B55D8691E2046C0
:10383400FFF78AFE01A9FFF795FF00287BD0222E0F
:1038440037D0232E0CBF4FF017094FF01809AF1EC5
:10385400002F31DA002D40F05981019EF30740F129
:103864005A8146F001011EE0FFF760FF0028D3D122
:103874000846FFF769FFBBE72046FFF75EFE01310C
:10388400CBE71F2ACED10021FFF75EFE0246FFF7E9
:103894004DFF60B91046FFF757FF0028C2D0DE2164
:1038A4002046FFF74AFE2046FFF78EFE8EE7FE21F4
:1038B400F6E74FF01609CAE739462046FFF744FEFB
:1038C40002A9FFF74FFFB0B3DDE90112484605F046
:1038D40047FA013F0190BBE7A6F12503022B4DD81F
:1038E400691E2046FFF730FE01A9FFF73BFF10B326
:1038F400A5F10209B9F1000FACDD09F1FF31204651
:10390400FFF722FE02A9FFF72DFFA0B1494620468A
:10391400FFF71AFEC0F3071000F0FD03402B0AD096
:10392400442808D02238C7B2029808F0B4FD1A2FF0
:1039340017D8002819DAA91C89002046FFF711FEC0
:1039440046EA052646600146C0F8008000F10806F4
:10395400002DA8D02046FFF7F0FD013D46F82500D4
:10396400F6E71E2F01D90028E5D0DDE9011238461B
:1039740005F0F6F9A9F102090190BBE7282E18D148
:1039840000212046FFF7E0FD01A9FFF7EBFE002828
:10399400D1D001212046FFF7D7FDC0F3071031280D
:1039A4001ABF3D38C0B20220019904F0ABFB01906C
:1039B40050E7052E68D100212046FFF7C5FD0746D4
:1039C4000028B8D010F0030A04D1436803F0FE03C2
:1039D400562BB0D001212046FFF7B6FD00F00F03AF
:1039E400022BA8D1BAF1000FA5D13B792B2BA2D180
:1039F400BB6803F00F02022A9DD11B09482B9AD100
:103A0400FB68002B97D09A0795D11A792F2A92D167
:103A1400D3F808B04FEA101902A95846FFF7A2FEDE
:103A240068B94249424807F0BFFCA1693A6809688D
:103A34000546534607F080FD2846FCF7D5FB4FEAC0
:103A44008901012241F0020104F1280005F02CFD56
:103A5400029B43604846FDF7D1FA03785F2B20466A
:103A64000BD1FFF76AFD2046FFF767FD002308220C
:103A740019462046FFF798FEA8E6FFF75EFD594673
:103A84002046FFF7A1FD56E72B2E7FF454AF01210A
:103A94002046FFF759FD00F00F03022B07467FF481
:103AA4004AAF00212046FFF74FFD00283FF443AF03
:103AB40010F003027FF43FAF0379312B7FF43BAF67
:103AC40039098900D0F808901A4841F0020105F03C
:103AD400EBFC00283FF42FAF02AA4FEA191140680B
:103AE40004F042FC029B002B3FF425AFD90707D416
:103AF4009A077FF420AF19680F4A91427FF41BAFF5
:103B0400039A002A7FF417AF0193A3E62046FFF738
:103B140014FD013D9EE60C212046FFF722FD40F2F4
:103B2400391301460560C0E90136BCE663E80208C2
:103B340024030308E0E70208C4080308036830B557
:103B440013B91360184630BD9C0702D010600120E1
:103B5400F9E75C68E5B28D42F8D108331360200AB6
:103B6400F1E700002DE9F04F93B0002440230290C8
:103B74004FF400700F460192CDE90534FCF75AFB6F
:103B8400202307908020CDE90834FCF753FB21461D
:103B9400CDE90A070FA8CDE90D4405F04BFC019BC4
:103BA400002B4CD0022B0CBF3C2222460023B96BC5
:103BB400DFF8CCB205A8FFF71EFD4FF00008069C05
:103BC400002C00F05F81013C079BA84D069403EB99
:103BD400C40253F83430D6785268C3F3170AA44B9E
:103BE4009B5D0093A34B9B5D642E88BF43F480735D
:103BF40005EB4305009B03F00F0903F03003102B82
:103C04001FD0202B51D0B8F1000F00F00481B9F17E
:103C1400020F40F0F380012A18D000210098C00759
:103C240002F1FF3306D568880BEA0000B0F5805F27
:103C340008BF5308012B40F0DF8069B1DCE03A2271
:103C4400B4E732B905EB4205914508D84FF00108B5
:103C5400B5E7B8F1000FF5D14FF00008AFE7A8467B
:103C640035F8023B03EA0B01B1F5805F0DD197F8FB
:103C74004010C3F30B03994215D105A83146FFF751
:103C8400E5FC3846FFF72EF9E6E7531C4B4504D212
:103C94003246514605A8FFF7AEFCB8F8001005A857
:103CA400FFF7CAFCD8E70132CEE7B8F1000F0FD016
:103CB40002F10043013B35F813300BEA0303B3F57B
:103CC400405F1BD1002105A80392FFF77DFC039AF6
:103CD40005EB4204914525D8019B0BB1052E43D039
:103CE400002405EB490922464D455BD1012A7AD1CE
:103CF400009B5B0677D5002529466EE0012AA5D9ED
:103D040097F84030052B40F0EC805B495B4807F0A6
:103D14004BFB00230446BA6B396807F00DFC2046C0
:103D2400FCF762FAA04634F8023B03EA0B01B1F552
:103D3400805F17D197F84010DBB299420ED1072962
:103D440005D1314605A80392FFF780FC039A03923C
:103D54003846FFF7C7F8039A0132BBE7002A3FF45D
:103D640075AFCDE7531C93E7002105A8FFF7ECFBE3
:103D74000028B5D1012105A8FFF7E6FB820700F072
:103D8400B78000F00F000228AAD005A8FFF7D5FBE2
:103D940005A8FFF7D2FB00230822514605A8FFF728
:103DA40003FD59E739F8023D03EA0B01B1F5805FE1
:103DB40005D1DBB2072B97D10134013294E72146B8
:103DC40005A8FFF7C1FB00B1013201348CE7FFF70E
:103DD400B4FB0135002818BF0146A54205A8F6D159
:103DE400FFF7F2FB38E7009B1D0604D5002105A868
:103DF400FFF7EAFB013423463246CEE7012A3FF4BB
:103E040025AF12F001013FF409AFB9F1030F7FF4BC
:103E140077AF012102E709EA020303F0010335F851
:103E2400134004EA0B01B1F5805F13D197F84010F9
:103E3400C4F30B04A14202F1010409D11BB93146B8
:103E440005A8FFF703FC3846FFF74CF82246E2E7E3
:103E54002246DCE6531C514605A83246FFF7CBFB4D
:103E6400214605A8FFF7E8FBA9E600BF2EE90208F2
:103E74007FE80208ACEC020814E802081800030802
:103E840000F0FFFF0FA805F0EEFA0E9850B141685C
:103E940022460831FCF7F4F90E9B5A681A600D9A11
:103EA4005A600D9397F84030002B7FF429AF099B9B
:103EB400002B3FF425AF0A9B07981B680C93FCF773
:103EC400E1F90A98FCF7DEF93846FFF723FB0CAB5F
:103ED40093E80300029B83E80300184613B0BDE88F
:103EE400F08F022B01D1064910E7064906480EE778
:103EF40000283FF4F5AE0379392B3FF446AFEFE6E3
:103F040026E8020854E802082403030810B54068B0
:103F140000B910BD4468FCF7B5F92046F8E7000085
:103F24002DE9F041054630200E4690461F46FCF729
:103F34009AF9072D04460570C660A0F8148001D0D4
:103F4400012D10D1B368C3F30F13E38203F0CEFD48
:103F540004232061678323852020FCF76BF9E0624A
:103F64002046BDE8F081014B5B5DEEE75BED0208A6
:103F740010B50446C06AFCF785F92046BDE8104038
:103F8400FCF780B930B5448D0022944202D8002356
:103F9400184630BDC36A03EBC2035D688D42F7D097
:103FA4000132F2E770B504460D461646FFF7EAFF04
:103FB400C0B9218D638D8B4208D30631C900E06AF4
:103FC400FCF753F9238DE06206332385638DE26A9F
:103FD400591C02EBC300618502F83360002343706F
:103FE4004380456070BD43680BB9FFF7CBBF1846EB
:103FF400F9E7F8B544680F462CB9F8BD032BFCD19A
:1040040004230370F9E723465D68002DF5D07E682C
:1040140018463146FFF7B6FF2B460028F4D0037844
:10402400033B022BE9D805233B701D460022314691
:104034002046FFF7B7FF0378002BDFD105706468D3
:10404400F4E72DE9F04180461F4659B111F003050C
:1040540010D14E68F3B293420CD1360A01F1080430
:10406400B54201DBBDE8F08154F8041B4046B84773
:104074000135F5E740463B46BDE8F04118470000EE
:10408400024B89689B22FFF7DCBF00BF0D4C000880
:10409400024B89686A22FFF7D4BF00BF216600087B
:1040A40010B50446084611462268FFF739FF636AD3
:1040B400436000238360236A13B9206210BD134652
:1040C4009A68002AFBD19860F8E78968806A002220
:1040D400090902F06DBF8968806A02F03FBF2DE9CB
:1040E400F74F06460C4691469A461BB10B8B43F09C
:1040F40008030B83736AA4F820901B78002B3DD12E
:10410400B06A53464A46214603B0BDE8F04F03F077
:104114005AB8DB6A03EBC50B13F83530043B012BAB
:1041240019D8002714E0E36A03EBC70213F8373009
:10413400052B0CD1DBF804105368994207D10023F6
:10414400BBF80220B06A02F0B0FD08F101080137A3
:10415400638DBB42E7DC0135736A5A8DAA42D8DC11
:10416400B8F1000FCCD0CDF800A04B464246214612
:10417400B06A03F034F803B0BDE8F08F0025A84618
:10418400EAE70000F8B504460F4611461A46002334
:1041940085794669837143610D4BFFF752FFA3682C
:1041A400A3B9E18A39B1A28A2AB9A06A02F0D7FF79
:1041B400A06A02F0D5FEA38AE28A39462046FFF7B8
:1041C4008EFF003518BF0125A5716661F8BD00BFDB
:1041D400E952000870B54379012B05460C4606D117
:1041E400436A0A465B8B0221FFF75AFF2061A268EB
:1041F400216928464B23BDE87040FFF7C3BF70B563
:1042040013464279012A06460C4604D10A46072180
:10421400FFF746FFA061A569E268304643232946BB
:10422400FFF7B0FFE88A70BD10B50446806A02F05B
:1042340038FFA38B626A0133D18C9BB29942A3836A
:1042440038BFD38410BD838B013B8383806A02F023
:1042540047BF31B1026801F00303134304BF0B6885
:104264000360704738B5836804460D465BB9114650
:10427400054807F099F82946A06004F10C00BDE850
:104284003840FFF7E6BF38BD24030308014AFFF7AF
:10429400E9BF00BF3FF0020838B50B79092B0CBF0A
:1042A400058B458B4FF6FF739D42044602D1064AA7
:1042B400FFF7D8FFA28BE38BA06AD21A2946BDE888
:1042C400384002F0BEBE00BF1CEE020870B50646C0
:1042D400406A048B0D46A10706D5214A294630467B
:1042E400BDE87040FFF7BEBF05F00F01022912D1EF
:1042F4002909B3791BB1C38B0133C38302E0838BD8
:1043040001338383012451B30022FFF74BFE03786A
:1043140013B3144AE2E72979914202D1A968090941
:10432400E7E7994211D1B379002BD6D10123B371B8
:10433400A968A1B101F00F03022B18BF896844F0EA
:104344000404048309090324DDE7A96844F0020492
:10435400048309090524D6E703230370447070BD60
:1043640054E802082AF002084E234D22FFF7AEBF9C
:1043740046234522FFF7AABF10B504460021006872
:1043840002F0B3FE20680E2102F090FD20680121A6
:10439400BDE8104002F061BF10B504460022806AF7
:1043A40002F0E2FD002354F8280F1A46194602F0E1
:1043B40038FF2046BDE81040FFF7DEBF10B4427955
:1043C400446A012A0B4604D120465DF8044BFFF7EA
:1043D400E9BD22460249806A5DF8044B02F080BAC6
:1043E40028F1020810B44479426A012C0B4604D126
:1043F40010465DF8044B02F065BA0349806A5DF823
:10440400044B02F06DBA00BF30F10208436A10B5E4
:104414005A8B0446FFF7F3FE01462046BDE81040E0
:10442400FFF7E0BF10B44479426A012C0B4604D173
:1044340010465DF8044B02F045BA0349806A5DF802
:10444400044B02F04DBA00BF20F1020837B505460F
:104454000C4629B1CA0705D54910806A02F034FD1B
:1044640003B030BD8B072CD001F00F04062C4FEAAB
:10447400111307D00A2C0AD0022C1BD11946FFF7BE
:104484009DFFEDE71946806A02F063FDE8E7427993
:10449400042A04D01149806A02F060FDE0E701A912
:1044A4001846FCF7B0FD0199AC6A0AF06FFB0146AF
:1044B4002046F1E7042BD3D0D9B2806A02F0F6FC8F
:1044C400CEE70968806A02F079FC2279044B214620
:1044D40053F8223028469847C2E700BFBC0D0308B2
:1044E40088EE02082DE9F14F0D46A9070446164649
:1044F40012D005F00F03022B17D129090AB1022AA1
:1045040005D1204601B0BDE8F04FFFF76BBF01B005
:10451400BDE8F04FFFF752BF6968CBB22C2B72D0C5
:104524000BD8062B0DD02B2B12D0504A29462046EF
:1045340001B0BDE8F04FFFF795BE2D2B74D09B2B37
:10454400F3D1002EF1D105F108030A0A00217EE01F
:10455400022A02D0A968FFF779FFEF68002FE4D0A0
:1045640017F00309E1D17B68DAB28C2AB8460DD181
:10457400022E4FEA132805D007F1080A08F1FF3B81
:10458400D9450EDB08F1010857F8288098F8043063
:10459400302B1FD1022E0CD1A06A02F021FD012183
:1045A40012E05AF8041B2046FFF750FF09F10109F5
:1045B400E6E7D8F808102046FFF748FF012EEED1B1
:1045C400A06A02F0E8FC0021A06A01B0BDE8F04F47
:1045D40002F00ABD312BA8D1012EA06A0BD102F042
:1045E400D6FCD8F808100022A06A090901B0BDE879
:1045F400F04F02F0DDBC022E01D102F0D5FCD8F858
:1046040008100122F0E7A86800288ED0002A8CD177
:10461400C16839B311F0030324D14A68D6B2932E8A
:1046240017D11A46816812E0002A7FF47EAFA96888
:1046340029B90B4601B0BDE8F04F00F019B88B075B
:1046440003D10B79902B0846E2D000231A4620466A
:10465400F0E7942E03D101F10803120AE2E7AB2E2E
:104664003FF463AF00F1080302226FE762ED020832
:104674002DE9F84F0F1E054690461E4614BF4FF015
:1046840001094FF000091DD017F003041AD13B793A
:10469400212B17D12146806A02F08BFD4FF0000ACE
:1046A40008F1FF3BC24510D1631C29D109EB080175
:1046B400A86A02F079FD67BB06EB880846452BD152
:1046C400BDE8F88F4FF0FF34E8E756F82A1071B1CF
:1046D4008A070CD10B79212B09D101340AD10AEBB9
:1046E4000904ABEB0A022146A86A02F062FD0AF152
:1046F400010AD7E728460F4ABDE8F84FFFF7B2BDD5
:10470400002FD9D02CB9B96822462846FFF7EAFE13
:10471400D2E700223946F8E756F8041BA1454FF0CA
:10472400000208BF89682846FFF7DCFE09F1010989
:10473400C4E700BF7DED02082DE9F74F06460C469D
:1047440015461F462046FEF7F1FF08B1E5B904E01F
:104754002046FEF7F9FF38B1B5B1B06A394603B067
:10476400BDE8F04F02F056BC002C54D0A30752D140
:1047740063684FEA132ADBB21D2B1AD1EDB108345A
:1047840004EB8A0A54450CD103B0BDE8F08F5B46B4
:10479400019A59F8041B3046FFF7CEFF08F10108CF
:1047A4001AE03B462A4654F8041B3046FFF7C4FF80
:1047B400E8E71E2B23D1002DE1D0D6F810B00BF181
:1047C400010333610AF1FF33009385F0010304F11F
:1047D40008094FF000080193009B4345D7DC0AF118
:1047E4000101304654F821103B462A46FFF7A4FF46
:1047F400B06A594603B0BDE8F04F02F02FBB1F2B3F
:1048040003D185F00105A4689CE72C2B03D1A36890
:10481400002BA1D19AE721463046FFF717FEB06A74
:104824003A46294603B0BDE8F04F02F0F8BB2DE943
:10483400F843066904461F46B31C03610D46806AAB
:10484400314606F10108914602F008FB4146A06A90
:1048540002F053FCA96800222046FFF743FE2D69AD
:104864000DBB49462046FFF7F1FD636A1978062916
:1048740013D1A06A294602F0F0FCA06A02F08FFB73
:104884003146A06A02F0C6FBA06A414602F0E6FA8D
:10489400A06ABDE8F84302F035BCBA000532A06A4C
:1048A40002F06DFCECE72B79AC2B07D1A9683346F9
:1048B40000222046FFF740FFED68D1E7E968204673
:1048C400FFF7C4FDA06A012102F00FFC7B1C4A46DD
:1048D40029462046FFF7ABFFD2E700002DE9F0415F
:1048E40004460E4662710025056111464662324651
:1048F400806A02F056F86779012F08BF7562F5687F
:1049040065B1AA070AD12B793C2B07D1A9682046A7
:10491400FFF79CFDA06A02F090FC1FE0337843B9D6
:1049240029462046FFF792FD0E21A06A02F0BEFA46
:10493400F0E7072B17D1012F07D10023A3714322DE
:104944004E4BE9682046FFF77CFB20466969FFF778
:104954007DFDA06A02F025F90028E5D0A06ABDE833
:10496400F04102F0D7B8022B19D12968A06A02F0ED
:1049740025FA6379012B07D10023A3714B22404B05
:10498400A9682046FFF75DFBE9682046FFF75EFD56
:10499400338BDB07BED5A06A02F001FBC4E7033BFF
:1049A400032B40D8012FD5F80C8005D103223946BA
:1049B400606AFFF7F7FAB7832968A06A02F0FEF984
:1049C4003378032B1ED101220021A06A02F0C7FB19
:1049D4003378062B1ED1A06A02F0C2FA01212046C8
:1049E400FFF7ECFCA06A02F0BBFAA06A02F0B8FA86
:1049F4000023AA6841462046FFF719FF3378062BA7
:104A040088D191E7042B01D10222DDE7052BDFD108
:104A14000322D9E720460121FFF7D0FC0121A06A37
:104A240002F063FBE4E7012F04D103220A2130469C
:104A3400FFF7B8FA17212046FFF7C0FC16212046DD
:104A4400FFF7D0FCA968A06A090902F082FA1A21CA
:104A54002046FFF7C7FC29692046FFF7F7FC0A2127
:104A64003046FFF78FFA0378032B3FF45DAF42889B
:104A7400A06A00230A2102F018F94BE775430008E5
:104A84006D43000838B50C460546C968FFF7DEFCDF
:104A9400A1682846BDE83840FFF7D8BC38B50B7983
:104AA400332B04460D460CD18968FFF7CFFCED6823
:104AB400AD685DB90E21A06A02F0F8F90422022162
:104AC40015E00E21806A02F0F1F9F1E7AB071CD181
:104AD4002B79982B10D10E21A06A02F0E7F9A9686E
:104AE4000029EBD02046FFF7B1FC04220321A06A81
:104AF400BDE8384002F033BB992B06D1A9682046A3
:104B0400FFF7A4FCEB689968EAE729462046FFF71B
:104B14009DFCD3E710B504468968FFF797FCA06AAB
:104B24000021BDE8104002F05FBA2DE9F041804653
:104B340015460C4611B1FFF789FC012435B16E68A6
:104B44000027360A0835B74208DB34442146D8F832
:104B540028000022BDE8F04102F001BB55F8041B17
:104B64004046FFF773FC0137EDE70A460021FFF7E3
:104B7400DCBF2DE9F0470669D0F818A0B0F81E9004
:104B84000683B31C036106F10108838BA0F81A8025
:104B94000446C38388680D46FEF7C8FDE0B927695B
:104BA4007B1C2361A868FEF7CFFD18B94146A06AB3
:104BB40002F030FA3946A06A02F050F9E96820465A
:104BC400FFF744FC4146A06A02F048F93B46012243
:104BD400A9682046FFF7B0FD2969C4F818A020464B
:104BE400A4F81E90FFF732FC3146A06ABDE8F047F6
:104BF40002F034B910B504468968FFF727FCA06AAF
:104C0400BDE8104002F0CBB92DE9F04705460C464B
:104C140004F00F03022B05D121092846BDE8F04713
:104C2400FFF700BC002C66D0A20764D123792B2B9C
:104C340037D1A1682846FFF709FCE668002E5AD050
:104C440016F0030857D17768FAB28C2A334609D193
:104C54003F0A06F1080907F1FF3AC2450FDC0137A4
:104C640056F827301A79302A11D128469968FFF767
:104C7400EDFBA86A0221BDE8F04702F0B5B959F886
:104C8400041B2846FFF7E2FB08F10108E5E7312A97
:104C940031D19968A86A02220909BDE8F04702F0F7
:104CA40087B92C2B27D1A4682CB3E668EEB1B307DF
:104CB4001BD17768FAB2932A01D1A468A8E7942A91
:104CC40011D1A1682846FFF79FFF3F0A0836002448
:104CD400BC4201DBBDE8F08756F8041B2846FFF709
:104CE40093FF0134F4E7AB2A05D0A1682846FFF707
:104CF4008BFFE4688CE721462846024ABDE8F0476A
:104D0400FFF7B0BA97ED02084B682DE9F04106466B
:104D14000F461D0A01F108080024AC4201DBBDE87E
:104D2400F08158F8041B3046FFF790FBB36843B199
:104D3400023406F10C0057F82410BDE8F041FFF7E7
:104D440088BA0134E9E710B50446FFF7DDFFA06A2D
:104D54002221BDE8104002F0E4B92DE9F3470669C9
:104D6400731C0361044688680D46FEF7DFFC0246A7
:104D7400F8B927697B1C2361A9683B462046FFF7E5
:104D8400DBFC2046E968FFF761FBA868FEF7DCFC62
:104D9400E8B92B690BB96B693BB1A06A01F001FF5B
:104DA40018B93146A06A02F035F93946A06A02F012
:104DB40055F801AA702105F11000FEF7BFFE002787
:104DC400824657450ADB69692046FFF73FFB3146B7
:104DD400A06A02F043F802B0BDE8F087019B53F8E3
:104DE4002780D8F80800FEF7A1FC024608BBD4F8D7
:104DF400109009F101032361D8F808104B462046AE
:104E0400FFF79AFC2046D8F80C10FFF71FFBD8F8E0
:104E14000800FEF799FC0028D9D1A06A01F0C1FE70
:104E240018B93146A06A02F0F5F84946A06A02F0C2
:104E340015F80137C5E770B54379CD68012B0446F1
:104E4400164606D1436A0A465B8B3146FFF728F9BA
:104E5400686100231A4669692046FFF740F9E9684A
:104E64002046FFF7F3FA062E03D10021A06A02F0D0
:104E74003CF90023A06A1A460121BDE8704002F003
:104E8400C5B970B58C68054634B901222146A86AB3
:104E9400BDE8704002F063B9A20730D12379902BAA
:104EA4002DD1E66806B3B3071ED13379932B05D110
:104EB400A168FFF7CBFA01221146E8E7942B0BD146
:104EC400A168FFF7C3FA31462846FFF71DFF716852
:104ED4000122090A1144DAE7AB2B05D1214603224A
:104EE400BDE87040FFF7A7BFA1682846FFF7AEFAF8
:104EF400E1682846FFF7AAFA01220221C7E7214602
:104F04002846D6E72DE9F04F87B0CDE902210546C2
:104F140005AAA32103A81F46FEF710FE4FF0000BBD
:104F24000190D946DA465E46D846019B9B4516DB7E
:104F34005EB1BAF1000F67D1A86A02F011F8B9F1B5
:104F4400000F67D1A86A02F00BF8029BA86A002B35
:104F540066D033464246394602F063F910E0059ABA
:104F640052F82B40002C40D0A0073ED12279A52A2C
:104F74000FD1F10707D52D4A21462846FFF772F9CC
:104F840007B0BDE8F08F46F00106A2460BF1010B15
:104F9400CBE7A62A07D1B20701D5254AECE746F0AC
:104FA4000206A146F2E7A72A1FD1E26822B19307BD
:104FB40002D11279AB2A11D0A16801F00F02022AA2
:104FC40001D01C4AD8E70909A86A01F0C2FFE168C8
:104FD4002846FFF73BFA08F10108D7E706222146E5
:104FE4002846FFF728FF0137D0E70EB1124AC3E77E
:104FF400B8F1000F01D0114ABEE721462846FFF759
:1050040025FA01374646C1E7DAF808102846FFF7C3
:105014001DFA94E7D9F808102846FFF717FA94E721
:1050240033464246394602F0F1F8A9E75CF002083B
:1050340073F002088BF00208ACF00208C7F0020813
:1050440070B50D46417901290446134603D12A4619
:10505400FFF726F86861A06A01F095FF6E690023E6
:105064001A4631462046FFF73AF8F18AA06A01F061
:1050740070FFE96829B18B0703D10B79A22B08BF14
:105084000021204602230022FFF73CFFF08A70BD76
:10509400436A10B55A8B0446FFF7D2FF01462046F7
:1050A400BDE81040FFF79EB900231A468968FFF750
:1050B40029BF00002DE9F04F044685B0894602AAB5
:1050C4003F2109F10800FEF739FD636A00255F8B73
:1050D4000646A846B5420ADBD9F80C100B79032B17
:1050E4003DD13A462046FFF78AF8054647E0029B41
:1050F40053F825A003AA6B210AF10800FEF71EFD50
:10510400039B19680A09732A83460CD02046FFF7CB
:105114009DF901235B4516DBDAF80C1059B12046E2
:10512400FFF794F907E0022807D0214A2046FFF749
:1051340099F808F101080135CCE759680B09412BAE
:10514400F3D10127F5E7039AA06A52F823100193DB
:105154000022090901F02CFF019B0133DAE7412BFE
:1051640019D1D1F808903A4649462046FFF747F846
:10517400D9F81820138B43F0010305461383002745
:10518400A6EB0806BE420BDC29462046FFF72AF9A7
:1051940005B0BDE8F08F3A462046FFF751FFA4E77B
:1051A40000231A460121A06A02F030F80137E9E72A
:1051B4003CEE02082DE9F7438D680446164635B9DE
:1051C400BAB102222946A06A01F0C9FF11E0AB0777
:1051D40078D12B79362B0FD122B102220121806A9A
:1051E40001F0BDFF20462946FFF730F9A06A01F01F
:1051F400C1FF03B0BDE8F0839D2B63D1EB681A793E
:10520400A02A4FD1A12101AA03F10800FEF796FCC0
:10521400A9688046E9B18F071BD10B79362B18D1C9
:1052240026B1411C0222A06A01F099FFA968204618
:10523400FFF70CF9A06A01F09DFF4FF00109002768
:1052440047450CDBB9F1000FD3D1032208F101016A
:10525400B9E72046FFF7FAF84FF00009EFE7019BA2
:1052640053F8271099B18E0711D10E79A6F13600A3
:10527400464246412046FFF7E9F8B9F1000F0DD048
:105284003EB9144A29462046FEF7ECFFB1E7002652
:10529400F0E7A06A01F06EFF0137D1E7002EFBD0E2
:1052A4000D4AEFE7AB684BB19A0707D11B79362B50
:1052B40004D104222946FFF7BEFD9AE705222946B8
:1052C4002046F8E729462046FFF7C0F803220121CB
:1052D40079E700BFAFED0208CCED02080122FFF729
:1052E40069BF000001F00F03022B70B504460ED015
:1052F4004B6803F0F702462A02D10123837170BD83
:10530400472AFCD0DBB2452B0DD10D696DB9A379C9
:10531400002BF4D1E38A002BF1D02046194ABDE8D2
:105324007040FEF79FBFCD68F0E7A3790BB3A38A63
:105334008E6801339BB2012BA3820AD1E18AA06A51
:10534400A1B1002201F00BFF02220021A06A01F0AA
:1053540006FF29462046FFF779F8A06A310901F0D3
:10536400F8FDA06ABDE8704001F004BF01F0F8FD4B
:10537400EAE7E38A0133E38229462046BDE8704028
:10538400FFF764B85AEE02082DE9F8430C46896821
:105394000646FFF75BF8E568002D55D06F68716A23
:1053A400FBB209788C2BA36819BF04F10C05012703
:1053B4003F0A0835072903F00F0249D1022A45D1D3
:1053C4001A099A2A46D12A6811792F2942D192685A
:1053D400002A3FD10A213046FEF7F0FF726AD36AF1
:1053E400528D32B929683E4A3046BDE8F843FEF78B
:1053F40039BF5978C9070DD559683046FEF7DEFF25
:10540400022F0AD800231A460221B06A01F0FEFED8
:10541400012417E0013A0833E3E76B681A79312A6B
:10542400F0D1AC6822792F2AECD19968B06A0122B4
:10543400090901F099FDA168002301223046FFF714
:1054440061FD0324A74224D8BDE8F8830024F9E7CA
:10545400022AFBD140F2A912B2EB131FF6D12B683A
:105464001A792F2AF2D19B68002BEFD013F0030492
:10547400ECD11B792E2BE5D1234622462146B06A76
:1054840001F0C4FE2B68224699683046FFF792FE6D
:10549400BEE704F10108B8454FEA840355F8241027
:1054A40019D20A79312A16D12B44D3F8049099F8E9
:1054B40004302F2B0FD18968B06A0022090901F04A
:1054C40053FD00230122D9F808103046FFF71AFDD6
:1054D40008F10104B6E73046FEF7B8FFA046F7E747
:1054E40004EE0208436A1B78072B10B50A460446EB
:1054F40006D0022B04D0074ABDE81040FEF7B2BE26
:1055040020461146FFF740FF04F12800BDE8104093
:10551400FEF732BFEBED0208F8B54B680C4689681C
:1055240006461F0AFEF792FF0C3400250235AF42EF
:1055340004F1080400DCF8BD54F8041C3046FEF7FE
:1055440085FF54F8081CB06A09092239C9B201F070
:10555400E8FDEBE72DE9F0414D680C46896880468B
:10556400FEF774FFA5F10C07FFB22D0A0C340126D7
:10557400AE4201DBBDE8F08154F8041B4046FEF75F
:1055840065FF3946D8F8280001F0CBFD0136EFE776
:105594002DE9F041CD6804460F461DBB0379A3B144
:1055A400436A1D788DB9CB21FEF708FFB968204600
:1055B400FEF74CFF2B462A460121A06A01F026FE85
:1055C400A06ABDE8F04101F0EABCB968880700F0C0
:1055D400A38001F00F03022B40F0A5802046FEF7C4
:1055E40035FFEDE7A90740F091806B68DAB2562ADF
:1055F40011D10122B968FEF775FFE9682046FEF76C
:1056040025FFA968A06A09093C39C9B201F089FDDE
:105614000222B96875E0572A23D11B0A03F1FF3827
:10562400013355F82310FEF711FFB8F1000F02DD26
:10563400A06A01F0ACFC0022B9682046FEF752FFD4
:105644000835002646456EDA0136464502DAA06A78
:1056540001F09DFC002255F8041B2046FEF742FF92
:10566400F0E7062A52D1BE68002E4FD0B2074DD1C2
:105674007268D1B2062949D14FEA1228B8EB132F28
:1056840044D1A8F10203012B40D8B36823B1980791
:1056940002D11B79212B39D0F36823B1990702D1A8
:1056A4001B79212B32D0B8F1020F06D0336923B114
:1056B4009A0702D11B79212B28D0A9682046FEF72E
:1056C400C5FEE9682046FEF7C1FEB8F1030F06D116
:1056D40020462969FEF7BAFEA06A01F081FCA06A9F
:1056E40001F062FC0022B1682046FEF7FBFE0022B6
:1056F400F1682046FEF7F6FEB8F1030F13D13169C5
:1057040000222046BDE8F041FEF7ECBE29462046C3
:10571400FEF79CFE00227CE700293FF45FAF0B7983
:10572400392B7FF45BAFBDE8F08138B50C46C9680E
:105734000546FEF78BFEA168A86AC1F3071131295B
:105744001ABF3D39C9B20221BDE8384001F0E3BCBB
:1057540010B504468968FEF779FEA06A0321BDE806
:10576400104001F0D8BC2DE9F8434D68D0F8108002
:105774005FFA85F9A9F11D03D3F1000949EB030987
:1057840008F10103044603612D0A01F1080600270C
:10579400AF4205DB4146A06ABDE8F84301F05EBBB9
:1057A40056F8041B20460137FEF750FEAF42EFDAED
:1057B40042464946A06A01F03BFCE9E72DE9F04185
:1057C4004E6804460D46360A8968FEF73FFE032EEE
:1057D40083BFD4F8108008F1010323614FF000085F
:1057E40001277B1CB3421CDB032E4ADD2569A06A1A
:1057F4006B1C2361294601F00DFC4146A06A01F0AF
:105804002DFB0121A06A01F0D1F9A06A01F0CCFBC3
:10581400A06A01F0C4FB2946A06ABDE8F04101F08A
:105824001DBB296920460237FEF710FEB74205DA90
:10583400A06A01F0ACFBA06A01F0D2FBEB68A06A9D
:1058440003F00F020E2A11D1C3F30713242B1ABF3E
:10585400323BD9B2062101F064FCB74204DA424675
:105864000021A06A01F0E4FB0835BAE71A79832A1B
:1058740001D13221EFE79B680BB90721EBE7332114
:10588400E9E7BDE8F0812DE9F0410569CF68AB1C7B
:105894000361884604462B460022B968FEF74CFF94
:1058A4006E1CD8F808102046FEF7D0FD3146A06AD9
:1058B40001F0B0FB2946A06A01F0D0FAA06A4FF0CB
:1058C400FF3101F073F9F9682046FEF7BFFD314658
:1058D400A06ABDE8F04101F0C1BA2DE9F04F8B6830
:1058E40003F00F03022B89B004460F4640F0E98011
:1058F400CB68002B00F0E5809D0740F0E2801A7928
:105904002B2A40F0DE809A6802F00F01022940F051
:10591400D88012097C2A40F0D480DB681A792F2AB7
:1059240040F0CF809B68069307AAA32106A8FEF740
:1059340005F9431E022B00F2C480079A012813685C
:1059440000F0B2800228556800F0FF809668F007E6
:1059540040F1B780720800F0B48033B1990704D1E4
:105964001A79A53A022A40F2AC8035B1AA0704D1CB
:105974002A79A53A022A40F2A480BA6801923A69C7
:10598400D7F8148002922769A2690492E28B0392E9
:105994007A1C05926283A28BE28315F0010907F158
:1059A400040207F1020A278307F1030B226105D1E0
:1059B400294620460593FEF749FD059B19462046D6
:1059C400FEF744FD5946A06A01F024FB5146A06A43
:1059D40001F044FAA06A01F0DAFA002201992046A3
:1059E400FEF780FD02992046FEF730FD791CA06A7F
:1059F40001F034FA31462046FEF728FD0E21A06A54
:105A040001F08FFBA06A594601F028FAA06AB9F1A7
:105A1400000F4DD101F0BFFAA06A01F0C5FA002EC3
:105A2400ACBF00210121A06A01F07BFB5246012199
:105A3400A06A01F0F4FA049BA361039BE383B8F129
:105A4400000F3CD0A06A01F0AAFAB9F1000F02D10C
:105A5400A06A01F0A4FA41462046FEF7F7FC266945
:105A6400A06A731C3146236101F0D4FAE94301F0C2
:105A740001010131A06A01F099F8A06A394601F0E8
:105A8400EDF9A06A01F08BFAB9F1000F02D1A06A16
:105A940001F085FAB8F1000F03D03146A06A01F095
:105AA400DDF909B0BDE8F08F1D46032603465CE727
:105AB40001F06DFA29462046FEF7C8FCAFE74646DA
:105AC400DBE72569A38BB4F81E90E3836FEA4543B3
:105AD4006FEA5343D4F818A02383EB1C23616E1C94
:105AE400F96866832046FEF7B1FC0121A06A01F043
:105AF400FCFA05F102083146A06A01F0AFF941460B
:105B0400A06A01F0FAFA0022B9682046FEF7EAFC1E
:105B140020463969FEF79AFCA06A01F042F818B9E8
:105B24003146A06A01F076FA4146A06A01F096F97E
:105B3400A06A01F0E7FA7969C4F818A0A4F81E90E5
:105B44002046FEF783FC2946A8E7032605E72DE94E
:105B5400F0470446904699460F4621B91946BDE8D8
:105B6400F047FEF773BC0669731C0361156815B32F
:105B740015F0030A1FD12B797A2B1CD1A968FEF7E3
:105B840065FC524631462046FEF74EFB5246E96814
:105B94002046FEF7A7FC4B4608F10402791E204676
:105BA400FFF7D5FFA06A314601F085FA2046BDE82B
:105BB400F047FEF748BB29462046FEF747FC20463F
:105BC40000223146FEF730FBA06A01F0E8F9E2E773
:105BD40037B50C46054601AA792104F10800FDF702
:105BE400ADFFE368019A01462846FFF7B0FF03B012
:105BF40030BD00002DE9F04F85B006691D460E9BAF
:105C04000393731C0293B31C044603610F4693462B
:105C140031460122FEF708FB39462046FEF716FC02
:105C24000022711CA06A01F071FA3146A06A01F0E9
:105C340015F9A06A01F01FFBD4F8108008F10103E4
:105C4400236100265E4514DB2046FEF7FCFAA06AB9
:105C540001F014FB0299A06A01F000F903992046AF
:105C6400FEF7F4FBA06A414605B0BDE8F04F01F031
:105C7400F5B82B46D4F810901A68019209F1010284
:105C84002261019A976804350136002F3FD15E45A1
:105C940032D1A06A01F083F94FF0000A5746019B04
:105CA4002046D968FEF7D2FBBAF1000F16D00E21B8
:105CB400A06A01F0FBF83946A06A01F0CFF80E2182
:105CC400A06A01F0F3F851462046FEF78BFB20460C
:105CD4005146FEF7A7FB2046FEF7B5FA01224146DE
:105CE400A06A01F013FA4946A06A01F0B7F801214D
:105CF400A06A00F05BFFA5E720461D4A1968FEF77D
:105D0400B1FA204605B0BDE8F04FFEF79CBA17F093
:105D1400030327D1397975293A4626D1D368BF6858
:105D24004FEA131AA06A01F032F939462046FEF709
:105D34008DFB0821A06A01F0F4F94A460021A06A0B
:105D440001F06DF9BAF1000FA3D051462046FEF7D9
:105D540049FB27697A1C2261394602222046FEF754
:105D640063FA9CE74FF0000ADCE79A46DAE700BFE3
:105D7400E9F002082DE9F347056999466B1C1746BB
:105D84000E460361022229460446DDE90AA8FEF70D
:105D94004BFAF7B90321A06A00F008FF3146204608
:105DA400FEF754FB6FF00201A06A00F0FFFEA06A48
:105DB4000E2101F07BF82946A06A01F04FF8204635
:105DC4004146FEF743FB204602B0BDE8F047FEF72C
:105DD4003ABACDF800A04B463A4631462046FFF782
:105DE40009FFE4E77FB5CD682B79772B06460C468F
:105DF40009D1AB6801930023009389681A46FFF721
:105E0400B9FF04B070BD732B03AA4FF0760116D10D
:105E140005F10800FDF792FE2B6902463BB9EB68D9
:105E24000093039BA1683046FFF7E4FEE9E79B6813
:105E34000193EB680093A168039B3046DFE704F10C
:105E44000C00FDF77BFE002300930246039BE9E769
:105E54002DE9F74F044692469B46894629B91946CF
:105E640003B0BDE8F04FFEF7F1BA05692B1D0361DD
:105E740013686F1C05F10208EE1C002B00F0CA80A9
:105E840013F0030240F0C68019797A2940F0C280E9
:105E9400996801920093FEF7D9FAA06A01F077F8A5
:105EA400A8212046FEF778FADDE900322046D968B9
:105EB400FEF718FB022229462046FEF7B5F9A06A30
:105EC400032100F073FE5B460AF1040209F1FF317D
:105ED4002046FFF7BDFFA06A6FF0020100F066FEE6
:105EE4000E21A06A00F0E2FFA06A01F05DF83946D5
:105EF400A06A01F08FF82946A06A00F0AFFFA06AFB
:105F040001F045F80122A06A212100F009FFA06AEE
:105F1400082101F006F942460021A06A01F07FF849
:105F2400A06A01F034F8A06A01F05AF8A06A01F0FE
:105F34003BF80022A921A06A01F016F8A06A01F03A
:105F44004FF8A06A01F04CF8A06A01F020F8002292
:105F54000A21A06A01F02CF82546A06A01F024F871
:105F6400A06A0E2100F0A2FF002355F8280F1A465C
:105F7400032101F056F92846FEF7FEF932460021C6
:105F8400A06A01F04CF8A06A01F009F8A06A0E2199
:105F940000F08CFF3146A06A01F03CF8A06A0221AF
:105FA40000F004FE4146A06A00F058FFA06A01F028
:105FB40017F8A06A01F014F83946A06A00F04EFF01
:105FC4000022A06AA92100F0CFFF0E21A06A00F0F0
:105FD4006DFFA06A00F0DBFFA06A00F0D8FF002389
:105FE4001A460321A06A01F01CF92846FEF7C4F9F9
:105FF400A06A00F0D4FFA06A4FF0FF3100F0D6FD94
:10600400A06A314600F02AFF204603B0BDE8F04FF5
:10601400FEF719B919462046FEF718FAA06A00F0EF
:10602400B6FF2046A821FEF7B7F9A06A00F0B7FF33
:1060340040E72DE9F04F8D682B79032B87B0044698
:106044000AD12946FEF7E2F9AA69138B43F001034A
:10605400138307B0BDE8F08F162B40F08C800669DF
:10606400EB684FEA1318331D0361E968FEF7EEF994
:106074002046AA21FEF790F941462046FEF7B2F9E0
:106084002769A3690293BA1CE38B019322617B1CE9
:10609400A28B6383194606F1010BE283A06A27836E
:1060A400039300F0DBFE012259462046FEF7BCF8BC
:1060B40041462046FEF782F92046AC21FEF76CF9F2
:1060C40006F10209A96820460022FEF70BFA002215
:1060D4004946A06A01F01AF85946A06A00F0BEFECB
:1060E400A06A01F0C8F8A06A00F051FF0122A06A7A
:1060F4004FF4E27100F014FE06F1030AA06A0821CD
:1061040001F00FF852460021A06A00F088FFA06A4F
:1061140000F045FF01223146A06A00F0F7FF514626
:10612400A06A00F09BFE0121A06A00F03FFD20461A
:10613400FEF789F8A06A01F0A1F84946A06A00F0C8
:106144008DFE29692046FEF781F9039BA06A194652
:1061540000F060FF029BA361019BE3833146A06AC8
:1061640000F07CFE69692046FEF770F93946A06AA2
:1061740000F074FE6DE705AA792105F10800FDF72A
:10618400DDFCEB68059A01462046FFF761FE60E7F7
:1061940038B5436A1B78072B04460A4606D0022BFF
:1061A40004D0124ABDE83840FEF75CB895684DB992
:1061B4000E21A06A00F07AFEA06A0021BDE83840F2
:1061C40001F04BB8AB070CD12B79AE2B09D120468B
:1061D400A968FEF73BF904F12800BDE83840FEF752
:1061E400CBB829462046FEF731F9E5E707F1020866
:1061F400426A1278072AF8B5044604D0174ABDE863
:10620400F840FEF72FB88D6845B90E21806A00F07A
:106214004DFEA06ABDE8F84001F00FB815F0030286
:106224001AD12B791A2B17D10669EF68731C0361F5
:10623400B9683346FEF780FAA9682046FEF706F9E6
:10624400A06A00F0FAFF3146A06A00F007FEF96880
:106254002046FEF7FBF8DCE72946F9E710F00208D0
:10626400896830B4054619B90A4630BCFEF75DBCEE
:10627400CB688BB113F003020ED11C79932C01D19E
:106284008968F2E7942C01D11A46F9E7AB2C03D1C3
:10629400062230BCFEF7CFBD0A4628460021E4E7BB
:1062A400F8B5144BD3F8E06104460F460EBB0569FC
:1062B4006B1C036101222B468968FEF73DFA1F21FE
:1062C4000122A06A00F02CFDF96841B12046FEF7D6
:1062D400BDF8334632460121A06A00F097FFA06A58
:1062E400012100F0B4FF2946A06ABDE8F84000F09F
:1062F400B5BDF8BD1006002038B58C6805462CB92C
:106304002146A86ABDE8384000F0A1BFA3070BD11D
:1063140023795D2B08D1A168FEF798F8E168284637
:10632400FEF794F80221ECE721462846FEF78EF8A2
:106334000121E6E72DE9F74F4379012B04460D4689
:1063440008D10F79102F08D0436A1B782BB9224A41
:10635400FDF788FF03B0BDE8F08F01AA6C2105F1B9
:106364000800FDF7EBFBDFF87CB080460026B04563
:10637400F0DD019B606A53F8261000220909FDF73D
:1063840011FE102F8146027815D112F0FD0F05D0B1
:106394005A4629462046FDF765FF0AE04FF0020AF7
:1063A40080F800A04168606AFDF71DFE08B180F81E
:1063B40000A00136DBE75AB9012202700146606A87
:1063C400FDF717FE99F80030012BF2D1034AE0E7FC
:1063D400052AEED0024ADCE770EF0208B4EF0208A7
:1063E400D2EF020895EF02082DE9F04F87B08146FD
:1063F40000AF0C4611B90121116013E011F003063E
:1064040019D10B79672B06D1CB681B0913608C68F3
:10641400002CF0D0012604F00F03022B0DD121092A
:10642400002EE9D00022D9F8000000F026FD1C3728
:10643400BD46BDE8F08F0026EDE716B9A3681B0939
:10644400136063684FEA132804F1080308F1FF3A64
:10645400FB609B460025A84526DC0AF1070323F0D0
:106464000703ADEB030DC7F808D06D464FF0000BE2
:10647400D84521DC5146B868FAF71EFD00220146D2
:10648400D9F8000000F0F9FC002ED0D00C3401251E
:10649400A845CCDD54F8041BD9F8000000220909F2
:1064A40000F086FD0135F3E75BF8040B0009FAF709
:1064B400A0FD01358244CEE7BBF1000F03D04FF0BD
:1064C4002E0305F8013BFB6853F8040BFB6007F14E
:1064D40014010009FAF797FD7B697B601A460146AF
:1064E400284614F09DFE7B680BF1010B1D44BFE7A9
:1064F4002DE9F3418D6805F00F030E2B04460E467B
:1065040006D0002D30D0AB072ED12B79642B1DD1B2
:106514000095002501AA64216846FDF70FFB0023BE
:10652400019A194640F2AE5C834215DBF26840F2F0
:10653400FE339A4233D1636A1F78BFB1364A31467B
:106544002046FDF78FFE02B0BDE8F081612B0BD130
:10655400AB680093ED68DDE752F8237067450CBF24
:10656400013103310133DFE70021DFE7A06A26466A
:1065740000F0AAFCA06A052100F0EBFC56F8280FF5
:106584003A46012100F0EBFD01AA29463046FFF707
:106594002BFF02223946A06A00F06FFCD3E7A06A01
:1065A40000F092FC06F10C006A466921FDF7C6FA78
:1065B40000260746BE42A06A10DB0022394600F0DE
:1065C400CEFD294601AA04F12800FFF70DFF00259E
:1065D400BD42A06A0BDB00F0E2FCB4E7009B53F879
:1065E40026309968090900F0B4FC0136E2E7009B03
:1065F40053F82580D8F8086036093146012200F0A6
:106604003CFCD8F80C1029B931462046FDF7EAFEC7
:106614000135DDE70909F8E7F3EF020873B504462D
:1066240025460E46806A002100F04EFC55F8280FDE
:106634000E2100F03BFC01AA31462846FFF7D4FEA8
:1066440001992046FDF7CEFE02B070BD2DE9F04F52
:106654008FB00D46144606462822002104A814F0E3
:1066640023FE4FF0FF330993002332680395194644
:1066740003A88DF81040FDF713FD044600F07CF9E3
:10668400DDF82C900D9005464FF00008B9F1000F8D
:1066940001D0059FEFB10B9B13B1059A002A35D0A9
:1066A4004146284600F06BF90B9F059B002F00F034
:1066B400EC80002B00F0D3800C9B06A8D968FDF772
:1066C400C8FD0C9B069ADB8A0399059804F034FFF5
:1066D400DEE00122494603A8FEF700F9B9F82A30A2
:1066E4009F4206D3079BD9F80890984538BF98462F
:1066F400CCE7D9F82C3003EBC70113F83730012B62
:1067040002D14846FDF775FC0137E7E7198BB3F86A
:106714002AC0490713D50CF1FF314F1C0FD0DF6A93
:1067240007EBC107787810F0020F22D03AB1D2E912
:10673400009E97E8030082E80300C7E9009E4FF03B
:1067440000025A840022624519DB0022624539DBCB
:10675400D3F80490B9F1000F09D0B9F82A200192B6
:1067640000210A46019881423CDB002A75D19B68CE
:1067740092E712B9012808BF3A460139CDE71978E2
:10678400D86A4FEAC20E012900EB0E0704D17968DA
:106794000A290ED10132D6E710F8321009D901299D
:1067A40007D14FF0020100F80E107978C80704D41D
:1067B400F0E710F80E100329F7D1598C481C5884BF
:1067C4007980E7E7D96A01EBC20011F83210042995
:1067D40006D14178C9075FBF598C41800131598482
:1067E4000132B3E7D9F82C0000EBC10B10F83100EB
:1067F4000438012817D84FF0000E12E0D86A00EBD5
:10680400CE0A10F83E00052809D1DAF8040007463C
:10681400DBF80400B84204BFAAF8022001320EF1EA
:10682400010EE645EADB01319CE7DF6A07EBC100B4
:1068340017F83170052F02D14778FF0702D5478832
:106844001744478001316145EFDB998B92B21144C3
:106854009983598C0A445A8489E70021F3E7022278
:10686400394603A80D95FEF739F8059B5BB9032259
:10687400394603A8FEF732F8059B23B904223946AA
:1068840003A8FEF72BF8BF680FE7002B7FF414AFC3
:10689400284600F07CF83046FDF738FB2569A668E9
:1068A4002046FDF765FB3446002EF8D1059808B163
:1068B400F9F79AFC32463146284601F02FF90FB019
:1068C400BDE8F08F10B504460122FDF76BFB237879
:1068D400012B04D90378012B04BF0323037010BDDB
:1068E40070B505460E46104619461C46FDF74AFB90
:1068F4000378012B06D17368002221462846BDE89F
:1069040070401847022B02D173680122F5E73668FC
:106914004288032B21462846B4460CBF002301239A
:10692400BDE8704060470346026A4079032888BF87
:10693400186B114494BF184680181962704710B53B
:106944000C460121FFF7EFFF047010BD0346806A77
:106954005A79032A88BF5A6A014484BF1218186BF3
:10696400996294BF18468018704710B50C460121EF
:10697400FFF7ECFF047010BD4820F9F774BC10B5A4
:10698400044681618800F9F755FCE06110BD10B53B
:106994000446C069F9F776FC2046BDE81040F9F7D3
:1069A40071BC2DE9F74F15460446002361716E8CC6
:1069B4008360C0E90323837183620362AB8CB5F8FF
:1069C4002680AF8BB5F81890B5F820B00122F618E0
:1069D40008BF16468A464FEA8801013E426101F02B
:1069E400040107F003021143F20002F07802EB8B7A
:1069F40009F00F09114336094FEA5808BF0846EA5F
:106A0400080242EA09023A431A4352EA0B023ED10F
:106A14002046FFF794FFBAF1020F16D9D4E90D32DC
:106A2400590002F001009B09520801F07E01014364
:106A340063631343A26318BF41F080012046FFF74C
:106A44007EFFD4E90D321343E8D1236A6363022144
:106A54002046EE8AFFF767FF0670360A4670022169
:106A64002046AE8AFFF75FFF00230670BAF1040FD9
:106A74004FEA16264670A387A4F8403047D1A88B66
:106A8400EA8B1044984242D06E8D00213BE041F0E5
:106A9400800120460193FFF752FF4FEA891132012A
:106AA40002F03002019B01F0400111430BF001029E
:106AB4001143DA0002F008021143BA0002F00402A2
:106AC40011434FEA480202F002021143B6084FEAAA
:106AD40058084FEA59097F085B084FEA5B0B8EE7B9
:106AE400EA6A02EBC1025778FF070BD557889F4229
:106AF40008D15268616C920042F0020241F82320EE
:106B04000133BFE701318E42EADC0522F2E703B02C
:106B1400BDE8F08F4379012B70B5044626D00021DF
:106B2400FFF70DFF626B236A00259B1A6363A5635D
:106B3400E068438DAB421AD8A38FE3876379032BB4
:106B440025D1A36A206A6062E3621844F9F78BFBDB
:106B5400E3682063988BDB8B1844A38F1844B4F844
:106B6400403018448000F9F77EFB606470BDC36A4E
:106B740003EBC50213F83530042B06D19178204677
:106B8400FFF7DDFEA36B0133A3630135D0E7042BCC
:106B9400ECD1038B626C216B0069BDE8704000F09E
:106BA400AFBF8079003018BF012070474379012BB3
:106BB40009D083681944C36881609A8C9142C8BF24
:106BC400998400238371704738B51446FFF7EEFFAC
:106BD4000121FFF7BBFE047038BD73B50DF1050448
:106BE40006461D46FFF7F0FF214605F07F03ED0939
:106BF40004F8013DF9D1091B3046FFF7A7FE01ADAA
:106C040001462346AB4205D19DF804201B1BC25408
:106C140002B070BD13F8012B62F07F0201F8012B62
:106C2400F0E770B4C4681E46A58BE38BB0F840400F
:106C34001D44C38F1D44631CA0F84030631944797C
:106C4400042C04BF446C44F8236070BCFFF7C5BF38
:106C540003F128011346CAB20021FFF7BEBF70B486
:106C6400DDE90365D2B203EB460443EA062315B11A
:106C740001320234D2B2091B70BCFFF7AEBFC26846
:106C8400938BD28B1A44838F10B45C1C13444279C7
:106C94008487042A08BF426C5DF8044B08BF42F89D
:106CA400231023220121FFF798BF10B4044643B9EF
:106CB4000F2A06D8503AD2B201215DF8044BFFF7EF
:106CC40083BF03F12401204613465DF8044BCAB286
:106CD4000121FFF782BF10B404464BB90F2A07D82D
:106CE400403AD2B24FF0FF315DF8044BFFF76CBF6E
:106CF40003F12601204613465DF8044BCAB24FF057
:106D0400FF31FFF76ABF70B51C461546FFF74EFF0B
:106D14000321FFF71BFE4470240A0570847070BDC4
:106D240011320B46D2B20121FFF7EDBF16320B46EA
:106D3400D2B24FF0FF31FFF7E6BF19320B46D2B2A1
:106D44000021FFF7E0BFF8B516461F46FFF72EFFF8
:106D54004379032B81BF846AC269C4F5FF4452F8A6
:106D6400273088BF7D344FF003018CBFE418002422
:106D7400FFF7ECFD4470241206708470F8BDF8B57A
:106D840016461F46FFF712FF4379032B81BF846A1F
:106D9400C269C4F1FF2404F57F0484BF52F827308C
:106DA400FD344FF003018CBFE4180024FFF7CEFD3F
:106DB4004470240A06708470F8BD0000264BD3F892
:106DC400E031022B2DE9F047064689460ED8456985
:106DD4008D420BD2846A03694D1BE41A40F2FF779B
:106DE40055EA040304D1B36AC6E90439BDE8F0875F
:106DF400062D01D90F2C1AD91F2CA24628BF4FF0FB
:106E04001F0A544510D8032DA84628BF4FF0030885
:106E140001213046FFF787FD4AEA48130370A4EBCB
:106E24000A04A5EB0805DBE74FF00008F0E7BD42D4
:106E3400A8464FF0020128BFB8463046FFF773FD5D
:106E44004FEA181303F07003234363F07F030370C6
:106E540080F80180A246E2E71006002038B50D460E
:106E64000021FFF7A3FE4379012B05D0032B9EBF1E
:106E7400C369826A43F8252038BD012A10B40B4641
:106E8400044608D0022A0ED169224FF0FF315DF882
:106E9400044BFFF799BE11461B322046D2B25DF86F
:106EA400044BFFF730BF4FF0FF31F5E70C2902D157
:106EB4000449FFF7E4BE01F14302D2B20121FFF716
:106EC40083BE00BF7811030801F110033F2B73B593
:106ED40006460C4607D8A1F18002D2B20121FFF781
:106EE40073FE02B070BD01212222FFF76DFE0DF189
:106EF40005031946E2B202F07F00E41103F8010C25
:106F0400601C012803F1FF3516D8013402F0400259
:106F140014D11AB97F2205F8012C9D1E491B304655
:106F2400FFF714FD01AC01462B46A3420AD15D1BB9
:106F34009DF804204255D4E72B46DBE7002AEDD028
:106F44000022E8E713F8012B62F07F0201F8012B1D
:106F5400EBE70B4610220121FFF7D5BEFFF78FBEEA
:106F640053220121FFF730BE10B4002A4FEA420435
:106F74000B4618BF1522C4F1010108BF14225DF8A5
:106F8400044BFFF7C0BE54220121FFF71DBE572258
:106F94000121FFF719BE58220221FFF715BE59221D
:106FA4004FF0FF31FFF710BE5A220021FFF70CBE4D
:106FB40070B50D46044611462AB92B461322BDE886
:106FC4007040FFF7A0BE022A04D1FFF7C9FF204694
:106FD400FFF7EAFF2B4618226FF001012046EEE787
:106FE4005B220021FFF7F0BD10B5044631B95522EC
:106FF4004FF0FF31BDE81040FFF7E6BD022904D190
:10700400FFF7AEFF2046FFF7EBFF56226FF00201B9
:107014002046EFE70B4642220021FFF794BE1346B9
:1070240021B143224FF0FF31FFF78DBE4422F9E72F
:10703400134621B145224FF0FF31FFF784BE4622AB
:10704400F9E72DE9F04105460C4621F400471646C0
:10705400C2B90B040ED55921FFF787FC59212846E4
:10706400FFF783FC59212846FFF77FFC5921284666
:10707400FFF77BFC3B46284642220021BDE8F04155
:10708400FFF761BE3B4600214022FFF75CFE210A68
:1070940021F07F0131432846C9B2BDE8F041FFF732
:1070A40064BC002A02F147020B46D2B20CBF022193
:1070B4000021FFF764BE38B504460D460E21FFF7E4
:1070C400F5FE20462946FFF7C9FE02215C22FFF7A0
:1070D4007BFD20466FF00301BDE83840FFF766BD35
:1070E4005D224FF0FF31FFF76FBD002915BF5F220E
:1070F4005E2203210021FFF767BD0B464B220121CD
:10710400FFF73DBE6FF00301FFF750BD0B464A2267
:107114000021FFF734BEA1F13002D2B20021FFF703
:1071240053BD322938B5054613D0332914D101246F
:107134000721A1F12902D2B24FF0FF312846FFF70F
:1071440043FD5CB12846D3220021BDE83840FFF757
:107154003BBD01240621ECE70024EAE738BD022AFE
:1071640002F12A020B46D2B214BFC1F1010101217E
:10717400FFF733BD62226FF00101FFF725BD03293C
:1071840010B40CD004290DD0002102248B1844EA39
:1071940083032F22C9435DF8044BFFF71EBD002172
:1071A4000C46F3E70121FBE70B4630220139FFF7D8
:1071B40014BD10B4144641EA0223214431225DF87F
:1071C400044BFFF70ABD0969134308BF32220B467B
:1071D40016BF332201214FF0FF31FFF722BD70B5F6
:1071E40014460A6904990B43054613460CBFC4F1BF
:1071F4000101E143E6B20CBF20222122FFF711FD79
:1072040031462846BDE87040FFF7AFBB07B5CDE96E
:1072140000230B4634220021FFF721FD03B05DF863
:1072240004FB07B5CDE900230B4636224FF0FF31AE
:10723400FFF715FD03B05DF804FB10B563220446A7
:107244004FF0FF31FFF7C0FC0123A37110BD01F122
:107254006402D2B24942FFF7B7BC10B501F167022C
:107264000446D2B24942FFF7AFFCE268138B43F005
:107274000103138310BD0421FFF798BC6FF00201D2
:10728400FFF794BC2DE9F74F062901909DF8305083
:1072940012D8012907D93F2300F8013B0190019A34
:1072A4000023137001E00029F9D1012994BF0020C3
:1072B400012003B0BDE8F08F10EE104A002C019CB1
:1072C40025DAB4EE400AF1EE10FA20D62D2504F8A2
:1072D400015BB1EE400A9FEDC27AF0EEC07AF4EEA3
:1072E400477A02F0200EF1EE10FA5FFA8EF513DD04
:1072F40085F04903237085F04E0385F046056370DD
:10730400E11CA57000230B70019BC81AD1E7002D66
:10731400E1D004F8015BDEE7B4EE400AF1EE10FAC6
:1073240008D745F04E0385F0410523706570E11CD4
:10733400A370E7E7002B42F02002B8BF0623672AB8
:1073440002D1002B08BF01230198251A10EE100A60
:10735400491B051E01F1FF3C48D1662A38D15D1C4A
:107364006545A8BFCB1E00275D1C6621BC463E4672
:1073740023EAE373652940F029815D1C4FF000087E
:107384004FF02E0BB2EE047A454540F38180FDEEBA
:10739400C07A04F1010A17EE900A0028A6BF00F192
:1073A40030095FFA89F94FF03009E04584F800901C
:1073B40004D11BB104F1020A84F801B0F8EEE77AB3
:1073C40008F1010830EE670A544620EE070ADBE7AD
:1073D4005D1D6545A8BFCB1F652A11464FF000050A
:1073E40040F0EA802B27AC462E46C1E7B5F17E5F1C
:1073F40080F08E80DFED7B7ADFF8F081DFF8F0A19A
:10740400B4EEE70AF1EE10FA4FF00005ACBF4FF00E
:1074140031094FF0300920272E46B8EC017AB4EE3A
:10742400C07AF1EE10FAC4BF0AEB050B9BED007AAB
:1074340005F10405C4BFF61920EE070A182D4FEA1A
:107444006707EAD110EE100AB0F17E5F44D2B4EEC1
:10745400E70AF1EE10FA3ADB002E14BF2D272B2792
:10746400B7EE000A662A03D0672A47D1042E45DC0A
:10747400672A04BF06F1FF355B195D1C6545A8BF8B
:10748400CB1E84F800904BBB01341D4666211F4679
:10749400662A40F0AF80AE4240F3068197B10A21DC
:1074A40096FBF1F393FBF1F201FB136601FB12323D
:1074B4004EF0450E3032303684F800E06770A2702A
:1074C400E670043400232370019BE01AF1E6F2EE27
:1074D400047A20EE270A01362D27C3E72E21617096
:1074E4001D4602343021013E68D01DB92F464FF0AD
:1074F400FF3C46E004F8011B013DF4E78D1F9D426B
:1075040060DC672A5CD0CB1F11460025AC462FE710
:107514000025DFF8DC80DFF8D49020272E46F8EC35
:10752400017AF4EEC07AF1EE10FA9CBF09EB050A79
:10753400DAED007A05F104059CBFF61920EE270A5E
:10754400182D4FEA6707EAD1FDEEC07A17EE905A7C
:10755400092DC2BFDFED247A013620EE270A662A00
:1075640011D1664512DA99190131614505DBACEB9D
:107574000603023B591C08BF0023F5180135B44625
:1075840000276621F4E6652A40F096808D1F9D420F
:1075940000DCCB1F00252B27AC466521E8E61D1D2A
:1075A400654500DB8B1F9E4203DB672100252B27EB
:1075B400ACE7711C5B1AE0E72F4614E7374696E701
:1075C4002B46A1E700251146AC46D3E667297FF494
:1075D400D5AE13B901252B46D0E61D46CEE600BF35
:1075E400FFFF7F7FF8FF7F3FCDCCCC3D38F1020811
:1075F40050F10208F1EE047AB4EEE70AF1EE10FA63
:107604002BDB04F1FF3C4FF030099CF800502E2D89
:10761400E0460CF1FF3CF8D0A5F1300ABAF1090FAD
:107624002CD908F1010898F80050302D15D198F89C
:1076340001C0BCF12E0F30D166292ED02D2F88F831
:1076440000C088F8015026D1013E08BF2B272146EF
:10765400884524D3312188F80010672A7FF41EAFAF
:10766400002B3FF41BAF23461C46013B14F8012CAE
:10767400302AF9D02E2A08BF1C460FE7392D03D033
:10768400013588F80050CEE701988CF80190404508
:10769400BBD18046C7E70136D9E70134D7E711F8F3
:1076A400015C01F80159D3E7F1EE047AB4EEE70A7C
:1076B400F1EE10FAA5DAF1E6672A3FF470AF11464D
:1076C40074E700BF012910B5146828D934F01001FB
:1076D400037815D1302B1ED1417841F0200178294F
:1076E40000F1020303D110211160181A10BDCCB9A6
:1076F4006F2901D10821F7E7622911D10221F3E7AB
:10770400082C11D1302B0DD1437843F020036F2B7B
:1077140008D1831CE9E7082C04D0022C02D00CB950
:107724000A2313600346E0E7022CFBD1302BF9D186
:10773400437843F02003622BEAE7000008B50446CF
:1077440031B1054B03608A6B0968002303F0F4FE32
:107754002046F8F749FD00BF240303082DE9FF473D
:107764001F460192461812B1023A222A34D805461D
:10777400B5422C4639D215F8010BFAF783F9804645
:107784000028F5D123782B2B29D12C46311B2046F8
:1077940001AAFFF797FF2518A9460024B1454B46D7
:1077A40026D3B8F1000F00D06442640044F0010411
:1077B400AB4209D01D46B5422B4641D2187801355B
:1077C400FAF760F90028F6D12049019A204803F01D
:1077D40019FE3946FFF7B2FF1E4801F0B9FA2D2B06
:1077E40004BF2C464FF00108D0E74FF00008CDE766
:1077F40019F8012BA2F1300ABAF1090F09D95F2A4D
:10780400CCD042F02002A2F161011929C9D8A2F119
:10781400570A01995145C4D920460DF0BDFF28B936
:10782400019B03FB04A494EA4403B7D5019B03958D
:107834004246711B03A804F01FFF039B0446B7E7ED
:10784400C2D1204604B0BDE8F08700BFC2F10208EF
:10785400140403089FF102082DE9F04F2DED028B6B
:1078640083B09146DDF83880019346180446B4424B
:10787400254680F022812878FAF704F90134074676
:107884000028F4D12B782B2B09D125468246B4420B
:107894000CD30023DFED8C8A1F4619467EE02D2B86
:1078A40003D125464FF0010AF1E782462B7843F0D5
:1078B4002003692B32D1AB1C9E4240F2F6806B78D8
:1078C40043F020036E2B40F0F080AB7843F02003AC
:1078D400662B40F0EA80EB1D9E4205F103041AD9A1
:1078E400EB7843F02003692B15D12B7943F0200367
:1078F4006E2B10D16B7943F02003692B0BD1AB793C
:1079040043F02003742B06D1EB7943F02003792B49
:1079140001D105F108049FED6D8A14E06E2B55D159
:10792400AB1C9E4240F2C1806B7843F02003612B74
:1079340040F0BB80AB7843F020036E2B40F0B58061
:107944009FED638AEC1CBAF1000F01D0B1EE488AB6
:10795400A54209D0B442234680F0928018780134BD
:10796400FAF790F80028F5D15A498FE00220224610
:10797400144614F801EBAEF1300BBBF1090F46D8F5
:10798400022830D1544A914202DC0A2202FB01B19E
:10799400B442ECD3BCF1000F00D049420B4413F1C4
:1079A400250FBEBFDFED4D7A253368EEA78A13F1AC
:1079B400090F5AD35B4200EE903AB2EE040AF8EE95
:1079C400E00A14F065FB88EE808ABCE74FF0000CF7
:1079D4002A46634661466046DFED3B8A9FED407A66
:1079E400F2EE046AC4E7F4EEC78AF1EE10FA0BD59E
:1079F40007EE90BAF8EEE77A0128E8EEA67AF0EE00
:107A0400678A2ED1013BC3E728B90133C0E720B907
:107A1400BEF12E0F03D10120BAE7022814D04EF094
:107A2400200BBBF1650F0FD1A64249D950782B2802
:107A340004D1941CB44297D00220A9E72D2895D1F3
:107A4400941C4FF0010CF5E7B9F1000F04D04EF08F
:107A5400200BBBF16A0F06D0BEF15F0F98D014461D
:107A640098E7002094E74F4694E707EE903AB2EE89
:107A7400040AF8EEE70A14F00BFB28EE808A62E7AA
:107A84007FF472AF0FB9019B33B11649164803F066
:107A94008BFC4146FFF752FEB0EE480A03B0BDEC42
:107AA400028BBDE8F04F03F067BEBAF1000F3FF45C
:107AB4005BAF2C469FED048A48E74FF0000AE8E6E6
:107AC4003FF452AF66E700BF000000000000807F73
:107AD4000000C07F85F1020864666606EA1C08029D
:107AE400EC78AD6068F102081404030808B50C20B2
:107AF400F8F7B9FB0278012161F30202027008BDB4
:107B040030B50478022565F302040470048863F335
:107B1400C9040480C0E9011230BD000010B5044658
:107B240008461146D4E9012304F0D4F823881B073E
:107B340044BF014B036010BDC807030838B51546A0
:107B440011F480720C4614BFD5E900121146FFF7F8
:107B5400E5FF620902F008022A44E1B2BDE83840B8
:107B640002F0A2BED0E90003184770B505460C46E2
:107B74008E18B44200D170BDD5E90003984704F8CB
:107B8400010BF6E770B506460C460025D6E900035E
:107B9400984724B12368187023680133236000F0E8
:107BA4007F0343EAC5150306F0D4284670BDF8B533
:107BB4000C4600210746FFF7E5FF20B93846BDE82B
:107BC400F840FFF7CFBFC3074FEA500528D52388F5
:107BD4005A1B02F01F0204EB420193424E883546C1
:107BE4000ED2911C6FF001034900C8185A433E326B
:107BF4002144204413F040FB6388A4F84030002261
:107C04002388501C40009A1A811C214420445200AD
:107C140013F032FB238804EB430466802846F8BD46
:107C24002846F8F707FB2A46064601463846FFF77A
:107C34009CFF29463046F9F73FF905463046F8F7E8
:107C440021FB2388013303F01F03238004EB430447
:107C54006580E3E72DE9F04F88468BB000210446A8
:107C6400FFF790FF10F003054FEA900902D08D480A
:107C740001F06EF84846F8F7DDFA06A907460690C3
:107C84002046FFF77FFF06A92046FFF77BFF3A4611
:107C94002E4612F8013B039503F0030A6FEA070C22
:107CA4004FFA83FE9346BEF1000F02EB0C001BF863
:107CB400013B17DB002318464FF0060E12F8011B98
:107CC40001F0010C0CFA05FC43EA0C030EFB05FB66
:107CD400C1F3450C0CFA0BFC090640EA0C0013D561
:107CE4000135EBE70399C3F380128240114303F09B
:107CF400040282404AEA020AC3F3C00202FA00F014
:107D0400039106435A46CBE7034441462046DDF837
:107D140018B0D518FFF74BFF8BF80000000A8BF85A
:107D2400010041462046FFF742FF8BF80200000A9B
:107D34008BF80300069904316A1A20460691FFF76E
:107D440014FFB944A9452CD800212046FFF71AFF97
:107D5400002105462046FFF715FFB2440490281879
:107D640050448000F8F766FA4FF000098346CA458C
:107D740047D10BEB8A0A0026AE424ED10AEB8606A7
:107D84000025049B9D4240F08580FFF7AFFE039BD6
:107D94005A4639460446FFF7B3FE20460BB0BDE809
:107DA400F08F2046FFF7DEFE0022287006A9284641
:107DB4000DF0FEFA069B012803F1FF3305F1010BD8
:107DC400069314D141462046FFF7F1FE6870000A7D
:107DD400A870069B023B05F1030B0693069A5946CD
:107DE4002046FFF7C2FE069A0BEB0205AAE702281B
:107DF400F4D12046FFF7B6FE03060BF8010BF8D4C6
:107E0400ECE741462046FFF7D2FE800040F0020036
:107E14004BF8290009F10109A9E72046FFF7A2FE62
:107E24005FFA80F9B9F1650F32D000212046FFF7DF
:107E3400A9FE0146059006A8F9F7A5F9059A08993F
:107E44002046FFF792FEB9F1730F0AD0B9F1620F21
:107E540009D1154806A906F033FC4AF82600013674
:107E64008AE71248F6E7B9F1690FDDE907104FF028
:107E7400000303D10A22FFF771FCEEE7A9F1630CBA
:107E8400DCF10002009342EB0C02FFF7E5FCE4E7AF
:107E94000748E2E741462046FFF7DCFE46F82500A6
:107EA40001356EE7EAF10208EC150308C818030867
:107EB4007811030830B593B0042269460446FFF7ED
:107EC40054FE9DF800304D2B02D0154800F040FFC1
:107ED4009DF80130052BF8D19DF8023003F003031F
:107EE400022BF2D19DF803301F2BEED8002120463F
:107EF400FFF748FE2028E8D89DF802309B0801D0FF
:107F04000848E3E701A92046ADF80430FFF7A2FED4
:107F1400A368054620689847284613B030BD00BFC3
:107F2400EAF1020801F202081FB5014601A812F0A5
:107F340095FB01A8FFF7BEFF05B05DF804FB000048
:107F4400F8B51F4C0025F8F779FF0127A4F8EA518A
:107F5400E564A4F8E87103F0BFF91A4BC4F8E051E2
:107F640004F19006C4E90B3504F13C00164BA363FD
:107F74000321656302F0F2FF3946304602F0EEFF5A
:107F84005E215622304603F078F8104B1A681B68BD
:107F940052685B689660DE60C4F8CC51C4F8C05087
:107FA400C4E96F55C4E9715504F5F674204618F018
:107FB40059FB39462046BDE8F84018F057BB00BFCE
:107FC40010060020CC0003088C1B0308C008002006
:107FD40038B5144B1B685B6884000546D86844F0C8
:107FE400020400222146043001F05EFA48B90E4B27
:107FF400D3F8C0303BB102462146181D01F054FAB3
:1080040008B1406838BD00222146084801F04CFA06
:108014000028F6D12A460649064803F0F3F9F8F792
:10802400E3F800BFC0080020100600201423030852
:108034003AF30208800103080E4B1A681968526863
:1080440049689268C968914210B504460AD01B6811
:108054005B6881009868002241F00201043001F05D
:1080640023FA20B92046BDE81040FFF7B1BF4068AD
:1080740010BD00BFC008002008B5084BD3F8C000ED
:1080840008B9074808BD002240F2BE21043001F0BF
:108094000BFA0028F5D04068F4E700BF1006002072
:1080A4002C210308044B1B685B6880000A4640F0DF
:1080B4000201986802F0E1BFC0080020044B1B686D
:1080C4005B68810041F00201986802F0E4BF00BFE0
:1080D400C0080020044B1B685B6880000A4640F01F
:1080E4000201D86802F0C9BFC0080020044B1B6815
:1080F4005B68810041F00201D86802F0CCBF00BF88
:10810400C0080020032837B505460C4607D10846A9
:1081140001F01EFE00B33D4C204603B030BDCB073A
:108124002ED54B10082829D801A252F820F000BF00
:108134001D81000865810008818100088181000893
:1081440059810008818100081D81000861810008AF
:108154001D810008002BDED02D4CDDE7002BDBDA7F
:10816400B3F1404F05D14FF0804004F0F9F90446D3
:10817400D2E75C42640044F00104CDE7DC43F9E754
:10818400062820D101F00303022B0BD0DBB90B68C6
:108194009A69204B9A4216D1486840B98B6801937A
:1081A400C8680CE08C082046F8F71EFF18B14000A0
:1081B40040F00104B0E701A92046F8F724FF019933
:1081C400F8F72CFEF3E7204601F088FB43695BB91E
:1081D400082D0FD1204601F091FB0F4902460F48AC
:1081E40003F010F9F8F700F82146284698470028CC
:1081F400BDD1EDE70A4B20465D5D01F07FFB2A46C9
:1082040003460849054803F0FDF8EBE704FA0208C1
:108214000CFA020869F100082CF402089C03030814
:10822400301E030844F402082DE9F04104460E46CA
:108234001746984601F052FB05693DB143463A465C
:1082440031462046AC46BDE8F0416047204601F087
:1082540055FB03490246034803F0D4F8F7F7C4FF7B
:10826400D0F202089C03030800231A461946FFF7BC
:10827400DBBF07B50022019101AB0121FFF7D4FF59
:1082840003B05DF804FB30B454680034154618BFDD
:1082940001246FF0030303FB042308330A46211867
:1082A400286830BCFFF7C0BFF8B51D469307844665
:1082B4000F46164614D11468214B9C4202D15368D0
:1082C4002B60F8BD1F4B9C4207D110B101F006FB97
:1082D40007467368C5E90037F3E71B4B9C4201D19D
:1082E4002E60EEE7E38840F25122934206D040F23A
:1082F4000922934202D0B3F5157FF1D1BCF1000FEE
:108304001AD1124B9C420BD0114B9C4208D0114BFA
:108314009C4205D0104B9C4202D0104B9C420BD186
:108324000F4B9F4208D00C20F7F784FF0D4B86605B
:10833400C0E900372860C4E7C5E9006CC1E700BFA5
:108344007C1D0308401D0308F41D03086805030889
:10835400A4050308E00503081C06030858060308DF
:10836400240C0308F0F3020800232DE9F041C2E9CC
:1083740000330D460746144601F0B0FA0A2D0646AE
:1083840002D12060BDE8F081192D05D1836A1BB1AB
:108394000F4BC4E90037F5E7F3692BB122462946B0
:1083A4003846BDE8F0411847B06B0028EAD0A90070
:1083B4001A4641F00201043001F076F80028E1D0B9
:1083C4002346426831463846BDE8F041FFF76CBFAA
:1083D4003C22030870B5164604460D46FFF7C4FF59
:1083E4003368A3B9A3070BD12268094B9A4207D17A
:1083F400E28808492B46084803F004F8F7F7F4FE2E
:10840400204601F07BFA2B4602460449F3E770BD8F
:10841400F41D030852F30208B0FE020879F30208BF
:1084240007B56A46FFF7D6FFDDE9000111B903B0CD
:108434005DF804FB02F0D2F9F9E70000F0B593B05F
:10844400054668460E4617461C46F7F7B5FE40B982
:108454003A4631462846FFF787FFF7F7A3FE13B0E5
:10846400F0BD002CFBD1019B0449186809F084F885
:108474000028F4D10198F7F7B7FE00BFB0FE020858
:1084840073B505460C46164601F028FAC36943B194
:108494000422CDE9002621466A4628469847009BD7
:1084A40053B1284601F02AFA2346024603490448F8
:1084B40002F0A8FFF7F798FE02B070BD79F3020846
:1084C400B0FE020873B505460C4601F007FA184AD7
:1084D400436A9342064629D063B134B9154A93429C
:1084E40003D01020F7F7A6FE0446736A21462846F7
:1084F400984778B96A460F212846FFF735FF009B55
:1085040053B11CB91020F7F795FE0446214668467E
:1085140003F070FD02B070BD284601F0EFF9064982
:108524000246064802F06EFFF7F75EFE2846F1E7C2
:10853400319E0008A50F0108EBF202089C03030812
:1085440037B5044601F0CAF9856A1DB12046A8472B
:1085540003B030BD6A4619212046FFF705FF009B92
:108564002BB16A4629462846FFF78DFEF0E72046E0
:1085740001F0C4F903490246034802F043FFF7F748
:1085840033FE00BF1CF302089C03030830B5054604
:1085940095B000F097FE284601F0A0F9846A2CB14A
:1085A4002846A0470446204615B030BD6A46192126
:1085B4002846FFF7D9FE009BABB102A8F7F7FCFDF4
:1085C400014630B96A46FFF75EFE0446F7F7EAFD56
:1085D400E9E7039B0849186808F0CEFF0028E2D1B8
:1085E4000398F7F701FE284601F088F9034902468B
:1085F400034802F007FFF4E7E80203081CF302084B
:108604009C0303082DE9F04F8BB0136802930028F4
:108614004ED102F104090446C1F307235FFA81F83D
:1086240000935B0008EB0302019359F822A009EBC5
:1086340082025768002F3FD017F003003CD13968FD
:10864400804A914202D1384602F014FD009B1D1865
:108654006D004FEA880BBAF1000F2FD108F1010029
:108664000544A800F7F7E6FD06460CB104600124B2
:1086740006EB84005A46494612F0D2FD4444009B5E
:1086840009EB0B01DA0006EB840012F0C9FD019B33
:1086940023449846002F00F0868017F0030340F02F
:1086A40092803968674A914240F08D801D4677E098
:1086B40002F108095468AFE70020C7E71AF0030F76
:1086C4002AD1DAF8002060498A4202D05F498A42FE
:1086D40022D106AA05A9504601F098FA059B013358
:1086E40043441D44A800F7F7A5FD06460CB10460F9
:1086F40001245A46494606EB840012F091FD059A7E
:10870400069908EB0400920006EB800012F088FD45
:10871400059B43441C44B2E708F104000544A80047
:10872400F7F788FD06460CB1046001245A46494611
:1087340006EB840012F074FD06A95046FFF7C2FE52
:10874400444480464046FFF721FF0346002896D064
:10875400A54207D8E90030460393F7F786FD039B4B
:1087640006466D0046F824300134EBE7FB6853F805
:1087740035004FEAC50990B1042810D000F0030376
:10878400022B01D007F0DAFB46F82800FA684FEA1A
:1087940088034A44334452685A6008F10208013598
:1087A400BB689D42E2D3A8EB04022146334652083B
:1087B4000298FFF739FD04463046F7F763FD20467B
:1087C4000BB0BDE8F08F06AA6A213846FFF702FE17
:1087D400002106AA0846FFF756FD0021FFF772FEA6
:1087E40082465046FFF7D2FE81460028DBD008F1CE
:1087F40001039D4208D86D00042D38BF042530467E
:10880400A900F7F732FD064609F00303022B03D053
:10881400484607F093FB814606AA0F213846FFF726
:10882400D9FD06AA00210120CDF82090FFF72BFDE9
:108834004FEA8803334446F8289008F10208586048
:10884400CFE700BF40FD0208981B03085C0A030839
:10885400F0B5830787B00C4615461BD10368204A40
:10886400934202D01F4A934214D102AA01A901F0F3
:10887400CDF9019BA3422BD31CD8029B043D03EBEF
:1088840084049C4201D107B0F0BD54F8042D45F88E
:10889400042FF6E702A9FFF715FE0023064601930D
:1088A4006FF04047019BA342304606D3FFF76EFEAC
:1088B4000028E8D022460C490CE0FFF767FE38B1E7
:1088C400019BFA1A2244013345F822000193E9E797
:1088D400019A0649064802F095FDF7F785FC00BFAA
:1088E400981B03085C0A030885F4020862F4020872
:1088F400140403082DE9FF4183071546CFB2C1F3E1
:10890400072435D103683A4A934202D0394A934244
:108914002ED10290029803AA01A901F077F90198D7
:108924003B1983425CD80399002601EB8003A642DD
:1089340013D1BC00C01B2144801B04F0ADFA039981
:1089440045F8260005EB86080B1942468B420AD1EE
:108954000023029304B0BDE8F08153F8042D45F8D8
:1089640026200136E3E753F8040D42F8040FEDE73F
:108974000021FFF7A7FD002380460193019BBB4222
:1089840019D30021084604F087FA06464046FFF74B
:10899400FDFD0146D0B9B168A14221D345F8246058
:1089A40005EB810205EB8403091BAB4212D130466F
:1089B40004F08DFACEE74046FFF7E8FD80B1019B55
:1089C400FA1A2244013345F82200D6E7304603F070
:1089D400FBFFDBE7D01AF468205843F8040DE4E702
:1089E400019A0549054802F00DFDF7F7FDFB00BFAC
:1089F400981B03085C0A030862F4020814040308C1
:108A040010B5044602F05CFD38B1002320461A4636
:108A14001946BDE81040FFF707BC204602F066FD8A
:108A240028B904490448BDE8104002F0BDBC204602
:108A340010BD00BF9BF302089C0303082DE9FF410E
:108A44001D4606460C46174600F048FF324B984236
:108A540008D12B463A462146304603F0CDF904B0FE
:108A6400BDE8F081D0F828802C4BB8F1000F08D075
:108A74009C4221D13046C0472860003018BF0120F5
:108A8400EDE79C4218D101AA19213046FFF76CFC8E
:108A9400019B6BB901AA8A213046FFF79BFC039422
:108AA40001AA00210120FFF7EEFB28600120D6E790
:108AB40001AA41464046F6E7002CEBD1384600F0C7
:108AC4000DFF174908F058FD01AA68B14721304647
:108AD400FFF74AFC019B7BB101AA21462046FFF720
:108AE400D2FB28602046BAE79B213046FFF73CFCC6
:108AF400019B0BB10397D3E70A49384602F0FDFC0A
:108B040030B10949094802F04FFC28600220A6E769
:108B14003846FFF775FFF8E78C070308BC0D030818
:108B2400A0FF0208E8020308D0F302087002030859
:108B34007FB5114B8000CDE90233104B40F00200A9
:108B44000190D3F8C000CDE9041278B1002240F2BC
:108B5400F621043000F0A8FC40B101AB002205214D
:108B64004068FFF761FB07B05DF804FB01A905202D
:108B740009F08EFCF7E700BFBC0D030810060020C7
:108B84002DE9F04F85B000AF07F1080204460D4609
:108B9400FFF7EAFBFB6833B12A462749274802F06E
:108BA40031FCF7F721FBB868002840D1204609F0D2
:108BB4000DFE0028F0D007F1080220461721FFF728
:108BC400D3FB391DB86806F0B1FA83462846F8F796
:108BD40010FAD7F8048008F1010400EB040909F144
:108BE400070323F00703ADEB030D6B464FEAD30AEB
:108BF4004FEACA0642465946304612F011FB2E236C
:108C040008F83A302846F8F7F9F980462846F8F784
:108C1400F0F9344402464146204612F001FB49462D
:108C24003046F8F749F901220549FFF781FF143767
:108C3400BD46BDE8F08F00BF06F30208DCFF020862
:108C44000CFA020870B545680024AB68A34200D84A
:108C540070BDEB6853F83400E60078B104280DD0F9
:108C640006F04CFA03785F2B08D0EB68985906F0AD
:108C74002FFAEB6833445968FFF714FA0134E4E738
:108C84002DE9F043214C16462268526897B0D26809
:108C94000092226852689268019222685268D660F3
:108CA400226852688046936004A88946F7F784FADC
:108CB40025460746F0B9D8F800404A46414602A87E
:108CC400FAF750FF21463A4602A8FDF7BFFC0446D6
:108CD40016B1FFF7C9FA0446F7F764FA009A2B684D
:108CE4005B68DA60019A2B685B6820469A6017B06B
:108CF400BDE8F083009A236805985B68DA60019AFE
:108D040023685B689A60F7F76FFA00BFC008002019
:108D140008B519B902F03AFBF7F766FA02F044FB1A
:108D2400FAE7000008B50446F7F786FB18B10549D1
:108D34000548FFF7EDFF22460449034802F062FBB1
:108D4400F7F752FA30F202084401030859F2020814
:108D5400014608B50148FFF7DBFF00BF1404030810
:108D64002DE9F047072886B082468946174603D185
:108D7400914210D0B74E2DE1022801D005280CD124
:108D84003946484600F044FE10B1BAF1020FF0E74C
:108D9400BAF1020FEED0B04E1CE1082828D11046DB
:108DA40002F08EFB30B13946484602F0A6FB00289B
:108DB400F1D1DFE717F0030440F030813A68A74BA4
:108DC4009A4240F02B8107F108067B68A342D1D96F
:108DD40056F8045B284602F073FB002800F0528129
:108DE4002946484602F089FB0028D4D10134ECE737
:108DF40011F0010F00F0258112F001084FEA61051E
:108E040000F0FC805410232800F20881DFE810F001
:108E1400E600EA000601EE00F20006010601060182
:108E2400060124003000330036006B007300760026
:108E34007900060185008E009F00A7002400300001
:108E4400330036006B00730076007900060185005C
:108E54008E009F00A700CB0045EA04084FEA4806AD
:108E640096EA080F56D54046C11703F069FB6CE03B
:108E740085EA0408F2E705EA0408EFE7002C02DAC1
:108E84007748FFF765FF1F2C09DC6FF0404323414F
:108E9400AB4204DB4FF040432341AB4220DD284684
:108EA400E91703F04DFB8146484600F017FD83693E
:108EB400002B40F0DF80BAF1240F40F0AF8002A90C
:108EC4004846FFF7FFFA04462046FFF75FFB0028F9
:108ED4003FF450AF394600F09BFD0028F4D05AE728
:108EE40005FA04F8BAE7002CCADB1F2CA8BF1F241C
:108EF40045FA04F8B2E705EB0408AFE7A5EB04086C
:108F0400ACE7214628460CF047FC0028C7D104FBF7
:108F140005F6760046F001065CE0002C00F0B48013
:108F2400214628460CF069FC804697E7002C00F0A7
:108F3400AB8007EE905AB8EEE70A07EE904AF8EED7
:108F4400E77A80EE270A02F017FC064642E0002C7E
:108F540000F09A80214628460CF041FCE4E7002CFE
:108F64001FDA07EE905A1146B8EEE70A02F070FCD9
:108F7400EBE7E20707D5314640460CF00DFC00282C
:108F84008DD106FB08F8012C3FF468AF314630461A
:108F940064100CF001FC002881D17643002CE8D148
:108FA4005CE72E46FAE7002C6ED00021022007F081
:108FB4004BFB2146064628460CF01FFC400040F0BF
:108FC4000100B060214628460CF009FC400040F046
:108FD4000100F060304606B0BDE8F087A542FFF618
:108FE400DAAEC7E6A5423FF7D6AEC3E6A5427FF7A1
:108FF400D2AEBFE6A542BFF6CEAEBBE6930720D104
:109004001268184B9A421CD107EE905A3946B8EEB2
:10901400E70A02F01DFC06460028DBD1124B484645
:1090240013F80A4000F06AFC0546384600F066FC76
:109034002B46009022460D490D4802F0E3F9F7F75C
:10904400D3F8BAF1060F01BF4B464FF0240AB946D4
:109054001F4629E704FA02080CFA0208981B0308C1
:1090640087F20208D80403081A1C03089CF20208B9
:109074009C0303083A46494650469847064600284A
:10908400A8D118E72F46C9E701490248FFF740FE77
:10909400C1F2020850040308014608B50148FFF76D
:1090A40037FE00BF9C0303082DE9F0410446174630
:1090B4001E460D4641B1186800F010FC63688342F7
:1090C40002D00548FFF7E8FF33463A462946A06830
:1090D400BDE8F041FFF7A8B818F20208410008B54E
:1090E40041F00101024802F055F9F7F77DF800BF9D
:1090F400F8010308014608B50148FFF709FE00BF5F
:10910400BC01030808B540F25E31024802F042F99E
:10911400F7F76AF87002030830B593B0044668465E
:109124000D46F7F749F848B920462946FFF7A1F854
:109134000446F7F737F8204613B030BD01990248CA
:1091440000F006FC0024F6E790E50208EFF3108136
:1091540072B6084AB2F8E8311B0443BFB2F8E831EA
:1091640003F1FF331BB24FF6FF73A2F8E83181F32A
:109174001088704710060020EFF3108172B60C4B74
:10918400B3F8E821013212B2A3F8E82118463AB93B
:10919400DA6C12B993F8EA212AB10023A0F8E83175
:1091A40081F3108870470122A3F8E821F8E700BF93
:1091B4001006002070B5124B93F8EA414FF6FF7287
:1091C400A3F8E821CCB193F8EB2102F10A0103EBF7
:1091D400C106013202F00702013C53F831507168B4
:1091E40083F8EB2183F8EA4180F310882846FFF7DF
:1091F40093FFBDE87040FFF7BFBF80F31088F8E726
:109204001006002008B50D4BB3F8E82112B2A2B93C
:10921400EFF3108172B6D86C50B1DA6493F8EA2196
:1092240012B90122A3F8E82181F31088F6F7DCFFD4
:109234000846BDE80840FFF7BDBF08BD1006002082
:1092440070B5EFF3108572B60F4B93F8EA41082C12
:1092540018D0B3F8E82112B2012A04BF0022A3F8FF
:10926400E82193F8EB21224402F00702661C09323C
:1092740083F8EA6103EBC203C3E90201012085F329
:10928400108870BD0020FAE710060020024B1B680E
:109294005B681860704700BFC0080020044B1B685F
:1092A4005B6882B0186801ABC01A02B0704700BF97
:1092B400C0080020024B1B685B685860704700BF01
:1092C400C008002008B5FFF7E9FF044B1B685B6882
:1092D4005B68984201D3FFF715FF08BDC008002062
:1092E40010B503461446500CC2F34F0221B1E107F6
:1092F40002D40D48FFF7D0FE904207D1984212D015
:109304000A4902460A4802F07DF806E0984206D966
:10931400C21A0849064802F075F8F6F765FF9A4242
:1093240001D20549EEE710BDADF40208D5F40208F8
:109334009C0303080EF5020840F502082DE9F74FD7
:10934400DDE90CA5002481468B4690460193264610
:109354002746019B9C4204D14F453CD22348FFF74A
:109364009BFE4C450FD2BAF802209205F6D45BF866
:10937400240001379AF80220012A25D100F0E8FCE4
:1093840005F8240019E0BAF800108900002241F021
:109394000201404600F088F898B9BAF80220D305D3
:1093A40007D5BAF800201249124802F02BF8F6F754
:1093B4001BFFDAF8042045F8242001340AF1080AD6
:1093C400C7E701364068D5E7022A01D100F072FBF5
:1093D40045F82400F1E7D8F80030B6EBD30F01D2FA
:1093E4000548BCE703B0BDE8F08F00BFC8F502082C
:1093F400B1F502089C030308E9F5020870B586B0CC
:109404000446154602EB800203A81E4600F01FF82E
:109414000B9B01930A9B009303AA334629462046DB
:10942400FFF78CFF06B070BD08B50148FFF762FE78
:109434006FF5020810B50446416019B98160012333
:10944400236010BDC800F6F70EFFA060F7E70368BD
:10945400416061F3DF03036003F0F80343F00703A3
:1094640003708260704703789B0710B5044602D4EA
:109474008068F6F707FF2368002262F3DF03626067
:10948400236010BD03789B0710B5044602D480689E
:10949400F6F7F8FE236803F0040343F001032360A6
:1094A4000023C4E9013310BD03782DE9F74F13F00D
:1094B400010804460E4692460ED001F00302022A29
:1094C40008D01AB908687F4988423FD0BAF1010F21
:1094D40040F0F5804FF001085B0764D52768A56864
:1094E40027F007072F44BD4232D3BAF1010F40F0F1
:1094F400E680D4E90013C1F3DC01994211D10431AF
:109504006160A068C900F6F7B0FE23686268A060D5
:10951400C3F3DC03D21AD200002100EBC30011F024
:10952400C3FE2368A168C3F3DC02501C60F3DF03AD
:10953400236041F8326006F00306022E01EBC205F7
:1095440023D023786FF3000323701EE09046C3E713
:109554002868B0421DD1BAF1020F16D123686E6893
:109564007A1B083B22F0070205F108012360083A40
:10957400284611F081FE2368A268C3F3DC0302EBE2
:10958400C305002142F833106E60284603B0BDE8DD
:10959400F08FB8F1000F04D1314600F039FA0028F9
:1095A400D9D108359FE7636833B9BAF1010F40F0A8
:1095B4008680204600F088F806F0030BBBF1020F0A
:1095C40028D1B008F7F710FD02466368B2FBF3F147
:1095D40003FB11231F464FF00009A16851F837001F
:1095E40001EBC705E0B9BAF1010F68D12368C3F3F1
:1095F400DC020132B9F1000F18BF4D4662F3DF03FC
:10960400BBF1020F2360C5E90060BED0237860F38C
:10961400000399E731460620FEF774FD4210D4E7B3
:10962400042822D1B9F1000F08BFA94661680137A7
:10963400B7FBF1F001FB1077BB42CED1BAF1010FB9
:109644003DD1B9F1000F33D0236800220833BBF1B8
:10965400020F2360C9F80060C9F8042003D02378FE
:1096640062F3000323704D468FE7B04211D1BAF183
:10967400020F8AD123686268083B01372360B7FB75
:10968400F2F302FB1377A36853F8373073B92B60F6
:109694007BE7B8F1000FC9D13146CDE9003200F0C3
:1096A400B7F9DDE900320028C0D0E0E70423EEE793
:1096B4002046009200F008F86368009A86E70025C7
:1096C40063E700BFC81803082DE9F04146681A494A
:1096D4000446731C002231F8025BAB4206D9013206
:1096E400222AF8D103EB530343F00105E800A768ED
:1096F400F6F7B9FD2368656003F0060343F0010340
:109704002360A0603D1D4FF00008B04504D13846E9
:10971400BDE8F041F6F7B6BD55F8041C39B104298B
:1097240005D001222046FFF7BFFE2B68436008F1F5
:1097340001080835E9E700BF08F6020810B5002360
:109744000446016043608800F6F78DFDA06010BDFB
:1097540003682DE9F74F04468946924623B912F06F
:10976400010F5DD000F05EF849460620FEF7CAFC02
:1097740022684FEA600B0AF00103BBFBF2F8009386
:1097840002FB18B845460026A06850F82570AA00C8
:10979400811867B91AF0010F42D0002E08BF0E4697
:1097A4006368013363604F46C6F8009032E0042FCB
:1097B40017D1002E08BF0E4622680135B5FBF2F121
:1097C40002FB1155A845DFD1009B4BB3002EE7D116
:1097D400204600F027F82268BBFBF2F802FB18B819
:1097E400D0E749463846019200F012F9019A002860
:1097F400E2D01AF0020F0DD063682068013B0135F6
:109804006360B5FBF0F1A36800FB115553F8251014
:1098140021B99950384603B0BDE8F08F0421F8E728
:109824000027F7E7F8B505688668154904466B1CF8
:10983400002231F8020B834206D90132222AF8D1E0
:1098440003EB530343F001000023206063608000B6
:10985400F6F709FD3746A06006EB8505AF4204D153
:109864003046BDE8F840F6F70DBD57F8041B002953
:10987400F4D00429F2D001222046FFF769FFEDE776
:1098840008F6020870B501680023994201D100224C
:1098940014E0846854F8232004EB83060133002A7F
:1098A400F3D0042AF1D04568013D4560B3FBF1F0E3
:1098B40001FB103354F8233013B93360104670BDE4
:1098C4000423FAE710B504468068F6F7DBFC0023AE
:1098D400C4E90033A36010BD70470000C30705D47A
:1098E40000F00303022B03D000687047014870475F
:1098F40001487047C4080308C818030808B5FFF7EF
:10990400EDFFBDE80840C088F7F778BB70B50D4699
:1099140004461646FFF7D6FC2846FFF7DFFF8368A8
:109924002BB1324629462046BDE870401847C2880C
:1099340002492046BDE87040F8F758B88CF7020891
:109944000A4601460148FFF7E1BF00BF342D030872
:109954002DE9F347054608460E4601F0C7FD98B1C8
:1099640001AA6946304601F02BFE009B63B11A49F7
:109974001A4FDFF87080DFF868902846F7F7F5FC97
:10998400009C033C002C0BDA022231462846FFF7E8
:10999400BDFF13492846F7F7E8FC02B0BDE8F0879D
:1099A400019A4FEA840A02EB0A0339465B6852F8CB
:1099B40024202846F8F71AF8019B53449A682AB9D8
:1099C40049462846F7F7D1FC033CDBE741462846E5
:1099D400F8F70CF8F8E700BF4AF702086EF7020838
:1099E400F7C1020883F7020808B50246FFF776FFBD
:1099F400064B0069984204D11046BDE8084007F0C0
:109A0400ABBC003018BF012008BD00BF79110108AC
:109A1400884210B5044605D1830741D10268214B21
:109A24009A423DD1204B9C4201D1002010BD994265
:109A3400FBD0E00704D5CA07F7D423460C461946E1
:109A440004F00302022A01F0030304D082B920685F
:109A5400164A90420CD1022B05D0002BE5D10A689E
:109A6400124B9A42E1D12046BDE8104005F0E8BA15
:109A7400022BDAD01BB90A680C4B9A42D5D0204687
:109A8400FFF72CFF8369002BCFD00A460220214622
:109A940098470028C9D0064BC31A58425841C5E715
:109AA4000120C3E7D8040308BC0D0308C818030841
:109AB4000CFA020808B50E4B9842014614D00D4B1F
:109AC400984213D0C20701D5401008BD830707D1BF
:109AD4000268094B9A4203D1BDE8084002F0ECBD8C
:109AE4000820FEF70FFBF7E70020EEE70120ECE784
:109AF40004FA02080CFA0208C4080308C20705D4D1
:109B0400830705D10268034B9A4201D102F0CCBD10
:109B1400FFF7D0BFC4080308114B984210B50C4698
:109B240003D100230B60012004E00E4B984202D1C4
:109B34000120086010BD10F0010102D04210226023
:109B4400F1E710F0030307D10168074A914205D1F8
:109B540002F0B2FD2060E6E70846EBE71846E9E7C5
:109B640004FA02080CFA0208C4080308164A9042D0
:109B740010B50C461ED0154A90421ED010F00101BB
:109B840008D0431000EE103AB8EEC00A84ED000A83
:109B9400012010BD10F0030212D103680C498B425E
:109BA40002D102F0C1FEF1E70A498B420AD101F069
:109BB4004BFEEBE79FED080AE8E7B7EE000AE5E79E
:109BC4000846E6E71046E4E704FA02080CFA02083D
:109BD400C4080308D80403080000000013B501A951
:109BE4000446FFF7C3FF48B92046FFF787FE05493F
:109BF4000246054801F006FCF6F7F6FA9DED010A67
:109C040002B010BD0FF702089C03030838B584079F
:109C140003460ED104680C4DAC4203D1BDE8384074
:109C240006F028BE094DAC4203D1BDE8384003F02C
:109C340049B91846FFF762FE05490246054801F096
:109C4400E1FBF6F7D1FA00BF981B03085C0A03088E
:109C5400C0F602089C03030813B50C4601A9FFF7DC
:109C6400D5FF019BA34206D022460449044801F0D3
:109C7400C9FBF6F7B9FA02B010BD00BFE2F602085C
:109C840014040308F7B51F46D30706460D461446C9
:109C94000FD554100194019A002ABCBF52190192A5
:109CA400019AE7B1002A16DA00230193019803B060
:109CB400F0BD01A91046FFF72FFF0028EBD1204685
:109CC400F588FFF71BFE2A4603460A490A4801F0B5
:109CD40099FBF6F789FAAA42E8D90195E6E7002A42
:109CE40001DBAA42E2D3F2880449054801F08AFB69
:109CF400EFE700BF7DF602089C030308A1F6020803
:109D040054000308820701D002F02ABC002801DABB
:109D140002F0A8BC400040F001007047830710B572
:109D2400014608D10268094B9A4204D18068400078
:109D340040F0010010BD0846FFF7D0FD43691BB198
:109D44000520BDE8104018471846F3E7EC15030852
:109D540038B5144B9842044622D0134DA84201D181
:109D6400012038BD114B98421AD0C20704D510F116
:109D7400FF3018BF0120F4E7FFF7B0FD43693BB1A2
:109D840021460420984718B1431B58425841E8E73C
:109D94002046FFF7C3FF0028E2D010F1FF30E8E7C8
:109DA4000020DEE704FA02080CFA0208BC0D0308DE
:109DB40010B50446FFF7B2FF48B92046FFF79EFDF1
:109DC40003490246034801F01DFBF6F70DFA10BDE6
:109DD40029F702089C03030838B504461546FFF723
:109DE4007DFD036A13B120469847B0B9204645B9B2
:109DF400FFF784FD09490246094801F003FBF6F721
:109E0400F3F9042D04D1FFF779FD06490246F3E77F
:109E1400FFF774FD04490246EEE738BD91F70208E6
:109E24009C030308BBF70208DBF70208704710B570
:109E34000446FFF753FDC36A2BB120469847B0FA96
:109E440080F0400910BD1846FCE7000008B5FFF794
:109E5400EEFF10B90148FFF71FF908BD58F60208D4
:109E6400062806BF480040F00100002070470000AB
:109E7400042803D0052808D0002070478A68054BC1
:109E84000548002A08BF184670478868400040F01B
:109E94000100704704FA02080CFA0208074B026832
:109EA400C1E900300023C1E90233054B9A4202BFE5
:109EB4004368C3F317238B600846704718F80208F9
:109EC40088F90208F8B50D460179044601F07F01CE
:109ED40016464020002207F0DBFFA2682379E168E0
:109EE4002768296042436A6003F07F02AA60084A37
:109EF400974209D11A0601D4B30707D46368C3F3A0
:109F0400172300FB03132B600020F8BD0120FCE79E
:109F140088F90208F8B5002205460E46014640209D
:109F240007F0B6FF07461020F6F784F9094A0A4BF2
:109F34000571012D18BF1346036043686FF31F2397
:109F44000446C0E9013606FB07F0F6F773F9E06052
:109F54002046F8BD10F902084CF902087FB5044602
:109F64000122084601A9FFF771FF00222179402050
:109F740007F08EFF6368029DB5FBF0F5C3F317226B
:109F8400AA42064619D2A16829444143E068F6F77B
:109F94006CF96368E0606FF31F236360D4E9020324
:109FA40005FB06F200FB0630019911F039F9A368AC
:109FB40004481D44A56004B070BD521B62F31F2306
:109FC400EBE700BFBC0D03082DE9F041456835F00F
:109FD400FF05044688461ED101792A46402007F031
:109FE40057FF6368A168082262F31F2311440646E1
:109FF40041436360E068F6F738F96168A268E0609D
:10A00400C1F31721013902FB0667384406FB01F24C
:10A01400294611F049F943462079D4E9022108F090
:10A0240061F9A36804480133A3606368A3F58073EE
:10A034006360BDE8F08100BFBC0D03084268C368DB
:10A0440091688B4230B40AD21479D16882685D1C5D
:10A05400C5601A4404F07F0030BC07F083BF0020C1
:10A0640030BC70472DE9F04F044687B00D461646C4
:10A074000AB90025C6E011F003078068DFF818A2CA
:10A0840040F0D6800B687D4A934240F0D1806A4606
:10A0940007F093FB10B97A48FFF72CF82179042EC6
:10A0A40001F07F013A464FF0400000F0948007F041
:10A0B400EFFE16F00302054659D133687149186A58
:10A0C400884247D13179402001F07F0107F0E0FE5A
:10A0D400A84202D06C48FEF73BFE33685345D6E9EC
:10A0E400028B04D17368C3F3172305FB03BBDDE9BB
:10A0F40000022368E668A2EB00095345A8EB0907B0
:10A1040037D194F90430002BB3DA002FE2D163681D
:10A11400C3F3172305FB036605FB08F2594605FB49
:10A12400006011F07DF80199A2680098521A404429
:10A134006A4305FB016105FB006011F09DF8A0680E
:10A14400A9EB080238446A43002105FB006011F0C2
:10A15400ABF835E04D4A934209D1012DBAD12A46D4
:10A1640003A93046FFF772FEDDE903B8BFE74848AC
:10A1740092E7002FD0DD6368B7EB132F0BDDA168E6
:10A18400394430466943F6F770F86368E06067F372
:10A194001F23064663600098A268019940443A442C
:10A1A400121A6A4301FB056105FB006011F064F8B3
:10A1B400009805FB08F2594600FB056011F05CF8B5
:10A1C4006368C7EB132262F31F236360A3681F4411
:10A1D400A760304D16E007F05BFE23685345064642
:10A1E40014D11020F6F726F8054694E80F0085E808
:10A1F4000F00009A02EB112363F31F216960019B96
:10A204009B1AAB60284607B0BDE8F08FDDE900314A
:10A214002079C91AFFF77EFEDDE90032E168D21A1F
:10A224000546724306FB0311C06810F0F9FFE9E725
:10A2340000232A4601462068FFF724FD236853457E
:10A24400024611D16368042E00EB13220ED094F958
:10A254000430002BBFF60DAF2079E168334600F0DF
:10A264007F0008F03FF8B4E7042EF5D12079E168C7
:10A2740000F07F0007F076FE0546C3E7E01103080F
:10A284009AF8020869A00008CBF80208EC15030844
:10A29400ECF80208BC0D030888F9020870B50E2812
:10A2A40088B006460C46154651D003D8022865D01E
:10A2B400002449E01B281FD02428F9D1012205A934
:10A2C4002846FFF7B4FD00284AD0A10712D122681E
:10A2D400364B9A420ED1012202A92046FFF7F2FD25
:10A2E40001230093DDE90201DDE9052304F012F9FD
:10A2F400002858D12E4C27E0012202A92046FFF75E
:10A30400E1FD2846012205A9FFF7A0FD00229DF8E2
:10A314001010402007F0BCFDA168069DB5FBF0F5C8
:10A32400064629449DF81000FFF7F4FD0446DDE9D4
:10A334000212C06810F074FFE068039B059905FBE6
:10A3440006F2184410F06CFF204608B070BD0A688D
:10A35400184B9A42ACD029462046FFF7FFFDF3E79D
:10A36400EA0708D4AB07C5D12B68134A934202D03D
:10A37400124A9342BED10020FEF7BCFE012202A97C
:10A384002046FFF79FFD012205A92846FFF74FFD50
:10A394000028AFD0069B0093DDE90212059B3046EE
:10A3A40007F04AFAA4E7064CCEE700BF4CF90208CE
:10A3B40004FA020888F90208C4080308D804030848
:10A3C4000CFA02082DE9F043012885B006460F4631
:10A3D40008D08B0724D10B68254A934202D0254A22
:10A3E40093421DD1012201A93846FFF720FDB8B1DF
:10A3F40000223146402007F04BFD029CB4FBF0F4F0
:10A40400074621463046FFF785FD04FB07F2054663
:10A414000199C06810F004FF284605B0BDE8F08338
:10A424003846FFF77BFCB8B1441021463046FFF7AD
:10A4340071FD002105463846FEF744F800278046A2
:10A444004046FEF7A3F803460028E5D034B9194680
:10A454002846FFF7B9FDF3E70446E6E73A4607F175
:10A464000109E968304607F03DFF4F46E8E700BFC1
:10A47400EC1503084CF9020838B50D461C46114684
:10A484002846094AFEF72CFF206804F037FE012D08
:10A49400007804D10021BDE83840FFF73BBD616876
:10A4A400BDE83840FFF78EBF04000200F8B50E790E
:10A4B400012E05460C460ED11A49F6F756FF3346CF
:10A4C400D4E90221284603F04BFF28461649BDE88B
:10A4D400F840F6F74ABF32461449F7F787FAA368FB
:10A4E400002BF2D01249134F2846F6F73EFF002600
:10A4F400A368B34204D810492846F6F736FFE4E7C8
:10A504001EB139462846F6F730FF3246E168207915
:10A5140007F028FD012201462846FFF7F7F9013626
:10A52400E6E700BF7CF80208BB7E030888F802084F
:10A5340093F8020897F80208E884030838B50C4633
:10A544002046114606221D46FEF7CAFE2CB92146B6
:10A554000120BDE83840FFF7DDBC2968CA070AD4EA
:10A564008B0703D10A680C4B9A4204D00120BDE842
:10A574003840FFF727BF0846FFF79CFA0546014617
:10A584000120FFF7C7FC2A4604460021C06810F0EA
:10A594008BFE204638BD00BFC408030870B50446CE
:10A5A400102015460E46F5F745FE04714468044A2A
:10A5B40002606FF31F24C0E90146C56070BD00BF8F
:10A5C40088F902087FB51D46084611464FF002126D
:10A5D400FEF786FE012201A92868FFF737FC9DF8E3
:10A5E4000C40029E21460022402007F051FC019AB3
:10A5F400B6FBF0F12046FFF7D1FF0322044601A980
:10A604002868FFF714FC18B1237963F07F032371E2
:10A61400204604B070BD000038B5054610200C4635
:10A62400F5F708FE034A02600122C0E90125C4606F
:10A6340038BD00BF4CF90208136870B56BB94468A3
:10A64400A51C50F825509C4207D055F82360B14210
:10A6540004D1023350F82330136070BD0133F2E7A4
:10A664002DE9F04788461449DFF85490DFF854A0E8
:10A6740016460546F6F779FE06F1080700247368C6
:10A68400A34205D828460D49BDE8F047F6F76DBE4C
:10A694001CB149462846F6F768FE58F8242051466E
:10A6A4002846F7F7A3F9012257F8041B2846FFF7B9
:10A6B4002DF90134E3E700BF29120308BB7E030828
:10A6C40097F80208C4F902084B6802330A4651F8A5
:10A6D4002310FFF7C5BF0979490041F00101FEF7D6
:10A6E4003FBB052805D00979490041F00101FDF778
:10A6F40009BD00207047000038B50C4620461146BD
:10A7040002221D46FEF7ECFD1CB12868FFF720FB72
:10A7140008B9024838BD0248FCE700BF04FA020841
:10A724000CFA0208032A0B7905D113B10449F6F790
:10A734001CBE0449FBE70BB10349F8E70349F6E7FC
:10A7440098E502089DE50208A8E602089DE60208CD
:10A75400136813B94068FDF707BE70472DE9F84F39
:10A76400994602EB43035D1C042B00AF82468B46E3
:10A7740090464FEA85051DD8EB1D23F00703ADEB8A
:10A78400030D6C46002620462A1FB96A40F804BB14
:10A7940010F046FD23464A4608F101015046FDF7F4
:10A7A40043FD044616B13046F5F76CFD2046BD4620
:10A7B400BDE8F88F2846F5F748FD04460028DBD0AD
:10A7C4000646E0E707B5009313460A46D0E90101BF
:10A7D400FFF7C4FF03B05DF804FB000038B505467D
:10A7E4000C200C46F5F726FD024A8460C0E90025DA
:10A7F40038BD00BF50FA0208406870474160704796
:10A8040010B504460820F5F715FD024AC0E90024F6
:10A8140010BD00BF8CFA02082DE9F04F8668550080
:10A8240006EB0109044609EB050005280D4487B031
:10A834008A461746984604F10C0B4FEA850516D84C
:10A84400B6003246594601A810F0EAFC01AB2A468C
:10A854004146981910F0E4FC606801AB3A46494659
:10A86400FDF7E2FC0446204607B0BDE8F08F800007
:10A87400F5F7E0FCA26859469200064610F0D0FCB9
:10A88400A0682A46414606EB800010F0C9FCA16886
:10A89400606833463A465144FDF7C6FC04463046E8
:10A8A400F5F7F0FCDFE700002DE9F041CD1CAD0029
:10A8B400804628460E461746F5F7BCFC064B8660D4
:10A8C4000446C0E90038A5F10C0239460C3010F0FA
:10A8D400A7FC2046BDE8F081C8FA02082DE9F04142
:10A8E4001E460F46804611463846134AFEF7F8FCCA
:10A8F4003268124B9A4202D00020FEF729FA70689F
:10A90400FFF7D8F8051EF7DB1820F5F793FC04468B
:10A91400C0F800800023681C6060C4E90233800032
:10A92400F5F7A1FC022F206103D9B068FFF7C2F844
:10A9340060612046BDE8F081060004008C1B03081A
:10A94400042810B503D0052809D0002010BDD1E992
:10A9540002420848084B944208BF1846F6E7D1E97A
:10A964000230C01A44BF4B68C018400040F00100D8
:10A97400ECE700BF0CFA020804FA0208D0E902313D
:10A984008B4210B5024603D108490948FEF7C0F9C5
:10A994000169002451F8230041F823405168013330
:10A9A4008B4208BF2346936010BD00BF55FC0208CC
:10A9B4005400030870B5C5684268466984686B1C16
:10A9C4009A4208BF0023F60705D5A34203D10849DC
:10A9D4000848FEF79DF90669A34246F82510C360AE
:10A9E40004D101339A4208BF00238360024870BD3A
:10A9F400472B030854000308BC0D0308044B0B60E9
:10AA0400037A0B7143688B600023CB600846704760
:10AA1400B4FC0208044B0B6001230B710023886013
:10AA2400CB600846704700BFB4FC020810B504466A
:10AA34000C20F5F7FFFB034AC0E90024022202724E
:10AA440010BD00BFF8FC020808B503799B0702D5C6
:10AA54000020FEF721FB08BD10B50446FFF7F4FF04
:10AA6400201DFEF70FFD014810BD00BFBC0D0308FB
:10AA7400042803D0052809D0002070474B680748F4
:10AA840033F00703064B08BF184670474868C0F305
:10AA9400DC00400040F00100704700BF0CFA0208DF
:10AAA40004FA0208F8B507460D460E68144612B1BA
:10AAB4003046FFF7C9FF22466968301DFEF7F4FCF3
:10AAC40008B143688BB9022F07D1022C0BD16968F6
:10AAD400084800F05FFCF5F787FBAB68012C00D158
:10AAE40043601846F8BD044BF8E7022C04BF00226B
:10AAF4004260F6E790000308BC0D03080122FFF74B
:10AB0400D1BF0222FFF7CEBF0022FFF7CBBF30B583
:10AB14000B688568AB4201D300220AE0C46804EBE9
:10AB2400C30254F833400133002CF3D0042CF1D089
:10AB34000B60104630BD13B5044600F10C0180686B
:10AB4400FFF7E5FF60B12379012B0BD0022B0BD06B
:10AB540003680093436801936946022005F074FD7D
:10AB640002B010BD0068FBE74068F9E7F0B5174B89
:10AB74000A7A174F85B00D46044653F82210F6F7AB
:10AB8400F4FB14492046F6F7F0FB134B00932B7AA1
:10AB94008DF804306B680293002303930126684602
:10ABA400FFF7C9FF054628B90C492046F6F7DDFB37
:10ABB40005B0F0BD1EB939462046F6F7D6FB012292
:10ABC40029462046FEF7A2FE0026E8E734FD0208E7
:10ABD40097F80208F0FC0208B4FC0208F3FC02082F
:10ABE4002DE9F3470C681646074620460D46FFF745
:10ABF4002BFF3168314AC9083846FEF771FB022F32
:10AC040014D1686810F003031BD10268D1682C4A80
:10AC1400914216D12A68904208D0019304F10408A5
:10AC240001A96868FFF773FF074610B900250434CB
:10AC34003CE0012239684046FEF736FC7B684360FD
:10AC4400EEE70021FDF73EFC04F1040A8146484684
:10AC5400FDF79CFC0028E9D00021FDF733FC804679
:10AC6400FDF794FC07464046FDF790FC0546404638
:10AC7400FDF78CFC0FB105B110B11248FEF768F86E
:10AC8400012239465046FEF70FFC4560DFE7B36802
:10AC940053F8351003EBC50739B1042905D0012257
:10ACA4002046FEF701FC7B68436001357368AB42C4
:10ACB400EDD8054802B0BDE8F08700BF05000200EA
:10ACC40021B0000878FC0208BC0D030830B5044626
:10ACD40085B0FFF7B9FE002501A920460195FFF7CD
:10ACE40016FF18B909490A48FEF712F86368083BC9
:10ACF400636003680293436803930423C0E9003547
:10AD040002A9022005F0A0FC05B030BD3CFC0208FD
:10AD1400900003080228F7B50D4614460BD02428EA
:10AD240057D100222146281DFEF7BEFB002840D142
:10AD34002A4803B0F0BD02F003038A0725D10A684C
:10AD440027498A4221D1002BF2D1216891421ED198
:10AD5400CDE9003369462846FFF7D9FE01A9074625
:10AD64002046FFF7D4FE0646002F34D00028DFD05B
:10AD740031683868FEF74CFE0028D9D071687868CD
:10AD8400FEF746FE0028E5D1D2E7002BD0D1226899
:10AD9400144B9A42CCD16B686268534033F007037A
:10ADA400C6D10193043401A92846FFF7B0FE064634
:10ADB40008B90D48BDE7002231682046FEF774FB50
:10ADC4000028B5D041687068FEF722FE0028EAD159
:10ADD400AEE70020ADE70028AAD1EAE704FA0208AA
:10ADE4007CFD020840FD02080CFA020810B40C7A3B
:10ADF400012C06D1242804D149685DF8044BFFF7DF
:10AE040089BF00205DF8044B704700002DE9F04F26
:10AE14000B68324E032A154618BF0125B34285B08C
:10AE24000446884605D0032D03D0DA882C49F6F76A
:10AE3400DDFD2C49DFF8BCA0DFF8BC90DFF8BCB026
:10AE44002046F6F792FA00230393012303A9404610
:10AE54000193FFF75CFE019B074680B92249204617
:10AE6400F6F783FAD8F80030B34205D0032D03D0A7
:10AE74001E492046F6F779FA05B0BDE8F08F1BB9F4
:10AE840051462046F6F771FA032D25D13A6802F0AF
:10AE94000303022B20D01BB9126892695A4504D0CF
:10AEA40049462046F6F761FA01232A463968019398
:10AEB4002046FEF72BFD019B1BB149462046F6F7C1
:10AEC40054FA0B492046F6F750FA2A467968204688
:10AED400FEF71CFD0023B9E70023E6E740FD020866
:10AEE40064FC020868FC0208E3CA0208BB7E03088B
:10AEF400564E030897F802086AFC020869F1000834
:10AF040010B504460C20F5F795F9034AC0E900246E
:10AF14000022027210BD00BFF8FC020810B50446FE
:10AF24000C20F5F787F9034AC0E9002401220272D4
:10AF340010BD00BFF8FC020810B5002204300C4616
:10AF4400FEF7B2FA28B92146034800F023FAF5F7D0
:10AF54004BF9406810BD00BF90000308024B40F855
:10AF6400043BFEF767BA00BF40FD020838B505464A
:10AF74001020F5F75FF929460446FFF7EFFF204656
:10AF840038BD0000F8B50C46054600216068FDF7A1
:10AF940099FA022D064660688CBFA5680B4DFEF732
:10AFA400BDFE50B9FFF7E2FF0446071D3046FDF72A
:10AFB400EDFA014618B92046F8BD4010F2E7012227
:10AFC4003846FEF771FA4560F0E700BFBC0D030890
:10AFD40038B505468068FFF7C9FF2B6803606B68C6
:10AFE4004268C3F3DC0363F3DF0242602A79037926
:10AFF40062F300036FF3410303712B790279C3F306
:10B00400800363F382020271AA68E9680446D200ED
:10B01400C06810F005F9204638BD00002DE9F04164
:10B02400804686B000200D4616461F46FFF79EFF59
:10B034000F4BC0F800809845044602BF007940F0E9
:10B044000400207155EA06030DD03B68019407EB18
:10B054008502314603A80293FEF7F9F903AA01A970
:10B06400681CFFF7BDFD204606B0BDE8F08100BFB7
:10B074007CFD02084068C008704770B504460E465F
:10B084001546FFF7E1FC01223146201DFEF70CFABC
:10B094004560204670BD13B50222CDE90001044687
:10B0A40069461046FFF7FEFC204602B010BD0000C2
:10B0B40038B50C461AB9FFF7EEFF0A480DE0042A2A
:10B0C4000CD100220430FEF7EFF928B921460648D6
:10B0D40000F060F9F5F788F8406838BDFFF7CDFF58
:10B0E400EBE700BFBC0D03089000030813B504464A
:10B0F4004068FDF74BFA58B1A3685A1C5B0043F053
:10B104000103CDE90030A2606946022005F09CFAF3
:10B1140002B010BD30B585B00546084611461A4642
:10B1240002AB0193094B00930223FEF767F90C204D
:10B13400F5F780F80021044605600298FDF7C2F98E
:10B14400039B60602046A36005B030BDDCFD0208AF
:10B154002DE9F041174602F07F063A0604460D46F3
:10B164001AD4731E012B17D80B68D888F5F746FF3D
:10B1740001462046F6F7F9F8022E11D11B49204664
:10B18400F6F7F3F8EB680BB15A6882B92046184910
:10B19400BDE8F041F6F7E9B8022EEFD0002EF1D069
:10B1A4003A46E9682046BDE8F04105F0CDB9012AE8
:10B1B400F6D129680F4A91420FD19868C3070CD57C
:10B1C40008F014FE034640B1EA680B499268204631
:10B1D4005210BDE8F041F6F709BCEB6820460022A6
:10B1E4009968BDE8F041FEF791BB00BF564E0308D5
:10B1F400C34E0308F801030828FE02082DE9F843AA
:10B2040088460446114640461A4A1B4E9946FEF7A4
:10B2140067F81020F5F719F8002814BF07463746D9
:10B2240000233C60BB60B8F1000F04D1134CFC60F8
:10B234003846BDE8F88308F10205AD002846F5F765
:10B2440004F8044650B9D6F8CC2105F118039A4203
:10B25400A6F11806EAD3B46A1834E7D0084BA5F16E
:10B264000802C4E90038494604F108000FF0D8FF89
:10B27400DDE700BFFEFF0100280600208C1B030849
:10B28400981B0308F8B51546D0E901320F46511949
:10B29400994204460FD30178D9B105F110061E4432
:10B2A40001223146C068F4F7EBFF78B96568A368FA
:10B2B4002070013DED1AD4E902302A46184439467B
:10B2C4000FF0AEFFA3681D44A560F8BD6660E060A2
:10B2D400F1E75D1EAD1AEEE7024B0022C3F8E4214C
:10B2E4009A6270471006002010B5FEF7E3FB041EB7
:10B2F40011DDF4F79FFF094B9A6AEFF3108172B6E0
:10B30400C3F8E441986281F3108812B11046F4F74F
:10B31400B9FF034810BD0020EDE700BF1006002070
:10B32400BC0D0308C3685A680AB19868704701489D
:10B33400704700BFBC0D030810B5144612684AB12B
:10B34400D12906D161680B4A914202D10022C28000
:10B35400226010BD3D2902D1C3682360F9E7026869
:10B36400054B9A42F5D1A229F3D1FFF7DBFF206008
:10B37400EFE700BFBC0D0308E802030810B4C4687B
:10B384001346A44600225DF8044B60470022114690
:10B39400FFF7F4BF07B5019101AA0121FFF7EEFF02
:10B3A40003B05DF804FB000073B5064610200D469B
:10B3B400F4F74BFF044678B9104BD3F8E421332A51
:10B3C40002D99C6A243407D100231A461946304610
:10B3D400FFF714FF02B070BD094B236028460FF03D
:10B3E400ABFF0146C4E902052846F5F717FD0194B1
:10B3F400606001AB00220121E9E700BF10060020D4
:10B40400C81803080EB4F0B588B0074610200D9E86
:10B41400F4F71BFF044630460FF08EFF451C284608
:10B42400F4F713FF04B148BB224AD2F8E431432BAA
:10B4340081BF906A00F12404A3F1340534308CBF39
:10B444000123002354B92346224621463846FFF7F8
:10B45400D5FE08B0BDE8F04003B0704778B9013DAF
:10B46400C4E90256144B2360D4E90210F5F7D6FC64
:10B4740004AB6060002204940121E7E7002383F019
:10B4840001038DF81030059504AB00250EAACDE913
:10B49400065002933146094B039302A80192F6F732
:10B4A40089F9DDE90632D554069BA360079BE36066
:10B4B400D8E700BF10060020C818030889B20008A6
:10B4C400830707D10268064B9A4203D1C268054B31
:10B4D4009A4202D0044906F04FB80120704700BFD9
:10B4E400F41D030801B20008ECFE020808B5FEF7DB
:10B4F400F5F9BDE80840FFF7E3BF38B504460D464B
:10B50400FFF7F4FF18B12046FEF7E8F90446294690
:10B514002046BDE8384006F02FB8000010B50446B8
:10B52400FEF7DCF9034BC2689A4218BF2469002372
:10B53400A36010BD01B20008F8B5044616461D46C6
:10B544000F46FEF7CBF91C4BC2689A4218BF246918
:10B55400A068E0B90C20F4F778FEA060A8B9174BF6
:10B56400D3F8E421172A0FD99B6AA3600623A3808A
:10B574000023E380E388A168D81C01EB8302E08008
:10B5840041F82370C2E90165F8BD0323EFE7E388BE
:10B59400A18802338B42EDDB084B9B6A9842F3D0BF
:10B5A400033101228900F4F76BFE0028ECD0A38854
:10B5B400A0600333A380DDE701B200081006002079
:10B5C40070B5044615460E46FEF788F9064BC26868
:10B5D4009A4218BF2469A36813B933602B6070BD05
:10B5E400E2883260FAE700BF01B2000873B50B4E7F
:10B5F4000446A068FCF7CAFF019068B16568B542CB
:10B6040005D001AB002201212846FCF70DFEFEF710
:10B614009FFB0028EDD0019802B070BDBC0D03085B
:10B6240070B50646084611464FF004121D46FDF754
:10B6340057FE0C20F4F7FEFD06602B6843600446B9
:10B6440000216868FCF73EFFA060204670BD000042
:10B6540030B587B00D4600230446009367220723C4
:10B66400102195ED010A02A8FBF70CFE02A9204661
:10B67400F5F77BFE2E2102A80FF0B2FE68B9652112
:10B6840002A80FF0ADFE40B96E2102A80FF0A8FE8B
:10B6940018B903492046F5F768FE07B030BD00BF6E
:10B6A4004E7C030838B5D1ED000A90ED000A2DED6B
:10B6B400028B05460C4612F05BFA95ED007AD4ED48
:10B6C400007A77EE406AB5EE400AF1EE10FAB0EE79
:10B6D400408AC6EEA78A21D117EE903A9FED248ABC
:10B6E400DFED246A002BB8BFB0EE668AF5EE408A1F
:10B6F400F1EE10FA29D1C7EE277A9FED1D0A17EE55
:10B70400903ADFED1C7A002BB8BFB0EE670A85EDE6
:10B71400000A84ED008ABDEC028B38BDB5EEC00A88
:10B72400F1EE10FAF5EEC07A4CBF01220022F1EEE0
:10B7340010FA4CBF012300239A421EBFF7EE006AA1
:10B7440030EE278A78EEE68AD0E7B0EE680A11F088
:10B7540065FA78EEC08AF6EE007AF4EEE78AF1EE46
:10B7640010FAC4BFF7EE007A30EE270ACFE700BF25
:10B77400000000000000008008B508202DED028BB9
:10B78400B0EE408AF4F756FD80ED018ABDEC028BE1
:10B79400014A026008BD00BFD804030830B50D4655
:10B7A40087B01146284602221C46FDF799FD25B9AB
:10B7B4009FED0E0AFFF7E0FF0CE0012203A92068C9
:10B7C400FEF735FB40B1002300931A46DDE903017F
:10B7D400FCF742F807B030BD2068830703D1026844
:10B7E400034B9A42F6D0FEF7F9F9E3E700000000B4
:10B7F400D804030891ED010A072805D8DFE800F012
:10B80400051C040407041018002108467047B5EE0F
:10B81400400A0B4B0B49F1EE10FA08BF1946F4E746
:10B82400FDEEC07A17EE901A490041F00101ECE7F1
:10B8340010EE103A002BE8DAB1EE400AFFF79CBF95
:10B8440004FA02080CFA020890ED010A704700009D
:10B8540010B52DED028B86B00446084603A98DED84
:10B86400010AFEF783F9002800F0DE80232C00F2A1
:10B874002081DFE814F0DD00EA00F7000401110183
:10B884001E011E011E011E011E011E011E011E01BC
:10B894001E012400310038001E013F004F005D00EE
:10B8A40090001E011E011E011E011E012400310014
:10B8B40038001E013F004F005D009000BF00DDED29
:10B8C400017A9DED037A77EE877ACDED017A9DEDCD
:10B8D400010AFFF751FFA7E0DDED017A9DED037A40
:10B8E40077EEC77AF1E7DDED017A9DED037A67EE35
:10B8F400877AEAE7DDED037AF5EE407AF1EE10FAA5
:10B9040003D16D496D48FDF703FA03A901A8FFF7B8
:10B91400C9FEDCE7DDED037AF5EE407AF1EE10FACC
:10B92400EFD0DDED016A86EEA77A8DED017ACEE7E0
:10B93400DDED030AF5EE400AF1EE10FAE1D09DEDDB
:10B94400010A12F015F9B5EE400AF1EE10FA8DED88
:10B95400010A09D1039BDFED5A7A9FED5A7A002B35
:10B96400B8BFF0EE477AB0E7DDED037AB5EEC00A72
:10B97400F1EE10FAF5EEC07A4CBF01220022F1EE8E
:10B9840010FA4CBF012300239A42A0D030EE270ABC
:10B994008DED010A9BE7DDED018A9DED038AF5EE4D
:10B9A400408AF1EE10FA0DD1B5EEC08AF1EE10FA2C
:10B9B40008D59FED457AF0EEC87AF4EE477AF1EEB9
:10B9C40010FA9EDDF5EEC08AF1EE10FA0BD5B0EE5A
:10B9D400480A11F023F9B4EE480AF1EE10FA02D045
:10B9E4003A48FDF7B5F9F0EE480AB0EE680A10F0EF
:10B9F4004FFBCDE7DDED037AF5EE407AF1EE10FA78
:10BA04003FF47FAF03A901A8FFF74CFE9DED010AA7
:10BA1400FFF7B2FE9DED030A0490FFF7ADFE04A903
:10BA24000590022004F010FE06B0BDEC028B10BDA0
:10BA34009DED017ADDED037A254B2648B4EEE77AD5
:10BA4400F1EE10FA58BF1846EEE79DED017ADDEDF0
:10BA5400037A1F4B1F48B4EEE77AF1EE10FAD8BF11
:10BA64001846E1E79DED017ADDED037A194B18489C
:10BA7400B4EE677AF1EE10FA08BF1846D4E79DEDEC
:10BA8400017ADDED037A124B1248B4EEE77AF1EE57
:10BA940010FA88BF1846C7E79DED017ADDED037AF9
:10BAA4000B4B0C48B4EEE77AF1EE10FAB8BF184627
:10BAB400BAE70020B8E700BFC1F202085004030847
:10BAC4000000000000000080FFFF7F7F68F1020893
:10BAD40004FA02080CFA02080B4693ED010A114617
:10BAE400FFF7B6BE10B50446084611460022FDF71E
:10BAF400F7FB6368BDE81040184770B505461C465F
:10BB0400084611464FF00212FDF7EAFB6A68206806
:10BB1400BDE87040104770B505461C4608461146FE
:10BB24004FF00412FDF7DCFB6B68D4E90001BDE8BB
:10BB34007040184770B51C460546084611464FF03C
:10BB44000612FDF7CDFB6B682068D4E90112BDE84D
:10BB540070401847F0B505460C46174685B0426854
:10BB6400394620461E46FDF7BBFB6B68DB070CD548
:10BB740006EB8402394601A8FDF769FCAB6801AA0B
:10BB840031462046984705B0F0BDAB6831462046A3
:10BB94009847F8E72DE9F04F064683B000AF884692
:10BBA40091469A46FDF78EFBB16811F8012B0020EF
:10BBB400C2F3C303C2F38004120641D4013304EB7D
:10BBC40044041C44A4002C2C04F1140B47D80BF19E
:10BBD400070B2BF0070BADEB0B0D6D460024414614
:10BBE4004FF0000BDFF89480AB814A465346284659
:10BBF4002E60C5F804B009F059FAD8F8003072681C
:10BC04005B68DB682B61D8F800305B685946DA6002
:10BC1400284608F049FAD8F800302A695B6880465B
:10BC2400DA6028BBAB681E682CB12846F4F72AFBFF
:10BC3400B8F1000F1FD130460C37BD46BDE8F08F78
:10BC440011F8012B4FEA400C02F0300505FA0CF50F
:10BC54002B4302F0020585402C430130ACE75846E3
:10BC64007B60F4F7F2FA7B6805460028B7D1AEE7AB
:10BC74006E69002CD9D13046F4F7B6FAC00800201A
:10BC840010F9013B002BFBDB00887047806810F83B
:10BC9400013B1B06FBD4FFF7F3BF08B513683BB9A0
:10BCA400172905D1FFF7F2FF800040F00200106071
:10BCB40008BD000010B504460846FFF7E7FF0B4631
:10BCC400024603492046BDE81040F5F78FBE00BF89
:10BCD400140503082DE9F8430F4691469846064695
:10BCE400F8B14568FFB1681C04308000F4F7A2FA8B
:10BCF4000E4B03600E4B1B685B68DB68C0F80C805E
:10BD04000446C0E901392EB1AA0006F10801103039
:10BD14000FF086FA17B1043544F825702046BDE8C3
:10BD2400F8830546DEE72846DEE700BF2C05030856
:10BD3400C00800202DE9F843856815F8014B064634
:10BD4400904699460F46C4F3C302C4F3800000230F
:10BD5400210619D4551C00EB40002844073080000C
:10BD6400F4F768FA104B0360104B8582C0E9013682
:10BD74000023C36004464B4642463946083009F066
:10BD840095F92046BDE8F88315F8014B4FEA430CBA
:10BD940004F0300101FA0CF10A4304F00201994065
:10BDA40008430133D4E700BF8C070308BC0D030824
:10BDB40008B5436813B90348FCF7CAFF4160184645
:10BDC40008BD00BFEC06030870B5054688680C463C
:10BDD400FFF75CFF2346024602492846BDE870404F
:10BDE400F5F704BE1007030808B50248FFF7CEFABA
:10BDF400F4F7FAF9E80203082DE9F04704460F4680
:10BE040091461E46FDF75EFAE5681DB93560284681
:10BE1400BDE8F087636813B92648FCF799FFDFF89B
:10BE2400A8A0534518BF9946236904F11802934208
:10BE340004D1574503D02048FDF72EF91F60DFF8E1
:10BE44008C80D8F800305B68DB68A3612046D8F8A2
:10BE540000305A6850F8083F00275B68676049461D
:10BE6400D36008F021F9D8F80030A2695B68012892
:10BE7400DA600546C4F804A006D00228E7600AD0B8
:10BE840023691B683360C2E723691B683360236935
:10BE9400C3F800A0BBE7E0693060FDF71FFD074968
:10BEA40005F06AFB0028B2D005490648FFF77CFA82
:10BEB4003060ACE7EC06030854070308E802030803
:10BEC400D0F3020870020308BC0D0308C008002068
:10BED40007B501ABFFF790FF01280DD002280198A8
:10BEE40008D0084B98420BD038B101AA012106486A
:10BEF400FFF744FAF4F778F9019803B05DF804FB0E
:10BF04000020FAE7BC0D0308E8020308022808B57C
:10BF14004A680B4604D989680548814218BF0A4615
:10BF240003491868FFF7D4FF08B9FFF75DFF08BDA0
:10BF3400BC0D030808B50022FFF7CAFF08B9FFF7D4
:10BF440053FF08BD00220149FFF7C2BFBC0D03081F
:10BF540007B50E4A0E4901ABFFF74EFF012805D085
:10BF6400022807D00A4803B05DF804FB09490A48CF
:10BF7400FCF7CEFE0198FDF7B1FC084905F0FCFA88
:10BF84000028EFD10198F4F72FF900BF4407030804
:10BF9400BC0D03089406030870020308A0FF0208FE
:10BFA40030B593B005466846F4F706F9014680B902
:10BFB4002A1D0120FCF767F9EB6823F00103023323
:10BFC40043F00103EB600446F4F7ECF8204613B0A9
:10BFD40030BD0198054A0368934204D0044A934251
:10BFE40001D0F4F701F90024F0E700BFE8020308E8
:10BFF40054000308044B0B6003684B6043688B6078
:10C004000123CB6008467047040803082DE9FF416B
:10C0140048680E46FDF74EFD041E02DA0020FCF7C8
:10C0240097FED6F808802146B8F5DB77684618BF36
:10C034000127F5F7A8F8029D2246002128460FF0B3
:10C0440033F93068C3070BD42B462246394600F037
:10C0540012FA69460A4802F033FB04B0BDE8F081E5
:10C06400042C4FEA6003204628BF0420B8F5DB7F88
:10C0740014BF221A00222A44394606F05CF8E8E785
:10C08400EC150308F0B50C4685B06068154F012225
:10C0940001A9FDF7DBFEA5680299019AB5F5DB7FDE
:10C0A40003BF01F1FF339B184FF0FF36134618BF4F
:10C0B40001260C46002014B900F0D4FA09E0B84275
:10C0C40004F1FF3407D9B5F5DB7018BF012000F087
:10C0D400C3F905B0F0BD93F800C033444CEA002026
:10C0E400E9E700BFFFFF3F0010B5F0EEC07AF4EEC1
:10C0F400677AF1EE10FA2DED028BB0EE408A0AD683
:10C104009FED187AF4EE477AF1EE10FA06DD16493F
:10C114001648FCF7FDFD1648FCF71AFE10EE103A1F
:10C12400002B12DA33F0004204D003F1FF43B3F1E1
:10C134009C4F0DD8FDEEC87A17EE900A400040F0EF
:10C144000104BDEC028B204610BDDB0DDB05EEE7E0
:10C1540000F04CF9B0EE480A04460430F5F7ACFEA2
:10C16400EFE700BFFFFF7F7F900803083402030856
:10C17400A908030873B50D462846114604221C4637
:10C18400FDF7AEF87DB3012D1FD12068C3071AD483
:10C1940010F0030329D10368174A934213D0996915
:10C1A400164A914208D101A902F0C0FF0023019967
:10C1B4001A46FBF7D3FA06E0114A934217D1FFF768
:10C1C40043FBFFF791FF02B070BD01A9206802F0A4
:10C1D400ADFF05466068019EFDF76CFC0023024636
:10C1E40031462846E5E70120EDE7022BDBD0014686
:10C1F4000820FBF787FFE6E7C408030869F1000895
:10C20400D804030838B50A4C214411F8014CB0FB9A
:10C21400F4F45BB1631C0325B3FBF5F510460AB1D6
:10C224000FF08AF803342C44204438BD1D46F5E74A
:10C23400800803082DE9F74F13F0010F82468B465F
:10C244000092DDE90C769DF838409DF83C9040D092
:10C254005D1045D44FF000084B4632463946202045
:10C26400FFF7D0FFDBF800308342024607D201908B
:10C27400F3F7E0FF019ACAF80000CBF80020DAF8DF
:10C2840000B00BEB0203002103F8011C65B3013B72
:10C294001846A4F10A0EAC46B5FBF7F507FB15C129
:10C2A40009298CBF71443031441E00F8011CB9F1D6
:10C2B400000F30D0BC451BD3A34519D2191B032949
:10C2C40005D1841EA34500F8029C11D223462046C2
:10C2D400E1E7CDE90E4903B0BDE8F04F00F094B8B2
:10C2E4006D424FF02D08B7E730219C1E03F8021C65
:10C2F400CEB1304601920FF01FF8201A8345019AFF
:10C3040011D2013E014616F8013F4BB90446B8F17B
:10C31400000F0DD10FE0A345EAD2BC45D7D2E7E721
:10C3240001F8013BEFE7B8F1000F04D05C4502D9F6
:10C3340004F8018C013CDAF800301A44121B009B0B
:10C34400013A20461A6003B0BDE8F08F30B58DB0D5
:10C35400102306930023CDE9023301930A230546F3
:10C3640008AC009307AA0B4605A806A90594FFF795
:10C3740061FF01462846F4F7F8FF0598A04201D072
:10C38400F3F780FF0DB030BD1346134A934230B427
:10C394000C4603D1012230BCFCF7E2BC0F4A9342A5
:10C3A40001D10322F7E71D2813D103F00302022A67
:10C3B4000BD072B91A680A499069884205D00949B4
:10C3C4008A4202D008498A4203D1224619461D20D6
:10C3D400E1E7002030BC704704FA02080CFA0208B6
:10C3E40069F10008981B03085C0A030810B51020C3
:10C3F400F3F720FF034B044640F8043BF5F7EFFC4A
:10C40400204610BDC40803082DE9F74304469DF8EF
:10C41400346098680F4691461D46DDE90A1233469A
:10C424000001FFF7EFFE3B688342804604D2F3F736
:10C4340001FF2060C7F8008024689DF83030CDE902
:10C444000064DDE90A12281DF6F710FCC9F80000A3
:10C45400204603B0BDE8F083F8B50E4617460546FE
:10C46400FFF7C4FF3B460446324629460430F5F73D
:10C47400CBFD2046F8BD70B504460D461846002194
:10C4840016460EF011FF324603462946201DBDE82C
:10C494007040F6F790BB034610F0010006D05B1025
:10C4A400002B0DDB14BF0120002070479A684AB1AD
:10C4B4001B7913F0010F14BF4FF0FF3001207047B8
:10C4C4004FF0FF307047000038B50C46072805D8F8
:10C4D400DFE800F005151E0407040E26002420469C
:10C4E40038BD8968144C1548002908BF0446F6E78E
:10C4F400081DF6F734FB400040F00104EFE7FFF7B6
:10C5040075FF211D05460430F5F7DDFD2C46E6E7F1
:10C51400FFF76CFF211D05460430F5F7E3FDF5E751
:10C524000B79DB07DBD5FFF761FF211D05460430DE
:10C53400F5F7BEFDEAE700BF0CFA020804FA0208A8
:10C54400D3B50F460646FFF751FF01230446009377
:10C5540032463B460430F5F782FC204602B0D0BD9B
:10C56400430093EA000F02D5C117FFF7E9BF43F078
:10C5740001007047D3B50F460646FFF737FF002387
:10C584000446009332463B460430F5F768FC2046E7
:10C5940002B0D0BD2DE9F04F10F001088BB0064673
:10C5A4000D46144605D1810715D102682B4B9A42DA
:10C5B40011D115F0010705D1AA070CD12A68274B20
:10C5C4009A4208D114F0010B08D1A30703D12268C1
:10C5D400224B9A4202D02248FCF75EFD0020002143
:10C5E400FFF7C8FF0DF104098246B8F1000F2FD000
:10C5F40071104846F5F71BFC4E460DF110084FB379
:10C6040069104046F5F713FC454607AFBBF1000F30
:10C6140022D061103846F5F70AFC3C4623462A46E8
:10C6240031460AF10400F6F743FA4E4502D130468A
:10C63400F5F7DAFB454502D12846F5F7D5FBBC42B0
:10C6440002D12046F5F7D0FB50460BB0BDE8F08F81
:10C654000436D2E70435D8E70434DFE7C408030816
:10C664004109030810F0404F02D00021FFF782BFB8
:10C67400400040F0010070472DE9F34104460E46A6
:10C6840017469846FFF7B2FE3B460546CDF80080B4
:10C69400324621680430F5F76BFC236818442060A7
:10C6A400284602B0BDE8F081C30702D40430F6F78F
:10C6B40056BA401070470000C30707B503D54010B1
:10C6C40003B05DF804FB01A90430F6F75BFA08B186
:10C6D4000198F5E701490248FCF71AFB140903081D
:10C6E400340203082DE9F0432DED028B8046C80780
:10C6F40089B00C46164625D54B10022201A902A882
:10C70400F5F79CFB02AFF1071ED57310022201A9B5
:10C7140002A8F5F793FB02ADB8F1200F02D0B8F1EF
:10C72400130F30D16B68002B5DD03846F6F77EFAD4
:10C734002846B0EE408AF6F779FA88EE000AFFF749
:10C744001BF819E00F1DDEE7B20710D133686F4AFA
:10C75400934201D1351DDFE76D4A934207D1384634
:10C76400F6F764FA31464046FFF772F804E03246C1
:10C7740021464046FFF708FE0446204609B0BDECBA
:10C78400028BBDE8F083A8F109095FFA89F31A2B3B
:10C7940000F28D80FFF72AFE0446B9F1190F73D811
:10C7A400DFE809F043493D4F4F0D1319721F7232F0
:10C7B4006643493D4F4F0D1319721F7232662A4664
:10C7C40039460430F5F77AFDD7E72A46394604306E
:10C7D400F5F7ACFDD1E72A4639460430F5F76FFF8B
:10C7E400CBE76B681BB94B494B48FCF791FA05A89A
:10C7F400F5F7F5FA2B463A4605A9201DF6F715F884
:10C8040005A8F5F7F1FAB8E76B68002BEBD005A89B
:10C81400F5F7E5FA2B463A46211D05A8EEE72A4628
:10C8240039460430F5F7C2FDA7E72A4639460430F5
:10C83400F5F756FEA1E72A4639460430F5F7D4FE4B
:10C844009BE73046FFF738FF021E02DA3348FCF755
:10C854007FFAB8F1190F04F10400394602D0B8F197
:10C864000C0F02D1F5F777FC87E7F5F7D1FC84E7E5
:10C874006B681BB12B78DB073FF571AF2A4639464D
:10C88400201DF5F793FF78E76B68002BABD0FFF71B
:10C89400ADFD211D06462B463A460430F5F7C5FF8B
:10C8A40005A90220CDE9056403F0CEFE64E729461C
:10C8B4003846F5F7DDFBB8F1040F24D8DFE808F0BB
:10C8C400030A1D101600164B164C14EA200438BF38
:10C8D4001C4652E7124B134C0028D8BF1C464CE7A9
:10C8E4000F4B104C0028C8BF1C4646E70C4B0D4CA0
:10C8F40034EA200428BF1C463FE7094B094C0028B2
:10C9040018BF1C4639E7002437E700BFC4080308F2
:10C91400D8040308C1F202085004030887F202088D
:10C9240004FA02080CFA02080430F6F77FB9000092
:10C93400042803D0052808D0002070478A68054BD6
:10C944000548002A08BF184670478868400040F030
:10C954000100704704FA02080CFA0208044B0B6049
:10C96400044BC1E901300023CB600846704700BF87
:10C97400E40C0308B1C9000870B5836803EBD371F4
:10C9840049109B0000229142A3F1040301DC0648F4
:10C9940070BDC468E65854F8225044F82260C46854
:10C9A4000132E550EFE700BFBC0D0308D0E90213E4
:10C9B4000246886883423FBFC96851F823000133A7
:10C9C400D36028BF0020704738B50D46D0E9011365
:10C9D4008B42044613D3C900C068F3F746FC62686F
:10C9E400A368E06052006260D21A02F18042013A08
:10C9F40001339200002100EB83000EF055FCD4E9D2
:10CA04000232591CA160024842F8235038BD00BFCD
:10CA1400BC0D0308836870B54C1048BFE418054684
:10CA240048BF24EAE4749C420A4928BF1C461646BF
:10CA3400FFF7CAFFAB68E968013B9C4203DB41F89E
:10CA44002460044870BD01EB830252F8042C41F8C1
:10CA54002320F0E7BC0D030838B5002504468560A3
:10CA64001021C068F3F701FC0423E0606360102226
:10CA740029460EF019FC014838BD00BFBC0D03085F
:10CA84002DE9F84F81460E4617469A46FCF71AFCE4
:10CA9400B14501D3BDE8F88FA9F10408D6F800B078
:10CAA40027B159463846FBF7E4FB8346354608F17F
:10CAB4000404A54207D92168B7B95A460020FCF7F7
:10CAC4004FF982450ED0043DAC4222D28FB92A6878
:10CAD40059460020FCF744F98245F4D023682A68BB
:10CAE40022602B60A046E2E73846FBF7C2FB014612
:10CAF400E3E729683846FBF7BCFB0246E8E729462A
:10CB040053463A464846FFF7BBFF35462E46C146D4
:10CB1400BEE7326823682260341BA4103360013CF2
:10CB2400A5EB0903B4EBA30F08F10808E7DC4046C2
:10CB340053463A463146FFF7A3FFC846E6E70000EE
:10CB440030B585B002AB0C460193114B0093043110
:10CB540002230138FCF7F2FB23689968012913D9F1
:10CB6400D8680C4C9DF80C500B4B029A01F1804193
:10CB7400002D08BF2346094C0139A24208BF0022F8
:10CB840000EB8101FFF77CFF044805B030BD00BF16
:10CB94006C0903080CFA020804FA0208BC0D030825
:10CBA40010B40C680B460246D4E902105DF8044B3D
:10CBB40004F0C6BE70B50C680B46A168024619B9EC
:10CBC40018491948FCF7A4F8012A18BF5A682068C4
:10CBD40008BF4FF0FF320023FDF754F8A268E36862
:10CBE4008600013A53F82050A260311D121A1944EC
:10CBF400920098190EF040FBD4E90232002142F869
:10CC04002310616804290BD9B1EB430F08D94908F3
:10CC14008900E068F3F729FB6368E0605B08636000
:10CC2400284670BD200A03085400030807B5CDE95F
:10CC3400000169460220FFF7B3FF69460190022014
:10CC4400FFF7B8FF014803B05DF804FBBC0D03080F
:10CC540038B5044608460021FBF734FC054628464F
:10CC6400FBF794FC0146204601B938BDFFF7ACFE42
:10CC7400F5E70A46D0E9021004F096BE2DE9F0412A
:10CC8400032A0F461049DFF84880154606460CBFB4
:10CC940015460125F4F769FB0024BB68A34205D8B7
:10CCA40030460A49BDE8F041F4F75FBB1CB1414688
:10CCB4003046F4F75AFBFB682A4653F824103046F2
:10CCC400FCF724FE0134E8E795F80208E884030839
:10CCD40097F8020870B511F0030604460D4629D1F1
:10CCE4000A68174B9A4225D1AB6881681944436896
:10CCF400994210D904318900C068F3F7B6FAAA68DA
:10CD0400A368E06013441A1D62603146102200EBF0
:10CD140083000EF0C9FAD4E90203AA68E968920014
:10CD240003EB80000EF07CFAA368AA681344A360A6
:10CD3400044870BD29462046FFF78AFFF8E700BF84
:10CD44005C0A0308BC0D030838B504290B4B0360C7
:10CD54000446084638BF0420C4E9010180000D469A
:10CD6400F3F768FA6268E060521B00EB85009200FA
:10CD74000021BDE838400EF097BA00BF5C0A0308F2
:10CD840038B505461020F3F755FA29460446FFF74F
:10CD9400DBFF204638BD00000E287FB503460E4653
:10CDA400154641D003D8042844D9002439E01B286F
:10CDB4001BD01D28F9D103A91046FCF7ADFE0028AD
:10CDC400F3D0039B002BBCBF002303930398B368E9
:10CDD4005843FFF7D5FFC36800930446039BB2682A
:10CDE400F068042104F0D5FC1BE012F00304DCD14C
:10CDF40012681B4B9A4214D1AB6888681844FFF739
:10CE0400BFFFB268F16804469200C0680EF008FAE9
:10CE1400B068E368AA68E968920003EB80000EF04A
:10CE2400FFF9204604B070BD11463046FFF752FFAB
:10CE34003446F6E7AA0703D12968094A914203D088
:10CE4400022BB2D1074CECE7AB680093D6E9022180
:10CE5400EB6804F027FD0028F4D0034CE1E700BFA1
:10CE64005C0A030804FA02080CFA020838B50C46F6
:10CE74002046114602221D46FCF732FA24B9204608
:10CE8400BDE83840FFF77CBF0020FFF779FF296831
:10CE9400BDE83840FFF7DCBE38B50C460546FFF761
:10CEA4006FFF4CB938BDC26854F8231042F8231000
:10CEB4000133AB42F7D1F5E70023FAE7D0E90201E9
:10CEC400FFF7EABF83680B60C36813607047816033
:10CED400704738B50446154600230A468168006841
:10CEE400FCF7D0FEE36843F8205038BDF0B50446A3
:10CEF40089B00D4601F0030610466ABB26BB0A68DA
:10CF04005B4B9A4220D102AAA06804F056FC10B9E7
:10CF14000020FCF7EFF8DDE90257D4E90220D21B28
:10CF240000EB8701920000EB85000EF0A5F9ED1BE4
:10CF3400A068E36828446FF003026A43314603EBB8
:10CF440080000EF0B1F973E005A90220CDE9054592
:10CF5400FFF730FE474D11E0042A2CD1A06806BB30
:10CF64000A68434B9A421CD105AA04F026FC40B936
:10CF740005AAD4E9020104F03DFC0546284609B09F
:10CF8400F0BDDDE90530C01AFFF7FAFEE3688268F8
:10CF940005990546920003EB8101C0680EF040F943
:10CFA400ECE700232A4601462068FCF76BFEE368A1
:10CFB40053F82050E2E7002E53D10A682C4B9A42D2
:10CFC4004FD101AA6946FCF721FE05AA2946A068AB
:10CFD40004F0F3FB00289BD0DDE90535009AE068F6
:10CFE400ED1A551B002D27DDA16863682944994279
:10CFF40006D98900F3F739F9A368E0602B4463602C
:10D00400009A059BE06806991344A2682A44D21A40
:10D0140000EB8101920000EB83000EF02DF9E36830
:10D02400009A05980199920003EB80000EF024F910
:10D03400A3681D44A5608DE70199920000EB83006D
:10D044000EF0EEF80699A268059B009FE068521A5C
:10D054003B4400EB8101920000EB83000EF00CF9DD
:10D0640066E7024629462046FFF733FF72E700BF12
:10D07400E0110308BC0D03082DE9F04104464068A3
:10D084008000F3F7D7F804F10C080746002561681F
:10D09400A94206D83B46A0680022BDE8F041FBF750
:10D0A400C3B858F8040BFBF771FA064618B147F8F1
:10D0B40025000135EBE73846F3F7E4F83046BDE8E0
:10D0C400F08100002DE9F0410C4606461146204649
:10D0D4000F4A9846FCF704F9A01C8000F3F7AAF85D
:10D0E4000660013CD8F8003044600546836000F1D6
:10D0F4000C070026B44202D82846BDE8F081013668
:10D10400002158F82600FBF7DDF947F8040BF1E796
:10D11400FEFF050070B5054648680E4600225E21F4
:10D124000430FCF7C1F9B0B1406801F0E7FF0446F0
:10D134007068002240F2DE210430FCF7B5F960B1DA
:10D14400406801F0DBFF2246034607492846BDE854
:10D154007040F4F74BBC054CEAE7224628460449E4
:10D16400BDE87040F4F742BCD40A0308C34E030878
:10D17400EC0A030870B51646126840680C464AB9B2
:10D18400890041F002010430FCF78EF908B14368CC
:10D19400336070BD03799B070DD50D4B9842F8D1D0
:10D1A4000C4DD5F8C03023B90120FDF7DFFEC5F8DA
:10D1B400C000D5F8C0007268A10041F002011AB99C
:10D1C400FDF769FF0023E3E7FDF757FFFAE700BF28
:10D1D4001023030810060020800070B540F00205FB
:10D1E400012229460B48FCF75FF94468064674B9E6
:10D1F4000820F3F71FF8084B036004460120FDF7ED
:10D20400B5FE2A4660605E21FDF737FF7460204654
:10D2140070BD00BF50060020E80B0308800010B565
:10D2240040F00204002221460548FCF73DF928B9E4
:10D23400024621460348FCF737F900B1406810BDA7
:10D2440050060020FC0A030870B50C4C0646002565
:10D2540020688008F3F7D2FE0378752B06D1314697
:10D2640001300EF077F808B9606870BD01351C2DE7
:10D2740004F10804ECD10020F7E700BF080B030811
:10D2840000487047BC0D030870B5154606460C46A9
:10D29400FCF724FB0C4BC2689A4202D00B48FBF704
:10D2A400FBFE04F00303022B06D01BB92268084BD3
:10D2B4009A4201D00020F2E701222146301DFCF7FA
:10D2C400F3F84560034870BD15120108940C030877
:10D2D400C8180308BC0D030807B5820707D1016805
:10D2E400074A914203D1C268064B9A4202D00648CB
:10D2F400FBF7D2FE01A903F075FF03B05DF804FB50
:10D30400F41D030815120108940C030810B5044613
:10D31400084611460022FBF7E3FF0420F2F78AFFD8
:10D32400046010BD38B505460C46FCF7D7FA0F4B20
:10D33400C2689A4202D00E48FBF7AEFE04F0030323
:10D34400022B06D01BB922680A4B9A4201D0002056
:10D35400F2E702222146281DFCF7A6F818B906496F
:10D364000648FBF7D5FC064838BD00BF1512010876
:10D37400940C0308C8180308600C0308B0FE0208E4
:10D38400BC0D03084368184770B5054610200E46C7
:10D39400F2F750FF044695E80F0084E80F00E660BA
:10D3A400204670BD70B5054610200E46F2F742FFC8
:10D3B400044695E80F0084E80F00A660204670BD7F
:10D3C40070B5054610200E46F2F734FF044695E882
:10D3D4000F0084E80F006660204670BD10B586B06B
:10D3E4000446084611461A4602AB0193084B0093C3
:10D3F4000423FCF703F81020F2F71CFF029A4260A2
:10D40400039A8260049A0460C26006B010BD00BF33
:10D41400200D030804307047032A0CBF0149024958
:10D42400F3F7A3BFFC0D0308A3E6020838B50B68A5
:10D434000C46DA8805490546F4F7D8FA21682246ED
:10D4440028464031BDE83840FDF70AB933FE0208EA
:10D4540010B5C26B00F140030020824202D14FF0AC
:10D46400FF3010BD53F8044B8C42FAD00130F4E77E
:10D4740038B51368054614464BB90068FFF7E8FF52
:10D48400431C03D0023055F82030236038BD0249D4
:10D494000248FBF73DFC00BF0C0E0308B0FE020877
:10D4A4002DE9F0479246C26B01EB0A05954280468E
:10D4B4000C46994606D02B461F492048FDF7A2FF8B
:10D4C400F2F792FE0021284603F0BEF8A7000646B4
:10D4D4003A46494640F8088B0DF0A2FE07F10800D1
:10D4E4004FEA8A02002130440DF0DEFE554409F172
:10D4F400040AAC4202D33046BDE8F08759F8240050
:10D5040001F0E6FD014607464046FFF7A1FF431C34
:10D5140005D10B493A460948FDF774FFD0E706EBFD
:10D524008000836813B13A460649F4E75AF8243078
:10D5340083600234DDE700BFD5F402089C030308CE
:10D54400200E0308410E0308F8B500F11004A400EE
:10D55400074620460D46F2F76DFE06463C220021A2
:10D56400403C0DF0A1FE2C44F76306F14007A542B0
:10D5740001D13046F8BD55F8040B01F0A9FD47F878
:10D58400040BF4E71FB5019101F0A2FD019B03F028
:10D594000302022A044604D042B91A68124B9A4282
:10D5A40004D101A9012002F065F8019003AA02A99F
:10D5B4000198FCF72BFBDDE90201FFF7C5FF0B4ADD
:10D5C40002600B4A82600B4AC2600B4A42610B4AFA
:10D5D40082610B4AC2610B4A02620B4A42620B4AE5
:10D5E400C480426304B010BDC8180308F41D0308C6
:10D5F40031D40008A5D40008F10501088906010802
:10D6040075D400088D07010831050108981B03082B
:10D61400C268002A034605DDD0E90101884206DB21
:10D6240000207047FCD0D0E901018842F8DD596838
:10D6340048000A4440F001005A607047D0E90232C1
:10D644004068181A1044002ACCBF00F1FF300130A2
:10D6540090FBF2F020EAE0707047000010B5044639
:10D664000846FFF7EBFF042C03D0052C08D000205C
:10D6740010BD054A054B0028CCBF10461846F7E7F5
:10D68400400040F00100F3E70CFA020804FA020833
:10D6940010B5D0E90142C3680348C1E90223C1E9D6
:10D6A4000004084610BD00BFAC0E0308F8B50E46D2
:10D6B400074611463046134A1D46FBF711FE10205B
:10D6C400F2F7B8FD00234360012307609E4204463D
:10D6D400C360286804D1FCF7EDF9A0602046F8BDCA
:10D6E400FCF7E8F960606868FCF7E4F9032EA060D1
:10D6F400F4D1A868FCF7DEF9E0600028EED1024816
:10D70400FBF726FB06000200E80E030838B50C46BA
:10D71400D1E9012309490546F4F768F9E268012AC9
:10D7240005D128460649BDE83840F3F71EBE284611
:10D734000449BDE83840F4F759B900BFF20E0308B4
:10D74400BB7E0308FF0E030830B5042A85B00446E7
:10D7540033D1FFF773FF8B07054620D10A68184BB6
:10D764009A421CD101AA04F028F81020F2F762FDB5
:10D77400144BE26861680360019B03FB021343607E
:10D784006168029B03FB0213039983604A430029E7
:10D79400C26002DAE2689B1A836005B030BD0A46B3
:10D7A400002329462068FCF76DFAE368626803FBEE
:10D7B4000020400040F00100EFE70020EDE700BF4B
:10D7C400E0110308700E0308136810B514462BB952
:10D7D400922904D14068FEF7C3FE206010BD96294B
:10D7E40001D18068F7E79529F8D1C068F3E781682B
:10D7F40041B1013981604900042241F001014068CE
:10D80400FCF7EABA0846704773B51D460646084653
:10D8140011464FF00212FBF763FD6A46CC212868DB
:10D82400FAF7A2FD009B43B100216A460846FAF7C5
:10D834002AFD0446204602B070BD0C20F2F7FAFC23
:10D844000446066028686060FCF7B2FAFCF732F917
:10D85400A060EFE7820708D10068064B984206D023
:10D86400054BC31A584258417047002070470120A5
:10D87400704700BFD80F03089C0F0308044B0B60CC
:10D88400044BC1E901300023CB600846704700BF58
:10D89400E40C030841DB000808B501220430FBF75F
:10D8A40057FF014808BD00BFBC0D030808B502229C
:10D8B4000430FBF74DFF014808BD00BFBC0D030851
:10D8C40038B5044608460021FAF7FCFD0434054641
:10D8D4002846FAF75BFE014600B938BD012220460E
:10D8E400FBF736FFF4E7000070B506460D46012449
:10D8F400B44201D3044870BD55F824102868FFF7DA
:10D90400DFFF0134F4E700BFBC0D030838B504465B
:10D9140008460021FAF7D6FD043405462846FAF7EE
:10D9240035FE014608B9034838BD03222046FBF7FB
:10D934000FFFF3E7BC0D030830B585B00446084675
:10D944006946FAF7BFFD043405462846FAF71EFE79
:10D95400014610B9054805B030BD00222046FBF74A
:10D96400F7FE0028F1D00248F5E700BF0CFA0208E0
:10D9740004FA020838B504461020F2F75BFC236869
:10D984006168054640F8043BFBF7D8FE6268A3686B
:10D99400AB609200E168E8680DF042FC284638BDAF
:10D9A40038B50D46FFF7E6FF29460446FFF788FF22
:10D9B400204638BD38B50D46FFF7DCFF294604463E
:10D9C400FFF7A4FF204638BD08B50430FBF77AFF03
:10D9D400004808BDBC0D03082DE9F84380460E46F7
:10D9E4000C681AB92046FFF7C5FF04460125271D18
:10D9F400454502D32046BDE8F88356F82500844205
:10DA040004D13846FBF75EFF0135F1E70021FAF750
:10DA140059FD81464846FAF7B9FD01460028F3D07E
:10DA240002223846FBF794FEF4E7000008B5012211
:10DA3400FFF7D2FF004808BDBC0D03080022FFF722
:10DA4400CBBF00008A072DE9F84304460E4611D1E6
:10DA54000D68214BEB1A5D425D41B36863B91DB19A
:10DA64001E492046F3F781FC1D492046BDE8F843D2
:10DA7400F3F77BBC0025F0E71DB11A492046F3F704
:10DA840074FC1949DFF86C802046F3F76EFC00271C
:10DA940001237268BA4206D814492046F3F765FC9C
:10DAA400C5B11349E1E7F26852F827204FEA870924
:10DAB40072B1042A0CD01BB941462046F3F755FC39
:10DAC400F368012253F809102046FBF71FFF0023D7
:10DAD4000137DEE7BDE8F8839C0F0308341103081F
:10DAE4003B1103084111030868FC0208E3CA020859
:10DAF400BB7E030897F8020810B5022204300C46D6
:10DB0400FBF726FE28B921460348FDF743FCF2F74C
:10DB14006BFB024810BD00BF90000308BC0D030856
:10DB240008B50430FBF7AEFE18B902490248FBF70A
:10DB3400EFF808BD14110308900003088168C36856
:10DB440010B54C68A34201D3002208E0CA6852F819
:10DB540023200133002AF5D0042AF3D0C3601046F1
:10DB640010BD00000528F8B50E460AD006280DD0D1
:10DB7400042825D18A681348134B002A08BF184685
:10DB8400F8BD8868400040F00100F9E711F0030097
:10DB940016D10D680D4B9D42F2D14F680446A74241
:10DBA40001D16800EFE7F36853F8241031B1042978
:10DBB40004D00620FAF7A6FA05EB60050134EEE777
:10DBC4000020DDE70CFA020804FA02089C0F03089F
:10DBD400F8B5054610200C46F2F72CFB06460A4B16
:10DBE40046F8043B294607463046FBF7A7FD04EBFD
:10DBF4008505AC4201D13846F8BD012254F8041B16
:10DC04003046FBF7A5FDF4E7D80F03082DE9F843E8
:10DC14000E460021054608461746FFF7D9FF0021A6
:10DC240004463046FAF74EFC05F1040980464046A6
:10DC3400FAF7ACFC064668B94FB1E868F2F722FB84
:10DC440063686B60A368AB60E368084CEB602046D4
:10DC5400BDE8F883002231464846FBF779FD0028E9
:10DC6400E5D031462046FFF717FEE0E7BC0D030878
:10DC7400814202D00122FFF7C9BF0148704700BFAB
:10DC8400BC0D0308814201D1FFF774BE0022FFF7E7
:10DC9400BDBF01220430FBF75BBD70B50C460546E1
:10DCA4001146204602221E46FBF71AFB3CB92146C8
:10DCB4002046FFF78DFF04462560204670BD0021F5
:10DCC4000846FFF785FF002104463068FAF7FAFB9F
:10DCD40006463046FAF75AFC01460028ECD02046A6
:10DCE400FFF7D7FFF5E700002DE9F04186B01646AF
:10DCF400CDE900100546FFF7ADFD0246002835D1F9
:10DD040001AB01212048FFF7C8FF4FF00108054689
:10DD1400009C2046FFF79EFD024650BB6B46012146
:10DD24001948FFF7BAFF012704461EB1AA68A36881
:10DD34009A4226D0154B0293154BCDE903350023A7
:10DD44000593261D02A8FFF7F9FE014698B9114E66
:10DD5400B8F1000F02D0281DFBF7B4FD17B1201D48
:10DD6400FBF7B0FD304606B0BDE8F0814FF0000887
:10DD7400CEE70027D9E700223046FBF7E9FC00286C
:10DD8400E0D1054EE4E700BFD80F0308E40C030814
:10DD940041DB00080CFA020804FA02080B460022D0
:10DDA40001461846FFF7A0BF0022FFF79DBF000001
:10DDB400F7B51546CDE900128A0707460C461ED171
:10DDC4000E683F4BF31A5E425E41242F6CD0284606
:10DDD400FFF740FD00286FD01C2F6DD8DFE807F057
:10DDE4004C52565A5F6C6C6C6C212E356C6C6C46C4
:10DDF4006C6C6C6C6C6C2911166C6C6C1C000026C1
:10DE0400E3E729462046FFF7D5FD03E029462046EF
:10DE1400FFF738FF044609E069460220FFF70EFECB
:10DE2400F8E736B169460220FFF75EFD204603B0ED
:10DE3400F0BD29462046FFF7B3FDEBE7294620460F
:10DE4400002EE0D0FFF762FDF0E7AC4205D1002ED2
:10DE5400ECD12046FFF78EFDDCE72046324629460A
:10DE6400FFF7D4FE002E08BF0446DFE732466946BA
:10DE74000220FFF7B1FDCDE7012229462046FFF736
:10DE840033FFC7E7012221462846F8E7A268AB68BA
:10DE94009A420FD129462046FFF786FFBAE7294662
:10DEA4002046FFF77BFFB5E700222946201DFBF73C
:10DEB4004FFC18B9034CB9E70024B7E7024CB5E7A7
:10DEC400D80F030804FA02080CFA02084A68014948
:10DED400F3F78CBD33FE020870B50D460446104EB0
:10DEE4001049F3F742FA012269682046FBF70EFD58
:10DEF40031462046F3F739FA0122A9682046FBF798
:10DF040005FD31462046F3F730FAE9682046012240
:10DF1400FBF7FCFC20460449BDE87040F3F725BA42
:10DF240097F8020824120308BB7E030813689BB900
:10DF3400922902D1436813607047962901D18368FE
:10DF4400F9E7952901D1C368F5E740F26B239942BB
:10DF540004BF024BC2E90030704700BF1C12030823
:10DF640070B50646102014460D46F2F763F9034ACD
:10DF7400C0E90254C0E9002670BD00BFE0110308E7
:10DF84002DE9F8432B4B8146C06898420C4616464F
:10DF940098461BD0FBF78EFD071E02D12648FAF7E0
:10DFA400D7FE14DCD9F80400404533D1651ED9F8F6
:10DFB4000800404538D0FBF77DFD0028B8BF0019A4
:10DFC40040EAE070A04232DB013C1CE00127D9F8B2
:10DFD400040040451CD0FBF76DFD0028B8BF0019B4
:10DFE40020EAE075A542A8BF2546D9F808004045B7
:10DFF40009D0FBF75FFD0028B8BF001920EAE070E4
:10E004008442A8BF0446C6E90054B760BDE8F8835B
:10E014000025EAE7FBF74EFD0028B8BF001940EAE7
:10E02400E075A542C2DAC2E74FF0FF34EBE70446DD
:10E03400E9E700BFBC0D0308C411030810B504468A
:10E0440086B00846FEF738FB6A4601462046FFF7CD
:10E0540097FF009B5B0043F001030393019B5B006C
:10E0640043F001030493029B5B0043F0010303A903
:10E074000320059302F0E8FA06B010BD10F0030285
:10E08400034603D100680749884209D013F0010010
:10E0940007D132B91868044BC31A58425841704723
:10E0A4000120704714FA0208C408030810B5044696
:10E0B400FFF7E4FF38B9A20704D12068034BC31A61
:10E0C4005842584110BD0120FCE700BFD8040308A2
:10E0D400044B0B60044BC1E901300023CB600846BC
:10E0E400704700BFE40C0308F1E0000813B50446D0
:10E0F400806800F00303022B11D101A98008F2F714
:10E1040082FFE368019A93423FBFC05C400040F045
:10E11400010001332CBF0020E36002B010BD83680E
:10E124000193C068EDE7000008B5FBF7D7FBC28890
:10E1340004490548972A0CBF42239723FDF762F947
:10E14400F2F752F8341203089C0303082DE9F04F48
:10E15400834685B008680C46FBF7C0FB81466068BF
:10E16400FBF7BCFB814502D06068FFF7DDFF206848
:10E1740000F00303022B3BD102A98008F2F743FF0E
:10E184000646606800F00303022B35D103A980081A
:10E19400F2F739FF8246029ABBF1020F06EB02083E
:10E1A40031D9A368234FBB422BD0012100914846AB
:10E1B400314601F0BBFF0546BBF1030F0AD0E3680B
:10E1C400BB4207D0012200923146029A484601F030
:10E1D400ADFF8046039B53BBA8EB05012846F3F72C
:10E1E40041FC0130400040F0010005B0BDE8F08F73
:10E1F40083680293C668C4E783680393D0F80CA0CD
:10E20400C9E73546D8E73546E4E7514628460DF0D8
:10E2140071F838B901343546039AAE184645F4D935
:10E224006000E0E72846F3F707FC0646F3E700241E
:10E23400F2E700BFBC0D030801F00303022BF7B59E
:10E244000746084609D101A98008F2F7DCFE044616
:10E25400019B33B9164803B0F0BD8B680193CC68B9
:10E26400F6E7144B9F4202D0134B9F420CD1254634
:10E27400002616E0605DB8470028EBD00135019B0D
:10E28400AB42F7D80D48E6E70025F8E715F8010B8F
:10E29400F3F702FC28B115F8010CB847064600282C
:10E2A400D8D0019A2B1B9A42F0D8002EEAD1D1E79C
:10E2B40004FA0208FD1A0008111B00080CFA0208EF
:10E2C40001460148FFF7B8BF891A00080146014812
:10E2D400FFF7B2BF9D1A000801460148FFF7ACBF23
:10E2E400B11A000801460148FFF7A6BFFD1A00084D
:10E2F40001460148FFF7A0BF111B0008884230B552
:10E3040013D20378303B092B0FD8002313600A255E
:10E3140010F8014B1368303C05FB03438142136042
:10E3240003D00378303B092BF2D930BD012A13B551
:10E334000C4613D100F00303022B0BD101A9800872
:10E34400F2F761FE019B636042232060A36000201A
:10E3540002B010BD83680193C068F3E70120F7E7BA
:10E364002DE9F84F98468F1804460D460B460022B7
:10E374009F4217D8002A0CBF27262226324623495B
:10E38400DFF89890DFF898A0DFF898B02046F3F70C
:10E394002DFBAF4210D8324620461C49BDE8F84F49
:10E3A400F3F724BB13F8011B272903D02229DFD15B
:10E3B4002726E3E70122DBE715F8012BB24205D15A
:10E3C400134932462046F3F711FBE2E75C2A04D1F5
:10E3D40010492046F2F7C9FFDBE71F2A08D97F2A34
:10E3E40012D0B8F1000F01D013060DD40749E9E7A4
:10E3F4000A2A01D10849ECE70D2A01D15946E8E778
:10E40400092A01D15146E4E74946DBE7D61503085A
:10E41400D5150308D9150308DC150308E515030809
:10E42400E2150308DF1503082DE9F8430D461949E1
:10E43400194FDFF87480DFF8749016460446F2F73B
:10E4440094FF2E44AE4205D820461249BDE8F84355
:10E45400F2F78BBF15F8012B222A01D05C2A04D1D4
:10E4640039462046F3F7C2FAECE71F2A01D90B49D3
:10E47400F7E70A2A04D10A492046F2F776FFE1E7D2
:10E484000D2A01D10749F7E7092A01D14946F3E7E3
:10E494004146E6E76AFC0208D5150308D6150308C9
:10E4A400DC150308DF150308CE150308E21503087D
:10E4B40001F00303022B73B50446164608460DD13A
:10E4C40001A98008F2F79FFD0546032E0AD1019A9F
:10E4D40029462046FFF7A8FF02B070BD8B68019360
:10E4E400CD68F2E7042E06D12B46019A074920464F
:10E4F400F3F77CFAF0E706492046F2F736FF0123EA
:10E50400019A29462046FFF72BFFE5E72C1803085C
:10E5140086F802082DE9F0479942814692461F4643
:10E52400DDF8208013D3B8F1000FA1EB0304D6BFAC
:10E5340025460025002409EB05063A465146304697
:10E544000CF0D8FE20B1A54201D04544F3E70026E3
:10E554003046BDE8F08700002DE9F04F824687B0D1
:10E5640008680D46CDE90223FBF7B8F90746686849
:10E57400FBF7B4F9874202D06868FFF7D5FD286835
:10E5840000F00303022B3FD104A98008F2F73BFDFE
:10E594000446686800F00303022B39D105A98008FA
:10E5A400F2F731FD8146049ABAF1020F04EB020836
:10E5B40035D92549AB688B428B462ED00121009179
:10E5C4003846214601F0B2FD0646BAF1030F0AD0DF
:10E5D400EB685B4507D0012200922146049A384635
:10E5E40001F0A4FD8046B04509D3029B00934A463E
:10E5F400059BA8EB06013046FFF78CFF88B9039B07
:10E60400F3B11248FAF7A4FB83680493C468C0E723
:10E6140083680593D0F80C90C5E72646D5E72646CF
:10E62400E1E70B4B9F4209D101462046F3F70DFA6F
:10E63400400040F0010007B0BDE8F08F001BF7E791
:10E644004FF0FF30F7E700BFBC0D03085C17030869
:10E65400C818030800230122FFF77EBF00234FF0F0
:10E66400FF32FFF779BF01231A46FFF775BF012375
:10E674004FF0FF32FFF770BFF8B50746102015467C
:10E684000E46F1F7D7FD04460760856076B129464A
:10E694003046F2F7C3FB6060681CF1F7CBFD2A46F5
:10E6A400E06031460CF0BCFD002242552046F8BD26
:10E6B40008B5F2F701FC800040F0020008BD00003C
:10E6C400194B984270B506460D460FD1D1E9011099
:10E6D400F2F7C2FB044648B12846F2F771FDA400E4
:10E6E40000232B6044F00204204670BD1020F1F793
:10E6F400A1FD6968816004460660A868F2F78EFB94
:10E7040069682B6860600131994208D1AB68E360A5
:10E71400D4E9022100238B54AB602B60E4E7A868A2
:10E72400F1F7A3FDE060F3E7C81803082DE9F04111
:10E734008AB004460191FBF7D1F804F00303022BDD
:10E74400064630D102A9A008F2F75DFC0746019AFB
:10E75400364B12F0030F05D112689A4209D034499E
:10E764008A4206D0DC68314801AB00220121A0476F
:10E77400019004AA03A90198FBF748FA002425464E
:10E78400039BA34213D8294606A8F2F7FCFC089C75
:10E794000025039BAB4228D806A93046FFF790FF1B
:10E7A4000AB0BDE8F081A3680293E768CFE7049B51
:10E7B40053F82400FBF792F886424FEA840802D00B
:10E7C4001C48FAF769FC0CB1029B1D44049B53F8E6
:10E7D400080000F00303022B05D18008F2F709FCBE
:10E7E40005440134CCE78068FAE735B12046029A43
:10E7F40039460CF015FD029B1C44049B53F825007C
:10E8040000F00303022B0CD105A98008F2F7FBFBEF
:10E8140001462046059A0CF003FD059B01351C4476
:10E82400B7E783680593C168F3E700BF5C0A030890
:10E83400981B0308B017030870B500F00303022BFC
:10E8440086B004460D4626D101A98008F2F7DBFB09
:10E8540006462846FBF72EF9019B8342054617D24C
:10E86400014602A8F2F78FFC2A46202104980CF0F6
:10E874001BFD019A0498AD1A314600EB55000CF0CB
:10E88400CFFC2046FBF72AF802A9FFF719FF04463C
:10E89400204606B070BD83680193C668D9E72DE9A8
:10E8A400F04F04288FB00C4618D1C868FBF702F962
:10E8B40018B920680FB0BDE8F08F40EAE073206813
:10E8C4000393FBF70BF805906068FBF707F8059BCB
:10E8D4009842054605D06068FFF726FC4FF0FF33E9
:10E8E400EDE7A068FAF7FAFF854201D0A068F3E7E4
:10E8F400206800F00303022B2CD107A98008F2F74B
:10E9040082FB8346606800F00303022B27D108A929
:10E914008008F2F778FB0490A06800F00303022B50
:10E9240022D109A98008F2F76EFB8246DDE907329D
:10E934009A42BED80026DDE90753002B5CD126B1EC
:10E94400099A514630460CF06BFC099F4FF00109BF
:10E95400D8462FE083680793D0F80CB0D2E78368D9
:10E964000893C3680493D7E783680993D0F80CA08D
:10E97400DCE7029A02B90133A3EB080536B12A4653
:10E984004146F01902930CF04BFC029B3D4436B116
:10E99400099A0293514670190CF042FC029B099F9C
:10E9A400089A2F44079D03EB02085D44A5EB080574
:10E9B40009F10109039B99450DD065B1089B0293A8
:10E9C40001230093049A029B29464046FFF7A2FDC7
:10E9D40003460028CDD126B12A464146F0190CF051
:10E9E4001FFCE91966B9B9F1000F3FF462AF0AA838
:10E9F400F2F7C9FB0C9E9EE74FF000094F46A7E7CC
:10EA04000AA90598FFF75CFE54E72DE9F04101F0EF
:10EA14000303022B86B080460C4616D101A9A00838
:10EA2400F2F7F1FA0646019902A8F2F7ACFB049F4B
:10EA34000025019BAB420CD82046FAF74FFF02A9F0
:10EA4400FFF73EFE06B0BDE8F0818B680193CE6807
:10EA5400E9E7705DC04778550135EAE701460148AA
:10EA6400FFF7D3BF251B000801460148FFF7CDBFC0
:10EA7400351B000838B504460D46F2F7EDF930B9F8
:10EA84002A4621460448BDE83840FFF7F5BD80001A
:10EA940040F0020038BD00BFC8180308F0B50746AF
:10EAA40087B00D461E4614460AB1FAF7BDFC06228D
:10EAB40021462846FAF714FC002D4AD0012D0FD127
:10EAC4006A46102102A8F2F76FFB316868462246B5
:10EAD400FAF71CFF02A93846FFF7F2FD07B0F0BDB4
:10EAE4003068830726D102681B4B9A4222D14668BC
:10EAF400D0E9025426B929462046F2F78FF9064692
:10EB040029462046F3F723F818B900211348FAF7E9
:10EB1400FFF829462046F2F79FF918B1800040F02B
:10EB24000200DBE71020F1F785FB0760C0E902541F
:10EB34004660D3E702A90122FBF788F9DDE9020167
:10EB4400F3F705F80028E0D0DDE90201FFF792FFB2
:10EB5400C4E70620C2E700BFEC150308D803030886
:10EB6400012807B50B4606D10B68009340F28623B3
:10EB7400019302206B46014600220348FFF78EFFF3
:10EB840003B05DF804FB00BFC81803080A46014639
:10EB94000148FFF771BD00BFEC15030870B50346CB
:10EBA400086800F00302022A8CB00C4604D06ABB49
:10EBB400056839498D4229D1023B012B69D8022AC3
:10EBC4001ED108A98008F2F71EFA0546206800F055
:10EBD4000303022B18D18008F2F706FA044624B97D
:10EBE40008992846F2F71AF904461020089EF1F70E
:10EBF40021FBC0E90265294B036044600CB070BD81
:10EC040083680893C568E1E74468E8E7012B40D8C6
:10EC1400C30712D5441002D50020FAF799F821460B
:10EC240008A8F2F7B0FA002122460A980CF03CFB3F
:10EC340008A91A48FFF744FDE0E7012201A9FBF700
:10EC4400F6F820B1DDE90101FFF7A0FFD6E720685F
:10EC5400FBF764F878B910210DEB0100F2F783FAA1
:10EC6400206808A9F9F72EFC04462046F9F78EFC23
:10EC740020B904A9DDE7411004A8EFE7FAF71AFF69
:10EC8400FF2801D90648C8E7C1B204A8F2F7F0FA90
:10EC9400EBE70448FAF700FAC8180308EC15030870
:10ECA4006C1203088512030808B508460AB1FAF77E
:10ECB400BBFB21B11946BDE80840FFF76FBF01480F
:10ECC40008BD00BFA0120308012807B50BD10B68CB
:10ECD400009340F28623019369460220FFF75EFF0A
:10ECE40003B05DF804FB0028F8D10148F8E700BF41
:10ECF400A01203080B461146034A8242184601D16A
:10ED0400FFF7B8BEFFF742BFC81803082DE9FF415B
:10ED140002AB0C460193244B0093043101230138C8
:10ED2400FAF70CFB2068FAF7D9FD00218046084663
:10ED3400FEF7B2F80746206800F00303022B0CD15B
:10ED440003A98008F2F75FF90146039D0D44A94227
:10ED540007D3384604B0BDE8F08183680393C168E3
:10ED6400F3E70B461A780A2A1C4603F1010319D06B
:10ED74000D2A12D163780A2B0CBF022601269DF8B6
:10ED84000830621A03B132444046FFF7B3FF01462C
:10ED94003846FDF719FEA119D9E79D421C46E1D179
:10EDA4000026ECE70126EAE72C1203082DE9F04FD0
:10EDB4008BB00C46059010681646FAF78FFD012CAF
:10EDC400824642D07068FAF789FD8245706801D0A6
:10EDD400FFF7AAF900F00303022B31D109A9800837
:10EDE400F2F711F90390099B0693306800F00303CE
:10EDF400022B2FD109A98008F2F705F90490059B8D
:10EE0400DDF82480012B4FF0000409BF4FF0FF33DD
:10EE1400012308F1FF3507931CBF07930025C34660
:10EE2400A1462746BBF1000F19D1B9F1000F27D134
:10EE3400224B23489A4508BF06200BB0BDE8F08F4B
:10EE440083680993C3680393CDE7062306931D4B98
:10EE54000393CAE783680993C3680493CFE7049ACA
:10EE640006990398012300932A44FFF753FBA0B9A2
:10EE7400B9F1000F16D1059B43B908F1FF342F46B1
:10EE8400621CD21B424511D13068D6E7059B012B89
:10EE94002C4609D02F464FF00109079B0BF1FF3B8D
:10EEA4001D44BFE72C46F8E74F46E9E7049B3B4483
:10EEB40019465046FFF71EFFBFE700BFC8180308F6
:10EEC400A0120308C01803080A4601460220FFF7EF
:10EED4006DBF0A4601460020FFF768BF0A46014697
:10EEE4000120FFF763BF00002DE9F04188B00C4614
:10EEF40090460546FAF7F2FC07462046FAF7EEFC80
:10EF0400874202D02046FFF70FF905F00303022BD6
:10EF140012D103A9A808F2F776F8064604F0030311
:10EF2400022B0DD104A9A008F2F76DF80246049B48
:10EF340053B91C48F9F70CFFAB680393EE68EDE78F
:10EF4400A3680493E268F2E7174BCDF800809F4270
:10EF540014BF164B0623CDE90533B8F1010F07930F
:10EF64003046DDE903130CBF05950795FFF7D2FA88
:10EF740088B1851B2A4631463846FFF7BBFEDDE9DA
:10EF84000321521A2944CDE90504521B3144384661
:10EF9400FFF7B0FE079005A9032001F055FB08B068
:10EFA400BDE8F0811C180308C8180308A012030860
:10EFB4000122FFF799BF4FF0FF32FFF795BF000022
:10EFC400F0B585B005460C461746FAF787FC05F000
:10EFD4000303022B064615D1A8086946F2F713F875
:10EFE4000546042F26D1A307009818D12268124B96
:10EFF4009A4214D101AA214602F0DFFB30B90F482E
:10F00400FAF778F8AB680093ED68EAE7DDE90112F6
:10F014003046521A2944FFF76DFE05B0F0BD014693
:10F02400002322463046FAF72DFE285C400040F0CB
:10F034000100F2E70020F0E7E01103089AF8020863
:10F044002DE9F34100F00308B8F1020F04460D4620
:10F0540001F0030712D1022F05D1431A5842584137
:10F0640002B0BDE8F0818008F1F7BEFF064668688B
:10F0740086B178B1B0420DD00020F1E7022F466886
:10F08400F5D18808F1F7B0FF002EF2D1A368009300
:10F09400E46807E0B8F1020FF8D1A0086946F1F777
:10F0A400B2FF0446022F0FD101A9A808F1F7ABFF64
:10F0B4000146DDE900239A42DED120460CF01AF91C
:10F0C400B0FA80F04009CBE7AB680193E968F0E758
:10F0D40008B500F00303022B0CD04BB90268064BB1
:10F0E4009A4205D1D0E90210BDE80840F1F7E4BE28
:10F0F400FFF71AF8800808BDC818030800F00303D6
:10F10400022B07B507D023B903689A69064B9A42C4
:10F1140008D0FFF709F801A98008F1F774FF03B0DC
:10F124005DF804FBC068FAE769F1000800F0030326
:10F13400022B13B50C4607D023B903689A69084B10
:10F144009A4209D0FEF7F0FF01A98008F1F75BFFAE
:10F15400019B236002B010BD83680193C068F7E788
:10F1640069F100082DE9F04F9DB0212805460C46B1
:10F17400099201F0030640F0D98109AB0B9312F018
:10F1840003054FF001030C93914608D11368AD4A6F
:10F19400934207D10BAA0CA9484601F06BFB4FF030
:10F1A400000904E0A84A934218BF4FF000090C9BE1
:10F1B4000493022E0B9B079306D10DA9A008F1F727
:10F1C40022FF059000230AE0A3680D93E3680593EA
:10F1D400002EF7D19D4B2268D11A4B424B4110AA05
:10F1E400102114A80693F1F7DFFF059A0D9B14462E
:10F1F40002EB03080027A04505D8049BBB4200F09E
:10F204008B8193481BE02178252904D014A8F2F7B8
:10F214002FF80134EFE7661CB04502D88D48F9F7A2
:10F2240097FD6178252904D114A8F2F721F8344612
:10F23400EFE7282930D1B9F1000F02D18648F9F758
:10F244002BFFA01C01460E4616F8013B292B1DD1AD
:10F25400091AFFF72DFA01464846FBF76DFE012710
:10F2640005464FF0000B33464FF0200A5E469845A2
:10F274001C4613D80023A0450E9336D923782A2B95
:10F2840072D1049BBB4225D87448D8E7884501D184
:10F294007348C4E73146D6E70025E2E713F8012BAB
:10F2A4002D2A02D146F00106E1E72B2A02D146F0CD
:10F2B4000206DCE7202A02D146F00406D7E7232A17
:10F2C40005D0302AD6D146F040069246CFE74FF01B
:10F2D400100BCCE77B1C0893079B53F82700FAF725
:10F2E400E9FB089B0E9001341F464FF0FF33A04505
:10F2F4000F9393D923782E2B16D1601C80458DD97A
:10F3040063782A2B37D1049BBB42BDD97B1C08935D
:10F31400079B53F82700FAF7CDFB089B0F900234A4
:10F324001F46A0457FF67AAF35B9049BBB42ABD9E3
:10F33400079B53F8275001372378672B40D8652B58
:10F3440080F0AD80582B55D01DD8A3F14502022A78
:10F3540040F2A580059A43494348A41A00941A46EA
:10F36400FCF750F8F0F740FF20460EAA4146FEF79E
:10F37400C5FF0446B9E700230FAA41460F93FEF7E1
:10F38400BDFF0446CDE7632B3FD0642BE2D1AA072F
:10F3940009D12B68354A934205D12846FCF754FA23
:10F3A400FCF7A2FE05460F9B03930E9B0096CDE946
:10F3B40001A30A226123294610A8F2F7A3F828E73B
:10F3C400732B13D8722B78D2692BE0D06F2BC1D159
:10F3D400BBF1000F01D046F404760F9B03930E9B00
:10F3E4000096CDE901A308226123E4E7752BCED072
:10F3F400782BAFD10F9A03920E9A46EA0B06CDE909
:10F4040001A20096173B1022D5E705F00303022B57
:10F4140004D08BBB2B68164A93422DD118A92846D9
:10F42400FFF784FE189A012A014601D0114806E725
:10F434000E9B019320230093334610A8F1F7A4FFF9
:10F44400E7E600BF981B030840FD0208EC1503081B
:10F4540069130308B0120308C2120308EC1203086C
:10F46400D61203083413030814040308D804030849
:10F47400C81803080F1303082846FEF7FFFD60B100
:10F484002846FAF717FB0E9B0193202300938DF86F
:10F4940060003346012218A9CFE77048CFE628461A
:10F4A400FAF79CFB0F9B217801930E9B0093324645
:10F4B400534610A8F2F730F9ABE612AA102118A8A7
:10F4C400F1F772FE2378722B0CBF0122002208D0C0
:10F4D400069B33B1AB0704D12B6861498B4208BF4B
:10F4E4000422294612A8FAF711FA0F9B199A002B45
:10F4F400B8BF0F920F990E9B01938A424FF02003DD
:10F50400009328BF0A4633461A9910A8F1F73CFF26
:10F5140018A8F1F755FE7CE65148524B069A14A9F7
:10F52400002A08BF1846FFF7CBF819E00846FAF797
:10F53400D5F9022E074616D112A9A008F1F763FDEA
:10F5440080461D2D099823D114A9FAF7E5FA38B19C
:10F55400149B002B0CDC434C4348A74208BF0620F5
:10F564001DB0BDE8F08FA3681293D4F80C80E8E7CF
:10F57400129918A85943F1F706FE1A9B009301212A
:10F584004046149B129A02F004F918A93846CAE7B7
:10F59400FAF7A4F98742099815D100F00303022B66
:10F5A4000CD118A98008F1F72EFD8146189E0E2D66
:10F5B40026D016D8042D48D90020D1E783681893A3
:10F5C400D0F80C90F2E7264B9F4208D1012218A9EB
:10F5D400FAF72DFC0028C3D0DDE91896E7E7FEF71B
:10F5E400A3FD1B2D0CD0242DE6D1012300934A4604
:10F5F400334612994046FEF78DFF20BB1B48AFE708
:10F60400129B3BB90998FAF769F9874202D1099C20
:10F614002046A5E7002EFBD0129918A83144F1F733
:10F62400B2FD129A1A9841460BF0FAFD129B1A98F1
:10F634003246494618440BF0F3FD18A93846FFF743
:10F644003FF80446E4E70A488AE700964B46129AD4
:10F654004146284602F0F0F8CFE700BF251303081F
:10F66400EC150308C8180308A012030804FA0208DA
:10F674000CFA02082DE9F74F05460868DFF840A1A7
:10F684000C46FAF72BF9012D814625D9022D67681E
:10F6940023D0A068FAF70EFA064600210846FDF7C3
:10F6A400FBFB8046206800F00303022B18D1694657
:10F6B4008008F1F7A8FC0446009D5745254447D12E
:10F6C400AC4227462DD238780134F2F7DBF9002812
:10F6D400F6D19EB3BA460AE057464FF0FF36DCE750
:10F6E40083680093C468E7E75545544607D95446F0
:10F6F4000AF1010A2078F2F7C5F90028F4D0E21BD8
:10F7040039464846FFF7F6FA01464046FDF75CF9EC
:10F71400A54206D9A542274607D1002E0CDCAF42EC
:10F72400D7D3404603B0BDE8F08F38780134F2F700
:10F73400A9F90028EED1F0E7013EF0E73946EA1BCB
:10F744004846FFF7D7FA01464046FDF73DF9E8E79A
:10F754003846FAF7C3F8814502D03846FEF7E4FC90
:10F7640001A93846FFF7E2FC019B83469BB9134885
:10F77400F9F7EEFA2F463A1B21464846FFF7BAFA44
:10F7840001464046FDF720F9AF42CAD2019C002E43
:10F794003C4400DD013EDDF804A02746002EE9D0FC
:10F7A40007EB0A039D42E5D35246594638460BF00F
:10F7B400A1FD0028DFD00137F0E700BF1C180308C3
:10F7C400BC0D03082DE9F04F022885B007460D460D
:10F7D40006D8FFF74FFF0546284605B0BDE8F08F71
:10F7E4000868FAF77BF88246D5E9000600F00303BF
:10F7F400022B0CD102A98008F1F705FC8146A86808
:10F80400FAF758F9041E07DA29463846E1E783680F
:10F814000293D0F80C90F2E704F10108002140466D
:10F82400FDF73AFB274B9E42054602D12648F9F7DD
:10F8340061FC03A93046FFF779FC039B834613B9A7
:10F844002248F9F785FA029E4E44039BF71A5CB1ED
:10F85400B94509D81A465946384601930BF04AFD72
:10F86400019B00B3013FF2E7A6EB0902494650466B
:10F87400D5F80CB0FFF73EFAA7004BF82400002C93
:10F88400AAD0A8EB0404E868A6003246C1190BF01C
:10F89400F3FC6A68E868121B9200002130440BF004
:10F8A40003FDAC6098E7EA680192F21BD21AF918DA
:10F8B4005046FFF71FFA019B3E4643F82400013CE3
:10F8C400C3E700BFBC0D0308601803081C18030835
:10F8D4002DE9FF41804608680D46F9F7FFFF07460A
:10F8E400286800F00303022B26D102A98008F1F74F
:10F8F4008AFB044603A96868FFF718FCB8F1020FF5
:10F9040006461DD901230093029AAB682146384666
:10F9140000F00CFC039A029B041B14449C4211D873
:10F9240031460BF0E7FC084B084A002814BF184680
:10F93400104604B0BDE8F08183680293C468D9E737
:10F944002046E7E70048F4E704FA02080CFA020844
:10F9540073B50646086800F00303022B0D460ED16A
:10F9640069468008F1F74FFB044601A96868FFF770
:10F97400DDFB022E014606D90C48F9F7BBFB836870
:10F984000093C468F1E7DDE900329A420BD89B1A70
:10F99400E0180BF0AFFC064B064A002814BF1846CB
:10F9A400104602B070BD0248FBE700BF30170308E1
:10F9B40004FA02080CFA02082DE9F04F2DED028B2F
:10F9C40095B0894605909246102108AA0CA8049384
:10F9D400F1F7EAFB9FEDB48AD1450AD30CAB0FCB08
:10F9E400059C84E80F00204615B0BDEC028BBDE8F1
:10F9F400F08F4F4617F8011B7D290DD1574508D2CA
:10FA040099F801107D2904D10CA8F1F731FCB9460D
:10FA140007E0A648F9F79CF97B2905D00CA8F1F773
:10FA240027FC09F10109D7E757451BD299F80110C2
:10FA34007B29E9D07D2900F04882212900F0458204
:10FA44003A2900F0428239460A787D2A0B4601F1B0
:10FA5400010103D0212A01D03A2A01D11E4637E2FE
:10FA64005145F1D19248D5E75A1C92451BD95D788E
:10FA7400A5F17202012A16D802339A45F2D91A78EE
:10FA84003A2A40F01F8203F101095B787D2B13D0E1
:10FA94004946012251450B46E4D211F8010B7B285B
:10FAA40003D10132F6E78348B4E77D28F2D1013A65
:10FAB400F0D14C46994602E0CA45D3D9002499F8BE
:10FAC40000307D2B01D07C48A4E7002F45D00023D3
:10FAD40038781093F1F7EAFFD8B93B46B342984619
:10FAE40005D213F8012B2E2A01D05B2AF6D1A8EBFC
:10FAF40007013846FEF7DCFD00220746014622983E
:10FB0400F9F7D2FC38BB39466C48FBF743FCF0F7F5
:10FB14006BFB049B1B68002B01DD69487AE710AA84
:10FB240031463846FEF7EAFB209A109B013A9A4286
:10FB3400804603D863496448F9F7EAF80133219A07
:10FB440052F82370049A4FF0FF331360B04514D277
:10FB54005E48F9F7CFFA4768F8E7049B1B68002B67
:10FB640001DA5B4856E7209A013A9342E2D2013324
:10FB7400219A52F82370049A1360ACB9002D00F056
:10FB84008380733D18BF01250AAA102110A8F1F73C
:10FB94000BFB39462A460AA8F9F7B8FE10A94D48C6
:10FBA400FEF78EFD074601E0002DEAD14FF0FF334A
:10FBB40007930A93002C00F0B480F9F783FB229B8F
:10FBC4000293219B0193209B00934A46049B214668
:10FBD40010A8FFF7F1FE10A8F1F73BFB119D90F878
:10FBE400008083460544B8F1000F5BD041463A4893
:10FBF4000BF0F6FB002800F05E810BF1010B0026F0
:10FC04009BF800302B2B6DD02D2B6DD0202B6DD17C
:10FC140004240BF1010B9BF80030232B04BF0BF1E0
:10FC2400010B44F010049BF80030302B07D1B8F1DD
:10FC3400000F08BF4FF03D08002E08BF302658467D
:10FC440007AA2946FEF75AFB03782C2B834604BFE8
:10FC540000F1010B44F020049BF800302E2B05D159
:10FC64000BF101000AAAFEF749FB83469BF80050FA
:10FC7400002D3DD0294619480BF0B2FB10B19BF87A
:10FC84000130ABB31648C5E625467DE73146124838
:10FC94000BF0A6FB28B133460BF1020B46469846FF
:10FCA400AEE780464646ABE70000C842941303081B
:10FCB400D5130308BC130308ED13030890000308CD
:10FCC400111403085B140308540003087414030894
:10FCD40091140308C8180308DB140308E01403088C
:10FCE400F0140308022494E7002492E7002492E726
:10FCF40010A8F1F765FAB8F1000F08D13846FEF7FD
:10FD0400D5F9002814BF4FF03E084FF03C08002EF0
:10FD140008BF202614F0060F0AD0732D04D16F48B3
:10FD240078E625462646E9E7632D01D16C4871E65D
:10FD3400B8F13D0F20D0B8F15E0F20D0B8F13C0FE0
:10FD440001D144F001043846FEF798F978B3632DE5
:10FD540059D028D8472D15D8452D28D2002D49D063
:10FD6400252D24D03846F9F7C9FD2A4603465D49B6
:10FD74005D48FBF747FBCAE644F04004E3E744F080
:10FD84008004E0E7582D5BD0622DEBD10023039370
:10FD9400079B0094CDE9016302226123394608A838
:10FDA400F1F7B0FB3DE6672D1ED8652D22D338460A
:10FDB400FEF77CF9002861D0002D5DD06E2D5BD05C
:10FDC400472D47D8452D49D2252DCBD13846F9F7B3
:10FDD40005FF0A9B0193079B009344F4807233460A
:10FDE400662120EE080A43E06F2D1BD0782D27D022
:10FDF4006E2DB7D100230393079B0094CDE90163D3
:10FE04000A226123CAE73846F9F754FE079B8DF8A6
:10FE14004000CDE900630122234610A908A8F1F7A8
:10FE2400B3FAFEE5E3064FF000030393079B48BFD4
:10FE340044F40074CDE90163009461230822ADE722
:10FE440000230393079B0094CDE901631022A5F1DD
:10FE54001703A3E7A5F16503022B83D83846F9F706
:10FE6400BDFE0A9B0193079B009322463346294615
:10FE740008A8F1F751FCD4E56725EFE7B8F13D0F89
:10FE840001D11A48C6E515B1732D7FF46BAF10A9E3
:10FE94003846FFF74BF90A9B109A002BB8BF0A9219
:10FEA4000A9B9A4288BF1093079B109ACDE900637E
:10FEB40001462346B2E79BF80160002E7FF4E6AECC
:10FEC400B0469DE64FF00009F3E53B4600273E4669
:10FED4001A78212A3FF4C8AD0025D0E50915030896
:10FEE4003515030868150308140403089915030855
:10FEF40070B50546086800F00303022B8AB00C466F
:10FF0400164617D104A98008F1F77DF80146049A32
:10FF1400009500230A44059306A805ABCDE90146E4
:10FF2400FFF74AFD2068F9F7D9FC06A9FEF7C8FBDC
:10FF34000AB070BD83680493C168E8E707B501A9F6
:10FF4400FFF7F4F80199FEF7B3FB03B05DF804FB87
:10FF5400044B0B60044BC1E901300023CB6008461D
:10FF6400704700BFE40C030871FF000873B5054631
:10FF7400806800F00303022B15D101A98008F1F772
:10FF840042F8EC68019B9C4211D204442046F1F7EC
:10FF940053FD061B31462046FEF78AFBE9683144CF
:10FFA400E96002B070BD83680193C068E9E700208E
:10FFB400F7E7000001F00303022B13B504460846DB
:10FFC4000AD101A98008F1F71EF8042C08D0052CE9
:10FFD4000DD0002002B010BD8B680193C868F4E70F
:10FFE400019A0648064B002A08BF1846F2E7019911
:0CFFF400F1F738FD400040F00100EBE7A1
:020000040801F1
:100000000CFA020804FA020801F00303022B2DE99E
:10001000F74F0446154608460ED101A98008F0F7AF
:10002000F4FF0646032D019A0AD131462046FEF719
:10003000FDF903B0BDE8F08F8B680193CE68F1E75E
:100040002DB9334630492046F1F7D2FCF1E706EBF3
:10005000020833460022984516D8002A0CBF2727ED
:1000600022273A462949DFF8BC90DFF8BCA0DFF828
:10007000BCB02046F1F7BCFCB0450FD83A46234946
:100080002046F1F7B5FCD4E713F8011B272903D06C
:100090002229E0D12727E4E70122DCE73046F1F707
:1000A000B4FC05463046F1F7C9FCAF42064605D11F
:1000B00017493A462046F1F79BFCDDE75C2D04D159
:1000C00014492046F1F753F9D6E7A5F120035E2B3A
:1000D00002D82A460D49EDE70A2D01D10E49F0E775
:1000E0000D2D01D10D49ECE7092D01D10C49E8E7AF
:1000F000FF2D2A4601D85946DCE7B5F5803F34BFCD
:1001000051464946D6E700BF2C180308D615030808
:10011000D5150308D9150308DC150308DF150308F6
:10012000E2150308301A0308CE150308E515030885
:10013000F7B51E462C4B9DF8207083420D461446A1
:1001400008D13B4632462146F9F79EFD0544284634
:1001500003B0F0BDF3070CD5761001960199002984
:1001600005EB040229DA013A0020134689B9551C2F
:10017000EDE701A93046F9F7D1FC0028EED1304671
:10018000F9F7BEFB194902461948FBF73DF9F0F7AC
:100190002DF8AA4207D200B10191002FD7D11549FD
:1001A0001548F8F7B7FD1B7803F0C003802B02F168
:1001B000FF321CBF01310120D7E70024954205D34F
:1001C00004B10191002FEAD01546C0E711F1FF31CB
:1001D000BDD3681C0124054601302B7803F0C00311
:1001E000802BF8D0EAE700BFEC15030804190308D8
:1001F0009C0303082C190308540003082DE9FF4150
:1002000004460D461746F9F76BFB04F00303022B77
:10021000064617D1A00803A9F0F7F7FE0446042FFD
:100220004DD1AA0734D12A68274B9A4230D1EA68C7
:10023000D5E90138254DAA4208D0032A06D0244822
:10024000F8F75AFFA3680393E468E8E7AB421BD0D2
:10025000012200922146039A3046FFF769FF0746C4
:10026000A845039A12D00123009321464346304605
:10027000FFF75EFF874224D8C21B39463046FEF79F
:100280003BFD04B0BDE8F0812746E9E7A018F1E79F
:1002900000230093039A2B4621463046FFF748FF80
:1002A0000278130608D40121FEF704FAE9E70131C8
:1002B0005B081A42FBD1F7E740230121F9E7002050
:1002C000DFE70620DDE700BFE0110308BC0D0308EF
:1002D0009AF80208086801F07FBB000030B40A46B3
:1002E0000D68054C0549064B8D420CBF2146194649
:1002F00030BCF1F77DBB00BF341B0308841A030830
:10030000471B03082DE9F84345680446884616460E
:100310001F4615B92148F8F71DFD2B7BDB0710D5CB
:10032000D5E90109EFF788FFA8606068027B002328
:100330006FF30002027349464268E36080680AF086
:1003400071FFA568AD1921D26068D0E90017A942F4
:1003500003D24160691AF0F773FFA268BA4206D966
:1003600063689868D21B002138440AF09FFF6368D5
:100370009868A3683246184441460AF053FF636800
:10038000A5605A68AA4238BF5D6003E01B233B604A
:100390004FF0FF363046BDE8F88300BF6C1B030802
:1003A000F0B5074685B010201E460D46EFF744FF16
:1003B000002304460760C0E90233002D3AD03068BC
:1003C000C20705D4830713D102681B4B9A420FD191
:1003D000F9F772FB0025F0F700FF606025B30023FA
:1003E000DDE901122046FFF78DFF0023A3601BE02B
:1003F000012201A9F9F72CFD336803F00302022A58
:1004000005D0A2B91B689A690C4B9A420FD11020F3
:10041000EFF712FFDDE901216060F0F7BEFE6368CF
:10042000029A5A603368E360204605B0F0BD029836
:100430000125D0E71020CEE7C408030869F10008C1
:100440000229F8B5044605D0042923D001291CD17E
:10045000002024E05668012E10D0022E10D000207B
:10046000156829182CBF0127002766B1002D0ADA6C
:10047000884238BF0021A1601160E9E78068EFE79A
:1004800041684868ECE7002FF5D016221A604FF05B
:10049000FF3004E04068F0F7ABFE00206060F8BD7C
:1004A00070B5054608466E6816B90B48F8F752FC59
:1004B0007468A9688C420DD9641A9442B36828BF45
:1004C0001446194422460AF0ADFEAB682344AB60E3
:1004D000204670BD0024FBE76C1B030838B5436859
:1004E00013B90848F8F736FC0568074C0748D3E904
:1004F0000121074B85420CBF20461846BDE8384015
:10050000FEF7FABB6C1B0308C8180308841A03081B
:10051000EC150308D0E902130246486883423FBF46
:10052000981C013351F82000D36028BF0020704789
:10053000044B0B60044BC1E901300023CB6008463B
:10054000704700BFE40C030815050108032A2DE9D4
:10055000F84304460F46154612D11649F0F707FF37
:10056000DFF8649007F1080800267B68B3420CD8D6
:10057000032D17D110492046BDE8F843F0F7F7BE28
:100580000E49F0F7F4FE0125EAE71EB14946204680
:10059000F0F7EDFE2A4658F8041B2046F9F7B8F9A3
:1005A0000136E2E7012B03D105492046F0F7DFFED3
:1005B0000449E0E795F80208E884030829120308D3
:1005C000941B0308BB7E030897F8020810B40C685C
:1005D0000B460246616804F108005DF8044B01F027
:1005E000B1B90A46083050F8041C01F0DFB9000028
:1005F000052870B50D461ED0062808D004281DD148
:100600004A680F480F4B002A08BF184670BD0E4CB1
:1006100001236A685E1C013B9A4203D8600040F0E7
:100620000100F3E755F826100620F7F76DFD334675
:1006300004EB6004EDE748684000F0E70020E5E7E0
:100640000CFA020804FA02088C1B030838B50D46A0
:10065000044690B102308000EFF7EEFD084BC0E990
:1006600000344DB100F10802002355F8231042F880
:10067000041B01339C42F8D138BD0248FCE700BF9F
:10068000981B03088C1B0308F0B51D2885B0044691
:100690000E46154609D80123354F83401F402BD104
:1006A000344A1A401AB9DB0642D1002421E0284618
:1006B000F9F716F9304900F061FF0028F5D06B68B2
:1006C000706839461844FFF7C1FF726800F10803EB
:1006D000920006F10801044618460AF0A3FD6A6874
:1006E00003467068920005F1080103EB80000AF0F0
:1006F00099FD204605B0F0BD03A91046F9F70EFAA2
:100700000028D2D0039B002B10DD706800215843D5
:10071000FFF79CFF00F10803044600937268039BF7
:10072000042106F1080001F036F8E2E7134CE0E797
:100730002846F9F7D5F8124B426A9A4209D0284662
:100740000D4900F0A2FF054618B9022CADD10D4CA1
:10075000CFE76B680093726805F1080306F10801A2
:10076000204601F0A1F80028F1D0074CC1E700BFF6
:100770000000012000400008981B03088C1B0308A0
:100780003105010804FA02080CFA0208042A7FB5B0
:1007900004460D462BD111F0030640681DD10A68AE
:1007A000144B9A4219D101AA01F009F810B9124864
:1007B000F8F7A2FCDDE901303146C01AFFF746FF29
:1007C0000199426808340546920004EB8101083023
:1007D0000AF028FD284604B070BD2A4601460023D1
:1007E0002068F9F751FA023054F82050F2E700255A
:1007F000F0E700BFE01103089AF802082DE9F04184
:100800000C462046114602221E46F8F76BFD6CB3DB
:100810003468A30703D12268154B9A4217D01020E1
:10082000EFF70AFD002105463068F7F74DFE00247A
:10083000804604264046F7F7ABFE074650B92046EF
:100840002946FFF703FF04462846EFF71DFD204623
:10085000BDE8F081A64205D8F1002846EFF707FD74
:100860007600054645F824700134E3E7014CEEE7D5
:10087000981B03088C1B030843680B60083010604A
:100880007047EFF701BD0000F8B50F46114C124953
:10089000124B88421AD0C268A24203D038600124A9
:1008A0002046F8BD406B98B102689A42F1D1466883
:1008B00000F1080505EB86060024B542F0D2394662
:1008C00055F8040BFFF7E0FF0444F6E70024E7E7E0
:1008D0000446E5E715120108240C0308981B0308D9
:1008E0002DE9F3410C46804654F8045B002601A92B
:1008F00028680196FFF7C8FF01982346C76832466B
:1009000008F1FF31B8472861014802B0BDE8F08125
:10091000BC0D03082DE9F047DFF8CC80314FDFF83C
:10092000CC9005460C46AB684BB1E268424506D018
:10093000E35823B1EB6804221A60BDE8F087A06B8E
:10094000F0B169688900002241F002010430F8F733
:10095000ADFDA8B1297C4268EB68286829B1014641
:100960000020BDE8F047F7F7A1BC38B1E5681E49A3
:100970008D4203D01B498C4218BF00692146F0E725
:100980002B6893B9646B002CD7D023684B4509D1F1
:10099000A2465AF8046F04EB8604261D5AF8044F49
:1009A000B24514D3BC42BED1C7E72A7C002AE9D1A4
:1009B000E2684245E6D0BC42E4D01869EA6869685A
:1009C000F7F7D4FCEB681B68002BDBD0B5E7BC4223
:1009D000E4D021462846FFF79DFFEB681B68002BFB
:1009E000DCD0AAE7240C030815120108981B0308A1
:1009F0002DE9F043136887B0064615466BBBD0E976
:100A000001201129CDE90101516B8DF81430CDE998
:100A1000033504BF0C230393B9B10A68174B9A42FC
:100A20001ED10C46DFF85C9054F8048F0027474530
:100A30000BD054F8041F494501D10137F7E701A84D
:100A4000FFF768FF2B68002BF7D02B687BB1042BD6
:100A500003D10B4B2B60B3686B6007B0BDE8F0832C
:100A6000084B9942F1D001A8FFF754FFEDE7054983
:100A7000039301A8FFF74EFFEFE700BF981B0308A1
:100A80003C1E0308240C030838B5044608461146EA
:100A90004FF002121D46F8F725FC0820EFF7CCFBBB
:100AA0002B68C0E9004338BD38B51C4605460846EA
:100AB00011464FF00412F8F715FC23689A0703D18A
:100AC0001A68074B9A4202D00020F8F7E7FA0C2088
:100AD000EFF7B2FBD4E90013C0E90051836038BDE1
:100AE000F41D0308CA880149F0F782BFC21E03083B
:100AF000F0B50F468BB005460021CDE903721446D0
:100B000006A81022CDE9011101AE0AF0CFFB202387
:100B10000595079308967CB90B2305A829680693C9
:100B2000FFF7F8FE019804280BD1224639462869C0
:100B3000F9F754F90BB0F0BD042C0CBF0F231C23A4
:100B4000EBE70028F6D064B1042C14BF022001208A
:100B500032460021F7F799FB034B042C18BF1846C7
:100B6000E8E70120F4E700BFBC0D03082DE9F041E0
:100B7000DFF8708088B004460E461746002518F846
:100B8000043004933168CDF818D0182303A80593D6
:100B9000CDE90055CDE902568DF81C50FFF7BAFE9D
:100BA000009B042B08D13A4631692046F8F7DAF861
:100BB0000B4B98420DD10BE033B16A460021012066
:100BC0000297F7F762FBF3E7A4F109030C2B03D9B3
:100BD000002008B0BDE8F0810D34E4B2CFE700BFDB
:100BE000801103081A1C030830B5254B0C46195C0C
:100BF00089B001AACDE9034114210023CDE90512F2
:100C0000054621688DF81C3003A8CDE90133FFF7B4
:100C100081FE0198042807D121692846F7F774FA64
:100C20000346184609B030BDC0B12146F7F723FB93
:100C3000062D03460CD0082DF3D1C107F1D482074D
:100C400003D101680F4A9142EBD00020F8F726FA51
:100C5000F8F756FF400040F00103E2E7062D01D00F
:100C60000023DEE7B6232168049303A8FFF752FEB2
:100C7000019B002BF4D1630043F00103D1E700BFD7
:100C8000301E0308C408030870B5161E88B00C4651
:100C90000CBF1D211B2101AACDE90341082100231E
:100CA000CDE90512054621688DF81C3003A8CDE971
:100CB0000133FFF72FFE019B3BB936B91B23216897
:100CC00003A8CDE90436FFF725FE0198042819D1C1
:100CD0002069F8F705FE144BC2689A4210D13EB164
:100CE0002368D888F0F78CF901462846F0F73FFBD7
:100CF00046F0800221692846F8F70AFE08B070BD68
:100D00003246F7E728B12146F7F7B5FA0022014647
:100D1000F1E72046F8F7F4FD23460246034928464A
:100D2000F0F766FEEAE700BF01B20008081C0308FE
:100D300038B50D4604460B49F0F719FB00226968E7
:100D40002046F8F7E5FD08492046F0F710FBA968B2
:100D500020460022F8F7DCFD20460449BDE8384073
:100D6000F0F705BB481E030897F80208CD1E0308DC
:100D70002DE9F041174612688CB005460C46002A52
:100D80007BD14FEA810848F00208019041460430C7
:100D9000F8F78CFB064610B143683B600BE0B42CBF
:100DA0001AD16868C008FAF7E3F88046AB689E423B
:100DB00004D3C7F800800CB0BDE8F081EB6853F8AD
:100DC000361003EBC60229B1042903D0526840460D
:100DD000FAF755F90136E9E7CDE909078DF82C0056
:100DE000296807A8CDE90754FFF794FD3E68002E57
:100DF0002FD02B689B889A07DDD516F0030415D1F8
:100E000032685B4B9A4211D13046FCF705FB594BD7
:100E10000068984203D158495848F7F77BFF01AB67
:100E200022460121F7F702FA3860C4E703AABA2183
:100E30003046F7F79BFA039B002BBCD00198059036
:100E4000F8F74EFD03AA069000210220F7F71DFADD
:100E5000EAE70E2CAFD0CF2CADD0B22CABD003AA8A
:100E60000E210198F7F782FA039B002BA3D0CDF84F
:100E7000148003AA31460120E8E701687E688B8868
:100E80009B0761D5002301AACDE9070407A8CDE996
:100E90000133CDE909328DF82C30FFF73BFD019885
:100EA000002838D010F003081CD10268304B9A4259
:100EB00018D1FCF7B1FACDE903562E4B56B980682C
:100EC00098423FF478AF03AB32460121F7F7AEF911
:100ED000002362E7406898423FF46DAF03AB42469F
:100EE0000221F3E703AA5EB9B321F7F73FFA039BA8
:100EF00093B1059503AA00210120F7F7C6F9E7E7AA
:100F0000CE21F7F733FA039B93B10595069603AA12
:100F100000210220F1E75EB903AAB2212846F7F7C3
:100F200025FA039B8BB1A40044F002040594E1E789
:100F300003AACF212846F7F719FA039B7BB1A40037
:100F400044F002040594E1E74EB9A10002221143E6
:100F5000281DF8F7ABFA00283FF42DAFB8E7A10041
:100F6000012241F00201281DF8F7A0FA4660AFE720
:100F7000400D0308BC0D0308741C0308B0FE0208F2
:100F800070B5C46834B9C28804490548FAF73CFA18
:100F9000EFF72CF9A446BDE870406047891E0308AE
:100FA0009C030308F0B589B001AE0024039013221E
:100FB000242305460F460168019403A87460CDE917
:100FC000042306968DF81C40FFF7A4FC019870B12D
:100FD00004280ED12869F8F783FC04461FB91020B5
:100FE000EFF72AF90746636A28693946984709B036
:100FF000F0BD324621462046F7F747F9F7E7F0B54E
:1010000089B00E4601242C2100230390CDE9044130
:10101000054601688DF81C30174603A801AACDE9E2
:1010200001330692FFF776FC019B042B09D1286956
:10103000F8F756FC3A46C36A28693146984709B022
:10104000F0BD2046FBE7000040F23E33984273B506
:101050000C4610D040F2CA2398420CD08B0711D016
:101060000B4E0025204601236A4616F8011BF7F7B0
:10107000E7F9009808B1012002E00135032DF1D114
:1010800002B070BD0A68034B9A42E9D1F3E700BF92
:10109000511E0308400D03082DE9F041136886B086
:1010A000064614466BBB172905D1C3889B0043F045
:1010B0000203236016E0AD2917D12A4A904201D1DC
:1010C000294BF6E7436B002B08BF13469E0701939D
:1010D00003D11968254A9142EBD001A90120FFF7FD
:1010E000B5FA206006B0BDE8F081CDE90101CDE997
:1010F00003320146012301A88DF81430FFF70AFCE2
:10110000F0E7806B0028EDD003799D07EAD457689B
:10111000890000F1040841F0020547B9022229467E
:101120004046F8F7C3F90028DCD02760DAE7B38837
:1011300099070ED439462846FFF786FF48B1B38891
:10114000DA0703D50A490B48F7F7E4FD43F0020339
:10115000B380012229464046F8F7A8F96368436046
:101160000023A6E7240C03088C1B0308981B030824
:10117000541E0308B0FE0208F0B58BB00D461646AB
:10118000002109221F461023CDE903110590CDE966
:1011900006238DF8241003AB01680893044605A8C4
:1011A000FFF7B8FB039848B92046F8F7A9FB0C49AC
:1011B00002460C48FAF728F9EFF718F8042807D187
:1011C0003B46324629462069F7F730F80BB0F0BDB0
:1011D000009733462A460499F9F7C2FAF6E700BFAA
:1011E000D0F202089C03030870B50646FFF74CFBDB
:1011F000054604308000EFF71FF80021044640F850
:10120000046BF8F719F90DB1014B2361204670BD4D
:101210003C1E03082DE9F0478AB00DF10C090026A9
:1012200007460C4615460146182205A898460C2389
:101230000396C9F804600596CDE90623CDF8209001
:101240008DF82460FFF766FB0398019608B1042827
:1012500027D101A93846FFF7C7FF06460023112210
:10126000394605A8CDE90333CDE906230596FFF7F6
:1012700051FB039B002B5BD054EA05013CD14A464D
:101280000846F7F702F80746304B9F4250D03846E1
:10129000F8F736FB2E4902462E48FAF7B5F8EEF776
:1012A000A5FF54EA05020ED102AB01210297F6F721
:1012B000BDFF06463046F8F713FB8742CED03046D6
:1012C0000AB0BDE8F08704EB45060136B6003046AB
:1012D000EEF7B2FF321F8246414640F8047B09F028
:1012E000A1FF53462A46611C0398F6F79FFF064666
:1012F0005046EEF7C9FFDDE704EB45070237BF00B4
:101300003846EEF799FF039B0360049B43608146D8
:10131000A7F108024146083009F084FF4A462946F1
:101320002046F6F7B2FF07464846EEF7ADFFABE7BB
:1013300001980028C3D03269074B9A42BFD1C768D1
:1013400043462A462146B8473061B8E7BC0D03083A
:10135000891C03089C0303083C1E030800B589B0E0
:10136000092110220023CDE90412039001AA01688B
:10137000069203A8CDE901338DF81C30FFF7CAFAB5
:101380000198003018BF012009B05DF804FB00008F
:1013900011F0030F2DE9FF4707468846164602D095
:1013A0000020F7F77BFE0A684A4B9A42F8D116F004
:1013B0000305F5D13268484B9A42F1D1404602AA62
:1013C00001A9FFF759FADDE90104DFF840A1DFF8D0
:1013D00040912B4698422ED13C20EEF746FF3F4BE2
:1013E000019AC0F800A0C0E902393D4B03613D4BB2
:1013F00043613D4B83613D4BC3613D4B03623D4BBC
:1014000043623D4B85800446C780C3624AB1029B5C
:101410001968096B0163012A96BF1B68C0F8348004
:101420004363A6631DB303A92046FFF72DFA0128E5
:1014300034D93248B5E754F823108A07B0D10A6886
:101440005245ADD1CA6832B9CA882D482D49F9F73D
:10145000DBFFEEF7CBFE4A4506D18A8842F0010257
:101460008A8002F0020215430133B3E70135A36B12
:101470009A68AA42D7D9DB6853F8350003EBC50256
:101480000028F3D00428F1D05168FFF7DDFD0028D3
:10149000ECD0A38843F00203A380C4E7A06B002232
:1014A00062210430F8F702F8054678B1436813F07A
:1014B00003020BD11B68D98840F25123994205D110
:1014C000031D01211048FFF7DFFA6860204604B0D1
:1014D000BDE8F087981B030840FD0208890C01084D
:1014E00079110108E90B01086D0B0108710D010864
:1014F000F10A0108A50F0108FF0F0108121D0308DA
:101500009C030308EA1C03087C1D0308F41D030860
:101510001512010838B50D46284611460C4A1C46DE
:10152000F7F7E0FE012D04D0032D07D00948F7F7A7
:10153000B5FD2068BDE83840F8F7D2B92068FDF75E
:10154000C9FDD4E90112BDE83840FFF721BF00BF53
:1015500006000200A61E03081FB5074B01934B6847
:1015600002930A468B680393014601A8F6F734FFFD
:1015700005B05DF804FB00BFB81D03082DE9F0417C
:10158000134E144F0D46A8421CD010F003031BD17C
:101590000268B2421AD1406B90B10368BB42F2D1EB
:1015A000044654F8043F00EB830000F1040854F8AB
:1015B000040FA045E7D92946FFF7E0FF0028F6D041
:1015C000BDE8F0810120FBE70020F9E71846F7E7C6
:1015D000F41D0308981B03082DE9FF418B070746FC
:1015E000019108461AD10B68144A93420ED1012387
:1015F000029301AB0393DDE90256DFF85480002427
:10160000A5420ED10E4804B0BDE8F0810D4A9342C8
:1016100004D103AA02A9FFF72FF9ECE70A48F7F76C
:101620003DFD56F82410414505D03846FFF7A6FF8A
:1016300008B90134E4E70548E5E700BFF41D0308F5
:1016400004FA0208981B0308B11C03080CFA0208EC
:10165000240C0308820708B503D10268044B9A42A0
:1016600002D00448F7F71AFDBDE80840FFF7B4BF01
:10167000F41D0308481C030810B50C46F8F730F9B0
:101680002146BDE81040FFF7A7BF38B50D46044618
:10169000F8F726F92946FFF771FF00B1206938BD38
:1016A0002DE9F04106464068D8B10021FEF7CEFF93
:1016B00006F108080446012572686B1E9A420AD991
:1016C00058F8040BF6F764FF0135074630B9204699
:1016D000FFF7D7F83C462046BDE8F08144F82500E6
:1016E000EAE70446F7E700002DE9F0410F46BC1C8D
:1016F000114680460E4A3846A4001D46F7F7F2FD13
:101700002046EEF799FD083CC0E90087064600F147
:1017100008072C44A54202D13046BDE8F0810021E3
:1017200055F8040BF6F7D0FE47F8040BF2E700BFBC
:10173000FEFF010070B504460D46F8F7D1F82946C2
:10174000036A04222046BDE87040184770B504467D
:101750000D461646F8F7C4F83246036A2946204675
:10176000BDE87040184770B504460D46F8F7B8F864
:101770002946036A00222046BDE87040184770B52C
:101780000D460446F8F7ACF82A4683692146242022
:10179000BDE8704018472DE9F041069D80461F4680
:1017A00002FB01F60024BC4201D1BDE8F0812846CD
:1017B0003246414609F036FD35440134F3E70B4625
:1017C00010B5144601461846FCF7DCFBA06800285B
:1017D00009DA6268236801329A4262600ADC431EB9
:1017E0005842584110BDFAD0D4E900329342F6DD98
:1017F0006360F4E70133FBE72DE9F04188460021FF
:1018000008469668D2E90047FBF748FB002E0546DC
:1018100011DABC4202DA2846BDE8F08158F82410FB
:101820002846FBF7D3F83444F3E758F82410284649
:10183000FBF7CCF83444BC42F7DBECE770B5022888
:1018400004461546049E11D1B24228D11A460B46D1
:101850001146AE423246184628BF2A4609F04CFDD2
:10186000022C0ED1B0FA80F0400970BD28B10328D7
:1018700005D032462E461546E8E70124E9E7042460
:10188000E7E700280BDB0CD1AE4203D02CBF0120D0
:101890000020EAE714F1FF3018BF0120E5E700203F
:1018A000E3E70120E1E700002DE9F74F02280446B5
:1018B0001746DDF8308005D1424509D0002003B03D
:1018C000BDE8F08FB8B1032817D04246B846174696
:1018D0001A460B461146B845C3461D4628BFBB46AF
:1018E0000E464FF00009D94509D1B84523D02CBF89
:1018F00001200020E3E70124EDE70424EBE7334671
:10190000AA461968DAF800000193F8F783F804355D
:101910000436019B10B109F10109E4E7022CCDD096
:101920001A68DAF80010E0B2F7F71CFA044C231A30
:1019300058425841C3E714F1FF3018BF0120BEE7F9
:101940000CFA02082DE9F0478146186817461E4632
:101950000D46F7F7C5FF022F8246D6F8048013D94B
:101960000123B2682946F8F78FF9032F044606D001
:1019700029460123F2685046F8F786F90546A54244
:1019800004D80948F7F7E6F90024F8E7414659F882
:101990002400F8F73FF808B90134F0E7600040F0A0
:1019A0000100BDE8F08700BF2C1F0308F8B51746FB
:1019B000054600EB81060024B54203D1600040F0EB
:1019C0000100F8BD394655F8040BF8F723F8002854
:1019D000F2D00134F0E7000013B503681B6B00225E
:1019E0009C68042101ABA047013002D10198F7F7B0
:1019F00077FB014802B010BDBC0D030813B50368A6
:101A00001B6B00229C68012101ABA047013002D171
:101A10000198F7F765FB014802B010BDBC0D030843
:101A20002DE9F0410B681B68012886B00D461E6B3E
:101A300026D94C686410611C22D0214602A8EFF719
:101A400094FB631C02D0631E44B31C46012102A810
:101A5000EFF7F6FB0122014680463768286801ABA4
:101A6000B847421C15D101980B2810D1039B012BBC
:101A700010D102A8EFF7A6FB104806B0BDE8F08130
:101A8000102102A8EFF771FB4FF0FF34D9E7F7F709
:101A900027FB70B9012102A8EFF748FC337B084807
:101AA00013F0010F074B02A908BF1846FCF70AFE06
:101AB000E3E798F800300A2BC3D1EFE7BC0D030829
:101AC000C8180308EC15030837B500210190084633
:101AD000FBF7E4F9044601A90120FFF7A1FF054641
:101AE000F8F738F920B129462046FAF76FFFF2E7F8
:101AF000204603B030BD30B5054685B048680C4679
:101B0000F7F7DAFF0023032D0290039305D0029B21
:101B1000002B08DA1620F7F7E3FAA068F7F7CCFFF6
:101B200003900028F3D0206803681B6B02AA9C680E
:101B3000022101ABA047013001D10198EBE70298E7
:101B4000FAF792FD05B030BD1FB50123019001A940
:101B50000320CDE90230FFF7CEFF05B05DF804FBAE
:101B60002DE9F04715460268126B1E46D2E9007255
:101B70009DF82030002413F0020F8146884618BFDC
:101B80001746346003F0010A6DB133462A464146D8
:101B90004846B84738B1431C08D133680B2B02D1F3
:101BA0000CB1002333602046BDE8F087BAF1000F86
:101BB00003D180442D1A0444E6E70446F3E700000D
:101BC0002DE9F043012889B00E4690461FD1D6F882
:101BD0000090D9F800304FF4807104A81F6BEFF724
:101BE000C4FA069E4FF480744FF00008224603ABFF
:101BF000314648463D68A847421C39D103980B2816
