:020000040800F2
:1000000000000120C1940208E3240208D124020860
:10001000E5240208F5240208052502080000000076
:10002000000000000000000000000000152502088C
:100030001725020800000000B1320208F932020858
:10004000A7930208052602081126020819260208AD
:1000500091860208A7930208992502089F250208A5
:10006000A5250208AB250208B1250208E9510208BE
:10007000F9510208095202081952020829520208CD
:100080003952020849520208A7930208A7930208AE
:10009000A7930208A7930208A7930208B7250208AE
:1000A0002D26020833260208452602084B260208A0
:1000B00051260208572602085D260208A793020867
:1000C000A7930208A7930208A7930208A793020820
:1000D000A79302087D2602088326020889260208C3
:1000E000DB2502080B26020825250208A793020833
:1000F000A7930208A7930208A7930208595202087F
:10010000A7930208A793020865260208A79302088E
:100110008F26020895260208A7930208A7930208D3
:10012000695202087952020889520208995202085B
:10013000A9520208A7930208A7930208A7930208EE
:10014000A7930208A7930208A7930208192502089B
:10015000B9520208C9520208D95202089B26020865
:10016000A7930208A7930208A7930208A79302087F
:10017000A7930208A7930208A793020800000000B3
:10018000A7930208A7930208A7930208A79302085F
:10019000034B1B685B681A69026018610020704796
:1001A0006C1E0020034B1B685B681A6912681A6199
:1001B000704700BF6C1E0020C46005614661876106
:1001C000C0F81C80C0F82090C0F824A0C0F828B067
:1001D000C0F82CD0C0F808E0FFF7DABF08B50E4B26
:1001E0001B685A6813690BB921F004FF196858603D
:1001F00011611846C468056946698769D0F81C8092
:10020000D0F82090D0F824A0D0F828B0D0F82CD086
:10021000D0F808E0012070476C1E002010B50021C6
:10022000044600F009FB18B914B1204608F0D0FDCF
:1002300010BD002100F000BB10B50121044600F004
:10024000FBFA18B914B1204608F0C2FD10BDFFF743
:10025000E5BF10B501220C4600F032FC18B914B10C
:10026000204608F0B5FD10BD00F02ABC00F0BABB76
:100270002DE9F0432A4C00254FF00309D4F8F4711E
:100280000021013143189A0803F00303BA5C5B00B4
:1002900042FA03F303F00303022BF2D0D4F8003246
:1002A00009018A0803EB001081B300EB82010368A7
:1002B0001A0728D1D4F800229A4224D89A1AD4F8DE
:1002C00004624FEA921C120902F003079E424FEAB1
:1002D000470718D9D4F8F4E11EF80C8048FA07F360
:1002E00003F00303012B0ED109FA07F747EA0807C9
:1002F00004EB45083F2D0EF80C709ABF0135A8F8A5
:100300000C22C4F8083204308842D0D12DB1013D0E
:1003100004EB4503B3F80C02B0E7BDE8F08300BF7F
:10032000CC170020F0B4194ED6E97F53C01AC1098A
:1003300004096B5C04F007070122BA4023EA0203B8
:100340006B54D6F89832D6F8F4518009984238BFE9
:10035000C6F89802295C04F00303A00803275B0099
:1003600007FA03F321EA03032B540134D6F8F451BE
:10037000A00804F00303295C5A0041FA02F202F0DB
:100380000302022AEBD0F0BC704700BFCC1700205C
:1003900021F00F0370B5164A164D1C1AE400A2FB9B
:1003A0000424640A0219A3EB8416C5F8FC21002179
:1003B0002246C5E98063C5E97D041AF013FEA20058
:1003C0000732D208D5F8FC0100211AF00BFE0023F9
:1003D0004FF480314FF0FF3205F52770C5F88C12CD
:1003E000C5E9A432C5F89832BDE8704023F07CBA64
:1003F000F32C23FACC170020034AB2F88C320133D5
:10040000A2F88C32704700BFCC170020034AB2F824
:100410008C32013BA2F88C32704700BFCC17002011
:10042000034BB3F88C02003018BF0120704700BFA7
:10043000CC170020F8B51C4CB4F88C3200220133E4
:10044000A4F88C32C4F89022C4F80822251D04F5C3
:10045000E876032755F8042F130719D1D4F80002C2
:10046000824215D3101AD4F804124FEA901C0009E6
:1004700000F003038A424FEA430309D2D4F8F4118F
:1004800011F80CE04EFA03F202F00302012A02D046
:10049000AE42DFD1F8BD07FA03F343EA0E0301F8D9
:1004A0000C30FFF7E5FEF3E7CC17002079B3F8B581
:1004B000041F174E04EB8105032754F8043F1A0765
:1004C00019D1D6F80002984215D8181AD6F8041295
:1004D0004FEA901C000900F0030299424FEA4202E1
:1004E00009D9D6F8F41111F80CE04EFA02F303F032
:1004F0000303012B02D0A542DFD1F8BD07FA02F2B7
:1005000042EA0E0201F80C20FFF7B2FEF3E7704753
:10051000CC1700202DE9F04F824CD4F8F831D4F8F4
:10052000082285B09B00002A00F0868000264FF04C
:10053000030BC4F80862002B68D0002002E00130F1
:10054000984274D2D4F8F471810800F00302795C07
:10055000520041FA02F202F00302032AEFD184466C
:1005600000230022013202EB0C014FEA910E01F050
:10057000030117F80EE049004EFA01F101F0030102
:100580000229EFD0D4F8001212014FEA920E01EBCB
:100590000C1C92B30CEB8E0EDCF800703A0728D1DD
:1005A000D4F80022974224D3BA1AD4F804524FEA5E
:1005B0009218120902F00301AF424FEA410118D22A
:1005C000D4F8F49119F808A04AFA01F707F00307E4
:1005D000012F0ED10BFA01F141EA0A0104EB430AA3
:1005E0003F2B09F808109ABF0133AAF80C22C4F86F
:1005F00008720CF1040CF445CED193B1013B04EB2D
:100600004302D4F8F471B2F80CC2AAE7B4F88C3201
:100610000022013BA4F88C32C4F8982205B0BDE852
:10062000F08FD4F8F83101309B0098428AD3D4F887
:100630000822002A7FF47DAF002BE7D04FF0000E98
:1006400076464FF003094FF00108022704E0012924
:1006500030D001369E42D9D24FEA960AD4F8F4013E
:1006600006F0030510F80A206D0042FA05F101F0CA
:100670000301022900EB0A0C0DD00329E7D107FA88
:1006800005F522EA050500F80A50D4F8F8314FF0D4
:10069000000E9B00DDE7BEF1000FDAD009FA05F588
:1006A00022EA05058CF80050D4F8F8314FF0010E1D
:1006B0009B00CEE7F308D4F8FC11019311F803E096
:1006C00006F0070B4EFA0BF01944C307E6D53001CC
:1006D000D4F8002252F800C01044BCF1000F14D02E
:1006E00002AAB02107F0C2FEDDE9013242B108F0F2
:1006F00081FDDDE9020108F063FD08F091FD019B39
:10070000D4F8FC1111F803E0194408FA0BFB2EEAA7
:100710000B0E81F800E0D4F8F43103EB0A0C13F867
:100720000A20BBE7CC170020054BB3F88C22002130
:100730000132A3F88C22C3F80812FFF7EBBE00BF0A
:10074000CC1700203B4BD3E980122DE9F047D3E9C9
:100750007D760023C0E90133C0E90333C0E90533E6
:10076000521A02601D46B6009E469C461C461A461A
:1007700099461946984617F8093049000B4103F08D
:100780000303012B47D0002B3DD0022B02D10135B2
:1007900045600134013296420ED04FEA920902F0D0
:1007A000030117F809304FEA410A43FA0AF313F03C
:1007B000030301D0012BDED1012C11D0022C02D178
:1007C0004169013141618169A14238BF846196422A
:1007D0000FD0012B23D04FEA920902F00301CAE7A0
:1007E0000169013101618169A14238BF846196428A
:1007F000EFD1C44516D99642C0F80CC012D0E046DD
:100800004FF0000CE7E70EF1010EC0F808E00CF124
:10081000010C1C46BEE7013545601C46BAE7E045C1
:10082000EED2E8E72D014FEA0E13C0E90153BDE80F
:10083000F08700BFCC1700200F302DE9F0470609E4
:1008400051D0674DB5F88C32002B4CD1B5F88E32B3
:10085000002B0C460CBF4FF0010E4FF0000E47D19D
:10086000D5F89802D5F8F871874239D9D5F8F4C18E
:10087000411E614400221AE00132964253D913F01E
:100880000C0F1ED10132964240F2A08013F0300FBF
:100890001CD10132964240F29C8013F0C00F1AD155
:1008A0000132964240F298800130B84218D211F8D5
:1008B000013F13F0030FDFD013F00C0F4FF00002D5
:1008C000E0D013F0300F4FF00002E2D013F0C00F71
:1008D0004FF00002E4D00130B8424FF00002E6D3FE
:1008E000BEF1000F14D04FF000084046BDE8F0877D
:1008F000D5E9A4239A42B3D326F02AF9D5F8980271
:10090000D5F8F871874288BF4FF0010EAED8EAE7FC
:1009100026F01EF9D5F89802D5F8F87187424FF005
:10092000010EA3D8DFE78000811A012A01F1010737
:1009300003D1431C9B08C5F898324FEA970E07F085
:1009400003034FEA43081CF80E90012303FA08F34F
:10095000023143EA090388420CF80E3013D34FF0FA
:1009600002084FEA910CD5F8F4E101F003031EF8F8
:100970000C905B0008FA03F3013143EA0903884253
:100980000EF80C30EDD2D5F800A2D5F890324FEA2F
:1009900007190AEB09081E44120140460021C5F858
:1009A00090621AF01FFBE3079FD50023D5F8FC11D6
:1009B0004AF80930FA080123885C07F0070703FAB0
:1009C00007F707438F544046BDE8F08780000130A9
:1009D000AAE780000230A7E780000330A4E700BF49
:1009E000CC170020F0B41B4EB6F88C327BBB70B332
:1009F000D6E97F53C01AC10904096B5C04F00707EC
:100A00000122BA4023EA02036B54D6F898228309E4
:100A10009342D6F8F40138BFC6F89832C15CA508F5
:100A200004F0030303275B0007FA03F321EA03033F
:100A300043550134D6F8F401A50804F00303415DE1
:100A40005A0041FA02F202F00302022AEBD0F0BC93
:100A5000704700BFCC17002010F00F030DD11749CD
:100A6000D1F80022824208D810B4D1F8044284425E
:100A700005D818465DF8044B704700207047801A6F
:100A8000D1F8F44181090209615C02F003004000E1
:100A9000014101F0030101291846EBD1013013187F
:100AA000990803F00303615C5B0041FA03F303F070
:100AB0000303022BF2D00001DCE700BFCC170020BB
:100AC0002DE9F84F0B460746002800F0A680574D49
:100AD000B5F88C42002971D0002C71D1D5F80002F4
:100AE000D5F8F831381A4FEA101C0CF1010E4FEA14
:100AF000830901F10F06F1454FEA161640F2938083
:100B0000D5F8F4A14FF001084FEA9E0B0EF0030355
:100B10001AF80BB05B004BFA03F303F00303022B4C
:100B200052D023B9013408EB0403B3424ED34645F7
:100B300040D021D34444B4424DD2002A40D0C00911
:100B4000D5F8FC311B5C0CF0070C43FA0CFC084692
:100B50000CF00101FFF770FE044688B34FEA08125B
:100B600039461AF0FBF9B5F88C3223BB3846FFF74B
:100B7000D9FB2046BDE8F88F66443046C4444FF0A8
:100B800003094FEA900ED5F8F41100F0030311F8B1
:100B90000E405B0009FA03F3013024EA03036045C9
:100BA00001F80E30EDD1D5F89832B6089E4238BF24
:100BB000C5F898623C462046BDE8F88F002CD6D098
:100BC00000242046BDE8F88F08F101080EF1010E5F
:100BD000F14599D1ABE70CEB0802B444944510D928
:100BE00002219008D5F8F44102F0030314F800E064
:100BF0005B0001FA03F3013243EA0E0394452354E8
:100C0000EFD1A6EB0802120107EB081000213C46C9
:100C10001AF0E8F92046BDE8F88F01461846BDE80D
:100C2000F84FFFF709BE4FF0010880E7CC1700200E
:100C300010B58AB003A80B4CFFF784FD059B009309
:100C40002046DDE90323084900F0C6FE069A099B09
:100C5000019200932046DDE90723044900F0BCFE21
:100C60000AB010BD882D0308B4EB0208D8EB0208C7
:100C70002DE9F047DFF864A14949DAF80022494834
:100C800000F0AAFEDAF8F811890074D0DFF850916C
:100C9000DFF85081434F00250CE0012E46D02E2274
:100CA0004149384600F098FEDAF8F811013589001C
:100CB000A94260D905F00306AA064FEA4606DAF80B
:100CC000F4010BD0AB08C35C43FA06F606F003064A
:100CD000022E29D0032EE0D16D22E1E72C46A20896
:100CE00004F00303825C5B0042FA03F39B0702D12A
:100CF00001348C42F3D3621B7F2A0CD992092B4911
:100D0000384600F069FEDAF8F83124F03F05B5EB1B
:100D1000830F30D2002609EA05124146384600F01A
:100D20005BFEDAF8F401CDE73D22B9E7DAF800120C
:100D30001F4B2A018A589A4223D01E4B9A4222D036
:100D40001D4B9A4225D01D4B9A421ED01C4B9A42F5
:100D50001BD01C4B9A421AD01B4B9A4217D01B4BEC
:100D60009A4218D01A4B9A4217D01A4B9A420CBF8B
:100D70004D22682294E718490A48BDE8F04700F080
:100D8000DEBA54228CE74C228AE7532288E74122BC
:100D900086E7442284E7462282E7422280E700BFBA
:100DA0006CEB0208882D0308B0EB02088CEB0208FC
:100DB00010640308945203082C450308406103089B
:100DC000645E030838410308FC400308D44C030860
:100DD000284D0308AC54030888EB0208CC17002008
:100DE000F0FF0F00A8EB0208054B5B695A688242CE
:100DF00004D8801A043053F8200070471B68F5E7C8
:100E0000CC170020014441F20553884204D398B224
:100E1000002808BF0120704710F8012B03EB431393
:100E20005340F2E70448054B43610023C0F8D43136
:100E300000F5F07022F058BDCC17002004ED020838
:100E40002DE9F84F82468946FFF7DCFF134B5C69BA
:100E500083460CB920461EE0E66804F1100808EB52
:100E600086064546B5422F4601D32468F1E755F87A
:100E7000040B03885B45F5D183784B45F2D14A4694
:100E8000514603301AF0D4F80028EBD16068A7EB84
:100E9000080700EBA700BDE8F88F00BFCC170020C3
:100EA0002DE9F04780460E46FFF7CAFF02460028AC
:100EB0006ED13C4CD4F8D401351D90B1D4E97613F1
:100EC0002B448B422BD92944FFF7CEF90746E8B9CA
:100ED0000246D4F8DC11D4F8D401FFF7C5F9C4F800
:100EE000D471802D2F4638BF80273846FFF7A1F9EF
:100EF000C4F8D40100284FD12846FFF79AF9C4F866
:100F0000D401002847D1284607F062FFD4F8D83131
:100F10002B44C4F8D831D4F8D431002BE1D0D4F824
:100F2000DC91D4F8D4A131464D444046C4F8DC519C
:100F3000FFF768FF0AEB09070AF80900000A787052
:100F4000BE7032464146F81C1AF008F8BB1900265C
:100F5000DE706369D3E90253AB420FD36D00281DE5
:100F60008000FFF766F90028CDD0626902605368FF
:100F7000D268C6601344C0E9013560616369D9680D
:100F80005A68481C0431D860013A43F82170024481
:100F90001046BDE8F0872F460023C4F8D871C4F886
:100FA000DC31BCE7CC17002010B504461AF062F81B
:100FB00001462046BDE81040FFF772BF08B5FFF7B5
:100FC00013FF008808BD08B5FFF70EFF807808BD45
:100FD00008B5FFF709FF033008BD08B5FFF704FFA8
:100FE00083780B60033008BD2DE9F8431D460023CC
:100FF00003600B6013602B60174BDFF860905C6937
:101000000746884616460CB14C4505D12B68326818
:1010100013442B60BDE8F8833B6801333B60E26812
:10102000D8F800301344C8F80030E26804F1100327
:1010300003EB8202934207D32046FFF70DFD2B6896
:10104000246818442860DEE753F8041B8878316868
:10105000043101443160EDE7CC17002004ED0208B3
:101060002DE9F8430E4B0F4F5C69DFF83C80DFF849
:101070003C900CB1BC4201D1BDE8F883E36804F1B7
:10108000100505EB8306B54201D32468F1E755F856
:10109000042B41460332484600F09EFCF3E700BFB4
:1010A000CC17002004ED020890FE0208882D0308EA
:1010B00038B5446803680C449C42054610D9037B4C
:1010C000DB0703D50021074807F078FE103424F031
:1010D0000704083421468068FFF7BBF82C60A8603D
:1010E00038BD00BF6C4A030870B504460E46114671
:1010F0001546FFF7DDFFD4E901302A463146184492
:1011000019F058FF62682A44626070BD70B5466885
:1011100004468E42354628BF0D460121FFF7C8FF21
:10112000A368681C5919721B184419F043FF6368BF
:10113000A06801336360284470BD38B50446081EBA
:1011400008BF0120002520606560FFF767F8237B5A
:10115000A06065F30003237338BD38B505460C461F
:101160000131FFF7EAFF6C6038BD0023C0E90132AE
:10117000037B016043F001030373704738B51446E5
:101180000546FFF7DAFF024B2560636038BD00BFFC
:10119000E9100008037BDB0710B5044602D4806821
:1011A000FFF764F80023A36010BD38B50546102092
:1011B000FFF734F829460446FFF7BFFF204638BD45
:1011C00010B5044650B1037BDB0702D48068FFF7FB
:1011D0004DF82046BDE81040FFF748B810BD0000AC
:1011E00038B5037BDB0704460D4603D500210748CD
:1011F00007F0E4FD016880682944FFF72AF82368B6
:10120000A0601D442560184438BD00BF6C4A030827
:1012100038B504460D46FFF74BFFD4E901301D44B5
:101220006560184438BDD0E900239A4210B50446E1
:1012300002D10121FFF7D4FFD4E901320021D154BA
:10124000A06810BD10B50C460121FFF7E1FF047046
:1012500010BD7F29F8B50C46CEB204D80121FFF7A6
:10126000D7FF0670F8BD06F03F06B1F5006FC1F379
:10127000871546F0800607D20221FFF7C9FF65F007
:101280003F0505704670EDE705F03F05B1F5803F7D
:10129000C1F3073745F0800508D20321FFF7B8FFF7
:1012A00067F01F03037045708670DBE70421FFF7CA
:1012B000AFFFA40C07F03F0364F00F0463F07F035B
:1012C000047043708570C670CCE738B50546084693
:1012D0000C4619F0CFFE214602462846BDE83840AC
:1012E000FFF702BF10B51446FFF710FF047010BDE2
:1012F00010B51446FFF70AFF047010BD43688B4217
:101300002CBF5B1A00234360704738B5154642680E
:101310008A4204460B4603D929448A4201D84360D5
:1013200038BD8068521A0144184419F043FE6268BF
:10133000521B6260F4E70846114621F04FBE70B5BB
:10134000054608460E4619F095FE044620B10246B1
:101350006B68286831469847204670BD2DE9F74FE5
:1013600001919DF8301091460D9A11F0DF0F06465D
:10137000A2EB09023DD030290CA9244F0EBF4FF03B
:1013800010080F464FF0010813F0800435D002EB2F
:10139000D2746410151B002C36DDA246D045C3461E
:1013A000A8BFD346736830685A463946AAEB0B0A81
:1013B0009847BAF1000FF1DCB9F1000F05D073685E
:1013C000019930684A4698474C44002D0DDD2C4465
:1013D000A845C146A8BFA946736830684A46394641
:1013E000A5EB09059847002DF2DC204603B0BDE8C7
:1013F000F08F074F4FF01008C6E713F0010501D139
:101400001446C8E71546D7E70024D5E7AC2D0308F6
:101410009B2D03082DE9F04389B007460020119D5C
:101420009DF84880139E8DF80F0002B3814219DAAF
:101430002D228DF80F204942109A08ACA2F10A0023
:101440000DF1100EB1FBF3FC03FB1C12092A8CBF3B
:101450001218303204F8012D74450FD08B420DD88C
:101460006146EFE7A80727D52B228DF80F2000292A
:10147000E2D130238DF81F300DF11F0415F0400923
:101480009DF80F301CD023B30122CDE900822B46FA
:101490000DF10F013846FFF761FF013E814608AAB2
:1014A000CDE900862B46121B21463846FFF756FF32
:1014B000484409B0BDE8F0836A07D8D52022D4E7B4
:1014C000002BECD004AA9442E9D904F8013C013C79
:1014D000E5E79946E3E700002DE9F04F93B0804639
:1014E0001E46C8079DF874301C9D06930C46914615
:1014F000DDE91E7A0BD4A10703D12268794B9A4209
:1015000005D0204608F02AFB400040F0010415F009
:10151000810306D1069A302A03D15745B8BF5746F2
:101520009A4620460AF0C5FF00280DF1280B18DB6B
:10153000AA0712D52B238DF828300DF12903E806D0
:10154000F6B21DD5B9F1020F0DD11A46302102F8BD
:10155000021B711C5970134612E06B0701D5202342
:10156000E9E75B46EBE7B9F1080F60D1A9054FF059
:1015700030021A7045BF06F10E025A700133023371
:10158000002215F0200F1A70A3EB0B0305930EA990
:101590000CBF13462C23BAF1010F0B91C8BF45F0C5
:1015A00040051021CDE90C1215F040018DF82720DF
:1015B0000791CDE9026344D0CDE9009223460DAAFC
:1015C0000CA90BA80AF044FE03782D2B814606D106
:1015D0008DF827300D9B013B00F101090D93BAF105
:1015E000010F3CDD0D9C079B5445B8BF54462BB101
:1015F0009DF8273003B10134059B1C44A7422BDD25
:1016000015F00103A7EB040427D126461C4625F05C
:1016100001054EB120230093002301961A4632495A
:101620004046FFF79BFE06463023069319E0B9F1CA
:10163000100FA5D11A46302102F8021B06F117013E
:1016400088E70AABCDE900930DAA23460CA90BA8A5
:101650000AF0FEFD8146C2E700240026D7E70024F9
:101660002646079BDBB19DF8273053B100230122AA
:10167000CDE900320DF127014046FFF76FFE013F33
:101680000644059B5BB100230122CDE90032594697
:10169000059A4046FFF762FE059B0644FF1A069B2B
:1016A0000093BAF1010FC8BF574601972B460D9A18
:1016B00049464046FFF752FE06444CB120230093B2
:1016C000002301941A4608494046FFF747FE0644A6
:1016D0000B980EAB984201D0FEF7C8FD304613B010
:1016E000BDE8F08FFC500308A39C03082DE9F043EC
:1016F00016468BB0B20780469946129F3CD416F02E
:10170000040F0CBF0023202300930A46139B2021C3
:1017100002A805F053FEF30504460DD5431C1F2B0C
:101720000AD80AAA1444252204F8202C0AAA1A442A
:10173000002102F8201C1C4616F040051ED09DF822
:1017400008302F2B4FF000031AD8012202A9CDE94F
:1017500000324046FFF702FE013F0546013C0DF115
:101760000901CDE90097334622464046FFF7F6FDD2
:1017700028440BB0BDE8F0832B23C5E702A9F0E7AE
:1017800002A91D46EDE700002DE9F04F824689B021
:10179000144600260B461D4613F8012B0AB1252AD4
:1017A000F9D1A94208D26F1ADAF80430DAF8000049
:1017B0003A4698473E4429460B78002B00F00381B7
:1017C000013120234FF000080A4612F8015B15B9D9
:1017D0004FF00A0C1DE02D2D03D148F001081146F1
:1017E000F2E72B2D02D148F00208F8E7202D02D1B4
:1017F00048F00408F3E7212D02D148F00808EEE78D
:10180000302D22D148F040082B46E8E70CFB052597
:10181000303D0F4611F8012BA2F130000928F5D90F
:101820002E2A3AD17A782A2A11D04FF0000B4FF0A5
:101830000A0C0F4611F8012BA2F1300009280BD831
:101840000CFB0B2BABF1300BF3E70025C0E754F892
:10185000042B023722EAE27B3A786C2A08BF013770
:1018600097F80090B9F1000F00F0AD80B9F1640F66
:1018700000F0888026D8B9F1500F2DD010D8A9F1EA
:101880004502022A40F28C80DAF80430DAF80000CF
:1018900001223946984701364AE04FF0FF3BDBE72B
:1018A000B9F1620F38D048D8B9F1580FECD1A9F18D
:1018B0001709CDE90235CDF804805FFA89F300936A
:1018C00010235DE0B9F1710F41D00BD8B9F1670F6A
:1018D00066D9B9F1700FD7D1CDE90235CDF80480C2
:1018E0006123ECE7B9F1750F43D0B9F1780FDED081
:1018F000B9F1730FC8D1BBF1FF3F54F8049B05D178
:101900004846059319F0B6FB059B8346CDE90035A3
:101910005A464346494607E054F8042BCDE90035C2
:1019200043463AB12A4904225046FFF717FD0644C0
:10193000791C2FE705222749F6E754F8042B8DF888
:101940001C20CDE900350122434607A9ECE707A991
:1019500054F8040B0593FFF740FBBBF1FF3F059BD9
:1019600008BFDDF81CB0CDE90035014643465A46B4
:10197000DAE7CDE9023561230093CDF804800A232C
:10198000002207E0CDE9023561230093CDF8048001
:101990000A23012254F8041B5046FFF73BFDC6E71B
:1019A000073424F00704F4E8020105932CF00CFF3F
:1019B000CDE9005B00EE100A059B424649465046C1
:1019C000FFF794FEB3E7304609B0BDE8F08F00BFE3
:1019D000902D0308952D03080EB403B503AA52F801
:1019E000041B0192FFF7D0FE02B05DF804EB03B0D8
:1019F000704703781A060AD503F07F03402213428A
:101A000007D110F8012F02F0C001802905D0184637
:101A1000704723EA02035208F1E702F03F0242EA6C
:101A20008313EEE7421C10460132037803F0C00333
:101A3000802BF8D070470023814201D818467047A8
:101A400011F8012D02F0C002802A18BF0133F3E71C
:101A500001440346002099421A4600D87047127884
:101A600002F0C002802A03F1010318BF0130F2E73F
:101A70007F289DBF024B185CC0F3400000207047D8
:101A8000BD2D03087F289DBF024B185CC0F3C0002A
:101A900000207047BD2D03087F289DBF024B185CB6
:101AA000C0F3800000207047BD2D03087F289DBF34
:101AB000024B185CC0F3801000207047BD2D030856
:101AC0007F2809D8064B1B5C13F00C0F06D1A0F140
:101AD0005F0358425841704700207047012070470B
:101AE000BD2D03087F289DBF024B185CC0F300107A
:101AF00000207047BD2D03087F289DBF024B185C56
:101B0000C0F3401000207047BD2D030808B5024601
:101B1000FFF7E8FF00B12032104608BD08B50246C5
:101B2000FFF7EAFF00B1203A104608BD3038092817
:101B300084BF20F020000738704710B501440246EA
:101B4000E5240020914203D8B0FA80F0400917E064
:101B500012F8013B30B103F0C003802B11D10138E2
:101B6000C0B2EFE7BF2B09D9F72B09D8DB0803F088
:101B7000060344FA03F303F00300E3E71B06E1D591
:101B800010BD0020FCE7023981420B4603D31A88BE
:101B90000239002AF8D002331B1A5810704770B56A
:101BA0001C09944215D2121B01EB4401154603F0A7
:101BB0000F030E46012D31F8024B18BF3468DC408C
:101BC000A4B2013D20F8024BF3D104B9013A10460A
:101BD00070BD0022FBE7F0B5059D0024521B27468F
:101BE000A5420FD16D00441900230D449A4214D12F
:101BF00004EB42031FB1012124F812100233181A1A
:101C00004010F0BD31F8146033F814C066443E440F
:101C100020F81460370C0134E2E735F813603E44D5
:101C200024F81360370C0133E0E7F0B4049E00257C
:101C3000921B2C46AE420AD17600851900230E4431
:101C40009A420FD105EB4201F0BCFFF79CBF31F87F
:101C500015703C4433F81570E41B20F8154024142B
:101C60000135E7E736F813100C4425F81340241427
:101C70000133E5E72DE9F043079CDDF828E0DDE9D5
:101C800008760239154684464FF6FF78A4EB020920
:101C900055B900EB42011FB1012320F81230023187
:101CA000BDE8F043FFF76FBF31F8024F013D4444F8
:101CB000264405EB0904AC4296BF33F8024B4FF6BD
:101CC000FF744444744486EA040E17FA8EF72CF825
:101CD000027B4FEA144E360C3F0CD9E738B5022987
:101CE0000446806838BF02210D4618B12368B1EB65
:101CF000930F07D96900FEF7ACFA2368A06065F37B
:101D00009F03236038BD38B505460C20FEF786FAE0
:101D10002A78037862F300036FF3410304460370EB
:101D200028682368C0F39D0060F39F0323606B68FD
:101D300063604000FEF772FAA0602A68A968C2F3E7
:101D40009D02520019F00AF9204638BD10B54B002B
:101D500018441A4409B9084610BD30F8023D32F85B
:101D6000024D1B1B002B02DB04D10139F2E74FF0BF
:101D7000FF30F1E70120EFE710B5044638B1806885
:101D8000FEF774FA2046BDE81040FEF76FBA10BDAA
:101D900038B505460C460221FFF7A0FF002C2B7832
:101DA000B4BF0122002262F300032B704FF0000346
:101DB000B8BF64426B6004B938BDD5E90132581C24
:101DC000686022F81340240CF5E70023C0E90033D3
:101DD0008360704728B103789B0702D48068FEF7C0
:101DE00045BA704738B505460C464968FFF776FF97
:101DF00022782B78A86862F300032B7063686B600D
:101E00006268A1685200BDE8384019F0A7B80346DF
:101E100009B959607047FFF7BBBF08B5FFF7D5FF99
:101E2000BDE80840FFF7F3BF30B4046862F39F04D5
:101E3000046004F0FC0444F0020400220470C0E9D1
:101E4000012130BC1946FFF7E2BFF8B59DF81870C4
:101E50000421064614461D46FFF740FF8FB1002CB3
:101E600075F100030DDA624265EB4503012031781C
:101E700060F3000131700021716052EA030104D166
:101E8000F8BD22462B460020F1E7D6E901104C1C94
:101E9000746020F81120110C41EA0341180C0A4625
:101EA0000346EAE72DE9F04110EE106A0378F20FDD
:101EB00062F300030370C6F30F4313F4FF430746B6
:101EC00003D100237B60BDE8F081B3F5FF4FF8D06C
:101ED000C6F3C753A3F17F04002CF2DB04D1012128
:101EE000BDE8F041FFF754BFB3F16F0848BFA3F15D
:101EF0006008C6F31606162C4FEA281846F40006AA
:101F000021DCC4F11704E64000242546414638464A
:101F1000FFF7E4FEC7F8048025B16A000021B86825
:101F200019F060F844B1BB6806FA04F223F81520F2
:101F3000C4F11004E6400135A845C4D0BB6823F8BD
:101F40001560360CF7E7B3F1960504F1090448BFB4
:101F5000A3F1870504F00F042D11D7E72DE9F8430D
:101F600004468F18C2F35B020D46511C9846089E2A
:101F7000FFF7B4FE2278002368F30002227063604A
:101F800029461FFA86FCB942084602D3401BBDE829
:101F9000F8830278A2F13003092B01F1010105D980
:101FA000A2F14103192B14D8A2F13703B342EDD2A9
:101FB000D4E901E0F0468146B8F1000F10D100EB02
:101FC0004E0213B120F81E300232121A5210626013
:101FD000D9E7A2F16103192BD8D8A2F15703E5E79D
:101FE000B9F8002002FB0C3329F8023B08F1FF3856
:101FF0001B0CE1E7F8B5044615461E46C1B1531E59
:102000001E444FF0FF37E9000F3109092046FFF762
:1020100065FE237800216FF30003237061604DB9E2
:10202000D4E9011000EB4101FFF7ADFD6060F8BDA0
:102030000127E8E700230F2908DC32788A401343A0
:10204000013D9BB201F108013E44F4D16268501C8D
:102050006060A068103920F81230E0E70A46416855
:1020600038B5044609B9506890B11378257803F063
:10207000010305F00100181A0AD15368994208D3E8
:102080000AD89268A068FFF761FEEB0748BF40429C
:1020900038BD4FF0FF30F8E70120F6E7884210B571
:1020A000044601D0FFF79EFE23786FF300032370F0
:1020B00010BD884210B5044601D0FFF793FE237887
:1020C000C3F30002C2F1010262F30003237010BDEA
:1020D00088421FB5044601D0FFF784FE626862B9EA
:1020E00001212046FFF7FAFDA268012313806360F7
:1020F000237843F00103237010E02378D9070FD52C
:102100006FF30003A16823700123ADF80E30009334
:1021100008460DF10E03FFF788FD606004B010BDA6
:10212000511C2046FFF7DAFDD4E901210123ADF867
:102130000E30009308460DF10E03FFF74CFD606072
:10214000D6E72DE9F0470E4649680546174601B126
:102150002AB931462846BDE8F047FFF743BE02F1F1
:102160000F0424092144FFF7B9FD7068A968B3681A
:1021700017F00F0E04EB000707F1004808F1FF38D5
:102180004FEA480801EB080C08BF4FF0100E03EBB4
:1021900040090146E2460022CEF1100E11BB6FF05D
:1021A000010358430CEB000922FA0EF22CF8002030
:1021B00003FB049304F100420233013A1846520033
:1021C00018F010FF08F102080346434417B133F832
:1021D000022D8AB16F6032782B7862F300032B7086
:1021E000BDE8F08739F8023D1A4322FA0EF32AF8C7
:1021F000023912040139D1E7013FE7E7F0B50E4695
:10220000496885B00546144601B12AB931462846C9
:10221000FFF7E8FD05B0F0BDFFF760FDD6E901214D
:102220002346A868FFF7BBFC686031782B7861F320
:1022300000032B70DB070246ECD500237768ADF86E
:102240000E3021099F4201D08B420FD18F42E1D93C
:10225000B36804F00F0433F81110012303FA04F4F7
:10226000013C214213D0ADF80E3008E0B06830F8E0
:10227000130050B101238F42ADF80E30E8D8A968A1
:1022800001234AB90B806B60C4E70133DAE7BDF87C
:102290000E30002BBED0F2E7009308460DF10E037E
:1022A000FFF799FC6860B5E773B553680C46496859
:1022B00099420646154606D308D89268A068FFF7EB
:1022C00045FD002802DA23462C461D4623782A784D
:1022D00061685340DB0713D401313046FFF7FEFC41
:1022E0006B680093AB68B068D4E90121FFF773FC19
:1022F00070602278337862F30003337002B070BDEF
:102300003046FFF7EBFC6B680093AB68B068D4E92C
:102310000121FFF78AFCEBE7F7B553680C464968E3
:1023200099420646154606D328D89268A068FFF75A
:102330000DFD002822DA234601272C461D4623786E
:102340002A7861685340DB071AD501313046FFF720
:10235000C5FC6B680093AB68B068D4E90121FFF756
:102360003AFC7060237803F001030FB183F001039E
:10237000327863F30002327003B0F0BD0027DEE76D
:102380003046FFF7ABFC6B680093AB68B068D4E9EC
:102390000121FFF74AFCE4E72DE9F04F15464A68B2
:1023A0006B689A420E463EBF2E460B461D4633785A
:1023B0007168DB0785B0044621D42B7813F0010740
:1023C0001DD1FFF78BFCD5E9011CA068B6683B4620
:1023D00099420BD100EB4101FFF7D5FB23786060F8
:1023E0006FF30003237005B0BDE8F08F36F81320BB
:1023F0003CF813502A4020F813200133E8E701315C
:102400002046FFF76BFC32782F78AB68009382EAA6
:102410000703DB4303F00103C3F1000C02F00102E8
:102420001FFA8CF1C2F1000C02911FFA8CF101919C
:10243000B168D6F804E0A068A1F1020A696807F063
:102440000107C7F10008A1EB0E011FFA88F8F44656
:1024500081460391BCF1000F15D100EB4E011BB179
:10246000012320F81E300231FFF78DFB60603378C6
:102470002A78C3F30003C2F300021340227863F307
:1024800000022270AFE73AF802BF019981EA0B0B14
:1024900003990CF1FF3C5A4401EB0C0BE3459FBF41
:1024A000009931F802BB009188EA0B0B88BFC34644
:1024B0005F44029902EA070B8BEA010B13FA8BF3D4
:1024C00029F8023B3F0C120C1B0CC3E72DE9F84F17
:1024D00016464A6873689A420D463EBF35460B461B
:1024E0001E462B786968DB0704462ED4327812F03A
:1024F00001082AD1FFF7F2FBD6E9013CA9686D6813
:10250000A768ED1A4246934210D15B00194400229D
:102510003B44954213D103EB4503DB1B5B10636027
:1025200023786FF300032370BDE8F88F31F81200B1
:102530003CF81260304327F812000132E3E731F82B
:10254000120023F812000132E3E701312046FFF7C1
:10255000C5FBD6E901232F7836786968A068AD6895
:1025600007F0010706F00106C7F10008C6F1000CEC
:10257000A5F1020E1FFA88F81FFA8CFC0D46824660
:102580004FF00109A2EB010B45B900EB4101FFF748
:10259000FAFA2378606043F00103C4E73EF8022FA3
:1025A000013D88EA020217440BEB0502AA4296BFDE
:1025B00033F8022B62468CEA0202164447EA06020E
:1025C000D24319FA82F22AF8022B360C3F0C4FEA5A
:1025D0001249D9E7F0B516464A6873689A4238BF7F
:1025E0000B460C463CBF34461E462778337861685C
:1025F0005F4017F0010785B005463AD1FFF76EFB43
:10260000237813F0010328D1D6E90117A268646882
:10261000A868641A994210D149000A440023014471
:10262000A34214D101EB4301FFF7ADFA2B786860A8
:102630006FF300032B7005B0F0BD32F8136037F86C
:1026400013C086EA0C0620F813600133E2E732F883
:10265000136021F813600133E2E7CDE902770197B7
:1026600073680093B368A868D4E90121FFF702FBFF
:10267000DCE70131FFF732FB3378A868DB4303F076
:10268000010303932378DB4303F001030293012347
:10269000019373680093B368D4E90121FFF7EAFA64
:1026A0002B78686043F00103C4E72DE9F04F4B68D5
:1026B00085B004460E4615460BB1536823B9002376
:1026C000636005B0BDE8F08F814234D1FFF71BFB9A
:1026D000A5420646074600D105466B68716820464C
:1026E0001944FFF7FBFA2268A068C2F39D0252006A
:1026F000002118F077FCB368A1680193AB68D6F8A5
:1027000004A002936B68039300228B1E009301EBDD
:102710004A0C13460398904239D163602A78337883
:1027200053402278384663F30002227005B0BDE8BA
:10273000F04FFFF721BB824204D1FFF7E4FA0546D0
:102740000746CAE70027C8E738F8029F029899446D
:1027500030F812003BF8023B00FB0393A8F800306E
:102760000EF1FF3E1B0CBEF1000FEDD1E6460CF161
:10277000020813B1ACF80030C6460098AEEB010E6B
:1027800002304FEA6E030132C4460090C2E7DDE931
:10279000008BD6460023E6E74B6870B50646144624
:1027A00013B11378DA0702D50023736070BD636834
:1027B00023B90121BDE87040FFF7EABA0846FFF7E8
:1027C000A2FA05462046FFF79EFA0121044630464C
:1027D000FFF7DEFA636883B1A3681B88DB0704D5C3
:1027E0002A4631463046FFF760FFD4E90121012334
:1027F0000846FFF7D4F9606038B92846FFF7BCFAFD
:102800002046BDE87040FFF7B7BA2A462946284659
:10281000FFF74BFFDEE72DE9F04F0C4651688FB014
:102820009146013105460293FFF758FAD9F8042082
:10283000A86801325200002118F0D4FB00236B601D
:10284000D9F8041020460131FFF748FA49462046DE
:10285000FFF7C8FA029B67685B680193BB4232D8F6
:10286000029BD4F808B09E68AB6803932DD3324620
:1028700039465846FFF76AFA002823D1039A606068
:10288000012313806B60029A99F80030127853404C
:10289000DB0714D52B7843F001032B70636873B109
:1028A0004FF0FF310BA8FFF7B8FA0BAA29462846CC
:1028B000FFF7FAFC029A21462046FFF7F5FC0FB01D
:1028C000BDE8F08F01DA0023DCE7019B03F1004053
:1028D00001384FEA400A36F81020002312F4004F66
:1028E00003F1010152D07A009BB24FF0000E791C27
:1028F00002F102080592C3F110022BF817E0D84448
:102900006160DC4677460492C44543D336F8100034
:1029100000FA03F20492019A012A09D906EB0A008F
:10292000C3F1100730F8020CF840049F07430497E6
:102930000198059A091A6960039801F1004101396B
:1029400000EB410105910AF102010991B11E5A44BF
:102950000891D4F804A00199514527D30AF1004AFF
:102960000AF1FF3A0BEB4A0A0020C3F11006D345E7
:102970007BD96FF000416B682BB15A18039830F87F
:102980001220002A7BD06FF000417DE0520092B20D
:102990000B46A3E7BCF800E00EFA03F21743049AD3
:1029A0002CF8027B2EFA02F7BFB2ADE7118832F89D
:1029B000027C47EA01470499B7FBF1F70999511ADC
:1029C000069108990791DDF818C000218E466245EE
:1029D0000CD81088091A002941D1059921F80279EB
:1029E00005910AF1FF31023A6160B2E7079EBCF837
:1029F000008036F8020F0796984040EA1E4E1FFAF4
:102A00008EF07843404503D2A8EB00068E420FD8E3
:102A10000144A1EB08081FFA88F10031C8F1000653
:102A200018BF0121B6B201EB18412CF8026BCEE7BA
:102A3000761AB6B20021F8E738F802CF0CFA03FC98
:102A40004CEA1E4EB6F800C010FA8EF0604426F82C
:102A5000020B000CB242EFD8091A013FBBE700207D
:102A6000DDF82080069E8646F4E7BAF8002042FA98
:102A700003F10143B2402AF8021990B277E7013B13
:102A80006B6078E7013B63606368002B3FF4FBAE4B
:102A90005A183BF81220002AF4D0F4E6F0B51F468D
:102AA0004B6885B006460C4615464BB11378DA07DD
:102AB00006D47B68012B07D1BB681B88012B03D18F
:102AC0000023736005B0F0BD01213046FFF760F9C7
:102AD0006B68002BF6D02046FFF715F90446284610
:102AE000FFF711F9054601A8FFF76FF96B68B3B15D
:102AF000AB681B88DB070AD5224631463046FFF714
:102B0000D4FD3B463246314601A8FFF784FED5E9A5
:102B1000012101230846FFF742F8686048B901A87F
:102B2000FFF758F92046FFF727F92846FFF724F961
:102B3000C8E7224621462046FFF7B7FD3B4622461E
:102B4000214601A8FFF767FED0E710B5D0E90121C3
:102B5000002301EB4202914205D30278D20748BF1D
:102B60005B42184610BD32F8024D44EA0343F2E7D7
:102B700030B5D0E90124002304EB4202944206D38D
:102B80000278D20748BF5B420B60012030BDB3F52D
:102B9000004F04D232F8025D45EA0343EEE700201D
:102BA000F4E72DE9F043884661B19F18D0E901149C
:102BB0000025A4F1020E4FF00109AC461A4419B9E0
:102BC000BDE8F0831F46F1E73EF8024F0CF1100C10
:102BD00044EA0545BCF1070F01DC0139EFE706784F
:102BE000ACB2F60741BFE44359FA84F4A4B24FEA09
:102BF0001429E4B2B8F1000F09D07E1E07F8014C89
:102C0000B342DDD0ACF1080C2D0A3746E2E73E4670
:102C100006F8014B9642F4E7D0E901329FED0C0A29
:102C20009FED0C7A02EB43039A4205D30378DB074E
:102C300048BFB1EE400A704733F8021D07EE901A04
:102C4000F8EEE77AE0EE077AB0EE670AECE700BF4D
:102C500000000000000080472DE9F84F44689DF80F
:102C600028A00B9D8046894616469B469CB982B19A
:102C7000561E2B4616F8012F18463AB9302303701A
:102C8000002300F8013F401BBDE8F88F03F8012B3B
:102C9000F0E72846F2E764002046FDF7BFFA224637
:102CA0000746D8F8081018F059F9ABF13A0B284646
:102CB0002A4607EB040CACF1020300219F421C469C
:102CC00033D930313929144688BF594404F8011BDF
:102CD0003B469C45194632D8BAF1000F08D0012373
:102CE000211A032902BF941C82F801A02046D3B107
:102CF0003846FDF7BBFA3EB1304618F0BBF9234623
:102D00003044B0421C4623D898F80030DB0744BF5B
:102D10002D2304F8013B2B46621E9A421DD8002346
:102D20002370601BB0E72246C5E7248844EA0141CE
:102D3000B1FBF9F423F8024909FB1411BEE7098835
:102D400002330029C5D0BAF1000FECD00023C7E749
:102D500010F8012D03F8012BD3E71978107803F848
:102D6000010B02F80119D8E7D0E9023293423DBFC6
:102D70005A1C826018784FF0FF307047036810B516
:102D8000044613B14068FDF771FA2046BDE81040D3
:102D9000FDF76CBAF8B5054610200C461F461646DE
:102DA000FDF73CFA054B8460C0E900743444C4600C
:102DB0006B60034B2860AB60F8BD00BF692D000855
:102DC0007D2D00080369272B1DD0222B1BD0752BCE
:102DD00003D023F01002622A10D14269272A12D0B0
:102DE000222A10D0722B09D1622A0ED1806927289D
:102DF00009D0A0F12203584258417047622B04D1F8
:102E00004369722BF1E70120704700207047026987
:102E10000A2A10B5044622D1C3690133C3610123D4
:102E2000236263692361A3696361D4E9010398475D
:102E30006369A0610D2B07D10A239842636103D116
:102E4000D4E901039847A061A369013306D16369FE
:102E50005A1C03D00A2B1CBF0A23A36110BD036AAE
:102E6000092A04BF073323F007030133D8E770B5FD
:102E700004460E4600252069431C01D1284670BD3A
:102E80000A2808D116B1A36A002BF7D02046FFF715
:102E9000BEFF0125EFE7FEF7EBFD18B12046FFF777
:102EA000B6FFE8E72369232B08D12046FFF7AFFFE1
:102EB00023695A1CDFD00A2BF7D1DCE75C2BDDD16C
:102EC00063690A2BDAD12046FFF7A1FFE6E700008D
:102ED0002DE9F74F044600218164FFF7C8FFE3693D
:102EE000A363636A256AE563002B04DA062284F88B
:102EF0004020013304E007D0052284F84020013B44
:102F0000636203B0BDE8F08F90B3A36A83BBD4E9DA
:102F10000C20042384F840306FF00043D118013DA9
:102F200030F811108D42ECD017D9E16A8A4207D3EC
:102F300008314900FDF78DF9E36A60630833E36205
:102F4000D4E90C32591C216322F81350636AD0E78C
:102F5000013A2263626A013A6262226BD11830F848
:102F600011108D42F4D3CCD0022384F84030C8E74E
:102F70002169481C01D10023F7E72046FFF722FF13
:102F80008146002800F03C81002384F8403023690A
:102F9000752B5BD0622B4ED16369722B0DBF4F46F0
:102FA0000027012502250B2394F84020002A55D143
:102FB00084F840303DB12046FFF729FF022D02D1B1
:102FC0002046FFF724FF23692046222B14BF4FF031
:102FD00027084FF02208FFF71AFF2369434540D125
:102FE000636998453DD12046FFF711FF2046FFF762
:102FF0000EFF03264FF0000A04F14405D4F810B088
:10300000BBF1FF3F00F0F680012E03D1BBF10A0FA8
:1030100000F0F080B24526D3514604F14400FEF79B
:103020006DF901212046FFF722FF2046FFF7CAFE77
:103030000028ACD165E7722B0CD16369622B4F4637
:1030400015BF012502250A230B23ADE701250A231D
:103050000027A9E700250A232F46A5E79A42A9D011
:103060004FE70126C6E7D84509D1414628460AF16F
:10307000010AFEF7EEF82046FFF7C9FEBEE7BBF1F6
:103080005C0F40F0AC802046FFF7C1FED4F810A0E2
:103090002FB15C212846FEF7DCF8D34665E0BAF193
:1030A000620F00F0858027D8BAF14E0F6ED010D88D
:1030B000BAF1220F1ED0BAF1270F1BD0BAF10A0FB6
:1030C00061D0AAF1300BBBF1070FE2D84FF0030A31
:1030D00066E0BAF15C0F0DD0BAF1610F6BD0BAF1B6
:1030E000550FEED194F840200B2A1FD15C212846C1
:1030F000FEF7AFF8D3463EE0BAF1740F5ED00BD8BE
:10310000BAF16E0F5DD0BAF1720F5DD0BAF1660FF1
:10311000D7D14FF00C0B2EE0BAF1760F57D0E1D398
:10312000BAF1780FCDD14FF0020A06E0BAF1750F6F
:103130000CBF4FF0040A4FF0080A4FF0000B11E0EB
:103140002046FFF764FE226901921046FEF7AEFCAE
:10315000002800F06281019A1046FEF7E7FC4FEA72
:103160000B1B83441AF1FF3AEAD2BBF1FF3F0AD0AE
:10317000AD4B9B4539D894F840300A2B2AD159469B
:103180002846FEF766F84FF0000A74E7A74806F0F5
:1031900005F82046FFF73BFE2269303A02EBCB0BE5
:1031A0006269303A072AE0D8BAF1010AF1D1DCE7C6
:1031B0004FF0080BDFE74FF0070BDCE74FF0090B90
:1031C000D9E74FF00A0BD6E74FF00D0BD3E74FF0DE
:1031D0000B0BD0E7BBF1FF0F07D80B2B05D15FFA24
:1031E0008BF12846FEF72EF8CDE74FF0010384F867
:1031F0004030C8E7B2453CBF032284F840200BE7CB
:103200000846FEF73FFC054620691DB95F2801D03E
:103210007F283ED9072384F8403004F14405C1B229
:103220002846FEF70FF82046FFF7F1FD2069421C03
:103230001BD12846FDF7F7FF7D4E0746002556F8BF
:10324000041B384617F024FF00281CD10D35EDB2C1
:10325000102D84F840507FF454AE764BD3F8E4310F
:10326000002B0CBF0F230D237FE6FEF70BFC40B9AC
:1032700020695F2805D07F2803D8FEF70DFC0028C1
:10328000D7D0217CCCE7FFF63CAE0135242DD6D13A
:1032900037E6FEF701FC68B321692E2935D10923F1
:1032A00084F8403004F144063046FDF7D2FF204652
:1032B000FFF7ADFD09272069431C3FF422AE002D26
:1032C00035D120F02003452B31D16521304684F8DB
:1032D0004070FDF7BEFF2046FFF799FD21692B29BD
:1032E00001D02D29E7D13046FDF7B3FF2046FFF787
:1032F0008EFDE0E723692E2B04D16069FEF7CCFB3D
:103300000028C9D100264C4D31E00823302984F82B
:103310004030C7D1656945F02005A5F16203162B41
:103320009DBF464DDD4005F001050025BAE7FEF7DB
:10333000A9FB28B121692E290DD184F84070D2E76C
:103340002069FEF7A9FB0028F4D123692E2BF1D0C8
:103350005F2BCBD0D5E521F020034A2BC3D1ECE77E
:10336000652F01D0632F00D10135013601352F784B
:1033700017B12369BB42F3D12046FFF748FD0FB9CF
:103380000123F2E5212F07D123693D2BF8D12046F7
:10339000FFF73DFD4323E8E52E2F0FD123692E2BA8
:1033A00002D163692E2B01D04C23DEE52046FFF7C6
:1033B0002EFD2046FFF72BFD0C23D6E503353346C3
:1033C00015F8027C632F0FD0652F0DD01C4AD35CFB
:1033D00084F8403003F0FD02442A01D0482B14D178
:1033E000A36A0133A3628CE515F8012C216991428F
:1033F00006F1010607D12046FFF709FD3346652F88
:10340000E4D00235DCE7632FFAE7452A02D0492BE6
:103410007FF477ADA36A013BE4E74FF0010384F842
:1034200040308346A7E600BFFFFF10007E2E030852
:10343000442F0308CC1700203D2E03080120400034
:10344000192F03087FB5064601AD542085E80E000C
:10345000FCF7E4FE0446034695E8070043F8046BD6
:1034600083E8070001236FF00102C4E90732002559
:103470000A22C4E90B23C4E909551420FCF7CEFE47
:103480002021606304F14400FDF757FE636B204682
:103490001D80C4E905552561FFF7B9FC2046FFF7FB
:1034A000B6FC2046FFF7B3FC2046FFF711FDE36BA7
:1034B000012B18BF0523204618BF84F8403004B004
:1034C00070BD30B585B001AC05462046FFF762FC03
:1034D00094E80E002846FFF7B5FF05B030BD30B5C3
:1034E00085B001AC01460546204616F015FF28467A
:1034F000FDF75AFD94E80E00FFF7A4FF05B030BDBC
:1035000010B5044670B1C3684068984704F14400A0
:10351000FDF740FE606BFCF7A9FE2046BDE81040B9
:10352000FCF7A4BE10BDD0E90432013B036152F8A0
:1035300023007047C1F17F5101F57F11036901F547
:103540007F513F311944436953F821007047F8B562
:10355000446A06460D46B4B1D4E900030B448342E5
:1035600022D90831002201442046FCF77DFE0246A4
:10357000B8B9616820460831FCF776FE63682360BD
:10358000336A63603462802D2F4638BF802707F18D
:103590000800FCF743FE00230760436004467062A6
:1035A00002E023682B4423606068054465600834AA
:1035B0002044F8BD38B50D46D0E903138B420446CC
:1035C00008D3103189004069FCF743FEE36860616D
:1035D0001033E360D4E90432591C216142F82350CE
:1035E00038BDF8B50D461F46D0E900138B4204469E
:1035F000164608D31031C9008068FCF72AFE2168FE
:10360000A06010312160D4E901104B1C636050F8B8
:10361000312065F3170200EBC10340F83120DE7062
:103620005F60F8BD10B48469CAB20023A16B5DF875
:10363000044BFFF7D6BF0000F7B586690F4696F832
:103640004010072905461FD1D6E91210FDF728FCC6
:103650008E2F04460ED18100002241F0020105F1B7
:10366000280005F075FF28B14468E30720D544F031
:10367000010002E0200140F002000146284603B0AC
:10368000BDE8F040FFF796BF082907D13346002276
:10369000D6E9121004F0FEF80446E6E7092912D133
:1036A000009600230122D6E9121004F071F90446B5
:1036B0000C212846B66BFFF74AFF40F2391306602B
:1036C000C0E90134D9E7A1F10A03012B1CD8D6E9DE
:1036D00012100A290BD8FDF7E3FB96F8403048B1E9
:1036E0000A2B0CBF06210A2141EA0010C5E7FDF7AD
:1036F000A7FBF2E7064C0748D6E912210A2B08BFC0
:1037000020460AF0E5FED2E7090141F00E00B4E7D9
:1037100040610308645E0308DE2807D010F001034F
:1037200006D043080CBF01200020704701207047DD
:1037300018467047FE2807D010F0010306D0430852
:1037400014BF0120002070470120704718467047C1
:1037500010F0010204D040F0010008600120704721
:10376000A8B110F003030FD10279392A0ED1836872
:103770000B6013F001000AD19A0708D11868044BB6
:10378000C31A584258417047104670471846704750
:10379000FC5003082DE9F04F2C2A85B004468846DA
:1037A00016461D460BD10021FFF7C4FE88B38107E2
:1037B00002D10379902B2CD005B0BDE8F08FA2F197
:1037C0001D03012B54D82F462A460AE01D2E42D154
:1037D000FFF7B0FFB0B90846FFF79EFF002808BF0B
:1037E0004A4602F1FF396FB1013F39462046FFF7E3
:1037F000A1FE2369A3EB020C6369014643F82C0088
:10380000002FE3D1002189452DD1A5EB0905012D1C
:10381000D2D0A6F12203022B55D8691E2046FFF70D
:1038200089FE01A9FFF794FF002879D0222E37D016
:10383000232E0CBF4FF016094FF01709AF1E002FB3
:1038400031DA002D40F05A81019EF30740F15B818F
:1038500046F001011EE0FFF75FFF0028D2D10846C5
:10386000FFF768FFBAE72046FFF75DFE0131CAE7C0
:103870001F2ACED10021FFF75DFE0246FFF74CFF65
:1038800060B91046FFF756FF0028C2D0DE2120465F
:10389000FFF749FE2046FFF78DFE8DE7FE21F6E794
:1038A0004FF01509CAE739462046FFF743FE02A943
:1038B000FFF74EFFA0B3DDE90112484605F0A6FA76
:1038C000013F0190BBE7A6F12503022B4BD8691EEF
:1038D0002046FFF72FFE01A9FFF73AFF00B3DFF8FC
:1038E0004CA2AF1E002FACDD791E2046FFF722FE52
:1038F00002A9FFF72DFF98B139462046FFF71AFEBF
:10390000C0F30710504410F8319CB9F1FF0F07D0F5
:10391000029808F0CEFDB9F1190F17D800281ADA6D
:10392000A91C89002046FFF712FE46EA05264660DC
:103930000146C0F8008000F10806002DAAD02046FC
:10394000FFF7F1FD013D46F82500F6E7B9F11C0F40
:1039500001D90028E4D0DDE90112484605F056FA05
:10396000023F0190BEE7282E1BD100212046FFF721
:10397000E1FD01A9FFF7ECFE0028D1D0012120468E
:10398000FFF7D8FDC0F30710312808D032280CBF4C
:1039900001200220019904F03BFC019051E7002036
:1039A000F8E7052E68D100212046FFF7C3FD074642
:1039B0000028B5D010F0030A04D1436803F0FE03D9
:1039C000562BADD001212046FFF7B4FD00F00F03C8
:1039D000022BA5D1BAF1000FA2D13B792B2B9FD19D
:1039E000BB6803F00F02022A9AD11B09482B97D11A
:1039F000FB68002B94D09A0792D11A792F2A8FD185
:103A0000D3F808B04FEA101902A95846FFF7A0FEF4
:103A100068B94249424807F0F7FCA1693A68096869
:103A20000546534607F0B8FD2846FCF7D7FB4FEA9A
:103A30008901012241F0020104F1280005F088FD0E
:103A4000029B43604846FDF7C3FA03785F2B20468C
:103A50000BD1FFF768FD2046FFF765FD0023082224
:103A600019462046FFF796FEA6E6FFF75CFD59468D
:103A70002046FFF79FFD53E72B2E7FF451AF012126
:103A80002046FFF757FD00F00F03022B07467FF497
:103A900047AF00212046FFF74DFD00283FF440AF1F
:103AA00010F003027FF43CAF0379312B7FF438AF81
:103AB00039098900D0F808901A4841F0020105F050
:103AC00047FD00283FF42CAF02AA4FEA19114068C5
:103AD00004F0CCFC029B002B3FF422AFD90707D4A3
:103AE0009A077FF41DAF19680F4A91427FF418AF0F
:103AF000039A002A7FF414AF0193A2E62046FFF751
:103B000012FD013D9DE60C212046FFF720FD40F20D
:103B1000391301460560C0E90136BBE65F30030892
:103B2000204B0308D42F0308FC5003085335030827
:103B3000036830B513B91360184630BD9C0702D036
:103B400010600120F9E75C68E5B28D42F8D10833D6
:103B50001360200AF1E700002DE9F04F93B0002434
:103B6000402302904FF400700F460192CDE90534D6
:103B7000FCF754FB202307908020CDE90834FCF7A4
:103B80004DFB2146CDE90A070FA8CDE90D4405F00C
:103B9000A5FC019B002B4CD0022B0CBF3C222246E3
:103BA0000023B96BDFF8CCB205A8FFF71AFD4FF080
:103BB0000008069C002C00F05F81013C079BA84D8B
:103BC000069403EBC40253F83430D6785268C3F33A
:103BD000170AA44B9B5D0093A34B9B5D652E88BF8A
:103BE00043F4807305EB4305009B03F00F0903F0DA
:103BF0003003102B1FD0202B51D0B8F1000F00F054
:103C00000481B9F1020F40F0F380012A18D000219D
:103C10000098C00702F1FF3306D568880BEA000060
:103C2000B0F5805F08BF5308012B40F0DF8069B119
:103C3000DCE03A22B4E732B905EB4205914508D8F9
:103C40004FF00108B5E7B8F1000FF5D14FF00008CB
:103C5000AFE7A84635F8023B03EA0B01B1F5805FF8
:103C60000DD197F84010C3F30B03994215D105A865
:103C70003146FFF7E1FC3846FFF72AF9E6E7531C27
:103C80004B4504D23246514605A8FFF7AAFCB8F8C6
:103C9000001005A8FFF7C6FCD8E70132CEE7B8F15F
:103CA000000F0FD002F10043013B35F813300BEA4F
:103CB0000303B3F5405F1BD1002105A80392FFF772
:103CC00079FC039A05EB4204914525D8019B0BB181
:103CD000052E43D0002405EB490922464D455BD112
:103CE000012A7AD1009B5B0677D5002529466EE034
:103CF000012AA5D997F84030052B40F0EC805B49AC
:103D00005B4807F081FB00230446BA6B396807F073
:103D100043FC2046FCF762FAA04634F8023B03EA73
:103D20000B01B1F5805F17D197F84010DBB29942D3
:103D30000ED1072905D1314605A80392FFF77CFC77
:103D4000039A03923846FFF7C3F8039A0132BBE7A0
:103D5000002A3FF475AFCDE7531C93E7002105A877
:103D6000FFF7E8FB0028B5D1012105A8FFF7E2FB2A
:103D7000820700F0B78000F00F000228AAD005A843
:103D8000FFF7D1FB05A8FFF7CEFB00230822514621
:103D900005A8FFF7FFFC59E739F8023D03EA0B01DC
:103DA000B1F5805F05D1DBB2072B97D10134013229
:103DB00094E7214605A8FFF7BDFB00B101320134AD
:103DC0008CE7FFF7B0FB0135002818BF0146A5427C
:103DD00005A8F6D1FFF7EEFB38E7009B1D0604D5DA
:103DE000002105A8FFF7E6FB013423463246CEE763
:103DF000012A3FF425AF12F001013FF409AFB9F1F8
:103E0000030F7FF477AF012102E709EA020303F011
:103E1000010335F8134004EA0B01B1F5805F13D1BB
:103E200097F84010C4F30B04A14202F1010409D138
:103E30001BB9314605A8FFF7FFFB3846FFF748F8E6
:103E40002246E2E72246DCE6531C514605A83246EC
:103E5000FFF7C7FB214605A8FFF7E4FBA9E600BF73
:103E60002A3103087B300308A43403081030030808
:103E70001448030800F0FFFF0FA805F048FB0E9858
:103E800050B1416822460831FCF7EEF90E9B5A68A2
:103E90001A600D9A5A600D9397F84030002B7FF40A
:103EA00029AF099B002B3FF425AF0A9B07981B689D
:103EB0000C93FCF7DBF90A98FCF7D8F93846FFF7C2
:103EC0001FFB0CAB93E80300029B83E8030018463A
:103ED00013B0BDE8F08F022B01D1064910E7064967
:103EE00006480EE700283FF4F5AE0379392B3FF47E
:103EF00046AFEFE62230030850300308204B03089A
:103F000010B5406800B910BD4468FCF7AFF9204611
:103F1000F8E700002DE9F041054630200E469046B6
:103F20001F46FCF794F9072D04460570C660A0F8FB
:103F3000148001D0012D10D1B368C3F30F13E382B5
:103F400003F070FE04232061678323852020FCF7A3
:103F500065F9E0622046BDE8F081014B5B5DEEE76C
:103F60005E35030810B50446C06AFCF77FF92046A9
:103F7000BDE81040FCF77AB930B5448D0022944278
:103F800002D80023184630BDC36A03EBC2035D6844
:103F90008D42F7D00132F2E770B504460D46164661
:103FA000FFF7EAFFC0B9218D638D8B4208D306313C
:103FB000C900E06AFCF74DF9238DE06206332385E2
:103FC000638DE26A591C02EBC300618502F833601D
:103FD000002343704380456070BD43680BB9FFF711
:103FE000CBBF1846F9E7F8B544680F462CB9F8BDC1
:103FF000032BFCD104230370F9E723465D68002DF1
:10400000F5D07E6818463146FFF7B6FF2B460028EC
:10401000F4D00378033B022BE9D805233B701D46FF
:10402000002231462046FFF7B7FF0378002BDFD18F
:1040300005706468F4E72DE9F04180461F4659B1E8
:1040400011F0030510D14E68F3B293420CD1360A39
:1040500001F10804B54201DBBDE8F08154F8041B0E
:104060004046B8470135F5E740463B46BDE8F041DC
:1040700018470000024B89689B22FFF7DCBF00BF96
:10408000F14B0008024B89686A22FFF7D4BF00BFDA
:104090001366000810B50446084611462268FFF76B
:1040A00039FF636A436000238360236A13B9206287
:1040B00010BD13469A68002AFBD19860F8E789681A
:1040C000806A0022090902F086BF8968806A02F0CE
:1040D00030BF2DE9F74F06460C4691469A461BB174
:1040E0000B8B43F008030B83736AA4F820901B78B2
:1040F000002B3DD1B06A53464A46214603B0BDE885
:10410000F04F03F0E2B8DB6A03EBC50B13F8353070
:10411000043B012B19D8002714E0E36A03EBC70224
:1041200013F83730052B0CD1DBF804105368994293
:1041300007D10023BBF80220B06A02F093FD08F11A
:1041400001080137638DBB42E7DC0135736A5A8D84
:10415000AA42D8DCB8F1000FCCD0CDF800A04B4675
:1041600042462146B06A03F0C6F803B0BDE8F08FBE
:104170000025A846EAE70000F8B504460F461146B8
:104180001A46002385794669837143610D4BFFF719
:1041900052FFA368A3B9E18A39B1A28A2AB9A06AF9
:1041A00003F045F8A06A02F0CEFEA38AE28A3946FF
:1041B0002046FFF78EFF003518BF0125A571666107
:1041C000F8BD00BFCD52000870B54379012B0546FC
:1041D0000C4606D1436A0A465B8B0221FFF75AFF61
:1041E0002061A268216928464B23BDE87040FFF793
:1041F000C3BF70B513464279012A06460C4604D166
:104200000A460721FFF746FFA061A569E26830462C
:1042100043232946FFF7B0FFE88A70BD10B5044676
:10422000806A02F078FFA38B626A0133D18C9BB263
:104230009942A38338BFD38410BD838B013B838312
:10424000806A02F092BF31B1026801F003031343A8
:1042500004BF0B680360704738B5836804460D4699
:104260005BB91146054807F0CFF82946A06004F174
:104270000C00BDE83840FFF7E6BF38BD204B03080F
:10428000014AFFF7E9BF00BF5238030838B50B7980
:10429000092B0BBF058B458B084A094A4FF6FF7364
:1042A0009D42044601D1FFF7D7FFA28BE38BA06AA2
:1042B000D21A2946BDE8384002F0FDBE3F36030859
:1042C0005436030870B50646406A048B0D46A107B4
:1042D00006D5214A29463046BDE87040FFF7BCBFED
:1042E00005F00F01022912D12909B3791BB1C38B43
:1042F0000133C38302E0838B01338383012449B3F9
:104300000022FFF749FE03780BB3144AE2E729794C
:10431000914202D1A9680909E7E7994210D1B3791E
:10432000002BD6D10123B371A96899B11C4301F0C8
:104330000F03022B18BF8968048309090324DEE7F1
:10434000A96844F00204048309090524D7E703237C
:104350000370447070BD00BF503003083D3803083F
:104360004E234D22FFF7AEBF46234522FFF7AABFDB
:1043700010B504460021006802F001FF20680E21FC
:1043800002F068FD20680121BDE8104002F0FEBF88
:1043900010B504460022806A02F0DEFD002354F8C6
:1043A000280F1A46194602F0CDFF2046BDE81040FE
:1043B000FFF7DEBF10B44279446A012A0B4604D1EC
:1043C00020465DF8044BFFF7E7BD22460249806AAC
:1043D0005DF8044B02F080BA3C39030810B444790C
:1043E000426A012C0B4604D110465DF8044B02F0E2
:1043F00065BA0349806A5DF8044B02F06DBA00BFEC
:1044000044390308436A10B55A8B0446FFF7F1FE9E
:1044100001462046BDE81040FFF7E0BF10B44479E4
:10442000426A012C0B4604D110465DF8044B02F0A1
:1044300045BA0349806A5DF8044B02F04DBA00BFEB
:104440003439030837B505460C4629B1CA0705D5E6
:104450004910806A02F01CFD03B030BD8B072CD0E0
:1044600001F00F04062C4FEA111307D00A2C0AD0D2
:10447000022C1BD11946FFF79DFFEDE71946806A14
:1044800002F04CFDE8E74279042A04D01149806A21
:1044900002F04FFDE0E701A91846FCF79EFD0199E7
:1044A000AC6A0AF09FFA01462046F1E7042BD3D00C
:1044B000D9B2806A02F0CEFCCEE70968806A02F0C9
:1044C0004DFC2279044B214653F822302846984768
:1044D000C2E700BF54560308B83603082DE9F14F70
:1044E0000D46A9070446164612D005F00F03022B0D
:1044F00017D129090AB1022A05D1204601B0BDE829
:10450000F04FFFF76BBF01B0BDE8F04FFFF752BFB0
:104510006968CBB22C2B72D00BD8062B0DD02B2B6D
:1045200012D0504A2946204601B0BDE8F04FFFF7AF
:1045300093BE2D2B74D09B2BF3D1002EF1D105F11E
:1045400008030A0A00217EE0022A02D0A968FFF7C8
:1045500079FFEF68002FE4D017F00309E1D17B6801
:10456000DAB28C2AB8460DD1022E4FEA132805D0B4
:1045700007F1080A08F1FF3BD9450EDB08F10108F5
:1045800057F8288098F80430302B1FD1022E0CD118
:10459000A06A02F03DFD012112E05AF8041B2046FA
:1045A000FFF750FF09F10109E6E7D8F808102046A7
:1045B000FFF748FF012EEED1A06A02F0F0FC0021C7
:1045C000A06A01B0BDE8F04F02F02BBD312BA8D19D
:1045D000012EA06A0BD102F0D9FCD8F808100022F5
:1045E000A06A090901B0BDE8F04F02F0F4BC022E48
:1045F00001D102F0E7FCD8F808100122F0E7A86822
:1046000000288ED0002A8CD1C16839B311F0030381
:1046100024D14A68D6B2932E17D11A46816812E087
:10462000002A7FF47EAFA96829B90B4601B0BDE826
:10463000F04F00F019B88B0703D10B79902B084687
:10464000E2D000231A462046F0E7942E03D101F170
:104650000803120AE2E7AB2E3FF463AF00F1080350
:1046600002226FE7853503082DE9F84F0F1E054636
:1046700090461E4614BF4FF001094FF000091DD0AF
:1046800017F003041AD13B79212B17D12146806AF8
:1046900002F00EFE4FF0000A08F1FF3BC24510D1B8
:1046A000631C29D109EB0801A86A02F0F6FD67BB7B
:1046B00006EB880846452BD1BDE8F88F4FF0FF3454
:1046C000E8E756F82A1071B18A070CD10B79212B33
:1046D00009D101340AD10AEB0904ABEB0A022146E5
:1046E000A86A02F0E5FD0AF1010AD7E728460F4A59
:1046F000BDE8F84FFFF7B0BD002FD9D02CB9B9688D
:1047000022462846FFF7EAFED2E700223946F8E7BC
:1047100056F8041BA1454FF0000208BF89682846DF
:10472000FFF7DCFE09F10109C4E700BFA03503086B
:104730002DE9F74F06460C4615461F462046FEF764
:10474000EBFF08B1E5B904E02046FEF7F3FF38B10E
:10475000B5B1B06A394603B0BDE8F04F02F07CBC99
:10476000002C54D0A30752D163684FEA132ADBB25E
:104770001D2B1AD1EDB1083404EB8A0A54450CD133
:1047800003B0BDE8F08F5B46019A59F8041B304630
:10479000FFF7CEFF08F101081AE03B462A4654F81D
:1047A000041B3046FFF7C4FFE8E71E2B23D1002D82
:1047B000E1D0D6F810B00BF1010333610AF1FF33F9
:1047C000009385F0010304F108094FF000080193FC
:1047D000009B4345D7DC0AF10101304654F8211013
:1047E0003B462A46FFF7A4FFB06A594603B0BDE82E
:1047F000F04F02F003BB1F2B03D185F00105A46825
:104800009CE72C2B03D1A368002BA1D19AE721466A
:104810003046FFF717FEB06A3A46294603B0BDE8B6
:10482000F04F02F024BC2DE9F843066904461F4608
:10483000B31C03610D46806A314606F101089146BA
:1048400002F0DCFA4146A06A02F0A8FCA968002246
:104850002046FFF743FE2D690DBB49462046FFF772
:10486000F1FD636A1978062913D1A06A294602F07E
:104870008DFDA06A02F09CFB3146A06A02F0ECFBC1
:10488000A06A414602F0BAFAA06ABDE8F84302F015
:1048900090BCBA000532A06A02F0E5FCECE72B7987
:1048A000AC2B07D1A968334600222046FFF740FF12
:1048B000ED68D1E7E9682046FFF7C4FDA06A012151
:1048C00002F05DFC7B1C4A4629462046FFF7ABFF01
:1048D000D2E700002DE9F04104460E466271002542
:1048E0000561114646623246806A02F0F1F8677946
:1048F000012F08BF7562F56865B1AA070AD12B7947
:104900003C2B07D1A9682046FFF79CFDA06A02F066
:1049100025FD1FE0337843B929462046FFF792FD75
:104920000E21A06A02F096FAF0E7072B17D1012FAB
:1049300007D10023A37143224A4BE9682046FFF7C1
:104940007AFB20466969FFF77DFDA06A02F077F9DE
:104950000028E5D0A06ABDE8F04102F043B9022B7F
:1049600014D1012F07D10023A3714B223E4BA9681C
:104970002046FFF760FBE9682046FFF763FD338BB5
:104980005B07C3D5A06A02F013FBC9E7033B032B07
:104990003CD8012FD5F80C8005D103223946606A36
:1049A000FFF7FAFAB7833378032B1ED101220021D7
:1049B000A06A02F03CFC3378062B1ED1A06A02F0FC
:1049C000C2FA01212046FFF7F5FCA06A02F0BBFA0B
:1049D000A06A02F0B8FA0023AA6841462046FFF711
:1049E00022FF3378062B91D19AE7042B01D10322C1
:1049F000DDE7052BDFD10622D9E720460121FFF7AD
:104A0000D9FC0121A06A02F0BAFBE4E7012F04D12E
:104A100003220A213046FFF7BFFA17212046FFF78D
:104A2000C9FC16212046FFF7D9FCA968A06A09092C
:104A300002F074FA1A212046FFF7D0FC29692046BB
:104A4000FFF700FD0A213046FFF796FA0378032BA3
:104A50003FF466AF4288A06A00230A2102F002F9FF
:104A600054E700BF694300086143000838B50C46AD
:104A70000546C968FFF7E6FCA1682846BDE838404E
:104A8000FFF7E0BC38B50B79332B04460D460CD14B
:104A90008968FFF7D7FCED68AD685DB90E21A06AA3
:104AA00002F0D8F90822022115E00E21806A02F0F6
:104AB000D1F9F1E7AB071CD12B79982B10D10E213E
:104AC000A06A02F0C7F9A9680029EBD02046FFF7D9
:104AD000B9FC08220321A06ABDE8384002F0A7BB58
:104AE000992B06D1A9682046FFF7ACFCEB689968C2
:104AF000EAE729462046FFF7A5FCD3E710B50446B0
:104B00008968FFF79FFCA06A0021BDE8104002F011
:104B100088BA2DE9F041804615460C4611B1FFF7E1
:104B200091FC012435B16E680027360A0835B7427A
:104B300008DB34442146D8F828000022BDE8F041C3
:104B400002F075BB55F8041B4046FFF77BFC0137AC
:104B5000EDE70A460021FFF7DCBF2DE9F0470669C3
:104B6000D0F818A0B0F81E900683B31C036106F1BC
:104B70000108838BA0F81A800446C38388680D4619
:104B8000FEF7CAFDE0B927697B1C2361A868FEF720
:104B9000D1FD18B94146A06A02F05EFA3946A06A12
:104BA00002F02CF9E9682046FFF74CFC4146A06A68
:104BB00002F024F93B460122A9682046FFF7B8FD20
:104BC0002969C4F818A02046A4F81E90FFF73AFC03
:104BD0003146A06ABDE8F04702F010B910B50446AE
:104BE0008968FFF72FFCA06ABDE8104002F0E0B929
:104BF0002DE9F04705460C4604F00F03022B05D1C2
:104C000021092846BDE8F047FFF708BC002C66D014
:104C1000A20764D123792B2B37D1A1682846FFF74F
:104C200011FCE668002E5AD016F0030857D17768B9
:104C3000FAB28C2A334609D13F0A06F1080907F176
:104C4000FF3AC2450FDC013756F827301A79302A6F
:104C500011D128469968FFF7F5FBA86A0221BDE843
:104C6000F04702F0DEB959F8041B2846FFF7EAFBCB
:104C700008F10108E5E7312A31D19968A86A0222D2
:104C80000909BDE8F04702F0A6B92C2B27D1A4688A
:104C90002CB3E668EEB1B3071BD17768FAB2932A5A
:104CA00001D1A468A8E7942A11D1A1682846FFF78A
:104CB0009FFF3F0A08360024BC4201DBBDE8F087B5
:104CC00056F8041B2846FFF793FF0134F4E7AB2A9C
:104CD00005D0A1682846FFF78BFFE4688CE72146E2
:104CE0002846024ABDE8F047FFF7B6BABA350308CE
:104CF0004B682DE9F04106460F461D0A01F10808F0
:104D00000024AC4201DBBDE8F08158F8041B3046BA
:104D1000FFF798FBB36843B1023406F10C0057F873
:104D20002410BDE8F041FFF78EBA0134E9E710B571
:104D30000446FFF7DDFFA06A2021BDE8104002F025
:104D400053BA2DE9F3470669731C0361044688686A
:104D50000D46FEF7E1FC0246F8B927697B1C23618A
:104D6000A9683B462046FFF7E3FC2046E968FFF7C9
:104D700069FBA868FEF7DEFCE8B92B690BB96B6923
:104D80003BB1A06A01F05BFF18B93146A06A02F09E
:104D900063F93946A06A02F031F801AA702105F1E1
:104DA0001000FEF7C5FE0027824657450ADB6969F9
:104DB0002046FFF747FB3146A06A02F01FF802B019
:104DC000BDE8F087019B53F82780D8F80800FEF76C
:104DD000A3FC024608BBD4F8109009F1010323613B
:104DE000D8F808104B462046FFF7A2FC2046D8F81A
:104DF0000C10FFF727FBD8F80800FEF79BFC0028F3
:104E0000D9D1A06A01F01BFF18B93146A06A02F09F
:104E100023F94946A06A01F0F1FF0137C5E770B5F3
:104E20004379CD68012B0446164606D1436A0A46EB
:104E30005B8B3146FFF72EF9686100231A466969DA
:104E40002046FFF746F9E9682046FFF7FBFA062EF1
:104E500003D10021A06A02F092F90023A06A1A4649
:104E60000121BDE8704002F062BA70B58C68054659
:104E700034B901222146A86ABDE8704002F0D7B9D2
:104E8000A20730D12379902B2DD1E66806B3B30762
:104E90001ED13379932B05D1A168FFF7D3FA0122F4
:104EA0001146E8E7942B0BD1A168FFF7CBFA314606
:104EB0002846FFF71DFF71680122090A1144DAE74D
:104EC000AB2B05D121460322BDE87040FFF7A7BFF9
:104ED000A1682846FFF7B6FAE1682846FFF7B2FA5C
:104EE00001220221C7E721462846D6E72DE9F04FE7
:104EF00087B0CDE90221054605AAA32103A81F46D4
:104F0000FEF716FE4FF0000B0190D946DA465E46DA
:104F1000D846019B9B4516DB5EB1BAF1000F67D105
:104F2000A86A02F010F8B9F1000F67D1A86A02F080
:104F30000AF8029BA86A002B66D0334642463946DF
:104F400002F000FA10E0059A52F82B40002C40D0F5
:104F5000A0073ED12279A52A0FD1F10707D52D4A06
:104F600021462846FFF778F907B0BDE8F08F46F0F4
:104F70000106A2460BF1010BCBE7A62A07D1B20727
:104F800001D5254AECE746F00206A146F2E7A72A3A
:104F90001FD1E26822B1930702D11279AB2A11D056
:104FA000A16801F00F02022A01D01C4AD8E70909C2
:104FB000A86A01F0B3FFE1682846FFF743FA08F159
:104FC0000108D7E7062221462846FFF728FF0137C8
:104FD000D0E70EB1124AC3E7B8F1000F01D0114A71
:104FE000BEE721462846FFF72DFA01374646C1E7BE
:104FF000DAF808102846FFF725FA94E7D9F80810E0
:105000002846FFF71FFA94E733464246394602F036
:105010008EF9A9E76F380308863803089E3803081D
:10502000BF380308DA38030870B50D464179012905
:105030000446134603D12A46FFF72CF86861A06A9C
:1050400001F09BFF6E6900231A4631462046FFF7A8
:1050500040F8F18AA06A01F061FFE96829B18B0785
:1050600003D10B79A22B08BF002120460223002286
:10507000FFF73CFFF08A70BD436A10B55A8B0446B7
:10508000FFF7D2FF01462046BDE81040FFF7A6B962
:1050900000231A468968FFF729BF00002DE9F04F69
:1050A000044685B0894602AA3F2109F10800FEF7AF
:1050B0003FFD636A00255F8B0646A846B5420ADBC2
:1050C000D9F80C100B79032B3DD13A462046FFF757
:1050D00090F8054647E0029B53F825A003AA6B21F0
:1050E0000AF10800FEF724FD039B19680A09732AD8
:1050F00083460CD02046FFF7A5F901235B4516DB5C
:10510000DAF80C1059B12046FFF79CF907E00228A5
:1051100007D0214A2046FFF79FF808F10108013522
:10512000CCE759680B09412BF3D10127F5E7039A26
:10513000A06A52F8231001930022090901F04BFFE5
:10514000019B0133DAE7412B19D1D1F808903A4697
:1051500049462046FFF74DF8D9F81820138B43F045
:105160000403054613830027A6EB0806BE420BDCAA
:1051700029462046FFF732F905B0BDE8F08F3A46E0
:105180002046FFF751FFA4E700231A460121A06A39
:1051900002F0CDF80137E9E76C3603082DE9F74353
:1051A0008D680446164635B9BAB103222946A06A6D
:1051B00002F03DF811E0AB0778D12B79362B0FD1F7
:1051C00022B103220121806A02F031F820462946EB
:1051D000FFF738F9A06A02F03CF803B0BDE8F083AD
:1051E0009D2B63D1EB681A79A02A4FD1A12101AA86
:1051F00003F10800FEF79CFCA9688046E9B18F071F
:105200001BD10B79362B18D126B1411C0322A06A81
:1052100002F00DF8A9682046FFF714F9A06A02F021
:1052200018F84FF00109002747450CDBB9F1000FD2
:10523000D3D1062208F10101B9E72046FFF702F9B0
:105240004FF00009EFE7019B53F8271099B18E0743
:1052500011D10E79A6F13600464246412046FFF7AD
:10526000F1F8B9F1000F0DD03EB9144A2946204695
:10527000FEF7F2FFB1E70026F0E7A06A01F0E9FFD0
:105280000137D1E7002EFBD00D4AEFE7AB684BB1F9
:105290009A0707D11B79362B04D104222946FFF740
:1052A000BEFD9AE7052229462046F8E72946204612
:1052B000FFF7C8F80622012179E700BFD2350308BD
:1052C000EF3503080122FFF769BF000001F00F036B
:1052D000022B70B504460ED04B6803F0F702462A45
:1052E00002D10123837170BD472AFCD0DBB2452B6C
:1052F0000DD10D696DB9A379002BF4D1E38A002B90
:10530000F1D02046194ABDE87040FEF7A5BFCD6830
:10531000F0E7A3790BB3A38A8E6801339BB2012B0C
:10532000A3820AD1E18AA06AA1B1002201F07FFF25
:1053300003220021A06A01F07AFF29462046FFF7E8
:1053400081F8A06A310901F0E9FDA06ABDE870406A
:1053500001F07FBF01F0F7FDEAE7E38A0133E38262
:1053600029462046BDE87040FFF76CB88A3603082E
:105370002DE9F8430C4689680646FFF763F8E568AF
:10538000002D55D06F68716AFBB209788C2BA36829
:1053900019BF04F10C0501273F0A0835072903F05E
:1053A0000F0249D1022A45D11A099A2A46D12A6800
:1053B00011792F2942D19268002A3FD10A21304623
:1053C000FEF7F8FF726AD36A528D32B929683E4AF5
:1053D0003046BDE8F843FEF73FBF5978C9070DD501
:1053E00059683046FEF7E6FF022F0AD800231A4616
:1053F0000221B06A01F09BFF012417E0013A083353
:10540000E3E76B681A79312AF0D1AC6822792F2A48
:10541000ECD19968B06A0122090901F09DFDA168EB
:10542000002301223046FFF761FD0324A74224D860
:10543000BDE8F8830024F9E7022AFBD140F2672295
:10544000B2EB131FF6D12B681A792F2AF2D19B6881
:10545000002BEFD013F00304ECD11B792E2BE5D1F8
:10546000234622462146B06A01F061FF2B6822469E
:1054700099683046FFF792FEBEE704F10108B8458F
:105480004FEA840355F8241019D20A79312A16D12B
:105490002B44D3F8049099F804302F2B0FD189684E
:1054A000B06A0022090901F057FD00230122D9F852
:1054B00008103046FFF71AFD08F10104B6E7304640
:1054C000FEF7C0FFA046F7E727360308436A1B78BC
:1054D000072B10B50A46044606D0022B04D0074A13
:1054E000BDE81040FEF7B8BE20461146FFF740FF6A
:1054F00004F12800BDE81040FEF73ABF0E3603085D
:105500002DE9F0414E68DFF840800C468968074677
:10551000FEF798FF360A0225AE4201DCBDE8F081B5
:1055200021693846FEF78EFFE368B86AC3F30713B4
:10553000313B082B94BF18F80310192101F054FED9
:1055400002350834E8E700BF653503082DE9F0416E
:105550004D680C4689688046FEF774FFA5F10D077B
:10556000FFB22D0A0C340126AE4201DBBDE8F0810A
:1055700054F8041B4046FEF765FF3946D8F828006A
:1055800001F032FE0136EFE72DE9F041CD68044627
:105590000F461DBB0379A3B1436A1D788DB9C9219C
:1055A000FEF708FFB9682046FEF74CFF2B462A4657
:1055B0000121A06A01F0BBFEA06ABDE8F04101F044
:1055C000F7BCB968880700F0A78001F00F03022B31
:1055D00040F0A9802046FEF735FFEDE7A90740F02F
:1055E00095806B68DAB2562A15D10122B968FEF7A8
:1055F00075FFE9682046FEF725FFAB68A06A1B0926
:10560000503B0A2B96BF494A1421D15C01F0ECFDB6
:105610000222B96875E0572A23D11B0A03F1FF382B
:10562000013355F82310FEF70DFFB8F1000F02DD2E
:10563000A06A01F0ABFC0022B9682046FEF74EFFDD
:105640000835002646456EDA0136464502DAA06A7C
:1056500001F09CFC002255F8041B2046FEF73EFF9B
:10566000F0E7062A52D1BE68002E4FD0B2074DD1C6
:105670007268D1B2062949D14FEA1228B8EB132F2C
:1056800044D1A8F10203012B40D8B36823B1980795
:1056900002D11B79212B39D0F36823B1990702D1AC
:1056A0001B79212B32D0B8F1020F06D0336923B118
:1056B0009A0702D11B79212B28D0A9682046FEF732
:1056C000C1FEE9682046FEF7BDFEB8F1030F06D122
:1056D00020462969FEF7B6FEA06A01F099FCA06A8F
:1056E00001F070FC0022B1682046FEF7F7FE0022B0
:1056F000F1682046FEF7F2FEB8F1030F13D13169CD
:1057000000222046BDE8F041FEF7E8BE29462046CB
:10571000FEF798FE00227CE700293FF45BAF0B798F
:10572000392B7FF457AFBDE8F08100BF6E35030819
:1057300038B50C46C9680546FEF784FEA368C3F376
:105740000713312B08D0322B0CBF01210221A86A8C
:10575000BDE8384001F03CBD0021F8E710B5044633
:105760008968FEF76FFEA06A0321BDE8104001F0D2
:105770002FBD2DE9F8434D68D0F810805FFA85F908
:10578000A9F11D03D3F1000949EB030908F1010355
:10579000044603612D0A01F108060027AF4205DB2C
:1057A0004146A06ABDE8F84301F028BB56F8041B47
:1057B00020460137FEF746FEAF42EFDA4246494641
:1057C000A06A01F066FCE9E72DE9F8434E68DFF8CE
:1057D000C89004460D46360A8968FEF733FE032E4C
:1057E00083BFD4F8108008F1010323614FF0000853
:1057F00001277B1CB3421CDB032E4ADD2569A06A0E
:105800006B1C2361294601F027FC4146A06A01F088
:10581000F5FA0121A06A01F017FAA06A01F0D2FBA3
:10582000A06A01F0C5FB2946A06ABDE8F84301F073
:10583000E5BA296920460237FEF704FEB74205DAC9
:10584000A06A01F0A3FBA06A01F0E2FBEB68A06A8A
:1058500003F00F020E2A11D11B09383B0B2B94BF0A
:1058600019F80310062101F0BFFCB74204DA4246E2
:105870000021A06A01F00DFC0835BAE71A79832AE5
:1058800001D12421EFE79B680BB90721EBE7252124
:10589000E9E7BDE8F88300BF793503082DE9F04159
:1058A0000569CF68AB1C0361884604462B4600227D
:1058B000B968FEF73DFF6E1CD8F808102046FEF7C9
:1058C000C1FD3146A06A01F0C7FB2946A06A01F07C
:1058D00095FAA06A4FF0FF3101F0B6F9F968204659
:1058E000FEF7B0FD3146A06ABDE8F04101F086BA8E
:1058F0002DE9F04F8B6803F00F03022B89B00446AB
:105900000F4640F0E980CB68002B00F0E5809D0752
:1059100040F0E2801A792B2A40F0DE809A6802F08B
:105920000F01022940F0D88012097C2A40F0D4806F
:10593000DB681A792F2A40F0CF809B68069307AA6C
:10594000A32106A8FEF7F4F8431E022B00F2C48040
:10595000079A0128136800F0B2800228556800F009
:10596000FF809668F00740F1B780720800F0B480BD
:1059700033B1990704D11A79A53A022A40F2AC80D2
:1059800035B1AA0704D12A79A53A022A40F2A480A7
:10599000BA6801923A69D7F8148002922769A2691D
:1059A0000492E28B03927A1C05926283A28BE283BB
:1059B00015F0010907F1040207F1020A278307F134
:1059C000030B226105D1294620460593FEF73AFDD7
:1059D000059B19462046FEF735FD5946A06A01F0A1
:1059E0003BFB5146A06A01F009FAA06A01F0CEFA29
:1059F000002201992046FEF771FD02992046FEF72C
:105A000021FD791CA06A01F0F9F931462046FEF724
:105A100019FD0E21A06A01F0E7FBA06A594601F0CA
:105A2000EDF9A06AB9F1000F4DD101F0B8FAA06A02
:105A300001F0C8FA002EACBF00210121A06A01F0DC
:105A4000D3FB52460121A06A01F011FB049BA36124
:105A5000039BE383B8F1000F3CD0A06A01F0A8FAE1
:105A6000B9F1000F02D1A06A01F0A2FA4146204626
:105A7000FEF7E8FC2669A06A731C3146236101F039
:105A8000EBFAE94301F001010131A06A01F0DCF811
:105A9000A06A394601F0B2F9A06A01F089FAB9F1B9
:105AA000000F02D1A06A01F083FAB8F1000F03D011
:105AB0003146A06A01F0A2F909B0BDE8F08F1D4699
:105AC000032603465CE701F061FA29462046FEF70B
:105AD000B9FCAFE74646DBE72569A38BB4F81E9017
:105AE000E3836FEA45436FEA5343D4F818A0238356
:105AF000EB1C23616E1CF96866832046FEF7A2FC4E
:105B00000121A06A01F03BFB05F102083146A06AC1
:105B100001F074F94146A06A01F040FB0022B96827
:105B20002046FEF7DBFC20463969FEF78BFCA06AB5
:105B300001F085F818B93146A06A01F08DFA4146A6
:105B4000A06A01F05BF9A06A01F033FB7969C4F83F
:105B500018A0A4F81E902046FEF774FC2946A8E77A
:105B6000032605E72DE9F0470446904699460F467F
:105B700021B91946BDE8F047FEF764BC0669731CFD
:105B80000361156815B315F0030A1FD12B797A2B21
:105B90001CD1A968FEF756FC524631462046FEF756
:105BA0003DFB5246E9682046FEF798FC4B4608F15B
:105BB0000402791E2046FFF7D5FFA06A314601F0A6
:105BC000BDFA2046BDE8F047FEF737BB2946204620
:105BD000FEF738FC204600223146FEF71FFBA06A84
:105BE00001F0E6F9E2E737B50C46054601AA79214E
:105BF00004F10800FDF79CFFE368019A014628467E
:105C0000FFF7B0FF03B030BD2DE9F04F85B0066956
:105C10001D460E9B0393731C0293B31C0446036141
:105C20000F46934631460222FEF7F8FA39462046DF
:105C3000FEF708FC0022711CA06A01F0BEFA314692
:105C4000A06A01F0DBF8A06A01F0B1FBD4F8108083
:105C500008F10103236100265E4514DB2046FEF7B0
:105C6000ECFAA06A01F0A6FB0299A06A01F0C6F85E
:105C700003992046FEF7E6FBA06A414605B0BDE861
:105C8000F04F01F0BBB82B46D4F810901A6801927F
:105C900009F101022261019A976804350136002F4B
:105CA0003FD15E4532D1A06A01F082F94FF0000A7F
:105CB0005746019B2046D968FEF7C4FBBAF1000F96
:105CC00016D00E21A06A01F0C5F83946A06A01F08D
:105CD00095F80E21A06A01F0BDF851462046FEF766
:105CE0007DFB20465146FEF799FB2046FEF7A5FABC
:105CF00001224146A06A01F060FA4946A06A01F01B
:105D00007DF80121A06A00F09FFFA5E720461D4A0B
:105D10001968FEF7A1FA204605B0BDE8F04FFEF77E
:105D20008CBA17F0030327D1397975293A4626D161
:105D3000D368BF684FEA131AA06A01F027F9394601
:105D40002046FEF77FFB0821A06A01F04DFA4A4683
:105D50000021A06A01F08BF9BAF1000FA3D05146DF
:105D60002046FEF73BFB27697A1C22613946032255
:105D70002046FEF753FA9CE74FF0000ADCE79A460C
:105D8000DAE700BFFC3803082DE9F34705699946B7
:105D90006B1C17460E460361032229460446DDE9C3
:105DA0000AA8FEF73BFAF7B90321A06A00F04CFFFE
:105DB00031462046FEF746FB6FF00201A06A00F074
:105DC00043FFA06A0E2101F045F82946A06A01F0C0
:105DD00015F820464146FEF735FB204602B0BDE8E7
:105DE000F047FEF72ABACDF800A04B463A463146B6
:105DF0002046FFF709FFE4E77FB5CD682B79772BC5
:105E000006460C4609D1AB680193002300938968CC
:105E10001A46FFF7B9FF04B070BD732B03AA4FF009
:105E2000760116D105F10800FDF782FE2B690246C6
:105E30003BB9EB680093039BA1683046FFF7E4FE93
:105E4000E9E79B680193EB680093A168039B3046E8
:105E5000DFE704F10C00FDF76BFE00230093024620
:105E6000039BE9E72DE9F74F044692469B46894696
:105E700029B9194603B0BDE8F04FFEF7E3BA05694A
:105E80002B1D036113686F1C05F10208EE1C002B2B
:105E900000F0CA8013F0030240F0C68019797A2915
:105EA00040F0C280996801920093FEF7CBFAA06A95
:105EB00001F06CF8A8212046FEF76AFADDE900320D
:105EC0002046D968FEF70AFB032229462046FEF742
:105ED000A5F9A06A032100F0B7FE5B460AF10402AF
:105EE00009F1FF312046FFF7BDFFA06A6FF0020104
:105EF00000F0AAFE0E21A06A00F0ACFFA06A01F03B
:105F000061F83946A06A01F0A7F82946A06A00F0B6
:105F100075FFA06A01F03AF80122A06A212100F081
:105F2000BBFEA06A082101F05FF942460021A06A89
:105F300001F09DF8A06A01F029F8A06A01F068F864
:105F4000A06A01F03FF80022A921A06A01F004F83C
:105F5000A06A01F05DF8A06A01F05AF8A06A01F0A9
:105F600015F800220A21A06A01F035F82546A06A3A
:105F700001F028F8A06A0E2100F06CFF002355F80C
:105F8000280F1A46032101F0DDF92846FEF7F0F943
:105F900032460021A06A01F06AF8A06A01F008F810
:105FA000A06A0E2100F056FF3146A06A01F054F8B5
:105FB000A06A022100F048FE4146A06A00F01EFFE0
:105FC000A06A01F025F8A06A01F022F83946A06A1B
:105FD00000F014FF0022A06AA92100F0BDFF0E21ED
:105FE000A06A00F037FFA06A00F0D0FFA06A00F0BE
:105FF000CDFF00231A460321A06A01F0A3F9284629
:10600000FEF7B6F9A06A00F0D3FFA06A4FF0FF31A7
:1060100000F01AFEA06A314600F0F0FE204603B000
:10602000BDE8F04FFEF709B919462046FEF70AFA17
:10603000A06A00F0ABFF2046A821FEF7A9F9A06AEC
:1060400000F0B6FF40E72DE9F04F8D682B79032B68
:1060500087B004460AD12946FEF7D4F9AA69138B02
:1060600043F00403138307B0BDE8F08F162B40F014
:106070008C800669EB684FEA1318331D0361E968E9
:10608000FEF7E0F92046AA21FEF782F941462046B4
:10609000FEF7A4F92769A3690293BA1CE38B019365
:1060A00022617B1CA28B6383194606F1010BE283FC
:1060B000A06A2783039300F0A1FE022259462046DE
:1060C000FEF7ACF841462046FEF774F92046AC21B5
:1060D000FEF75EF906F10209A96820460022FEF7E4
:1060E000FDF900224946A06A01F067F85946A06A06
:1060F00000F084FEA06A01F05AF9A06A00F046FFA1
:106100000122A06A40F2812100F0C6FD06F1030AD7
:10611000A06A082101F068F852460021A06A00F048
:10612000A6FFA06A00F044FF01223146A06A01F0F8
:1061300044F85146A06A00F061FE0121A06A00F017
:1061400083FD2046FEF779F8A06A01F033F949464D
:10615000A06A00F053FE29692046FEF773F9039BFD
:10616000A06A194600F078FF029BA361019BE383BC
:106170003146A06A00F042FE69692046FEF762F9E6
:106180003946A06A00F03AFE6DE705AA792105F1CB
:106190000800FDF7CDFCEB68059A01462046FFF7A5
:1061A00061FE60E738B5436A1B78072B04460A4650
:1061B00006D0022B04D0124ABDE83840FEF74CB896
:1061C00095684DB90E21A06A00F044FEA06A002136
:1061D000BDE8384001F0DAB8AB070CD12B79AE2B13
:1061E00009D12046A968FEF72DF904F12800BDE881
:1061F0003840FEF7BDB829462046FEF723F9E5E70B
:106200001A390308426A1278072AF8B5044604D0FE
:10621000174ABDE8F840FEF71FB88D6845B90E2152
:10622000806A00F017FEA06ABDE8F84001F096B859
:1062300015F003021AD12B791A2B17D10669EF68D2
:10624000731C0361B9683346FEF772FAA9682046E9
:10625000FEF7F8F8A06A01F081F83146A06A00F074
:10626000CDFDF9682046FEF7EDF8DCE72946F9E7B1
:1062700023380308896830B4054619B90A4630BC8A
:10628000FEF747BCCB688BB113F003020ED11C792B
:10629000932C01D18968F2E7942C01D11A46F9E7D1
:1062A000AB2C03D1062230BCFEF7B9BD0A46284606
:1062B0000021E4E7F8B5144BD3F8E46104460F4637
:1062C0000EBB05696B1C036101222B468968FEF732
:1062D0002FFA1F210122A06A00F0DEFCF96841B10B
:1062E0002046FEF7AFF8334632460121A06A01F09E
:1062F0001EF8A06A012101F03DF82946A06ABDE818
:10630000F84000F07BBDF8BDCC17002038B58C6894
:1063100005462CB92146A86ABDE8384001F02AB8E4
:10632000A3070BD123795D2B08D1A168FEF78AF86A
:10633000E1682846FEF786F80221ECE72146284668
:10634000FEF780F80121E6E72DE9F74F4379012BAD
:1063500004460D4608D10F79102F08D0436A1B78E8
:106360002BB9224AFDF778FF03B0BDE8F08F01AAF0
:106370006C2105F10800FDF7DBFBDFF87CB08046FF
:106380000026B045F0DD019B606A53F8261000221C
:106390000909FDF701FE102F8146027815D112F090
:1063A000FD0F05D05A4629462046FDF755FF0AE065
:1063B0004FF0020A80F800A04168606AFDF70DFE08
:1063C00008B180F800A00136DBE75AB9012202705B
:1063D0000146606AFDF707FE99F80030012BF2D103
:1063E000034AE0E7052AEED0024ADCE7A0370308BB
:1063F000E437030802380308C53703082DE9F04FD6
:1064000087B0814600AF0C4611B90121116013E03D
:1064100011F0030619D10B79672B06D1CB681B0944
:1064200013608C68002CF0D0012604F00F03022BBF
:106430000DD12109002EE9D00022D9F8000000F08A
:10644000ECFC1C37BD46BDE8F08F0026EDE716B921
:10645000A3681B09136063684FEA132804F108035B
:1064600008F1FF3AFB609B460025A84526DC0AF1AF
:10647000070323F00703ADEB030DC7F808D06D4603
:106480004FF0000BD84521DC5146B868FAF708FDFB
:1064900000220146D9F8000000F0BFFC002ED0D049
:1064A0000C340125A845CCDD54F8041BD9F80000B4
:1064B0000022090900F08FFD0135F3E75BF8040BBA
:1064C0000009FAF780FD01358244CEE7BBF1000FE9
:1064D00003D04FF02E0305F8013BFB6853F8040B83
:1064E000FB6007F114010009FAF777FD7B697B6017
:1064F0001A460146284614F031FD7B680BF1010B6A
:106500001D44BFE72DE9F3418C6804F00F030E2B07
:1065100005460F4606D0002C40D0A3073ED1237974
:10652000642B2DD10094002401AA64216846FDF754
:10653000FFFA0023019A194640F2CE4C834225DB34
:10654000FA682E4640F23E339A4256F8280F27D179
:1065500000F09EFC0521A86A00F0E0FC0022012169
:10656000A86A00F064FE01AA21463046FFF746FF04
:1065700002220021A86A00F050FC02B0BDE8F081C0
:10658000612B0BD1A3680093E468CDE752F8236038
:1065900066450CBF013103310133CFE70021CFE75E
:1065A00000F076FC07F10C006A466921FDF7C0FA9D
:1065B000002780464745A86A0FDB0022414600F0CD
:1065C00036FE214601AA3046FFF718FF0024444555
:1065D000A86A0BDB00F0ECFCCFE7009B53F82730F8
:1065E0009968090900F09AFC0137E3E7009B53F82A
:1065F0002470BE6836093146012200F00EFCF968AD
:1066000029B931462846FDF7E9FE0134DFE70909DB
:10661000F8E773B5044625460E46806A002100F06F
:1066200037FC55F8280F0E2100F014FC01AA314662
:106630002846FFF7E3FE01992046FDF7CFFE02B0A2
:1066400070BD2DE9F04F8FB0144606460F46282244
:10665000002104A81D4614F0C5FC4FF0FF33099338
:1066600032688DF810502346002103A80397FDF7E8
:1066700011FD044600F017FADDF82C900D90054648
:106680004FF00008B9F1000F01D0059FEFB10B9B4F
:1066900013B1059A002A35D04146284600F006FA83
:1066A0000B9F059B002F00F0EC80002B00F0D380A7
:1066B0000C9B06A8D968FDF7C6FD0C9B069ADB8AE1
:1066C0000399059804F068FFDEE00122494603A81B
:1066D000FEF700F9B9F82A309F4206D3079BD9F894
:1066E0000890984538BF9846CCE7D9F82C3003EB92
:1066F000C70113F83730012B02D14846FDF773FC70
:106700000137E7E7198BB3F82AC0C90713D50CF195
:10671000FF314F1C0FD0DF6A07EBC107787810F00C
:10672000020F22D03AB1D2E9009E97E8030082E836
:106730000300C7E9009E4FF000025A840022624520
:1067400019DB0022624539DBD3F80490B9F1000F60
:1067500009D0B9F82A20019200210A460198814205
:106760003CDB002A75D19B6892E712B9012808BF6B
:106770003A460139CDE71978D86A4FEAC20E0129A5
:1067800000EB0E0704D179680A290ED10132D6E751
:1067900010F8321009D9012907D14FF0020100F891
:1067A0000E107978C80704D4F0E710F80E1003290A
:1067B000F7D1598C481C58847980E7E7D96A01EBF6
:1067C000C20011F83210042906D14178C9075FBF11
:1067D000598C4180013159840132B3E7D9F82C003A
:1067E00000EBC10B10F831000438012817D84FF026
:1067F000000E12E0D86A00EBCE0A10F83E00052821
:1068000009D1DAF804000746DBF80400B84204BFF7
:10681000AAF8022001320EF1010EE645EADB013151
:106820009CE7DF6A07EBC10017F83170052F02D132
:106830004778FF0702D547881744478001316145F3
:10684000EFDB998B92B211449983598C0A445A8494
:1068500089E70021F3E70222394603A80D95FEF7E8
:1068600039F8059B5BB90322394603A8FEF732F8D5
:10687000059B23B90422394603A8FEF72BF8BF680D
:106880000FE7002B7FF414AF284600F017F93046CD
:10689000FDF736FB2569A6682046FDF763FB344605
:1068A000002EF8D1059808B1F9F798FC3246314628
:1068B000284601F0CFF90FB0BDE8F08F10B50446BF
:1068C0000122FDF769FB2378012B04D90378012B02
:1068D00004BF0323037010BD70B505460E46104675
:1068E00019461C46FDF748FB0378012B06D1736857
:1068F000002221462846BDE870401847022B02D1ED
:1069000073680122F5E736684288032B2146284642
:10691000B4460CBF00230123BDE87040604737B583
:106920000DF105040B46214602F07F05D20904F85B
:10693000015DF9D1091B984701AD01462346AB42E1
:1069400005D19DF804201B1BC25403B030BD13F8C1
:10695000012B62F07F0201F8012BF0E70346026A87
:106960004079032888BF186B114494BF18468018DB
:106970001962704710B50C460121FFF7EFFF047054
:1069800010BD0346806A5A79032A88BF5A6A0144B7
:1069900084BF1218186B996294BF1846801870470C
:1069A00010B50C460121FFF7ECFF047010BD00008C
:1069B00038B504461546FFF7F3FF2A46204602493C
:1069C000BDE83840FFF7ABBF8369000830B4C46846
:1069D000A38BE48B2344C48E1C44038F5D1C23448F
:1069E00044790587042C04BFC46B44F823201A465D
:1069F00030BCFFF7DDBF2833D9B2FFF7D9BF38B5B8
:106A00000D4603211446FFF7BCFF4470240A0570AD
:106A1000847038BD38B54379032B81BF846AC3695C
:106A2000C4F1FF2404F57F0484BF53F82230FD3401
:106A30000D464FF003018CBFE4180024FFF7A1FFBF
:106A40004470240A0570847038BD38B54379032B2F
:106A500081BF846AC369C4F5FF4453F8223088BFFC
:106A60007D340D464FF003018CBFE4180024FFF77E
:106A700088FF447024120570847038BDC3689A8BF7
:106A8000DB8B1344828E10B4541C1A4443798486E1
:106A9000042B08BFC36B5DF8044B08BF43F82210FA
:106AA0001721FFF785BF4020F9F7D1BB10B5044689
:106AB00081618800F9F7B2FBE06110BD10B50446B2
:106AC000C069F9F7D3FB2046BDE81040F9F7CEBB0B
:106AD000F8B50446002315466171C0E9032301227D
:106AE000836083714261836203626A8CAB8CD218CB
:106AF00008BF01220F463A49FFF711FFEA8C3849D7
:106B00002046FFF70CFFE3682046197EFFF732FFAF
:106B1000E3682046197FFFF72DFFE3682046997F41
:106B2000FFF728FFE368204693F82010FFF722FFC5
:106B3000042F2BD1D4E908322949D21A2046FFF775
:106B4000EEFE02212046EE8AFFF708FF0670360AA5
:106B5000467002212046AE8AFFF700FF0670360A13
:106B6000467000266B8DB34215DCFF212046FFF7EF
:106B700017FF0023042FA386238730D1A88BEA8B2D
:106B8000104498422BD06E8D002124E00221204633
:106B9000FFF7E4FED5E7EB6A03EBC60213F83630E5
:106BA000042B03D191782046FFF7FAFE0136D9E78E
:106BB000EA6A02EBC1025778FF070BD557889F425C
:106BC00008D15268E16B920042F0020241F82320A2
:106BD0000133D6E701318E42EADC0522F2E7F8BD47
:106BE0005D6900084379012B10B504461BD00021D4
:106BF000FFF7C0FEA38EE3866379032B14D1A36A4B
:106C0000206A6062E3621844F9F721FBE3682063BD
:106C1000988BDB8B1844A38E1844238F1844800074
:106C2000F9F715FBE06310BD042BFCD1E068E26BC3
:106C3000038B216B0069BDE8104000F0FDBF807937
:106C4000003018BF012070474379012B09D08368B9
:106C50001944C36881609A8C9142C8BF998400230B
:106C60008371704770B501211D4606461446FFF733
:106C7000EBFF45B90F2C06D8A4F15001C9B2BDE80D
:106C80007040FFF78DBE05F1190122463046C9B2AA
:106C9000BDE87040FFF78CBE70B514460E4601216A
:106CA000FFF7D2FF04F11B013246C9B2BDE87040C4
:106CB000FFF7A5BE70B54FF0FF311D4606461446DE
:106CC000FFF7C2FF45B90F2C06D8A4F14001C9B2A5
:106CD000BDE87040FFF764BE05F122012246304650
:106CE000C9B2BDE87040FFF763BE70B514460E46EA
:106CF0004FF0FF31FFF7A8FF04F124013246C9B27B
:106D0000BDE87040FFF77BBE70B514460E4600210B
:106D1000FFF79AFF04F12A013246C9B2BDE870407C
:106D2000FFF76DBEF8B5DDE90646C91AA1EB4401CF
:106D30000746D5B243EA042456B10239FFF784FF6F
:106D4000691C2246C9B23846BDE8F840FFF730BE9C
:106D5000FFF77AFF22462946F5E70000264BD3F8D5
:106D6000E431022B2DE9F047064689460ED84569E5
:106D70008D420BD2846A03694D1BE41A40F2FF77FF
:106D800055EA040304D1B36AC6E90439BDE8F087C3
:106D9000062D01D90F2C1AD91F2CA24628BF4FF05F
:106DA0001F0A544510D8032DA84628BF4FF00308EA
:106DB00001213046FFF7D2FD4AEA48130370A4EBE5
:106DC0000A04A5EB0805DBE74FF00008F0E7BD4239
:106DD000A8464FF0020128BFB8463046FFF7BEFD77
:106DE0004FEA181303F07003234363F07F0303702B
:106DF00080F80180A246E2E7CC17002038B50D46A6
:106E00000021FFF721FF4379012B05D0032B9EBF03
:106E1000C369826A43F8252038BD012A70B505464A
:106E20000E4614460BD11146FFF70EFF04F1680120
:106E300032462846C9B2BDE87040FFF7E0BD4FF0CA
:106E4000FF31FFF701FF022CF0D16A21BDE870404D
:106E5000FFF7A6BD38B50D4601210446FFF7F4FE45
:106E60000E2D09D00F2D09D00D2D09D1102120464E
:106E7000BDE83840FFF794BD1121F8E71221F6E78D
:106E80000249BDE83840FFF7F9BD00BF105A0308BA
:106E900073B50C4601210646FFF7D6FE04F1100338
:106EA0003F2B06D8A4F18001C9B2FFF779FD02B0EB
:106EB00070BD1421FFF774FD0DF105031946E2B210
:106EC00002F07F00E41103F8010C601C012803F1BB
:106ED000FF3516D8013402F0400214D11AB97F22CE
:106EE00005F8012C9D1E491B3046FFF74AFD01ACF9
:106EF00001462B46A3420AD15D1B9DF80420425552
:106F0000D5E72B46DBE7002AEDD00022E8E713F8AF
:106F1000012B62F07F0201F8012BEBE738B50D463B
:106F20000121FFF791FE2A461621BDE83840FFF700
:106F300066BD38B50D460121FFF786FE2946BDE83E
:106F40003840FFF79BBD10B50121FFF77DFE1821EA
:106F5000BDE81040FFF724BD70B50E465100144641
:106F6000C1F10101FFF770FE002C324614BF1F2152
:106F70001E21BDE87040FFF742BD10B50121FFF7AB
:106F800063FE2021BDE81040FFF70ABD10B50121C6
:106F9000FFF75AFE3021BDE81040FFF701BD10B5E4
:106FA0000221FFF751FE3121BDE81040FFF7F8BC88
:106FB00010B54FF0FF31FFF747FE3221BDE810401A
:106FC000FFF7EEBC10B50021FFF73EFE3321BDE810
:106FD0001040FFF7E5BC38B504460D464AB91146E6
:106FE000FFF732FE2A461D212046BDE83840FFF754
:106FF00006BD022A04D1FFF7A6FF2046FFF7E2FFF5
:107000006FF001012046FFF71FFE2A462621EBE71D
:1070100010B50021FFF718FE3421BDE81040FFF73E
:10702000BFBC10B5044649B94FF0FF31FFF70CFE65
:1070300021212046BDE81040FFF7B2BC022904D14F
:10704000FFF781FF2046FFF7E3FF6FF002012046C4
:10705000FFF7FAFD2721ECE738B50D460021FFF7D1
:10706000F3FD2A463521BDE83840FFF7EEBC70B588
:1070700015460E464FF0FF310446FFF7E5FD2A4660
:107080002EB136212046BDE87040FFF7DEBC372127
:10709000F8E770B515460E464FF0FF310446FFF78E
:1070A000D3FD2A462EB138212046BDE87040FFF7B7
:1070B000CCBC3921F8E7F8B505460C4621F4004769
:1070C0001646D2B91146FFF7BFFD23040ED5322173
:1070D000FFF766FC32212846FFF762FC3221284682
:1070E000FFF75EFC32212846FFF75AFC3A46284655
:1070F0003521BDE8F840FFF7A8BC3A464621FFF726
:10710000A4FC210A21F07F0131432846C9B2BDE821
:10711000F840FFF745BC70B505460E4614465AB90F
:107120000221FFF791FD04F13D0132462846C9B224
:10713000BDE87040FFF76EBC0021F2E738B50446A9
:107140000D460E21FFF786FE20462946FFF756FE24
:107150000221FFF779FD3E21FFF722FC20466FF068
:107160000301BDE83840FFF76FBD10B54FF0FF31A8
:10717000FFF76AFD4121BDE81040FFF711BC38B5AB
:107180000D1E14BF03210021FFF75EFD002D14BF6B
:1071900047214221BDE83840FFF702BC38B50D4613
:1071A0000121FFF751FD2A464321BDE83840FFF792
:1071B00031BC6FF00301FFF747BD38B50D46002124
:1071C000FFF742FD2A464421BDE83840FFF722BCC4
:1071D00038B50C460021FFF737FDA4F13001C9B2E4
:1071E000BDE83840FFF7DCBB242970B505460C46E6
:1071F00017D0252918D1012607244FF0FF31284642
:10720000FFF722FDA4F12901C9B2FFF7C9FB6EB156
:1072100000212846FFF718FDD321BDE87040FFF795
:10722000BFBB01260624E8E70026E6E770BD70B57F
:10723000032A0D46144614BFC5F101010121FFF7D1
:1072400003FD04F150012A46C9B2BDE87040FFF7C2
:10725000AFBB10B56FF00101FFF7F6FC5421BDE89C
:107260001040FFF79DBB0329F8B5064617460FD01F
:10727000042910D000240225E14330463C44FFF7A6
:10728000E3FC45EA84025721BDE8F840FFF790BBD4
:1072900000242546F0E70124FBE738B50C46013908
:1072A000FFF7D2FC22465921BDE83840FFF780BBEA
:1072B00070B50C4615461144FFF7C6FC44EA05229A
:1072C0005A21BDE87040FFF773BB38B5134304463D
:1072D0000D4609D10121FFF7B7FC2A69602120463C
:1072E000BDE83840FFF772BB4FF0FF31FFF7ACFC51
:1072F0002A696121F3E770B50E4604990B430446F1
:10730000D5B20ED1C2F10101FFF79EFC32696221B4
:107310002046FFF75BFB29462046BDE87040FFF79B
:107320003FBBD143FFF790FC32696321F0E707B51B
:10733000CDE900230B4664220021FFF7F3FC03B0E4
:107340005DF804FB07B5CDE900230B4666224FF03C
:10735000FF31FFF7E7FC03B05DF804FB10B54FF019
:10736000FF31FFF771FC012383715B21BDE8104001
:10737000FFF716BB38B50C464942FFF765FC022102
:10738000FFF7FFFA5C230370447038BD38B50C4634
:107390004942FFF759FCC268138B04F15D0143F0C9
:1073A00004031383C9B2BDE83840FFF7F9BA0421DA
:1073B000FFF74ABC6FF00201FFF746BC2DE9F74F1B
:1073C000062901909DF8305012D8012907D93F2392
:1073D00000F8013B0190019A0023137001E000299D
:1073E000F9D1012994BF0020012003B0BDE8F08F3E
:1073F00010EE104A002C019C25DAB4EE400AF1EEA2
:1074000010FA20D62D2504F8015BB1EE400A9FED5D
:10741000C27AF0EEC07AF4EE477A02F0200EF1EE76
:1074200010FA5FFA8EF513DD85F04903237085F0BD
:107430004E0385F046056370E11CA57000230B70B8
:10744000019BC81AD1E7002DE1D004F8015BDEE70B
:10745000B4EE400AF1EE10FA08D745F04E0385F07D
:10746000410523706570E11CA370E7E7002B42F033
:107470002002B8BF0623672A02D1002B08BF0123D0
:107480000198251A10EE100A491B051E01F1FF3C58
:1074900048D1662A38D15D1C6545A8BFCB1E0027A0
:1074A0005D1C6621BC463E4623EAE373652940F035
:1074B00029815D1C4FF000084FF02E0BB2EE047ACC
:1074C000454540F38180FDEEC07A04F1010A17EED4
:1074D000900A0028A6BF00F130095FFA89F94FF041
:1074E0003009E04584F8009004D11BB104F1020A90
:1074F00084F801B0F8EEE77A08F1010830EE670A87
:10750000544620EE070ADBE75D1D6545A8BFCB1F8B
:10751000652A11464FF0000540F0EA802B27AC4663
:107520002E46C1E7B5F17E5F80F08E80DFED7B7A7D
:10753000DFF8F081DFF8F0A1B4EEE70AF1EE10FA1F
:107540004FF00005ACBF4FF031094FF03009202754
:107550002E46B8EC017AB4EEC07AF1EE10FAC4BF50
:107560000AEB050B9BED007A05F10405C4BFF61983
:1075700020EE070A182D4FEA6707EAD110EE100A2D
:10758000B0F17E5F44D2B4EEE70AF1EE10FA3ADBD6
:10759000002E14BF2D272B27B7EE000A662A03D032
:1075A000672A47D1042E45DC672A04BF06F1FF3560
:1075B0005B195D1C6545A8BFCB1E84F800904BBBD2
:1075C00001341D4666211F46662A40F0AF80AE4258
:1075D00040F3068197B10A2196FBF1F393FBF1F298
:1075E00001FB136601FB12324EF0450E303230368D
:1075F00084F800E06770A270E67004340023237002
:10760000019BE01AF1E6F2EE047A20EE270A013639
:107610002D27C3E72E2161701D4602343021013E23
:1076200068D01DB92F464FF0FF3C46E004F8011B1F
:10763000013DF4E78D1F9D4260DC672A5CD0CB1FC3
:1076400011460025AC462FE70025DFF8DC80DFF887
:10765000D49020272E46F8EC017AF4EEC07AF1EEB1
:1076600010FA9CBF09EB050ADAED007A05F1040572
:107670009CBFF61920EE270A182D4FEA6707EAD1BA
:10768000FDEEC07A17EE905A092DC2BFDFED247AC5
:10769000013620EE270A662A11D1664512DA9919B9
:1076A0000131614505DBACEB0603023B591C08BF09
:1076B0000023F5180135B44600276621F4E6652A53
:1076C00040F096808D1F9D4200DCCB1F00252B27AC
:1076D000AC466521E8E61D1D654500DB8B1F9E421B
:1076E00003DB672100252B27ACE7711C5B1AE0E761
:1076F0002F4614E7374696E72B46A1E700251146AB
:10770000AC46D3E667297FF4D5AE13B901252B46E5
:10771000D0E61D46CEE600BFFFFF7F7FF8FF7F3F2C
:10772000CDCCCC3D4C39030864390308F1EE047A22
:10773000B4EEE70AF1EE10FA2BDB04F1FF3C4FF058
:1077400030099CF800502E2DE0460CF1FF3CF8D09B
:10775000A5F1300ABAF1090F2CD908F1010898F8FF
:107760000050302D15D198F801C0BCF12E0F30D14A
:1077700066292ED02D2F88F800C088F8015026D118
:10778000013E08BF2B272146884524D3312188F8A4
:107790000010672A7FF41EAF002B3FF41BAF234677
:1077A0001C46013B14F8012C302AF9D02E2A08BFC0
:1077B0001C460FE7392D03D0013588F80050CEE77D
:1077C00001988CF801904045BBD18046C7E701364F
:1077D000D9E70134D7E711F8015C01F80159D3E783
:1077E000F1EE047AB4EEE70AF1EE10FAA5DAF1E66A
:1077F000672A3FF470AF114674E700BF012910B546
:10780000146828D934F01001037815D1302B1ED11B
:10781000417841F02001782900F1020303D11021C1
:107820001160181A10BDCCB96F2901D10821F7E7F2
:10783000622911D10221F3E7082C11D1302B0DD18F
:10784000437843F020036F2B08D1831CE9E7082C11
:1078500004D0022C02D00CB90A2313600346E0E7DF
:10786000022CFBD1302BF9D1437843F02003622B5B
:10787000EAE7000008B5044631B1054B03608A6BA6
:107880000968002303F088FE2046F8F7A7FC00BF34
:10789000204B03082DE9FF471F460192461812B1FD
:1078A000023A222A34D80546B5422C4639D215F878
:1078B000010BFAF7DDF880460028F5D123782B2B51
:1078C00029D12C46311B204601AAFFF797FF251826
:1078D000A9460024B1454B4626D3B8F1000F00D08D
:1078E0006442640044F00104AB4209D01D46B54235
:1078F0002B4641D218780135FAF7BAF80028F6D1AC
:107900002049019A204803F0ADFD3946FFF7B2FF48
:107910001E4801F073FA2D2B04BF2C464FF00108CE
:10792000D0E74FF00008CDE719F8012BA2F1300A9B
:10793000BAF1090F09D95F2ACCD042F02002A2F196
:1079400061011929C9D8A2F1570A01995145C4D931
:1079500020460DF0BFFD28B9019B03FB04A494EA67
:107960004403B7D5019B03954246711B03A804F05D
:1079700091FE039B0446B7E7C2D1204604B0BDE8A0
:10798000F08700BFD6390308104C0308B339030849
:107990002DE9F04F2DED028B83B09146DDF8388054
:1079A000019346180446B442254680F02281287887
:1079B000FAF75EF8013407460028F4D12B782B2B18
:1079C00009D125468246B4420CD30023DFED8C8AD0
:1079D0001F4619467EE02D2B03D125464FF0010AA4
:1079E000F1E782462B7843F02003692B32D1AB1CA0
:1079F0009E4240F2F6806B7843F020036E2B40F0FD
:107A0000F080AB7843F02003662B40F0EA80EB1D5A
:107A10009E4205F103041AD9EB7843F02003692B49
:107A200015D12B7943F020036E2B10D16B7943F0E5
:107A30002003692B0BD1AB7943F02003742B06D1C3
:107A4000EB7943F02003792B01D105F108049FED78
:107A50006D8A14E06E2B55D1AB1C9E4240F2C18062
:107A60006B7843F02003612B40F0BB80AB7843F090
:107A700020036E2B40F0B5809FED638AEC1CBAF1B9
:107A8000000F01D0B1EE488AA54209D0B442234686
:107A900080F0928018780134F9F7EAFF0028F5D1D8
:107AA0005A498FE002202246144614F801EBAEF149
:107AB000300BBBF1090F46D8022830D1544A91420D
:107AC00002DC0A2202FB01B1B442ECD3BCF1000F8C
:107AD00000D049420B4413F1250FBEBFDFED4D7AB4
:107AE000253368EEA78A13F1090F5AD35B4200EEE3
:107AF000903AB2EE040AF8EEE00A16F0E5FC88EEE1
:107B0000808ABCE74FF0000C2A4663466146604617
:107B1000DFED3B8A9FED407AF2EE046AC4E7F4EEB3
:107B2000C78AF1EE10FA0BD507EE90BAF8EEE77AB5
:107B30000128E8EEA67AF0EE678A2ED1013BC3E772
:107B400028B90133C0E720B9BEF12E0F03D10120BF
:107B5000BAE7022814D04EF0200BBBF1650F0FD10D
:107B6000A64249D950782B2804D1941CB44297D00E
:107B70000220A9E72D2895D1941C4FF0010CF5E7C0
:107B8000B9F1000F04D04EF0200BBBF16A0F06D004
:107B9000BEF15F0F98D0144698E7002094E74F4657
:107BA00094E707EE903AB2EE040AF8EEE70A16F010
:107BB0008BFC28EE808A62E77FF472AF0FB9019BDD
:107BC00033B11649164803F01FFC4146FFF752FE39
:107BD000B0EE480A03B0BDEC028BBDE8F04F03F0F5
:107BE000FBBDBAF1000F3FF45BAF2C469FED048A5A
:107BF00048E74FF0000AE8E63FF452AF66E700BFFF
:107C0000000000000000807F0000C07F9939030859
:107C100064666606EA1C0802EC78AD607C390308ED
:107C2000104C030808B50C20F8F711FB027801216D
:107C300061F30202027008BD30B50478022565F3D5
:107C400002040470048863F3C9040480C0E90112CB
:107C500030BD000010B5044608461146D4E90123A2
:107C600004F056F823889B0644BF014B036010BD07
:107C70000050030838B5154611F480720C4614BF45
:107C8000D5E900121146FFF7E5FF620902F008028C
:107C90002A44E1B2BDE8384002F05ABED0E9000300
:107CA000184770B505460C468E18B44200D170BD19
:107CB000D5E90003984704F8010BF6E770B50646CE
:107CC0000C460025D6E90003984724B123681870B4
:107CD00023680133236000F07F0343EAC5150306E0
:107CE000F0D4284670BDF8B50C4600210746FFF7D2
:107CF000E5FF20B93846BDE8F840FFF7CFBFC3071E
:107D00004FEA500528D523885A1B02F01F0204EBC6
:107D1000420193424E8835460ED2911C6FF001030A
:107D20004900C8185A433E322144204413F042F916
:107D30006388A4F8403000222388501C40009A1A1F
:107D4000811C21442044520013F034F9238804EBB1
:107D5000430466802846F8BD2846F8F75FFA2A46AD
:107D6000064601463846FFF79CFF29463046F9F79C
:107D700097F805463046F8F779FA2388013303F07F
:107D80001F03238004EB43046580E3E72DE9F04FF4
:107D90000E468DB000210446FFF790FF10F0030F50
:107DA00083464FEA900A02D0814801F027F85046F6
:107DB000F8F734FA07A9079081462046FFF77EFFBF
:107DC00007A92046FFF77AFF042207992046FFF70C
:107DD00068FF079B5A1C07921A46204612F8021B9E
:107DE0000792DA1C5D7807929A780491043306A909
:107DF000CDE906330592FFF761FFDDE906128A1A25
:107E00000746821A2046FFF74CFF079B1F4407973F
:107E10002046FFF743FF079BC0B25A1CFF2807927A
:107E20001870F5D1079FCA44BA4542D81BF0020F1B
:107E300012D131462046FFF756FF3146074620460D
:107E4000FFF751FF069B1F70069B3F0A5F70069B62
:107E50009870069B000AD87000212046FFF72EFF7D
:107E6000002183462046FFF729FF059B03901D4410
:107E7000584428448000F8F7D1F9824600EB850584
:107E80000746AF4244D100275F454BD105EB87053C
:107E90000027039B9F4240F08280FFF7C3FE049BB4
:107EA000524649460446FFF7C7FE20460DB0BDE8DE
:107EB000F08F2046FFF7F2FE0022387008A93846FE
:107EC0000DF00CF9089A012802F1FF3207F10108C0
:107ED000089213D131462046FFF705FF7870000A5B
:107EE000B870089A023A07F103080892089A4146C6
:107EF0002046FFF7D6FE089F474495E70228F5D1B4
:107F00002046FFF7CBFE030608F8010BF8D4EDE797
:107F100031462046FFF7E7FE800040F0020047F8B8
:107F2000040BAEE72046FFF7B9FE5FFA80F8B8F120
:107F3000650F32D000212046FFF7C0FE01460590B4
:107F400008A8F9F70AF9059A0A992046FFF7A9FE49
:107F5000B8F1730F0AD0B8F1620F09D1154808A91A
:107F600006F0DAFA45F8270001378DE71248F6E700
:107F7000B8F1690FDDE909104FF0000303D10A22BF
:107F8000FFF788FCEEE7A8F1630CDCF10002009338
:107F900042EB0C02FFF7FCFCE4E70848E2E731465D
:107FA0002046FFF7F3FE45F82700013771E700BFD1
:107FB000FE390308645E030840610308105A030891
:107FC00030B593B0042269460446FFF76AFE9DF877
:107FD00000304D2B02D0154800F010FF9DF8013005
:107FE000042BF8D19DF8023003F00303022BF2D1E9
:107FF0009DF803301F2BEED800212046FFF75EFED0
:108000002028E8D89DF802309B0801D00848E3E713
:1080100001A92046ADF80430FFF7B8FEA368054675
:1080200020689847284613B030BD00BFFE390308CA
:10803000153A03081FB5014601A812F06DF901A811
:10804000FFF7BEFF05B05DF804FB0000F8B51F4C5C
:108050000025F8F7E7FE0127A4F8EE51E564A4F83F
:10806000EC7103F069F91A4BC4F8E45104F190067D
:10807000C4E90B3504F13C00164BA363032165638F
:1080800002F09CFF3946304602F098FF5E215622EE
:10809000304603F022F8104B1A681B6852685B6880
:1080A0009660DE60C4F8D051C4F8C050C4E9705581
:1080B000C4E9725504F5F87420461BF015FC3946E6
:1080C0002046BDE8F8401BF013BC00BFCC170020D1
:1080D000C8480308046403086C1E002038B5144B1C
:1080E0001B685B6884000546D86844F002040022DF
:1080F0002146043001F02CFA48B90E4BD3F8C030B9
:108100003BB102462146181D01F022FA08B1406831
:1081100038BD00222146084801F01AFA0028F6D19D
:108120002A460649064803F09DF9F8F757F800BFBC
:108130006C1E0020CC170020A46B03084E3B0308E4
:108140007C4903080E4B1A6819685268496892689E
:10815000C968914210B504460AD01B685B6881006B
:108160009868002241F00201043001F0F1F920B9D1
:108170002046BDE81040FFF7B1BF406810BD00BF0A
:108180006C1E002008B5084BD3F8C00008B907489A
:1081900008BD002240F2BA21043001F0D9F90028CC
:1081A000F5D04068F4E700BFCC170020BC69030895
:1081B000044B1B685B6880000A4640F00201986827
:1081C00002F08BBF6C1E0020044B1B685B688100B3
:1081D00041F00201986802F08EBF00BF6C1E0020C3
:1081E000044B1B685B6880000A4640F00201D868B7
:1081F00002F073BF6C1E0020044B1B685B6881009B
:1082000041F00201D86802F076BF00BF6C1E00206A
:10821000032837B505460C4607D1084601F0ECFDAA
:1082200000B33D4C204603B030BDCB072ED54B10DC
:10823000082829D801A252F820F000BF25820008A2
:108240006D82000889820008898200086182000826
:1082500089820008258200086982000825820008BA
:10826000002BDED02D4CDDE7002BDBDAB3F1404FE5
:1082700005D14FF0804004F081F90446D2E75C421A
:10828000640044F00104CDE7DC43F9E7062820D17F
:1082900001F00303022B0BD0DBB90B689A69204B6A
:1082A0009A4216D1486840B98B680193C8680CE0BF
:1082B0008C082046F8F782FE18B1400040F0010417
:1082C000B0E701A92046F8F788FE0199F8F79AFD72
:1082D000F3E7204601F056FB43695BB9082D0FD147
:1082E000204601F05FFB0F4902460F4803F0BAF841
:1082F000F7F774FF2146284698470028BDD1EDE7DF
:108300000A4B20465D5D01F04DFB2A4603460849B5
:10831000054803F0A7F8EBE7F0410308F84103082C
:10832000BDEF0008203C0308984B0308A86603082B
:10833000383C03082DE9F04104460E46174698469E
:1083400001F020FB05693DB143463A4631462046DF
:10835000AC46BDE8F0416047204601F023FB0349ED
:108360000246034803F07EF8F7F738FFE43A0308C3
:10837000984B030800231A461946FFF7DBBF07B5E1
:108380000022019101AB0121FFF7D4FF03B05DF89A
:1083900004FB30B454680034154618BF01246FF054
:1083A000030303FB042308330A462118286830BC62
:1083B000FFF7C0BF2DE9F0411D46930707468846E9
:1083C000164615D11468204B9C4203D153682B608C
:1083D000BDE8F0811D4B9C4207D110B101F0D2FAEB
:1083E00080467368C5E90038F2E7194B9C4201D119
:1083F0002E60EDE7E38840F21E32934207D040F250
:10840000CE22934203D040F222329342F0D1BFB940
:10841000104B9C420BD0104B9C4208D00F4B9C42FF
:1084200005D00F4B9C4202D00E4B9C4208D10C2031
:10843000F7F7F4FE0C4B8660C0E900382860C7E708
:10844000C5E90067C4E700BFF4650308B865030821
:108450006C660308644D0308A04D0308DC4D030857
:10846000184E0308544E0308E43B030800232DE98B
:10847000F041C2E900330D460746144601F082FA86
:108480000A2D064602D12060BDE8F081192D05D1E4
:10849000836A1BB10F4BC4E90037F5E7F3692BB1D1
:1084A000224629463846BDE8F0411847B06B0028FF
:1084B000EAD0A9001A4641F00201043001F048F860
:1084C0000028E1D02346426831463846BDE8F041F5
:1084D000FFF770BFCC6A030870B5164604460D4618
:1084E000FFF7C4FF3368A3B9A3070BD12268094B78
:1084F0009A4207D1E28808492B46084802F0B2FFA9
:10850000F7F76CFE204601F04DFA2B46024604496F
:10851000F3E770BD6C660308663B0308AC460308CE
:108520008D3B030807B56A46FFF7D6FFDDE900017A
:1085300011B903B05DF804FB02F0A4F9F9E70000FB
:10854000F0B58DB0054668460E4617461C46F7F74F
:1085500033FE40B93A4631462846FFF787FFF7F722
:1085600021FE0DB0F0BD002CFBD1019B0449186821
:1085700008F00EFF0028F4D10198F7F72FFE00BF96
:10858000AC46030873B505460C46164601F0FAF9E9
:10859000C36943B10422CDE9002621466A46284634
:1085A0009847009B53B1284601F0FCF92346024648
:1085B0000349044802F056FFF7F710FE02B070BD01
:1085C0008D3B0308AC46030873B504460D4601F025
:1085D000D9F9154B426A9A42064623D01DB910209C
:1085E000F7F71CFE0546736A83B96A460F212046D9
:1085F000FFF73CFF009B83B9204601F0D3F90B49FC
:1086000002460B4802F02EFFF7F7E8FD2946204608
:1086100098470028E9D002B070BD2946684603F0AB
:10862000F5FCF8E72046F6E7D99E0008FF3A030874
:10863000984B030837B5044601F0A4F9856A1DB1CB
:108640002046A84703B030BD6A4619212046FFF7EF
:108650000DFF009B2BB16A4629462846FFF799FE7D
:10866000F0E7204601F09EF903490246034802F074
:10867000F9FEF7F7B3FD00BF303B0308984B030842
:1086800030B505468FB000F071FE284601F07AF94A
:10869000846A2CB12846A047044620460FB030BD5E
:1086A0006A4619212846FFF7E1FE009BABB102A8FC
:1086B000F7F782FD014630B96A46FFF76AFE0446C5
:1086C000F7F770FDE9E7039B0849186808F060FEBA
:1086D0000028E2D10398F7F781FD284601F062F9FE
:1086E00003490246034802F0BDFEF4E7E44A0308EA
:1086F000303B0308984B03082DE9F04F8BB013680B
:10870000029300284ED102F104090446C1F3072365
:108710005FFA81F800935B0008EB0302019359F8BC
:1087200022A009EB82025768002F3FD017F0030008
:108730003CD13968804A914202D1384602F0CAFCE5
:10874000009B1D186D004FEA880BBAF1000F2FD166
:1087500008F101000544A800F7F760FD06460CB1DA
:108760000460012406EB84005A46494612F0F6FBE9
:108770004444009B09EB0B01DA0006EB840012F085
:10878000EDFB019B23449846002F00F0868017F0F4
:10879000030340F092803968674A914240F08D802F
:1087A0001D4677E002F108095468AFE70020C7E7EB
:1087B0001AF0030F2AD1DAF8002060498A4202D069
:1087C0005F498A4222D106AA05A9504601F072FAF1
:1087D000059B013343441D44A800F7F71FFD0646DF
:1087E0000CB1046001245A46494606EB840012F09D
:1087F000B5FB059A069908EB0400920006EB800091
:1088000012F0ACFB059B43441C44B2E708F10400A2
:108810000544A800F7F702FD06460CB104600124E8
:108820005A46494606EB840012F098FB06A95046CA
:10883000FFF7CAFE444480464046FFF721FF034647
:10884000002896D0A54207D8E90030460393F7F7F1
:1088500000FD039B06466D0046F824300134EBE72B
:10886000FB6853F835004FEAC50990B1042810D0D1
:1088700000F00303022B01D007F08CFA46F8280021
:10888000FA684FEA88034A44334452685A6008F150
:1088900002080135BB689D42E2D3A8EB04022146E1
:1088A000334652080298FFF745FD04463046F7F775
:1088B000DDFC20460BB0BDE8F08F06AA6A213846E1
:1088C000FFF70AFE002106AA0846FFF762FD002115
:1088D000FFF77AFE82465046FFF7D2FE8146002817
:1088E000DBD008F101039D4208D86D00042D38BF8C
:1088F00004253046A900F7F7ACFC064609F003034F
:10890000022B03D0484607F045FA814606AA0F21FC
:108910003846FFF7E1FD06AA00210120CDF820909E
:10892000FFF737FD4FEA8803334446F8289008F1F3
:1089300002085860CFE700BF2C4503081064030805
:1089400094520308F0B5830787B00C4615461BD137
:108950000368204A934202D01F4A934214D102AACC
:1089600001A901F0A7F9019BA3422BD31CD8029BBC
:10897000043D03EB84049C4201D107B0F0BD54F8E0
:10898000042D45F8042FF6E702A9FFF71DFE00238A
:10899000064601936FF04047019BA342304606D341
:1089A000FFF76EFE0028E8D022460C490CE0FFF7E6
:1089B00067FE38B1019BFA1A2244013345F82200C0
:1089C0000193E9E7019A0649064802F04BFDF7F7E3
:1089D00005FC00BF1064030894520308793C0308A7
:1089E000563C0308104C03082DE9FF418307154648
:1089F000CFB2C1F3072435D103683A4A934202D07B
:108A0000394A93422ED10290029803AA01A901F09B
:108A100051F901983B1983425CD80399002601EB78
:108A20008003A64213D1BC00C01B2144801B04F06C
:108A30003FFA039945F8260005EB86080B194246D4
:108A40008B420AD10023029304B0BDE8F08153F8B1
:108A5000042D45F826200136E3E753F8040D42F8CB
:108A6000040FEDE70021FFF7AFFD002380460193DF
:108A7000019BBB4219D30021084604F019FA0646AF
:108A80004046FFF7FDFD0146D0B9B168A14221D3B0
:108A900045F8246005EB810205EB8403091BAB421A
:108AA00012D1304604F01FFACEE74046FFF7E8FD4A
:108AB00080B1019BFA1A2244013345F82200D6E71F
:108AC000304603F08DFFDBE7D01AF468205843F8F6
:108AD000040DE4E7019A0549054802F0C3FCF7F7E5
:108AE0007DFB00BF1064030894520308563C030842
:108AF000104C030810B5044602F012FD38B10023F3
:108B000020461A461946BDE81040FFF713BC204620
:108B100002F01CFD28B904490448BDE8104002F0E9
:108B200073BC204610BD00BFAF3B0308984B030841
:108B30002DE9FF411D4606460C46174600F022FF70
:108B40002D4B984208D12B463A462146304603F039
:108B50005FF904B0BDE8F081D0F82880274BB8F168
:108B6000000F08D09C4221D13046C0472860003019
:108B700018BF0120EDE79C4218D101AA1921304607
:108B8000FFF774FC019B6BB901AA8A213046FFF7FD
:108B9000A3FC039401AA00210120FFF7FAFB28603F
:108BA0000120D6E701AA41464046F6E7002CEBD16A
:108BB000384600F0E7FE124908F0EAFB01AA68B166
:108BC00047213046FFF752FC019B7BB101AA2146A9
:108BD0002046FFF7DEFB28602046BAE79B2130469F
:108BE000FFF744FC019B0BB10397D3E73846FFF72F
:108BF00081FF28600220ACE7C44F030854560308E5
:108C00009C4703087FB58000074B40F002000190AD
:108C1000CDE90412052001A9CDE9023309F078FB62
:108C200007B05DF804FB00BF545603082DE9F04F70
:108C300085B000AF07F1080204460D46FFF716FCA9
:108C4000FB6833B12A462749274802F00BFCF7F7A7
:108C5000C5FAB868002840D1204609F0FBFC00287E
:108C6000F0D007F1080220461721FFF7FFFB391D5E
:108C7000B86806F087F983462846F8F7A4F9D7F8CC
:108C8000048008F1010400EB040909F1070323F053
:108C90000703ADEB030D6B464FEAD30A4FEACA0652
:108CA00042465946304612F059F92E2308F83A3018
:108CB0002846F8F78DF980462846F8F784F93444B9
:108CC00002464146204612F049F949463046F8F737
:108CD000E7F801220549FFF795FF1437BD46BDE8C7
:108CE000F08F00BF1A3B0308D8470308F841030878
:108CF00070B545680024AB68A34200D870BDEB682E
:108D000053F83400E60078B104280DD006F022F9BB
:108D100003785F2B08D0EB68985906F005F9EB68EB
:108D200033445968FFF744FA0134E4E72DE9F0438E
:108D3000214C16462268526891B0D268009222688F
:108D400052689268019222685268D660226852681E
:108D50008046936004A88946F7F72EFA2546074611
:108D6000F8B9D8F800404A46414602A8FAF7F4FE9E
:108D700021463B463A4602A8FDF763FC044616B17D
:108D8000FFF7F8FA0446F7F70DFA009A2B685B68CC
:108D9000DA60019A2B685B6820469A6011B0BDE8E2
:108DA000F083009A236805985B68DA60019A23686B
:108DB0005B689A60F7F712FA6C1E002008B519B9C3
:108DC00002F014FBF7F70AFA02F01EFBFAE70000C4
:108DD00008B50446F7F724FB18B105490548FFF725
:108DE000EDFF22460449034802F03CFBF7F7F6F991
:108DF000443A0308404903086D3A0308014608B5A0
:108E00000148FFF7DBFF00BF104C03082DE9F047D6
:108E1000072886B082468946174603D1914210D072
:108E2000B64E2BE1022801D005280CD13946484620
:108E300000F042FE10B1BAF1020FF0E7BAF1020FF2
:108E4000EED0AF4E1AE1082828D1104602F068FB98
:108E500030B13946484602F080FB0028F1D1DFE707
:108E600017F0030440F02E813A68A64B9A4240F076
:108E7000298107F108067B68A342D1D956F8045B23
:108E8000284602F04DFB002800F050812946484654
:108E900002F063FB0028D4D10134ECE711F0010F9C
:108EA00000F0238112F001084FEA610500F0FA801A
:108EB0005410212800F20681DFE810F0E400E800F9
:108EC0000401EC00F000040104010401040122008B
:108ED0002E003100340069007100740077008300B7
:108EE0008C009D00A50022002E0031003400690096
:108EF00071007400770083008C009D00A500C900FC
:108F000045EA04084FEA480696EA080F56D5404657
:108F1000C11703F023FB6CE085EA0408F2E705EAD9
:108F20000408EFE7002C02DA7748FFF767FF1F2CF1
:108F300009DC6FF040432341AB4204DB4FF0404378
:108F40002341AB4220DD2846E91703F007FB8146A9
:108F5000484600F017FD8369002B40F0DF80BAF12E
:108F6000220F40F0AF8002A94846FFF72DFB0446D0
:108F70002046FFF785FB00283FF452AF394600F04A
:108F80009BFD0028F4D05CE705FA04F8BAE7002C52
:108F9000CADB1F2CA8BF1F2445FA04F8B2E705EB73
:108FA0000408AFE7A5EB0408ACE7214628460CF01F
:108FB00091FA0028C7D104FB05F6760046F00106B9
:108FC0005CE0002C00F0B480214628460CF0B3FA97
:108FD000804697E7002C00F0AB8007EE905AB8EE81
:108FE000E70A07EE904AF8EEE77A80EE270A02F0E9
:108FF000F3FB064642E0002C00F09A80214628460A
:109000000CF08BFAE4E7002C1FDA07EE905A1146B9
:10901000B8EEE70A02F04CFCEBE7E20707D5314671
:1090200040460CF057FA00288DD106FB08F8012CB9
:109030003FF468AF3146304664100CF04BFA00281C
:1090400081D17643002CE8D15CE72E46FAE7002C6C
:109050006ED00021022007F027FA21460646284656
:109060000CF069FA400040F00100B060214628464B
:109070000CF053FA400040F00100F060304606B0BA
:10908000BDE8F087A542FFF6DCAEC9E6A5423FF792
:10909000D8AEC5E6A5427FF7D4AEC1E6A542BFF67D
:1090A000D0AEBDE6930720D11268184B9A421CD16E
:1090B00007EE905A3946B8EEE70A02F0F9FB064689
:1090C0000028DBD1124B484613F80A4000F06AFC36
:1090D0000546384600F066FC2B46009022460D49B6
:1090E0000D4802F0BFF9F7F779F8BAF1060F01BFA2
:1090F0004B464FF0220AB9461F4629E7F0410308C4
:10910000F8410308106403089B3A0308D44C030891
:1091100092640308B03A0308984B03083A4649465C
:109120005046984706460028A8D118E72F46C9E7B9
:1091300001490248FFF742FED53A03084C4C0308A8
:10914000014608B50148FFF739FE00BF984B0308F8
:109150002DE9F041044617461E460D4641B11868F8
:1091600000F010FC6368834202D00548FFF7E8FF77
:1091700033463A462946A068BDE8F041FFF7DAB821
:109180002C3A0308410008B541F00101024802F001
:1091900031F9F7F723F800BFF4490308014608B591
:1091A0000148FFF70BFE00BFB849030808B540F2BD
:1091B0005631024802F01EF9F7F710F86C4A03081E
:1091C00030B58DB0044668460D46F6F7F5FF48B950
:1091D00020462946FFF7D3F80446F6F7E3FF20467A
:1091E0000DB030BD0199024800F006FC0024F6E7FE
:1091F000882D0308EFF3108172B6084AB2F8EC31FB
:109200001B0443BFB2F8EC3103F1FF331BB24FF63E
:10921000FF73A2F8EC3181F310887047CC1700205F
:10922000EFF3108172B60C4BB3F8EC21013212B29D
:10923000A3F8EC2118463AB9DA6C12B993F8EE218A
:109240002AB10023A0F8EC3181F310887047012285
:10925000A3F8EC21F8E700BFCC17002070B5124B43
:1092600093F8EE414FF6FF72A3F8EC21CCB193F8DE
:10927000EF2102F10A0103EBC106013202F00702FD
:10928000013C53F83150716883F8EF2183F8EE41C7
:1092900080F310882846FFF793FFBDE87040FFF782
:1092A000BFBF80F31088F8E7CC17002008B50D4B3E
:1092B000B3F8EC2112B2A2B9EFF3108172B6D86CF8
:1092C00050B1DA6493F8EE2112B90122A3F8EC212F
:1092D00081F31088F6F782FF0846BDE80840FFF7E3
:1092E000BDBF08BDCC17002070B5EFF3108572B676
:1092F0000F4B93F8EE41082C18D0B3F8EC2112B2C2
:10930000012A04BF0022A3F8EC2193F8EF212244A4
:1093100002F00702661C093283F8EE6103EBC20318
:10932000C3E90201012085F3108870BD0020FAE72F
:10933000CC170020024B1B685B681860704700BFA9
:109340006C1E0020044B1B685B6882B0186801AB80
:10935000C01A02B0704700BF6C1E0020024B1B6891
:109360005B685860704700BF6C1E002008B5FFF7AF
:10937000E9FF044B1B685B685B68984201D3FFF709
:1093800015FF08BD6C1E002010B503461446500C96
:10939000C2F34F0221B1E10702D40D48FFF7D0FE1E
:1093A000904207D1984212D00A4902460A4802F078
:1093B00059F806E0984206D9C21A0849064802F050
:1093C00051F8F6F70BFF9A4201D20549EEE710BDBE
:1093D000A13C0308C93C0308984B0308023D03085D
:1093E000343D03082DE9F74FDDE90CA50024814643
:1093F0008B469046019326462746019B9C4204D10A
:109400004F453CD22348FFF79BFE4C450FD2BAF89C
:1094100002209205F6D45BF8240001379AF8022066
:10942000012A25D100F0E8FC05F8240019E0BAF87B
:1094300000108900002241F00201404600F088F847
:1094400098B9BAF80220D30507D5BAF80020124916
:10945000124802F007F8F6F7C1FEDAF8042045F8E2
:10946000242001340AF1080AC7E701364068D5E72D
:10947000022A01D100F072FB45F82400F1E7D8F888
:109480000030B6EBD30F01D20548BCE703B0BDE80E
:10949000F08F00BFBC3D0308A53D0308984B0308AF
:1094A000DD3D030870B586B00446154602EB800228
:1094B00003A81E4600F01FF80B9B01930A9B009324
:1094C00003AA334629462046FFF78CFF06B070BD3D
:1094D00008B50148FFF762FE633D030810B5044676
:1094E000416019B981600123236010BDC800F6F7FF
:1094F000AEFEA060F7E70368416061F3DF0303603D
:1095000003F0F80343F007030370826070470378A9
:109510009B0710B5044602D48068F6F7A7FE2368BF
:10952000002262F3DF036260236010BD03789B07B3
:1095300010B5044602D48068F6F798FE236803F05D
:10954000040343F0010323600023C4E9013310BD89
:1095500003782DE9F74F13F0010804460E469246B2
:109560000ED001F00302022A08D01AB908687F4918
:1095700088423FD0BAF1010F40F0F5804FF001086A
:109580005B0764D52768A56827F007072F44BD420D
:1095900032D3BAF1010F40F0E680D4E90013C1F3F1
:1095A000DC01994211D104316160A068C900F6F76D
:1095B00050FE23686268A060C3F3DC03D21AD200B5
:1095C000002100EBC30011F00DFD2368A168C3F377
:1095D000DC02501C60F3DF03236041F8326006F0C8
:1095E0000306022E01EBC20523D023786FF300039C
:1095F00023701EE09046C3E72868B0421DD1BAF13F
:10960000020F16D123686E687A1B083B22F007020E
:1096100005F108012360083A284611F0CBFC2368C5
:10962000A268C3F3DC0302EBC305002142F8331048
:109630006E60284603B0BDE8F08FB8F1000F04D18A
:10964000314600F039FA0028D9D108359FE7636820
:1096500033B9BAF1010F40F08680204600F088F857
:1096600006F0030BBBF1020F28D1B008F7F7A6FCF8
:1096700002466368B2FBF3F103FB11231F464FF070
:109680000009A16851F8370001EBC705E0B9BAF14C
:10969000010F68D12368C3F3DC020132B9F1000F76
:1096A00018BF4D4662F3DF03BBF1020F2360C5E92B
:1096B0000060BED0237860F3000399E731460620AE
:1096C000FEF7A6FD4210D4E7042822D1B9F1000F1D
:1096D00008BFA94661680137B7FBF1F001FB1077BD
:1096E000BB42CED1BAF1010F3DD1B9F1000F33D059
:1096F000236800220833BBF1020F2360C9F8006021
:10970000C9F8042003D0237862F3000323704D4688
:109710008FE7B04211D1BAF1020F8AD12368626893
:10972000083B01372360B7FBF2F302FB1377A36812
:1097300053F8373073B92B607BE7B8F1000FC9D10C
:109740003146CDE9003200F0B7F9DDE900320028FA
:10975000C0D0E0E70423EEE72046009200F008F8CE
:109760006368009A86E7002563E700BF406103084D
:109770002DE9F04146681A490446731C002231F86D
:10978000025BAB4206D90132222AF8D103EB530324
:1097900043F00105E800A768F6F759FD2368656006
:1097A00003F0060343F001032360A0603D1D4FF06A
:1097B0000008B04504D13846BDE8F041F6F756BD83
:1097C00055F8041C39B1042905D001222046FFF7C1
:1097D000BFFE2B68436008F101080835E9E700BFC8
:1097E000FC3D030810B50023044601604360880077
:1097F000F6F72DFDA06010BD03682DE9F74F044674
:109800008946924623B912F0010F5DD000F05EF850
:1098100049460620FEF7FCFC22684FEA600B0AF07E
:109820000103BBFBF2F8009302FB18B84546002683
:10983000A06850F82570AA00811867B91AF0010FC6
:1098400042D0002E08BF0E466368013363604F4666
:10985000C6F8009032E0042F17D1002E08BF0E4644
:1098600022680135B5FBF2F102FB1155A845DFD1A5
:10987000009B4BB3002EE7D1204600F027F822686A
:10988000BBFBF2F802FB18B8D0E749463846019214
:1098900000F012F9019A0028E2D01AF0020F0DD060
:1098A00063682068013B01356360B5FBF0F1A36894
:1098B00000FB115553F8251021B99950384603B0D3
:1098C000BDE8F08F0421F8E70027F7E7F8B5056851
:1098D0008668154904466B1C002231F8020B83424E
:1098E00006D90132222AF8D103EB530343F00100D9
:1098F0000023206063608000F6F7A9FC3746A06073
:1099000006EB8505AF4204D13046BDE8F840F6F7D6
:10991000ADBC57F8041B0029F4D00429F2D0012271
:109920002046FFF769FFEDE7FC3D030870B50168CD
:109930000023994201D1002214E0846854F82320C6
:1099400004EB83060133002AF3D0042AF1D04568E2
:10995000013D4560B3FBF1F001FB103354F82330B7
:1099600013B93360104670BD0423FAE710B50446FE
:109970008068F6F77BFC0023C4E90033A36010BDC8
:1099800070470000C30705D400F00303022B03D087
:10999000006870470148704701487047FC50030851
:1099A0004061030808B5FFF7EDFFBDE80840C08837
:1099B000F7F70EBB70B50D4604461646FFF7D6FC0A
:1099C0002846FFF7DFFF83682BB132462946204641
:1099D000BDE870401847C28802492046BDE8704083
:1099E000F7F7FABF803F03080A4601460148FFF730
:1099F000E1BF00BF887503082DE9F3470546084617
:109A00000E4601F0A3FD98B101AA6946304601F067
:109A100007FE009B63B11A491A4FDFF87080DFF828
:109A200068902846F7F78BFC009C033C002C0BDA6F
:109A3000022231462846FFF7BDFF13492846F7F7B3
:109A40007EFC02B0BDE8F087019A4FEA840A02EB7F
:109A50000A0339465B6852F824202846F7F7BCFF12
:109A6000019B53449A682AB949462846F7F767FC90
:109A7000033CDBE741462846F7F7AEFFF8E700BFB7
:109A80003E3F0308623F0308A5FE0208773F030834
:109A900008B50246FFF776FF064B0069984204D1ED
:109AA0001046BDE8084007F063BB003018BF012036
:109AB00008BD00BF8D0F0108884210B5044605D1CE
:109AC000830741D10268214B9A423DD1204B9C42F1
:109AD00001D1002010BD9942FBD0E00704D5CA0790
:109AE000F7D423460C46194604F00302022A01F07B
:109AF000030304D082B92068164A90420CD1022B8D
:109B000005D0002BE5D10A68124B9A42E1D12046DC
:109B1000BDE8104005F0C0B9022BDAD01BB90A68C5
:109B20000C4B9A42D5D02046FFF72CFF8369002BBF
:109B3000CFD00A460220214698470028C9D0064BBC
:109B4000C31A58425841C5E70120C3E7D44C030863
:109B50005456030840610308F841030808B50E4B4A
:109B60009842014614D00D4B984213D0C20701D53C
:109B7000401008BD830707D10268094B9A4203D100
:109B8000BDE8084002F0A6BD0820FEF741FBF7E75C
:109B90000020EEE70120ECE7F0410308F84103085C
:109BA000FC500308C20705D4830705D10268034BA4
:109BB0009A4201D102F086BDFFF7D0BFFC500308E6
:109BC000114B984210B50C4603D100230B600120C5
:109BD00004E00E4B984202D10120086010BD10F045
:109BE000010102D042102260F1E710F0030307D117
:109BF0000168074A914205D102F06CFD2060E6E75A
:109C00000846EBE71846E9E7F0410308F841030886
:109C1000FC500308164A904210B50C461ED0154A57
:109C200090421ED010F0010108D0431000EE103A0F
:109C3000B8EEC00A84ED000A012010BD10F0030246
:109C400012D103680C498B4202D102F079FEF1E790
:109C50000A498B420AD101F027FEEBE79FED080A83
:109C6000E8E7B7EE000AE5E70846E6E71046E4E76E
:109C7000F0410308F8410308FC500308D44C0308E2
:109C80000000000013B501A90446FFF7C3FF48B95F
:109C90002046FFF787FE05490246054801F0E2FB32
:109CA000F6F79CFA9DED010A02B010BD033F0308D0
:109CB000984B030838B5840703460ED104680C4D51
:109CC000AC4203D1BDE8384006F004BD094DAC42BA
:109CD00003D1BDE8384003F001B91846FFF762FE32
:109CE00005490246054801F0BDFBF6F777FA00BFCB
:109CF0001064030894520308B43E0308984B030809
:109D000013B50C4601A9FFF7D5FF019BA34206D06E
:109D100022460449044801F0A5FBF6F75FFA02B0B9
:109D200010BD00BFD63E0308104C0308F7B51F4610
:109D3000D30706460D4614460FD554100194019AD8
:109D4000002ABCBF52190192019AE7B1002A16DA23
:109D500000230193019803B0F0BD01A91046FFF75D
:109D60002FFF0028EBD12046F588FFF71BFE2A467F
:109D700003460A490A4801F075FBF6F72FFAAA4292
:109D8000E8D90195E6E7002A01DBAA42E2D3F2888E
:109D90000449054801F066FBEFE700BF713E030888
:109DA000984B0308953E030850480308820701D0EA
:109DB00002F0E4BB002801DA02F062BC400040F08F
:109DC00001007047830710B5014608D10268094BAE
:109DD0009A4204D18068400040F0010010BD08465E
:109DE000FFF7D0FD43691BB10520BDE810401847BF
:109DF0001846F3E7645E030838B5154B98420446ED
:109E000024D0144DA84201D1012038BD124B9842F4
:109E10001CD0C20704D5430814BF01200020F4E77A
:109E2000FFF7B0FD43693BB121460420984718B1C4
:109E3000431B58425841E8E72046FFF7C3FF00287C
:109E4000E2D010F1FF3018BF0120DEE70020DCE790
:109E5000F0410308F84103085456030810B50446BE
:109E6000FFF7B0FF48B92046FFF79CFD03490246C3
:109E7000034801F0F7FAF6F7B1F910BD1D3F0308EA
:109E8000984B030838B504461546FFF77BFD036A77
:109E900013B120469847B0B9204645B9FFF782FD77
:109EA00009490246094801F0DDFAF6F797F9042D51
:109EB00004D1FFF777FD06490246F3E7FFF772FD8D
:109EC00004490246EEE738BD853F0308984B030876
:109ED000AF3F0308CF3F0308704710B50446FFF7B4
:109EE00051FDC36A2BB120469847B0FA80F0400973
:109EF00010BD1846FCE7000008B5FFF7EEFF10B9EB
:109F00000148FFF71DF908BD4C3E0308062806BFAF
:109F1000480040F00100002070470000042803D0F2
:109F2000052808D0002070478A68054B0548002A9C
:109F300008BF184670478868400040F0010070472D
:109F4000F0410308F8410308074B0268C1E90030FB
:109F50000023C1E90233054B9A4202BF4368C3F3B1
:109F600017238B60084670470C40030874410308B0
:109F7000F8B50D460179044601F07F0116464020F0
:109F8000002207F0E1FEA2682379E16827682960D2
:109F900042436A6003F07F02AA60084A974209D1EF
:109FA0001A0601D4B30707D46368C3F3172300FB71
:109FB00003132B600020F8BD0120FCE77441030867
:109FC000F8B5002205460E460146402007F0BCFECB
:109FD00007461020F6F722F9094A0A4B0571012DB0
:109FE00018BF1346036043686FF31F230446C0E99C
:109FF000013606FB07F0F6F711F9E0602046F8BDE0
:10A00000FC400308384103087FB504460122084696
:10A0100001A9FFF771FF00222179402007F094FE8B
:10A020006368029DB5FBF0F5C3F31722AA4206460A
:10A0300019D2A16829444143E068F6F70AF9636838
:10A04000E0606FF31F236360D4E9020305FB06F2AF
:10A0500000FB0630019910F081FFA36804481D44FD
:10A06000A56004B070BD521B62F31F23EBE700BF75
:10A07000545603082DE9F041456835F0FF050446C4
:10A0800088461ED101792A46402007F05DFE6368AC
:10A09000A168082262F31F2311440646414363600E
:10A0A000E068F6F7D6F86168A268E060C1F31721AE
:10A0B000013902FB0667384406FB01F2294610F01D
:10A0C00091FF43462079D4E9022108F057F8A368AC
:10A0D00004480133A3606368A3F580736360BDE83F
:10A0E000F08100BF545603084268C36891688B42F0
:10A0F00030B40AD21479D16882685D1CC5601A44F4
:10A1000004F07F0030BC07F089BE002030BC7047EF
:10A110002DE9F04F044689B00D4616460AB90025D0
:10A12000C3E011F003078068DFF814A240F0D38089
:10A130000B687C4A934240F0CE8002AA07F04AFAAC
:10A1400010B97948FFF72AF82179042E01F07F0130
:10A150003A464FF0400000F0918007F0F5FD16F010
:10A16000030205465CD133687049186A88424AD1B7
:10A170003179402001F07F0107F0E6FDA84202D0CE
:10A180006B48FEF73BFE33685345D6E9028B04D19A
:10A190007368C3F3172305FB03BBDDE902392268AB
:10A1A000E668A3EB0907524547443BD194F90420E4
:10A1B000002AB4DA002FE3D16268C2F3172205FB4C
:10A1C000026605FB036005FB08F25946019310F097
:10A1D000C5FE0399A2680298521A40446A4305FBDF
:10A1E000016105FB006010F0E5FE019BA068A9EB92
:10A1F0000302A2EB080238446A43002105FB006019
:10A2000010F0F0FE35E04B4A934209D1012DB7D151
:10A210002A4605A93046FFF76FFEDDE905B8BCE721
:10A2200045488FE7002FCCDD6368B7EB132F0BDDBC
:10A23000A168394430466943F6F70BF86368E0607B
:10A240006FF31F23064663600298A2680399404497
:10A250003A44121A6A4301FB056105FB006010F0E5
:10A26000A9FE029805FB08F2594600FB056010F0B4
:10A27000A1FEA3681F44A760304D16E007F064FDFF
:10A2800023685345064614D11020F5F7C7FF05464D
:10A2900094E80F0085E80F00029A02EB112363F3A4
:10A2A0001F216960039B9B1AAB60284609B0BDE87B
:10A2B000F08FDDE902312079C91AFFF781FEDDE96F
:10A2C0000232E168D21A0546724306FB0311C068E8
:10A2D00010F044FEE9E700232A4601462068FFF714
:10A2E00025FD23685345024611D16368042E00EB17
:10A2F00013220ED094F90430002BBFF610AF207952
:10A30000E168334600F07F0007F038FFB4E7042E21
:10A31000F5D12079E16800F07F0007F07FFD054668
:10A32000C3E700BF5C5A03088640030811A1000878
:10A33000B7400308645E0308D84003085456030876
:10A340007441030870B50E2888B006460C461546C1
:10A3500051D003D8022865D0002449E01A281FD024
:10A360002228F9D1012205A92846FFF7B6FD0028C9
:10A370004AD0A10712D12268364B9A420ED101224F
:10A3800002A92046FFF7F4FD01230093DDE9020155
:10A39000DDE9052303F0EAFF002858D12E4C27E021
:10A3A000012202A92046FFF7E3FD2846012205A964
:10A3B000FFF7A2FD00229DF81010402007F0C4FC1A
:10A3C000A168069DB5FBF0F5064629449DF81000EE
:10A3D000FFF7F6FD0446DDE90212C06810F0BEFD8D
:10A3E000E068039B059905FB06F2184410F0B6FDE2
:10A3F000204608B070BD0A68184B9A42ACD0294676
:10A400002046FFF701FEF3E7EA0708D4AB07C5D102
:10A410002B68134A934202D0124A9342BED10020C5
:10A42000FEF7BCFE012202A92046FFF7A1FD012292
:10A4300005A92846FFF751FD0028AFD0069B0093E1
:10A44000DDE90212059B304607F052F9A4E7064CFD
:10A45000CEE700BF38410308F04103087441030808
:10A46000FC500308D44C0308F84103082DE9F043DD
:10A47000012885B006460F4608D08B0724D10B680B
:10A48000254A934202D0254A93421DD1012201A9B7
:10A490003846FFF722FDB8B100223146402007F0D0
:10A4A00053FC029CB4FBF0F4074621463046FFF70C
:10A4B00087FD04FB07F205460199C06810F04EFDC8
:10A4C000284605B0BDE8F0833846FFF77BFCB8B1FD
:10A4D000441021463046FFF773FD002105463846FB
:10A4E000FEF772F8002780464046FEF7C9F803469B
:10A4F0000028E5D034B919462846FFF7BBFDF3E73D
:10A500000446E6E73A4607F10109E968304607F0F4
:10A5100035FE4F46E8E700BF645E03083841030894
:10A5200038B50D461C4611462846094AFEF72CFF51
:10A53000206804F00FFD012D007804D10021BDE852
:10A540003840FFF73DBD6168BDE83840FFF78EBF7A
:10A5500004000200F8B50E79012E05460C460ED116
:10A560001A49F6F7ECFE3346D4E90221284603F0F7
:10A5700023FE28461649BDE8F840F6F7E0BE32460D
:10A580001449F7F729FAA368002BF2D01249134FA8
:10A590002846F6F7D4FE0026A368B34204D8104933
:10A5A0002846F6F7CCFEE4E71EB139462846F6F712
:10A5B000C6FE3246E168207907F030FC01220146F0
:10A5C0002846FFF7F7F90136E6E700BF68400308C1
:10A5D00033E40308744003087F4003088340030802
:10A5E000BE98030838B50C462046114606221D4683
:10A5F000FEF7CAFE2CB921460120BDE83840FFF71E
:10A60000DFBC2968CA070AD48B0703D10A680C4B40
:10A610009A4204D00120BDE83840FFF727BF084622
:10A62000FFF79CFA054601460120FFF7C9FC2A46C0
:10A6300004460021C06810F0D5FC204638BD00BF9C
:10A64000FC50030870B50446102015460E46F5F779
:10A65000E5FD04714468044A02606FF31F24C0E9F9
:10A660000146C56070BD00BF744103087FB51D463B
:10A67000084611464FF00212FEF786FE012201A99C
:10A680002868FFF739FC9DF80C40029E2146002205
:10A69000402007F059FB019AB6FBF0F12046FFF786
:10A6A000D1FF0322044601A92868FFF716FC18B160
:10A6B000237963F07F032371204604B070BD00004E
:10A6C00038B5054610200C46F5F7A8FD034A026090
:10A6D0000122C0E90125C46038BD00BF384103082C
:10A6E000136870B56BB94468A51C50F825509C429E
:10A6F00007D055F82360B14204D1023350F823301B
:10A70000136070BD0133F2E72DE9F0478846144924
:10A71000DFF85490DFF854A016460546F6F70FFE12
:10A7200006F1080700247368A34205D828460D499E
:10A73000BDE8F047F6F703BE1CB149462846F6F7D8
:10A74000FEFD58F8242051462846F7F745F9012226
:10A7500057F8041B2846FFF72DF90134E3E700BF43
:10A760009D5A030833E4030883400308B0410308FB
:10A770004B6802330A4651F82310FFF7C5BF097929
:10A78000490041F00101FEF741BB052805D00979D8
:10A79000490041F00101FDF73BBD0020704700007A
:10A7A00038B50C462046114602221D46FEF7ECFD48
:10A7B0001CB12868FFF720FB08B9024838BD0248E1
:10A7C000FCE700BFF0410308F8410308032A0B79B6
:10A7D00005D113B10449F6F7B2BD0449FBE70BB14B
:10A7E0000349F8E70349F6E7902D0308952D030880
:10A7F000992E0308932E0308136813B94068FDF7D8
:10A8000035BE70472DE9F84F994602EB43035D1CB6
:10A81000042B00AF82468B4690464FEA85051DD833
:10A82000EB1D23F00703ADEB030D6C46002620461D
:10A830002A1FB96A40F804BB10F090FB23464A4631
:10A8400008F101015046FDF775FD044616B130468A
:10A85000F5F70CFD2046BD46BDE8F88F2846F5F714
:10A86000E8FC04460028DBD00646E0E707B5009385
:10A8700013460A46D0E90101FFF7C4FF03B05DF8B3
:10A8800004FB000038B505460C200C46F5F7C6FC65
:10A89000024A8460C0E9002538BD00BF3C4203087D
:10A8A000406870474160704710B504460820F5F7CE
:10A8B000B5FC024AC0E9002410BD00BF784203087D
:10A8C0002DE9F04F8668550006EB0109044609EBB7
:10A8D000050005280D4487B08A461746984604F1BE
:10A8E0000C0B4FEA850516D8B6003246594601A82A
:10A8F00010F034FB01AB2A464146981910F02EFBAC
:10A90000606801AB3A464946FDF714FD044620460F
:10A9100007B0BDE8F08F8000F5F780FCA2685946CB
:10A920009200064610F01AFBA0682A46414606EB44
:10A93000800010F013FBA168606833463A4651442A
:10A94000FDF7F8FC04463046F5F790FCDFE7000021
:10A950002DE9F041CD1CAD00804628460E46174635
:10A96000F5F75CFC064B86600446C0E90038A5F1AB
:10A970000C0239460C3010F0F1FA2046BDE8F081A7
:10A98000B44203082DE9F0411E460F4680461146A9
:10A990003846134AFEF7F8FC3268124B9A4202D04E
:10A9A0000020FEF72BFA7068FFF7D8F8051EF7DBDA
:10A9B0001820F5F733FC0446C0F800800023681C1B
:10A9C0006060C4E902338000F5F741FC022F20618A
:10A9D00003D9B068FFF7C2F860612046BDE8F08196
:10A9E0000600040004640308042810B503D00528F9
:10A9F00009D0002010BDD1E902420848084B94421A
:10AA000008BF1846F6E7D1E90230C01A44BF4B68C8
:10AA1000C018400040F00100ECE700BFF841030817
:10AA2000F0410308D0E902318B4210B5024603D150
:10AA300008490948FEF7C2F90169002451F82300CA
:10AA400041F82340516801338B4208BF234693608D
:10AA500010BD00BF414403085048030870B5C568E5
:10AA60004268466984686B1C9A4208BF0023F60757
:10AA700005D5A34203D108490848FEF79FF90669A6
:10AA8000A34246F82510C36004D101339A4208BF9F
:10AA900000238360024870BDA37303085048030875
:10AAA00054560308044B0B60037A0B7143688B60A8
:10AAB0000023CB6008467047A0440308044B0B609A
:10AAC00001230B7100238860CB600846704700BFEC
:10AAD000A044030810B504460C20F5F79FFB034A79
:10AAE000C0E900240222027210BD00BFE444030842
:10AAF00008B503799B0702D50020FEF721FB08BDAE
:10AB000010B50446FFF7F4FF201DFEF70FFD0148C6
:10AB100010BD00BF54560308042803D0052809D0EF
:10AB2000002070474B68074833F00703064B08BF07
:10AB3000184670474868C0F3DC00400040F0010050
:10AB4000704700BFF8410308F0410308F8B5074615
:10AB50000D460E68144612B13046FFF7C9FF224673
:10AB60006968301DFEF7F4FC08B143688BB9022F09
:10AB700007D1022C0BD16968084800F03BFCF5F7BF
:10AB80002DFBAB68012C00D143601846F8BD044B87
:10AB9000F8E7022C04BF00224260F6E78C48030865
:10ABA000545603080122FFF7D1BF0222FFF7CEBFA0
:10ABB0000022FFF7CBBF30B50B688568AB4201D3ED
:10ABC00000220AE0C46804EBC30254F833400133A6
:10ABD000002CF3D0042CF1D00B60104630BD13B51F
:10ABE000044600F10C018068FFF7E5FF60B12379AE
:10ABF000012B0BD0022B0BD0036800934368019309
:10AC00006946022005F050FC02B010BD0068FBE769
:10AC10004068F9E7F0B5174B0A7A174F85B00D4633
:10AC2000044653F82210F6F78AFB14492046F6F73B
:10AC300086FB134B00932B7A8DF804306B680293DC
:10AC40000023039301266846FFF7C9FF054628B98C
:10AC50000C492046F6F773FB05B0F0BD1EB9394626
:10AC60002046F6F76CFB012229462046FEF7A2FE9D
:10AC70000026E8E72045030883400308DC44030876
:10AC8000A0440308DF4403082DE9F3470C68164687
:10AC9000074620460D46FFF72BFF3168314AC908A9
:10ACA0003846FEF771FB022F14D1686810F00303D9
:10ACB0001BD10268D1682C4A914216D12A68904271
:10ACC00008D0019304F1040801A96868FFF773FF35
:10ACD000074610B9002504343CE00122396840469B
:10ACE000FEF736FC7B684360EEE70021FDF76CFC65
:10ACF00004F1040A81464846FDF7C2FC0028E9D069
:10AD00000021FDF761FC8046FDF7BAFC074640468E
:10AD1000FDF7B6FC05464046FDF7B2FC0FB105B1A4
:10AD200010B11248FEF76AF8012239465046FEF784
:10AD30000FFC4560DFE7B36853F8351003EBC50738
:10AD400039B1042905D001222046FEF701FC7B68B9
:10AD5000436001357368AB42EDD8054802B0BDE8E9
:10AD6000F08700BF050002007DB0000864440308BE
:10AD70005456030830B5044685B0FFF7B9FE0025E8
:10AD800001A920460195FFF716FF18B909490A489D
:10AD9000FEF714F86368083B636003680293436836
:10ADA00003930423C0E9003502A9022005F07CFBCF
:10ADB00005B030BD284403088C4803080228F7B5C5
:10ADC0000D4614460BD0222857D100222146281DBB
:10ADD000FEF7BEFB002840D12A4803B0F0BD02F0C8
:10ADE00003038A0725D10A6827498A4221D1002B0B
:10ADF000F2D1216891421ED1CDE90033694628463F
:10AE0000FFF7D9FE01A907462046FFF7D4FE064604
:10AE1000002F34D00028DFD031683868FEF74CFEB0
:10AE20000028D9D071687868FEF746FE0028E5D181
:10AE3000D2E7002BD0D12268144B9A42CCD16B6858
:10AE40006268534033F00703C6D10193043401A96B
:10AE50002846FFF7B0FE064608B90D48BDE70022B8
:10AE600031682046FEF774FB0028B5D04168706851
:10AE7000FEF722FE0028EAD1AEE70020ADE7002869
:10AE8000AAD1EAE7F0410308684503082C45030806
:10AE9000F841030810B40C7A012C06D1222804D101
:10AEA00049685DF8044BFFF789BF00205DF8044B4B
:10AEB00070470000032A2DE9F74F0B68154608BFBD
:10AEC0001546204A18BF01259342044689469046FC
:10AED00003D0DA881C49F6F77FFD1C49DFF878A01B
:10AEE000DFF878B02046F6F72AFA0023019301270D
:10AEF00001A94846FFF75FFE064670B9144920468F
:10AF0000F6F71DFAD9F80030434503D01149204621
:10AF1000F6F715FA03B0BDE8F08F1FB95146204689
:10AF2000F6F70DFA2A4631682046FEF743FD5946EA
:10AF30002046F6F704FA2A4671682046FEF73AFDE5
:10AF40000027D5E72C450308504403085444030860
:10AF50007607030833E4030883400308EF810308FE
:10AF600010B504460C20F5F759F9034AC0E900244E
:10AF70000022027210BD00BFE444030810B504466D
:10AF80000C20F5F74BF9034AC0E9002401220272B4
:10AF900010BD00BFE444030810B5002204300C4685
:10AFA000FEF7D6FA28B92146034800F023FAF5F750
:10AFB00015F9406810BD00BF8C480308024B40F8EB
:10AFC000043BFEF78BBA00BF2C45030838B5054695
:10AFD0001020F5F723F929460446FFF7EFFF204636
:10AFE00038BD0000F8B50C46054600216068FDF745
:10AFF000EBFA022D064660688CBFA5680B4DFEF784
:10B00000E1FE50B9FFF7E2FF0446071D3046FDF7A9
:10B0100037FB014618B92046F8BD4010F2E701227F
:10B020003846FEF795FA4560F0E700BF545603082E
:10B0300038B505468068FFF7C9FF2B6803606B6869
:10B040004268C3F3DC0363F3DF0242602A790379C9
:10B0500062F300036FF3410303712B790279C3F3A9
:10B06000800363F382020271AA68E9680446D20091
:10B07000C0680FF073FF204638BD00002DE9F04195
:10B08000804686B000200D4616461F46FFF79EFFFD
:10B090000F4BC0F800809845044602BF007940F08D
:10B0A0000400207155EA06030DD03B68019407EBBC
:10B0B0008502314603A80293FEF71DFA03AA01A9EF
:10B0C000681CFFF7E1FD204606B0BDE8F08100BF37
:10B0D000684503084068C008704770B504460E46CE
:10B0E0001546FFF705FD01223146201DFEF730FA17
:10B0F0004560204670BD13B50222CDE9000104462B
:10B1000069461046FFF722FD204602B010BD000040
:10B1100038B50C461AB9FFF7EEFF0A480DE0042ACD
:10B120000CD100220430FEF713FA28B92146064854
:10B1300000F060F9F5F752F8406838BDFFF7CDFF31
:10B14000EBE700BF545603088C48030813B50446C8
:10B150004068FDF795FA58B1A3685A1C5B0043F0AC
:10B160000103CDE90030A2606946022005F09CF998
:10B1700002B010BD30B585B00546084611461A46E6
:10B1800002AB0193094B00930223FEF78BF90C20CD
:10B19000F5F744F80021044605600298FDF714FA1B
:10B1A000039B60602046A36005B030BDC84503081E
:10B1B0002DE9F041174602F07F063A0604460D4697
:10B1C0001AD4731E012B17D80B68D888F5F700FF27
:10B1D00001462046F6F7B3F8022E11D11B4920464E
:10B1E000F6F7ADF8EB680BB15A6882B920461849FA
:10B1F000BDE8F041F6F7A3B8022EEFD0002EF1D053
:10B200003A46E9682046BDE8F04105F0CDB8012A8C
:10B21000F6D129680F4A91420FD19868C3070CD51F
:10B2200008F0C4FC034640B1EA680B499268204626
:10B230005210BDE8F041F6F7CFBBEB682046002284
:10B240009968BDE8F041FEF7B5BB00BFEF81030888
:10B25000A39C0308F4490308244603082DE9F84396
:10B2600088460446114640461A4A1B4E9946FEF748
:10B270008BF81020F4F7DDFF002814BF074637468F
:10B2800000233C60BB60B8F1000F04D1134CFC609C
:10B290003846BDE8F88308F10205AD002846F4F70A
:10B2A000C8FF044650B9D6F8D02105F118039A42D8
:10B2B000A6F11806EAD3B46A1834E7D0084BA5F112
:10B2C0000802C4E90038494604F108000FF046FEC0
:10B2D000DDE700BFFEFF0100E4170020046403085F
:10B2E00010640308F8B51546D0E901320F4651192C
:10B2F000994204460FD30178D9B105F110061E44D6
:10B3000001223146C068F4F7AFFF78B96568A368D9
:10B310002070013DED1AD4E902302A46184439461E
:10B320000FF01CFEA3681D44A560F8BD6660E060D8
:10B33000F1E75D1EAD1AEEE7024B0022C3F8E821EB
:10B340009A627047CC17002010B5FEF707FC041E68
:10B3500011DDF4F763FF094B9A6AEFF3108172B6BF
:10B36000C3F8E841986281F3108812B11046F4F7EF
:10B370007DFF034810BD0020EDE700BFCC17002083
:10B3800054560308C3685A680AB198687047014860
:10B39000704700BF5456030810B5144612684AB1EE
:10B3A000CF2906D161680B4A914202D10022C280A6
:10B3B000226010BD3D2902D1C3682360F9E702680D
:10B3C000054B9A42F5D1A229F3D1FFF7DBFF2060AC
:10B3D000EFE700BF54560308E44A030810B4C468FA
:10B3E0001346A44600225DF8044B60470022114634
:10B3F000FFF7F4BF07B5019101AA0121FFF7EEFFA6
:10B4000003B05DF804FB000073B5064610200D463E
:10B41000F4F70FFF044678B9104BD3F8E821332A2C
:10B4200002D99C6A243407D100231A4619463046B3
:10B43000FFF714FF02B070BD094B236028460FF0E0
:10B4400019FE0146C4E902052846F5F7DBFC019424
:10B45000606001AB00220121E9E700BFCC170020AA
:10B46000406103080EB4F0B588B0074610200D9E69
:10B47000F4F7DFFE044630460FF0FCFD451C28467D
:10B48000F4F7D7FE04B148BB224AD2F8E831432B87
:10B4900081BF906A00F12404A3F1340534308CBFDD
:10B4A0000123002354B92346224621463846FFF79C
:10B4B000D5FE08B0BDE8F04003B0704778B9013D53
:10B4C000C4E90256144B2360D4E90210F5F79AFC44
:10B4D00004AB6060002204940121E7E7002383F0BD
:10B4E00001038DF81030059504AB00250EAACDE9B7
:10B4F000065002933146094B039302A80192F6F7D6
:10B5000043F9DDE90632D554069BA360079BE3604F
:10B51000D8E700BFCC17002040610308E5B200085F
:10B52000830707D10268064B9A4203D1C268054BD4
:10B530009A4202D0044905F02BBF0120704700BF9A
:10B540006C6603085DB20008E846030808B5FEF71C
:10B5500019FABDE80840FFF7E3BF38B504460D46C9
:10B56000FFF7F4FF18B12046FEF70CFA044629460F
:10B570002046BDE8384005F00BBF000010B504467A
:10B58000FEF700FA034BC2689A4218BF24690023F1
:10B59000A36010BD5DB20008F8B5044616461D460E
:10B5A0000F46FEF7EFF91C4BC2689A4218BF246998
:10B5B000A068E0B90C20F4F73CFEA060A8B9174BD6
:10B5C000D3F8E821172A0FD99B6AA3600623A3802A
:10B5D0000023E380E388A168D81C01EB8302E080AC
:10B5E00041F82370C2E90165F8BD0323EFE7E38862
:10B5F000A18802338B42EDDB084B9B6A9842F3D063
:10B60000033101228900F4F72FFE0028ECD0A38833
:10B61000A0600333A380DDE75DB20008CC170020F3
:10B6200070B5044615460E46FEF7ACF9064BC268E7
:10B630009A4218BF2469A36813B933602B6070BDA8
:10B64000E2883260FAE700BF5DB2000873B50B4EC6
:10B650000446A068FDF714F8019068B16568B5422A
:10B6600005D001AB002201212846FCF763FEFEF75E
:10B67000C3FB0028EDD0019802B070BD54560308FA
:10B6800070B50646084611464FF004121D46FDF7F8
:10B690007BFE0C20F4F7C2FD06602B684360044675
:10B6A00000216868FCF790FFA060204670BD000094
:10B6B00030B587B00D460023044600936722072368
:10B6C000102195ED010A02A8FBF778FE02A9204699
:10B6D000F5F735FE2E2102A80FF020FD68B965218F
:10B6E00002A80FF01BFD40B96E2102A80FF016FD55
:10B6F00018B903492046F5F722FE07B030BD00BF58
:10B70000C8E1030838B5D1ED000A90ED000A2DED2F
:10B71000028B05460C4614F047FC95ED007AD4EDFB
:10B72000007A77EE406AB5EE400AF1EE10FAB0EE1C
:10B73000408AC6EEA78A21D117EE903A9FED248A5F
:10B74000DFED246A002BB8BFB0EE668AF5EE408AC2
:10B75000F1EE10FA29D1C7EE277A9FED1D0A17EEF8
:10B76000903ADFED1C7A002BB8BFB0EE670A85ED8A
:10B77000000A84ED008ABDEC028B38BDB5EEC00A2C
:10B78000F1EE10FAF5EEC07A4CBF01220022F1EE84
:10B7900010FA4CBF012300239A421EBFF7EE006A45
:10B7A00030EE278A78EEE68AD0E7B0EE680A13F02A
:10B7B00051FC78EEC08AF6EE007AF4EEE78AF1EEFC
:10B7C00010FAC4BFF7EE007A30EE270ACFE700BFC9
:10B7D000000000000000008008B508202DED028B5D
:10B7E000B0EE408AF4F71AFD80ED018ABDEC028BC1
:10B7F000014A026008BD00BFD44C030830B50D46B5
:10B8000087B01146284602221C46FDF7BDFD25B92A
:10B810009FED0E0AFFF7E0FF0CE0012203A920686C
:10B82000FEF75BFB40B1002300931A46DDE90301FC
:10B83000FCF7AEF807B030BD2068830703D102687B
:10B84000034B9A42F6D0FEF71DFAE3E70000000032
:10B85000D44C030891ED010A072805D8DFE800F071
:10B86000051C040407041018002108467047B5EEB3
:10B87000400A0B4B0B49F1EE10FA08BF1946F4E7EA
:10B88000FDEEC07A17EE901A490041F00101ECE795
:10B8900010EE103A002BE8DAB1EE400AFFF79CBF39
:10B8A000F0410308F841030890ED010A70470000D9
:10B8B00010B52DED028B86B00446084603A98DED28
:10B8C000010AFEF7A7F9002800F0DC80212C00F225
:10B8D0001E81DFE814F0DB00E800F50002010F0133
:10B8E0001C011C011C011C011C011C011C011C0170
:10B8F0001C0122002F0036003D004D005B008E0031
:10B900001C011C011C011C011C0122002F0036001F
:10B910003D004D005B008E00BD00DDED017A9DED28
:10B92000037A77EE877ACDED017A9DED010AFFF774
:10B9300053FFA7E0DDED017A9DED037A77EEC77A3C
:10B94000F1E7DDED017A9DED037A67EE877AEAE7AC
:10B95000DDED037AF5EE407AF1EE10FA03D16D4990
:10B960006D48FDF72BFA03A901A8FFF7CBFEDCE732
:10B97000DDED037AF5EE407AF1EE10FAEFD0DDED71
:10B98000016A86EEA77A8DED017ACEE7DDED030A36
:10B99000F5EE400AF1EE10FAE1D09DED010A14F047
:10B9A00003FBB5EE400AF1EE10FA8DED010A09D164
:10B9B000039BDFED5A7A9FED5A7A002BB8BFF0EE69
:10B9C000477AB0E7DDED037AB5EEC00AF1EE10FA82
:10B9D000F5EEC07A4CBF01220022F1EE10FA4CBF06
:10B9E000012300239A42A0D030EE270A8DED010AF0
:10B9F0009BE7DDED018A9DED038AF5EE408AF1EECD
:10BA000010FA0DD1B5EEC08AF1EE10FA08D59FED0F
:10BA1000457AF0EEC87AF4EE477AF1EE10FA9EDD40
:10BA2000F5EEC08AF1EE10FA0BD5B0EE480A13F02D
:10BA300011FBB4EE480AF1EE10FA02D03A48FDF7D5
:10BA4000DDF9F0EE480AB0EE680A12F03DFDCDE7F0
:10BA5000DDED037AF5EE407AF1EE10FA3FF47FAFB8
:10BA600003A901A8FFF74EFE9DED010AFFF7B4FE02
:10BA70009DED030A0490FFF7AFFE04A90590022094
:10BA800004F012FD06B0BDEC028B10BD9DED017AF5
:10BA9000DDED037A254B2648B4EEE77AF1EE10FA95
:10BAA00058BF1846EEE79DED017ADDED037A1F4B96
:10BAB0001F48B4EEE77AF1EE10FAD8BF1846E1E776
:10BAC0009DED017ADDED037A194B1848B4EE677AE3
:10BAD000F1EE10FA08BF1846D4E79DED017ADDEDCE
:10BAE000037A124B1248B4EEE77AF1EE10FA88BFEF
:10BAF0001846C7E79DED017ADDED037A0B4B0C4844
:10BB0000B4EEE77AF1EE10FAB8BF1846BAE70020B3
:10BB1000B8E700BFD53A03084C4C0308000000000A
:10BB200000000080FFFF7F7F7C390308F04103089D
:10BB3000F84103080B4693ED010A1146FFF7B8BE22
:10BB400010B50446084611460022FDF71DFC636847
:10BB5000BDE81040184770B505461C46084611461A
:10BB60004FF00212FDF710FC6A682068BDE87040D3
:10BB7000104770B505461C46084611464FF00412A2
:10BB8000FDF702FC6B68D4E90001BDE8704018477E
:10BB900070B51C460546084611464FF00612FDF7E3
:10BBA000F3FB6B682068D4E90112BDE870401847C8
:10BBB000F0B505460C46174685B042683946204622
:10BBC0001E46FDF7E1FB6B68DB070CD506EB840234
:10BBD000394601A8FDF78FFCAB6801AA3146204623
:10BBE000984705B0F0BDAB68314620469847F8E766
:10BBF0002DE9F84F804600AF894692469B46FDF7F7
:10BC0000B5FBD8F8080009F001F90546D8F8080096
:10BC100009F004F909F0FAF800EB40000544AD0022
:10BC20002C2D05F1140635D8073626F00706ADEBA6
:10BC3000060D6C46002549460026DFF87490C4F8CE
:10BC400000805B4652462046666009F0EDF8D9F860
:10BC50000030D8F804205B68DB682361D9F8003035
:10BC60005B683146DA60204608F0FEF8D9F800300B
:10BC700022695B688046DA6098B9A3681E682DB1B6
:10BC80002046F4F7F3FAB8F1000F0DD13046BD4667
:10BC9000BDE8F88F3046F4F7CCFA04460028CAD144
:10BCA000C2E76669002DEBD13046F4F797FA00BF82
:10BCB0006C1E002008B509F0B1F8008808BD08B571
:10BCC000806809F0ABF809F0A9F8BDE80840043035
:10BCD000FFF7F0BF136810B514463BB9172905D11B
:10BCE000FFF7EDFF800040F00200206010BD000073
:10BCF00070B5054608460C46FFF7E1FF23460246AD
:10BD000002492846BDE87040F5F766BE104D0308AD
:10BD10002DE9F8430F46914698460646F8B1456826
:10BD2000FFB1681C04308000F4F778FA0E4B036012
:10BD30000E4B1B685B68DB68C0F80C800446C0E9EA
:10BD400001392EB1AA0006F1080110300FF006F9F2
:10BD500017B1043544F825702046BDE8F883054640
:10BD6000DEE72846DEE700BF284D03086C1E0020F2
:10BD70002DE9F0410546806898460E46174609F0C1
:10BD800045F80446A86809F049F809F03FF8073477
:10BD900000EB400020448000F4F740FA084B0360B9
:10BDA0006B68C0E901350023C360044643463A4648
:10BDB0003146083009F038F82046BDE8F08100BF70
:10BDC000C44F030808B503691830834202D1034801
:10BDD000FDF7B6F91868196008BD00BFE84E030802
:10BDE00070B5054688680C46FFF769FF2346024692
:10BDF00002492846BDE87040F5F7EEBD1C4F030828
:10BE000008B50248FFF7F2FAF4F7E8F9E44A030844
:10BE10002DE9F04704460E4692469846FDF7A6FAED
:10BE2000E56825B9C8F800502846BDE8F0872369C1
:10BE3000DFF8B89004F11802934204D14E4509D0BE
:10BE40002448FDF77DF91A684A451DBF0021196095
:10BE500092461E60636813B91F48FCF7CFFF1F4E60
:10BE600032685268D268A261326852680027D36093
:10BE70005146676004F1080007F0F6FF3368A269D5
:10BE80005B68DB68636033685B6801280546DA60DD
:10BE900007D00228E7600CD023691B68C8F800307F
:10BEA000C2E723691B68C8F800302369C3F8009013
:10BEB000BAE7E069C8F80000FDF764FD084905F03D
:10BEC00067FA0028B0D007490748FFF79DFAC8F87D
:10BED0000000A9E7504F0308864F03086C1E00209E
:10BEE000E44A0308A24F03086C4A030854560308A7
:10BEF00007B501ABFFF78CFF01280DD00228019890
:10BF000008D0084B98420BD038B101AA012106484D
:10BF1000FFF764FAF4F762F9019803B05DF804FBE7
:10BF20000020FAE754560308E44A030808B50B4614
:10BF300002280CBF4A688A6818680349FFF7D8FFCF
:10BF400008B9FFF75DFF08BD5456030808B5002285
:10BF5000FFF7CEFF08B9FFF753FF08BD00220149E4
:10BF6000FFF7C6BF5456030807B50E4A0E4901AB8A
:10BF7000FFF74EFF012805D0022807D00A4803B07A
:10BF80005DF804FB09490A48FCF718FF0198FDF722
:10BF9000F9FC084905F0FCF90028EFD10198F4F705
:10BFA0001DF900BF1446030854560308904E0308B9
:10BFB0006C4A03089C47030830B58DB005466846B7
:10BFC000F4F7FAF8014680B92A1D0120FCF7E1F9DF
:10BFD000EB6823F00103023343F00103EB600446F6
:10BFE000F4F7E0F820460DB030BD0198054A03682B
:10BFF000934204D0044A934201D0F4F7EFF80024AE
:10C00000F0E700BFE44A030850480308044B0B6004
:10C0100003684B6043688B600123CB600846704720
:10C020003C5003082DE9FF4148680E46FDF796FD98
:10C03000041E02DA0020FCF7E1FED6F80880214653
:10C04000B8F5DB77684618BF0127F5F786F8029D3B
:10C050002246002128460EF0C5FF3068C3070BD4E6
:10C060002B462246394600F014FA69460A4802F087
:10C0700053FA04B0BDE8F081042C4FEA6003204677
:10C0800028BF0420B8F5DB7F14BF221A00222A44FF
:10C09000394605F0A1FFE8E7645E0308F0B50C46F9
:10C0A00085B06068154F012201A9FDF725FFA5683D
:10C0B0000299019AB5F5DB7F03BF01F1FF339B18AD
:10C0C0004FF0FF36134618BF01260C46002014B966
:10C0D00000F0D6FA09E0B84204F1FF3407D9B5F50B
:10C0E000DB7018BF012000F0C5F905B0F0BD93F872
:10C0F00000C033444CEA0020E9E700BFFFFF3F00E7
:10C1000010B5F0EEC07AF4EE677AF1EE10FA2DED8C
:10C11000028BB0EE408A0CD69FED197AF4EE477A86
:10C12000F1EE10FA08DD17491748FFF76DF9F4F73B
:10C1300055F81648FCF762FE10EE103A002B12DAA2
:10C1400033F0004204D003F1FF43B3F19C4F0DD80C
:10C15000FDEEC87A17EE900A400040F00104BDECF5
:10C16000028B204610BDDB0DDB05EEE700F04CF93D
:10C17000B0EE480A04460430F5F794FEEFE700BF3E
:10C18000FFFF7F7FC8500308304A0308E1500308CF
:10C1900073B50D462846114604221C46FDF7F4F8F7
:10C1A0007DB3012D1FD12068C3071AD410F00303FB
:10C1B00029D10368174A934213D09969164A9142CC
:10C1C00008D101A902F0DEFE002301991A46FBF70F
:10C1D00061FB06E0114A934217D1FFF765FBFFF7B9
:10C1E0008FFF02B070BD01A9206802F0CBFE0546AA
:10C1F0006068019EFDF7B2FC0023024631462846E6
:10C20000E5E70120EDE7022BDBD001460820FBF734
:10C21000FFFFE6E7FC500308BDEF0008D44C03081D
:10C2200038B50A4C214411F8014CB0FBF4F45BB171
:10C23000631C0325B3FBF5F510460AB10EF01AFF97
:10C2400003342C44204438BD1D46F5E7B85003089C
:10C250002DE9F74F13F0010F82468B460092DDE97E
:10C260000C769DF838409DF83C9040D05D1045D448
:10C270004FF000084B46324639462020FFF7D0FFEA
:10C28000DBF800308342024607D20190F3F7C6FF85
:10C29000019ACAF80000CBF80020DAF800B00BEBE6
:10C2A0000203002103F8011C65B3013B1846A4F109
:10C2B0000A0EAC46B5FBF7F507FB15C109298CBF83
:10C2C00071443031441E00F8011CB9F1000F30D028
:10C2D000BC451BD3A34519D2191B032905D1841EC4
:10C2E000A34500F8029C11D223462046E1E7CDE9A0
:10C2F0000E4903B0BDE8F04F00F094B86D424FF026
:10C300002D08B7E730219C1E03F8021CCEB1304641
:10C3100001920EF0AFFE201A8345019A11D2013E20
:10C32000014616F8013F4BB90446B8F1000F0DD194
:10C330000FE0A345EAD2BC45D7D2E7E701F8013BBD
:10C34000EFE7B8F1000F04D05C4502D904F8018C86
:10C35000013CDAF800301A44121B009B013A2046D7
:10C360001A6003B0BDE8F08F30B58DB0102306938E
:10C370000023CDE9023301930A23054608AC00935C
:10C3800007AA0B4605A806A90594FFF761FF014619
:10C390002846F4F7D4FF0598A04201D0F3F766FFD2
:10C3A0000DB030BD1346134A934230B40C4603D14E
:10C3B000012230BCFCF72ABD0F4A934201D103226F
:10C3C000F7E71C2813D103F00302022A0BD072B93D
:10C3D0001A680A499069884205D009498A4202D000
:10C3E00008498A4203D1224619461C20E1E7002071
:10C3F00030BC7047F0410308F8410308BDEF000866
:10C40000106403089452030810B51020F3F706FFD8
:10C41000034B044640F8043BF5F7D7FC204610BD1B
:10C42000FC5003082DE9F74304469DF834609868F2
:10C430000F4691461D46DDE90A1233460001FFF71B
:10C44000EFFE3B688342804604D2F3F7E7FE2060AC
:10C45000C7F8008024689DF83030CDE90064DDE93C
:10C460000A12281DF6F7F8FBC9F80000204603B0B1
:10C47000BDE8F083F8B50E4617460546FFF7C4FF42
:10C480003B460446324629460430F5F7B3FD2046C4
:10C49000F8BD70B504460D461846002116460EF04C
:10C4A000A1FD324603462946201DBDE87040F6F73F
:10C4B00078BB034610F0010006D05B10002B0DDBAB
:10C4C00014BF0120002070479A684AB11B7913F00D
:10C4D000010F14BF4FF0FF30012070474FF0FF30C5
:10C4E0007047000038B50C46072805D8DFE800F093
:10C4F00005151E0407040E260024204638BD896851
:10C50000144C1548002908BF0446F6E7081DF6F745
:10C510001CFB400040F00104EFE7FFF775FF211D11
:10C5200005460430F5F7C5FD2C46E6E7FFF76CFF3E
:10C53000211D05460430F5F7CBFDF5E70B79DB0748
:10C54000DBD5FFF761FF211D05460430F5F7A6FD99
:10C55000EAE700BFF8410308F0410308D3B50F46EE
:10C560000646FFF751FF01230446009332463B463F
:10C570000430F5F76AFC204602B0D0BD430093EAD0
:10C58000000F02D5C117FFF7E9BF43F00100704764
:10C59000D3B50F460646FFF737FF00230446009346
:10C5A00032463B460430F5F750FC204602B0D0BD81
:10C5B0002DE9F04F10F001088BB006460D461446E9
:10C5C00005D1810715D102682B4B9A4211D115F084
:10C5D000010705D1AA070CD12A68274B9A4208D136
:10C5E00014F0010B08D1A30703D12268224B9A4211
:10C5F00002D02248FCF7A4FD00200021FFF7C8FF6D
:10C600000DF104098246B8F1000F2FD07110484691
:10C61000F5F703FC4E460DF110084FB36910404684
:10C62000F5F7FBFB454607AFBBF1000F22D06110C9
:10C630003846F5F7F2FB3C4623462A4631460AF1D6
:10C640000400F6F72BFA4E4502D13046F5F7C2FB4F
:10C65000454502D12846F5F7BDFBBC4202D1204634
:10C66000F5F7B8FB50460BB0BDE8F08F0436D2E7C3
:10C670000435D8E70434DFE7FC5003087951030898
:10C6800010F0404F02D00021FFF782BF400040F081
:10C69000010070472DE9F34104460E4617469846BF
:10C6A000FFF7B2FE3B460546CDF8008032462168D2
:10C6B0000430F5F753FC236818442060284602B084
:10C6C000BDE8F081C30702D40430F6F73EBA40104B
:10C6D00070470000C30707B503D5401003B05DF8ED
:10C6E00004FB01A90430F6F743FA08B10198F5E715
:10C6F00001490248FCF762FB4C510308304A030829
:10C700002DE9F0432DED028B8046C80789B00C4619
:10C71000164625D54B10022201A902A8F5F784FB85
:10C7200002AFF1071ED57310022201A902A8F5F786
:10C730007BFB02ADB8F11E0F02D0B8F1120F30D161
:10C740006B68002B5CD03846F6F766FA2846B0EEE8
:10C75000408AF6F761FA88EE000AFFF73DF819E023
:10C760000F1DDEE7B20710D133686E4A934201D144
:10C77000351DDFE76C4A934207D13846F6F74CFA8D
:10C7800031464046FFF794F804E0324621464046E1
:10C79000FFF708FE0446204609B0BDEC028BBDE859
:10C7A000F083A8F109095FFA89F3182B00F28C8055
:10C7B000FFF72AFE0446B9F1170F72D8DFE809F037
:10C7C00042483C4E4E0C12181E71316542483C4E98
:10C7D0004E0C12181E7131652A4639460430F5F7A1
:10C7E00063FDD8E72A4639460430F5F795FDD2E7D0
:10C7F0002A4639460430F5F758FFCCE76B681BB979
:10C800004A494B48FCF7DAFA05A8F5F7DEFA2B4659
:10C810003A4605A9201DF5F7FEFF05A8F5F7DAFA57
:10C82000B9E76B68002BEBD005A8F5F7CEFA2B46DD
:10C830003A46211D05A8EEE72A4639460430F5F7A9
:10C84000ABFDA8E72A4639460430F5F73FFEA2E7DC
:10C850002A4639460430F5F7BDFE9CE73046FFF71F
:10C8600039FF021E02DA3348FCF7C8FAB8F1180F94
:10C8700004F10400394602D0B8F10C0F02D1F5F7EB
:10C8800060FC88E7F5F7BAFC85E76B681BB12B788D
:10C89000DB073FF572AF2A463946201DF5F77CFFCE
:10C8A00079E76B68002BABD0FFF7AEFD211D064684
:10C8B0002B463A460430F5F7AEFF05A90220CDE934
:10C8C000056403F0F1FD65E729463846F5F7C6FB38
:10C8D000B8F1040F24D8DFE808F0030A1D10160091
:10C8E000154B164C14EA200438BF1C4653E7124B74
:10C8F000124C0028D8BF1C464DE70F4B0F4C0028A8
:10C90000C8BF1C4647E70C4B0C4C34EA200428BF38
:10C910001C4640E7084B094C002818BF1C463AE764
:10C92000002438E7FC500308D44C0308D53A030828
:10C930004C4C03089B3A0308F0410308F8410308F4
:10C940000430F6F769B90000042803D0052808D0A0
:10C95000002070478A68054B0548002A08BF184622
:10C9600070478868400040F001007047F0410308BC
:10C97000F8410308044B0B60044BC1E9013000236C
:10C98000CB600846704700BF7C550308C5C9000846
:10C9900070B5836803EBD37149109B00002291426C
:10C9A000A3F1040301DC064870BDC468E65854F8DE
:10C9B000225044F82260C4680132E550EFE700BF1E
:10C9C00054560308D0E902130246886883423FBFE9
:10C9D000C96851F823000133D36028BF0020704795
:10C9E00038B50D46D0E901138B42044613D3C90074
:10C9F000C068F3F72EFC6268A368E06052006260D2
:10CA0000D21A02F18042013A01339200002100EB78
:10CA100083000EF0E7FAD4E90232591CA160024803
:10CA200042F8235038BD00BF54560308836870B5E0
:10CA30004C1048BFE418054648BF24EAE4749C4201
:10CA40000A4928BF1C461646FFF7CAFFAB68E968CB
:10CA5000013B9C4203DB41F82460044870BD01EBBC
:10CA6000830252F8042C41F82320F0E754560308BF
:10CA700038B50025044685601021C068F3F7E9FB4E
:10CA80000423E0606360102229460EF0ABFA0148EF
:10CA900038BD00BF545603082DE9F84F81460E46B5
:10CAA00017469A46FCF762FCB14501D3BDE8F88F02
:10CAB000A9F10408D6F800B027B159463846FBF76B
:10CAC0005EFC8346354608F10404A54207D9216877
:10CAD000B7B95A460020FCF799F982450ED0043DBB
:10CAE000AC4222D28FB92A6859460020FCF78EF951
:10CAF0008245F4D023682A6822602B60A046E2E7D2
:10CB00003846FBF73CFC0146E3E729683846FBF76B
:10CB100036FC0246E8E7294653463A464846FFF7C0
:10CB2000BBFF35462E46C146BEE732682368226009
:10CB3000341BA4103360013CA5EB0903B4EBA30F35
:10CB400008F10808E7DC404653463A463146FFF70D
:10CB5000A3FFC846E6E7000030B585B002AB0C463F
:10CB60000193114B0093043102230138FCF73AFC86
:10CB700023689968012913D9D8680C4C9DF80C508A
:10CB80000B4B029A01F18041002D08BF2346094C4E
:10CB90000139A24208BF002200EB8101FFF77CFFB0
:10CBA000044805B030BD00BFA4510308F841030894
:10CBB000F04103085456030810B40C680B460246B3
:10CBC000D4E902105DF8044B04F016BE70B50C6891
:10CBD0000B46A168024619B918491948FCF7EEF846
:10CBE000012A18BF5A68206808BF4FF0FF3200239F
:10CBF000FDF79CF8A268E3688600013A53F82050DC
:10CC0000A260311D121A1944920098190EF0D2F93F
:10CC1000D4E90232002142F82310616804290BD9BB
:10CC2000B1EB430F08D949088900E068F3F711FB1D
:10CC30006368E0605B086360284670BD5852030873
:10CC40005048030807B5CDE9000169460220FFF707
:10CC5000B3FF694601900220FFF7B8FF014803B017
:10CC60005DF804FB5456030838B504460846002115
:10CC7000FBF7AAFC05462846FBF702FD01462046C5
:10CC800001B938BDFFF7ACFEF5E70A46D0E902105E
:10CC900004F0E6BD2DE9F041032A0F461049DFF804
:10CCA0004880154606460CBF15460125F4F747FB9C
:10CCB0000024BB68A34205D830460A49BDE8F041CC
:10CCC000F4F73DBB1CB141463046F4F738FBFB6836
:10CCD0002A4653F824103046FCF76CFE0134E8E78E
:10CCE00081400308BE9803088340030870B511F023
:10CCF000030604460D4629D10A68174B9A4225D1EE
:10CD0000AB68816819444368994210D9043189009D
:10CD1000C068F3F79EFAAA68A368E06013441A1D7E
:10CD200062603146102200EB83000EF05BF9D4E91B
:10CD30000203AA68E968920003EB80000EF00EF986
:10CD4000A368AA681344A360044870BD294620461E
:10CD5000FFF78AFFF8E700BF945203085456030810
:10CD600038B504290B4B03600446084638BF04203D
:10CD7000C4E9010180000D46F3F750FA6268E060F3
:10CD8000521B00EB850092000021BDE838400EF0F8
:10CD900029B900BF9452030838B505461020F3F7AF
:10CDA0003DFA29460446FFF7DBFF204638BD000068
:10CDB0000E287FB503460E46154641D003D80428F9
:10CDC00044D9002439E01A281BD01C28F9D103A922
:10CDD0001046FCF7F5FE0028F3D0039B002BBCBFE8
:10CDE000002303930398B3685843FFF7D5FFC36844
:10CDF00000930446039BB268F068042104F0D5FB5D
:10CE00001BE012F00304DCD112681B4B9A4214D1D0
:10CE1000AB6888681844FFF7BFFFB268F168044642
:10CE20009200C0680EF09AF8B068E368AA68E968F2
:10CE3000920003EB80000EF091F8204604B070BD24
:10CE400011463046FFF752FF3446F6E7AA0703D1F2
:10CE50002968094A914203D0022BB2D1074CECE772
:10CE6000AB680093D6E90221EB6804F077FC002858
:10CE7000F4D0034CE1E700BF94520308F0410308EB
:10CE8000F841030838B50C462046114602221D46DB
:10CE9000FCF77AFA24B92046BDE83840FFF77CBF9A
:10CEA0000020FFF779FF2968BDE83840FFF7DCBEB6
:10CEB00038B50C460546FFF76FFF4CB938BDC26860
:10CEC00054F8231042F823100133AB42F7D1F5E7B1
:10CED0000023FAE7D0E90201FFF7EABF83680B609D
:10CEE000C368136070478160704738B504461546C3
:10CEF00000230A4681680068FCF718FFE36843F8DE
:10CF0000205038BDF0B5044689B00D4601F0030647
:10CF1000104682BB46BB0A68624B9A4224D102AAE1
:10CF2000A06804F057FB10B90020FCF737F9DDE9E1
:10CF30000201D4E90223521A451A920003EB81013F
:10CF400003EB80000EF036F8A068E36828446FF029
:10CF5000030203EB80006A4331460EF043F8A368F6
:10CF60002B44A360504D18E005A90220CDE90545EA
:10CF7000FFF72CFEF6E7042A2CD1A06806BB0A684E
:10CF8000484B9A421CD105AA04F024FB40B905AADB
:10CF9000D4E9020104F08AFB0546284609B0F0BD39
:10CFA000DDE90530C01AFFF7F7FEE36882680599EE
:10CFB0000546920003EB8101C0680DF0CFFFECE75E
:10CFC00000232A4601462068FCF7B0FEE36853F8C8
:10CFD0002050E2E7002E5ED10A68324B9A425AD1C5
:10CFE00001AA6946FCF766FE05AA2946A06804F076
:10CFF000F1FA002898D0059B009A0699E0689D18E0
:10D000006D1A002D27DDA16863682944994206D96D
:10D010008900F3F71EF9A368E0602B446360009A6F
:10D02000059BA168E0681344EA1A0A440699920035
:10D0300000EB810100EB83000DF0BCFFE368009A78
:10D0400005980199920003EB80000DF0B3FFA368EF
:10D050001D44A56086E70199920000EB83000DF066
:10D060007DFF0699A268059B009FE0683B44521A29
:10D07000920000EB810100EB83000DF09BFFA068A4
:10D08000E36828446FF003026A43314603EB8000F3
:10D090000DF0A8FFDBE7024629462046FFF725FFF3
:10D0A00060E700BF5C5A0308545603082DE9F041BD
:10D0B000044640688000F3F7B1F804F10C08074615
:10D0C00000256168A94206D83B46A0680022BDE859
:10D0D000F041FBF72FB958F8040BFBF7D1FA0646DD
:10D0E00018B147F825000135EBE73846F3F7BEF8ED
:10D0F0003046BDE8F08100002DE9F0410C460646BF
:10D10000114620460F4A9846FCF73EF9A01C8000C5
:10D11000F3F784F80660013CD8F800304460054617
:10D12000836000F10C070026B44202D82846BDE80F
:10D13000F0810136002158F82600FBF745FA47F840
:10D14000040BF1E7FEFF050070B5054648680E4682
:10D1500000225E210430FCF7FBF9B0B1406801F019
:10D16000F9FE04467068002240F2DA210430FCF730
:10D17000EFF960B1406801F0EDFE22460346074931
:10D180002846BDE87040F4F727BC054CEAE7224684
:10D1900028460449BDE87040F4F71EBC0C53030850
:10D1A000A39C03082453030870B516461268406810
:10D1B0000C464AB9890041F002010430FCF7C8F975
:10D1C00008B14368336070BD03799B070DD50D4BE3
:10D1D0009842F8D10C4DD5F8C03023B90120FDF7A5
:10D1E000F5FEC5F8C000D5F8C0007268A10041F096
:10D1F00002011AB9FDF77FFF0023E3E7FDF76DFF9A
:10D20000FAE700BFA06B0308CC170020800070B5C0
:10D2100040F00205012229460B48FCF799F94468C1
:10D22000064674B90820F2F7F9FF084B036004467C
:10D230000120FDF7CBFE2A4660605E21FDF74DFF21
:10D240007460204670BD00BF0C180020AC54030869
:10D25000800010B540F00204002221460548FCF78A
:10D2600077F928B9024621460348FCF771F900B165
:10D27000406810BD0C180020345303080048704764
:10D280005456030807B5820707D10168074A91423F
:10D2900003D1C268064B9A4202D00648FBF750FF02
:10D2A00001A903F0ABFE03B05DF804FB6C66030854
:10D2B000291001082C55030810B5044608461146EC
:10D2C0000022FCF761F80420F2F7A8FF046010BD0B
:10D2D0004368184770B5054610200E46F2F79EFFCA
:10D2E000044695E80F0084E80F00E660204670BD14
:10D2F00070B5054610200E46F2F790FF044695E8FB
:10D300000F0084E80F00A660204670BD70B505468A
:10D3100010200E46F2F782FF044695E80F0084E8DD
:10D320000F006660204670BD10B586B00446084602
:10D3300011461A4602AB0193084B00930423FCF7F5
:10D34000B1F81020F2F76AFF029A4260039A8260F5
:10D35000049A0460C26006B010BD00BFB85503084F
:10D3600004307047032A0CBF01490249F3F7E7BFB5
:10D37000945603084218030838B50B680C46DA883F
:10D3800005490546F4F728FB216822462846403126
:10D39000BDE83840FDF7B8B92F46030810B5C26B99
:10D3A00000F140030020824202D14FF0FF3010BD57
:10D3B00053F8044B8C42FAD00130F4E738B51368C7
:10D3C000054614464BB90068FFF7E8FF431C03D03D
:10D3D000023055F82030236038BD02490248FBF77F
:10D3E000EDFC00BFA4560308AC4603082DE9F04746
:10D3F0009246C26B01EB0A05954280460C4699465F
:10D4000006D02B461F492048FEF72CF8F2F7E6FE1F
:10D410000021284603F048F8A70006463A46494648
:10D4200040F8088B0DF09AFD07F108004FEA8A02D8
:10D43000002130440DF0D6FD554409F1040AAC42F8
:10D4400002D33046BDE8F08759F8240001F06CFDA6
:10D45000014607464046FFF7A1FF431C05D10B4993
:10D460003A460948FDF7FEFFD0E706EB80008368E7
:10D4700013B13A460649F4E75AF82430836002347F
:10D48000DDE700BFC93C0308984B0308B856030802
:10D49000D9560308F8B500F11004A4000746204649
:10D4A0000D46F2F7BBFE06463C220021403C0DF043
:10D4B00099FD2C44F76306F14007A54201D130469F
:10D4C000F8BD55F8040B01F02FFD47F8040BF4E705
:10D4D0001FB5019101F028FD019B03F00302022A10
:10D4E000044604D042B91A68124B9A4204D101A9E9
:10D4F000012001F0EBFF019003AA02A90198FCF7BB
:10D50000D9FBDDE90201FFF7C5FF0B4A02600B4AB8
:10D5100082600B4AC2600B4A42610B4A82610B4A2D
:10D52000C2610B4A02620B4A42620B4AC4804263E8
:10D5300004B010BD406103086C66030879D300088D
:10D54000EDD300084D040108E5040108BDD300082F
:10D55000E90501088D03010810640308C268002A68
:10D56000034605DDD0E90101884206DB0020704753
:10D57000FCD0D0E901018842F8DD596848000A442E
:10D5800040F001005A607047D0E902324068181A32
:10D590001044002ACCBF00F1FF30013090FBF2F0C4
:10D5A00020EAE0707047000010B504460846FFF717
:10D5B000EBFF042C03D0052C08D0002010BD054A39
:10D5C000054B0028CCBF10461846F7E7400040F056
:10D5D0000100F3E7F8410308F041030810B5D0E972
:10D5E0000142C3680348C1E90223C1E900040846B7
:10D5F00010BD00BF44570308F8B50E460746114654
:10D600003046134A1D46FBF7BFFE1020F2F706FE18
:10D6100000234360012307609E420446C3602868DC
:10D6200004D1FCF79BFAA0602046F8BDFCF796FAFF
:10D6300060606868FCF792FA032EA060F4D1A868D5
:10D64000FCF78CFAE0600028EED10248FBF7D6FB2D
:10D65000060002008057030838B50C46D1E90123C3
:10D6600009490546F4F7B8F9E268012A05D12846C8
:10D670000649BDE83840F3F762BE28460449BDE8D4
:10D680003840F4F7A9B900BF8A57030833E4030808
:10D690009757030830B5042A85B0044633D1FFF705
:10D6A00073FF8B07054620D10A68184B9A421CD19C
:10D6B00001AA03F08FFF1020F2F7B0FD144BE268CF
:10D6C00061680360019B03FB021343606168029B76
:10D6D00003FB0213039983604A430029C26002DA04
:10D6E000E2689B1A836005B030BD0A4600232946D4
:10D6F0002068FCF71BFBE368626803FB0020400026
:10D7000040F00100EFE70020EDE700BF5C5A03089E
:10D7100008570308136810B514462BB9922904D191
:10D720004068FEF72BFF206010BD962901D180686C
:10D73000F7E79529F8D1C068F3E7816841B101396D
:10D7400081604900042241F001014068FCF79ABB66
:10D750000846704773B51D460646084611464FF009
:10D760000212FBF711FE6A46CA212868FAF77EFE0C
:10D77000009B43B100216A460846FAF70AFE0446B8
:10D78000204602B070BD0C20F2F748FD044606604A
:10D7900028686060FCF762FBFCF7E0F9A060EFE747
:10D7A000820708D10068064B984206D0054BC31A81
:10D7B000584258417047002070470120704700BF11
:10D7C0007058030834580308044B0B60044BC1E93C
:10D7D00001300023CB600846704700BF7C5503082A
:10D7E00089DA000808B501220430FCF705F8014881
:10D7F00008BD00BF5456030808B502220430FBF7E9
:10D80000FBFF014808BD00BF5456030838B5044665
:10D8100008460021FAF7D8FE043405462846FAF7F0
:10D820002FFF014600B938BD01222046FBF7E4FF77
:10D83000F4E7000070B506460D460124B44201D35A
:10D84000044870BD55F824102868FFF7DFFF013445
:10D85000F4E700BF5456030838B5044608460021D3
:10D86000FAF7B2FE043405462846FAF709FF0146E6
:10D8700008B9034838BD03222046FBF7BDFFF3E794
:10D880005456030830B585B0044608466946FAF791
:10D890009BFE043405462846FAF7F2FE014610B90D
:10D8A000054805B030BD00222046FBF7A5FF002843
:10D8B000F1D00248F5E700BFF8410308F041030842
:10D8C00038B504461020F2F7A9FC236861680546C4
:10D8D00040F8043BFBF786FF6268A368AB609200E8
:10D8E000E168E8680DF03AFB284638BD38B50D46CA
:10D8F000FFF7E6FF29460446FFF788FF204638BDBC
:10D9000038B50D46FFF7DCFF29460446FFF7A4FFB4
:10D91000204638BD08B50430FCF728F8004808BD9B
:10D92000545603082DE9F84380460E460C681AB990
:10D930002046FFF7C5FF04460125271D454502D3B4
:10D940002046BDE8F88356F82500844204D13846C5
:10D95000FCF70CF80135F1E70021FAF735FE8146B6
:10D960004846FAF78DFE01460028F3D002223846D9
:10D97000FBF742FFF4E7000008B50122FFF7D2FFF2
:10D98000004808BD545603080022FFF7CBBF000033
:10D990008A072DE9F84304460E4611D10D68214B44
:10D9A000EB1A5D425D41B36863B91DB11E49204663
:10D9B000F3F7C5FC1D492046BDE8F843F3F7BFBCAB
:10D9C0000025F0E71DB11A492046F3F7B8FC1949C4
:10D9D000DFF86C802046F3F7B2FC00270123726861
:10D9E000BA4206D814492046F3F7A9FCC5B1134939
:10D9F000E1E7F26852F827204FEA870972B1042A5A
:10DA00000CD01BB941462046F3F799FCF36801227C
:10DA100053F809102046FBF7CDFF00230137DEE75E
:10DA2000BDE8F88334580308CC590308D3590308D8
:10DA3000D9590308544403087607030833E403085C
:10DA40008340030810B5022204300C46FBF7D4FED5
:10DA500028B921460348FDF7CDFCF2F7BFFB024889
:10DA600010BD00BF8C4803085456030808B50430A5
:10DA7000FBF75CFF18B902490248FBF79FF908BDA4
:10DA8000AC5903088C4803088168C36810B54C681A
:10DA9000A34201D3002208E0CA6852F823200133D0
:10DAA000002AF5D0042AF3D0C360104610BD000050
:10DAB0000528F8B50E460AD006280DD0042825D131
:10DAC0008A681348134B002A08BF1846F8BD8868B7
:10DAD000400040F00100F9E711F0030016D10D6895
:10DAE0000D4B9D42F2D14F680446A74201D1680018
:10DAF000EFE7F36853F8241031B1042904D006206D
:10DB0000FAF786FB05EB60050134EEE70020DDE760
:10DB1000F8410308F041030834580308F8B50546F6
:10DB200010200C46F2F77AFB06460A4B46F8043BF7
:10DB3000294607463046FBF755FE04EB8505AC4207
:10DB400001D13846F8BD012254F8041B3046FBF7DA
:10DB500053FEF4E7705803082DE9F8430E46002100
:10DB6000054608461746FFF7D9FF00210446304610
:10DB7000FAF72AFD05F1040980464046FAF780FDD0
:10DB8000064668B94FB1E868F2F770FB63686B60EE
:10DB9000A368AB60E368084CEB602046BDE8F883FF
:10DBA000002231464846FBF727FE0028E5D03146E3
:10DBB0002046FFF717FEE0E754560308814202D0E3
:10DBC0000122FFF7C9BF0148704700BF5456030840
:10DBD000814201D1FFF774BE0022FFF7BDBF0122D1
:10DBE0000430FBF709BE70B50C46054611462046C9
:10DBF00002221E46FBF7C8FB3CB921462046FFF730
:10DC00008DFF04462560204670BD00210846FFF7C1
:10DC100085FF002104463068FAF7D6FC06463046F8
:10DC2000FAF72EFD01460028ECD02046FFF7D7FF7B
:10DC3000F5E700002DE9F04186B01646CDE9001069
:10DC40000546FFF7ADFD0246002835D101AB0121A5
:10DC50002048FFF7C8FF4FF001080546009C20460A
:10DC6000FFF79EFD024650BB6B4601211948FFF7A6
:10DC7000BAFF012704461EB1AA68A3689A4226D0BB
:10DC8000154B0293154BCDE9033500230593261D53
:10DC900002A8FFF7F9FE014698B9114EB8F1000F3E
:10DCA00002D0281DFBF762FE17B1201DFBF75EFEB8
:10DCB000304606B0BDE8F0814FF00008CEE70027FF
:10DCC000D9E700223046FBF797FD0028E0D1054E4A
:10DCD000E4E700BF705803087C55030889DA0008A0
:10DCE000F8410308F04103080B460022014618469C
:10DCF000FFF7A0BF0022FFF79DBF0000F7B5154654
:10DD0000CDE900128A0707460C461DD10E683F4B2D
:10DD1000F31A5E425E41222F6BD02846FFF740FD8A
:10DD200000286ED01B2F6CD8DFE807F04B515559F7
:10DD30005E6B6B6B6B202D346B6B6B456B6B6B6B26
:10DD40006B2810156B6B6B1B0026E4E729462046F9
:10DD5000FFF7D6FD03E029462046FFF739FF0446CA
:10DD600009E069460220FFF70FFEF8E736B1694681
:10DD70000220FFF75FFD204603B0F0BD2946204694
:10DD8000FFF7B4FDEBE729462046002EE0D0FFF771
:10DD900063FDF0E7AC4205D1002EECD12046FFF741
:10DDA0008FFDDCE7204632462946FFF7D5FE002EE0
:10DDB00008BF0446DFE7324669460220FFF7B2FD9E
:10DDC000CDE7012229462046FFF734FFC7E70122AD
:10DDD00021462846F8E7A268AB689A420FD1294647
:10DDE0002046FFF787FFBAE729462046FFF77CFF6A
:10DDF000B5E700222946201DFBF7FEFC18B9044CAC
:10DE0000B9E70024B7E7034CB5E700BF7058030833
:10DE1000F0410308F84103084A680149F3F7DCBD03
:10DE20002F46030870B50D460446104E1049F3F70F
:10DE300086FA012269682046FBF7BCFD3146204680
:10DE4000F3F77DFA0122A9682046FBF7B3FD3146BE
:10DE50002046F3F774FAE96820460122FBF7AAFD91
:10DE600020460449BDE87040F3F769BA83400308CF
:10DE7000985A030833E4030813681BB9922902D1A6
:10DE8000436813607047962901D18368F9E79529A3
:10DE9000F8D1C368F5E7000070B5064610201446B7
:10DEA0000D46F2F7BBF9034AC0E90254C0E9002667
:10DEB00070BD00BF5C5A030810B544680C608168EF
:10DEC0001160C2681A6010BD10F00302034603D14E
:10DED00000680749884209D013F0010007D132B920
:10DEE0001868044BC31A58425841704701207047C4
:10DEF00000420308FC50030810B50446FFF7E4FF96
:10DF000038B9A20704D12068034BC31A58425841BC
:10DF100010BD0120FCE700BFD44C0308044B0B608C
:10DF2000044BC1E901300023CB600846704700BFB5
:10DF30007C55030839DF000813B50446806800F0FB
:10DF40000303022B11D101A98008F3F746F8E36817
:10DF5000019A93423FBFC05C400040F00100013392
:10DF60002CBF0020E36002B010BD83680193C0683D
:10DF7000EDE7000008B5FBF705FDC2880449054838
:10DF8000972A0CBF42239723FDF76CFAF2F726F984
:10DF9000A85A0308984B03082DE9F04F834685B033
:10DFA00008680C46FBF7EEFC81466068FBF7EAFC6C
:10DFB000814502D06068FFF7DDFF206800F00303B1
:10DFC000022B3BD102A98008F3F707F806466068E8
:10DFD00000F00303022B35D103A98008F2F7FDFFFF
:10DFE0008246029ABBF1020F06EB020831D9A36800
:10DFF000234FBB422BD0012100914846314601F00E
:10E00000C1FF0546BBF1030F0AD0E368BB4207D04E
:10E01000012200923146029A484601F0B3FF804641
:10E02000039B53BBA8EB05012846F3F711FD013014
:10E03000400040F0010005B0BDE8F08F8368029316
:10E04000C668C4E783680393D0F80CA0C9E73546D7
:10E05000D8E73546E4E7514628460CF0E9FF38B9E1
:10E0600001343546039AAE184645F4D96000E0E71E
:10E070002846F3F7D7FC0646F3E70024F2E700BF93
:10E080005456030801F00303022BF7B50746084670
:10E0900009D101A98008F2F7A0FF0446019B33B91A
:10E0A000164803B0F0BD8B680193CC68F6E7144BBB
:10E0B0009F4202D0134B9F420CD12546002616E00A
:10E0C000605DB8470028EBD00135019BAB42F7D823
:10E0D0000D48E6E70025F8E715F8010BF3F7D2FC49
:10E0E00028B115F8010CB84706460028D8D0019A87
:10E0F0002B1B9A42F0D8002EEAD1D1E7F041030859
:10E10000E51A0008F91A0008F84103080146014819
:10E11000FFF7B8BF711A000801460148FFF7B2BF08
:10E12000851A000801460148FFF7ACBF991A00089C
:10E1300001460148FFF7A6BFE51A0008014601485D
:10E14000FFF7A0BFF91A0008884230B513D2037850
:10E15000303B092B0FD8002313600A2510F8014B20
:10E160001368303C05FB03438142136003D00378FE
:10E17000303B092BF2D930BD012A13B50C4613D11F
:10E1800000F00303022B0BD101A98008F2F725FF51
:10E19000019B636042232060A360002002B010BD99
:10E1A00083680193C068F3E70023C1E900334FF0AF
:10E1B000FF338B600120F1E72DE9F84F98468F1867
:10E1C00004460D460B4600229F4217D8002A0CBF7A
:10E1D0002726222632462349DFF89890DFF898A0B8
:10E1E000DFF898B02046F3F7F7FBAF4210D832467D
:10E1F00020461C49BDE8F84FF3F7EEBB13F8011BAE
:10E20000272903D02229DFD12726E3E70122DBE7F4
:10E2100015F8012BB24205D1134932462046F3F7D7
:10E22000DBFBE2E75C2A04D110492046F3F787F8CC
:10E23000DBE71F2A08D97F2A12D0B8F1000F01D0DE
:10E2400013060DD40749E9E70A2A01D10849ECE78A
:10E250000D2A01D15946E8E7092A01D15146E4E7E0
:10E260004946DBE74C5E03084B5E03084F5E03083C
:10E27000525E03085B5E0308585E0308555E0308A0
:10E280002DE9F8430D461949194FDFF87480DFF87E
:10E29000749016460446F3F752F82E44AE4205D861
:10E2A00020461249BDE8F843F3F749B815F8012BA9
:10E2B000222A01D05C2A04D139462046F3F78CFB90
:10E2C000ECE71F2A01D90B49F7E70A2A04D10A49CA
:10E2D0002046F3F734F8E1E70D2A01D10749F7E7C3
:10E2E000092A01D14946F3E74146E6E7425E0308C1
:10E2F0004B5E03084C5E0308525E0308555E03083C
:10E30000445E0308585E030801F00303022B73B553
:10E310000446164608460DD101A98008F2F75DFEB5
:10E320000546032E0AD1019A29462046FFF7A8FF89
:10E3300002B070BD8B680193CD68F2E7042E06D160
:10E340002B46019A07492046F3F746FBF0E70649BA
:10E350002046F2F7F4FF0123019A29462046FFF7F1
:10E360002BFFE5E7A46003080A1C03082DE9F0472A
:10E370009942814692461F46DDF8208013D3B8F1BA
:10E38000000FA1EB0304D6BF25460025002409EBAE
:10E3900005063A46514630460CF04AFE20B1A542E9
:10E3A00001D04544F3E700263046BDE8F087000081
:10E3B0002DE9F04F824687B008680D46CDE902236B
:10E3C000FBF7E0FA07466868FBF7DCFA874202D001
:10E3D0006868FFF7CFFD286800F00303022B3FD1E8
:10E3E00004A98008F2F7F9FD0446686800F0030309
:10E3F000022B39D105A98008F2F7EFFD8146049A76
:10E40000BAF1020F04EB020835D92549AB688B42FB
:10E410008B462ED0012100913846214601F0B2FDF5
:10E420000646BAF1030F0AD0EB685B4507D001221C
:10E4300000922146049A384601F0A4FD8046B0457A
:10E4400009D3029B00934A46059BA8EB0601304680
:10E45000FFF78CFF88B9039BF3B11248FAF7CEFCA3
:10E4600083680493C468C0E783680593D0F80C9070
:10E47000C5E72646D5E72646E1E70B4B9F4209D183
:10E4800001462046F3F7D7FA400040F0010007B0FC
:10E49000BDE8F08F001BF7E74FF0FF30F7E700BF54
:10E4A00054560308D45F0308406103080023012287
:10E4B000FFF77EBF00234FF0FF32FFF779BF012344
:10E4C0001A46FFF775BF01234FF0FF32FFF770BF09
:10E4D000F8B50746102015460E46F1F79FFE044694
:10E4E0000760856076B129463046F2F78BFC6060A4
:10E4F000681CF1F793FE2A46E06031460CF02EFDD1
:10E50000002242552046F8BD08B5F2F7C9FC80004C
:10E5100040F0020008BD0000194B984270B5064655
:10E520000D460FD1D1E90110F2F78AFC044648B13B
:10E530002846F2F72FFEA40000232B6044F00204CB
:10E54000204670BD1020F1F769FE696881600446BD
:10E550000660A868F2F756FC69682B6860600131B4
:10E56000994208D1AB68E360D4E9022100238B54BF
:10E57000AB602B60E4E7A868F1F76BFEE060F3E7BF
:10E58000406103082DE9F0418AB004460191FBF790
:10E59000F9F904F00303022B064630D102A9A008C2
:10E5A000F2F71BFD0746019A364B12F0030F05D117
:10E5B00012689A4209D034498A4206D0DC68314850
:10E5C00001AB00220121A047019004AA03A90198F0
:10E5D000FBF770FB00242546039BA34213D8294672
:10E5E00006A8F2F7BAFD089C0025039BAB4228D889
:10E5F00006A93046FFF790FF0AB0BDE8F081A36896
:10E600000293E768CFE7049B53F82400FBF7BAF9BD
:10E6100086424FEA840802D01C48FAF791FD0CB1FB
:10E62000029B1D44049B53F8080000F00303022BD7
:10E6300005D18008F2F7C7FC05440134CCE78068B7
:10E64000FAE735B12046029A39460CF087FC029B66
:10E650001C44049B53F8250000F00303022B0CD14B
:10E6600005A98008F2F7B9FC01462046059A0CF08E
:10E6700075FC059B01351C44B7E783680593C168A9
:10E68000F3E700BF945203081064030828600308EE
:10E6900070B500F00303022B86B004460D4626D168
:10E6A00001A98008F2F799FC06462846FBF756FABE
:10E6B000019B8342054617D2014602A8F2F74DFDA1
:10E6C0002A46202104980CF08DFC019A0498AD1A7A
:10E6D000314600EB55000CF041FC2046FBF752F9A7
:10E6E00002A9FFF719FF0446204606B070BD8368F3
:10E6F0000193C668D9E72DE9F04F04288FB00C4686
:10E7000018D1C868FBF72AFA18B920680FB0BDE81D
:10E71000F08F40EAE07320680393FBF733F905902C
:10E720006068FBF72FF9059B9842054605D06068A5
:10E73000FFF720FC4FF0FF33EDE7A068FBF722F96D
:10E74000854201D0A068F3E7206800F00303022BA4
:10E750002CD107A98008F2F740FC8346606800F0DE
:10E760000303022B27D108A98008F2F736FC049096
:10E77000A06800F00303022B22D109A98008F2F758
:10E780002CFC8246DDE907329A42BED80026DDE93C
:10E790000753002B5CD126B1099A514630460CF044
:10E7A000DDFB099F4FF00109D8462FE083680793EE
:10E7B000D0F80CB0D2E783680893C3680493D7E716
:10E7C00083680993D0F80CA0DCE7029A02B9013300
:10E7D000A3EB080536B12A464146F01902930CF026
:10E7E000BDFB029B3D4436B1099A02935146701914
:10E7F0000CF0B4FB029B099F089A2F44079D03EB82
:10E8000002085D44A5EB080509F10109039B994540
:10E810000DD065B1089B029301230093049A029BDB
:10E8200029464046FFF7A2FD03460028CDD126B178
:10E830002A464146F0190CF091FBE91966B9B9F185
:10E84000000F3FF462AF0AA8F2F787FC0C9E9EE728
:10E850004FF000094F46A7E70AA90598FFF75CFEAD
:10E8600054E72DE9F04101F00303022B86B0804606
:10E870000C4616D101A9A008F2F7AFFB0646019994
:10E8800002A8F2F76AFC049F0025019BAB420CD85A
:10E890002046FBF777F802A9FFF73EFE06B0BDE879
:10E8A000F0818B680193CE68E9E7705DC0477855C9
:10E8B0000135EAE701460148FFF7D3BF0D1B000809
:10E8C00001460148FFF7CDBF1D1B000838B50446BF
:10E8D0000D46F2F7B5FA30B92A4621460448BDE89C
:10E8E0003840FFF7F5BD800040F0020038BD00BFA2
:10E8F00040610308F0B5074687B00D461E46144632
:10E900000AB1FAF7E5FD062221462846FAF73CFD52
:10E91000002D4AD0012D0FD16A46102102A8F2F72E
:10E920002DFC316868462246FBF744F802A93846B8
:10E93000FFF7F2FD07B0F0BD3068830726D102680B
:10E940001B4B9A4222D14668D0E9025426B9294687
:10E950002046F2F757FA064629462046F3F7EDF827
:10E9600018B900211348FAF729FA29462046F2F788
:10E9700067FA18B1800040F00200DBE71020F1F7E1
:10E980004DFC0760C0E902544660D3E702A90122AA
:10E99000FBF7B2FADDE90201F3F7CFF80028E0D087
:10E9A000DDE90201FFF792FFC4E70620C2E700BFDE
:10E9B000645E0308D44B0308012807B50B4606D153
:10E9C0000B68009340F28623019302206B460146B8
:10E9D00000220348FFF78EFF03B05DF804FB00BF81
:10E9E000406103080A4601460148FFF771BD00BFB8
:10E9F000645E030870B50346086800F00302022A4B
:10EA00008CB00C4604D06ABB056839498D4229D1C7
:10EA1000023B012B69D8022A1ED108A98008F2F70F
:10EA2000DCFA0546206800F00303022B18D18008A9
:10EA3000F2F7C4FA044624B908992846F2F7E2F935
:10EA400004461020089EF1F7E9FBC0E90265294B56
:10EA5000036044600CB070BD83680893C568E1E74B
:10EA60004468E8E7012B40D8C30712D5441002D50B
:10EA70000020FAF7C3F9214608A8F2F76EFB00213F
:10EA800022460A980CF0AEFA08A91A48FFF744FD8E
:10EA9000E0E7012201A9FBF720FA20B1DDE901013D
:10EAA000FFF7A0FFD6E72068FBF78CF978B91021B3
:10EAB0000DEB0100F2F741FB206808A9F9F784FD8E
:10EAC00004462046F9F7DCFD20B904A9DDE7411032
:10EAD00004A8EFE7FBF742F8FF2801D90648C8E78A
:10EAE000C1B204A8F2F7AEFBEBE70448FAF728FB43
:10EAF00040610308645E0308E05A0308F95A0308FA
:10EB000008B508460AB1FAF7E3FC21B11946BDE899
:10EB10000840FFF76FBF014808BD00BF145B030842
:10EB2000012807B50BD10B68009340F286230193AF
:10EB300069460220FFF75EFF03B05DF804FB002882
:10EB4000F8D10148F8E700BF145B03080B461146F3
:10EB5000034A8242184601D1FFF7B8BEFFF742BF11
:10EB6000406103082DE9FF4102AB0C460193244BA1
:10EB70000093043101230138FAF734FC2068FAF7D6
:10EB800001FF002180460846FEF792F907462068FB
:10EB900000F00303022B0CD103A98008F2F71DFA41
:10EBA0000146039D0D44A94207D3384604B0BDE891
:10EBB000F08183680393C168F3E70B461A780A2A49
:10EBC0001C4603F1010319D00D2A12D163780A2BD8
:10EBD0000CBF022601269DF80830621A03B13244A8
:10EBE0004046FFF7B3FF01463846FDF7F9FEA1198D
:10EBF000D9E79D421C46E1D10026ECE70126EAE771
:10EC0000A05A03082DE9F04F8BB00C460590106810
:10EC10001646FAF7B7FE012C824642D07068FAF722
:10EC2000B1FE8245706801D0FFF7A4F900F003033C
:10EC3000022B31D109A98008F2F7CFF90390099B83
:10EC40000693306800F00303022B2FD109A9800836
:10EC5000F2F7C3F90490059BDDF82480012B4FF0F7
:10EC6000000409BF4FF0FF33012308F1FF3507937C
:10EC70001CBF07930025C346A1462746BBF1000FE2
:10EC800019D1B9F1000F27D1224B23489A4508BF6B
:10EC900006200BB0BDE8F08F83680993C368039327
:10ECA000CDE7062306931D4B0393CAE783680993B8
:10ECB000C3680493CFE7049A06990398012300934D
:10ECC0002A44FFF753FBA0B9B9F1000F16D1059BF9
:10ECD00043B908F1FF342F46621CD21B424511D1C3
:10ECE0003068D6E7059B012B2C4609D02F464FF004
:10ECF0000109079B0BF1FF3B1D44BFE72C46F8E7DA
:10ED00004F46E9E7049B3B4419465046FFF71EFF78
:10ED1000BFE700BF40610308145B030838610308C4
:10ED20000A4601460220FFF76DBF0A460146002051
:10ED3000FFF768BF0A4601460120FFF763BF0000E6
:10ED40002DE9F04188B00C4690460546FAF71AFEC8
:10ED500007462046FAF716FE874202D02046FFF704
:10ED600009F905F00303022B12D103A9A808F2F751
:10ED700034F9064604F00303022B0DD104A9A008C0
:10ED8000F2F72BF90246049B53B91C48FAF736F800
:10ED9000AB680393EE68EDE7A3680493E268F2E7DB
:10EDA000174BCDF800809F4214BF164B0623CDE9C8
:10EDB0000533B8F1010F07933046DDE903130CBFAB
:10EDC00005950795FFF7D2FA88B1851B2A4631468B
:10EDD0003846FFF7BBFEDDE90321521A2944CDE98D
:10EDE0000504521B31443846FFF7B0FE079005A9D1
:10EDF000032001F059FB08B0BDE8F08194600308DE
:10EE000040610308145B03080122FFF799BF4FF02C
:10EE1000FF32FFF795BF0000F0B585B005460C4600
:10EE20001746FAF7AFFD05F00303022B064615D18E
:10EE3000A8086946F2F7D1F80546042F26D1A307A2
:10EE4000009818D12268124B9A4214D101AA214687
:10EE500002F0C0FB30B90F48FAF7A0F9AB68009395
:10EE6000ED68EAE7DDE901123046521A2944FFF75E
:10EE70006DFE05B0F0BD0146002322463046FAF78C
:10EE800055FF285C400040F00100F2E70020F0E769
:10EE90005C5A0308864003082DE9F34100F003089B
:10EEA000B8F1020F04460D4601F0030712D1022FFC
:10EEB00005D1431A5842584102B0BDE8F08180089C
:10EEC000F2F77CF80646686886B178B1B0420DD09A
:10EED0000020F1E7022F4668F5D18808F2F76EF8B6
:10EEE000002EF2D1A3680093E46807E0B8F1020FA6
:10EEF000F8D1A0086946F2F770F80446022F0FD146
:10EF000001A9A808F2F769F80146DDE900239A4251
:10EF1000DED120460CF08CF8B0FA80F04009CBE747
:10EF2000AB680193E968F0E708B500F00303022B32
:10EF30000CD04BB90268064B9A4205D1D0E90210B9
:10EF4000BDE80840F1F7ACBFFFF714F8800808BD32
:10EF50004061030800F00303022B07B507D023B973
:10EF600003689A69064B9A4208D0FFF703F801A993
:10EF70008008F2F732F803B05DF804FBC068FAE7E6
:10EF8000BDEF000800F00303022B13B50C4607D0B9
:10EF900023B903689A69084B9A4209D0FEF7EAFF41
:10EFA00001A98008F2F719F8019B236002B010BD97
:10EFB00083680193C068F7E7BDEF00082DE9F04FC3
:10EFC0009DB01F2805460C46099201F0030640F04B
:10EFD000D98109AB0B9312F003054FF001030C9399
:10EFE000914608D11368AD4A934207D10BAA0CA9E8
:10EFF000484601F06FFB4FF0000904E0A84A934235
:10F0000018BF4FF000090C9B0493022E0B9B079333
:10F0100006D10DA9A008F1F7E0FF059000230AE052
:10F02000A3680D93E3680593002EF7D19D4B2268EA
:10F03000D11A4B424B4110AA102114A80693F2F7A3
:10F040009DF8059A0D9B144602EB03080027A04586
:10F0500005D8049BBB4200F08B8193481BE02178CC
:10F06000252904D014A8F2F7EDF80134EFE7661C67
:10F07000B04502D88D48F9F7C1FE6178252904D141
:10F0800014A8F2F7DFF83446EFE7282930D1B9F1B8
:10F09000000F02D18648FAF753F8A01C01460E462D
:10F0A00016F8013B292B1DD1091AFFF72DFA01464D
:10F0B0004846FBF771FF012705464FF0000B33462A
:10F0C0004FF0200A5E4698451C4613D80023A04501
:10F0D0000E9336D923782A2B72D1049BBB4225D8B4
:10F0E0007448D8E7884501D17348C4E73146D6E76C
:10F0F0000025E2E713F8012B2D2A02D146F0010684
:10F10000E1E72B2A02D146F00206DCE7202A02D1F1
:10F1100046F00406D7E7232A05D0302AD6D146F098
:10F1200040069246CFE74FF0100BCCE77B1C0893CC
:10F13000079B53F82700FAF711FD089B0E90013446
:10F140001F464FF0FF33A0450F9393D923782E2B02
:10F1500016D1601C80458DD963782A2B37D1049B4A
:10F16000BB42BDD97B1C0893079B53F82700FAF7D5
:10F17000F5FC089B0F9002341F46A0457FF67AAF3E
:10F1800035B9049BBB42ABD9079B53F827500137D5
:10F190002378672B40D8652B80F0AD80582B55D055
:10F1A0001DD8A3F14502022A40F2A580059A4349E1
:10F1B0004348A41A00941A46FCF754F9F1F70EF8E4
:10F1C00020460EAA4146FEF7BFFF0446B9E70023DA
:10F1D0000FAA41460F93FEF7B7FF0446CDE7632B16
:10F1E0003FD0642BE2D1AA0709D12B68354A93425C
:10F1F00005D12846FCF758FBFCF782FF05460F9B1C
:10F2000003930E9B0096CDE901A30A2261232946B0
:10F2100010A8F2F761F928E7732B13D8722B78D274
:10F22000692BE0D06F2BC1D1BBF1000F01D046F4A8
:10F2300004760F9B03930E9B0096CDE901A3082251
:10F240006123E4E7752BCED0782BAFD10F9A0392D0
:10F250000E9A46EA0B06CDE901A20096173B102252
:10F26000D5E705F00303022B04D08BBB2B68164AAD
:10F2700093422DD118A92846FFF784FE189A012A37
:10F28000014601D0114806E70E9B0193202300930D
:10F29000334610A8F2F762F8E7E600BF10640308EF
:10F2A0002C450308645E0308DD5B0308245B030848
:10F2B000365B0308605B03084A5B0308A85B03082E
:10F2C000104C0308D44C030840610308835B030817
:10F2D0002846FEF7F9FD60B12846FAF73FFC0E9B81
:10F2E0000193202300938DF860003346012218A972
:10F2F000CFE77048CFE62846FAF7C4FC0F9B217889
:10F3000001930E9B00933246534610A8F2F7EEF994
:10F31000ABE612AA102118A8F1F730FF2378722B60
:10F320000CBF0122002208D0069B33B1AB0704D1E9
:10F330002B6861498B4208BF0422294612A8FAF7BC
:10F3400039FB0F9B199A002BB8BF0F920F990E9B98
:10F3500001938A424FF02003009328BF0A463346A8
:10F360001A9910A8F1F7FAFF18A8F1F713FF7CE635
:10F370005148524B069A14A9002A08BF1846FFF7B5
:10F38000CBF819E00846FAF7FDFA022E074616D127
:10F3900012A9A008F1F721FE80461C2D099823D15F
:10F3A00014A9FAF70DFC38B1149B002B0CDC434C6C
:10F3B0004348A74208BF06201DB0BDE8F08FA368F0
:10F3C0001293D4F80C80E8E7129918A85943F1F782
:10F3D000C4FE1A9B009301214046149B129A02F02E
:10F3E000E4F818A93846CAE7FAF7CCFA8742099830
:10F3F00015D100F00303022B0CD118A98008F1F7F6
:10F40000ECFD8146189E0E2D26D016D8042D48D925
:10F410000020D1E783681893D0F80C90F2E7264BD0
:10F420009F4208D1012218A9FAF757FD0028C3D03E
:10F43000DDE91896E7E7FEF79DFD1A2D0CD0222D89
:10F44000E6D1012300934A46334612994046FEF71F
:10F450008DFF20BB1B48AFE7129B3BB90998FAF719
:10F4600091FA874202D1099C2046A5E7002EFBD0E5
:10F47000129918A83144F1F770FE129A1A98414671
:10F480000BF06CFD129B1A983246494618440BF05B
:10F4900065FD18A93846FFF73FF80446E4E70A4837
:10F4A0008AE700964B46129A4146284602F020F918
:10F4B000CFE700BF995B0308645E0308406103085F
:10F4C000145B0308F0410308F84103082DE9F74FE6
:10F4D00005460868DFF840A10C46FAF753FA012DFB
:10F4E000814625D9022D676823D0A068FAF736FB3C
:10F4F000064600210846FDF7DBFC8046206800F048
:10F500000303022B18D169468008F1F766FD044613
:10F51000009D5745254447D1AC4227462DD2387827
:10F520000134F2F7A5FA0028F6D19EB3BA460AE0F4
:10F5300057464FF0FF36DCE783680093C468E7E77F
:10F540005545544607D954460AF1010A2078F2F786
:10F550008FFA0028F4D0E21B39464846FFF7F6FA46
:10F5600001464046FDF73CFAA54206D9A54227468A
:10F5700007D1002E0CDCAF42D7D3404603B0BDE824
:10F58000F08F38780134F2F773FA0028EED1F0E703
:10F59000013EF0E73946EA1B4846FFF7D7FA014635
:10F5A0004046FDF71DFAE8E73846FAF7EBF98145E2
:10F5B00002D03846FEF7DEFC01A93846FFF7E2FC30
:10F5C000019B83469BB91348F9F718FC2F463A1B59
:10F5D00021464846FFF7BAFA01464046FDF700FAD1
:10F5E000AF42CAD2019C002E3C4400DD013EDDF852
:10F5F00004A02746002EE9D007EB0A039D42E5D37D
:10F600005246594638460BF013FD0028DFD001372B
:10F61000F0E700BF94600308545603082DE9F04F4B
:10F62000022885B007460D4606D8FFF74FFF05466E
:10F63000284605B0BDE8F08F0868FAF7A3F98246BE
:10F64000D5E9000600F00303022B0CD102A98008C3
:10F65000F1F7C3FC8146A868FAF780FA041E07DABE
:10F6600029463846E1E783680293D0F80C90F2E728
:10F6700004F1010800214046FDF71AFC274B9E4289
:10F68000054602D12648F9F789FD03A93046FFF760
:10F6900079FC039B834613B92248F9F7AFFB029E1E
:10F6A0004E44039BF71A5CB1B94509D81A4659462E
:10F6B000384601930BF0BCFC019B00B3013FF2E71D
:10F6C000A6EB090249465046D5F80CB0FFF73EFAC2
:10F6D000A7004BF82400002CAAD0A8EB0404E8688B
:10F6E000A6003246C1190BF065FC6A68E868121B77
:10F6F0009200002130440BF075FCAC6098E7EA689A
:10F700000192F21BD21AF9185046FFF71FFA019B1B
:10F710003E4643F82400013CC3E700BF54560308AB
:10F72000D8600308946003082DE9FF41804608680B
:10F730000D46FAF727F90746286800F00303022B65
:10F7400026D102A98008F1F748FC044603A968689D
:10F75000FFF718FCB8F1020F06461DD901230093EC
:10F76000029AAB682146384600F00CFC039A029BD3
:10F77000041B14449C4211D831460BF059FC084B31
:10F78000084A002814BF1846104604B0BDE8F081AE
:10F7900083680293C468D9E72046E7E70048F4E7A6
:10F7A000F0410308F841030873B50646086800F005
:10F7B0000303022B0D460ED169468008F1F70DFCBC
:10F7C000044601A96868FFF7DDFB022E014606D951
:10F7D0000C48F9F7E3FC83680093C468F1E7DDE9BE
:10F7E00000329A420BD89B1AE0180BF021FC064B12
:10F7F000064A002814BF1846104602B070BD0248E1
:10F80000FBE700BFA85F0308F0410308F8410308C5
:10F810002DE9F04F2DED028B95B08946059092466B
:10F82000102108AA0CA80493F1F7A8FC9FEDB48A54
:10F83000D1450AD30CAB0FCB059C84E80F002046C2
:10F8400015B0BDEC028BBDE8F08F4F4617F8011BD9
:10F850007D290DD1574508D299F801107D2904D191
:10F860000CA8F1F7EFFCB94607E0A648F9F7C6FA8D
:10F870007B2905D00CA8F1F7E5FC09F10109D7E7D0
:10F8800057451BD299F801107B29E9D07D2900F05A
:10F890004882212900F045823A2900F04282394607
:10F8A0000A787D2A0B4601F1010103D0212A01D0FB
:10F8B0003A2A01D11E4637E25145F1D19248D5E7A7
:10F8C0005A1C92451BD95D78A5F17202012A16D8FF
:10F8D00002339A45F2D91A783A2A40F01F8203F18E
:10F8E00001095B787D2B13D04946012251450B4617
:10F8F000E4D211F8010B7B2803D10132F6E78348EB
:10F90000B4E77D28F2D1013AF0D14C46994602E0A5
:10F91000CA45D3D9002499F800307D2B01D07C480A
:10F92000A4E7002F45D0002338781093F2F7B4F8FD
:10F93000D8B93B46B342984605D213F8012B2E2A7C
:10F9400001D05B2AF6D1A8EB07013846FEF7DCFDB3
:10F950000022074601462298F9F7FAFD38BB3946DE
:10F960006C48FBF747FDF0F739FC049B1B68002B44
:10F9700001DD69487AE710AA31463846FEF7E4FB14
:10F98000209A109B013A9A42804603D86349644802
:10F99000F9F714FA0133219A52F82370049A4FF0C0
:10F9A000FF331360B04514D25E48F9F7F7FB4768A0
:10F9B000F8E7049B1B68002B01DA5B4856E7209AA6
:10F9C000013A9342E2D20133219A52F82370049A09
:10F9D0001360ACB9002D00F08380733D18BF012582
:10F9E0000AAA102110A8F1F7C9FB39462A460AA82D
:10F9F000F9F7E0FF10A94D48FEF78EFD074601E03C
:10FA0000002DEAD14FF0FF3307930A93002C00F04A
:10FA1000B480F9F7ABFC229B0293219B0193209BBE
:10FA200000934A46049B214610A8FFF7F1FE10A858
:10FA3000F1F7F9FB119D90F8008083460544B8F179
:10FA4000000F5BD041463A480BF068FB002800F0FD
:10FA50005E810BF1010B00269BF800302B2B6DD043
:10FA60002D2B6DD0202B6DD104240BF1010B9BF8B5
:10FA70000030232B04BF0BF1010B44F010049BF862
:10FA80000030302B07D1B8F1000F08BF4FF03D0810
:10FA9000002E08BF3026584607AA2946FEF754FB19
:10FAA00003782C2B834604BF00F1010B44F02004A3
:10FAB0009BF800302E2B05D10BF101000AAAFEF7AE
:10FAC00043FB83469BF80050002D3DD02946194842
:10FAD0000BF024FB10B19BF80130ABB31648C5E620
:10FAE00025467DE7314612480BF018FB28B1334616
:10FAF0000BF1020B46469846AEE780464646ABE71A
:10FB00000000C842085C0308495C0308305C030835
:10FB1000615C03088C480308855C0308CF5C03081C
:10FB200050480308E85C0308055D030840610308CA
:10FB30004F5D0308545D0308645D0308022494E7E5
:10FB4000002492E7002492E710A8F1F723FBB8F114
:10FB5000000F08D13846FEF7CFF9002814BF4FF048
:10FB60003E084FF03C08002E08BF202614F0060F78
:10FB70000AD0732D04D16F4878E625462646E9E77A
:10FB8000632D01D16C4871E6B8F13D0F20D0B8F17A
:10FB90005E0F20D0B8F13C0F01D144F0010438468B
:10FBA000FEF792F978B3632D59D028D8472D15D890
:10FBB000452D28D2002D49D0252D24D03846F9F7DF
:10FBC000F1FE2A4603465D495D48FBF74BFCCAE659
:10FBD00044F04004E3E744F08004E0E7582D5BD0B4
:10FBE000622DEBD100230393079B0094CDE90163C1
:10FBF00002226123394608A8F1F76EFC3DE6672D25
:10FC00001ED8652D22D33846FEF776F9002861D03C
:10FC1000002D5DD06E2D5BD0472D47D8452D49D2A4
:10FC2000252DCBD13846FAF72DF80A9B0193079B77
:10FC3000009344F480723346662120EE080A43E0C4
:10FC40006F2D1BD0782D27D06E2DB7D100230393B5
:10FC5000079B0094CDE901630A226123CAE7384675
:10FC6000F9F77CFF079B8DF84000CDE90063012286
:10FC7000234610A908A8F1F771FBFEE5E3064FF053
:10FC800000030393079B48BF44F40074CDE901636C
:10FC9000009461230822ADE700230393079B00949F
:10FCA000CDE901631022A5F11703A3E7A5F16503D0
:10FCB000022B83D83846F9F7E5FF0A9B0193079B8F
:10FCC000009322463346294608A8F1F70FFDD4E5F4
:10FCD0006725EFE7B8F13D0F01D11A48C6E515B128
:10FCE000732D7FF46BAF10A93846FFF74BF90A9BD1
:10FCF000109A002BB8BF0A920A9B9A4288BF1093B1
:10FD0000079B109ACDE9006301462346B2E79BF8B2
:10FD10000160002E7FF4E6AEB0469DE64FF000098C
:10FD2000F3E53B4600273E461A78212A3FF4C8AD4A
:10FD30000025D0E57D5D0308A95D0308DC5D0308AF
:10FD4000104C03080D5E030870B50546086800F006
:10FD50000303022B8AB00C46164617D104A980086B
:10FD6000F1F73BF90146049A009500230A440593F4
:10FD700006A805ABCDE90146FFF74AFD2068F9F773
:10FD800001FE06A9FEF7C8FB0AB070BD83680493A4
:10FD9000C168E8E707B501A9FFF7F4F80199FEF794
:10FDA000B3FB03B05DF804FB044B0B60044BC1E9EB
:10FDB00001300023CB600846704700BF7C55030824
:10FDC000C5FD000873B50546806800F00303022BEB
:10FDD00015D101A98008F1F700F9EC68019B9C425C
:10FDE00011D204442046F1F71DFE061B3146204681
:10FDF000FEF78AFBE9683144E96002B070BD8368B0
:10FE00000193C068E9E70020F7E7000001F0030371
:10FE1000022B13B5044608460AD101A98008F1F760
:10FE2000DCF8042C08D0052C0DD0002002B010BD49
:10FE30008B680193C868F4E7019A0648064B002ACC
:10FE400008BF1846F2E70199F1F702FE400040F0C2
:10FE50000100EBE7F8410308F041030801F0030358
:10FE6000022B2DE9F74F0446154608460ED101A98D
:10FE70008008F1F7B2F80646032D019A0AD13146FF
:10FE80002046FEF7FDF903B0BDE8F08F8B680193C3
:10FE9000CE68F1E72DB9334630492046F1F79CFD95
:10FEA000F1E706EB020833460022984516D8002AEF
:10FEB0000CBF272722273A462949DFF8BC90DFF8F4
:10FEC000BCA0DFF8BCB02046F1F786FDB0450FD8E6
:10FED0003A4623492046F1F77FFDD4E713F8011B8A
:10FEE000272903D02229E0D12727E4E70122DCE7F4
:10FEF0003046F1F77EFD05463046F1F793FDAF42FF
:10FF0000064605D117493A462046F1F765FDDDE77B
:10FF10005C2D04D114492046F1F711FAD6E7A5F17A
:10FF200020035E2B02D82A460D49EDE70A2D01D1A8
:10FF30000E49F0E70D2D01D10D49ECE7092D01D156
:10FF40000C49E8E7FF2D2A4601D85946DCE7B5F50C
:10FF5000803F34BF51464946D6E700BFA46003083E
:10FF60004C5E03084B5E03084F5E0308525E0308B5
:10FF7000555E0308585E0308A8620308445E030840
:10FF80005B5E0308F7B51E462C4B9DF8207083423C
:10FF90000D46144608D13B4632462146F9F7C6FEC7
:10FFA0000544284603B0F0BDF3070CD57610019642
:10FFB0000199002905EB040229DA013A00201346D1
:10FFC00089B9551CEDE701A93046F9F7F9FD00287C
:10FFD000EED13046F9F7E6FC194902461948FBF71D
:10FFE00041FAF0F7FBF8AA4207D200B10191002FC5
:10FFF000D7D115491548F8F7E1FE1B7803F0C00387
:020000040801F1
:10000000802B02F1FF321CBF01310120D7E7002411
:10001000954205D304B10191002FEAD01546C0E7FF
:1000200011F1FF31BDD3681C0124054601302B7846
:1000300003F0C003802BF8D0EAE700BF645E03083A
:100040007C610308984B0308A46103085048030827
:10005000F0B587B004460D461746F9F793FC04F057
:100060000303022B06461BD1A00802A9F0F7B5FF37
:100070000446042F53D1AA073AD12A68294B9A4241
:1000800036D105AB284604AA03A9FDF715FF264D76
:10009000059BAB4208D0032B06D02448F9F77EF825
:1000A000A3680293E468E4E7039BAB421AD0012201
:1000B00000922146029A3046FFF764FF0746049BF0
:1000C000029AAB4210D00121009130462146FFF741
:1000D00059FF87420AD8C21B39463046FEF736FD23
:1000E00007B0F0BD2746EAE7A018F2E70620F7E7D9
:1000F00000230093029A2B4621463046FFF742FF29
:100100000278130608D40121FEF7FEF9E8E7013171
:100110005B081A42FBD1F7E740230121F9E70020F1
:10012000DEE700BF5C5A0308545603088640030804
:10013000086801F0ABBB000030B40A460D68054CFE
:100140000549064B8D420CBF2146194630BCF1F7DC
:1001500043BC00BFAC630308FC620308BF63030831
:100160002DE9F84345680446884616461F4615B9EA
:100170002148F8F743FE2B7BDB0711D5D5E90109B0
:10018000F0F74CF86368A8605A68986849460AF026
:10019000E5FE6268117B00236FF300011173E360D9
:1001A000A568AD1921D26068D0E90017A94203D231
:1001B0004160691AF1F72CF8A268BA4206D963685F
:1001C0009868D21B002138440AF00CFF63689868D5
:1001D000A3683246184441460AF0C0FE6368A56031
:1001E0005A68AA4238BF5D6003E01B233B604FF0B2
:1001F000FF363046BDE8F883E4630308F0B50746F0
:1002000085B010201E460D46F0F708F8002304467E
:100210000760C0E90233002D3AD03068C20705D428
:10022000830713D102681B4B9A420FD1F9F796FC52
:100230000025F0F7BAFF606025B30023DDE9011265
:100240002046FFF78DFF0023A3601BE0012201A9D8
:10025000F9F752FE336803F00302022A05D0A2B96F
:100260001B689A690C4B9A420FD11020EFF7D6FF0A
:10027000DDE901216060F0F778FF6368029A5A6057
:100280003368E360204605B0F0BD02980125D0E751
:100290001020CEE7FC500308BDEF00080229F8B596
:1002A000044605D0042923D001291CD1002024E0D4
:1002B0005668012E10D0022E10D000201568291883
:1002C0002CBF0127002766B1002D0ADA884238BF0B
:1002D0000021A1601160E9E78068EFE741684868A4
:1002E000ECE7002FF5D016221A604FF0FF3004E043
:1002F0004068F0F765FF00206060F8BD70B5054606
:1003000008466E6816B90B48F8F778FD7468A96856
:100310008C420DD9641A9442B36828BF144619441C
:1003200022460AF01BFEAB682344AB60204670BD3A
:100330000024FBE7E463030838B5436813B90848B1
:10034000F8F75CFD0568074C0748D3E90121074B26
:1003500085420CBF20461846BDE83840FEF7F6BB84
:10036000E463030840610308FC620308645E030859
:10037000D0E902130246486883423FBF981C01330C
:1003800051F82000D36028BF00207047044B0B6059
:10039000044BC1E901300023CB600846704700BF21
:1003A0007C55030871030108032A2DE9F84304462C
:1003B0000F46154612D11649F0F7C1FFDFF86490D9
:1003C00007F1080800267B68B3420CD8032D17D12B
:1003D00010492046BDE8F843F0F7B1BF0E49F0F7E9
:1003E000AEFF0125EAE71EB149462046F0F7A7FF18
:1003F0002A4658F8041B2046F9F7DCFA0136E2E7F2
:10040000012B03D105492046F0F799FF0449E0E7A5
:1004100081400308BE9803089D5A03080C64030832
:1004200033E403088340030810B40C680B4602460B
:10043000616804F108005DF8044B01F0DDB90A467B
:10044000083050F8041C01F00BBA0000052870B504
:100450000D461ED0062808D004281DD14A680F4832
:100460000F4B002A08BF184670BD0E4C01236A6866
:100470005E1C013B9A4203D8600040F00100F3E7A4
:1004800055F826100620F7F7C3FE334604EB600448
:10049000EDE748684000F0E70020E5E7F841030891
:1004A000F04103080464030838B50D46044690B1D2
:1004B00002308000EFF7B2FE084BC0E900344DB1C6
:1004C00000F10802002355F8231042F8041B013301
:1004D0009C42F8D138BD0248FCE700BF1064030815
:1004E00004640308F0B51C2885B004460E46154682
:1004F00009D80123354F83401F402BD1344A1A407D
:100500001AB9DB0642D1002421E02846F9F73AFA6D
:10051000304900F03DFF0028F5D06B68706839461F
:100520001844FFF7C1FF726800F10803920006F15A
:100530000801044618460AF011FD6A68034670680F
:10054000920005F1080103EB80000AF007FD204648
:1005500005B0F0BD03A91046F9F732FB0028D2D050
:10056000039B002B10DD706800215843FFF79CFFB0
:1005700000F10803044600937268039B042106F10E
:10058000080001F012F8E2E7134CE0E72846F9F71B
:10059000F9F9124B426A9A4209D028460D4900F0F7
:1005A0007EFF054618B9022CADD10D4CCFE76B6824
:1005B0000093726805F1080306F10801204601F076
:1005C000CDF80028F1D0074CC1E700BF00000110B2
:1005D0000040000410640308046403088D0301084C
:1005E000F0410308F8410308042A7FB504460D468C
:1005F0002BD111F0030640681DD10A68144B9A42B2
:1006000019D101AA00F0E6FF10B91248F8F7C6FDAB
:10061000DDE901303146C01AFFF746FF0199426813
:1006200008340546920004EB810108300AF096FC7C
:10063000284604B070BD2A46014600232068F9F719
:1006400075FB023054F82050F2E70025F0E700BFB8
:100650005C5A0308864003082DE9F0410C46204609
:10066000114602221E46F8F78FFE6CB33468A307CA
:1006700003D12268154B9A4217D01020EFF7CEFD18
:10068000002105463068F7F79FFF002480460426C6
:100690004046F7F7F5FF074650B920462946FFF7D1
:1006A00003FF04462846EFF7E1FD2046BDE8F08150
:1006B000A64205D8F1002846EFF7CBFD76000546A7
:1006C00045F824700134E3E7014CEEE710640308B9
:1006D0000464030843680B60083010607047EFF74C
:1006E000C5BD0000F8B50F46114C1249124B8842A7
:1006F0001AD0C268A24203D0386001242046F8BD57
:10070000406B98B102689A42F1D1466800F1080541
:1007100005EB86060024B542F0D2394655F8040BA5
:10072000FFF7E0FF0444F6E70024E7E70446E5E7C7
:1007300029100108E8540308106403082DE9F34167
:100740000C46804654F8045B002601A928680196EF
:10075000FFF7C8FF01982346C768324608F1FF310A
:10076000B8472861014802B0BDE8F081545603083B
:100770002DE9F047DFF8CC80314FDFF8CC9005460B
:100780000C46AB684BB1E268424506D0E35823B152
:10079000EB6804221A60BDE8F087A06BF0B16968CD
:1007A0008900002241F002010430F8F7D1FEA8B11F
:1007B000297C4268EB68286829B101460020BDE821
:1007C000F047F7F7F7BD38B1E5681E498D4203D011
:1007D0001B498C4218BF00692146F0E72B6893B98A
:1007E000646B002CD7D023684B4509D1A2465AF838
:1007F000046F04EB8604261D5AF8044FB24514D347
:10080000BC42BED1C7E72A7C002AE9D1E268424552
:10081000E6D0BC42E4D01869EA686968F7F726FEBA
:10082000EB681B68002BDBD0B5E7BC42E4D0214667
:100830002846FFF79DFFEB681B68002BDCD0AAE77A
:10084000E854030829100108106403082DE9F04357
:10085000136887B0064615466BBBD0E90120112905
:10086000CDE90101516B8DF81430CDE9033504BF9A
:100870000C230393B9B10A68174B9A421ED10C4658
:10088000DFF85C9054F8048F002747450BD054F8EC
:10089000041F494501D10137F7E701A8FFF768FFB9
:1008A0002B68002BF7D02B687BB1042B03D10B4BAB
:1008B0002B60B3686B6007B0BDE8F083084B9942CA
:1008C000F1D001A8FFF754FFEDE70549039301A814
:1008D000FFF74EFFEFE700BF10640308B46603089C
:1008E000E854030838B50446084611464FF0021292
:1008F0001D46F8F749FD0820EFF790FC2B68C0E98A
:10090000004338BD38B51C460546084611464FF031
:100910000412F8F739FD23689A0703D11A68074BC8
:100920009A4202D00020F8F70BFC0C20EFF776FC7F
:10093000D4E90013C0E90051836038BD6C66030838
:10094000CA880149F1F748B83A670308F0B50F467D
:100950008BB005460021CDE90372144606A810228B
:10096000CDE9011101AE0AF03DFB20230595079367
:1009700008967CB90B2305A829680693FFF7F8FEB3
:10098000019804280BD1224639462869F9F77AFAEA
:100990000BB0F0BD042C0CBF0F231C23EBE7002889
:1009A000F6D064B1042C14BF02200120324600218D
:1009B000F7F7EFFC034B042C18BF1846E8E70120BB
:1009C000F4E700BF545603082DE9F041DFF87080CA
:1009D00088B004460E461746002518F804300493E4
:1009E0003168CDF818D0182303A80593CDE9005538
:1009F000CDE902568DF81C50FFF7BAFE009B042B80
:100A000008D13A4631692046F8F700FA0B4B984274
:100A10000DD10BE033B16A46002101200297F7F7B0
:100A2000B8FCF3E7A4F109030B2B03D9002008B0AD
:100A3000BDE8F0810C34E4B2CFE700BF185A0308D8
:100A40009264030830B5254B0C46195C89B001AAA5
:100A5000CDE9034114210023CDE9051205462168A3
:100A60008DF81C3003A8CDE90133FFF781FE019812
:100A7000042807D121692846F7F7CAFB0346184620
:100A800009B030BDC0B12146F7F779FC062D034609
:100A90000CD0082DF3D1C107F1D4820703D101682E
:100AA0000F4A9142EBD00020F8F74AFBF9F77AF8A9
:100AB000400040F00103E2E7062D01D00023DEE70D
:100AC000B5232168049303A8FFF752FE019B002B76
:100AD000F4D1630043F00103D1E700BFA866030827
:100AE000FC50030870B5161E88B00C460CBF1D21C3
:100AF0001B2101AACDE9034108210023CDE90512FC
:100B0000054621688DF81C3003A8CDE90133FFF7B5
:100B10002FFE019B3BB936B91B23216803A8CDE901
:100B20000436FFF725FE0198042819D12069F8F74B
:100B300029FF144BC2689A4210D13EB12368D8886D
:100B4000F0F746FA01462846F0F7F9FB46F0800236
:100B500021692846F8F72EFF08B070BD3246F7E746
:100B600028B12146F7F70BFC00220146F1E72046A9
:100B7000F8F718FF2346024603492846F0F72CFFF2
:100B8000EAE700BF5DB200088064030838B50D468F
:100B900004460B49F0F7D3FB002269682046F8F7BA
:100BA00009FF08492046F0F7CAFBA9682046002241
:100BB000F8F700FF20460449BDE83840F0F7BFBB16
:100BC000C066030883400308456703082DE9F04128
:100BD000174612688CB005460C46002A7BD14FEAB6
:100BE000810848F00208019041460430F8F7B0FC53
:100BF000064610B143683B600BE0B32C1AD168681D
:100C0000C008FAF7E3F98046AB689E4204D3C7F800
:100C100000800CB0BDE8F081EB6853F8361003EBB0
:100C2000C60229B1042903D052684046FAF755FAA2
:100C30000136E9E7CDE909078DF82C00296807A8F6
:100C4000CDE90754FFF794FD3E68002E2FD02B68A6
:100C50009B889A07DDD516F0030415D132685B4BEB
:100C60009A4211D13046FCF77BFB594B0068984201
:100C700003D158495848F8F7A1F801AB22460121A1
:100C8000F7F758FB3860C4E703AAB9213046F7F7F5
:100C9000EDFB039B002BBCD001980590F8F772FE8A
:100CA00003AA069000210220F7F773FBEAE70E2C57
:100CB000AFD0CD2CADD0B12CABD003AA0E21019872
:100CC000F7F7D4FB039B002BA3D0CDF8148003AA25
:100CD00031460120E8E701687E688B889B0761D573
:100CE000002301AACDE9070407A8CDE90133CDE926
:100CF00009328DF82C30FFF73BFD0198002838D0E1
:100D000010F003081CD10268304B9A4218D1FCF74E
:100D100027FBCDE903562E4B56B9806898423FF425
:100D200078AF03AB32460121F7F704FB002362E7FB
:100D3000406898423FF46DAF03AB42460221F3E7AF
:100D400003AA5EB9B221F7F791FB039B93B1059516
:100D500003AA00210120F7F71CFBE7E7CC21F7F7F6
:100D600085FB039B93B10595069603AA00210220FB
:100D7000F1E75EB903AAB1212846F7F777FB039B99
:100D80008BB1A40044F002040594E1E703AACD214D
:100D90002846F7F76BFB039B7BB1A40044F00204E9
:100DA0000594E1E74EB9A10002221143281DF8F78E
:100DB000CFFB00283FF42DAFB8E7A100012241F09E
:100DC0000201281DF8F7C4FB4660AFE7D8550308B9
:100DD00054560308EC640308AC46030870B5C468B5
:100DE00034B9C28804490548FAF73CFBEFF7F6F935
:100DF000A446BDE87040604701670308984B0308AC
:100E0000F0B589B00E4601242C2100230390CDE9D2
:100E10000441054601688DF81C30174603A801AA55
:100E2000CDE901330692FFF7A3FC019B042B09D106
:100E30002869F8F7A7FD3A46C36A286931469847FA
:100E400009B0F0BD2046FBE7F0B589B001AE002443
:100E500003901322242305460F460168019403A83A
:100E60007460CDE9042306968DF81C40FFF780FCE2
:100E7000019840B1042808D12869F8F783FD394664
:100E8000436A2869984709B0F0BD3246214620469A
:100E9000F7F77FFAF7E7000040F23633984273B570
:100EA0000C4610D040F2C62398420CD08B0711D0CC
:100EB0000B4E0025204601236A4616F8011BF7F762
:100EC0003FFB009808B1012002E00135032DF1D16C
:100ED00002B070BD0A68034B9A42E9D1F3E700BF44
:100EE000C9660308D85503082DE9F041136886B098
:100EF00006461546ABB9172905D1C3889B0043F0B8
:100F000002032B600AE0CDE90101CDE9033201467D
:100F1000012301A88DF81430FFF72AFC06B0BDE8C4
:100F2000F081806B0028F9D003799C07F6D45768CC
:100F3000890000F1040841F0020447B90222214669
:100F40004046F8F705FB0028E8D02F60E6E7B388B5
:100F500099070ED439462046FFF79EFF48B1B38863
:100F6000DA0703D507490848F7F728FF43F00203DB
:100F7000B380012221464046F8F7EAFA6B684360E5
:100F80000023BEE7CC660308AC460308F0B58BB07F
:100F90000D461646002109221F461023CDE90311F4
:100FA0000590CDE906238DF8241003AB0168089362
:100FB000044605A8FFF7DCFB039848B92046F8F77C
:100FC000F1FC0C4902460C48FAF74CFAEFF706F927
:100FD000042807D13B46324629462069F7F7AAF98B
:100FE0000BB0F0BD009733462A460499F9F70AFC86
:100FF000F6E700BFE43A0308984B030870B50646CD
:10100000FFF770FB054604308000EFF707F9002179
:10101000044640F8046BF8F761FA0DB1014B236107
:10102000204670BDB46603082DE9F0478AB00DF183
:101030000C09002607460C4615460146182205A84D
:1010400098460C230396C9F804600596CDE906235B
:10105000CDF820908DF82460FFF78AFB0398019665
:1010600008B1042827D101A93846FFF7C7FF064673
:1010700000231122394605A8CDE90333CDE9062323
:101080000596FFF775FB039B002B5BD054EA050127
:101090003CD14A460846F7F77CF90746304B9F4259
:1010A00050D03846F8F77EFC2E4902462E48FAF713
:1010B000D9F9EFF793F854EA05020ED102AB0121FA
:1010C0000297F7F737F906463046F8F75BFC874298
:1010D000CED030460AB0BDE8F08704EB45060136B5
:1010E000B6003046EFF79AF8321F8246414640F884
:1010F000047B09F033FF53462A46611C0398F7F737
:1011000019F906465046EFF7B1F8DDE704EB45075D
:101110000237BF003846EFF781F8039B0360049B5A
:1011200043608146A7F108024146083009F016FFE6
:101130004A4629462046F7F72CF907464846EFF776
:1011400095F8ABE701980028C3D03269074B9A4263
:10115000BFD1C76843462A462146B8473061B8E741
:101160005456030801650308984B0308B466030846
:1011700000B589B0092110220023CDE904120390A3
:1011800001AA0168069203A8CDE901338DF81C304D
:10119000FFF7EEFA0198003018BF012009B05DF8A2
:1011A00004FB000011F0030F2DE9FF4707468846B6
:1011B000164602D00020F7F7C3FF0A684A4B9A424E
:1011C000F8D116F00305F5D13268484B9A42F1D1B7
:1011D000404602AA01A9FFF77DFADDE90104DFF824
:1011E00040A1DFF840912B4698422ED13C20EFF7EA
:1011F0002EF83F4B019AC0F800A0C0E902393D4BE0
:1012000003613D4B43613D4B83613D4BC3613D4BAE
:1012100003623D4B43623D4B85800446C780C362F9
:101220004AB1029B1968096B0163012A96BF1B68CA
:10123000C0F834804363A6631DB303A92046FFF7BB
:1012400051FA012834D93248B5E754F823108A07F7
:10125000B0D10A685245ADD1CA6832B9CA882D48A2
:101260002D49FAF7FFF8EEF7B9FF4A4506D18A880B
:1012700042F001028A8002F0020215430133B3E713
:101280000135A36B9A68AA42D7D9DB6853F83500B9
:1012900003EBC5020028F3D00428F1D05168FFF712
:1012A000FBFD0028ECD0A38843F00203A380C4E731
:1012B000A06B002262210430F8F74AF9054678B1A4
:1012C000436813F003020BD11B68D98840F21E3328
:1012D000994205D1031D01211048FFF703FB686007
:1012E000204604B0BDE8F087106403082C450308CD
:1012F000E50A01088D0F0108450A0108C90901081E
:10130000CD0B01084D090108490E0108010E010825
:101310008A650308984B030862650308F4650308AF
:101320006C6603082910010838B50D462846114699
:101330000C4A1C46F8F728F8012D04D0032D07D0DD
:101340000948F7F7FDFE2068BDE83840F8F71ABBFA
:101350002068FDF7E9FDD4E90112BDE83840FFF748
:1013600021BF00BF060002001E6703081FB5074B20
:1013700001934B6802930A468B680393014601A8C8
:10138000F7F7AAF805B05DF804FB00BF3066030864
:101390002DE9F041134E144F0D46A8421CD010F019
:1013A00003031BD10268B2421AD1406B90B10368AB
:1013B000BB42F2D1044654F8043F00EB830000F135
:1013C000040854F8040FA045E7D92946FFF7E0FFC9
:1013D0000028F6D0BDE8F0810120FBE70020F9E706
:1013E0001846F7E76C660308106403082DE9FF410F
:1013F0008B070746019108461AD10B68144A93429D
:101400000ED10123029301AB0393DDE90256DFF80D
:1014100054800024A5420ED10E4804B0BDE8F081EE
:101420000D4A934204D103AA02A9FFF753F9ECE74E
:101430000A48F7F785FE56F82410414505D038468E
:10144000FFF7A6FF08B90134E4E70548E5E700BF68
:101450006C660308F041030810640308296503085B
:10146000F8410308E8540308820708B503D102686D
:10147000044B9A4202D00448F7F762FEBDE80840E8
:10148000FFF7B4BF6C660308C064030810B50C46D0
:10149000F8F778FA2146BDE81040FFF7A7BF38B546
:1014A0000D460446F8F76EFA2946FFF771FF00B1C2
:1014B000206938BD2DE9F04106464068D8B10021C9
:1014C000FEF7F2FF06F108080446012572686B1E5C
:1014D0009A420AD958F8040BF7F7D2F801350746B3
:1014E00030B92046FFF7FBF83C462046BDE8F081C6
:1014F00044F82500EAE70446F7E700002DE9F0414B
:101500000F46BC1C114680460E4A3846A4001D46B4
:10151000F7F73AFF2046EEF781FE083CC0E9008766
:10152000064600F108072C44A54202D13046BDE82A
:10153000F081002155F8040BF7F746F847F8040B43
:10154000F2E700BFFEFF010070B504460D46F8F754
:1015500019FA2946036A04222046BDE8704018475C
:1015600070B504460D461646F8F70CFA3246036A83
:1015700029462046BDE87040184770B504460D4620
:10158000F8F700FA2946036A00222046BDE87040B9
:10159000184770B50D460446F8F7F4F92A468369F2
:1015A00021462220BDE8704018472DE9F041069DF4
:1015B00080461F4602FB01F60024BC4201D1BDE873
:1015C000F08128463246414609F0C8FC35440134D2
:1015D000F3E70000F0B585B005461646084603ABB4
:1015E00002AA01A9FCF768FC2E4F0398B84208D064
:1015F000032806D0F8F7B2FAB06020B92A48F7F706
:10160000FDFB0123B3600198B8421DD1B368002BE4
:101610001EDC6C1E0298B8421CD1B368002BCCBFF4
:1016200028460020002CB3681DDA2C1900D5DC17E1
:10163000002824DA2844002B40EAE07030DA013038
:10164000A04224DD601C22E0F8F788FA0446E1E7B6
:101650000024DFE7F8F782FA0028E3DBB368002B09
:10166000B8BF0130DEE7002B03DDAC4228BF2C46BB
:10167000DEE7DDD0A54298BF05F1FF34D8E7A842E8
:1016800028BF2846002B09DDA042B8BF2046013BF9
:10169000C6E900405842584105B0F0BDD0D1F6E748
:1016A000F2D1F4E754560308A46703082DE9F0418A
:1016B0008846002108469668D2E90047FBF7F8FB08
:1016C000002E054611DABC4202DA2846BDE8F08158
:1016D00058F824102846FBF783F93444F3E758F808
:1016E00024102846FBF77CF93444BC42F7DBECE7D6
:1016F00070B5022804461546049E11D1B24228D185
:101700001A460B461146AE423246184628BF2A46B4
:1017100009F08EFC022C0ED1B0FA80F0400970BDA9
:1017200028B1032805D032462E461546E8E70124A5
:10173000E9E70424E7E700280BDB0CD1AE4203D035
:101740002CBF01200020EAE714F1FF3018BF012070
:10175000E5E70020E3E70120E1E700002DE9F74F8E
:10176000022804461746DDF8308005D1424509D0ED
:10177000002003B0BDE8F08FB8B1032817D042466F
:10178000B84617461A460B461146B845C3461D468D
:1017900028BFBB460E464FF00009D94509D1B845D0
:1017A00023D02CBF01200020E3E70124EDE704242F
:1017B000EBE73346AA461968DAF800000193F8F718
:1017C0007BF904350436019B10B109F10109E4E706
:1017D000022CCDD01A68DAF80010E0B2F7F716FB49
:1017E000044C231A58425841C3E714F1FF3018BF84
:1017F0000120BEE7F84103082DE9F047814618684B
:1018000017461E460D46F8F7BDF8022F8246D6F859
:10181000048013D90123B2682946F8F787FA032F09
:10182000044606D029460123F2685046F8F77EFAAE
:101830000546A54204D80948F7F7E0FA0024F8E77E
:10184000414659F82400F8F737F908B90134F0E7B0
:10185000600040F00100BDE8F08700BFBE670308EC
:10186000F8B51746054600EB81060024B54203D1C2
:10187000600040F00100F8BD394655F8040BF8F758
:101880001BF90028F2D00134F0E7000013B503681B
:101890001B6B00229C68042101ABA047013002D1E0
:1018A0000198F7F76FFC014802B010BD54560308C9
:1018B00013B503681B6B00229C68012101ABA04794
:1018C000013002D10198F7F75DFC014802B010BD6C
:1018D000545603082DE9F0410B681B68012886B0B7
:1018E0000D461E6B26D94C686410611C22D021461F
:1018F00002A8EFF722FC631C02D0631E44B31C460F
:10190000012102A8EFF784FC0122014680463768D6
:10191000286801ABB847421C15D101980B2810D19B
:10192000039B012B10D102A8EFF734FC104806B03E
:10193000BDE8F081102102A8EFF7FFFB4FF0FF3464
:10194000D9E7F7F71FFC70B9012102A8EFF7D6FC21
:10195000337B084813F0010F074B02A908BF184654
:10196000FCF7DAFDE3E798F800300A2BC3D1EFE784
:101970005456030840610308645E030837B500212C
:1019800001900846FBF794FA044601A90120FFF7ED
:10199000A1FF0546F8F730FA20B129462046FBF7AB
:1019A0001FF8F2E7204603B030BD30B5054685B0DC
:1019B00048680C46F8F7D2F80023032D02900393F1
:1019C00005D0029B002B08DA1620F7F7DBFBA06896
:1019D000F8F7C4F803900028F3D0206803681B6B65
:1019E00002AA9C68022101ABA047013001D10198F5
:1019F000EBE70298FAF744FE05B030BD1FB50123AE
:101A0000019001A90320CDE90230FFF7CEFF05B018
:101A10005DF804FB2DE9F04715460268126B1E467F
:101A2000D2E900729DF82030002413F0020F8146A5
:101A3000884618BF1746346003F0010A6DB133467B
:101A40002A4641464846B84738B1431C08D1336856
:101A50000B2B02D10CB1002333602046BDE8F08788
:101A6000BAF1000F03D180442D1A0444E6E704467E
:101A7000F3E700002DE9F043012889B00E469046B7
:101A80001FD1D6F80090D9F800304FF4807104A827
:101A90001F6BEFF752FB069E4FF480744FF0000867
:101AA000224603AB314648463D68A847421C39D11F
:101AB00003980B2840F09A80B8F1000F42D14D48AE
:101AC00074E04868F8F74AF8411C0546D9D03368F5
:101AD0001B681F6B3B7BDB070446014604A872D5DD
:101AE000EFF72BFB0027002C5CD0214604A8EFF772
:101AF0008FFB00230093014603AB22463068FFF7BB
:101B000089FF039B804643B304A82146EFF7F6FB09
:101B100003980B286AD1059B002B43D104A8EFF74B
:101B200039FBCCE770B18442804402D9241A0644C0
:101B3000B6E74FF4807104A8EFF752FB4FF48074BE
:101B40000646ADE7CDF814803B7B2B4813F0010F20
:101B50002A4B04A908BF184626E084421BD8DDE9B9
:101B60000542D35D190624D503F0E001C02922D037
:101B700003F0F001E02920D003F0F803F02B0CBFB4
:101B8000042305233B44A34219D805F1FF351F4622
:101B9000E7D12C46A7E7211A04A8EFF7AFFBB8F16D
:101BA000000FDCD1144804A9FCF7B6FC09B0BDE86D
:101BB000F0830123E6E70223E4E70323E2E7E443BB
:101BC00023445C198FE7EFF7C8FACDF8008003AB28
:101BD0002A4606993068FFF71DFF039B43B104A80E
:101BE000EFF7D8FA03980B283FF469AFF7F7CAFA72
:101BF0000590A9E75456030840610308645E030892
