:020000040800F2
:1000000000000120B9A20208673D0208553D020820
:10001000693D0208793D0208893D020800000000A0
:10002000000000000000000000000000993D0208F0
:100030009B3D0208000000003D4202088542020884
:100040009FA10208093E0208153E02081D3E020853
:100050009FA102089FA102089D3D0208A33D02083E
:10006000A93D0208AF3D0208B53D0208356102080E
:100070004561020855610208656102087561020860
:1000800085610208956102089FA102089FA10208EC
:100090009FA102089FA102089FA10208BB3D020880
:1000A000313E0208373E0208493E02084F3E020830
:1000B000553E02085B3E0208613E0208A53E02086A
:1000C000AB3E0208B13E0208B73E02089FA10208FB
:1000D0009FA10208813E0208873E02088D3E020869
:1000E000DF3D02080F3E02089FA102089FA10208FF
:1000F0009FA102089FA102089FA10208A561020812
:100100009FA102089FA10208693E02089FA1020860
:10011000933E0208993E02089FA102089FA102088F
:10012000B5610208C5610208D5610208E5610208EF
:10013000F56102089FA102089FA102089FA1020881
:100140009FA102089FA102089FA102089FA1020887
:100150000562020815620208256202089F3E020835
:10016000BD3E0208C33E02089FA102089FA10208EB
:100170009FA102089FA102089FA1020800000000A1
:100180009FA102089FA102089FA102089FA1020847
:10019000034B1B685B681A69026018610020704796
:1001A000EC060020034B1B685B681A6912681A6131
:1001B000704700BFEC060020C4600561466187619E
:1001C000C0F81C80C0F82090C0F824A0C0F828B067
:1001D000C0F82CD0C0F808E0FFF7DABF08B50E4B26
:1001E0001B685A6813690BB923F082FB19685860C1
:1001F00011611846C468056946698769D0F81C8092
:10020000D0F82090D0F824A0D0F828B0D0F82CD086
:10021000D0F808E001207047EC06002010B500215E
:10022000044600F0FFFA18B914B120460CF08AFF1A
:1002300010BD002100F0F6BAFFF7F0BF10B50122A3
:100240000C4600F033FC18B914B120460CF07AFFCC
:1002500010BD00F02BBC00F0BBBB00002DE9F0434B
:100260002A4C00254FF00309D4F8F4710021013124
:1002700043189A0803F00303BA5C5B0042FA03F3E5
:1002800003F00303022BF2D0D4F8003209018A08EC
:1002900003EB001081B300EB820103681A0728D139
:1002A000D4F800229A4224D89A1AD4F804624FEA69
:1002B000921C120902F003079E424FEA470718D921
:1002C000D4F8F4E11EF80C8048FA07F303F00303B6
:1002D000012B0ED109FA07F747EA080704EB450896
:1002E0003F2D0EF80C709ABF0135A8F80C22C4F807
:1002F000083204308842D0D12DB1013D04EB4503D2
:10030000B3F80C02B0E7BDE8F08300BF4004002062
:10031000F0B4194ED6E97F53C01AC10904096B5CC9
:1003200004F007070122BA4023EA02036B54D6F80F
:100330009832D6F8F4518009984238BFC6F898022E
:10034000295C04F00303A00803275B0007FA03F30A
:1003500021EA03032B540134D6F8F451A00804F029
:100360000303295C5A0041FA02F202F00302022A56
:10037000EBD0F0BC704700BF4004002021F00F0319
:1003800070B5164A164D1C1AE400A2FB0424640A38
:100390000219A3EB8416C5F8FC2100212246C5E909
:1003A0008063C5E97D041FF08FF9A2000732D208EF
:1003B000D5F8FC0100211FF087F900234FF48031AC
:1003C0004FF0FF3205F52770C5F88C12C5E9A4324D
:1003D000C5F89832BDE8704024F02CBAF32C23FA0B
:1003E00040040020034AB2F88C320133A2F88C3268
:1003F000704700BF40040020034AB2F88C32013B32
:10040000A2F88C32704700BF40040020034BB3F8C1
:100410008C02003018BF0120704700BF400400204C
:10042000F8B51C4CB4F88C3200220133A4F88C329D
:10043000C4F89022C4F80822251D04F5E8760327A5
:1004400055F8042F130719D1D4F80002824215D3AE
:10045000101AD4F804124FEA901C000900F00303AC
:100460008A424FEA430309D2D4F8F41111F80CE0A0
:100470004EFA03F202F00302012A02D0AE42DFD1AB
:10048000F8BD07FA03F343EA0E0301F80C30FFF757
:10049000E5FEF3E74004002079B3F8B5041F174EDA
:1004A00004EB8105032754F8043F1A0719D1D6F845
:1004B0000002984215D8181AD6F804124FEA901C78
:1004C000000900F0030299424FEA420209D9D6F826
:1004D000F41111F80CE04EFA02F303F00303012BC0
:1004E00002D0A542DFD1F8BD07FA02F242EA0E02BD
:1004F00001F80C20FFF7B2FEF3E77047400400203C
:100500002DE9F04F824CD4F8F831D4F8082285B0A8
:100510009B00002A00F0868000264FF0030BC4F8F1
:100520000862002B68D0002002E00130984274D2AB
:10053000D4F8F471810800F00302795C520041FAAA
:1005400002F202F00302032AEFD1844600230022C4
:10055000013202EB0C014FEA910E01F0030117F892
:100560000EE049004EFA01F101F003010229EFD03B
:10057000D4F8001212014FEA920E01EB0C1C92B358
:100580000CEB8E0EDCF800703A0728D1D4F800226C
:10059000974224D3BA1AD4F804524FEA9218120997
:1005A00002F00301AF424FEA410118D2D4F8F491AE
:1005B00019F808A04AFA01F707F00307012F0ED136
:1005C0000BFA01F141EA0A0104EB430A3F2B09F857
:1005D00008109ABF0133AAF80C22C4F808720CF173
:1005E000040CF445CED193B1013B04EB4302D4F8A3
:1005F000F471B2F80CC2AAE7B4F88C320022013BC5
:10060000A4F88C32C4F8982205B0BDE8F08FD4F875
:10061000F83101309B0098428AD3D4F80822002A8E
:100620007FF47DAF002BE7D04FF0000E76464FF001
:1006300003094FF00108022704E0012930D00136F8
:100640009E42D9D24FEA960AD4F8F40106F0030587
:1006500010F80A206D0042FA05F101F003010229A9
:1006600000EB0A0C0DD00329E7D107FA05F522EAC1
:10067000050500F80A50D4F8F8314FF0000E9B0041
:10068000DDE7BEF1000FDAD009FA05F522EA05052B
:100690008CF80050D4F8F8314FF0010E9B00CEE7F3
:1006A000F308D4F8FC11019311F803E006F0070BEE
:1006B0004EFA0BF01944C307E6D53001D4F80022F6
:1006C00052F800C01044BCF1000F14D002AAB021AF
:1006D0000CF086F8DDE9013242B10CF057FFDDE99C
:1006E00002010CF039FF0CF067FF019BD4F8FC11FC
:1006F00011F803E0194408FA0BFB2EEA0B0E81F8FF
:1007000000E0D4F8F43103EB0A0C13F80A20BBE73D
:1007100040040020054BB3F88C2200210132A3F8DD
:100720008C22C3F80812FFF7EBBE00BF4004002084
:100730003B4BD3E980122DE9F047D3E97D760023C6
:10074000C0E90133C0E90333C0E90533521A02603E
:100750001D46B6009E469C461C461A4699461946BA
:10076000984617F8093049000B4103F00303012BA9
:1007700047D0002B3DD0022B02D10135456001341A
:10078000013296420ED04FEA920902F0030117F8A7
:1007900009304FEA410A43FA0AF313F0030301D088
:1007A000012BDED1012C11D0022C02D14169013183
:1007B00041618169A14238BF846196420FD0012B0B
:1007C00023D04FEA920902F00301CAE7016901311F
:1007D00001618169A14238BF84619642EFD1C4456D
:1007E00016D99642C0F80CC012D0E0464FF0000C6B
:1007F000E7E70EF1010EC0F808E00CF1010C1C4611
:10080000BEE7013545601C46BAE7E045EED2E8E7B1
:100810002D014FEA0E13C0E90153BDE8F08700BF78
:10082000400400200F302DE9F047060951D0674DF4
:10083000B5F88C32002B4CD1B5F88E32002B0C461B
:100840000CBF4FF0010E4FF0000E47D1D5F89802C3
:10085000D5F8F871874239D9D5F8F4C1411E614401
:1008600000221AE00132964253D913F00C0F1ED128
:100870000132964240F2A08013F0300F1CD10132B9
:10088000964240F29C8013F0C00F1AD1013296427A
:1008900040F298800130B84218D211F8013F13F0AD
:1008A000030FDFD013F00C0F4FF00002E0D013F075
:1008B000300F4FF00002E2D013F0C00F4FF00002F3
:1008C000E4D00130B8424FF00002E6D3BEF1000F91
:1008D00014D04FF000084046BDE8F087D5E9A423C6
:1008E0009A42B3D327F08CFAD5F89802D5F8F8716C
:1008F000874288BF4FF0010EAED8EAE727F080FAB2
:10090000D5F89802D5F8F87187424FF0010EA3D8B8
:10091000DFE78000811A012A01F1010703D1431C9E
:100920009B08C5F898324FEA970E07F003034FEA89
:1009300043081CF80E90012303FA08F3023143EA3E
:10094000090388420CF80E3013D34FF002084FEA27
:10095000910CD5F8F4E101F003031EF80C905B0054
:1009600008FA03F3013143EA090388420EF80C3018
:10097000EDD2D5F800A2D5F890324FEA07190AEB6C
:1009800009081E44120140460021C5F890621EF07D
:100990009BFEE3079FD50023D5F8FC114AF80930E8
:1009A000FA080123885C07F0070703FA07F70743F3
:1009B0008F544046BDE8F08780000130AAE78000F0
:1009C0000230A7E780000330A4E700BF4004002006
:1009D000F0B41B4EB6F88C327BBB70B3D6E97F53B4
:1009E000C01AC10904096B5C04F007070122BA4070
:1009F00023EA02036B54D6F8982283099342D6F86F
:100A0000F40138BFC6F89832C15CA50804F00303AE
:100A100003275B0007FA03F321EA0303435501347C
:100A2000D6F8F401A50804F00303415D5A0041FA29
:100A300002F202F00302022AEBD0F0BC704700BFC2
:100A40004004002010F00F030DD11749D1F8002207
:100A5000824208D810B4D1F80442844205D818461E
:100A60005DF8044B704700207047801AD1F8F441BC
:100A700081090209615C02F003004000014101F0BC
:100A8000030101291846EBD101301318990803F02E
:100A90000303615C5B0041FA03F303F00303022BE1
:100AA000F2D00001DCE700BF400400202DE9F84F40
:100AB0000B460746002800F0A680574DB5F88C423B
:100AC000002971D0002C71D1D5F80002D5F8F83189
:100AD000381A4FEA101C0CF1010E4FEA830901F19C
:100AE0000F06F1454FEA161640F29380D5F8F4A1AF
:100AF0004FF001084FEA9E0B0EF003031AF80BB0FB
:100B00005B004BFA03F303F00303022B52D023B92B
:100B1000013408EB0403B3424ED3464540D021D301
:100B20004444B4424DD2002A40D0C009D5F8FC312B
:100B30001B5C0CF0070C43FA0CFC08460CF001019E
:100B4000FFF770FE044688B34FEA081239461EF0DC
:100B500077FDB5F88C3223BB3846FFF7D9FB20462A
:100B6000BDE8F88F66443046C4444FF003094FEAAD
:100B7000900ED5F8F41100F0030311F80E405B005D
:100B800009FA03F3013024EA0303604501F80E304B
:100B9000EDD1D5F89832B6089E4238BFC5F89862B4
:100BA0003C462046BDE8F88F002CD6D000242046D5
:100BB000BDE8F88F08F101080EF1010EF14599D159
:100BC000ABE70CEB0802B444944510D9022190081D
:100BD000D5F8F44102F0030314F800E05B0001FAD9
:100BE00003F3013243EA0E0394452354EFD1A6EBFD
:100BF0000802120107EB081000213C461EF064FDBC
:100C00002046BDE8F88F01461846BDE8F84FFFF7CB
:100C100009BE4FF0010880E74004002010B58AB0FB
:100C200003A80B4CFFF784FD059B00932046DDE9EC
:100C30000323084900F0C6FE069A099B019200931F
:100C40002046DDE90723044900F0BCFE0AB010BDD0
:100C5000E42E030864EC020888EC02082DE9F04752
:100C6000DFF864A14949DAF80022494800F0AAFEF9
:100C7000DAF8F811890074D0DFF85091DFF850816C
:100C8000434F00250CE0012E46D02E224149384624
:100C900000F098FEDAF8F81101358900A94260D910
:100CA00005F00306AA064FEA4606DAF8F4010BD06F
:100CB000AB08C35C43FA06F606F00306022E29D001
:100CC000032EE0D16D22E1E72C46A20804F00303D5
:100CD000825C5B0042FA03F39B0702D101348C4231
:100CE000F3D3621B7F2A0CD992092B49384600F0B6
:100CF00069FEDAF8F83124F03F05B5EB830F30D206
:100D0000002609EA05124146384600F05BFEDAF893
:100D1000F401CDE73D22B9E7DAF800121F4B2A01B2
:100D20008A589A4223D01E4B9A4222D01D4B9A4297
:100D300025D01D4B9A421ED01C4B9A421BD01C4BF7
:100D40009A421AD01B4B9A4217D01B4B9A4218D08A
:100D50001A4B9A4217D01A4B9A420CBF4D22682266
:100D600094E718490A48BDE8F04700F0DEBA54227B
:100D70008CE74C228AE7532288E7412286E7442207
:100D800084E7462282E7422280E700BF1CEC02088B
:100D9000E42E030860EC02083CEC0208306F030804
:100DA000AC5D0308544F0308606C030884690308B2
:100DB000C04A0308844A030838570308C857030881
:100DC000CC5F030838EC020840040020F0FF0F005D
:100DD00058EC0208054B5B695A68824204D8801AB5
:100DE000043053F8200070471B68F5E740040020EA
:100DF000014441F20553884204D398B2002808BF49
:100E00000120704710F8012B03EB43135340F2E726
:100E10000448054B43610023C0F8D43100F5F0705D
:100E200023F008BD40040020B4ED02082DE9F84F7E
:100E300082468946FFF7DCFF134B5C6983460CB999
:100E400020461EE0E66804F1100808EB86064546D9
:100E5000B5422F4601D32468F1E755F8040B038807
:100E60005B45F5D183784B45F2D14A465146033074
:100E70001EF050FC0028EBD16068A7EB080700EBE0
:100E8000A700BDE8F88F00BF400400202DE9F0471F
:100E900080460E46FFF7CAFF024600286ED13C4C42
:100EA000D4F8D401351D90B1D4E976132B448B428C
:100EB0002BD92944FFF7CDF90746E8B90246D4F803
:100EC000DC11D4F8D401FFF7C4F9C4F8D471802D33
:100ED0002F4638BF80273846FFF7ABF9C4F8D40156
:100EE00000284FD12846FFF7A4F9C4F8D401002800
:100EF00047D128460CF026F9D4F8D8312B44C4F851
:100F0000D831D4F8D431002BE1D0D4F8DC91D4F826
:100F1000D4A131464D444046C4F8DC51FFF768FF88
:100F20000AEB09070AF80900000A7870BE70324619
:100F30004146F81C1EF084FBBB190026DE70636975
:100F4000D3E90253AB420FD36D00281D8000FFF799
:100F500070F90028CDD0626902605368D268C6601B
:100F60001344C0E9013560616369D9685A68481C57
:100F70000431D860013A43F8217002441046BDE8BC
:100F8000F0872F460023C4F8D871C4F8DC31BCE7E1
:100F90004004002010B504461EF0DEFB014620464A
:100FA000BDE81040FFF772BF08B5FFF713FF0088D8
:100FB00008BD08B5FFF70EFF807808BD08B5FFF73C
:100FC00009FF033008BD08B5FFF704FF83780B6005
:100FD000033008BD2DE9F8431D46002303600B6074
:100FE00013602B60174BDFF860905C6907468846FA
:100FF00016460CB14C4505D12B68326813442B6062
:10100000BDE8F8833B6801333B60E268D8F8003004
:101010001344C8F80030E26804F1100303EB8202C5
:10102000934207D32046FFF70DFD2B682468184430
:101030002860DEE753F8041B8878316804310144E6
:101040003160EDE740040020B4ED02082DE9F843DB
:101050000E4B0F4F5C69DFF83C80DFF83C900CB121
:10106000BC4201D1BDE8F883E36804F1100505EB4B
:101070008306B54201D32468F1E755F8042B4146B5
:101080000332484600F09EFCF3E700BF4004002016
:10109000B4ED02086CFF0208E42E030838B544687A
:1010A00003680C449C42054610D9037BDB0703D53B
:1010B000002107480CF03CF8103424F007040834F1
:1010C00021468068FFF7BAF82C60A86038BD00BFE1
:1010D0009454030870B504460E4611461546FFF7B2
:1010E000DDFFD4E901302A46314618441EF0D4FA17
:1010F00062682A44626070BD70B5466804468E42DC
:10110000354628BF0D460121FFF7C8FFA368681CBC
:101110005919721B18441EF0BFFA6368A0680133A6
:101120006360284470BD38B50446081E08BF01201E
:10113000002520606560FFF771F8237BA06065F3F0
:101140000003237338BD38B505460C460131FFF75F
:10115000EAFF6C6038BD0023C0E90132037B016007
:1011600043F001030373704738B514460546FFF793
:10117000DAFF024B2560636038BD00BFD510000860
:10118000037BDB0710B5044602D48068FFF763F8E1
:101190000023A36010BD38B505461020FFF73EF8C8
:1011A00029460446FFF7BFFF204638BD10B5044668
:1011B00050B1037BDB0702D48068FFF74CF8204670
:1011C000BDE81040FFF747B810BD000038B5037BFD
:1011D000DB0704460D4603D5002107480BF0A8FFA6
:1011E000016880682944FFF729F82368A0601D443E
:1011F0002560184438BD00BF9454030838B5044630
:101200000D46FFF74BFFD4E901301D4465601844DB
:1012100038BDD0E900239A4210B5044602D101211D
:10122000FFF7D4FFD4E901320021D154A06810BDEA
:1012300010B50C460121FFF7E1FF047010BD7F29B6
:10124000F8B50C46CEB204D80121FFF7D7FF0670DF
:10125000F8BD06F03F06B1F5006FC1F3871546F003
:10126000800607D20221FFF7C9FF65F03F05057030
:101270004670EDE705F03F05B1F5803FC1F3073754
:1012800045F0800508D20321FFF7B8FF67F01F0380
:10129000037045708670DBE70421FFF7AFFFA40CF5
:1012A00007F03F0364F00F0463F07F0304704370A2
:1012B0008570C670CCE738B5054608460C461EF06A
:1012C0004BFA214602462846BDE83840FFF702BFE8
:1012D00010B51446FFF710FF047010BD10B514468A
:1012E000FFF70AFF047010BD43688B422CBF5B1AE6
:1012F00000234360704738B5154642688A42044669
:101300000B4603D929448A4201D8436038BD80681E
:10131000521A014418441EF0BFF96268521B626001
:10132000F4E70846114622F02DBE70B50546084682
:101330000E461EF011FA044620B102466B6828687A
:1013400031469847204670BD2DE9F74F01919DF831
:10135000301091460D9A11F0DF0F0646A2EB0902FC
:101360003DD030290CA9244F0EBF4FF010080F4676
:101370004FF0010813F0800435D002EBD2746410F2
:10138000151B002C36DDA246D045C346A8BFD34668
:10139000736830685A463946AAEB0B0A9847BAF187
:1013A000000FF1DCB9F1000F05D0736801993068C6
:1013B0004A4698474C44002D0DDD2C44A845C146B3
:1013C000A8BFA946736830684A463946A5EB0905A7
:1013D0009847002DF2DC204603B0BDE8F08F074FA0
:1013E0004FF01008C6E713F0010501D11446C8E715
:1013F0001546D7E70024D5E7082F0308F72E030882
:101400002DE9F04389B007460020119D9DF84880E2
:10141000139E8DF80F0002B3814219DA2D228DF848
:101420000F204942109A08ACA2F10A000DF1100EEB
:10143000B1FBF3FC03FB1C12092A8CBF12183032DB
:1014400004F8012D74450FD08B420DD86146EFE7AB
:10145000A80727D52B228DF80F200029E2D13023B1
:101460008DF81F300DF11F0415F040099DF80F3065
:101470001CD023B30122CDE900822B460DF10F01D0
:101480003846FFF761FF013E814608AACDE9008694
:101490002B46121B21463846FFF756FF484409B039
:1014A000BDE8F0836A07D8D52022D4E7002BECD022
:1014B00004AA9442E9D904F8013C013CE5E79946C5
:1014C000E3E700002DE9F04F93B080461E46C807C1
:1014D0009DF874301C9D06930C469146DDE91E7AFA
:1014E0000BD4A10703D12268794B9A4205D020463C
:1014F0000CF0DAFD400040F0010415F0810306D144
:10150000069A302A03D15745B8BF57469A46204617
:101510000FF025FE00280DF1280B18DBAA0712D5C5
:101520002B238DF828300DF12903E806F6B21DD5DE
:10153000B9F1020F0DD11A46302102F8021B711CBD
:101540005970134612E06B0701D52023E9E75B468B
:10155000EBE7B9F1080F60D1A9054FF030021A701E
:1015600045BF06F10E025A7001330233002215F016
:10157000200F1A70A3EB0B0305930EA90CBF1346A3
:101580002C23BAF1010F0B91C8BF45F04005102183
:10159000CDE90C1215F040018DF827200791CDE917
:1015A000026344D0CDE9009223460DAA0CA90BA8F2
:1015B0000FF0A4FC03782D2B814606D18DF827303F
:1015C0000D9B013B00F101090D93BAF1010F3CDDC8
:1015D0000D9C079B5445B8BF54462BB19DF827304E
:1015E00003B10134059B1C44A7422BDD15F0010318
:1015F000A7EB040427D126461C4625F001054EB171
:1016000020230093002301961A4632494046FFF7F3
:101610009BFE06463023069319E0B9F1100FA5D1C1
:101620001A46302102F8021B06F1170188E70AABBF
:10163000CDE900930DAA23460CA90BA80FF05EFC80
:101640008146C2E700240026D7E700242646079BF0
:10165000DBB19DF8273053B100230122CDE90032E0
:101660000DF127014046FFF76FFE013F0644059B41
:101670005BB100230122CDE900325946059A40466C
:10168000FFF762FE059B0644FF1A069B0093BAF122
:10169000010FC8BF574601972B460D9A4946404651
:1016A000FFF752FE06444CB120230093002301941F
:1016B0001A4608494046FFF747FE06440B980EAB12
:1016C000984201D0FEF7C7FD304613B0BDE8F08F59
:1016D000145C030843A103082DE9F04316468BB0C0
:1016E000B20780469946129F3CD416F0040F0CBFF7
:1016F0000023202300930A46139B202102A809F00F
:1017000013FFF30504460DD5431C1F2B0AD80AAA64
:101710001444252204F8202C0AAA1A44002102F8B5
:10172000201C1C4616F040051ED09DF808302F2BBB
:101730004FF000031AD8012202A9CDE90032404639
:10174000FFF702FE013F0546013C0DF10901CDE91D
:101750000097334622464046FFF7F6FD28440BB07B
:10176000BDE8F0832B23C5E702A9F0E702A91D46D7
:10177000EDE700002DE9F04F824689B014460026BF
:101780000B461D4613F8012B0AB1252AF9D1A942AF
:1017900008D26F1ADAF80430DAF800003A469847AF
:1017A0003E4429460B78002B00F0038101312023B1
:1017B0004FF000080A4612F8015B15B94FF00A0C09
:1017C0001DE02D2D03D148F001081146F2E72B2D25
:1017D00002D148F00208F8E7202D02D148F00408B1
:1017E000F3E7212D02D148F00808EEE7302D22D191
:1017F00048F040082B46E8E70CFB0525303D0F4636
:1018000011F8012BA2F130000928F5D92E2A3AD17E
:101810007A782A2A11D04FF0000B4FF00A0C0F46AD
:1018200011F8012BA2F1300009280BD80CFB0B2B6F
:10183000ABF1300BF3E70025C0E754F8042B023777
:1018400022EAE27B3A786C2A08BF013797F80090C9
:10185000B9F1000F00F0AD80B9F1640F00F088809D
:1018600026D8B9F1500F2DD010D8A9F14502022A7F
:1018700040F28C80DAF80430DAF8000001223946B0
:10188000984701364AE04FF0FF3BDBE7B9F1620FC2
:1018900038D048D8B9F1580FECD1A9F11709CDE9E2
:1018A0000235CDF804805FFA89F3009310235DE0E0
:1018B000B9F1710F41D00BD8B9F1670F66D9B9F101
:1018C000700FD7D1CDE90235CDF804806123ECE764
:1018D000B9F1750F43D0B9F1780FDED0B9F1730FBC
:1018E000C8D1BBF1FF3F54F8049B05D1484605938E
:1018F0001DF032FF059B8346CDE900355A4643462D
:10190000494607E054F8042BCDE9003543463AB187
:101910002A4904225046FFF717FD0644791C2FE799
:1019200005222749F6E754F8042B8DF81C20CDE951
:1019300000350122434607A9ECE707A954F8040B38
:101940000593FFF740FBBBF1FF3F059B08BFDDF8A8
:101950001CB0CDE90035014643465A46DAE7CDE9E9
:10196000023561230093CDF804800A23002207E0AA
:10197000CDE9023561230093CDF804800A230122CA
:1019800054F8041B5046FFF73BFDC6E7073424F02C
:101990000704F4E8020105932CF06EFFCDE9005B2B
:1019A00000EE100A059B424649465046FFF794FE5A
:1019B000B3E7304609B0BDE8F08F00BFEC2E030856
:1019C000F12E03080EB403B503AA52F8041B0192CA
:1019D000FFF7D0FE02B05DF804EB03B07047037868
:1019E0001A060AD503F07F034022134207D110F8EC
:1019F000012F02F0C001802905D01846704723EA64
:101A000002035208F1E702F03F0242EA8313EEE7D5
:101A1000421C10460132037803F0C003802BF8D03B
:101A200070470023814201D81846704711F8012DF4
:101A300002F0C002802A18BF0133F3E701440346D5
:101A4000002099421A4600D87047127802F0C0026E
:101A5000802A03F1010318BF0130F2E77F289DBF00
:101A6000024B185CC0F3400000207047192F030898
:101A70007F289DBF024B185CC0F3C0000020704758
:101A8000192F03087F289DBF024B185CC0F380000C
:101A900000207047192F03087F289DBF024B185C58
:101AA000C0F3801000207047192F03087F2809D841
:101AB000064B1B5C13F00C0F06D1A0F15F035842DC
:101AC000584170470020704701207047192F0308C4
:101AD0007F289DBF024B185CC0F3001000207047A8
:101AE000192F03087F289DBF024B185CC0F34010DC
:101AF00000207047192F030808B50246FFF7E8FFDA
:101B000000B12032104608BD08B50246FFF7EAFFD3
:101B100000B1203A104608BD3038092884BF20F0B3
:101B200020000738704710B501440246E524002024
:101B3000914203D8B0FA80F0400917E012F8013B57
:101B400030B103F0C003802B11D10138C0B2EFE7F0
:101B5000BF2B09D9F72B09D8DB0803F0060344FA99
:101B600003F303F00300E3E71B06E1D510BD0020FB
:101B7000FCE7023981420B4603D31A880239002A56
:101B8000F8D002331B1A5810704770B51C099442E4
:101B900015D2121B01EB4401154603F00F030E464C
:101BA000012D31F8024B18BF3468DC40A4B2013D6E
:101BB00020F8024BF3D104B9013A104670BD00225F
:101BC000FBE7F0B5059D0024521B2746A5420FD127
:101BD0006D00441900230D449A4214D104EB4203D2
:101BE0001FB1012124F812100233181A4010F0BD61
:101BF00031F8146033F814C066443E4420F8146091
:101C0000370C0134E2E735F813603E4424F81360E2
:101C1000370C0133E0E7F0B4049E0025921B2C46FC
:101C2000AE420AD17600851900230E449A420FD1A4
:101C300005EB4201F0BCFFF79CBF31F815703C4446
:101C400033F81570E41B20F8154024140135E7E73C
:101C500036F813100C4425F8134024140133E5E73B
:101C60002DE9F043079CDDF828E0DDE9087602392C
:101C7000154684464FF6FF78A4EB020955B900EBF0
:101C800042011FB1012320F812300231BDE8F043B8
:101C9000FFF76FBF31F8024F013D4444264405EB86
:101CA0000904AC4296BF33F8024B4FF6FF7444442C
:101CB000744486EA040E17FA8EF72CF8027B4FEA7A
:101CC000144E360C3F0CD9E738B50229044680681B
:101CD00038BF02210D4618B12368B1EB930F07D925
:101CE0006900FEF7ABFA2368A06065F39F032360E9
:101CF00038BD38B505460C20FEF790FA2A780378EF
:101D000062F300036FF341030446037028682368FD
:101D1000C0F39D0060F39F0323606B686360400025
:101D2000FEF77CFAA0602A68A968C2F39D025200FF
:101D30001DF086FC204638BD10B54B0018441A44EF
:101D400009B9084610BD30F8023D32F8024D1B1BA0
:101D5000002B02DB04D10139F2E74FF0FF30F1E74D
:101D60000120EFE710B5044638B18068FEF773FA3A
:101D70002046BDE81040FEF76EBA10BD38B50546E6
:101D80000C460221FFF7A0FF002C2B78B4BF0122E4
:101D9000002262F300032B704FF00003B8BF6442CF
:101DA0006B6004B938BDD5E90132581C686022F86F
:101DB0001340240CF5E70023C0E90033836070472B
:101DC00028B103789B0702D48068FEF744BA7047B5
:101DD00038B505460C464968FFF776FF22782B7820
:101DE000A86862F300032B7063686B606268A16887
:101DF0005200BDE838401DF023BC034609B95960C4
:101E00007047FFF7BBBF08B5FFF7D5FFBDE8084037
:101E1000FFF7F3BF30B4046862F39F04046004F07A
:101E2000FC0444F0020400220470C0E9012130BC2B
:101E30001946FFF7E2BFF8B59DF818700421064671
:101E400014461D46FFF740FF8FB1002C75F10003CB
:101E50000DDA624265EB45030120317860F3000141
:101E600031700021716052EA030104D1F8BD2246AD
:101E70002B460020F1E7D6E901104C1C746020F8D5
:101E80001120110C41EA0341180C0A460346EAE707
:101E90002DE9F04110EE106A0378F20F62F30003AF
:101EA0000370C6F30F4313F4FF43074603D1002327
:101EB0007B60BDE8F081B3F5FF4FF8D0C6F3C753A0
:101EC000A3F17F04002CF2DB04D10121BDE8F04135
:101ED000FFF754BFB3F16F0848BFA3F16008C6F322
:101EE0001606162C4FEA281846F4000621DCC4F129
:101EF0001704E6400024254641463846FFF7E4FE35
:101F0000C7F8048025B16A000021B8681DF0DCFB29
:101F100044B1BB6806FA04F223F81520C4F110049A
:101F2000E6400135A845C4D0BB6823F81560360CDF
:101F3000F7E7B3F1960504F1090448BFA3F187055B
:101F400004F00F042D11D7E72DE9F84304468F184C
:101F5000C2F35B020D46511C9846089EFFF7B4FE83
:101F60002278002368F300022270636029461FFA7A
:101F700086FCB942084602D3401BBDE8F8830278CC
:101F8000A2F13003092B01F1010105D9A2F14103AE
:101F9000192B14D8A2F13703B342EDD2D4E901E0F2
:101FA000F0468146B8F1000F10D100EB4E0213B19C
:101FB00020F81E300232121A52106260D9E7A2F1E4
:101FC0006103192BD8D8A2F15703E5E7B9F800202F
:101FD00002FB0C3329F8023B08F1FF381B0CE1E748
:101FE000F8B5044615461E46C1B1531E1E444FF0B7
:101FF000FF37E9000F3109092046FFF765FE237816
:1020000000216FF30003237061604DB9D4E9011022
:1020100000EB4101FFF7ADFD6060F8BD0127E8E787
:1020200000230F2908DC32788A401343013D9BB21C
:1020300001F108013E44F4D16268501C6060A06860
:10204000103920F81230E0E70A46416838B50446F6
:1020500009B9506890B11378257803F0010305F0B1
:102060000100181A0AD15368994208D30AD8926815
:10207000A068FFF761FEEB0748BF404238BD4FF054
:10208000FF30F8E70120F6E7884210B5044601D09A
:10209000FFF79EFE23786FF30003237010BD884284
:1020A00010B5044601D0FFF793FE2378C3F3000276
:1020B000C2F1010262F30003237010BD88421FB514
:1020C000044601D0FFF784FE626862B90121204610
:1020D000FFF7FAFDA268012313806360237843F0C1
:1020E0000103237010E02378D9070FD56FF30003A5
:1020F000A16823700123ADF80E30009308460DF15E
:102100000E03FFF788FD606004B010BD511C20462F
:10211000FFF7DAFDD4E901210123ADF80E30009379
:1021200008460DF10E03FFF74CFD6060D6E72DE980
:10213000F0470E4649680546174601B12AB93146AF
:102140002846BDE8F047FFF743BE02F10F0424091B
:102150002144FFF7B9FD7068A968B36817F00F0E46
:1021600004EB000707F1004808F1FF384FEA480880
:1021700001EB080C08BF4FF0100E03EB40090146BD
:10218000E2460022CEF1100E11BB6FF0010358435E
:102190000CEB000922FA0EF22CF8002003FB04934A
:1021A00004F100420233013A184652001DF08CFA45
:1021B00008F102080346434417B133F8022D8AB1EF
:1021C0006F6032782B7862F300032B70BDE8F087E4
:1021D00039F8023D1A4322FA0EF32AF802391204A2
:1021E0000139D1E7013FE7E7F0B50E46496885B010
:1021F0000546144601B12AB931462846FFF7E8FDE5
:1022000005B0F0BDFFF760FDD6E901212346A868BF
:10221000FFF7BBFC686031782B7861F300032B700B
:10222000DB070246ECD500237768ADF80E302109B4
:102230009F4201D08B420FD18F42E1D9B36804F0A5
:102240000F0433F81110012303FA04F4013C214276
:1022500013D0ADF80E3008E0B06830F8130050B17C
:1022600001238F42ADF80E30E8D8A96801234AB99E
:102270000B806B60C4E70133DAE7BDF80E30002B4A
:10228000BED0F2E7009308460DF10E03FFF799FC6C
:102290006860B5E773B553680C46496899420646CD
:1022A000154606D308D89268A068FFF745FD0028B8
:1022B00002DA23462C461D4623782A78616853406B
:1022C000DB0713D401313046FFF7FEFC6B68009347
:1022D000AB68B068D4E90121FFF773FC7060227825
:1022E000337862F30003337002B070BD3046FFF7FD
:1022F000EBFC6B680093AB68B068D4E90121FFF791
:102300008AFCEBE7F7B553680C46496899420646E4
:10231000154606D328D89268A068FFF70DFD00285F
:1023200022DA234601272C461D4623782A78616845
:102330005340DB071AD501313046FFF7C5FC6B6807
:102340000093AB68B068D4E90121FFF73AFC7060F4
:10235000237803F001030FB183F00103327863F3B4
:102360000002327003B0F0BD0027DEE73046FFF711
:10237000ABFC6B680093AB68B068D4E90121FFF750
:102380004AFCE4E72DE9F04F15464A686B689A422B
:102390000E463EBF2E460B461D4633787168DB075E
:1023A00085B0044621D42B7813F001071DD1FFF727
:1023B0008BFCD5E9011CA068B6683B4699420BD15D
:1023C00000EB4101FFF7D5FB237860606FF300035A
:1023D000237005B0BDE8F08F36F813203CF8135099
:1023E0002A4020F813200133E8E701312046FFF7A7
:1023F0006BFC32782F78AB68009382EA0703DB43EB
:1024000003F00103C3F1000C02F001021FFA8CF18A
:10241000C2F1000C02911FFA8CF10191B168D6F85B
:1024200004E0A068A1F1020A696807F00107C7F19A
:102430000008A1EB0E011FFA88F8F44681460391CB
:10244000BCF1000F15D100EB4E011BB1012320F8A8
:102450001E300231FFF78DFB606033782A78C3F3BA
:102460000003C2F300021340227863F300022270DB
:10247000AFE73AF802BF019981EA0B0B03990CF11F
:10248000FF3C5A4401EB0C0BE3459FBF009931F828
:1024900002BB009188EA0B0B88BFC3465F440299D8
:1024A00002EA070B8BEA010B13FA8BF329F8023BC4
:1024B0003F0C120C1B0CC3E72DE9F84F16464A6877
:1024C00073689A420D463EBF35460B461E462B7832
:1024D0006968DB0704462ED4327812F001082AD14D
:1024E000FFF7F2FBD6E9013CA9686D68A768ED1A11
:1024F0004246934210D15B00194400223B4495426E
:1025000013D103EB4503DB1B5B10636023786FF390
:1025100000032370BDE8F88F31F812003CF8126018
:10252000304327F812000132E3E731F8120023F8B4
:1025300012000132E3E701312046FFF7C5FBD6E97F
:1025400001232F7836786968A068AD6807F0010725
:1025500006F00106C7F10008C6F1000CA5F1020E55
:102560001FFA88F81FFA8CFC0D4682464FF00109CD
:10257000A2EB010B45B900EB4101FFF7FAFA237812
:10258000606043F00103C4E73EF8022F013D88EA92
:10259000020217440BEB0502AA4296BF33F8022B46
:1025A00062468CEA0202164447EA0602D24319FA4E
:1025B00082F22AF8022B360C3F0C4FEA1249D9E777
:1025C000F0B516464A6873689A4238BF0B460C4607
:1025D0003CBF34461E462778337861685F4017F069
:1025E000010785B005463AD1FFF76EFB237813F05B
:1025F000010328D1D6E90117A2686468A868641AA3
:10260000994210D149000A4400230144A34214D145
:1026100001EB4301FFF7ADFA2B7868606FF300031D
:102620002B7005B0F0BD32F8136037F813C086EA9E
:102630000C0620F813600133E2E732F8136021F84A
:1026400013600133E2E7CDE90277019773680093E5
:10265000B368A868D4E90121FFF702FBDCE7013188
:10266000FFF732FB3378A868DB4303F001030393E1
:102670002378DB4303F00103029301230193736882
:102680000093B368D4E90121FFF7EAFA2B78686078
:1026900043F00103C4E72DE9F04F4B6885B00446D1
:1026A0000E4615460BB1536823B90023636005B08D
:1026B000BDE8F08F814234D1FFF71BFBA5420646EF
:1026C000074600D105466B68716820461944FFF73C
:1026D000FBFA2268A068C2F39D02520000211CF0A0
:1026E000F3FFB368A1680193AB68D6F804A0029326
:1026F0006B68039300228B1E009301EB4A0C134678
:102700000398904239D163602A7833785340227815
:10271000384663F30002227005B0BDE8F04FFFF7C2
:1027200021BB824204D1FFF7E4FA05460746CAE717
:102730000027C8E738F8029F0298994430F8120041
:102740003BF8023B00FB0393A8F800300EF1FF3E7C
:102750001B0CBEF1000FEDD1E6460CF1020813B1DF
:10276000ACF80030C6460098AEEB010E02304FEADE
:102770006E030132C4460090C2E7DDE9008BD64605
:102780000023E6E74B6870B50646144613B113788C
:10279000DA0702D50023736070BD636823B9012195
:1027A000BDE87040FFF7EABA0846FFF7A2FA05460F
:1027B0002046FFF79EFA012104463046FFF7DEFA75
:1027C000636883B1A3681B88DB0704D52A463146BA
:1027D0003046FFF760FFD4E9012101230846FFF7E7
:1027E000D4F9606038B92846FFF7BCFA2046BDE846
:1027F0007040FFF7B7BA2A4629462846FFF74BFF35
:10280000DEE72DE9F04F0C4651688FB0914601315B
:1028100005460293FFF758FAD9F80420A868013258
:10282000520000211CF050FF00236B60D9F8041007
:1028300020460131FFF748FA49462046FFF7C8FA1B
:10284000029B67685B680193BB4232D8029BD4F855
:1028500008B09E68AB6803932DD33246394658467C
:10286000FFF76AFA002823D1039A606001231380DE
:102870006B60029A99F8003012785340DB0714D548
:102880002B7843F001032B70636873B14FF0FF3175
:102890000BA8FFF7B8FA0BAA29462846FFF7FAFC5F
:1028A000029A21462046FFF7F5FC0FB0BDE8F08FF5
:1028B00001DA0023DCE7019B03F1004001384FEA15
:1028C000400A36F81020002312F4004F03F10101F2
:1028D00052D07A009BB24FF0000E791C02F1020830
:1028E0000592C3F110022BF817E0D8446160DC4672
:1028F00077460492C44543D336F8100000FA03F239
:102900000492019A012A09D906EB0A00C3F11007C3
:1029100030F8020CF840049F074304970198059A89
:10292000091A6960039801F10041013900EB410186
:1029300005910AF102010991B11E5A440891D4F897
:1029400004A00199514527D30AF1004A0AF1FF3A40
:102950000BEB4A0A0020C3F11006D3457BD96FF078
:1029600000416B682BB15A18039830F81220002AE6
:102970007BD06FF000417DE0520092B20B46A3E79E
:10298000BCF800E00EFA03F21743049A2CF8027B1D
:102990002EFA02F7BFB2ADE7118832F8027C47EA9F
:1029A00001470499B7FBF1F70999511A0691089963
:1029B0000791DDF818C000218E4662450CD81088BA
:1029C000091A002941D1059921F8027905910AF1E6
:1029D000FF31023A6160B2E7079EBCF8008036F82A
:1029E000020F0796984040EA1E4E1FFA8EF0784379
:1029F000404503D2A8EB00068E420FD80144A1EB5C
:102A000008081FFA88F10031C8F1000618BF01213B
:102A1000B6B201EB18412CF8026BCEE7761AB6B2CB
:102A20000021F8E738F802CF0CFA03FC4CEA1E4EFE
:102A3000B6F800C010FA8EF0604426F8020B000CC5
:102A4000B242EFD8091A013FBBE70020DDF8208031
:102A5000069E8646F4E7BAF8002042FA03F10143E5
:102A6000B2402AF8021990B277E7013B6B6078E731
:102A7000013B63606368002B3FF4FBAE5A183BF8E0
:102A80001220002AF4D0F4E6F0B51F464B6885B05A
:102A900006460C4615464BB11378DA0706D47B6818
:102AA000012B07D1BB681B88012B03D10023736066
:102AB00005B0F0BD01213046FFF760F96B68002BCF
:102AC000F6D02046FFF715F904462846FFF711F91E
:102AD000054601A8FFF76FF96B68B3B1AB681B88B7
:102AE000DB070AD5224631463046FFF7D4FD3B4688
:102AF0003246314601A8FFF784FED5E901210123C2
:102B00000846FFF742F8686048B901A8FFF758F98E
:102B10002046FFF727F92846FFF724F9C8E72246A1
:102B200021462046FFF7B7FD3B462246214601A835
:102B3000FFF767FED0E710B5D0E90121002301EBD4
:102B40004202914205D30278D20748BF5B42184641
:102B500010BD32F8024D44EA0343F2E730B5D0E944
:102B60000124002304EB4202944206D30278D207E8
:102B700048BF5B420B60012030BDB3F5004F04D26B
:102B800032F8025D45EA0343EEE70020F4E72DE961
:102B9000F043884661B19F18D0E901140025A4F1E3
:102BA000020E4FF00109AC461A4419B9BDE8F08392
:102BB0001F46F1E73EF8024F0CF1100C44EA0545C0
:102BC000BCF1070F01DC0139EFE70678ACB2F6077C
:102BD00041BFE44359FA84F4A4B24FEA1429E4B2A1
:102BE000B8F1000F09D07E1E07F8014CB342DDD0CA
:102BF000ACF1080C2D0A3746E2E73E4606F8014BD9
:102C00009642F4E7D0E901329FED0C0A9FED0C7A71
:102C100002EB43039A4205D30378DB0748BFB1EECA
:102C2000400A704733F8021D07EE901AF8EEE77A73
:102C3000E0EE077AB0EE670AECE700BF00000000A4
:102C4000000080472DE9F84F44689DF828A00B9DAF
:102C50008046894616469B469CB982B1561E2B4635
:102C600016F8012F18463AB930230370002300F8F4
:102C7000013F401BBDE8F88F03F8012BF0E7284621
:102C8000F2E764002046FDF7C9FA22460746D8F865
:102C900008101CF0D5FCABF13A0B28462A4607EB8E
:102CA000040CACF1020300219F421C4633D93031A1
:102CB0003929144688BF594404F8011B3B469C45FA
:102CC000194632D8BAF1000F08D00123211A03297E
:102CD00002BF941C82F801A02046D3B13846FDF70C
:102CE000BAFA3EB130461CF037FD23463044B042BC
:102CF0001C4623D898F80030DB0744BF2D2304F886
:102D0000013B2B46621E9A421DD800232370601B94
:102D1000B0E72246C5E7248844EA0141B1FBF9F453
:102D200023F8024909FB1411BEE709880233002980
:102D3000C5D0BAF1000FECD00023C7E710F8012D81
:102D400003F8012BD3E71978107803F8010B02F888
:102D50000119D8E7D0E9023293423DBF5A1C826084
:102D600018784FF0FF307047036810B5044613B170
:102D70004068FDF770FA2046BDE81040FDF76BBAD9
:102D8000F8B5054610200C461F461646FDF746FAD4
:102D9000054B8460C0E900743444C4606B60034B2D
:102DA0002860AB60F8BD00BF552D0008692D0008F4
:102DB0000369272B1DD0222B1BD0752B03D023F0AA
:102DC0001002622A10D14269272A12D0222A10D07A
:102DD000722B09D1622A0ED18069272809D0A0F16F
:102DE0002203584258417047622B04D14369722B29
:102DF000F1E7012070470020704702690A2A10B5E8
:102E0000044622D1C3690133C3610123236263698C
:102E10002361A3696361D4E9010398476369A061F1
:102E20000D2B07D10A239842636103D1D4E9010332
:102E30009847A061A369013306D163695A1C03D086
:102E40000A2B1CBF0A23A36110BD036A092A04BF11
:102E5000073323F007030133D8E770B504460E4665
:102E600000252069431C01D1284670BD0A2808D1DD
:102E700016B1A36A002BF7D02046FFF7BEFF01254D
:102E8000EFE7FEF7EBFD18B12046FFF7B6FFE8E7E6
:102E90002369232B08D12046FFF7AFFF23695A1C73
:102EA000DFD00A2BF7D1DCE75C2BDDD163690A2B7D
:102EB000DAD12046FFF7A1FFE6E700002DE9F74F42
:102EC000044600218164FFF7C8FFE369A363636AD6
:102ED000256AE563002B04DA062284F840200133DA
:102EE00004E007D0052284F84020013B636203B070
:102EF000BDE8F08F90B3A36A83BBD4E90C20042310
:102F000084F840306FF00043D118013D30F81110C3
:102F10008D42ECD017D9E16A8A4207D308314900C3
:102F2000FDF78CF9E36A60630833E362D4E90C329D
:102F3000591C216322F81350636AD0E7013A2263D7
:102F4000626A013A6262226BD11830F811108D4228
:102F5000F4D3CCD0022384F84030C8E72169481C60
:102F600001D10023F7E72046FFF722FF8146002822
:102F700000F03C81002384F840302369752B5BD03E
:102F8000622B4ED16369722B0DBF4F46002701257E
:102F900002250B2394F84020002A55D184F84030B4
:102FA0003DB12046FFF729FF022D02D12046FFF751
:102FB00024FF23692046222B14BF4FF027084FF02F
:102FC0002208FFF71AFF2369434540D163699845FA
:102FD0003DD12046FFF711FF2046FFF70EFF0326E5
:102FE0004FF0000A04F14405D4F810B0BBF1FF3FE4
:102FF00000F0F680012E03D1BBF10A0F00F0F08043
:10300000B24526D3514604F14400FEF76DF9012183
:103010002046FFF722FF2046FFF7CAFE0028ACD16A
:1030200065E7722B0CD16369622B4F4615BF0125F2
:1030300002250A230B23ADE701250A230027A9E770
:1030400000250A232F46A5E79A42A9D04FE701267B
:10305000C6E7D84509D1414628460AF1010AFEF7DC
:10306000EEF82046FFF7C9FEBEE7BBF15C0F40F06B
:10307000AC802046FFF7C1FED4F810A02FB15C2130
:103080002846FEF7DCF8D34665E0BAF1620F00F09F
:10309000858027D8BAF14E0F6ED010D8BAF1220F22
:1030A0001ED0BAF1270F1BD0BAF10A0F61D0AAF1D6
:1030B000300BBBF1070FE2D84FF0030A66E0BAF11C
:1030C0005C0F0DD0BAF1610F6BD0BAF1550FEED194
:1030D00094F840200B2A1FD15C212846FEF7AFF858
:1030E000D3463EE0BAF1740F5ED00BD8BAF16E0F42
:1030F0005DD0BAF1720F5DD0BAF1660FD7D14FF043
:103100000C0B2EE0BAF1760F57D0E1D3BAF1780F5D
:10311000CDD14FF0020A06E0BAF1750F0CBF4FF0A7
:10312000040A4FF0080A4FF0000B11E02046FFF7A9
:1031300064FE226901921046FEF7AEFC002800F002
:103140006281019A1046FEF7E7FC4FEA0B1B8344AD
:103150001AF1FF3AEAD2BBF1FF3F0AD0AD4B9B45D3
:1031600039D894F840300A2B2AD159462846FEF720
:1031700066F84FF0000A74E7A7480AF0DBF920462A
:10318000FFF73BFE2269303A02EBCB0B6269303A23
:10319000072AE0D8BAF1010AF1D1DCE74FF0080BB9
:1031A000DFE74FF0070BDCE74FF0090BD9E74FF0F3
:1031B0000A0BD6E74FF00D0BD3E74FF00B0BD0E720
:1031C000BBF1FF0F07D80B2B05D15FFA8BF1284617
:1031D000FEF72EF8CDE74FF0010384F84030C8E742
:1031E000B2453CBF032284F840200BE70846FEF7B7
:1031F0003FFC054620691DB95F2801D07F283ED9D4
:10320000072384F8403004F14405C1B22846FEF794
:103210000FF82046FFF7F1FD2069421C1BD128461C
:10322000FDF7F7FF7D4E0746002556F8041B38468C
:103230001CF0A0FA00281CD10D35EDB2102D84F839
:1032400040507FF454AE764BD3F8E431002B0CBFE2
:103250000F230D237FE6FEF70BFC40B920695F28A2
:1032600005D07F2803D8FEF70DFC0028D7D0217C9D
:10327000CCE7FFF63CAE0135242DD6D137E6FEF77C
:1032800001FC68B321692E2935D1092384F8403027
:1032900004F144063046FDF7D2FF2046FFF7ADFDAE
:1032A00009272069431C3FF422AE002D35D120F0C0
:1032B0002003452B31D16521304684F84070FDF75D
:1032C000BEFF2046FFF799FD21692B2901D02D294A
:1032D000E7D13046FDF7B3FF2046FFF78EFDE0E76C
:1032E00023692E2B04D16069FEF7CCFB0028C9D1DD
:1032F00000264C4D31E00823302984F84030C7D1F6
:10330000656945F02005A5F16203162B9DBF464D6A
:10331000DD4005F001050025BAE7FEF7A9FB28B15D
:1033200021692E290DD184F84070D2E72069FEF77B
:10333000A9FB0028F4D123692E2BF1D05F2BCBD031
:10334000D5E521F020034A2BC3D1ECE7652F01D04E
:10335000632F00D10135013601352F7817B123696C
:10336000BB42F3D12046FFF748FD0FB90123F2E538
:10337000212F07D123693D2BF8D12046FFF73DFDD2
:103380004323E8E52E2F0FD123692E2B02D1636949
:103390002E2B01D04C23DEE52046FFF72EFD2046E4
:1033A000FFF72BFD0C23D6E50335334615F8027CD9
:1033B000632F0FD0652F0DD01C4AD35C84F84030AA
:1033C00003F0FD02442A01D0482B14D1A36A013333
:1033D000A3628CE515F8012C2169914206F10106E2
:1033E00007D12046FFF709FD3346652FE4D00235AB
:1033F000DCE7632FFAE7452A02D0492B7FF477AD4B
:10340000A36A013BE4E74FF0010384F840308346B0
:10341000A7E600BFFFFF1000DA2F03089C30030867
:1034200040040020992F0308012040006F3003085A
:103430007FB5064601AD542085E80E00FCF7EEFE90
:103440000446034695E8070043F8046B83E8070049
:1034500001236FF00102C4E9073200250A22C4E902
:103460000B23C4E909551420FCF7D8FE2021606322
:1034700004F14400FDF757FE636B20461D80C4E94C
:1034800005552561FFF7B9FC2046FFF7B6FC20463D
:10349000FFF7B3FC2046FFF711FDE36B012B18BFCC
:1034A0000523204618BF84F8403004B070BD30B505
:1034B00085B001AC05462046FFF762FC94E80E009B
:1034C0002846FFF7B5FF05B030BD30B585B001AC7B
:1034D0000146054620461BF0C1FE2846FDF75AFD71
:1034E00094E80E00FFF7A4FF05B030BD10B5044608
:1034F00070B1C3684068984704F14400FDF740FE8E
:10350000606BFCF7A8FE2046BDE81040FCF7A3BEA8
:1035100010BDD0E90432013B036152F8230070472B
:10352000C1F17F5101F57F11036901F57F513F31F1
:103530001944436953F821007047F8B5446A0646B8
:103540000D46B4B1D4E900030B44834222D90831BB
:10355000002201442046FCF77CFE0246B8B96168AF
:1035600020460831FCF775FE63682360336A6360A8
:103570003462802D2F4638BF802707F10800FCF702
:103580004DFE0023076043600446706202E023683A
:103590002B44236060680544656008342044F8BD0E
:1035A00038B50D46D0E903138B42044608D31031D9
:1035B00089004069FCF742FEE36860611033E36014
:1035C000D4E90432591C216142F8235038BDF8B5C2
:1035D0000D461F46D0E900138B420446164608D319
:1035E0001031C9008068FCF729FE2168A060103105
:1035F0002160D4E901104B1C636050F8312065F361
:10360000170200EBC10340F83120DE705F60F8BDA7
:1036100010B48469CAB20023A16B5DF8044BFFF7B4
:10362000D6BF0000F7B586690F4696F84010072907
:1036300005461FD1D6E91210FDF728FC8E2F04464F
:103640000ED18100002241F0020105F128000AF0AC
:103650001FFA28B14468E30720D544F0010002E0D6
:10366000200140F002000146284603B0BDE8F040CA
:10367000FFF796BF082907D133460022D6E912107A
:1036800008F0BEF90446E6E7092912D100960023A6
:103690000122D6E9121008F031FA04460C2128461E
:1036A000B66BFFF74AFF40F239130660C0E90134F8
:1036B000D9E7A1F10A03012B1CD8D6E912100A2977
:1036C0000BD8FDF7E3FB96F8403048B10A2B0CBF4E
:1036D00006210A2141EA0010C5E7FDF7A7FBF2E742
:1036E000064C0748D6E912210A2B08BF20460FF0E6
:1036F00057FDD2E7090141F00E00B4E7606C030802
:1037000084690308DE2807D010F0010306D04308BF
:103710000CBF0120002070470120704718467047F9
:10372000FE2807D010F0010306D0430814BF012083
:1037300000207047012070471846704710F00102C2
:1037400004D040F00100086001207047A8B110F0DB
:1037500003030FD10279392A0ED183680B6013F06D
:1037600001000AD19A0708D11868044BC31A5842BD
:10377000584170471046704718467047145C03085C
:103780002DE9F04F2C2A85B00446884616461D4682
:103790000BD10021FFF7C4FE88B3810702D1037962
:1037A000902B2CD005B0BDE8F08FA2F11D03012BAA
:1037B00054D82F462A460AE01D2E42D1FFF7B0FF0B
:1037C000B0B90846FFF79EFF002808BF4A4602F13D
:1037D000FF396FB1013F39462046FFF7A1FE23694B
:1037E000A3EB020C6369014643F82C00002FE3D1E0
:1037F000002189452DD1A5EB0905012DD2D0A6F1D7
:103800002203022B55D8691E2046FFF789FE01A925
:10381000FFF794FF002879D0222E37D0232E0CBF3B
:103820004FF016094FF01709AF1E002F31DA002DA7
:1038300040F05A81019EF30740F15B8146F001019F
:103840001EE0FFF75FFF0028D2D10846FFF768FFB0
:10385000BAE72046FFF75DFE0131CAE71F2ACED145
:103860000021FFF75DFE0246FFF74CFF60B91046EE
:10387000FFF756FF0028C2D0DE212046FFF749FEA1
:103880002046FFF78DFE8DE7FE21F6E74FF0150984
:10389000CAE739462046FFF743FE02A9FFF74EFF6D
:1038A000A0B3DDE90112484609F06AFC013F01902E
:1038B000BBE7A6F12503022B4BD8691E2046FFF774
:1038C0002FFE01A9FFF73AFF00B3DFF84CA2AF1EAD
:1038D000002FACDD791E2046FFF722FE02A9FFF77C
:1038E0002DFF98B139462046FFF71AFEC0F30710A6
:1038F000504410F8319CB9F1FF0F07D002980DF039
:103900002EFCB9F1190F17D800281ADAA91C890062
:103910002046FFF712FE46EA052646600146C0F83B
:10392000008000F10806002DAAD02046FFF7F1FD27
:10393000013D46F82500F6E7B9F11C0F01D9002832
:10394000E4D0DDE90112484609F01AFC023F01907B
:10395000BEE7282E1BD100212046FFF7E1FD01A97B
:10396000FFF7ECFE0028D1D001212046FFF7D8FD5B
:10397000C0F30710312808D032280CBF01200220E4
:10398000019908F001FE019051E70020F8E7052EAB
:1039900068D100212046FFF7C3FD07460028B5D0B7
:1039A00010F0030A04D1436803F0FE03562BADD098
:1039B00001212046FFF7B4FD00F00F03022BA5D133
:1039C000BAF1000FA2D13B792B2B9FD1BB6803F03A
:1039D0000F02022A9AD11B09482B97D1FB68002BB2
:1039E00094D09A0792D11A792F2A8FD1D3F808B0A0
:1039F0004FEA101902A95846FFF7A0FE68B94249DC
:103A000042480CF023FAA1693A6809680546534612
:103A10000CF0E4FA2846FCF7E1FB4FEA89010122A9
:103A200041F0020104F128000AF032F8029B4360E1
:103A30004846FDF7C3FA03785F2B20460BD1FFF70A
:103A400068FD2046FFF765FD002308221946204641
:103A5000FFF796FEA6E6FFF75CFD59462046FFF706
:103A60009FFD53E72B2E7FF451AF01212046FFF736
:103A700057FD00F00F03022B07467FF447AF0021EC
:103A80002046FFF74DFD00283FF440AF10F0030241
:103A90007FF43CAF0379312B7FF438AF39098900CB
:103AA000D0F808901A4841F0020109F0F1FF00280F
:103AB0003FF42CAF02AA4FEA1911406808F090FEBB
:103AC000029B002B3FF422AFD90707D49A077FF45B
:103AD0001DAF19680F4A91427FF418AF039A002A6C
:103AE0007FF414AF0193A2E62046FFF712FD013DDB
:103AF0009DE60C212046FFF720FD40F239130146D8
:103B00000560C0E90136BBE6B73103084855030834
:103B10002C310308145C0308AB360308036830B586
:103B200013B91360184630BD9C0702D01060012005
:103B3000F9E75C68E5B28D42F8D108331360200ADA
:103B4000F1E700002DE9F04F93B0002440230290EC
:103B50004FF400700F460192CDE90534FCF75EFB8F
:103B6000202307908020CDE90834FCF757FB21463D
:103B7000CDE90A070FA8CDE90D4409F04FFF019BDD
:103B8000002B4CD0022B0CBF3C2222460023B96BE9
:103B9000DFF8CCB205A8FFF71AFD4FF00008069C2D
:103BA000002C00F05F81013C079BA84D069403EBBD
:103BB000C40253F83430D6785268C3F3170AA44BC2
:103BC0009B5D0093A34B9B5D652E88BF43F4807380
:103BD00005EB4305009B03F00F0903F03003102BA6
:103BE0001FD0202B51D0B8F1000F00F00481B9F1A3
:103BF000020F40F0F380012A18D000210098C0077E
:103C000002F1FF3306D568880BEA0000B0F5805F4B
:103C100008BF5308012B40F0DF8069B1DCE03A2295
:103C2000B4E732B905EB4205914508D84FF00108D9
:103C3000B5E7B8F1000FF5D14FF00008AFE7A8469F
:103C400035F8023B03EA0B01B1F5805F0DD197F81F
:103C50004010C3F30B03994215D105A83146FFF775
:103C6000E1FC3846FFF72AF9E6E7531C4B4504D23E
:103C70003246514605A8FFF7AAFCB8F8001005A87F
:103C8000FFF7C6FCD8E70132CEE7B8F1000F0FD03E
:103C900002F10043013B35F813300BEA0303B3F59F
:103CA000405F1BD1002105A80392FFF779FC039A1E
:103CB00005EB4204914525D8019B0BB1052E43D05D
:103CC000002405EB490922464D455BD1012A7AD1F2
:103CD000009B5B0677D5002529466EE0012AA5D911
:103CE00097F84030052B40F0EC805B495B480CF0C6
:103CF000ADF800230446BA6B39680CF06FF9204622
:103D0000FCF76CFAA04634F8023B03EA0B01B1F56C
:103D1000805F17D197F84010DBB299420ED1072986
:103D200005D1314605A80392FFF77CFC039A039264
:103D30003846FFF7C3F8039A0132BBE7002A3FF485
:103D400075AFCDE7531C93E7002105A8FFF7E8FB0B
:103D50000028B5D1012105A8FFF7E2FB820700F09A
:103D6000B78000F00F000228AAD005A8FFF7D1FB0A
:103D700005A8FFF7CEFB00230822514605A8FFF750
:103D8000FFFC59E739F8023D03EA0B01B1F5805F0A
:103D900005D1DBB2072B97D10134013294E72146DC
:103DA00005A8FFF7BDFB00B1013201348CE7FFF736
:103DB000B0FB0135002818BF0146A54205A8F6D181
:103DC000FFF7EEFB38E7009B1D0604D5002105A890
:103DD000FFF7E6FB013423463246CEE7012A3FF4E3
:103DE00025AF12F001013FF409AFB9F1030F7FF4E1
:103DF00077AF012102E709EA020303F0010335F876
:103E0000134004EA0B01B1F5805F13D197F840101D
:103E1000C4F30B04A14202F1010409D11BB93146DC
:103E200005A8FFF7FFFB3846FFF748F82246E2E710
:103E30002246DCE6531C514605A83246FFF7C7FB75
:103E4000214605A8FFF7E4FBA9E600BF823203087C
:103E5000D3310308FC350308683103083C520308DA
:103E600000F0FFFF0FA809F0F2FD0E9850B1416875
:103E700022460831FCF7EDF90E9B5A681A600D9A3C
:103E80005A600D9397F84030002B7FF429AF099BBF
:103E9000002B3FF425AF0A9B07981B680C93FCF797
:103EA000DAF90A98FCF7D7F93846FFF71FFB0CAB95
:103EB00093E80300029B83E80300184613B0BDE8B3
:103EC000F08F022B01D1064910E7064906480EE79C
:103ED00000283FF4F5AE0379392B3FF446AFEFE607
:103EE0007A310308A83103084855030810B5406823
:103EF00000B910BD4468FCF7AEF92046F8E70000B1
:103F00002DE9F041054630200E4690461F46FCF74D
:103F100093F9072D04460570C660A0F8148001D0FF
:103F2000012D10D1B368C3F30F13E38207F03CFFF8
:103F300004232061678323852020FCF76FF9E0626A
:103F40002046BDE8F081014B5B5DEEE7B636030825
:103F500010B50446C06AFCF77EF92046BDE8104063
:103F6000FCF779B930B5448D0022944202D8002381
:103F7000184630BDC36A03EBC2035D688D42F7D0BB
:103F80000132F2E770B504460D461646FFF7EAFF28
:103F9000C0B9218D638D8B4208D30631C900E06A18
:103FA000FCF74CF9238DE06206332385638DE26ACA
:103FB000591C02EBC300618502F833600023437093
:103FC0004380456070BD43680BB9FFF7CBBF18460F
:103FD000F9E7F8B544680F462CB9F8BD032BFCD1BE
:103FE00004230370F9E723465D68002DF5D07E6851
:103FF00018463146FFF7B6FF2B460028F4D0037869
:10400000033B022BE9D805233B701D4600223146B5
:104010002046FFF7B7FF0378002BDFD105706468F7
:10402000F4E7436A5B8B012B1EBF03695B180361D6
:104030007047C36A10B50446DB6F806A9847A38B4C
:10404000626A0133D18C9BB29942A38338BFD38477
:1040500010BD838B10B5013B8383C36A0446D3F83C
:104060008430806A984720460121BDE81040FFF760
:10407000D8BF2DE9F04180461F4659B111F0030524
:1040800010D14E68F3B293420CD1360A01F1080404
:10409000B54201DBBDE8F08154F8041B4046B84747
:1040A0000135F5E740463B46BDE8F04118472DE9AC
:1040B000F04F044685B00D4691469A461BB10B8BD6
:1040C00043F008030B83636AA5F820901A8B42F033
:1040D00030021A831B78002B49D1E36AA06AD3F817
:1040E000B4604A4653462946B44605B0BDE8F04F91
:1040F0006047DB6A03EBC60B13F83630043B012B39
:1041000020D8002319E0EB6A039A039903EBC2025B
:1041100013F83130052B0ED1DBF8041053689942A7
:1041200009D1E36ABBF802205B69A06A1F4600233D
:10413000B84708F10108039B01330393039A6B8D81
:104140009342E0DC0136636A5A8DB242D1DCB8F1A9
:10415000000FC2D0E36ACDF800A0D3F8B860A06A1F
:104160004B4642462946B04705B0BDE8F08F0026D1
:10417000B046E8E7F8B504460F4611461A46002354
:1041800085794669837143610E4BFFF772FFA3681F
:10419000BBB9E18A51B1A28A42B9E36AA06AD3F8F5
:1041A000A0309847E36AA06A5B6C9847A38AE28ACA
:1041B00039462046FFF77BFF003518BF0125A57162
:1041C0006661F8BD15590008024B89689B22FFF70C
:1041D00050BF00BF35660008024B89686A22FFF7AE
:1041E00048BF00BF77490008C36A10B50446D3F83A
:1041F0008830806A00219847E36AA06A5B6B0E21D1
:104200009847E36AA06AD3F8CC300121984720464A
:104210000321BDE81040FFF704BF38B5C36A044668
:104220009B6C806A00229847E36AA06AD3F8C0506A
:1042300000231A461946A8472046BDE83840FFF734
:10424000D3BFC36A89685B6D806A00220909184779
:10425000C36A89681B6C806A184710B50446084613
:1042600011462268FFF74CFE636A436000238360B7
:10427000236A13B9206210BD13469A68002AFBD145
:104280009860F8E770B54379012B05460C4606D1D6
:10429000436A0A465B8B0221FFF7DFFF2061A268B9
:1042A000216928464B23BDE87040FFF763BF70B516
:1042B00013464279012A06460C4604D10A460721D4
:1042C000FFF7CBFFA061A569E2683046432329468A
:1042D000FFF750FFE88A70BD2DE9F04F87B0064622
:1042E00000AF0C4611B90121116015E011F003086F
:1042F0001BD10B79672B07D1CB681B0913608C6826
:10430000002CF0D04FF0010804F00F03022B0FD166
:104310002109B8F1000FE7D0F36AB06A1B6B0022E5
:1043200098471C37BD46BDE8F08F4FF00008EBE71B
:10433000B8F1000F02D1A3681B09136063684FEA4C
:10434000132904F1080309F1FF3AFB609B4600259D
:104350004D4527DB0AF1070323F00703ADEB030DFF
:10436000C7F808D06D464FF0000BCB4522DB514615
:10437000B868FCF78BFDF36A01461B6BB06A00223C
:104380009847B8F1000FCCD00C3401254D45C8DA60
:1043900054F8041BF36AB06A5B6D00220909984760
:1043A0000135F3E75BF8040B0009FCF702FE013569
:1043B0008244CDE7BBF1000F03D04FF02E0305F888
:1043C000013BFB6853F8040BFB6007F11401000983
:1043D000FCF7F9FD7B697B601A46014628461BF015
:1043E0002FF97B680BF1010B1D44BEE731B1026868
:1043F00001F00303134304BF0B6803607047000020
:1044000038B5836804460D465BB9114605480BF084
:104410001DFD2946A06004F10C00BDE83840FFF7FF
:10442000E5BF38BD485503082DE9F04F04460D4659
:1044300062712B786162072B4FF000018DB0164638
:10444000016105D0824AFFF7DBFF0DB0BDE8F08FB8
:10445000012A06D0436B00F108021B68006B31464D
:1044600098476379D5F80C80032B10D10BAA432110
:1044700008F10C00FFF752FB636B0B9A9B68014637
:10448000206B9847A368A883002B40F0B080D8F831
:104490001010C1B101F00F05022D10D10B095E2BD8
:1044A00012D004D83E2B3AD06A4A2046CBE7752B6F
:1044B00037D040F23C429342F6D1032504E0664AED
:1044C0002046FFF79DFF0225D8F8143009930AAA69
:1044D000192109A8FFF722FB4FF000090690069B5F
:1044E000994520DB6379012B15D9636B206B5B68E1
:1044F000294698476379042B0DD10023606A039500
:104500000293818B226BCDE900310521D2E9023281
:10451000006907F060FCA368002B68D195E70125CE
:10452000D2E70025D0E70A9B53F829100B79082B16
:104530004FEA890B02D109F10109D0E7052B01D01F
:10454000464AB2E7CB68002BFAD18B681A792B2A3E
:10455000F6D19F6807F00F02022AF1D1DB680593BC
:10456000002BEDD09A07EBD11B792F2BE8D1059BBF
:104570000BAA03F10800A321FFF7D0FA3F0940F28C
:104580005D339F4282461BD1012805D10B9A1368E7
:1045900003F00F03022B04D0314A0A9B53F80B108F
:1045A00083E72169012E01F1010323611AD012680A
:1045B000636B206BDB681209984798B9294AECE7CE
:1045C00040F2A6239F4216D1012803D10B9B196804
:1045D000CF0701D4244AE0E7012E03D04910206B15
:1045E00003F0D2FAA368002BA5D0DDF81480D8F828
:1045F0000030E36029E7B7F5397F1DD1012803DDDD
:104600000B9B1B68D80701D4184AC6E7012EE9D0D6
:104610005B1001270B9A52F82720D10701D4144AC6
:10462000BBE719465210206B0793013703F0B3FA2A
:10463000BA45079BEED1D5E7012ED3D0636B024676
:10464000D3F810B0206B0B9B3946D847CAE700BFA0
:10465000AA390308CE390308DB390308033A0308F3
:10466000263A0308423A0308523A03086E3A03080E
:10467000933A0308014AFFF7C3BE00BFB53A0308E7
:104680000B79092B70B50BBF058B458B094A0A4A7C
:104690004FF6FF739D42044601D1FFF7B1FEA18B97
:1046A000E28BE36AA06A9B6F8A1A2946BDE87040D4
:1046B000184700BF97370308AC37030838B50546DD
:1046C000A9B101F00F03022B0DD10C09204609F00E
:1046D000A5F8002806DA2246064907480BF0E4FB55
:1046E000A860002038BD054AFFF78AFEF9E70846B2
:1046F000F8E700BF7D3B030874560308E23903085E
:104700002DE9F8430546406A1746028B12F0020C69
:104710000E4606D0324A31462846BDE8F843FFF738
:104720006FBE01F00F01022917D1AC79310984B1B4
:10473000C38B0133C38364464FF0010800294CD07A
:104740000022FFF71FFC03788146002B30D0254A5A
:10475000E1E7838B01338383EEE73179B942344655
:1047600008D1B168AB790909002BF2D0C38B0133B2
:10477000C383E1E7994213D1AC79002CCAD101235C
:10478000AB71B16849B31A4301F00F03022B18BF94
:104790000C46028318BFA1684FF003080909CDE752
:1047A000B16842F00202090902834FF00508C5E72B
:1047B0000323037080F801806B6A5B8B032B0CD1A1
:1047C000452F0AD14CB1E1682846FFF777FF99F8E9
:1047D000013043EA001089F80100BDE8F88300BF0A
:1047E000A8310308953903084E234D22FFF788BFEF
:1047F00046234522FFF784BF10B44279446A012A58
:104800000B4604D120465DF8044BFFF7BBBBC16AE1
:10481000806A224614315DF8044B02F005BC10B4E6
:104820004479426A012C0B4604D110465DF8044BD2
:1048300002F0ECBBC16A5DF8044B806A1C3102F0E7
:10484000F3BB436A10B55A8B0446FFF730FD0146AF
:104850002046BDE81040FFF7E2BF2DE9F3418D6827
:1048600005F00F030E2B04460E4606D0002D43D054
:10487000AB0741D12B79642B30D10095002501AADB
:1048800064216846FFF74AF90023019A194640F26D
:10489000CE4C834228DBF768E36AA06A9B6B40F248
:1048A0003E3297422AD19847E36AA06ADB6B052122
:1048B0009847E36AA06AD3F8A03000220121984704
:1048C00001AA29462046FFF707FDE36AA06A1B6B91
:1048D00002220021984702B0BDE8F081612B0BD184
:1048E000AB680093ED68CAE752F8237067450CBFC8
:1048F000013103310133CCE70021CCE7984706F1C1
:104900000C006A466921FFF709F900260746BE42F6
:10491000D4E90A0311DBD3F8A030002239469847C6
:10492000294601AA2046FFF7D7FC0025BD42D4E95D
:104930000A030BDB1B6E9847CDE7009ADB6B52F83E
:1049400026209168090998470136E0E7009A1B6B19
:1049500052F82580D8F80860360931460122984778
:10496000D8F80C1029B931462046FFF758FF013519
:10497000DCE70909F8E7C36A37B504460D469B6BC7
:10498000806A00219847E36AA06A5B6B0E21984712
:1049900001AA29462046FFF79FFC01992046FFF710
:1049A0003EFF03B030BD10B44479426A012C0B467F
:1049B00004D110465DF8044B02F028BBC16A5DF8D3
:1049C000044B806A243102F02FBB000037B5044647
:1049D0000D46B1B1CA0705D5C36A9B6B4910A06AE1
:1049E00098470EE08B0731D001F00F05062D4FEAF6
:1049F000111308D00A2D0CD0022D1FD11946FFF734
:104A0000FBFE03B030BDC26A806AD26B1946904784
:104A1000F7E74279042A03D0C36A12491B6CDEE728
:104A200001A91846FCF7CFFAE36A0199A46A1D6C44
:104A30000EF040FE01462046A847E2E7042BE0D0F6
:104A4000C26A806A526BD9B29047DAE7C36A0968D2
:104A50001B69806A98472A79034B294653F822300C
:104A60002046BDE774610308103803082DE9F14FB3
:104A70000D46A9070446164612D005F00F03022B77
:104A800017D129090AB1022A05D1204601B0BDE893
:104A9000F04FFFF7C4BE01B0BDE8F04FFFF7ACBE6A
:104AA0006968CBB22C2B7BD00BD8062B0DD02B2BCF
:104AB00012D0554A2946204601B0BDE8F04FFFF715
:104AC0009FBC2D2B7DD09B2BF3D1002EF1D105F176
:104AD00008030A0A002187E0022A02D0A968FFF72A
:104AE00075FFEF68002FE4D017F00309E1D17B6870
:104AF000DAB28C2AB8460DD1022E4FEA132805D01F
:104B000007F1080A08F1FF3BD94511DB08F101085C
:104B100057F8288098F80430302B24D1022E0FD17A
:104B2000E36AA06A9B6E9847E36A1B6D012115E05A
:104B30005AF8041B2046FFF749FF09F10109E3E792
:104B4000D8F808102046FFF741FF012EE36AECD1A8
:104B5000DB6DA06A9847E36A1B6D0021A06A01B073
:104B6000BDE8F04F1847312BA3D1012ED4E90A0339
:104B70000CD19B6D9847E36AD8F808105B6D002252
:104B8000A06A090901B0BDE8F04F1847022E01D113
:104B90005B6E9847E36AD8F808105B6D0122EFE777
:104BA000A868002885D0002A83D1C16839B311F0E4
:104BB000030324D14A68D6B2932E17D11A468168CE
:104BC00012E0002A7FF475AFA96829B90B4601B03D
:104BD000BDE8F04F00F01AB88B0703D10B79902B8A
:104BE0000846E2D000231A462046F0E7942E03D16F
:104BF00001F10803120AE2E7AB2E3FF45AAF00F1CD
:104C00000803022266E700BFDD3603082DE9F84FEE
:104C10000F1E054690461E4614BF4FF001094FF087
:104C2000000921D017F003041ED13B79212B1BD1A1
:104C3000C36A806AD3F8B030214698474FF0000A23
:104C400008F1FF3BC24512D1631C2DD1EB6AA86A63
:104C5000D3F8AC3009EB0801984777BB06EB88081E
:104C600046452DD1BDE8F88F4FF0FF34E6E756F802
:104C70002A1081B18A070ED10B79212B0BD1013477
:104C80000CD1EB6AA86AD3F8B0300AEB0904ABEB9D
:104C90000A02214698470AF1010AD3E728460F4A3B
:104CA000BDE8F84FFFF7ACBB002FD7D02CB9B968DF
:104CB00022462846FFF7DAFED0E700223946F8E719
:104CC00056F8041BA1454FF0000208BF896828462A
:104CD000FFF7CCFE09F10109C2E700BFF83603086F
:104CE0002DE9F74F04460D4616461F462846FEF7A7
:104CF00009FD20B1CEB9E36A3946DB6E4CE02846A7
:104D0000FEF70EFD08B186B1F5E7002D55D0AB07D3
:104D100053D16B684FEA132ADBB21D2B1AD1EEB1C7
:104D2000083505EB8A0A55450CD103B0BDE8F08F74
:104D30005B46019A59F8041B2046FFF7D1FF08F1A2
:104D400001081AE03B46324655F8041B2046FFF79F
:104D5000C7FFE8E71E2B24D1002EE1D0D4F810B015
:104D60000BF1010323610AF1FF33009386F0010385
:104D700005F108094FF000080193009B4345D7DC7B
:104D80000AF101013B4655F8211032462046FFF753
:104D9000A7FFE36ADB6A5946A06A03B0BDE8F04F9B
:104DA00018471F2B03D186F00106AD689EE72C2B18
:104DB00003D1AB68002BA6D19CE729462046FFF71C
:104DC00005FEE36AA06A1B6F3A46314603B0BDE8B0
:104DD000F04F18472DE9F04706691F46B31C0361E1
:104DE000C36A04460D46DB6A806A3146914698479D
:104DF000E36AA06AD3F88C3006F10108414698476F
:104E0000A96800222046FFF731FE2D69002D2DD123
:104E100049462046FFF7DAFD636A1978E36A0629F6
:104E20001DD1D3F8CC30A06A2946984720460121ED
:104E3000FFF7F7F8E36AA06A1B6E9847E36AA06A77
:104E4000DB6E31469847E36AA06ADB6A41469847C1
:104E5000E36AA06AD3F89030BDE8F0471847BA007B
:104E6000D3F8A830A06A05329847E7E72B79AC2B36
:104E700007D1A968334600222046FFF731FFED68CD
:104E8000C4E7E9682046FFF7A1FDE36AA06AD3F80A
:104E90008830012198477B1C4A4629462046FFF767
:104EA00099FFCBE72DE9F04104460D466271C36AD4
:104EB00045620026114606611B68806A2A469847AB
:104EC00006212046FFF7ADF86779012F08BF6E6213
:104ED000EE686EB1B2070BD133793C2B08D1B168C3
:104EE000FFF774FDE36AA06AD3F8C43098472CE05A
:104EF0002B784BB931462046FFF768FDE36A5B6BC0
:104F0000A06A0E219847EDE7072B24D1012F12D17B
:104F10000023A3714322594BF1682046FFF7A9F8FB
:104F20006B8B032B07D131692046FFF7C7FB2B8B17
:104F300043EA8010288320467169FFF747FDE36A42
:104F4000A06A9B6898470028D8D0E36AA06A5B688B
:104F5000BDE8F0411847022B15D1012F07D10023DE
:104F6000A3714B22464BB1682046FFF782F8F168E7
:104F70002046FFF72BFD2B8B5B07B3D5E36AA06AB6
:104F80001B6E9847BAE7033B032B4AD8012FD6F88C
:104F90000C8005D103223946606AFEF7F3FFAF8328
:104FA0002B78032B24D1E36AD3F8A030012200210F
:104FB000A06A98472B78062B28D1E36AA06A5B6C1D
:104FC000984701212046FFF717FCE36AA06A5B6C53
:104FD0009847E36AA06A5B6C98470023B268414631
:104FE0002046FFF7F7FE2B78062B7FF47BAF85E793
:104FF000042B04D1E36A0322D3F8A030D7E7052BB2
:10500000D8D1E36A0622D3F8A030D0E720460121A8
:10501000FFF7F2FBE36AA06AD3F8883001219847D2
:10502000DBE7012F04D103220A212846FEF7AAFF5D
:1050300017212046FFF7E0FB16212046FFF7EFFB84
:10504000B168E36AA06ADB6B090998471A21204618
:10505000FFF7E5FB31692046FFF7B8FC0A21284637
:10506000FEF780FF0378032BE36A3FF448AF5D69E6
:105070004288A06A00230A21A84733E7F1470008C5
:10508000E947000838B5436A1B78072B04460A46EF
:1050900006D0022B04D0154ABDE83840FFF7B0B95E
:1050A000956885B9E36AA06A5B6B0E219847E36A4D
:1050B000A06AD3F8CC300021984720460121BDE8F2
:1050C0003840FEF7AEBFAB070BD12B79AE2B08D122
:1050D0002046A968FFF77AFC2046BDE83840FFF774
:1050E00083B829462046FFF771FCE0E78F3B0308B1
:1050F00070B54379CD68012B0446164606D1436A44
:105100000A465B8B3146FFF7A8F8686100231A4610
:1051100069692046FEF7CBFFE9682046FFF756FC99
:10512000062E05D1E36AA06AD3F88830002198479B
:10513000E36AA06AD3F8BC500023AC461A460121AA
:10514000BDE87040604700002DE9F04F87B0CDE921
:105150000221044605AAA32103A81F46FEF7DEFC90
:105160004FF0000B0190D946DA465E46D846019BC7
:105170009B451ADB6EB1BAF1000F6CD1E36AA06AED
:105180005B6C9847B9F1000F6BD1E36AA06A5B6C66
:105190009847029AD4E90A03002A68D0D3F8C0409D
:1051A000334642463946A04710E0059A52F82B5044
:1051B000002D41D0A8073FD12A79A52A0FD1F107A8
:1051C00007D52C4A29462046FFF71AF907B0BDE853
:1051D000F08F46F00106AA460BF1010BC7E7A62A9D
:1051E00007D1B20701D5244AECE746F00206A946EA
:1051F000F2E7A72A20D1EA6822B1930702D11279F7
:10520000AB2A12D0A96801F00F02022A01D01B4A72
:10521000D8E7E26AA06AD26B09099047E96820469C
:10522000FFF7D4FB08F10108D6E7062229462046FD
:10523000FFF75EFF0137CFE70EB1114AC2E7B8F1C1
:10524000000F01D00F4ABDE729462046FFF7BEFBFD
:1052500001374646C0E7DAF808102046FFF7B6FBEC
:1052600090E7D9F808102046FFF7B0FB91E7D3F894
:10527000BC4095E7D23A0308E93A0308013B03082A
:10528000223B03083D3B030870B50D4641790129D7
:105290000446134603D12A46FEF7DFFF6861E36A3E
:1052A000A06ADB6C98476E6900231A463146204697
:1052B000FEF7FDFEE36AF18ADB6BA06A9847E968B6
:1052C00029B18B0703D10B79A22B08BF00212046FF
:1052D00002230022FFF738FFF08A70BD436A10B541
:1052E0005A8B0446FFF7D0FF01462046BDE8104028
:1052F000FFF795BA00231A468968FFF725BF38B52E
:105300000C460546C968FFF761FBA1682846BDE861
:105310003840FFF75BBB0B79332B70B504460D4665
:1053200010D18968FFF752FBED68AD6885B9E36A73
:10533000A06A5B6B0E219847E36A0822D3F8A0307D
:1053400002211AE0C36A806A5B6B0E219847ECE782
:10535000AB071FD12B79982B13D1E36AA06A5B6B43
:105360000E219847A9680029E6D02046FFF72EFBBA
:10537000E36AD3F8A03008220321A06ABDE8704098
:105380001847992B06D1A9682046FFF71FFBEB6849
:105390009968E8E729462046FFF718FBCCE710B5E7
:1053A00004468968FFF712FBE36AA06A1B6D0021BF
:1053B000BDE81040184700002DE9F7438D6804460A
:1053C000164645B9F2B1C36AD3F8A0300322294684
:1053D000A06A984716E0AB0740F086802B79362B01
:1053E00013D132B1C36A806AD3F8A03003220121FD
:1053F000984720462946FFF7E9FAE36AA06AD3F8FE
:10540000A430984703B0BDE8F0839D2B6CD1EB68C6
:105410001A79A02A58D1A12101AA03F10800FEF7A8
:105420007DFBA968804621B38F0722D10B79362BEB
:105430001FD136B1E36A411CD3F8A030A06A032221
:105440009847A9682046FFF7C1FAE36AA06AD3F833
:10545000A43098474FF00109002747450FDBB9F109
:10546000000FCFD1E36A0622D3F8A03008F1010182
:10547000AEE72046FFF7AAFA4FF00009ECE7019BE0
:1054800053F8271099B18E0711D10E79A6F1360085
:10549000464246412046FFF799FAB9F1000F0FD076
:1054A0003EB9164A29462046FEF7AAFFAAE700267B
:1054B000F0E7E36AA06AD3F8A43098470137CCE755
:1054C000002EFBD00E4AEDE7AB684BB19A0707D12F
:1054D0001B79362B04D104222946FFF709FE91E7F8
:1054E000052229462046F8E729462046FFF76EFAAE
:1054F000E36A0622D3F8A030012169E72A370308BE
:10550000473703080122FFF757BF2DE9F04107464F
:1055100015460C4611B1FFF759FA01243DB16E68EA
:105520004FF00008360A0835B04509DB3444FB6A01
:10553000B86AD3F8A03021460022BDE8F0411847F0
:1055400055F8041B3846FFF741FA08F10108EBE76C
:105550000A460021FFF7D9BF2DE9F8430C468968B8
:105560000546FFF733FAE668002E57D07768696A78
:10557000FBB209788C2BA36819BF04F10C06012734
:105580003F0A0836072903F00F024BD1022A47D100
:105590001A099A2A48D1326811792F2944D1926880
:1055A000002A41D10A212846FFF726F96A6AD36A00
:1055B000528D32B93168414A2846BDE8F843FEF7BA
:1055C0001FBF5978C9070FD559682846FFF714F946
:1055D000022FEB6A0BD8D3F8BC40A86A00231A4606
:1055E0000221A047012417E0013A0833E1E772687D
:1055F00011793129EFD1B46821792F29EBD1916844
:105600009B6CA86A012209099847A168002301221E
:105610002846FFF799FD0324A74226D8BDE8F88362
:105620000024F9E7022AFBD140F26722B2EB131FF4
:10563000F6D133681A792F2AF2D19B68002BEFD06C
:1056400013F00304ECD11B792E2BE5D1EB6AA86A89
:10565000D3F8BC80224623462146C0473368224601
:1056600099682846FFF7A8FEBCE704F10108B84591
:105670004FEA840356F824101AD20A79312A17D136
:105680003344D3F8049099F804302F2B10D1896853
:10569000EB6AA86A9B6C0022090998470023012243
:1056A000D9F808102846FFF74FFD08F10104B3E7C9
:1056B0002846FFF78BF9A046F7E700BF7F370308BE
:1056C000436A1B78072B10B50A46044606D0022B06
:1056D00004D0074ABDE81040FEF792BE20461146AE
:1056E000FFF73AFF2046BDE81040FEF77DBD00BF42
:1056F0006637030870B50D46C9680446FFF766F9BA
:10570000AB68C3F30713312B0AD0322B0CBF012136
:105710000221E36AA06AD3F89830BDE870401847C8
:105720000021F6E72DE9F0414E68DFF844800C4691
:1057300089680746FFF74AF9360A0225AE4201DCBE
:10574000BDE8F08121693846FFF740F9E368B86A9F
:10575000C3F30713313B082B98BF18F80310FB6AFB
:1057600088BF1921D3F89C30984702350834E5E703
:10577000BD3603082DE9F0414D680C468968804626
:10578000FFF724F9A5F10D07FFB22D0A0C3401260D
:10579000AE4201DBBDE8F08154F8041B4046FFF740
:1057A00015F9D8F82C30D8F82800D3F89C303946B1
:1057B00098470136ECE700002DE9F0474E68DFF826
:1057C000DC9004460D46360A8968FFF7FFF8032E81
:1057D00083BFD4F8108008F1010323614FF0000863
:1057E00001277B1C9E4222DC032E55DD2569A06A21
:1057F0006B1C2361E36A2946DB6E9847E36AA06A63
:10580000DB6A41469847E36AA06ADB680121984752
:10581000E36AA06A5B6E9847E36AA06A1B6E9847CA
:10582000E36AA06ADB6A2946BDE8F04718472969A0
:1058300020460237FFF7CAF8B74207DAE36AA06AE0
:105840009B6D9847E36AA06A9B6E9847EB68E26A93
:10585000A06AD2F89C2003F00F010E2911D11B0978
:10586000383B0B2B94BF19F8031006219047B74221
:1058700005DAE36AA06A5B6F424600219847083563
:10588000AFE71979832901D12421EFE79B680BB990
:105890000721EBE72521E9E7BDE8F087C6360308D5
:1058A00010B504468968FFF791F8E36AA06AD3F857
:1058B00098300321BDE8104018472DE9F0474D68A6
:1058C000D0F810805FFA85F9A9F11D03D3F1000922
:1058D00049EB030908F10103044603612D0A01F1B4
:1058E00008060027AF4206DBE36AA06ADB6A41468E
:1058F000BDE8F047184756F8041B20460137FFF76C
:1059000065F8AF42EEDAE36AA06A5B6F4246494649
:105910009847E7E701F00F03022B70B504460ED05D
:105920004B6803F0F702462A02D10123837170BD50
:10593000472AFCD0DBB2452B0DD10D696DB9A37997
:10594000002BF4D1E38A002BF1D020461D4ABDE89C
:105950007040FEF755BDCD68F0E7A37943B3A38A45
:105960008E6801339BB2012BA3820ED1E18AD4E968
:105970000A03D1B1D3F8A03000229847E36AA06AA5
:10598000D3F8A03003220021984729462046FFF78C
:105990001DF8E36AA06ADB6B31099847E36AA06AE5
:1059A000D3F8A430BDE8704018475B6C9847E5E732
:1059B000E38A0133E38229462046BDE87040FFF7C1
:1059C00005B800BFE23703082DE9F0410569CF684B
:1059D000AB1C03618846044600222B46B968FFF7DA
:1059E0007FF9D8F808102046FEF7F0FFE36AA06AB6
:1059F000DB6E6E1C31469847E36AA06ADB6A294673
:105A00009847E36AA06ADB684FF0FF319847F9686E
:105A10002046FEF7DBFFE36AA06ADB6A3146BDE899
:105A2000F04118472DE9F0470446904699460F4645
:105A300021B91946BDE8F047FEF7C8BF0669731CD7
:105A4000036115683DB315F0030A24D12B797A2B35
:105A500021D1A968FEF7BAFF524631462046FEF72B
:105A6000E8FA5246E9682046FFF700F808F1040218
:105A70004B46791E2046FFF7D5FFE36AA06AD3F8AC
:105A800080303146984720460321FEF7CAFABDE828
:105A9000F047FEF7DEBA29462046FEF797FF20467C
:105AA00000223146FEF7C5FAE36AA06A1B6E9847EA
:105AB000DCE737B50C46054601AA792104F1080058
:105AC000FEF72CF8E368019A01462846FFF7AAFF83
:105AD00003B030BD2DE9F04F85B006691D460E9B21
:105AE0000393731C0293B31C044603610F46934651
:105AF00031460222FEF79DFA39462046FEF766FF40
:105B0000E36AA06AD3F894300022711C9847E36AD4
:105B1000A06ADB6A31469847E36AA06AD3F8D030BE
:105B20009847D4F8108008F10103236100265E45F0
:105B300018DB2046FEF78DFAE36AA06AD3F8D4306A
:105B40009847E36A0299DB6AA06A9847039920465E
:105B5000FEF73CFFE36AA06ADB6A414605B0BDE898
:105B6000F04F18472B46D4F810901A68019209F1AB
:105B700001022261019A976804350136002F47D14E
:105B8000B3453AD1E36AA06A1B6E98474FF0000A0A
:105B90005746019B2046D968FEF718FFBAF1000F5F
:105BA00019D0E26AA06A526B0E219047E26AA06A9D
:105BB000D26A39469047E26AA06A526B0E2190473A
:105BC00051462046FEF72BFE20465146FEF7EBFEDF
:105BD0002046FEF73EFAE36AA06AD3F89430012229
:105BE00041469847E36AA06ADB6A49469847E36AF8
:105BF000A06ADB680121984799E720461E4A196888
:105C0000FEF7FEFB204605B0BDE8F04FFEF721BAD7
:105C100017F003032BD1397975293A462AD1D36875
:105C2000BF684FEA131AE26AA06A926D904739463C
:105C30002046FEF7CBFEE26AA06AD2F89C2008213B
:105C40009047E26AA06A176F00214A46B847BAF146
:105C5000000F97D051462046FEF7E1FD27697A1CD8
:105C60002261394603222046FEF7E3F991E74FF01F
:105C7000000AD8E79A46D6E75F3B03082DE9F347C9
:105C8000056999466B1C17460E4603610322294697
:105C90000446DDE90AA8FEF7CCF917BBE36AA06A5F
:105CA000DB680321984731462046FEF78FFEE36A02
:105CB000A06ADB686FF002019847E36AA06A5B6B39
:105CC0000E219847E36AA06ADB6A29469847204676
:105CD0004146FEF77BFE204602B0BDE8F047FEF7E6
:105CE000B8B9CDF800A04B463A4631462046FFF7FA
:105CF000F1FEE2E77FB5CD682B79772B06460C469F
:105D000009D1AB6801930023009389681A46FFF715
:105D1000B5FF04B070BD732B03AA4FF0760116D106
:105D200005F10800FDF7FAFE2B6902463BB9EB6866
:105D30000093039BA1683046FFF7CCFEE9E79B6820
:105D40000193EB680093A168039B3046DFE704F101
:105D50000C00FDF7E3FE002300930246039BE9E7F6
:105D60002DE9F04F8A6802F00F02022A89B08246BC
:105D70000E4640F02B81CA68002A00F02781940764
:105D800040F0248111792B2940F02081916801F0A5
:105D90000F00022840F01A8109097C2940F0168181
:105DA000D26811792F2940F0118192680692A321BF
:105DB00007AA06A8FDF7B2FE421E022A00F20681DB
:105DC000079901280A6800F0F28002284C6800F068
:105DD00061818D68E80740F1F9806B0800F0F6807A
:105DE00032B1910704D11179A539022940F2EE8030
:105DF00034B1A30704D12179A539022940F2E68004
:105E0000B3680193336977690293DAF81060DAF8BE
:105E10001830BAF81C100493BAF81E30039306F138
:105E20000109B31CAAF81E1014F0010806F10401C0
:105E30000593AAF81860AAF81A9006F1030BCAF89D
:105E4000101005D1214650460592FEF7BFFD059A78
:105E500011465046FEF7BAFDDAF82C20DAF8280091
:105E6000D26E59469047DAF82C20DAF82800D26A28
:105E7000B11C9047DAF82C20DAF82800926D904790
:105E8000002201995046FEF7F1FD02995046FEF7B7
:105E90009DFDDAF82C20DAF82800D26A49469047AE
:105EA00029465046FEF792FDDAF82C20DAF8280051
:105EB000D2F89C200E219047DAF82C20DAF828003E
:105EC000D26A59469047DAF82C20B8F1000F72D107
:105ED000D26DDAF828009047DAF82C20DAF828009A
:105EE000526E9047DAF82C20DAF82800D2F89C207D
:105EF000002DACBF002101219047DAF82C20DAF800
:105F00002800156F0121B21CA847049BCAF818305D
:105F1000039BAAF81E30002F56D0DAF82C20DAF8AE
:105F20002800126E9047B8F1000F05D1DAF82C2046
:105F3000DAF82800126E904739465046FEF746FDC3
:105F4000DAF81050DAF828006A1CCAF81020DAF8DB
:105F50002C202946D26E9047E143DAF82C20DAF85B
:105F60002800D26801F0010101319047DAF82C20B5
:105F7000DAF82800D26A31469047DAF82C20DAF8AD
:105F80002800126E9047B8F1000F05D1DAF82C20E6
:105F9000DAF82800126E904737B1DAF82C20D26A6E
:105FA0002946DAF82800904709B0BDE8F08F14467A
:105FB000032502461CE7DAF82800926D9047214637
:105FC0005046FEF703FD8DE73D46CFE7DAF8104077
:105FD000BAF81C20BAF81E80AAF81E206FEA4442C4
:105FE0006FEA5242DAF81890AAF81820E21CCAF8B0
:105FF0001020651CF168AAF81A505046FEF7E6FC1E
:10600000DAF82C20DAF82800D2F88820012190470D
:10601000DAF82C20DAF82800D26A29469047DAF814
:106020002C20DAF82800D2F88C20A71C394690479B
:106030000022B1685046FEF719FD50463169FEF75F
:10604000C5FCDAF82C20DAF828009268904730B9BD
:10605000DAF82C20DAF82800D26E29469047DAF8D0
:106060002C20DAF82800D26A39469047DAF82C203A
:10607000DAF82800D2F8902090477169CAF8189091
:10608000AAF81E805046FEF7A1FCDAF82C20214623
:10609000D26A86E70325A3E62DE9F0470669D0F822
:1060A00018A0B0F81E900683B31C036106F1010826
:1060B000838BA0F81A800446C38388680D46FDF7D9
:1060C00021FBF8B927697B1C2361A868FDF728FB31
:1060D00020B9E36AA06ADB6E41469847E36AA06A8A
:1060E000DB6A39469847E9682046FEF76FFCE36AA9
:1060F000A06ADB6A414698473B460122A9682046D0
:10610000FEF7EEFD2969C4F818A02046A4F81E90F9
:10611000FEF75CFCE36AA06ADB6A3146BDE8F04743
:1061200018472DE9F3470669731C03610446886824
:106130000D46FDF7E7FA024610BB27697B1C236179
:10614000A9683B462046FEF7CBFD2046E968FEF7EE
:106150003DFCA868FDF7E4FA00BB2B690BB96B693D
:106160004BB1E36AA06A9B68984720B9E36AA06ACA
:10617000DB6E31469847E36AA06ADB6A3946984786
:1061800001AA702105F11000FDF7C8FC0027824626
:1061900057450BDB69692046FEF718FCE36AA06AE5
:1061A000DB6A3146984702B0BDE8F087019B53F89F
:1061B0002780D8F80800FDF7A5FA024620BBD4F8DE
:1061C000109009F101032361D8F808104B462046CE
:1061D000FEF786FD2046D8F80C10FEF7F7FBD8F83E
:1061E0000800FDF79DFA0028D8D1E36AA06A9B68F1
:1061F000984720B9E36AA06ADB6E31469847E36AA4
:10620000A06ADB6A494698470137C1E72DE9F74F95
:10621000044692469B46894629B9194603B0BDE813
:10622000F04FFEF7D3BB05692B1D036113686F1C8C
:1062300005F10208EE1C002B00F0F28013F00302BF
:1062400040F0EE8019797A2940F0EA80996801924D
:106250000093FEF7BBFBE16AA06A896D8847A8211D
:106260002046FDF7DAFFDDE900322046D968FEF767
:10627000FDFB032229462046FDF7DBFEE36AA06A08
:10628000DB68032198470AF104025B4609F1FF31FC
:106290002046FFF7BBFFE36AA06ADB686FF00201EC
:1062A0009847E36AA06A5B6B0E219847E36AA06A8D
:1062B0005B6E9847E36AA06ADB6E39469847E36AEB
:1062C000A06ADB6A29469847E36AA06A9B6D9847F3
:1062D000E36AA06A9B69012221219847E36AA06AC8
:1062E000D3F89C3008219847E36AA06A1B6F4246A6
:1062F00000219847E36AA06A9B6D9847E36AA06A09
:106300009B6E9847E36AA06A5B6E9847E36AA06A4F
:106310009B6C0022A9219847E36AA06A9B6E98476C
:10632000E36AA06A9B6E9847E36AA06A9B6D9847F0
:10633000E36AA06A5B6D00220A219847E36AA06ABB
:106340005B6E9847E36AA06A5B6B0E219847E36A2D
:10635000A06AD3F8C05000231A460321A84720465C
:10636000FDF742FFE36AA06A1B6F3246002198479F
:10637000E36AA06A1B6E9847E36AA06A5B6B0E2112
:106380009847E36AA06ADB6E31469847E36AA06AE1
:10639000DB6802219847E36AA06ADB6A41469847B6
:1063A000E36AA06A9B6E9847E36AA06A9B6E98476F
:1063B000E36AA06ADB6A39469847E36AA06A9B6C85
:1063C0000022A9219847E36AA06A5B6B0E219847D7
:1063D000E36AA06A9B6D9847E36AA06A9B6D984741
:1063E000E36AA06AD3F8C05000231A460321A847E5
:1063F0002046FDF7F9FEE36AA06A1B6E9847E36A40
:10640000A06ADB684FF0FF319847E36AA06ADB6A55
:1064100031469847204603B0BDE8F04FFDF719BE5E
:1064200019462046FEF7D2FAE36AA06A9B6D9847A8
:106430002046A821FDF7F1FEE36AA06A1B6E98478B
:1064400017E72DE9F04F8D682B79032B87B00446B1
:106450000AD12946FEF7F5F9AA69138B43F0040324
:10646000138307B0BDE8F08F162B40F0A4800669B7
:10647000EB684FEA1318331D0361E968FEF7A6FACB
:106480002046AA21FDF7C9FE41462046FEF7C7F97E
:106490002769A3690293BA1C2261A28BE38BE28372
:1064A000E26A01937B1C6383194606F1010BA06A23
:1064B0002783D26A03939047022259462046FDF76C
:1064C000B8FD41462046FEF797F92046AC21FDF77E
:1064D000A4FEA96820460022FEF7C8FAE26AA06A74
:1064E000D2F8948006F1020949460022C047E26AC8
:1064F000A06AD26A59469047E26AA06AD2F8D020D0
:106500009047E26AA06A926D9047E26AA06AD2F868
:10651000188040F281210122C047E26AA06AD2F8C5
:106520009C2008219047E26AA06AD2F8708006F1A8
:10653000030A52460021C047E26AA06A126E9047E1
:10654000E26AA06AD2F8948031460122C047E26A2A
:10655000A06AD26A51469047E26AA06AD2680121D5
:1065600090472046FDF775FDE26AA06AD2F8D42074
:106570009047E26AA06AD26A494690472969204654
:10658000FEF724FA039BE26AA06AD26E194690478E
:10659000029BA361019BE383E36AA06ADB6A314645
:1065A000984769692046FEF711FAE36AA06ADB6A38
:1065B0003946984755E705AA792105F10800FDF706
:1065C000ADFAEB68059A01462046FFF71FFE48E743
:1065D00070B58D6804463DB9C36AD3F8C830294602
:1065E000A06ABDE870401847AB070ED12B795D2B30
:1065F0000BD1A968FEF7EAF9E9682046FEF7E6F94B
:10660000E36A0221D3F8C830EAE729462046FEF7BC
:10661000DDF9E36A0121D3F8C830E1E710B504469B
:106620008968FEF7D3F9E36AA06A1B6EBDE81040E3
:10663000184700002DE9F04705460C4604F00F030B
:10664000022B05D121092846BDE8F047FEF7ABB97A
:10665000002C68D0A20766D123792B2B39D1A168F1
:106660002846FEF7B3F9E668002E5CD016F0030862
:1066700059D17768FAB28C2A334609D13F0A06F11C
:10668000080907F1FF3AC24510DC013756F82730F8
:106690001A79302A12D199682846FEF797F9EB6AE1
:1066A000A86A1B6D0221BDE8F047184759F8041B82
:1066B0002846FEF78BF908F10108E4E7312A32D1C8
:1066C0009968EB6AA86A5B6D02220909BDE8F04788
:1066D00018472C2B27D1A4682CB3E668EEB1B3077A
:1066E0001BD17768FAB2932A01D1A468A6E7942A4D
:1066F00011D1A1682846FFF79DFF3F0A0836002404
:10670000BC4201DBBDE8F08756F8041B2846FFF7C2
:1067100091FF0134F4E7AB2A05D0A1682846FFF7C2
:1067200089FFE4688AE721462846024ABDE8F04727
:10673000FDF766BE123703082DE9F041CD68044627
:106740000F4635BB0379BBB1436A1D78A5B9C92192
:10675000FEF752F8B9682046FEF738F9E36AA06AF6
:10676000D3F8BC602A462B460121B047E36AA06AF1
:106770001B6EBDE8F0411847B968880700F0AE808D
:1067800001F00F03022B40F0B0802046FEF71EF907
:10679000ECE7A90740F09C806B68DAB2562A18D162
:1067A0000122B968FEF762F9E9682046FEF70EF9A2
:1067B000AB68A06A1B09503B0A2B9CBF4C4AD15CBA
:1067C000E36A88BF1421D3F89C3098470222B96845
:1067D00079E0572A25D11B0A03F1FF38013355F818
:1067E0002310FEF7F3F8B8F1000F03DDE36AA06AA7
:1067F0009B6D98470022B9682046FEF737F90835A7
:106800000026464571DA0136464503DAE36AA06A96
:106810009B6D9847002255F8041B2046FEF726F989
:10682000EFE7062A54D1BE68002E51D0B2074FD1EF
:106830007268D1B206294BD14FEA1228B8EB132F58
:1068400046D1A8F10203012B42D8B36823B19807BF
:1068500002D11B79212B3BD0F36823B1990702D1D8
:106860001B79212B34D0B8F1020F06D0336923B144
:106870009A0702D11B79212B2AD0A9682046FEF75E
:10688000A5F8E9682046FEF7A1F8B8F1030F07D193
:1068900020462969FEF79AF8E36AA06A9B6E98473A
:1068A000E36AA06A5B6E98470022B1682046FEF753
:1068B000DDF80022F1682046FEF7D8F8B8F1030FA2
:1068C00013D1316900222046BDE8F041FEF7CEB871
:1068D00029462046FEF77AF8002278E700293FF49F
:1068E00054AF0B79392B7FF450AFBDE8F08100BF76
:1068F000D23603082DE9F04F044685B08B4602AA34
:106900003F210BF10800FDF709F9636A00265D8B52
:106910000746B146BE420ADBDBF80C100B79032BAD
:1069200050D12A462046FDF7C2FC054658E0029B9E
:1069300053F82630019303AA6B2103F10800FDF7F9
:10694000EDF8039B19680A09732A82460DD0204688
:10695000FEF73CF84FF00108D04527DB019BD968D2
:1069600059B12046FEF732F807E0022807D02A4A3C
:106970002046FDF745FD09F101090136CAE75968CE
:106980000B09412B0CD040F2993293420AD0B3F557
:106990008B6F09D040F2B1229342E8D10425EAE797
:1069A0000125E8E70546E6E70325E4E7039BA06A3F
:1069B00053F82810E36A00225B6D0909984708F133
:1069C0000108C9E7412B17D18E682A463146204677
:1069D000FDF76DFCB269138B43F004030546138386
:1069E0000026A7EB0907B7420BDC29462046FDF736
:1069F00016FF05B0BDE8F08F2A462046FEF744FC9E
:106A000093E7E36AA06AD3F8BC8000231A46012109
:106A1000C0470136E7E700BFC43703084B682DE9DC
:106A2000F04106460F461D0A01F108080024AC4259
:106A300001DBBDE8F08158F8041B3046FDF7C6FFC6
:106A4000B36843B1023406F10C0057F82410BDE8D6
:106A5000F041FDF7CBBC0134E9E710B50446FFF780
:106A6000DDFFE36AA06AD3F89C302021BDE8104026
:106A7000184770B58D68044645B9C36AD3F8A0308D
:106A800001222946A06ABDE870401847AA0739D1FB
:106A90002B79902B36D1EE6836B3B30724D13379F6
:106AA000932B08D1A968FDF791FFE36A0122D3F87F
:106AB000A0301146E6E7942B0ED1A968FDF786FFBA
:106AC00031462046FFF7AAFF7168E36A090A0122EE
:106AD000D3F8A0301144D5E7AB2B05D129460322CA
:106AE000BDE87040FEF704BBA9682046FDF76EFFC5
:106AF000E9682046FDF76AFFE36A0122D3F8A03077
:106B00000221BFE729462046CDE7896830B4054613
:106B100019B90A4630BCFEF7F8BCCB688BB113F04C
:106B200003020ED11C79932C01D18968F2E7942CD1
:106B300001D11A46F9E7AB2C03D1062230BCFEF78F
:106B4000D7BA0A4628460021E4E70000184B2DE991
:106B5000F041D3F8E46104460F463EBB05696B1C67
:106B6000036101222B468968FEF7BAF8E36AA06A3E
:106B70009B691F2101229847F96851B12046FDF712
:106B800025FFE36AA06AD3F8BC7032463346012180
:106B9000B847E36AA06AD3F8C83001219847E36A8E
:106BA000A06ADB6A2946BDE8F0411847BDE8F081DC
:106BB00040040020426A1278072A2DE9F041044679
:106BC00004D01B4ABDE8F041FDF71ABC8D685DB9E1
:106BD000C36A806A5B6B0E219847E36AA06AD3F8A8
:106BE000C430BDE8F041184715F003021DD12B79E0
:106BF0001A2B1AD10669EF68731C0361B968334612
:106C0000FEF76EF8A9682046FDF7E0FEE36AA06A89
:106C1000D3F8C4309847E36AA06ADB6A31469847E4
:106C2000F9682046FDF7D2FED7E72946F9E700BF0D
:106C30007B3903082DE9F74F4379012B04460D46B4
:106C400008D10F79102F08D0436A1B782BB9224A3C
:106C5000FDF7D6FB03B0BDE8F08F01AA6C2105F16A
:106C60000800FCF75BFFDFF87CB080460026B045EB
:106C7000F0DD019B606A53F8261000220909FDF738
:106C800081F9102F8146027815D112F0FD0F05D041
:106C90005A4629462046FDF7B3FB0AE04FF0020AA8
:106CA00080F800A04168606AFDF78DF908B180F8AE
:106CB00000A00136DBE75AB9012202700146606A82
:106CC000FDF787F999F80030012BF2D1034AE0E78C
:106CD000052AEED0024ADCE7F83803083C390308FD
:106CE0005A3903081D3903082DE9F04F91B01446B5
:106CF00001900E463422002103A81D4618F0E4FC42
:106D0000019A8DF80C504FF0FF33089312680296E9
:106D10002346002102A8FDF7A0FA054600F0E2FE96
:106D2000A44B0A9C0C9080460D9300270CB1049E46
:106D300026B30A9C14B1049B002B3FD03946404631
:106D400000F0D3FEDFF86C920A9CDFF86CA2DFF84B
:106D50006CB20026049B002C00F03281002B00F066
:106D6000E8800B9B05A8D968FDF740FB0B9B059AB3
:106D7000DB8A0299049809F031F924E1638B042B32
:106D80004FF00102214602A807D1FDF74DFB069BFB
:106D9000A4689F4238BF1F46C8E7FEF783F8638D9B
:106DA0009E42F4D2E36A03EBC60113F83630012B9E
:106DB00002D12046FDF70DF90136F0E7228BD2070C
:106DC00012D5618D11F1FF310ED3E26A02EBC102DF
:106DD0005078860723D53BB1D3E900C692E803007B
:106DE00083E80300C2E900C64FF000036384002675
:106DF000B4F82AC0664518DB00239C454ED1D4F870
:106E000004E0BEF1000F08D00020BEF82AB003460F
:106E1000584553DB002B40F08A80A4688AE7002B9A
:106E2000D0D1012808BF1346CCE72378D4F82C90A2
:106E30004FEAC60B012B09EB0B0A05D1DAF8043037
:106E40000A2B12D10136D3E719F836300DD9012BB0
:106E50000BD14FF0020309F80B30638B032B16D0D4
:106E6000238B43F01003238303E019F80B30022B2C
:106E7000F3D019F80B30032B03D09AF80130DB075D
:106E8000E0D5638C5A1C6284AAF80230DAE7DAF89B
:106E9000040006F0C3FC0128EBDCE1E7E26A02EB48
:106EA000C30112F83320042A06D14A78D6075FBFFF
:106EB000628C4A800132628401339EE7DEF82C2026
:106EC00002EBC00A12F83020043A012A15D8002635
:106ED00011E0E26A02EBC60912F83620052A09D150
:106EE000D9F804201146DAF804208A4204BFA9F830
:106EF000023001330136B445EBD1013088E7E06A56
:106F000000EBC20110F83200052802D14878C00712
:106F100002D548881844488001329445EFD1A28BAD
:106F20009BB21A44A283628C1344638475E70022E7
:106F3000F3E7638B042B17D10E9B1BB9384604F083
:106F4000CFFA0E9000230322214602A80C93CDF81D
:106F50003CB0FDF769FA049B23B90422214602A83C
:106F6000FDF762FAA468F5E6023B012B1ED82EB9A4
:106F70003A4606A904A803F007FC0646CDE90C6AC8
:106F80000222214602A8FDF78DFF049B002BE9D1C8
:106F90000322214602A8FDF785FF049B002BE1D1C7
:106FA0000422214602A8FDF77DFFDBE7CDE90C892D
:106FB000E6E700BFA83B0308003E0308BC3F030808
:106FC000002B7FF4CEAE404600F097FD16B1304660
:106FD00003F0F8FB0E9808B104F097FA0198FCF75B
:106FE00085FF2C69AE682846FCF7B2FF3546002EB7
:106FF000F8D1049808B1F9F7F1F832463146204645
:1070000004F0FEFE11B0BDE8F08F00BF10B50446DD
:107010000122FCF7B7FF2378012B04D90378012B59
:1070200004BF0323037010BD70B505460E4610461D
:1070300019461C46FCF796FF0378012B06D17368AE
:10704000002221462846BDE870401847022B02D195
:1070500073680122F5E736684288032B21462846EB
:10706000B4460CBF00230123BDE87040604737B52C
:107070000DF105040B46214602F07F05D20904F804
:10708000015DF9D1091B984701AD01462346AB428A
:1070900005D19DF804201B1BC25403B030BD13F86A
:1070A000012B62F07F0201F8012BF0E780790030BC
:1070B00018BF012070474379012B09D08368194418
:1070C000C36881609A8C9142C8BF99840023837100
:1070D00070476FF00301FFF7EEBF0421FFF7EBBF2E
:1070E0006FF00201FFF7E7BF0346026A4079032809
:1070F00088BF186B114494BF1846801819627047F6
:1071000010B50C460121FFF7EFFF047010BD0346D8
:10711000806A5A79032A88BF5A6A014484BF1218C8
:10712000186B996294BF18468018704710B50C46CA
:107130000121FFF7ECFF047010BD000038B50446D4
:107140001546FFF7F3FF2A4620460249BDE83840BE
:10715000FFF78DBF0F71000830B4C468A38BE48BB8
:107160002344C48E1C44038F5D1C2344447905874B
:10717000042C04BFC46B44F823201A4630BCFFF72C
:10718000DDBF2833D9B2FFF7D9BF70B5032A0D464A
:10719000144614BFC5F101010121FFF78CFF04F172
:1071A00050012A46C9B2BDE87040FFF7C7BF0329A6
:1071B000F8B5064617460FD0042910D00024022542
:1071C000E14330463C44FFF776FF45EA840257210D
:1071D000BDE8F840FFF7B2BF00242546F0E70124E0
:1071E000FBE738B50C460139FFF765FF2246592108
:1071F000BDE83840FFF7A2BF70B50C4615461144F4
:10720000FFF759FF44EA05225A21BDE87040FFF715
:1072100095BF10B50121FFF74EFF1821BDE81040C2
:10722000FFF784BF70B501211D4606461446FFF7DF
:1072300042FF45B90F2C06D8A4F15001C9B2BDE8F0
:107240007040FFF773BF05F1190122463046C9B2FD
:10725000BDE87040FFF772BF10B50121FFF72BFFAB
:107260002021BDE81040FFF761BF70B54FF0FF313E
:107270001D4606461446FFF71EFF45B90F2C06D8DB
:10728000A4F14001C9B2BDE87040FFF74FBF05F15E
:10729000220122463046C9B2BDE87040FFF74EBF1A
:1072A00010B50121FFF707FF3021BDE81040FFF7BF
:1072B0003DBF10B50221FFF7FEFE3121BDE81040B1
:1072C000FFF734BF10B54FF0FF31FFF7F4FE322166
:1072D000BDE81040FFF72ABF10B50021FFF7EBFE15
:1072E0003321BDE81040FFF721BF10B50021FFF7A3
:1072F000E2FE3421BDE81040FFF718BF10B54FF093
:10730000FF31FFF7D8FE4121BDE81040FFF70EBF67
:1073100038B50D1E14BF03210021FFF7CCFE002D50
:1073200014BF47214221BDE83840FFF7FFBE38B502
:107330000C460021FFF7BFFEA4F13001C9B2BDE841
:107340003840FFF7F3BE10B56FF00101FFF7B3FE51
:107350005421BDE81040FFF7E9BE10B54FF0FF31F2
:10736000FFF7A9FE012383715B21BDE81040FFF701
:10737000DDBE38B50C464942FFF79DFEC268138B4F
:1073800004F15D0143F004031383C9B2BDE8384042
:10739000FFF7CCBE38B50D4603211446FFF7B7FE04
:1073A0004470240A0570847038BD012A70B5054602
:1073B0000E4614460BD11146FFF77DFE04F168011D
:1073C00032462846C9B2BDE87040FFF7E3BF4FF030
:1073D000FF31FFF770FE022CF0D16A21BDE870404A
:1073E000FFF7A4BE38B50D460121FFF764FE2A461B
:1073F0001621BDE83840FFF7CDBF70B514460E46E4
:107400000121FFF758FE04F11B013246C9B2BDE865
:107410007040FFF7BFBF70B50E4651001446C1F172
:107420000101FFF748FE002C324614BF1F211E2128
:10743000BDE87040FFF7AEBF70B514460E464FF082
:10744000FF31FFF738FE04F124013246C9B2BDE82E
:107450007040FFF79FBF70B514460E460021FFF73E
:107460002AFE04F12A013246C9B2BDE87040FFF796
:1074700091BF38B54379032B81BF846AC369C4F1D6
:10748000FF2404F57F0484BF53F82230FD340D46F9
:107490004FF003018CBFE4180024FFF738FE44705E
:1074A000240A0570847038BD70B505460E46144632
:1074B0005AB90221FFF7FFFD04F13D01324628468B
:1074C000C9B2BDE87040FFF7D4BF0021F2E738B57C
:1074D0000D460121FFF7EFFD2A464321BDE8384064
:1074E000FFF7C7BF38B50D460021FFF7E4FD2A4678
:1074F0004421BDE83840FFF7BCBF38B54379032BC2
:1075000081BF846AC369C4F5FF4453F8223088BF41
:107510007D340D464FF003018CBFE4180024FFF7C3
:10752000F6FD447024120570847038BD38B50D46E0
:107530000021FFF7C0FD2A463521BDE83840FFF79E
:10754000DCBF70B515460E464FF0FF310446FFF71D
:10755000B2FD2A462EB136212046BDE87040FFF725
:10756000CCBF3721F8E770B515460E464FF0FF3116
:107570000446FFF7A0FD2A462EB138212046BDE87B
:107580007040FFF7BABF3921F8E70000264BD3F867
:10759000E431022B2DE9F047064689460ED84569AD
:1075A000A9420BD9846A03694D1BE41A40F2FF77A4
:1075B00055EA040304D1B36AC6E90439BDE8F0878B
:1075C000062D01D90F2C1AD91F2CA24628BF4FF027
:1075D0001F0A544510D8032DA84628BF4FF00308B2
:1075E00001213046FFF780FD4AEA48130370A4EBFF
:1075F0000A04A5EB0805DBE74FF00008F0E7BD4201
:10760000A8464FF0020128BFB8463046FFF76CFD90
:107610004FEA181303F07003234363F07F030370F2
:1076200080F80180A246E2E74004002038B50D460C
:107630000021FFF740FD4379012B05D0032B9EBFAE
:10764000C369826A43F8252038BD38B504460D4623
:107650004AB91146FFF72FFD2A461D212046BDE8F5
:107660003840FFF797BE022A04D1FFF7D2FD20462B
:10767000FFF732FE6FF001012046FFF71CFD2A469E
:107680002621EBE710B5044649B94FF0FF31FFF76B
:1076900012FD21212046BDE81040FFF747BD022919
:1076A00004D1FFF7B6FD2046FFF71FFE6FF0020181
:1076B0002046FFF700FD2721ECE7F8B505460C460C
:1076C00021F400471646D2B91146FFF7F4FC230413
:1076D0000ED53221FFF72AFD32212846FFF726FD7D
:1076E00032212846FFF722FD32212846FFF71EFDF2
:1076F0003A4628463521BDE8F840FFF7FEBE3A4637
:107700004621FFF7FAFE210A21F07F013143284686
:10771000C9B2BDE8F840FFF709BD242970B5054698
:107720000C4617D0252918D1012607244FF0FF3128
:107730002846FFF7C0FCA4F12901C9B2FFF7F6FC07
:107740006EB100212846FFF7B6FCD321BDE870409A
:10775000FFF7ECBC01260624E8E70026E6E770BD4B
:1077600038B5134304460D4609D10121FFF7A3FCA8
:107770002A6960212046BDE83840FFF7EDBC4FF094
:10778000FF31FFF798FC2A696121F3E770B50E46D7
:1077900004990B430446D5B20ED1C2F10101FFF7A3
:1077A0008AFC326962212046FFF7D6FC2946204632
:1077B000BDE87040FFF7BABCD143FFF77CFC3269EB
:1077C0006321F0E7F8B5DDE90646C91AA1EB4401EB
:1077D0000746D5B243EA042456B10239FFF76BFCE1
:1077E000691C2246C9B23846BDE8F840FFF7A6BC7E
:1077F000FFF761FC22462946F5E707B5CDE90023EE
:107800000B4664220021FFF7DDFF03B05DF804FBA7
:1078100007B5CDE900230B4666224FF0FF31FFF795
:10782000D1FF03B05DF804FB4379012B10B504468A
:107830001BD00021FFF764FCA38EE3866379032B42
:1078400014D1A36A206A6062E3621844F8F7F4FC7A
:10785000E3682063988BDB8B1844A38E1844238F36
:1078600018448000F8F7E8FCE06310BD042BFCD15D
:10787000E068E26B038B216B0069BDE8104004F007
:107880009DBA73B50C4601210646FFF714FC04F1BE
:1078900010033F2B06D8A4F18001C9B2FFF746FCC4
:1078A00002B070BD1421FFF741FC0DF1050319462C
:1078B000E2B202F07F00E41103F8010C601C012821
:1078C00003F1FF3516D8013402F0400214D11AB981
:1078D0007F2205F8012C9D1E491B3046FFF717FC3F
:1078E00001AC01462B46A3420AD15D1B9DF8042042
:1078F0004255D5E72B46DBE7002AEDD00022E8E72A
:1079000013F8012B62F07F0201F8012BEBE738B589
:107910000C464942FFF7CFFB0221FFF7F8FB5C233F
:107920000370447038BDC3689A8BDB8B1344828E1E
:1079300010B4541C1A4443798486042B08BFC36BCB
:107940005DF8044B08BF43F822101721FFF7F6BB80
:1079500038B50D460121FFF7AEFB2946BDE838409A
:10796000FFF7E1BF38B50D4601210446FFF7A3FB41
:107970000E2D09D00F2D09D00D2D09D11021204633
:10798000BDE83840FFF7D2BB1121F8E71221F6E736
:107990000249BDE83840FFF7C6BF00BF30650308A5
:1079A00038B504460D460E21FFF7DCFF2046294678
:1079B000FFF73CFE0221FFF77EFB3E21FFF7B6FBFF
:1079C00020466FF00301BDE83840FFF774BB0000AC
:1079D000F8B50446002315466171C0E9032301226E
:1079E000836083714261836203626A8CAB8CD218BC
:1079F00008BF01220F463A49FFF739FBEA8C3849A4
:107A00002046FFF734FBE3682046197EFFF778FB3A
:107A1000E3682046197FFFF773FBE3682046997FF0
:107A2000FFF76EFBE368204693F82010FFF768FB32
:107A3000042F2BD1D4E908322949D21A2046FFF766
:107A400016FB02212046EE8AFFF74EFB0670360A2F
:107A5000467002212046AE8AFFF746FB0670360AC2
:107A6000467000266B8DB34215DCFF212046FFF7E0
:107A70005DFB0023042FA386238730D1A88BEA8BDC
:107A8000104498422BD06E8D002124E00221204624
:107A9000FFF72AFBD5E7EB6A03EBC60213F8363093
:107AA000042B03D191782046FFF740FB0136D9E73C
:107AB000EA6A02EBC1025778FF070BD557889F424D
:107AC00008D15268E16B920042F0020241F8232093
:107AD0000133D6E701318E42EADC0522F2E7F8BD38
:107AE000E97000084020F8F7A7BB10B50446816193
:107AF0008800F8F793FBE06110BD10B50446C0693B
:107B0000F8F7A9FB2046BDE81040F8F7A4BB10B574
:107B1000044601618800F8F781FB606110BD10B573
:107B2000044611B1C068F8F796FB6069BDE81040E3
:107B3000F8F791BB012938B504460D460ADC026905
:107B4000406992004FF0FF3117F0BEFD0023256021
:107B5000636038BD4068F8F761FB6368E060A3606C
:107B6000F4E7D0E90032022B0ABFC36800239B1858
:107B700011444160184670470368012BDEBF43691A
:107B8000426843F82120704742684B1E1344494223
:107B90000B404360704738B50C461546FFF7E1FFD0
:107BA00010B10444A04200D138BD00F8015B2D0A99
:107BB000F8E7704710B50C460221FFF7D2FF10B16D
:107BC0000470240A447010BD38B50D4604211446D3
:107BD000FFF7C7FF28B1057084702D0A240A45708D
:107BE000C47038BD032998BF144B70B591BF5E5C5B
:107BF0000239FE2621F0010498BF002446F43541E5
:107C00000546FFF7D7FF44B17F2C09D844F4304133
:107C100041F080012846FFF7CDFFC5E9066470BD3D
:107C2000A300A201DBB202F4E0421A4342F4506224
:107C30004FF2AD212846FFF7C7FFEEE7803C03086F
:107C4000C16910B5044629B17F290BD841F43041F0
:107C5000FFF7B0FFA169204641F43D41BDE8104067
:107C6000FFF7A8BF8B008A01DBB202F4E0421A439F
:107C700042F450624FF20D21FFF7A6FFEAE71143ED
:107C800041EAC301FFF796BF072A85BF083AD20031
:107C9000D20042F04002072985BF08391143114341
:107CA00041F0800141F48C41FFF784BF70B5DCB234
:107CB00044EA02225C101D0104F48064C3F3033320
:107CC0004668234305F4E0452A431943FFF77CFF48
:107CD000304670BD38B5436953F821404368E41A13
:107CE000043C0546C4F34A0141F46041FFF762FFDA
:107CF0002B68022B0AD124F4FF6020F0070028B182
:107D000010F5006F14BF0020012038BD0120FCE7F2
:107D1000F8B5446954F822404268A41A043C064667
:107D200065101F46B3B9EDB245EA012141F4504157
:107D3000FFF740FF3368022B0AD134F0FF0307D06E
:107D400013F5807F14BF002301231F463846F8BD7A
:107D50000123FAE7A61204F4005206F48066C4F385
:107D60008534C5F30B0534432A4344EA811142F4B8
:107D7000004241F47041FFF727FFE7E738B5436958
:107D800053F821404368E41A043C0546C4F34F020B
:107D9000C4F30A3142F4784241F47041FFF714FF12
:107DA0002B68022B08D1A00D800528B110F5800F9B
:107DB00014BF0020012038BD0120FCE7F8B50446BF
:107DC0000D461646476813460A464FF24021FFF714
:107DD0006DFF330C2A464FF2C0212046FFF766FFA5
:107DE0003846F8BD072910B404460AD832F0FF031C
:107DF00007D142EA012141F400515DF8044BFFF73D
:107E0000D9BE130C1B0443B9134620460A465DF83D
:107E1000044B4FF24021FFF749BF20465DF8044B69
:107E2000FFF7CCBFC9B241EA022141F41041FFF78C
:107E3000C1BED2B242EA012141F41841FFF7BABEF5
:107E4000D2B242EA012141F42841FFF7B3BE38B56E
:107E5000436953F8223042689B1A083B0C4643F0B2
:107E600001030A464FF240210546FFF71FFF21019B
:107E700001F0800104F00704214341F488412846C1
:107E800041F07801BDE83840FFF794BE072930B4CF
:107E9000054614460CD8072A0AD81F2B08D841EAF1
:107EA000C20141EA831141F4D04130BCFFF782BEE8
:107EB0009B0043EA013244F47841284641F0D00166
:107EC00030BCFFF781BE436953F821104368CB1AD9
:107ED000043B013130B4C3F34A0204460DD0D91C2F
:107EE0000BDA23F4FF6525F0070515F5006F04D1C3
:107EF00042F4604130BCFFF75DBEC3F30A33204655
:107F000042F4384243F4704130BCFFF75DBE436930
:107F100053F822204368D31A043B013230B405469B
:107F20004FEA63040ED0DA1C0CDA23F0FF0212F5DC
:107F3000807F07D1E4B244EA012141F4504130BCD2
:107F4000FFF738BE981203F4005200F48060C3F3C8
:107F50008533C4F30B040343224343EA81112846CB
:107F600042F4004241F4704130BCFFF72DBE38B5F9
:107F700014460B46072221460546FFF787FFE1001E
:107F8000284641F48F41BDE83840FFF713BE90F812
:107F900054007047436C1944C3684164012B04DDED
:107FA000836D9A8C9142C8BF9984704770470022B4
:107FB00080F854204FF0FF31FFF7ECBFFFF7F7BF19
:107FC000002280F854206FF00301FFF7E3BF4FF069
:107FD000FF31FFF7DFBF38B5446CC36921449942D4
:107FE000054608D9083121F00304E100006AF8F7DA
:107FF00025F9C5E9074038BD70B504460E46012194
:108000001546FFF7E8FF606C216A01EBC00301F839
:10801000306001215D6020465970BDE87040FFF777
:10802000B9BF70B504460E4601211546FFF7D3FFD0
:10803000606C216A01EBC003022201F830605D60D0
:1080400020465A700121BDE87040FFF7A3BF00220F
:1080500080F854201146FFF7E4BF002280F8542036
:108060000A460221FFF7DDBF38B50D1E044614DDB8
:10807000FFF7B1FF226A616C02EBC103294402EBF6
:10808000C1020020012D08BF94F82410587018BFB9
:10809000002103F8081B9A42F4D129462046BDE886
:1080A0003840FFF777BFF8B5D0E90A530133AB4248
:1080B00004460E46174606D90435A900006BF8F7AA
:1080C000BDF8A5622063D4E90B104B1CE36230F8C5
:1080D000213066F30E0320F8213000EB8102C3F358
:1080E000072367F3C71353704FF6FF735380E06D98
:1080F00032460021FFF7ABFEE06D00220321BDE810
:10810000F840FFF78FBE10B4019C41EAC301A401FF
:1081100004F4F864114321435DF8044BFFF74ABDB2
:1081200041EAC20141EA831141F4C051FFF742BD67
:108130000B46D0E90B2102F18042013A01EB8202A9
:1081400010B50446D0786FF3C710D070043A91424E
:108150000BD892F903000028F8DA1288E06DC2F318
:108160000E020021FFF773FE06E063B91A4644F2DF
:108170004001E06DFFF783FDE06D00220321BDE8C3
:108180001040FFF74FBE10BD10B504460121FFF7A8
:10819000CFFFE06D01220021FFF74BFE00222046B9
:1081A0001146BDE81040FFF727BF00000C2903D19E
:1081B000084A0021FFF735BF00220E2980F854201D
:1081C00001D15421F6E7B1F10D0218BF01220121BE
:1081D000F0E700BF3065030810B4D0E91640248BE7
:1081E0006407134604D506225DF8044BFFF74EBE24
:1081F0005DF8044BFFF71DBE70B50446D0E916606C
:10820000368B76070D460AD59200FFF7EBFD2A461E
:108210002946E06D0623BDE87040FFF781BFBDE849
:108220007040FFF70DBE037C70B50446154623B9B8
:10823000826D938BD28B13441D44E368B4F84020C5
:10824000042B08BF236D204608BF43F825100021EA
:10825000FFF7C2FF00221146E06D0323FFF716FE71
:1082600000222B46E06D1146BDE87040FFF70EBEC0
:10827000F8B5476C046A07F10053023B04EBC304F2
:1082800004F10803054693E8030084E803006678D8
:1082900056B9B5F842203A44013A31462846FFF72C
:1082A0009BFF01236370666028464FF0FF31BDE8F5
:1082B000F840FFF76FBE13B5D0E916301B8B5B0794
:1082C00007D5009106234FF4C041FFF71CFF02B011
:1082D00010BD02B0BDE81040FFF7A4BD2DE9F0418C
:1082E000466C002405460F46B61AA0466B6CA342A6
:1082F00001DCBDE8F081B44211D02B6A03EBC4036A
:108300005A78012A0BD15A68BA4208D1B5F84210FE
:1083100083F801803A4621442846FFF7CCFF013418
:10832000E4E7826D138B70B543F02003044600250B
:1083300013830E4680F854502A462946FFF7CEFF95
:10834000B4F848200132A4F8482031462046FFF70F
:108350006AFF2A4629462046BDE87040FFF74CBE1A
:1083600070B5002405460E4680F85440224621464A
:10837000FFF7B4FFB2002146E86D42F00202FFF7BA
:1083800031FD224621462846BDE87040FFF734BE45
:10839000F8B583699E5C602E0446154606D10768D1
:1083A00014480A46144907F07FFD38600023022D67
:1083B00084F854300DD8A36DDA8C52B91B8B5B074F
:1083C00007D40E4B5A5D31462046BDE8F840FFF712
:1083D00013BE002211462046FFF780FFB4F842206A
:1083E000E36BED431A442A4400212046FFF7F4FED4
:1083F0000022E8E7745603080A3D0308223F0308F9
:1084000070B50024054626466B6CA34200DC70BDA7
:108410002B6A03EBC4035A78012A07D1B5F842103E
:108420005E705A6821442846FFF745FF0134EBE7A8
:10843000F8B504461E4617460D46FFF7E1FF3A46DB
:108440003146E06DFFF7CEFC2946E06D0322BDE822
:10845000F840FFF78CBD38B504460D46FFF7D0FF56
:108460002946E06D0322BDE83840FFF780BD38B5EE
:108470000025044680F854500821FFF7ECFF2A46F7
:1084800029462046BDE83840FFF7B6BDF8B504469A
:108490001E4617460D46FFF7B3FF3A463146E06DDC
:1084A000FFF7A0FC2946E06D0322BDE8F840FFF786
:1084B0005EBD10B4002302F1290480F854300A464E
:1084C000E1B25DF8044BFFF7E1BF002370B504464D
:1084D0000E4680F8543015466AB1037C5BB10846FD
:1084E00005F09CF90128024605DD20467021BDE813
:1084F0007040FFF796BD06353246E9B220460023AC
:10850000FFF7C4FF002220461146BDE87040FFF788
:1085100073BDF8B5164604460F46FFF771FF3146A6
:108520002046FFF758FD0025636C2A46B5420CD162
:10853000B4F84220394620461A44FFF75DFE29462A
:108540002046BDE8F840FFF725BD5819216A0135DE
:1085500021F83020EAE7F8B5044617461E460D46D6
:10856000FFF74EFF3A46E06D0021FFF73BFC324635
:10857000E06D0121FFF736FC2946E06D0322BDE8DE
:10858000F840FFF7F4BC037C63B1C1F1FF5101F582
:10859000FF11436C01F5FF511F311944036A13F8B1
:1085A000310070471846704770B50E4615463BB906
:1085B000037C2BB1C06D5268FFF714FC287870BDA6
:1085C0002C7834B96A68C06D3146FFF70BFC002087
:1085D000F5E7012C07D16B68013307223146C06DE6
:1085E000FFF754FCF3E7A31E012B04D86A6852007E
:1085F00042F00102E7E7542C01D10023EDE70148E6
:1086000004F098FF013F0308F8B5002504462E4604
:10861000636CAB4205DC00252F46636CAB4210DC7B
:10862000F8BD236A03EBC5035A78012A07D1B4F8D1
:1086300042105E705A6829442046FFF73CFE01351F
:10864000E6E7266A06EBC5025378022B0ED100231B
:10865000577019462046FFF7A7FFB4F8421006F8F6
:108660003500002229442046FFF725FE0135D4E7D6
:1086700038B5044600230D4680F85430FFF7C4FF98
:108680002946E06DBDE83840FFF71DBC38B504460B
:108690000D4682B1002307221946C06DFFF7F6FB95
:1086A00000220121E06DFFF7BDFB29462046BDE811
:1086B0003840FFF7DDBF1146FFF73AFDF5E72DE93A
:1086C000F04104460E46C2B3D0E90B1C01F18041D3
:1086D00001390CEB81010023084615461F4690F92D
:1086E00001E0BEF1000F11DA90F903E0BEF1000FD6
:1086F0000CDA002F08BF07463BB1B0F80080B3F892
:1087000002E068F30E0EA3F802E00346013DA0F17B
:108710000400E4D16FF00300424301EB020EE06D70
:10872000CBB9F44510D91A4644F24001FFF7A7FA35
:1087300000220321E06DFFF775FB26F4004120467F
:10874000BDE8F041FFF794BF8A5A1946C2F30E0202
:10875000FFF77DFBECE75A8847F6FE7161F30E02E6
:108760005A80294626F40042FFF771FB2A4604216D
:10877000E06DFFF757FB2B4607222946E06DFFF718
:1087800085FB2A460121E06DFFF74CFB3E88C6F3CE
:108790000E06D2E7F8B504460E4617460A461946B5
:1087A0001D46FFF79BFD616C236A881B03EBC0022B
:1087B00013F830303B705378012B0DD013B1022BDE
:1087C00013D0F8BDB4F842200A44921B2946204633
:1087D000BDE8F840FFF700BD5268AA42F1D0294633
:1087E000E06DBDE8F840FFF74FBA00232946204668
:1087F000FFF7DAFE3870E4E710B50023044680F88E
:10880000543013460A460121FFF7C4FF20464FF0BB
:10881000FF31BDE81040FFF7BDBB70B5049E0446B4
:108820001D46FFF7E9FF324629462046BDE8704065
:10883000FFF7E2BF7FB501250DF10F030DF10E012A
:10884000009500220446FFF7E8FF9DF80F609DF8B1
:108850000E1020460022FFF7CFFB2A463146204665
:10886000FFF7CAFB04B070BDF0B585B001250DF16E
:108870000F030DF10E01009500220446FFF7CDFF16
:108880009DF80F709DF80E602A4639462046FFF786
:10889000B3FB314620460022FFF7AEFB2A4639469D
:1088A0002046FFF7A9FB002231462046FFF7A4FB34
:1088B00005B0F0BD7FB50E4652EA03054FF000014A
:1088C000044680F8541024D1FFF79AFD2A4601216E
:1088D000E06DFFF787FA2A460221E06DFFF782FA82
:1088E000B4F84C20B4F84A3031690133501CA4F874
:1088F0004C001A442046FFF796FCE06D03221A2133
:10890000FFF735FB002211462046FFF775FB04B048
:1089100070BD0123009302220DF10E030DF10F0132
:10892000FFF77BFF2046FFF76BFDD9E72DE9F0410C
:10893000DDE9068504461F46089EFFF75DFF4246B7
:1089400039462046FFF758FF324629462046BDE803
:10895000F041FFF751BF2DE9F04186B002260DF13D
:108960001703012501930DF115010DF11603029670
:10897000009500220446FFF7D9FF9DF817809DF867
:1089800016709DF8151020460022FFF735FB324681
:1089900041462046FFF730FB2A4639462046FFF77E
:1089A0002BFB06B0BDE8F08130B587B00DF11703A1
:1089B0000025019302230446009301220DF11603C2
:1089C0000DF115010295FFF7B1FF20461721FFF7C2
:1089D00042FD2A4629462046FFF70EFB07B030BD70
:1089E000F7B5C46A05460F46D4B104F18044036B61
:1089F000013C03EB840292F90120002A21DA33F8CA
:108A00002430C3F30E038B421BD100220DF107016A
:108A1000FFF7F2FE00220121E86DFFF703FA0124BF
:108A20000026284685F85460FFF7EEFD3946E86DCC
:108A3000FFF7A2F81CB131462846FFF779FB03B0D7
:108A4000F0BD0024ECE770B500260446012280F852
:108A500054603146C06DFFF7ECF922212046FFF744
:108A6000FAFCD4E90B35013B05EB8305E3626B8827
:108A700047F6FF72C3F30E03934228D00422314617
:108A8000E06DFFF7D6F94FF42051E06DFFF792F853
:108A90006368E06D1A683146FFF739FA698847F66E
:108AA000FE73C1F30E029A420BD14FF48E41E06D7A
:108AB000FFF780F8636820461968BDE87040FFF74B
:108AC0008FBFC1F30E012046FFF7D2FDF2E770BD64
:108AD00030B50446816885B0FFF782FFA36DDA8C5C
:108AE000198B12B901F0140373B311F0040117D1FB
:108AF000B4F8402020460132FFF76EFBA36DDD8CF9
:108B000055B94FF42051E06DFFF754F8A268E06DBD
:108B100001322946FFF7FBF905212046FFF79BFCB0
:108B200021212046FFF797FCA36D1A8B520706D42C
:108B3000DB8C23B9A16820460131FFF751FF0522E4
:108B40000021E06DFFF775F9E06DFFF779F8257CFE
:108B5000002D56D1E06DE26B43686363C2F3C71228
:108B600042F080020121FFF716F8E26BE06D02F09F
:108B70007F020121FFF70FF82A460121E06DFFF780
:108B80000AF8A36DE06D1A8B0121FFF704F8A36DBD
:108B9000E06D9A8B0121FEF7FEFFA36DE06DDA8B8D
:108BA0000121FEF7F8FFA36DE06D1A8C0121FEF79D
:108BB000F2FF05220121E06DFEF7EDFFA36DE06DF0
:108BC000DA8A0121FEF7E7FFA36DE06DDA8A012161
:108BD000120AFEF7E0FFA36DE06D9A8A0121FEF70D
:108BE000DAFFA36DE06D9A8A0121120AFEF7D3FF26
:108BF000D4E916305A8DAA423ADCFF220121FEF751
:108C0000CAFFE06DFEF7D5FFE368B4F84800A4F8AA
:108C10004A00032B12D1B4F84C3001301844237CA5
:108C2000002B32D1A36D9D8BDB8B1D44284480002B
:108C3000F7F7F4FA164B206540F82530E368042B6B
:108C400014D1257CA16DE36D0869002D4FF000055E
:108C5000D3E9023203950D8B0295898B0191216D29
:108C6000009114BF0421032103F0B5F805B030BD15
:108C7000DB6A03EBC50213F83530042B03D15288AD
:108C80000121FEF788FF0135B2E70025CFE700BFDD
:108C900044450308F8B543681E68836D86601D8BE4
:108CA000DB8C05F014021343044600F0E88015F055
:108CB000040506F1020715D1B0F840202946FFF758
:108CC0008BFA2A4601232946E06DFFF7DFF80521DC
:108CD0002046FFF7C0FBB4F840102A460131204679
:108CE000FFF7E9FAD4E91630DA8C002A59D1198B4A
:108CF00011F0040508D14FF42051FEF75BFF3A460E
:108D00002946E06DFFF703F900221146E06DFFF7F9
:108D100097F820212046FFF79EFB4FF42051E06D8D
:108D2000FEF748FF3A460021E06DFFF7F0F8A36D2B
:108D3000198B11F0040100F0898001220021E06DFF
:108D4000FFF777F846F27011E06DFEF733FFE06D44
:108D500002220021FFF746F8E06DFEF771FF394669
:108D60002046FFF73DFEA36D1B8B5B0740F187801C
:108D7000B4F84020204601320021FFF72DFAE06DC3
:108D80004FF48E41FEF716FFE06D4368A3630021A8
:108D90000122FFF74EF820462221BDE8F840FFF7F8
:108DA0005ABB00231A4644F24001FEF768FF002236
:108DB0000421E06DFFF736F8751C3A460421E06D9A
:108DC000FFF745F829462046FFF70AFE0422052151
:108DD000E06DFFF72EF800221146E06DFFF730F846
:108DE00020212046FFF737FB05220421E06DFFF725
:108DF00019F803364FF42051E06DFEF7DBFE3246E2
:108E00000121E06DFFF783F800231A4644F2400188
:108E1000E06DFEF734FF00220321E06DFFF702F85A
:108E200044F22071E06DFEF7C5FE31462046FFF7A3
:108E3000D7FD03220421E06DFEF7FBFF4FF4305114
:108E4000E06DFEF7B7FE2A4601216DE7B4F8402039
:108E500020460132FFF7C0F905212046FFF7FBFA53
:108E6000A36D198B11F004017FF467AFE06D01224F
:108E7000FEF7DFFF22212046FFF7EDFA6FE7F8BD8E
:108E8000538B2DE9F041DE1E044673427341E160CD
:108E9000037400234364A0F84830A0F84C3080F8F5
:108EA00054300F464369518CA2658B42154605D25A
:108EB0008069F7F7C3F96B8CA0616361A16D8A8B40
:108EC000CB8B13442A8BD00748BF013392074FF056
:108ED000000248BF01331046934209D1227C22B1DF
:108EE000B1F82AC00022944506DC6269602115E0D1
:108EF000A669B0540132EFE7CE6A06EBC206013232
:108F0000707810F0010F1FBFB6F802E0A6690009E3
:108F100006F80E00E7E7A069C15401339A42FAD877
:108F2000E269002360219A4234D1042F0CBF022150
:108F30000121E06DFEF7FEFDA26D0023A4F8403094
:108F4000D38C1BB9118B01F0140111B10C21A4F8C1
:108F500040106E8CA98C94F81080E06D3144E16370
:108F6000B8F1000F00F0CF80CBB9128B570707D4B0
:108F7000032E3346AE8BA8BF0323032E00D9013B3B
:108F800012F0140F0CD12E8BB4F84020B60648BF57
:108F9000013208E0206A20F833100133C3E70023D0
:108FA000B4F840200232A4F84220B4F84220114420
:108FB000C91AFEF717FE032300220621E06DFEF713
:108FC00065FF002306220721E06DFEF75FFFA36D1A
:108FD000DA8C1AB91B8B03F030032BB10022B4F8E2
:108FE0004010E06DFEF71EFF01220021E06DA34E50
:108FF000FEF74AFE02220121E06DFEF745FE032244
:109000000621E06DFEF740FE4FF42451E06DFEF7BF
:10901000D1FD6368E06D1A6801210432FEF777FF25
:10902000AA8BE06D0221FEF7DDFE022300224FF441
:109030008541E06DFEF723FE6368E06D1A6800214C
:109040000532FEF764FF6368E06D19680431FEF7CE
:1090500093FDAB8BE06D5A0042EA43420221FEF7DA
:10906000C1FE03222D21E06DFEF781FF6368E06DF4
:1090700019680531FEF780FD0025A36D9A8BAA4281
:1090800014DC032A0DD9DA8C5AB91B8B5B0708D480
:10909000B4F84220E36BE06D1A44033A0621FEF770
:1090A000C8FE2046BDE8F041FFF7F4BD2B4606227E
:1090B0000021E06DFEF7EAFEA3695A5D22B10123AB
:1090C00003212046FFF7B4F9022D11DCA36DDA8CE1
:1090D00072B91A8B52070BD4022D02D19B8B032B32
:1090E00006D10022715DE06DFEF7CEFD0135C4E7CB
:1090F000B4F84210E36B194401390022491B2046A1
:10910000FFF7D9F8F2E7168B16F0040650D04FF4AB
:10911000A0232364626B0421FEF73DFDA26BE06D8A
:109120000421FEF738FD0C21E06DFEF75BFD4246A1
:109130000621E06DFEF7A8FD01221146E06DFEF765
:1091400071FEB4F84030E06D06224146FEF79EFE07
:10915000032342464146E06DFEF798FEA26DE06DA6
:10916000918BD38B42460B440721FEF78FFE20469E
:10917000FFF790FDA36DDA8CB2B91E8B16F00406D2
:1091800012D1DFF8F8806B8CB3420DDDB4F84220C9
:10919000E36B18F8011BE06D1A44013A921B01368B
:1091A000FEF747FE032EEED100236E8D194640E0F8
:1091B000B4F8403005339BB2A4F842301944FEF7AE
:1091C00011FD3246E06D03230621FEF75FFEA26D1E
:1091D000E06D918BD38B06220B440721FEF756FEE0
:1091E0003246B4F84010E06DFEF71CFE626BE06D95
:1091F0003146FEF7F7FDB4F8401032462046013103
:10920000FFF759F8B4F84020E06D3146FEF718FE3C
:1092100004222E21E06DFEF7AAFEA8E7EA6A02EB1F
:10922000C30012F83320042A02BF4288A069815487
:1092300001339E42F2D8042F05D1A88BEB8B00227C
:109240001844904218D1BDE8F081EB6A03EBC103EA
:109250005F78FF070BD55F88974208D15B68216D67
:109260009B0043F0020341F822300132E9E701316B
:109270008E42EADC0523F2E70021F9E7223F0308EA
:109280007FB504460D46164682B90DF10F01FFF772
:10929000B3FA2A46092120460123FFF7F7F83246A0
:1092A00031462046FEF7A8FE04B070BD012A0FD15A
:1092B0000223009300220DF10F030DF10E01FFF7C1
:1092C000ACFA01232A460E212046FFF7DFF8EBE730
:1092D0000DF10F010022FFF78FFA02231A4644F224
:1092E0004001E06DFEF7CBFCEBE773B504460E469C
:1092F000154672B901220DF10701FFF77DFA05F15C
:109300000C0100233246C9B22046FFF7BFF802B075
:1093100070BD0021FFF737F98DF8070020B9012251
:109320000DF107012046E8E70DF107012046002274
:10933000FFF762FA9DF80720204601230421FFF77A
:1093400077F800220121E06DFEF79EFCD7E773B5A8
:109350000D4616460DF1070100220446FFF74CFAB0
:10936000721C2A4420460221FFF7D3F8012345EA64
:10937000062228212046FFF75BF802B070BD37B502
:1093800004460D4600220DF10701FFF735FA2A4683
:1093900020460221FFF7BDF801232A462721204657
:1093A000FFF746F803B030BD37B50D4600220DF18A
:1093B00007010446FFF720FA55B101212046042297
:1093C000FFF7A7F81E212046FFF745F803B030BD90
:1093D0002A46E06D0121FEF705FD20461E21FFF71C
:1093E0003AF82A4629462046FEF706FEEEE7000038
:1093F00037B500220DF107010446FFF7FDF99DF88E
:1094000007302BB105490648256806F04DFD286058
:1094100022212046FFF71FF803B030BD2C3D030882
:109420007456030873B501220E460DF10701044678
:10943000FFF7E2F99DF8075065B932461121204641
:109440002B46FEF7F5FF2A4629462046FEF7D4FDB7
:1094500002B070BD20460121FEF79CFD044B05497A
:109460009A5D0548246806F01FFD2060F0E700BF04
:10947000C8710308D83E0308745603082DE9F34168
:109480000E460021174604461D46FFF77CF80246AB
:109490008DF8070048BB0DF107012046FFF7ACF936
:1094A0001DB901212046FEF775FD10212046FEF76B
:1094B000D2FF1DB99DF8073084F824302046FFF70D
:1094C000A3F84FF42051E06D8EB3FEF773FB3A46DC
:1094D0000121E06DFEF71BFD25B94FF0FF3120465D
:1094E000FEF758FD02B0BDE8F08100220DF1070142
:1094F0002046FFF781F91DB901212046FEF74AFDFC
:109500009DF807305A1E022AD3D9072B98BF0A4A62
:109510000A4998BF32F813200948D4F8008088BF60
:1095200040F25B2206F0C0FCC8F80000C1E7FEF77D
:1095300041FB3A463146CCE7843C0308E23C030851
:10954000745603080023FFF799BF0123FFF796BF66
:10955000022A7FB504460E46154614D8836DDA8C70
:109560008AB91B8B5B070ED41D4B0DF10F015A5DA1
:10957000FFF742F9A1699DF80F204B5D602B13D1D5
:109580004A5504B070BD0DF10F0120460022FFF7CF
:1095900033F9E16BB4F842300B44E943002219443B
:1095A0002046FEF788FEE5E79342EAD0072B98BFF6
:1095B0000C49246898BF31F813300B4888BF40F23B
:1095C0005B23072A96BF074940F25B2231F812203D
:1095D00000920649324606F067FC2060D1E700BFE2
:1095E000223F0308843C030874560308633D0308C4
:1095F00070B504460D4616464BB90E21FEF7D6FD52
:10960000324629462046BDE87040FFF7A1BF70BD35
:10961000F8B5446CD0F820C0DDF818E004F100542F
:109620000E46013C002180F854100CEBC4010546A5
:109630004F78012F12D1496899420FD071450DD052
:109640001CF83430337011603A46FEF747FE284666
:109650004FF0FF31BDE8F840FEF79CBC13680121D4
:1096600032462846FFF796F8F1E77FB500230393CB
:109670004FF0FF33009303AA0DF10B010446FFF7EF
:10968000C7FF9DF80B50039E294632462046FEF741
:10969000B3FC324629462046FEF7AEFC04B070BD4E
:1096A000F0B50D4685B001210446FEF76CFF0021A0
:1096B00006468DF80A002046FEF765FF022E8DF85B
:1096C0000B0040F0AA80022840F0D180A5F10903E8
:1096D0000B2B9CBF0C35EDB205F0FD031D2B17D1F4
:1096E00000230DF10B010122009320460DF10A0326
:1096F000FFF793F81D2D0CBF2F2130212046FEF7D8
:10970000AAFE002202212046FEF776FC05B0F0BD3D
:109710000126002303AA0DF10B0120460227009623
:109720000397FFF775FF32460DF10A012046FFF758
:1097300063F8182D07D1039B32464FF48141E06D49
:10974000FEF79DFA23E0192D04D1039B32464FF416
:109750008241F4E7152D04D1039B32464FF4864134
:10976000EDE7162D04D1039B324644F24001E6E7B3
:10977000172D04D1039B32464FF48041DFE71A2DA9
:1097800007D1039BE06D32463146FEF7C9FC3246F5
:10979000B8E71B2D08D10399E06D41F6092343EA90
:1097A0008111FEF707FAF2E71C2D04D1039B324624
:1097B00044F24031C3E7052D22D80022114620464D
:1097C000FEF78CFD0122039BE06D4FF48541FEF70F
:1097D00056FA364BE06D33F81510FEF7EBF9344BC3
:1097E000E06D5D5D45F40051FEF7E4F985F001019F
:1097F00041F40051E06DFEF7DDF90022012182E71E
:1098000020460121FEF7C6FB2A4B2B495A5D2B4807
:10981000246806F049FB206078E7064327D101273A
:1098200000970DF10A0302220DF10B012046FEF70D
:10983000F4FF242D17D0252D17D1072500232A4604
:1098400012212046FEF7F4FD57B100220121E06D00
:10985000FEF71AFA0023032211212046FEF7E8FD45
:10986000002211464FE70625E8E73746E6E74FF0C6
:10987000FF312046FEF78EFB9DF80A300F48246822
:10988000072B9CBF0E4A32F813209DF80B3088BF7F
:1098900040F25B22072B96BF094940F25B2331F867
:1098A0001330084906F000FBB5E700BF163F030878
:1098B000253F0308B26F0308943C0308745603085D
:1098C000843C0308B13C030870B5044686B00D46DD
:1098D00016461BB9FFF73CFE06B070BD00221146CC
:1098E000FEF7FCFC204600220121FEF7F7FC324681
:1098F00029462046FEF74CFD002304934FF0FF332A
:10990000009304AA0DF10F012046FFF781FE012309
:109910000593049B00930DF10F01204605AAFFF764
:1099200077FEDDE9043141EAC30141F4C04141F071
:109930004001E06DFEF73EF9CEE77FB504460D46E7
:1099400016461BB9FEF724FD04B070BD0022114677
:10995000FEF7C4FC324629462046FEF719FD4FF0BB
:10996000FF330025009303AA0DF10B012046039558
:10997000FFF74EFE039AE06D29460123FEF786FAB3
:109980002A4629462046FEF737FBDDE703297FB547
:109990000546164612D101220DF10F01FEF72CFFEC
:1099A000152400230DF10F0231462846FEF7F2FE82
:1099B00021462846FEF74FFD04B070BD052906D1AB
:1099C00001220DF10F01FEF717FF1824E9E702232A
:1099D000009301220DF10F030DF10E01FEF71DFFA3
:1099E0001724DEE7F0B5044685B00F461546C2B928
:1099F0000223067C2274009301220DF10F030DF166
:109A00000E01FEF70AFF3A4626742B462321204614
:109A1000FEF73CFD2A4611462046FEF7EDFA05B05A
:109A2000F0BD012A10D1002680F8546033460DF1B4
:109A30000F022946FEF7AEFE3A462B462421204669
:109A4000FEF724FD3246E6E70DF10F010022FEF796
:109A5000D3FE25212046FEF7FEFCE0E72DE9F84F76
:109A6000044688469246FEF7CBFC00256FF060471F
:109A7000A946554510D10026B34656452BD1714213
:109A80002046FEF787FAB4F84220636C41461A4438
:109A9000BDE8F84FFEF7B0BB666CD4F820B03E448A
:109AA000761B0BEBC6025378022B12D182F8019081
:109AB000012341462046FEF777FDB4F84210636C5F
:109AC0000BF83600194401394246491B2046FEF77F
:109AD000F2FB0135CDE7636CD4F8209003F1005719
:109AE000013FBF1B19F83720BAB1B4F842501D44EA
:109AF000013DAD1B2A4600212046FEF76DFB0123E8
:109B000019F8372004212046FEF792FC002229464E
:109B10002046FEF7D0FB09F837B00136ADE700006C
:109B2000037C73B504460E4613B1554803F002FD9D
:109B3000826D138B43F004031383FEF765FD012E42
:109B40000BD16368196820460231FEF791FD636806
:109B5000196820460131FEF743FF0122002120460B
:109B6000FFF77CFF002202212046FEF7A4FB012222
:109B70000021E06DFEF736F900220521E06DFEF7C9
:109B800051F96368E06D1A680021FEF760F9B4F8D6
:109B90004010002201312046FEF78DFBA168E06DE8
:109BA000FEF791F96368E06D1968FDF7E5FFE36A78
:109BB000002B3FD101212046FEF756FA002E54D04B
:109BC0006368196820460231FEF70AFF0DF10701AC
:109BD00020460122FEF710FE00230DF10702204669
:109BE0000121FEF7D7FDE06D01220221FEF721F9E8
:109BF000204602220021FEF7FFF901222046022121
:109C0000FFF72CFF20463121FEF725FCE06D4FF4D5
:109C10002051FDF7CFFF6368E06D1A680121013222
:109C2000FEF775F920460121FEF71EFA2046FEF7E1
:109C30001FFB23E003F18043256B013B05EB83050C
:109C4000236BAB42B6D895F90330002B0BDA2A8888
:109C5000E06DC2F30E020021FEF7F9F800220321A5
:109C6000E06DFEF7DFF8043DEAE73146E06D0122E2
:109C7000FEF7DFF822212046FEF7EDFB02B070BDB3
:109C8000F43E0308F8B5174604460D46520093B15A
:109C90000B1D1A440221FFF7E1FE45EA07230122CA
:109CA0001D212046FEF757FC002220461146BDE844
:109CB000F840FEF7A1B984F854308B1C1A440221F5
:109CC000FFF7CCFE3B462A461C21EAE72DE9F74385
:109CD0001746002501EB42020E4680F8545011460B
:109CE00004469946FEF74FFC70288DF8060033D1E4
:109CF000626C236A03EBC2032946204613F80C6CFE
:109D0000FEF741FC07280ED845B28DB12046FEF77C
:109D1000AFFA636C226A03F10053013B02F833602F
:109D200003B0BDE8F0835428F0D01F4803F002FCD4
:109D30002A460DF107012046FEF75EFD2046FEF79C
:109D400036F9324603210123FEF772FB2A463146DB
:109D50002046FEF751F9E3E746EA0728B9F1000F7C
:109D60000DD0033202212046FFF778FE43462A46F3
:109D70001D212046FEF7EFFB00221146E8E757EAD7
:109D8000060303D002212046FFF768FE0DF106010D
:109D900020460022FEF730FD012342461B212046CB
:109DA000FEF746FBE8E700BFDA3C030870B5082A77
:109DB00086B004460E4615462AD102294FF000050A
:109DC00018D10DF1160301220DF117010095FEF7D0
:109DD00024FD2B4607223146E06DFEF757F8262179
:109DE0002046FEF738FB002211462046FEF704F914
:109DF00006B070BD0DF11503019301230093029588
:109E00000DF1160302220DF11701FEF78FFDE6E7B3
:109E10000023012A80F8543001D9062A04D13246A1
:109E200001212046FFF71AFE05F1130100233246F7
:109E3000C9B22046FEF7FCFAD5E770B50025044606
:109E400004220E4680F854502946FFF707FE2046AC
:109E50000421FEF79FF81F21FEF7FDFAE06D4FF495
:109E60002051FDF7A7FE32462946E06DFEF74FF878
:109E70002A4629462046BDE87040FEF7BDB873B5B6
:109E800004460E461546002A56D1134601210DF10F
:109E90000702FEF77FFC022211462046FEF739FB3F
:109EA00001230D220A212046FEF7F0FA02220DF1CD
:109EB00007012046FEF7A0FC01220DF10701204614
:109EC000FEF79AFC2A460DF107012046FEF794FCA6
:109ED00001229DF807102046FEF78EF802229DF819
:109EE00007102046FEF788F8022211462046FEF7AA
:109EF00010FB01230C220A212046FEF7C7FA02229A
:109F000011462046FFF7AAFD2B462A461C21204673
:109F1000FEF721FB2A4629462046FEF76DF820462B
:109F2000FEF772FB204601223146FEF7BCF82046C0
:109F3000FFF79BFB02B070BD002380F85430FEF7A2
:109F400063FBEB1E5A425A4131462046FEF7ABF8FE
:109F5000F0E737B504460D4682B103220121FFF731
:109F60007DFD022201212046FEF7D3FA00232A4676
:109F70000B212046FEF78AFA03B030BD0DF1070130
:109F8000FEF73AFC022211462046FEF7C2FA0123F0
:109F90002A460A21EDE70000836D73B51D8B15F08D
:109FA0000406044613D001220021FFF757FD0022CA
:109FB00002212046FEF77FF900221146E06DFDF7F1
:109FC00011FF00220521E06DFDF72CFF1CE0027C53
:109FD000002A52D03146FEF7D6FA5428C5F3871529
:109FE00028D12046FDF7E3FFC5B92B4607222946B5
:109FF000E06DFDF74BFFA36DDA8C002AE1D11B8BDE
:10A0000003F01403002BDCD1E26AA1682046FEF7BE
:10A0100056FB012384F8543002B070BD32463146FD
:10A02000E06DFDF7DFFE01232A4604212046FEF7FE
:10A03000FFF9E0E732460DF107012046FEF7DCFBB1
:10A040009DF80730AB4215D0072D98BF0D4A0E483A
:10A0500098BF32F81520266888BF40F25B22072B94
:10A0600096BF084940F25B2331F81330074905F0E9
:10A070001BFF3060002DBED0D5E70DF10701FEF7C4
:10A08000BBFBB8E7843C030874560308413D030852
:10A0900070B5002504460E4680F854502946FEF758
:10A0A00047F820464FF0FF31FDF774FF63681968E9
:10A0B0000231FEF795FC2A4620465421FDF7B1FFF8
:10A0C0002A4620465421FDF7ACFF2A46204654215B
:10A0D000FDF7A7FF204605220221FFF7BFFC032260
:10A0E0002B4620461C21FEF736FA63682046196885
:10A0F000FEF7BEFA3146E06DFDF73EFD2046012138
:10A10000FEF716F820460221FDF7AEFF2946E06D66
:10A110000122FDF78EFE2B46E06D07220121FDF79F
:10A12000B5FE2A46E06D01234FF48541FDF7A7FDFA
:10A130006368E06D1A6829460232FDF7E8FE2B4697
:10A140002A46E06D0121FDF7A1FE294620460122A5
:10A15000FDF752FF2A4629462046FDF74DFF2A46C5
:10A1600020465421FDF75DFF204605220221FFF71E
:10A1700075FC2B46032220461C21FEF7ECF92046F5
:10A180001021FEF768F9E06D4FF42051FDF712FD44
:10A190006368E06D1A6829460132FDF7B8FE63680E
:10A1A00020461968FEF71CFC2B462946E06D072265
:10A1B000FDF76CFEE06D2A460121FDF733FE636872
:10A1C000196820460131BDE87040FEF709BC70B542
:10A1D0000E46002180F8541004990B43044615469E
:10A1E00020D10221FFF73AFC2A46E06D0121FDF75C
:10A1F000F9FDB4F84C20B4F84A3031690133501CF1
:10A20000A4F84C001A442046FEF70DF8E06D032236
:10A210002C21FDF7ACFE002220461146BDE870401F
:10A22000FDF7EABE02320221FFF718FC45F4807206
:10A23000DBE700002DE9F04188B004460F460DF140
:10A240001C08002940F022810121FEF79CF90546F7
:10A250008DF8170088BB01462046FEF794F98DF86B
:10A260001C00C0B9012241462046FEF7C5FA002273
:10A270000DF117012046FEF7BFFA04220F21022339
:10A280002046FEF7D5F8002211462046FDF7B4FE21
:10A2900008B0BDE8F0812A4641462046FEF7ACFAF8
:10A2A0009DF81C20204601230421FEF7C1F82A4610
:10A2B0000121E06DFDF7E8FCD9E7636C226A03F148
:10A2C0000053013B02EBC30132F8332040F202237A
:10A2D0009A426DD1204601254E68FDF768FE2B4657
:10A2E000009542460DF117010797FFF791F99DF888
:10A2F0001730062B26D0072B3FD0052B40F0B68019
:10A30000C6B1731E1E2BE06D09D8079B00963A4616
:10A310004FF4F041FDF7F7FE00220221B5E7324687
:10A320002946FDF75FFD079BE06D2A462946FDF7AC
:10A33000F7FE07950799C90041F4F041E06DFDF77C
:10A3400039FCE9E7A6B1731E1E2BE06D05D8009617
:10A35000079B3A464FF40841DCE772002946FDF7B7
:10A3600041FD079BE06D2A462946FDF7D9FE07957A
:10A370000799C90041F40841E0E7A6B1731E1E2BFE
:10A38000E06D05D80096079B3A464FF4D041C1E7EF
:10A39000B2002946FDF726FD079BE06D2A462946B7
:10A3A000FDF7BEFE07950799C90041F4D041C5E706
:10A3B0000123079342463B4606A920460097FFF734
:10A3C00027F93A460DF117012046FEF715FA9DF8D8
:10A3D00018309A1E012A0ED9072B98BFBE4ABF49D2
:10A3E00098BF32F81320BE48256888BF40F25B2230
:10A3F00005F05AFD28609DF81730062B0CD0072B6E
:10A4000019D0052B32D100221146079BE06DFDF7D4
:10A4100087FE4FF4F04191E700221146079BE06D63
:10A42000FDF77EFE00221146079BE06DFDF778FEEA
:10A430004FF4084182E700221146079BE06DFDF7CB
:10A440006FFE00221146079BE06DFDF769FE0022BA
:10A450001146079BE06DFDF763FE00221146079B46
:10A46000E06DFDF75DFE4FF4D04167E7072B98BF25
:10A47000994A9C4998BF32F813209948256888BFAB
:10A4800040F25B2205F010FD286045E7012940F00D
:10A490006781FEF778F805468DF8150048BB014640
:10A4A0002046FEF770F8022102468DF8180020467B
:10A4B000FEF769F852EA00038DF81C0008D029461F
:10A4C00020460322FFF7CAFA03212046FDF762FD6A
:10A4D0000223CDE901830023009306A920460DF154
:10A4E00015030122FEF722FA0F212046FDF7B3FFE4
:10A4F000CEE6636C226A03F10053013B02EBC30119
:10A5000032F8332040F202239A4240F093802046F2
:10A510004D68FDF74CFD02230022CDE90623009390
:10A5200006AA3B460DF11501FFF772F8069B00974E
:10A5300042460DF117012046FFF76AF89DF81730E3
:10A540005A1E022A0ED9072B98BF634A664998BF44
:10A5500032F813206248266888BF40F25B2205F07B
:10A56000A3FC30609DF81530062B27D0072B43D075
:10A57000052B40F0E580BDB16B1E1E2BE06D07D8AA
:10A58000DDE9063200954FF4E041FDF7BCFD7FE6C2
:10A590002A460121FDF726FC0122069BE06D1146AB
:10A5A000FDF7BEFD01230693DDE9063141EAC30153
:10A5B00041F4E041E06DFDF7FDFA69E6ADB16B1ED7
:10A5C0001E2BE06D05D80095DDE906324FF4004101
:10A5D000DBE76A000121FDF705FC0122069BE06D27
:10A5E0001146FDF79DFD01230693DDE9063141EAA1
:10A5F000C30141F40041DDE7ADB16B1E1E2BE06DE0
:10A6000005D80095DDE906324FF4C041BDE7AA0048
:10A610000121FDF7E7FB0122069BE06D1146FDF7E6
:10A620007FFD01230693DDE9063141EAC30141F4D0
:10A63000C041BFE702230793009306AA00230DF150
:10A64000160120460697FEF7E3FF00220DF11501E3
:10A650002046FEF7D1F89DF816309A1E012A0ED931
:10A66000072B98BF1C4A214998BF32F813201C4879
:10A67000256888BF40F25B2205F016FC2860069B27
:10A680000093424600230DF117012046FEF7C0FF5C
:10A690009DF817305A1E022A0ED9072B98BF0E4A72
:10A6A000114998BF32F813200D48256888BF40F241
:10A6B0005B2205F0F9FB28609DF81530062B17D0BA
:10A6C000072B23D0052B3BD100221146069BE06DC2
:10A6D000FDF726FD07996BE7843C0308A43D0308BA
:10A6E000745603088F3D0308BF3D0308E43D03088B
:10A6F00000221146069BE06DFDF712FD0022114677
:10A70000069BE06DFDF70CFD079972E700221146EC
:10A71000069BE06DFDF704FD00221146069BE06DEF
:10A72000FDF7FEFC00221146069BE06DFDF7F8FCEC
:10A7300000221146069BE06DFDF7F2FC079976E7D3
:10A74000072B98BF0D4A0E4998BF32F813200D48C9
:10A75000246888BF40F25B2205F0A6FB206097E5E5
:10A760000025434606A900950122FEF756F802236C
:10A770002A460F212046FDF75BFE89E5843C03084D
:10A78000D03D030874560308F8B5074660200D460F
:10A790001646F5F751FDC0E9007508250446C56168
:10A7A0004020F5F73BFDA56220622020F5F736FD3D
:10A7B00020632020F5F740FD3146E065FDF7A7F95D
:10A7C0002046F8BD10B504460021C06DFDF7A7F97D
:10A7D000E06DF5F740FD206BF5F73DFDA069F5F75D
:10A7E0003AFD206AF5F737FD2046BDE81040F5F741
:10A7F00032BD000038B50446B2B1950714D11079C6
:10A800002D2811D192687AB190070DD15068C5B248
:10A81000902D09D1000A022806D191681960049B85
:10A82000D2681A60012038BD0A460448044905F080
:10A830003BFB636A18600020F5E700BF485503083A
:10A84000AE400308038C032B70B5C46A03D1856A3C
:10A8500000239D4205D144F82120FDF78DF9012008
:10A8600070BD54F82360964201D00133F1E7002017
:10A87000F6E710B50446FDF7E3F92046BDE81040C1
:10A88000FDF797B938B58BB2032B04460D46038408
:10A89000426205D1826AC06A9200002114F014FF5E
:10A8A000042D20460CBF02210121FDF743F920466B
:10A8B0000021BDE83840FDF795B9000002F00F0314
:10A8C000022B10B5044608D00A460C490C4805F086
:10A8D000EBFA636A1860002010BD836A1209002039
:10A8E000834204D1238C042BF5D10649EEE7E16ABB
:10A8F00051F820109142EFD00130F1E71C410308DC
:10A90000485503083141030800F00F03022B02D120
:10A910000009F6F753BB0148704700BF43A1030885
:10A9200070B5054610460E46FFF7EEFF0378732B11
:10A9300019D14378BBB103460A22002013F8014F16
:10A940005CB91F2808D91F2332460A490A4805F076
:10A95000ABFA6B6A1860002070BD303C092C02D83D
:10A9600002FB0040EAE732460449034805F09CFA3E
:10A97000EFE700BF7B4103084855030894410308F3
:10A98000F8B5054610460E461F46FFF7BDFF174AAD
:10A9900001780024944653788B421BD190F801E053
:10A9A00093789E4516D190F802E0D378734511D183
:10A9B0006BB91CF82400B84208D93B4632460C4912
:10A9C0000C4805F071FA6B6A18600020F8BDC37876
:10A9D000002BEED00134152C02F10402DBD13246FB
:10A9E0000549044805F060FAEDE700BFB1410308EE
:10A9F0007B41030848550308484103082DE9F34704
:10AA000007468846002A3BD0930739D113792E2B6D
:10AA100036D1926802F00F03022B08D10F23FFF703
:10AA2000AFFF01248440204602B0BDE8F0873AB36E
:10AA300012F0030A24D113799D2B21D1D5682B79EB
:10AA4000A02B1DD10F239268FFF79AFF012606FA6B
:10AA500000F401AAA12105F10800F9F75FF8814689
:10AA6000CA45E0DA019A0F2352F82A2041463846B7
:10AA7000FFF786FF06FA00F004430AF1010AEFE748
:10AA800042460449044805F00FFA7B6A0024186026
:10AA9000C9E700BF6041030848550308F0B585B019
:10AAA00005460E46104603A91F46F8F747FE48B96B
:10AAB00032460B490B4805F0F7F96B6A1860002025
:10AAC00005B0F0BD039803F013FB30EA0703F7D09D
:10AAD0000346009732460449024805F0E5F9ECE7E1
:10AAE000D940030848550308F14003082DE9F04711
:10AAF0000F4686B0044603A938461E469046F6F730
:10AB000062FA0378762B054640F02B81B8F1020FEC
:10AB100040F0D68040F252439F4231D14EF6B468A5
:10AB20004FF42C6906E04EF6B168F9E74EF6B168CD
:10AB30004FF42469326829462046FFF7F1FE726817
:10AB4000074629462046FFF7EBFEFB02420102F0D2
:10AB5000200203F470431343B90143EA0903C0F32D
:10AB6000430201F040011A4341EA08012046FDF783
:10AB70002BF829E24EF6B868D2E74EF6BD68CFE76B
:10AB800040F25E439F42CED040F25D439F42CDD023
:10AB900040F253439F42EDD040F254439F42ECD0E9
:10ABA00040F25C439F421ED13068FFF7ADFEAF49D3
:10ABB00014F0E0FDA8B10F23326829462046FFF7C4
:10ABC000DFFE07467068FFF79FFEA94914F0D2FD2B
:10ABD000002840F0BD803A0342F421624EF6F16154
:10ABE000C4E70F27EEE740F25B439F422ED1306867
:10ABF000FFF78AFE0378722B18D10F23326829469B
:10AC00002046FFF7BDFE2946804672682046FFF7C2
:10AC100087FE4EF610610746FA01D2B242EA0832C8
:10AC2000C7F3430742F4216239439FE7326829465C
:10AC30002046FFF775FE294607460F237268204617
:10AC4000FFF79EFE4FF46E418046E5E740F2594320
:10AC50009F422ED14EF69058326829462046FFF783
:10AC60005FFE05AB0093074604AB72682946204699
:10AC7000FFF7C0FD002800F0A7810723049A2946AA
:10AC80002046FFF77DFE059A064629464FF47F735E
:10AC90002046FFF703FFFA02B90102F4704201F007
:10ACA000400142EA900241EA080142F42062314345
:10ACB0005CE740F25F439F424AD14EF68058CBE7B3
:10ACC000B8F1030F44D1DFF8C091002700F1010A69
:10ACD00003224946504614F065FDA0BB2B7993BB77
:10ACE000644B326813F8278029462046FFF718FE88
:10ACF0007268074629462046FFF712FEB268814671
:10AD000029462046FFF70CFEFB02420103F4704384
:10AD100002F020021A4342EA50024FEA08134FEAB7
:10AD2000C910BF01C0B2DBB207F0400708F0F00164
:10AD3000024343F4206347EA590941F46E411A4340
:10AD400049EA010112E70137042F09F10409BFD1D3
:10AD500043462A464849494805F0A6F8636A186000
:10AD600032E1B8F1000F10D140F29B339F4205D180
:10AD70004FF43F412046FCF71DFF25E140F26143BF
:10AD80009F42E5D14BF63071F4E7B8F1010F40F086
:10AD9000FB8040F2B622974212D10146326820462B
:10ADA000FFF78CFD01462046FCF794FF002840F099
:10ADB0000B8133493148646A05F048F8206003E1AB
:10ADC000B7F52F7F09D1014632682046FFF776FD9F
:10ADD00001462046FCF7D2FFE8E7B7F5317F09D1FD
:10ADE00001460F2332682046FFF7CAFDC10041F437
:10ADF0008E41BFE7622B49D1039B032B0CD0052B5F
:10AE000040F09080C3785F2B40F08C8003796E2BEC
:10AE100002D0772B40F0868069781A4B00224FF0E1
:10AE2000FF375878884205D195F802C09878844554
:10AE300008BF1F7801320E2A03F10303F1D1781CF9
:10AE400086D0326829462046FFF738FD039B052B44
:10AE5000024609D12B79A3F177014B424B41394688
:10AE60002046FCF755FFA1E70023F8E7D03F030891
:10AE7000DA3F03089E4003080040030848550308D2
:10AE8000354003082B3F03089F400308692B49D135
:10AE90004378742B46D13068FFF736FDC44B0178F8
:10AEA00000221F465E788E4228D190F801C09E781D
:10AEB000B44523D186780EBBAE1C31460B4601311A
:10AEC00018780028FAD1691D8B423FF641AF02EB9A
:10AED0004202013BBA5C12F0010F4FEAC2000CBF04
:10AEE0004FF0080C4FF0000C00F008000821B342AE
:10AEF0000AD241EA021141F43F413BE701320E2AF6
:10AF000003F10303CED123E713F80179742F4FEA3D
:10AF1000510101D10143EAE7652F7FF419AF4CEAF3
:10AF20000101E4E740F2DF239F4202D14BF272615C
:10AF300020E7B7F5387F02D14BF262611AE740F2A1
:10AF4000C1339F420ED1326829462046FFF756FD95
:10AF500010F47F4F024602D140F434410AE74EF626
:10AF60002D1103E6782F7FF4F3AE32682946204690
:10AF7000FFF744FD10F47F4F024602D140F43C41FC
:10AF8000F8E64EF6BD01F1E5B8F1020F40F0AB81F5
:10AF9000736803F00F03022B40F2913340F09E8060
:10AFA0009F4214D101460F2332682046FFF7E8FC88
:10AFB0007268074629460F232046FFF7E1FC394611
:10AFC00002462046FCF760FE06B0BDE8F08740F27E
:10AFD000D2239F421CD14FF6B0284FF280070F2397
:10AFE000326829462046FFF7CBFC72688146294625
:10AFF0000F232046FFF7C4FC47EA000242EA092279
:10B0000048EA0001B2E54FF690284FF2A007E6E7C4
:10B0100040F2CA339F42F6D040F295339F422BD183
:10B02000014632680C232046FFF7AAFC07467068E9
:10B03000FFF76AFC064601465E4814F09BFB98B198
:10B0400031465D4814F096FBA0B12A465B495C4846
:10B0500004F02AFF636A0022186042EA072242F4E1
:10B0600000424FF2EF3181E50023564A02EBC30262
:10B07000D25CF2E70123F8E740F2AA239F4215D100
:10B080004FF480473268294607232046FFF778FCB3
:10B0900072688046294607232046FFF771FC424626
:10B0A000034639462046FCF7EAFD8DE7DFF81C91A0
:10B0B000002703224946284614F074FB40B9EB7878
:10B0C00033B9414B13F827703F0147F48047D9E764
:10B0D00001370F2F09F10409EBD139E69F421CD14A
:10B0E0004FF400570723326829462046FFF748FCF3
:10B0F00029468046FF2372682046FFF7CFFC47EAC7
:10B10000000141EA082135E64FF42057EAE74FF401
:10B110004057E7E74FF46057E4E7B7F5357FF3D0E2
:10B1200040F29F239F42F2D040F21A439F42F1D057
:10B1300040F293339F4219D14FF240270F233268D8
:10B1400029462046FFF71CFC4FF6FF7380467268C5
:10B1500029462046FFF7A2FC4246034639462046D0
:10B16000FCF7A4FD30E74FF2C027E7E740F2923347
:10B170009F42F8D0B7F5657F2AD101460F23326888
:10B180002046FFF7FDFB294607464FF0FF33726864
:10B190002046FFF783FC3A4683B205464FF2402132
:10B1A0002046FCF783FD2B0C3A464FF2C021D6E730
:10B1B0002B3F0308064203080F420308E03F030841
:10B1C0004855030805420308494003084A4003085C
:10B1D00040F261339F4228D101460F233268204656
:10B1E000FFF7CEFB05AB0093074604AB7268294618
:10B1F0002046FFF7FFFA00283FF4E6AE0F23049A3B
:10B2000029462046FFF7BCFB059A06462946FF2340
:10B210002046FFF743FC820842EA073246F46841C1
:10B2200042F4706241F05001A0E440F25F339F426B
:10B230003ED0B7F5587F3DD040F262339F423BD0BD
:10B24000972F3BD040F216439F4239D0B7F5836F1A
:10B250007FF47EAD0523864A294632F82370326892
:10B2600007232046FFF78CFB05AB0093814604AB18
:10B27000726829462046FFF7BDFA00283FF468AD02
:10B28000049A072329462046FFF77AFBFA0406466C
:10B2900018D51F23059A29462046FFF7FFFB47EAEA
:10B2A0000901800141EAC60100F4F860014361E54B
:10B2B0000023D0E70123CEE70223CCE70323CAE72C
:10B2C0000423C8E73B04059A06D53E2329462046B9
:10B2D000FFF7E4FB4008E2E77C2329462046FFF71E
:10B2E000DDFB8008DBE7B8F1030F7FF431ADB7F584
:10B2F0005C7F21D100270723326829462046FFF7CB
:10B300003FFB07238146726829462046FFF738FB3A
:10B31000294680461F23B2682046FFF7BFFB47EA55
:10B32000090747EA801747EAC80123E54FF4006799
:10B33000E1E74FF48057DEE740F271339F42F5D0EA
:10B3400040F2B2239F42F4D040F29F239F422BD180
:10B350004FF4C0580723326829462046FFF710FBF8
:10B3600007237268074629462046FFF709FBB268A3
:10B3700002F00F03022B81460ED1072329462046F7
:10B38000FFF7FEFA47EAC90747EA080747EA8011CC
:10B39000F0E44FF4D058DDE707232946204648F46F
:10B3A0008068FFF77BFBEDE7B7F57D7F22D14FF695
:10B3B00090380F23326829462046FFF7E1FA0F2321
:10B3C0000746726829462046FFF7DAFAB2688146D6
:10B3D00029460F232046FFF7D3FA40EA072242F41A
:10B3E000704242F0F00248EA0901FFF7BFBB4FF696
:10B3F000B038DEE7B7F5876FF9D040F21A439F42C5
:10B40000C7D040F217439F427FF4A2AC01460F23FE
:10B4100032682046FFF7B4FA0F23726829460746C0
:10B420002046FFF7ADFA05AB0093804604ABB26847
:10B4300029462046FFF7DEF900283FF4C5AD0F236B
:10B44000049A29462046FFF79BFA059A06462946A4
:10B45000FF232046FFF722FB3A0242EA083246F475
:10B46000684142EA900241F04001FFF77FBB00BF14
:10B470008640030804292DE9F04106460C46904613
:10B4800025D9446A1349144804F0E0FC20600024E4
:10B490002046BDE8F0810009F5F790FD074614F05D
:10B4A0005BF9022810D13B78722B0DD17A7805F127
:10B4B00030039A4208D10135A542E9D058F8250059
:10B4C00000F00F03022BE6D0746A0449DBE7002585
:10B4D000F2E700BF553F030848550308883F0308BB
:10B4E00038B505463020F4F799FE202204460021A5
:10B4F00014F0EAF829462046FCF709FBA562A800EB
:10B50000F4F78CFEE062204638BD10B50446C06AF0
:10B51000F4F7A1FE20460021FCF701FB2046BDE820
:10B520001040F4F798BE00002DE9F74F062901906E
:10B530009DF8305012D8012907D93F2300F8013B6C
:10B540000190019A0023137001E00029F9D101292B
:10B5500094BF0020012003B0BDE8F08F10EE104A28
:10B56000002C019C25DAB4EE400AF1EE10FA20D648
:10B570002D2504F8015BB1EE400A9FEDC27AF0EE92
:10B58000C07AF4EE477A02F0200EF1EE10FA5FFA7C
:10B590008EF513DD85F04903237085F04E0385F0A9
:10B5A00046056370E11CA57000230B70019BC81A4F
:10B5B000D1E7002DE1D004F8015BDEE7B4EE400AEC
:10B5C000F1EE10FA08D745F04E0385F041052370DF
:10B5D0006570E11CA370E7E7002B42F02002B8BFC2
:10B5E0000623672A02D1002B08BF01230198251AE0
:10B5F00010EE100A491B051E01F1FF3C48D1662AD6
:10B6000038D15D1C6545A8BFCB1E00275D1C662197
:10B61000BC463E4623EAE373652940F029815D1C60
:10B620004FF000084FF02E0BB2EE047A454540F380
:10B630008180FDEEC07A04F1010A17EE900A00281D
:10B64000A6BF00F130095FFA89F94FF03009E045F3
:10B6500084F8009004D11BB104F1020A84F801B00F
:10B66000F8EEE77A08F1010830EE670A544620EE5A
:10B67000070ADBE75D1D6545A8BFCB1F652A11469C
:10B680004FF0000540F0EA802B27AC462E46C1E77C
:10B69000B5F17E5F80F08E80DFED7B7ADFF8F081A0
:10B6A000DFF8F0A1B4EEE70AF1EE10FA4FF0000572
:10B6B000ACBF4FF031094FF0300920272E46B8ECCF
:10B6C000017AB4EEC07AF1EE10FAC4BF0AEB050BB2
:10B6D0009BED007A05F10405C4BFF61920EE070AB8
:10B6E000182D4FEA6707EAD110EE100AB0F17E5F1D
:10B6F00044D2B4EEE70AF1EE10FA3ADB002E14BFA2
:10B700002D272B27B7EE000A662A03D0672A47D1D8
:10B71000042E45DC672A04BF06F1FF355B195D1C6A
:10B720006545A8BFCB1E84F800904BBB01341D4675
:10B7300066211F46662A40F0AF80AE4240F3068184
:10B7400097B10A2196FBF1F393FBF1F201FB13662B
:10B7500001FB12324EF0450E3032303684F800E0F4
:10B760006770A270E670043400232370019BE01A16
:10B77000F1E6F2EE047A20EE270A01362D27C3E720
:10B780002E2161701D4602343021013E68D01DB962
:10B790002F464FF0FF3C46E004F8011B013DF4E763
:10B7A0008D1F9D4260DC672A5CD0CB1F11460025AF
:10B7B000AC462FE70025DFF8DC80DFF8D4902027A7
:10B7C0002E46F8EC017AF4EEC07AF1EE10FA9CBF46
:10B7D00009EB050ADAED007A05F104059CBFF619BC
:10B7E00020EE270A182D4FEA6707EAD1FDEEC07A4E
:10B7F00017EE905A092DC2BFDFED247A013620EEF4
:10B80000270A662A11D1664512DA99190131614574
:10B8100005DBACEB0603023B591C08BF0023F518FF
:10B820000135B44600276621F4E6652A40F096808B
:10B830008D1F9D4200DCCB1F00252B27AC466521C8
:10B84000E8E61D1D654500DB8B1F9E4203DB67217B
:10B8500000252B27ACE7711C5B1AE0E72F4614E7A5
:10B86000374696E72B46A1E700251146AC46D3E6BE
:10B8700067297FF4D5AE13B901252B46D0E61D46C6
:10B88000CEE600BFFFFF7F7FF8FF7F3FCDCCCC3DF2
:10B890001842030830420308F1EE047AB4EEE70AD6
:10B8A000F1EE10FA2BDB04F1FF3C4FF030099CF86D
:10B8B00000502E2DE0460CF1FF3CF8D0A5F1300AE7
:10B8C000BAF1090F2CD908F1010898F80050302D71
:10B8D00015D198F801C0BCF12E0F30D166292ED0B9
:10B8E0002D2F88F800C088F8015026D1013E08BFEE
:10B8F0002B272146884524D3312188F80010672A58
:10B900007FF41EAF002B3FF41BAF23461C46013BC8
:10B9100014F8012C302AF9D02E2A08BF1C460FE754
:10B92000392D03D0013588F80050CEE701988CF806
:10B9300001904045BBD18046C7E70136D9E70134C5
:10B94000D7E711F8015C01F80159D3E7F1EE047A69
:10B95000B4EEE70AF1EE10FAA5DAF1E6672A3FF451
:10B9600070AF114674E700BF012910B5146828D9DB
:10B9700034F01001037815D1302B1ED1417841F0FD
:10B980002001782900F1020303D110211160181A57
:10B9900010BDCCB96F2901D10821F7E7622911D177
:10B9A0000221F3E7082C11D1302B0DD1437843F05D
:10B9B00020036F2B08D1831CE9E7082C04D0022C4C
:10B9C00002D00CB90A2313600346E0E7022CFBD136
:10B9D000302BF9D1437843F02003622BEAE70000D3
:10B9E00008B5044631B1054B03608A6B0968002332
:10B9F00004F0F4FA2046F4F7F1FB00BF48550308C1
:10BA00002DE9FF471F460192461812B1023A222A39
:10BA100034D80546B5422C4639D215F8010BF6F755
:10BA20001DF880460028F5D123782B2B29D12C46F0
:10BA3000311B204601AAFFF797FF2518A9460024CD
:10BA4000B1454B4626D3B8F1000F00D064426400E4
:10BA500044F00104AB4209D01D46B5422B4641D209
:10BA600018780135F5F7FAFF0028F6D12049019A38
:10BA7000204804F019FA3946FFF7B2FF1E4801F0DA
:10BA800077FB2D2B04BF2C464FF00108D0E74FF079
:10BA90000008CDE719F8012BA2F1300ABAF1090F1D
:10BAA00009D95F2ACCD042F02002A2F16101192904
:10BAB000C9D8A2F1570A01995145C4D920460EF0C0
:10BAC000B3FC28B9019B03FB04A494EA4403B7D553
:10BAD000019B03954246711B03A805F031FC039BB3
:10BAE0000446B7E7C2D1204604B0BDE8F08700BFE6
:10BAF0008542030838560308624203082DE9F04FD7
:10BB00002DED028B83B0914600930E9B0193461856
:10BB10000446B442254680F031812878F5F79EFF2F
:10BB2000013407460028F4D12B782B2B09D1254668
:10BB30008246B4420CD30023DFED938A1F46194698
:10BB400082E02D2B03D125464FF0010AF1E7824612
:10BB50002B7843F02003692B32D1AB1C9E4240F27C
:10BB600005816B7843F020036E2B40F0FF80AB78AB
:10BB700043F02003662B40F0F980EB1D9E4205F157
:10BB800003041AD9EB7843F02003692B15D12B79E4
:10BB900043F020036E2B10D16B7943F02003692B07
:10BBA0000BD1AB7943F02003742B06D1EB7943F032
:10BBB0002003792B01D105F108049FED748A14E06C
:10BBC0006E2B59D1AB1C9E4240F2D0806B7843F073
:10BBD0002003612B40F0CA80AB7843F020036E2B2A
:10BBE00040F0C4809FED6A8AEC1CBAF1000F01D0CE
:10BBF000B1EE488AA54209D0B442234680F098802D
:10BC000018780134F5F72AFF0028F5D16149624818
:10BC100004F01CF90199FFF7E3FE022022461446C6
:10BC200014F801EBAEF1300BBBF1090F47D8022835
:10BC300031D15A4A914201DC08FB01B1B442EDD343
:10BC4000BCF1000F00D049420B4413F1250FBEBFD9
:10BC5000DFED537A253368EEA78A13F1090F5CD321
:10BC60005B4200EE903AB2EE040AF8EEE00A14F0FD
:10BC700007FC88EE808AB8E74FF0000C2A4663463E
:10BC800061466046DFED408A9FED467AF2EE046A37
:10BC90004FF00A08C3E7F4EEC78AF1EE10FA0BD5AD
:10BCA00007EE90BAF8EEE77A0128E8EEA67AF0EE11
:10BCB000678A2ED1013BC1E728B90133BEE720B91D
:10BCC000BEF12E0F03D10120B8E7022814D04EF0A8
:10BCD000200BBBF1650F0FD1A64252D950782B280B
:10BCE00004D1941CB44291D00220A7E72D2894D10E
:10BCF000941C4FF0010CF5E7B9F1000F04D04EF0A1
:10BD0000200BBBF16A0F06D0BEF15F0F96D0144630
:10BD100096E7002092E74F4692E707EE903AB2EEA0
:10BD2000040AF8EEE70A14F0ABFB28EE808A5CE721
:10BD30007FF46CAF57B19FED140AF0EE480A03B0E0
:10BD4000BDEC028BBDE8F04F03F072B9009B23B14C
:10BD5000DFED0D0AB0EE480AF1E7B0EE480A03B095
:10BD6000BDEC028BBDE8F04F04F058BABAF1000FF9
:10BD70003FF44CAF2C469FED048A39E74FF0000AA0
:10BD8000D9E63FF443AF5BE7000000000000807F8E
:10BD90000000C07F48420308385603086466660600
:10BDA000EA1C0802EC78AD6008B51020F4F744FAFC
:10BDB0000278012161F30202027008BD30B50478F7
:10BDC000022565F302040470048863F3C904048047
:10BDD000C0E9011230BD037861F3020303700388E8
:10BDE000029961F3C90303800368019961F3942305
:10BDF000C0E90032009B8360039BC3607047000072
:10BE000038B5044608462378656803F00703032B1A
:10BE1000114603D3042B0AD9052B12D0A3682A4656
:10BE200004F082FD23889B060AD50A4B07E0A3682D
:10BE30002A4604F0A9FD23889A0601D5064B036023
:10BE400038BD2068E2682946C0F38A20BDE8384042
:10BE500004F0A2BDDC5A0308185B030838B5154688
:10BE600011F480720C4614BFD5E900121146FFF799
:10BE7000C7FF620902F008022A44E1B2BDE8384077
:10BE800003F05AB803884A0802F4806223F48163FD
:10BE900042EA113223F007031A43438802800A0161
:10BEA00003F4706302F4E0421343C9B20B434380CE
:10BEB0007047D0E90003184770B505460C468E1848
:10BEC000B44200D170BDD5E90003984704F8010BD6
:10BED000F6E770B506460C460025D6E900039847FC
:10BEE00024B12368187023680133236000F07F03B6
:10BEF00043EAC5150306F0D4284670BDF8B50C46D4
:10BF000000210746FFF7E5FF20B93846BDE8F840B5
:10BF1000FFF7CFBFC3074FEA500528D523885A1B28
:10BF200002F01F0204EB420193424E8835460ED2C6
:10BF3000911C6FF001034900C8185A433E32214456
:10BF4000204413F0A9FB6388A4F840300022238822
:10BF5000501C40009A1A811C21442044520013F0C6
:10BF60009BFB238804EB430466802846F8BD2846E3
:10BF7000F4F754F92A46064601463846FFF79CFF77
:10BF800029463046F4F782FF05463046F4F763F958
:10BF90002388013303F01F03238004EB43046580EF
:10BFA000E3E700002DE9F04F894693B000210446F5
:10BFB000FFF78FFF00F0030583088246059305F124
:10BFC0000208002D40F0D1801846F4F727F90DA99A
:10BFD0000D9007462046FFF77CFF0DA92046FFF78E
:10BFE00078FF04220D992046FFF766FF0D9B5A1C2F
:10BFF0000D921A46204612F8021B0D925A780692AC
:10C00000DA1C0D929D78079104330CA9CDE90C330D
:10C01000FFF75FFFDDE90C128A1A0646821A2046F6
:10C02000FFF74AFF0D9B1E440D962046FFF741FF88
:10C030000D9BC0B25A1CFF280D921870F5D1059BBC
:10C040000D9EFB180893089BB3425FD8002308930A
:10C050001AF0020F12D149462046FFF74FFF49461A
:10C0600006462046FFF74AFF0C9B1E700C9B360AC3
:10C070005E700C9B98700C9B000AD870B8F1050F8D
:10C0800000F03D8100212046FFF723FF00210990A9
:10C090002046FFF71EFF069B0A901D44099B1818B7
:10C0A0002844B8F1020F18BF01308000F4F7B6F849
:10C0B0004FF0000A0646554540F0D780B8F1020F10
:10C0C0001CBF984B46F8253006EB850B18BF0BF1CB
:10C0D000040B4FF0000A099B9A4540F0D2800BEB0D
:10C0E0008A0A00250A9B9D4240F00181FFF75CFE11
:10C0F000B8F1020F044640F00481079B32463946EE
:10C10000FFF75CFE204613B0BDE8F08F2046FFF736
:10C11000D0FE002230700EA930460DF089FF0E9A35
:10C12000012802F1FF3206F1010B0E9213D14946AC
:10C130002046FFF7E3FE7070000AB0700E9A023AD4
:10C1400006F1030B0E920E9A59462046FFF7B4FEF5
:10C150000E9E5E4477E70228F5D12046FFF7A9FE40
:10C1600006060BF8010BF8D4EDE70598F4F756F83E
:10C17000059A014607462046FFF79EFE032D2BD168
:10C18000B8F1030F59D100212046FFF7A2FE384431
:10C190000E900EA80DF0D6FD0EA80DF0D3FD0E9B4F
:10C1A0005A1C0E921A460CA812F8021B0E925A78CC
:10C1B0000692DA1C0E929D78079104330E930C932D
:10C1C0000DF0C0FD0E9B18440E900E9B5A1C0E9253
:10C1D0001B78FF2BF9D139E700212046FFF779FEC4
:10C1E00000250646B542CBD000212046FFF771FE60
:10C1F000494683462046FFF781FE4FEA9B021BF02B
:10C20000030B07EB020304D1B854000A5870013540
:10C21000E8E7BBF1020F40F08180800040F0020BA4
:10C220001FFA8BF118460693FFF72CFE069B4FEA88
:10C230001B41181DFFF726FEE9E700212046FFF706
:10C2400048FEB8F1050F07900BD100212046FFF7FB
:10C2500040FE002106902046FFF73BFE0025089097
:10C26000F6E6002506950895F2E649462046FFF7D2
:10C2700045FE800040F0020046F82A000AF1010A5B
:10C2800019E72046FFF715FEC5B2652D2DD0002118
:10C290002046FFF71EFE01460B900EA8F4F753FF51
:10C2A0000B9A10992046FFF707FE732D0AD0622DD6
:10C2B0000AD11D480EA906F097FF4BF82A000AF193
:10C2C000010A08E71948F5E7692DDDE90F104FF07D
:10C2D000000303D10A22FFF793FBEEE7633D6A42B6
:10C2E00000936A41FFF70AFCE7E71148E5E7494692
:10C2F0002046FFF757FE4AF825000135F2E60026F2
:10C30000F4E6089B0393079B0293069B3A46CDE90C
:10C3100000634146059BFFF75EFDF3E681B21846D8
:10C3200088E700BF4445030884690308606C03087C
:10C330003065030830B593B0042269460446FFF720
:10C34000BBFD9DF800304D2B02D0164800F010FFC9
:10C350009DF80130042BF8D19DF8023003F003035F
:10C36000022BF2D19DF803301F2BEED8002120467E
:10C37000FFF7AFFD2028E8D89DF802309B0803D0D6
:10C38000052B01D00848E1E7002301A92046ADF8BC
:10C390000430FFF707FEA368054620689847284643
:10C3A00013B030BDAD420308C44203081FB50146B7
:10C3B00001A812F053FF01A8FFF7BCFF05B05DF81C
:10C3C00004FB0000F8B51F4C0025F4F721FD012700
:10C3D000A4F8EE51E564A4F8EC7103F0CFFC1A4B1D
:10C3E000C4F8E45104F19006C4E90B3504F13C00B3
:10C3F000164BA3630321656303F002FB3946304605
:10C4000003F0FEFA5E215622304603F088FB104B03
:10C410001A681B6852685B689660DE60C4F8D05189
:10C42000C4F8C050C4E97055C4E9725504F5F874F5
:10C43000204618F0FFF939462046BDE8F84018F0CC
:10C44000FDB900BF40040020F0520308246F030828
:10C45000EC06002038B5144B1B685B688400054669
:10C46000D86844F0020400222146043001F010FB99
:10C4700048B90E4BD3F8C0303BB102462146181DD7
:10C4800001F006FB08B1406838BD0022214608488B
:10C4900001F0FEFA0028F6D12A460649064803F0C4
:10C4A00003FDF3F79BFE00BFEC06002040040020D4
:10C4B000BC760308EE430308A45303080E4B1A6826
:10C4C0001968526849689268C968914210B5044673
:10C4D0000AD01B685B6881009868002241F0020165
:10C4E000043001F0D5FA20B92046BDE81040FFF72E
:10C4F000B1BF406810BD00BFEC06002008B5084B76
:10C50000D3F8C00008B9074808BD002240F2BA219C
:10C51000043001F0BDFA0028F5D04068F4E700BF10
:10C5200040040020D4740308044B1B685B6880003F
:10C530000A4640F00201986803F0F1BAEC060020C8
:10C54000044B1B685B68810041F00201986803F0AE
:10C55000F4BA00BFEC060020044B1B685B68800047
:10C560000A4640F00201D86803F0D9BAEC06002070
:10C57000044B1B685B68810041F00201D86803F03E
:10C58000DCBA00BFEC060020032837B505460C4690
:10C5900007D1084601F024FF00B33D4C204603B00C
:10C5A00030BDCB072ED54B10082829D801A252F850
:10C5B00020F000BF9DC50008E5C5000801C60008C1
:10C5C00001C60008D9C5000801C600089DC50008BD
:10C5D000E1C500089DC50008002BDED02D4CDDE72D
:10C5E000002BDBDAB3F1404F05D14FF0804004F06F
:10C5F0001BFE0446D2E75C42640044F00104CDE730
:10C60000DC43F9E7062820D101F00303022B0BD00D
:10C61000DBB90B689A69204B9A4216D1486840B939
:10C620008B680193C8680CE08C082046F4F7BCFCCA
:10C6300018B1400040F00104B0E701A92046F4F72A
:10C64000C2FC0199F4F7D4FBF3E7204601F03AFC71
:10C6500043695BB9082D0FD1204601F043FC0F4917
:10C6600002460F4803F020FCF3F7B8FD21462846A8
:10C6700098470028BDD1EDE70A4B20465D5D01F0EB
:10C6800031FC2A4603460849054803F00DFCEBE758
:10C69000784B0308804B03088D3C0108C044030815
:10C6A000C0550308C8710308D84403082DE9F041B8
:10C6B00004460E461746984601F004FC05693DB154
:10C6C00043463A4631462046AC46BDE8F041604715
:10C6D000204601F007FC03490246034803F0E4FB4F
:10C6E000F3F77CFD84430308C055030800231A4672
:10C6F0001946FFF7DBBF07B50022019101AB01210D
:10C70000FFF7D4FF03B05DF804FB30B45468003485
:10C71000154618BF01246FF0030303FB04230833FD
:10C720000A462118286830BCFFF7C0BF2DE9F04148
:10C730001D46930707468846164615D114681F4BB9
:10C740009C4203D153682B60BDE8F0811C4B9C4296
:10C7500007D110B101F0B6FB80467368C5E9003817
:10C76000F2E7184B9C4201D12E60EDE7E388B3F568
:10C77000497F06D040F2D122934202D0B3F54A7FDE
:10C78000F2D1BFB9104B9C420BD0104B9C4208D049
:10C790000F4B9C4205D00F4B9C4202D00E4B9C424B
:10C7A00008D10C20F3F73AFD0C4B8660C0E9003845
:10C7B0002860C9E7C5E90067C6E700BF1471030830
:10C7C000D87003088C710308045803084058030804
:10C7D0007C580308B8580308F45803088444030835
:10C7E00000232DE9F041C2E900330D460746144607
:10C7F00001F068FB0A2D064602D12060BDE8F081F9
:10C80000192D05D1836A1BB10F4BC4E90037F5E739
:10C81000F3692BB1224629463846BDE8F041184756
:10C82000B06B0028EAD0A9001A4641F0020104309A
:10C8300001F02EF90028E1D02346426831463846FF
:10C84000BDE8F041FFF772BFE475030870B5164606
:10C8500004460D46FFF7C4FF3368A3B9A3070BD105
:10C860002268094B9A4207D1E28808492B460848BA
:10C8700003F01AFBF3F7B2FC204601F033FB2B4622
:10C8800002460449F3E770BD8C71030806440308AF
:10C89000D45003082D44030807B56A46FFF7D6FFB6
:10C8A000DDE9000111B903B05DF804FB02F0DEFA26
:10C8B000F9E70000F0B58DB0054668460E4617460C
:10C8C0001C46F3F779FC40B93A4631462846FFF753
:10C8D00087FFF3F767FC0DB0F0BD002CFBD1019B87
:10C8E0000449186809F0BCFB0028F4D10198F3F75B
:10C8F00075FC00BFD450030873B505460C461646B8
:10C9000001F0E0FAC36943B10422CDE900262146D3
:10C910006A4628469847009B53B1284601F0E2FA40
:10C92000234602460349044803F0BEFAF3F756FCD7
:10C9300002B070BD2D440308D450030873B50446FB
:10C940000D4601F0BFFA154B426A9A42064623D0C3
:10C950001DB91020F3F762FC0546736A83B96A4675
:10C960000F212046FFF73CFF009B83B9204601F0D2
:10C97000B9FA0B4902460B4803F096FAF3F72EFC7E
:10C980002946204698470028E9D002B070BD2946C4
:10C99000684604F091F9F8E72046F6E7C1E400089C
:10C9A0009F430308C055030837B5044601F08AFACF
:10C9B000856A1DB12046A84703B030BD6A461921DB
:10C9C0002046FFF70DFF009B2BB16A4629462846FB
:10C9D000FFF79BFEF0E7204601F084FA0349024688
:10C9E000034803F061FAF3F7F9FB00BFD0430308F3
:10C9F000C055030830B505468FB000F057FF2846F4
:10CA000001F060FA846A2CB12846A047044620460B
:10CA10000FB030BD6A4619212846FFF7E1FE009BA2
:10CA2000ABB102A8F3F7C8FB014630B96A46FFF77D
:10CA30006CFE0446F3F7B6FBE9E7039B0849186868
:10CA400009F00EFB0028E2D10398F3F7C7FB284654
:10CA500001F048FA03490246034803F025FAF4E7D7
:10CA60000C550308D0430308C05503082DE9F04FC7
:10CA70008BB01368029300284ED102F104090446DA
:10CA8000C1F307235FFA81F800935B0008EB030210
:10CA9000019359F822A009EB82025768002F3FD07A
:10CAA00017F003003CD13968804A914202D13846E0
:10CAB00003F032F8009B1D186D004FEA880BBAF1A5
:10CAC000000F2FD108F101000544A800F3F7A6FBE1
:10CAD00006460CB10460012406EB84005A46494620
:10CAE00012F0AEFD4444009B09EB0B01DA0006EBAB
:10CAF000840012F0A5FD019B23449846002F00F00E
:10CB0000868017F0030340F092803968674A9142AB
:10CB100040F08D801D4677E002F108095468AFE7C8
:10CB20000020C7E71AF0030F2AD1DAF80020604985
:10CB30008A4202D05F498A4222D106AA05A95046FC
:10CB400001F0ACFB059B013343441D44A800F3F7FF
:10CB500065FB06460CB1046001245A46494606EBC3
:10CB6000840012F06DFD059A069908EB040092000E
:10CB700006EB800012F064FD059B43441C44B2E7C1
:10CB800008F104000544A800F3F748FB06460CB181
:10CB9000046001245A46494606EB840012F050FD19
:10CBA00006A95046FFF7CAFE444480464046FFF7B8
:10CBB00021FF0346002896D0A54207D8E900304659
:10CBC0000393F3F73BFB039B06466D0046F82430C6
:10CBD0000134EBE7FB6853F835004FEAC50990B123
:10CBE000042810D000F00303022B01D007F03AFF15
:10CBF00046F82800FA684FEA88034A4433445268EA
:10CC00005A6008F102080135BB689D42E2D3A8EBE7
:10CC100004022146334652080298FFF747FD0446B6
:10CC20003046F3F718FB20460BB0BDE8F08F06AA9C
:10CC30006A213846FFF70AFE002106AA0846FFF7D8
:10CC400064FD0021FFF77AFE82465046FFF7D2FED0
:10CC500081460028DBD008F101039D4208D86D0011
:10CC6000042D38BF04253046A900F3F7E7FA06463D
:10CC700009F00303022B03D0484607F0F3FE814678
:10CC800006AA0F213846FFF7E1FD06AA0021012080
:10CC9000CDF82090FFF739FD4FEA8803334446F87A
:10CCA000289008F102085860CFE700BF544F0308EE
:10CCB000306F0308AC5D0308F0B5830787B00C46FE
:10CCC00015461BD10368204A934202D01F4A934263
:10CCD00014D102AA01A901F0E1FA019BA3422BD3CE
:10CCE0001CD8029B043D03EB84049C4201D107B095
:10CCF000F0BD54F8042D45F8042FF6E702A9FFF71C
:10CD00001DFE0023064601936FF04047019BA3429E
:10CD1000304606D3FFF76EFE0028E8D022460C49C5
:10CD20000CE0FFF767FE38B1019BFA1A2244013389
:10CD300045F822000193E9E7019A0649064803F005
:10CD4000B3F8F3F74BFA00BF306F0308AC5D03088C
:10CD500019450308F6440308385603082DE9FF4136
:10CD600083071546CFB2C1F3072435D103683A4A89
:10CD7000934202D0394A93422ED10290029803AADC
:10CD800001A901F08BFA01983B1983425CD8039901
:10CD9000002601EB8003A64213D1BC00C01B214436
:10CDA000801B04F0EDFE039945F8260005EB86088C
:10CDB0000B1942468B420AD10023029304B0BDE80E
:10CDC000F08153F8042D45F826200136E3E753F8A7
:10CDD000040D42F8040FEDE70021FFF7AFFD00233B
:10CDE00080460193019BBB4219D30021084604F001
:10CDF000C7FE06464046FFF7FDFD0146D0B9B168C3
:10CE0000A14221D345F8246005EB810205EB8403A0
:10CE1000091BAB4212D1304604F0CDFECEE74046AE
:10CE2000FFF7E8FD80B1019BFA1A2244013345F86F
:10CE30002200D6E7304604F03BFCDBE7D01AF4686A
:10CE4000205843F8040DE4E7019A0549054803F02A
:10CE50002BF8F3F7C3F900BF306F0308AC5D03088C
:10CE6000F64403083856030810B5044603F07AF870
:10CE700038B1002320461A461946BDE81040FFF796
:10CE800015BC204603F084F828B904490448BDE8DD
:10CE9000104002F0DBBF204610BD00BF4F44030826
:10CEA000C05503082DE9FF411D4606460C461746AE
:10CEB00001F008F82D4B984208D12B463A462146FE
:10CEC000304603F0F3FD04B0BDE8F081D0F82880CF
:10CED000274BB8F1000F08D09C4221D13046C04703
:10CEE0002860003018BF0120EDE79C4218D101AA4C
:10CEF00019213046FFF774FC019B6BB901AA8A2106
:10CF00003046FFF7A3FC039401AA00210120FFF79C
:10CF1000FCFB28600120D6E701AA41464046F6E71F
:10CF2000002CEBD1384600F0CDFF124909F098F8FB
:10CF300001AA68B147213046FFF752FC019B7BB143
:10CF400001AA21462046FFF7E0FB28602046BAE709
:10CF50009B213046FFF744FC019B0BB10397D3E7BD
:10CF60003846FFF781FF28600220ACE7A05A03088B
:10CF700074610308C45103087FB58000074B40F07B
:10CF800002000190CDE90412052001A9CDE9023388
:10CF90000AF01AF807B05DF804FB00BF74610308DB
:10CFA0002DE9F04F85B000AF07F1080204460D46A9
:10CFB000FFF716FCFB6833B12A462749274802F0E1
:10CFC00073FFF3F70BF9B868002840D120460AF048
:10CFD0009DF90028F0D007F1080220461721FFF73D
:10CFE000FFFB391DB86806F035FE83462846F3F787
:10CFF000E0FFD7F8048008F1010400EB040909F10F
:10D00000070323F00703ADEB030D6B464FEAD30A8A
:10D010004FEACA0642465946304612F011FB2E230B
:10D0200008F83A302846F3F7C9FF80462846F3F758
:10D03000C0FF344402464146204612F001FB4946F7
:10D040003046F3F723FF01220549FFF795FF143718
:10D05000BD46BDE8F08F00BFBA4303080052030885
:10D06000804B030870B545680024AB68A34200D824
:10D0700070BDEB6853F83400E60078B104280DD099
:10D0800006F0D0FD03785F2B08D0EB68985906F0C6
:10D09000B3FDEB6833445968FFF746FA0134E4E71F
:10D0A0002DE9F043214C16462268526891B0D268AF
:10D0B0000092226852689268019222685268D66093
:10D0C000226852688046936004A88946F3F774F892
:10D0D00025460746F8B9D8F800404A46414602A816
:10D0E000F6F730FD21463B463A4602A8F9F7FCFD2B
:10D0F000044616B1FFF7FAFA0446F3F753F8009A1C
:10D100002B685B68DA60019A2B685B6820469A603E
:10D1100011B0BDE8F083009A236805985B68DA6077
:10D12000019A23685B689A60F3F758F8EC060020D0
:10D1300008B519B902F07CFEF3F750F802F086FE4C
:10D14000FAE7000008B50446F3F760F918B105499D
:10D150000548FFF7EDFF22460449034802F0A4FE0C
:10D16000F3F73CF8F3420308685303081C43030831
:10D17000014608B50148FFF7DBFF00BF385603083A
:10D180002DE9F047072886B082468946174603D125
:10D19000914210D0B84E2BE1022801D005280CD1C5
:10D1A0003946484600F028FF10B1BAF1020FF0E707
:10D1B000BAF1020FEED0B14E1AE1082828D110467C
:10D1C00002F0D0FE30B13946484602F0E8FE0028B1
:10D1D000F1D1DFE717F0030440F02E813A68A84B45
:10D1E0009A4240F0298107F108067B68A342D1D911
:10D1F00056F8045B284602F0B5FE002800F0618175
:10D200002946484602F0CBFE0028D4D10134ECE791
:10D2100011F0010F00F0448112F001084FEA61059E
:10D2200000F0FA805410212800F20681DFE810F0A7
:10D23000E400E8000401EC00F00004010401040132
:10D24000040122002E0031003400690071007400D6
:10D25000770083008C009D00A50022002E00310085
:10D260003400690071007400770083008C009D0019
:10D27000A500C90045EA04084FEA480696EA080FE7
:10D2800056D54046C11703F0BFFF6CE085EA04089D
:10D29000F2E705EA0408EFE7002C02DA7948FFF725
:10D2A00067FF1F2C09DC6FF040432341AB4204DBD6
:10D2B0004FF040432341AB4220DD2846E91703F0FD
:10D2C000A3FF8146484600F0FDFD8369002B40F036
:10D2D000F080BAF1220F40F0AF8002A94846FFF774
:10D2E0002DFB04462046FFF785FB00283FF452AF94
:10D2F000394600F081FE0028F4D05CE705FA04F816
:10D30000BAE7002CCADB1F2CA8BF1F2445FA04F87B
:10D31000B2E705EB0408AFE7A5EB0408ACE721464C
:10D3200028460DF081F80028C7D104FB05F67600E9
:10D3300046F001065CE0002C00F0C580214628463E
:10D340000DF0A3F8804697E7002C00F0BC8007EEB4
:10D35000905AB8EEE70A07EE904AF8EEE77A80EEC8
:10D36000270A02F05BFF064642E0002C00F0AB808B
:10D37000214628460DF07BF8E4E7002C1FDA07EE83
:10D38000905A1146B8EEE70A02F0B4FFEBE7E20765
:10D3900007D5314640460DF047F800288DD106FBF1
:10D3A00008F8012C3FF468AF3146304664100DF0A8
:10D3B0003BF8002881D17643002CE8D15CE72E466B
:10D3C000FAE7002C7FD00021022007F0D5FE21468D
:10D3D000064628460DF059F8400040F00100B060C4
:10D3E000214628460DF043F8400040F00100F0606F
:10D3F000304606B0BDE8F087A542FFF6DCAEC9E6D0
:10D40000A5423FF7D8AEC5E6A5427FF7D4AEC1E648
:10D41000A542BFF6D0AEBDE6930741D113681A4AC4
:10D4200093421CD107EE905A3946B8EEE70A02F053
:10D4300061FF06460028DBD1144B484613F80A402A
:10D4400000F050FD0546384600F04CFD2B4600909C
:10D4500022460F490F4802F027FDF2F7BFFE0E4AA1
:10D4600093421DD107EE905A3946DFED0C0AB8EE13
:10D47000E70A01F0B1FEDCE7784B0308804B0308B4
:10D48000306F03084A43030838570308B26F030894
:10D490005F430308C0550308DC4C0308000000008C
:10D4A000BAF1060F01BF4B464FF0220AB9461F469C
:10D4B00008E73A464946504698470646002897D11D
:10D4C00007E72F46B8E702490248FFF731FE00BFE1
:10D4D000B64C0308B0560308014608B50148FFF7EB
:10D4E00027FE00BFC05503082DE9F041044617464A
:10D4F0001E460D4641B1186800F0E4FC63688342A3
:10D5000002D00548FFF7E8FF33463A462946A068AF
:10D51000BDE8F041FFF7CAB8DB420308410008B597
:10D5200041F00101024802F087FCF2F757FE00BF0C
:10D530001C540308014608B50148FFF7F9FD00BF78
:10D54000E053030808B540F25631024802F074FC7B
:10D55000F2F744FE9454030830B58DB00446684693
:10D560000D46F2F729FE48B920462946FFF7C3F8D1
:10D570000446F2F717FE20460DB030BD019902486F
:10D5800000F0DAFC0024F6E7E42E0308EFF3108144
:10D5900072B6084AB2F8EC311B0443BFB2F8EC3162
:10D5A00003F1FF331BB24FF6FF73A2F8EC3181F3A6
:10D5B0001088704740040020EFF3108172B60C4BC6
:10D5C000B3F8EC21013212B2A3F8EC2118463AB9B3
:10D5D000DA6C12B993F8EE212AB10023A0F8EC31ED
:10D5E00081F3108870470122A3F8EC21F8E700BF0F
:10D5F0004004002070B5124B93F8EE414FF6FF72D5
:10D60000A3F8EC21CCB193F8EF2102F10A0103EB6E
:10D61000C106013202F00702013C53F83150716833
:10D6200083F8EF2183F8EE4180F310882846FFF756
:10D6300093FFBDE87040FFF7BFBF80F31088F8E7A5
:10D640004004002008B50D4BB3F8EC2112B2A2B98A
:10D65000EFF3108172B6D86C50B1DA6493F8EE2112
:10D6600012B90122A3F8EC2181F31088F2F7B6FD7C
:10D670000846BDE80840FFF7BDBF08BD40040020D4
:10D6800070B5EFF3108572B60F4B93F8EE41082C8E
:10D6900018D0B3F8EC2112B2012A04BF0022A3F87B
:10D6A000EC2193F8EF21224402F00702661C0932B4
:10D6B00083F8EE6103EBC203C3E90201012085F3A5
:10D6C000108870BD0020FAE74004002058B1064AD7
:10D6D00013685B68DB68984204D012685268D060B7
:10D6E0001846704700207047EC06002001F00F013B
:10D6F00002290CD8DFE801F00D020900054A064BAB
:10D70000002814BF10461846704703F08DBD03F083
:10D710000DBE7047804B0308784B03081346C1F3D6
:10D720000722C9B2FEF7C2BFF0B58DB00546684604
:10D730000F4614461668F2F73FFD78B9002E0CBF6D
:10D7400039460021234632462846FFF7ABFB054603
:10D75000F2F728FD012D0BD1284611E0019B236033
:10D760001049206802F01BFC60B92068F2F736FD12
:10D770002368002DF4D10BB90B4B23603EB9002078
:10D780000DB0F0BD206802F01FFB2060F6E70749EE
:10D79000304602F004FC0028F1D03046FFF764FB6D
:10D7A000E4E700BF0C55030874610308C451030883
:10D7B000036803B94068FFF71DB91FB511F00F01E9
:10D7C00004460AD0032902D800F092FC05E00322A7
:10D7D00001A900F076FE10B1019804B010BD2046FA
:10D7E000F2E7000008B530B1034B984203D0FFF7D1
:10D7F0003BFBF2F7F3FC08BD7461030810B50C465F
:10D8000019B9BDE81040FFF799B8FFF797F88442BF
:10D810001CBF0023C4E90030002010BD40F2BA3321
:10D8200098421AD009D85E2819D0752819D03E28F8
:10D830000CBF01204FF0FF307047B0F56F7F12D062
:10D8400013D340F2BD33984211D040F23C4398428A
:10D850000CBF03204FF0FF307047042070470220B8
:10D86000704700207047072070470620704705204A
:10D8700070470000024B1B685B681860704700BF70
:10D88000EC060020044B1B685B6882B0186801AB93
:10D89000C01A02B0704700BFEC060020024B1B68A4
:10D8A0005B685860704700BFEC06002008B5FFF7C2
:10D8B000E9FF044B1B685B685B68984201D3FFF784
:10D8C00041FE08BDEC06002010B503461446500C7E
:10D8D000C2F34F0221B1E10702D40D48FFF7FCFD6E
:10D8E000904207D1984212D00A4902460A4802F0F3
:10D8F000DBFA06E0984206D9C21A0849064802F047
:10D90000D3FAF2F76BFC9A4201D20549EEE710BD5B
:10D910000C46030834460308C05503086D46030847
:10D920009F4603082DE9F74FDDE90CA50024814649
:10D930008B469046019326462746019B9C4204D184
:10D940004F453CD22348FFF7C7FD4C450FD2BAF8EC
:10D9500002209205F6D45BF8240001379AF80220E1
:10D96000012A25D100F03CFD05F8240019E0BAF8A1
:10D9700000108900002241F00201404600F088F8C2
:10D9800098B9BAF80220D30507D5BAF80020124991
:10D99000124802F089FAF2F721FCDAF8042045F87F
:10D9A000242001340AF1080AC7E701364068D5E7A8
:10D9B000022A01D100F078FB45F82400F1E7D8F8FD
:10D9C0000030B6EBD30F01D20548BCE703B0BDE889
:10D9D000F08F00BF2747030810470308C05503080E
:10D9E0004847030870B586B00446154602EB80022E
:10D9F00003A81E4600F01FF80B9B01930A9B00939F
:10DA000003AA334629462046FFF78CFF06B070BDB7
:10DA100008B50148FFF78EFDCE46030810B5044651
:10DA2000416019B981600123236010BDC800F2F77D
:10DA300003FCA060F7E70368416061F3DF03036064
:10DA400003F0F80343F00703037082607047037824
:10DA50009B0710B5044602D48068F2F7FCFB2368EC
:10DA6000002262F3DF036260236010BD03789B072E
:10DA700010B5044602D48068F2F7EDFB236803F08A
:10DA8000040343F0010323600023C4E9013310BD04
:10DA900003782DE9F74F13F0010804460E4692462D
:10DAA0000ED001F00302022A08D01AB908687F4993
:10DAB00088423FD0BAF1010F40F0F5804FF00108E5
:10DAC0005B0764D52768A56827F007072F44BD4288
:10DAD00032D3BAF1010F40F0E680D4E90013C1F36C
:10DAE000DC01994211D104316160A068C900F2F7EC
:10DAF000A5FB23686268A060C3F3DC03D21AD200DE
:10DB0000002100EBC30011F0DFFD2368A168C3F31F
:10DB1000DC02501C60F3DF03236041F8326006F042
:10DB20000306022E01EBC20523D023786FF3000316
:10DB300023701EE09046C3E72868B0421DD1BAF1B9
:10DB4000020F16D123686E687A1B083B22F0070289
:10DB500005F108012360083A284611F09DFD23686D
:10DB6000A268C3F3DC0302EBC305002142F83310C3
:10DB70006E60284603B0BDE8F08FB8F1000F04D105
:10DB8000314600F039FA0028D9D108359FE763689B
:10DB900033B9BAF1010F40F08680204600F088F8D2
:10DBA00006F0030BBBF1020F28D1B008F3F7FCF924
:10DBB00002466368B2FBF3F103FB11231F464FF0EB
:10DBC0000009A16851F8370001EBC705E0B9BAF1C7
:10DBD000010F68D12368C3F3DC020132B9F1000FF1
:10DBE00018BF4D4662F3DF03BBF1020F2360C5E9A6
:10DBF0000060BED0237860F3000399E73146062029
:10DC0000FEF7C2FC4210D4E7042822D1B9F1000F7C
:10DC100008BFA94661680137B7FBF1F001FB107737
:10DC2000BB42CED1BAF1010F3DD1B9F1000F33D0D3
:10DC3000236800220833BBF1020F2360C9F800609B
:10DC4000C9F8042003D0237862F3000323704D4603
:10DC50008FE7B04211D1BAF1020F8AD1236862680E
:10DC6000083B01372360B7FBF2F302FB1377A3688D
:10DC700053F8373073B92B607BE7B8F1000FC9D187
:10DC80003146CDE9003200F0B7F9DDE90032002875
:10DC9000C0D0E0E70423EEE72046009200F008F849
:10DCA0006368009A86E7002563E700BF606C03089D
:10DCB0002DE9F04146681A490446731C002231F8E8
:10DCC000025BAB4206D90132222AF8D103EB53039F
:10DCD00043F00105E800A768F2F7AEFA2368656033
:10DCE00003F0060343F001032360A0603D1D4FF0E5
:10DCF0000008B04504D13846BDE8F041F2F7ABBAB0
:10DD000055F8041C39B1042905D001222046FFF73B
:10DD1000BFFE2B68436008F101080835E9E700BF42
:10DD20006647030810B5002304460160436088007D
:10DD3000F2F782FAA06010BD03682DE9F74F0446A0
:10DD40008946924623B912F0010F5DD000F05EF8CB
:10DD500049460620FEF718FC22684FEA600B0AF0DD
:10DD60000103BBFBF2F8009302FB18B845460026FE
:10DD7000A06850F82570AA00811867B91AF0010F41
:10DD800042D0002E08BF0E466368013363604F46E1
:10DD9000C6F8009032E0042F17D1002E08BF0E46BF
:10DDA00022680135B5FBF2F102FB1155A845DFD120
:10DDB000009B4BB3002EE7D1204600F027F82268E5
:10DDC000BBFBF2F802FB18B8D0E74946384601928F
:10DDD00000F012F9019A0028E2D01AF0020F0DD0DB
:10DDE00063682068013B01356360B5FBF0F1A3680F
:10DDF00000FB115553F8251021B99950384603B04E
:10DE0000BDE8F08F0421F8E70027F7E7F8B50568CB
:10DE10008668154904466B1C002231F8020B8342C8
:10DE200006D90132222AF8D103EB530343F0010053
:10DE30000023206063608000F2F7FEF93746A0609F
:10DE400006EB8505AF4204D13046BDE8F840F2F755
:10DE500002BA57F8041B0029F4D00429F2D0012299
:10DE60002046FFF769FFEDE76647030870B50168D4
:10DE70000023994201D1002214E0846854F8232041
:10DE800004EB83060133002AF3D0042AF1D045685D
:10DE9000013D4560B3FBF1F001FB103354F8233032
:10DEA00013B93360104670BD0423FAE710B5044679
:10DEB0008068F2F7D0F90023C4E90033A36010BDF5
:10DEC00070470000C30705D400F00303022B03D002
:10DED000006870470148704701487047145C0308A8
:10DEE000606C030808B5FFF7EDFFBDE80840C08887
:10DEF000F3F764B870B50D4604461646FFF7D6FC36
:10DF00002846FFF7DFFF83682BB1324629462046BB
:10DF1000BDE870401847C28802492046BDE87040FD
:10DF2000F3F750BD084903080A4601460148FFF7C8
:10DF3000E1BF00BF608103082DE9F34705460846AD
:10DF40000E4602F025F898B101AA6946304602F063
:10DF500089F8009B63B11A491A4FDFF87080DFF827
:10DF600068902846F3F7E1F9009C033C002C0BDA9B
:10DF7000022231462846FFF7BDFF13492846F3F732
:10DF8000D4F902B0BDE8F087019A4FEA840A02EBA7
:10DF90000A0339465B6852F824202846F3F712FD3D
:10DFA000019B53449A682AB949462846F3F7BDF9BC
:10DFB000033CDBE741462846F3F704FDF8E700BFE2
:10DFC000C6480308EA48030881FF0208FF4803081F
:10DFD00008B50246FFF776FF064B0069984204D168
:10DFE0001046BDE8084007F02BBF003018BF0120E5
:10DFF00008BD00BF5D5C0108884210B5044608D129
:10E00000830744D10368234A934202D0224A9342B1
:10E010003DD1224B9C4201D1002010BD9942FBD042
:10E02000E00704D5CA07F7D423460C46194604F086
:10E030000302022A01F0030304D082B92068184ABF
:10E0400090420CD1022B05D0002BE5D10A68144B6D
:10E050009A42E1D12046BDE8104005F085BD022B73
:10E06000DAD01BB90A680E4B9A42D5D02046FFF78A
:10E0700029FF8369002BCFD00A460220214698470A
:10E080000028C9D0074BC31A58425841C5E70120A0
:10E09000C3E700BF38570308DC4C0308746103086A
:10E0A000606C0308804B030808B50E4B984201468C
:10E0B00014D00D4B984213D0C20701D5401008BDB3
:10E0C000830707D10268094B9A4203D1BDE8084093
:10E0D00003F056B90820FEF757FAF7E70020EEE7FD
:10E0E0000120ECE7784B0308804B0308145C03081D
:10E0F000C20705D4830705D10268034B9A4201D1B8
:10E1000003F036B9FFF7D0BF145C0308114B9842F7
:10E1100010B50C4603D100230B60012004E00E4B28
:10E12000984202D10120086010BD10F0010102D018
:10E1300042102260F1E710F0030307D10168074A9B
:10E14000914205D103F01CF92060E6E70846EBE7B1
:10E150001846E9E7784B0308804B0308145C030872
:10E16000164A904210B50C461ED0154A90421ED059
:10E1700010F0010108D0431000EE103AB8EEC00ACA
:10E1800084ED000A012010BD10F0030212D10368D3
:10E190000C498B4202D103F03BFAF1E70A498B426A
:10E1A0000AD102F0A3F8EBE79FED080AE8E7B7EE23
:10E1B000000AE5E70846E6E71046E4E7784B03087F
:10E1C000804B0308145C0308385703080000000064
:10E1D00013B501A90446FFF7C3FF48B92046FFF76E
:10E1E00081FE05490246054801F05EFEF1F7F6FFA3
:10E1F0009DED010A02B010BD8B480308C05503080D
:10E20000F8B51F4EB04203460D46144603D1002315
:10E210000B602360F8BD1B4EB04204D14FF07E531B
:10E220000B600023F5E7C70707D5431007EE903AC8
:10E23000F8EEE77AC1ED007AF3E7860715D10668B4
:10E24000114FBE4204D103F0E3F985ED000AE8E77F
:10E250000E4FBE4202D102F049F8F6E70C4CA6423E
:10E2600003D1BDE8F84000F0B1BF1846FFF73AFE11
:10E2700008490246084801F017FEF1F7AFFF00BF5A
:10E28000784B0308804B0308145C030838570308D5
:10E29000DC4C03086F480308C055030838B58407F1
:10E2A00003460ED104680C4DAC4203D1BDE83840A2
:10E2B00007F078B8094DAC4203D1BDE8384003F00F
:10E2C00075BC1846FFF70EFE05490246054801F0E9
:10E2D000EBFDF1F783FF00BF306F0308AC5D03086F
:10E2E00020480308C055030813B50C4601A9FFF7E1
:10E2F000D5FF019BA34206D022460449044801F001
:10E30000D3FDF1F76BFF02B010BD00BF4248030818
:10E3100038560308F7B51F46D30706460D46144680
:10E320000FD554100194019A002ABCBF52190192D2
:10E33000019AE7B1002A16DA00230193019803B08D
:10E34000F0BD01A91046FFF7E1FE0028EBD1204601
:10E35000F588FFF7C7FD2A4603460A490A4801F037
:10E36000A3FDF1F73BFFAA42E8D90195E6E7002AB1
:10E3700001DBAA42E2D3F2880449054801F094FD8A
:10E38000EFE700BFDD470308C05503080148030855
:10E3900078520308820701D002F046BF002801DA54
:10E3A00002F0C4BF400040F001007047830710B581
:10E3B000014608D10268094B9A4204D180684000A6
:10E3C00040F0010010BD0846FFF77CFD43691BB11A
:10E3D0000520BDE8104018471846F3E78469030894
:10E3E00038B5154B9842044624D0144DA84201D1AB
:10E3F000012038BD124B98421CD0C20704D54308F7
:10E4000014BF01200020F4E7FFF75CFD43693BB136
:10E4100021460420984718B1431B58425841E8E769
:10E420002046FFF7C3FF0028E2D010F1FF3018BFED
:10E430000120DEE70020DCE7784B0308804B03086F
:10E440007461030810B50446FFF7B0FF48B92046D1
:10E45000FFF748FD03490246034801F025FDF1F7A7
:10E46000BDFE10BDA5480308C055030838B50446D5
:10E470001546FFF727FD036A13B120469847B0B948
:10E48000204645B9FFF72EFD09490246094801F02B
:10E490000BFDF1F7A3FE042D04D1FFF723FD064980
:10E4A0000246F3E7FFF71EFD04490246EEE738BDDA
:10E4B0000D490308C05503083749030857490308A5
:10E4C000704710B50446FFF7FDFCC36A2BB1204628
:10E4D0009847B0FA80F0400910BD1846FCE70000EC
:10E4E00008B5FFF7EEFF10B90148FEF7F5FF08BDCC
:10E4F000B8470308062806BF480040F00100002086
:10E5000070470000042803D0052808D00020704779
:10E510008A68054B0548002A08BF18467047886876
:10E52000400040F001007047784B0308804B03081F
:10E53000074B0268C1E900300023C1E90233054BF3
:10E540009A4202BF4368C3F317238B6008467047A3
:10E5500094490308FC4A0308F8B50D4601790446BE
:10E5600001F07F0116464020002208F049FAA26817
:10E570002379E1682768296042436A6003F07F02DB
:10E58000AA60084A974209D11A0601D4B30707D4F2
:10E590006368C3F3172300FB03132B600020F8BD4F
:10E5A0000120FCE7FC4A0308F8B5002205460E46A8
:10E5B0000146402008F024FA07461020F1F72EFE0D
:10E5C000094A0A4B0571012D18BF134603604368C1
:10E5D0006FF31F230446C0E9013606FB07F0F1F78D
:10E5E0001DFEE0602046F8BD844A0308C04A0308C7
:10E5F0007FB504460122084601A9FFF771FF0022FA
:10E600002179402008F0FCF96368029DB5FBF0F524
:10E61000C3F31722AA42064619D2A16829444143EE
:10E62000E068F1F70BFE6368E0606FF31F2363603F
:10E63000D4E9020305FB06F200FB0630019910F055
:10E64000FFFFA36804481D44A56004B070BD521BC1
:10E6500062F31F23EBE700BF746103082DE9F0416B
:10E66000456835F0FF05044688461ED101792A46E3
:10E67000402008F0C5F96368A168082262F31F23EF
:10E680001144064641436360E068F1F7D7FD6168D5
:10E69000A268E060C1F31721013902FB0667384424
:10E6A00006FB01F2294611F00FF843462079D4E920
:10E6B000022108F0BFFBA36804480133A36063682C
:10E6C000A3F580736360BDE8F08100BF7461030847
:10E6D0004268C36891688B4230B40AD21479D16819
:10E6E00082685D1CC5601A4404F07F0030BC08F0ED
:10E6F000F1B9002030BC70472DE9F04F044689B0D5
:10E700000D4616460AB90025C3E011F003078068DC
:10E71000DFF814A240F0D3800B687C4A934240F0AB
:10E72000CE8002AA07F0BEFD10B97948FEF702FFBD
:10E730002179042E01F07F013A464FF0400000F0AD
:10E74000918008F05DF916F0030205465CD133684C
:10E750007049186A88424AD13179402001F07F011E
:10E7600008F04EF9A84202D06B48FEF701FD33686D
:10E770005345D6E9028B04D17368C3F3172305FB15
:10E7800003BBDDE902392268E668A3EB09075245BD
:10E7900047443BD194F90420002AB4DA002FE3D196
:10E7A0006268C2F3172205FB026605FB036005FBE6
:10E7B00008F25946019310F043FF0399A2680298AA
:10E7C000521A40446A4305FB016105FB006010F0EA
:10E7D00063FF019BA068A9EB0302A2EB0802384487
:10E7E0006A43002105FB006010F06EFF35E04B4AE4
:10E7F000934209D1012DB7D12A4605A93046FFF72A
:10E800006FFEDDE905B8BCE745488FE7002FCCDD9A
:10E810006368B7EB132F0BDDA168394430466943B9
:10E82000F1F70CFD6368E0606FF31F230646636039
:10E830000298A268039940443A44121A6A4301FBC1
:10E84000056105FB006010F027FF029805FB08F248
:10E85000594600FB056010F01FFFA3681F44A76026
:10E86000304D16E008F0CCF823685345064614D125
:10E870001020F1F7D3FC054694E80F0085E80F005F
:10E88000029A02EB112363F31F216960039B9B1A19
:10E89000AB60284609B0BDE8F08FDDE90231207990
:10E8A000C91AFFF781FEDDE90232E168D21A054696
:10E8B000724306FB0311C06810F0C2FEE9E70023B3
:10E8C0002A4601462068FFF725FD23685345024686
:10E8D00011D16368042E00EB13220ED094F904309A
:10E8E000002BBFF610AF2079E168334600F07F00BF
:10E8F00008F0A0FAB4E7042EF5D12079E16800F021
:10E900007F0008F0E7F80546C3E700BF7C65030811
:10E910000E4A0308F9E600083F4A03088469030821
:10E92000604A030874610308FC4A030870B50E28A6
:10E9300088B006460C46154651D003D8022865D04B
:10E94000002449E01A281FD02228F9D1012205A964
:10E950002846FFF7B6FD00284AD0A10712D1226849
:10E96000364B9A420ED1012202A92046FFF7F4FD50
:10E9700001230093DDE90201DDE9052304F05EFBDC
:10E98000002858D12E4C27E0012202A92046FFF78B
:10E99000E3FD2846012205A9FFF7A2FD00229DF80C
:10E9A0001010402008F02CF8A168069DB5FBF0F58A
:10E9B000064629449DF81000FFF7F6FD0446DDE900
:10E9C0000212C06810F03CFEE068039B059905FB4D
:10E9D00006F2184410F034FE204608B070BD0A68F4
:10E9E000184B9A42ACD029462046FFF701FEF3E7C8
:10E9F000EA0708D4AB07C5D12B68134A934202D06B
:10EA0000124A9342BED10020FEF794FD012202A9D2
:10EA10002046FFF7A1FD012205A92846FFF751FD79
:10EA20000028AFD0069B0093DDE90212059B30461B
:10EA300007F0C6FCA4E7064CCEE700BFC04A0308B7
:10EA4000784B0308FC4A0308145C03083857030892
:10EA5000804B03082DE9F043012885B006460F4698
:10EA600008D08B0724D10B68254A934202D0254A4F
:10EA700093421DD1012201A93846FFF722FDB8B10A
:10EA800000223146402007F0BBFF029CB4FBF0F4AB
:10EA9000074621463046FFF787FD04FB07F205468F
:10EAA0000199C06810F0CCFD284605B0BDE8F083A0
:10EAB0003846FFF77BFCB8B1441021463046FFF7DB
:10EAC00073FD002105463846FDF738FF00278046D4
:10EAD0004046FDF78FFF03460028E5D034B91946BC
:10EAE0002846FFF7BBFDF3E70446E6E73A4607F1A1
:10EAF0000109E968304608F09DF94F46E8E700BF94
:10EB000084690308C04A030838B50D461C461146FF
:10EB10002846094AFEF7D8FE206805F083F8012D43
:10EB2000007804D10021BDE83840FFF73DBD6168A1
:10EB3000BDE83840FFF78EBF04000200F8B50E793B
:10EB4000012E05460C460ED11A49F2F7EEFB33466C
:10EB5000D4E90221284604F097F928461649BDE871
:10EB6000F840F2F7E2BB32461449F2F72BFFA368F4
:10EB7000002BF2D01249134F2846F2F7D6FB00269D
:10EB8000A368B34204D810492846F2F7CEFBE4E765
:10EB90001EB139462846F2F7C8FB3246E1682079B3
:10EBA00007F098FF012201462846FFF7A3F9013636
:10EBB000E6E700BFF04903086FD80308FC490308E3
:10EBC000074A03080B4A0308D740030838B50C4628
:10EBD0002046114606221D46FEF776FE2CB9214638
:10EBE0000120BDE83840FFF7DFBC2968CA070AD416
:10EBF0008B0703D10A680C4B9A4204D00120BDE870
:10EC00003840FFF727BF0846FFF74EFA0546014692
:10EC10000120FFF7C9FC2A4604460021C06810F015
:10EC200053FD204638BD00BF145C030870B5044690
:10EC3000102015460E46F1F7F1FA04714468044AB3
:10EC400002606FF31F24C0E90146C56070BD00BFBC
:10EC5000FC4A03087FB51D46084611464FF00212D4
:10EC6000FEF732FE012201A92868FFF739FC9DF862
:10EC70000C40029E21460022402007F0C1FE019A6E
:10EC8000B6FBF0F12046FFF7D1FF0322044601A9AD
:10EC90002868FFF716FC18B1237963F07F0323710E
:10ECA000204604B070BD000038B5054610200C4663
:10ECB000F1F7B4FA034A02600122C0E90125C460F9
:10ECC00038BD00BFC04A0308136870B56BB944680B
:10ECD000A51C50F825509C4207D055F82360B1423E
:10ECE00004D1023350F82330136070BD0133F2E7D2
:10ECF0002DE9F04788461449DFF85490DFF854A016
:10ED000016460546F2F711FB06F108070024736862
:10ED1000A34205D828460D49BDE8F047F2F705BBE8
:10ED20001CB149462846F2F700FB58F8242051460A
:10ED30002846F2F747FE012257F8041B2846FFF742
:10ED4000D9F80134E3E700BFBD6503086FD80308B5
:10ED50000B4A0308384B03084B6802330A4651F844
:10ED60002310FFF7C5BF0979490041F00101FEF703
:10ED700007BA052805D00979490041F00101FDF7DE
:10ED800003BC00207047000038B50C4620461146F1
:10ED900002221D46FEF798FD1CB12868FFF720FBF4
:10EDA00008B9024838BD0248FCE700BF784B0308A9
:10EDB000804B0308032A0B7905D113B10449F2F7FC
:10EDC000B4BA0449FBE70BB10349F8E70349F6E796
:10EDD000EC2E0308F12E0308F52F0308EF2F03088C
:10EDE000136813B94068FDF7FBBC70472DE9F84F75
:10EDF000994602EB43035D1C042B00AF82468B4611
:10EE000090464FEA85051DD8EB1D23F00703ADEBB7
:10EE1000030D6C46002620462A1FB96A40F804BB41
:10EE200010F00EFC23464A4608F101015046FDF75A
:10EE30003DFC044616B13046F1F70DFA2046BD46BA
:10EE4000BDE8F88F2846F1F7F4F904460028DBD036
:10EE50000646E0E707B5009313460A46D0E90101EC
:10EE6000FFF7C4FF03B05DF804FB000038B50546AA
:10EE70000C200C46F1F7D2F9024A8460C0E9002563
:10EE800038BD00BFC44B03084068704741607047FD
:10EE900010B504460820F1F7C1F9024AC0E9002480
:10EEA00010BD00BF004C03082DE9F04F86685500E7
:10EEB00006EB0109044609EB050005280D4487B05F
:10EEC0008A461746984604F10C0B4FEA850516D87A
:10EED000B6003246594601A810F0B2FB01AB2A46F3
:10EEE0004146981910F0ACFB606801AB3A464946C0
:10EEF000FDF7DCFB0446204607B0BDE8F08F80003C
:10EF0000F1F78CF9A26859469200064610F098FB7A
:10EF1000A0682A46414606EB800010F091FBA168EC
:10EF2000606833463A465144FDF7C0FB044630461C
:10EF3000F1F791F9DFE700002DE9F041CD1CAD00BC
:10EF4000804628460E461746F1F768F9064B86605C
:10EF50000446C0E90038A5F10C0239460C3010F027
:10EF60006FFB2046BDE8F0813C4C0308136810B5E8
:10EF7000144643B940F2DE33994205D190ED010ABF
:10EF800001F04CF9206010BD40F242339942FAD1B1
:10EF900090ED020AF4E7000030B591ED010A87B068
:10EFA000B5EE400A0023F1EE10FA04460D46009338
:10EFB0004FF067024FF007034FF0100102A80AD18B
:10EFC00095ED020AFCF7B0FA154902AA2046F2F7BD
:10EFD000F9FC07B030BDFCF7A7FA02AA1149204698
:10EFE000F2F7F0FCD5ED027AF5EEC07AF1EE10FA08
:10EFF00004DAF4EE677AF1EE10FA03D70A492046F4
:10F00000F2F793F90023009367221021072302A847
:10F0100095ED020AFCF788FA02AA0449D6E700BF78
:10F02000784C03087C4C0308804C0308824C03088E
:10F0300008B50C202DED028BF0EE408AB0EE608A10
:10F04000F1F7ECF8C0ED018A80ED028ABDEC028B8D
:10F05000014A026008BD00BFDC4C030808B5072860
:10F0600005D8DFE800F0052A04040704193600215A
:10F07000084608BDD1ED017AF5EE407AF1EE10FABE
:10F0800035D1D1ED027A1B4B1B49F5EE407AF1EEFA
:10F0900010FA08BF1946EBE7D1ED017A91ED027A3B
:10F0A000FDEEE77ABDEEC77A17EE903A17EE101A2A
:10F0B0004B40590041F00101DAE7D1ED020A91ED30
:10F0C000010AF1EE600AB1EE400ABDE80840FFF720
:10F0D000AFBF91ED020AD1ED017A20EE000AA7EE52
:10F0E000A70A14F05DF9BDE8084001F097B802499D
:10F0F000BEE700BF784B0308804B030830B52DED09
:10F10000028B0C4685B01146204604221D46FEF7B0
:10F11000DBFBF4B1012C2B6822D09A0742D119688D
:10F12000274A91423ED1D3ED018A93ED028A686865
:10F1300083073FD10268224B9A423BD1D0ED027A3D
:10F14000D0ED010A78EEE78A78EE200AB0EE680A80
:10F1500003E0DFED1C0AB0EE600AFFF769FF14E080
:10F1600003F00302022A184604D0AAB91A68164905
:10F170008A420ED103A9184604F06CFD00230093C7
:10F1800001231A460399FCF7B9FC05B0BDEC028BCC
:10F1900030BD0B498A42F8D01846FFF719F8DFED69
:10F1A000090ADAE71846FFF713F89FED068AF0EE32
:10F1B000408ABCE7FFF70CF870EE080AC6E700BF0C
:10F1C000DC4C030800000000606C030843680B601F
:10F1D000836813607047000010B52DED048B82B07A
:10F1E000044601AA08466946B0EE409AB0EE608A2D
:10F1F000FFF706F8A01E1E2800F2CC80DFE800F022
:10F20000B5CACACACACACACACACACACA101F5A28EA
:10F210002BCA67CACACACACA101F5A282BCA670093
:10F22000DDED008ADDED017A79EE288A38EE278A55
:10F23000F0EE480AB0EE680AFFF7FAFEA6E0DDED50
:10F24000008ADDED017A79EE688A38EE678AEFE7A9
:10F250005248FEF741F9DDED017A9DED007AF5EEB9
:10F26000407AF1EE10FAB5EE407A0BD1F1EE10FAD9
:10F2700003D14B494B48FDF75BFFC9EE078A88EE87
:10F28000078AD5E7F1EE10FA06D1B1EE499AC8EE39
:10F29000278A89EE278ACBE767EEA76AF1EE677ABD
:10F2A000E7EE076A87EE266A87EEA67A8DED006A9A
:10F2B0008DED017A9DED007ADDED017A68EE678AC9
:10F2C00027EE088AE7EE098AA7EE898AB0E728EEDA
:10F2D000080AA9EE090A14F063F8B5EE400AF1EE47
:10F2E00010FA1BD1DDED017AF5EE407AF1EE10FA5D
:10F2F00012D1DDED007AF5EEC07AF1EE10FA0BDBFB
:10F30000F5EE407ADFED287AF1EE10FAF7EE008A9A
:10F3100018BFF0EE678A8BE72449ABE711F030FDA8
:10F32000F0EE490AF0EE408AB0EE480A12F062F8B8
:10F33000DDED007A9DED017A27EE809A20EE470AF6
:10F34000A7EE289AA7EEA80A11F050FBB0EE408A6B
:10F35000B0EE490A13F02CFB60EE088AB0EE490AC1
:10F3600013F08AFF20EE088A62E7DDED007AF4EE02
:10F37000497AF1EE10FA0FD1DDED017A0C4B0D4810
:10F38000F4EE487AF1EE10FA08BF184602B0BDEC70
:10F39000048B10BD0020F9E70648F7E7874C030807
:10F3A000AE4C0308B056030800000000C54C03082B
:10F3B000804B0308784B03080B46D3ED020A93ED0C
:10F3C000010A1146FFF708BF2DE9F0411E460F461E
:10F3D000804611463846134AFEF776FA3268124BD9
:10F3E0009A4202D00020FDF7C3FE7068FEF75CFE73
:10F3F000051EF7DB1820F0F711FF0446C0F8008067
:10F400000023681C6060C4E902338000F0F714FF39
:10F41000022F206103D9B068FEF746FE60612046E6
:10F42000BDE8F08106000400246F0308042810B52D
:10F4300003D0052809D0002010BDD1E902420848B8
:10F44000084B944208BF1846F6E7D1E90230C01ACB
:10F4500044BF4B68C018400040F00100ECE700BF1B
:10F46000804B0308784B0308D0E902318B4210B57A
:10F47000024603D108490948FDF75AFE01690024F4
:10F4800051F8230041F82340516801338B4208BFF3
:10F490002346936010BD00BF694E030878520308ED
:10F4A00070B5C5684268466984686B1C9A4208BF9B
:10F4B0000023F60705D5A34203D108490848FDF704
:10F4C00037FE0669A34246F82510C36004D1013314
:10F4D0009A4208BF00238360024870BD7B7F030807
:10F4E0007852030874610308044B0B60037A0B71B4
:10F4F00043688B600023CB6008467047C84E030802
:10F50000044B0B6001230B7100238860CB6008461D
:10F51000704700BFC84E030810B504460C20F0F732
:10F520007DFE034AC0E900240222027210BD00BF22
:10F530000C4F030808B503799B0702D50020FDF79F
:10F54000CBFF08BD10B50446FFF7F4FF201DFEF702
:10F550008DFA014810BD00BF74610308042803D070
:10F56000052809D0002070474B68074833F007038F
:10F57000064B08BF184670474868C0F3DC004000DF
:10F5800040F00100704700BF804B0308784B030830
:10F59000F8B507460D460E68144612B13046FFF71F
:10F5A000C9FF22466968301DFEF772FA08B1436848
:10F5B0008BB9022F07D1022C0BD16968084800F0E3
:10F5C0003BFCF0F70BFEAB68012C00D14360184602
:10F5D000F8BD044BF8E7022C04BF00224260F6E7B6
:10F5E000B4520308746103080122FFF7D1BF02225D
:10F5F000FFF7CEBF0022FFF7CBBF30B50B688568A1
:10F60000AB4201D300220AE0C46804EBC30254F801
:10F6100033400133002CF3D0042CF1D00B601046A2
:10F6200030BD13B5044600F10C018068FFF7E5FF1B
:10F6300060B12379012B0BD0022B0BD00368009310
:10F64000436801936946022005F096FD02B010BDA3
:10F650000068FBE74068F9E7F0B5174B0A7A174FE7
:10F6600085B00D46044653F82210F1F75EFE1449AA
:10F670002046F1F75AFE134B00932B7A8DF8043095
:10F680006B6802930023039301266846FFF7C9FFC6
:10F69000054628B90C492046F1F747FE05B0F0BDF4
:10F6A0001EB939462046F1F740FE01222946204680
:10F6B000FEF720FC0026E8E7484F03080B4A030842
:10F6C000044F0308C84E0308074F03082DE9F3470A
:10F6D0000C681646074620460D46FFF72BFF31689B
:10F6E000314AC9083846FEF7EFF8022F14D168688E
:10F6F00010F003031BD10268D1682C4A914216D145
:10F700002A68904208D0019304F1040801A96868AE
:10F71000FFF773FF074610B9002504343CE00122CF
:10F7200039684046FEF7B4F97B684360EEE7002194
:10F73000FDF704F904F1040A81464846FDF75AF939
:10F740000028E9D00021FDF7F9F88046FDF752F9CD
:10F7500007464046FDF74EF905464046FDF74AF993
:10F760000FB105B110B11248FDF702FD0122394673
:10F770005046FEF78DF94560DFE7B36853F8351062
:10F7800003EBC50739B1042905D001222046FEF755
:10F790007FF97B68436001357368AB42EDD805485B
:10F7A00002B0BDE8F08700BF05000200C1FA000802
:10F7B0008C4E03087461030830B5044685B0FFF72A
:10F7C000B9FE002501A920460195FFF716FF18B9DB
:10F7D00009490A48FDF7ACFC6368083B63600368AD
:10F7E0000293436803930423C0E9003502A9022071
:10F7F00005F0C2FC05B030BD504E0308B4520308FA
:10F800000228F7B50D4614460BD0222857D1002206
:10F810002146281DFEF73CF9002840D12A4803B0B4
:10F82000F0BD02F003038A0725D10A6827498A42FE
:10F8300021D1002BF2D1216891421ED1CDE90033B4
:10F8400069462846FFF7D9FE01A907462046FFF77B
:10F85000D4FE0646002F34D00028DFD03168386847
:10F86000FEF7CAFB0028D9D071687868FEF7C4FBA0
:10F870000028E5D1D2E7002BD0D12268144B9A4260
:10F88000CCD16B686268534033F00703C6D1019353
:10F89000043401A92846FFF7B0FE064608B90D4812
:10F8A000BDE7002231682046FEF7F2F80028B5D007
:10F8B00041687068FEF7A0FB0028EAD1AEE700209F
:10F8C000ADE70028AAD1EAE7784B0308904F030878
:10F8D000544F0308804B030810B40C7A012C06D156
:10F8E000222804D149685DF8044BFFF789BF002046
:10F8F0005DF8044B70470000032A2DE9F74F0B68B1
:10F90000154608BF1546204A18BF012593420446F4
:10F910008946904603D0DA881C49F2F753F81C490F
:10F92000DFF878A0DFF878B02046F1F7FEFC00237E
:10F930000193012701A94846FFF75FFE064670B90B
:10F9400014492046F1F7F1FCD9F80030434503D0C3
:10F9500011492046F1F7E9FC03B0BDE8F08F1FB96B
:10F9600051462046F1F7E1FC2A4631682046FEF771
:10F97000C1FA59462046F1F7D8FC2A46716820465C
:10F98000FEF7B8FA0027D5E7544F0308784E03086E
:10F990007C4E0308794103086FD803080B4A03081B
:10F9A000C78D030810B504460C20F0F737FC034A56
:10F9B000C0E900240022027210BD00BF0C4F0308F2
:10F9C00010B504460C20F0F729FC034AC0E90024D6
:10F9D0000122027210BD00BF0C4F030810B50022B7
:10F9E00004300C46FEF754F828B92146034800F0CD
:10F9F00023FAF0F7F3FB406810BD00BFB4520308D0
:10FA0000024B40F8043BFEF709B800BF544F03080F
:10FA100038B505461020F0F701FC29460446FFF7EB
:10FA2000EFFF204638BD0000F8B50C460546002122
:10FA30006068FCF783FF022D064660688CBFA568EE
:10FA40000B4DFEF7B3FC50B9FFF7E2FF0446071D6C
:10FA50003046FCF7CFFF014618B92046F8BD4010EC
:10FA6000F2E701223846FEF713F84560F0E700BFE1
:10FA70007461030838B505468068FFF7C9FF2B6835
:10FA800003606B684268C3F3DC0363F3DF02426028
:10FA90002A79037962F300036FF3410303712B7931
:10FAA0000279C3F3800363F382020271AA68E968F2
:10FAB0000446D200C0680FF0C3FD204638BD0000E8
:10FAC0002DE9F041804686B000200D4616461F46BF
:10FAD000FFF79EFF0F4BC0F800809845044602BF19
:10FAE000007940F00400207155EA06030DD03B6810
:10FAF000019407EB8502314603A80293FDF79BFFB3
:10FB000003AA01A9681CFFF7E1FD204606B0BDE885
:10FB1000F08100BF904F03084068C008704770B57F
:10FB200004460E461546FFF705FD01223146201D0D
:10FB3000FDF7AEFF4560204670BD13B50222CDE94A
:10FB40000001044669461046FFF722FD204602B038
:10FB500010BD000038B50C461AB9FFF7EEFF0A4891
:10FB60000DE0042A0CD100220430FDF791FF28B9E2
:10FB70002146064800F060F9F0F730FB406838BDD8
:10FB8000FFF7CDFFEBE700BF74610308B452030831
:10FB900013B504464068FCF72DFF58B1A3685A1C02
:10FBA0005B0043F00103CDE90030A260694602200A
:10FBB00005F0E2FA02B010BD30B585B00546084642
:10FBC00011461A4602AB0193094B00930223FDF73D
:10FBD00009FF0C20F0F722FB002104460560029883
:10FBE000FCF7ACFE039B60602046A36005B030BD0F
:10FBF000F04F03082DE9F041174602F07F063A0660
:10FC000004460D461AD4731E012B17D80B68D888EA
:10FC1000F1F7D4F901462046F1F787FB022E11D106
:10FC20001B492046F1F781FBEB680BB15A6882B99A
:10FC300020461849BDE8F041F1F777BB022EEFD01E
:10FC4000002EF1D03A46E9682046BDE8F04105F0C3
:10FC500013BA012AF6D129680F4A91420FD1986848
:10FC6000C3070CD508F04CFF034640B1EA680B49C6
:10FC7000926820465210BDE8F041F1F7A3BEEB6850
:10FC8000204600229968BDE8F041FEF733B900BF75
:10FC9000C78D030843A103081C5403084C500308F4
:10FCA0002DE9F84388460446114640461A4A1B4E41
:10FCB0009946FDF709FE1020F0F7BBFA002814BFA3
:10FCC0000746374600233C60BB60B8F1000F04D103
:10FCD000134CFC603846BDE8F88308F10205AD001E
:10FCE0002846F0F7A6FA044650B9D6F8D02105F117
:10FCF00018039A42A6F11806EAD3B46A1834E7D07A
:10FD0000084BA5F10802C4E90038494604F108008F
:10FD10000FF096FCDDE700BFFEFF01005804002055
:10FD2000246F0308306F0308F8B51546D0E9013297
:10FD30000F465119994204460FD30178D9B105F104
:10FD400010061E4401223146C068F0F782FA78B9E5
:10FD50006568A3682070013DED1AD4E902302A4697
:10FD6000184439460FF06CFCA3681D44A560F8BD2B
:10FD70006660E060F1E75D1EAD1AEEE7024B00221F
:10FD8000C3F8E8219A6270474004002010B5FEF7DE
:10FD90008BF9041E11DDF0F741FA094B9A6AEFF373
:10FDA000108172B6C3F8E841986281F3108812B1ED
:10FDB0001046F0F750FA034810BD0020EDE700BFF1
:10FDC0004004002074610308C3685A680AB1986847
:10FDD00070470148704700BF7461030810B51446AE
:10FDE00012684AB1CF2906D161680B4A914202D10B
:10FDF0000022C280226010BD3D2902D1C368236069
:10FE0000F9E70268054B9A42F5D1A229F3D1FFF731
:10FE1000DBFF2060EFE700BF746103080C550308A7
:10FE200010B4C4681346A44600225DF8044B604732
:10FE300000221146FFF7F4BF07B5019101AA012185
:10FE4000FFF7EEFF03B05DF804FB000073B5064654
:10FE500010200D46F0F7EDF9044678B9104BD3F8B1
:10FE6000E821332A02D99C6A243407D100231A4698
:10FE700019463046FFF714FF02B070BD094B2360EE
:10FE800028460FF069FC0146C4E902052846F0F750
:10FE9000AFFF0194606001AB00220121E9E700BFE0
:10FEA00040040020606C03080EB4F0B588B007462B
:10FEB00010200D9EF0F7BDF9044630460FF04CFCC3
:10FEC000451C2846F0F7B5F904B148BB224AD2F8E0
:10FED000E831432B81BF906A00F12404A3F134057B
:10FEE00034308CBF0123002354B9234622462146D7
:10FEF0003846FFF7D5FE08B0BDE8F04003B07047C4
:10FF000078B9013DC4E90256144B2360D4E90210CC
:10FF1000F0F76EFF04AB6060002204940121E7E774
:10FF2000002383F001038DF81030059504AB002504
:10FF30000EAACDE9065002933146094B039302A85D
:10FF40000192F1F717FCDDE90632D554069BA36058
:10FF5000079BE360D8E700BF40040020606C030803
:10FF600029FD0008830707D10268064B9A4203D196
:10FF7000C268054B9A4202D0044906F071B80120CC
:10FF8000704700BF8C710308A1FC000810510308E2
:10FF900008B5FDF797FFBDE80840FFF7E3BF38B5A8
:10FFA00004460D46FFF7F4FF18B12046FDF78AFF1F
:10FFB000044629462046BDE8384006F051B8000006
:10FFC00010B50446FDF77EFF034BC2689A4218BF86
:10FFD00024690023A36010BDA1FC0008F8B5044605
:10FFE00016461D460F46FDF76DFF1C4BC2689A4230
:10FFF00018BF2469A068E0B90C20F0F71AF9A060D6
:020000040801F1
:10000000A8B9174BD3F8E821172A0FD99B6AA36028
:100010000623A3800023E380E388A168D81C01EBBA
:100020008302E08041F82370C2E90165F8BD032333
:10003000EFE7E388A18802338B42EDDB084B9B6A34
:100040009842F3D0033101228900F0F702F9002829
:10005000ECD0A388A0600333A380DDE7A1FC0008F7
:100060004004002070B5044615460E46FDF72AFFF1
:10007000064BC2689A4218BF2469A36813B933605B
:100080002B6070BDE2883260FAE700BFA1FC000877
:1000900073B50B4E0446A068FCF7ACFC019068B148
:1000A0006568B54205D001AB002201212846FCF766
:1000B000FDFAFEF795F90028EDD0019802B070BD69
:1000C0007461030870B50646084611464FF00412E5
:1000D0001D46FDF7F9FB0C20F0F7A0F806602B6831
:1000E0004360044600216868FCF728FCA0602046B5
:1000F00070BD000030B587B00D4600230446009364
:1001000067220723102195ED010A02A8FBF70CFADC
:1001100002A92046F1F709F92E2102A80FF070FB81
:1001200068B9652102A80FF06BFB40B96E2102A8E7
:100130000FF066FB18B903492046F1F7F6F807B04F
:1001400030BD00BF04D6030838B5D1ED000A90EDEC
:10015000000A2DED028B05460C4611F001FF95EDCE
:10016000007AD4ED007A77EE406AB5EE400AF1EEFF
:1001700010FAB0EE408AC6EEA78A21D117EE903A67
:100180009FED248ADFED246A002BB8BFB0EE668AAB
:10019000F5EE408AF1EE10FA29D1C7EE277A9FEDED
:1001A0001D0A17EE903ADFED1C7A002BB8BFB0EEB7
:1001B000670A85ED000A84ED008ABDEC028B38BD2C
:1001C000B5EEC00AF1EE10FAF5EEC07A4CBF01228E
:1001D0000022F1EE10FA4CBF012300239A421EBF09
:1001E000F7EE006A30EE278A78EEE68AD0E7B0EEC6
:1001F000680A10F00BFF78EEC08AF6EE007AF4EE93
:10020000E78AF1EE10FAC4BFF7EE007A30EE270A63
:10021000CFE700BF000000000000008008B5082004
:100220002DED028BB0EE408AEFF7F8FF80ED018AEA
:10023000BDEC028B014A026008BD00BF38570308BD
:1002400030B50D4687B01146284602221C46FDF700
:100250003BFB25B99FED0E0AFFF7E0FF0CE0012202
:1002600003A92068FEF72DF940B1002300931A4638
:10027000DDE90301FBF742FC07B030BD20688307CE
:1002800003D10268034B9A42F6D0FDF7A1FFE3E7E2
:10029000000000003857030891ED010A072805D82F
:1002A000DFE800F0051C04040704101800210846CC
:1002B0007047B5EE400A0B4B0B49F1EE10FA08BF40
:1002C0001946F4E7FDEEC07A17EE901A490041F0A6
:1002D0000101ECE710EE103A002BE8DAB1EE400A2B
:1002E000FFF79CBF784B0308804B030890ED010A91
:1002F0007047000030B52DED028B0C4687B00546E7
:1003000003A920468DED010AFDF72AFF002800F021
:10031000C080212D00F22481DFE815F0E100EE001D
:10032000FB00080115012201220122012201220104
:10033000220122012201220122002F0036003D006D
:100340004D005B008E0022012201220122012201C8
:1003500022002F0036003D004D005B008E00C600DD
:10036000DDED017A9DED037A77EE877ACDED017AA6
:100370009DED010AFFF752FF8BE0DDED017A9DED67
:10038000037A77EEC77AF1E7DDED017A9DED037A26
:1003900067EE877AEAE7DDED037AF5EE407AF1EE73
:1003A00010FA03D16F497048FCF7C2FE03A901A8F7
:1003B000FFF7CAFEDCE7DDED037AF5EE407AF1EEF9
:1003C00010FAEFD0DDED016A86EEA77A8DED017AA5
:1003D000CEE7DDED030AF5EE400AF1EE10FAE1D0CA
:1003E0009DED010A11F0BCFDB5EE400AF1EE10FAE8
:1003F0008DED010A09D1039BDFED5C7A9FED5C7AFC
:10040000002BB8BFF0EE477AB0E7DDED037AB5EE2A
:10041000C00AF1EE10FAF5EEC07A4CBF01220022BC
:10042000F1EE10FA4CBF012300239A42A0D030EE27
:10043000270A8DED010A9BE7DDED018A9DED038A18
:10044000F5EE408AF1EE10FA0DD1B5EEC08AF1EE6C
:1004500010FA08D59FED477AF0EEC87AF4EE477AA5
:10046000F1EE10FA9EDDF5EEC08AF1EE10FA14D529
:10047000B0EE480A10F0CAFDB4EE480AF1EE10FAE8
:100480000BD02146DFED390AB0EE680A2020FEF7D6
:10049000A3FE07B0BDEC028B30BDF0EE480AB0EE13
:1004A000680A0FF0EDFFC4E7DDED037AF5EE407A60
:1004B000F1EE10FA3FF476AF03A901A8FFF744FE6E
:1004C0009DED010AFFF7AAFE9DED030A0490FFF7D8
:1004D000A5FE04A90590022004F04EFED9E79DED8B
:1004E000017ADDED037A244B2448B4EEE77AF1EE8D
:1004F00010FA58BF1846CCE79DED017ADDED037A7E
:100500001D4B1E48B4EEE77AF1EE10FAD8BF18463C
:10051000BFE79DED017ADDED037A184B1648B4EE86
:10052000677AF1EE10FA08BF1846B2E79DED017A3E
:10053000DDED037A104B1148B4EEE77AF1EE10FAD4
:1005400088BF1846A5E79DED017ADDED037A0A4BD9
:100550000A48B4EEE77AF1EE10FAB8BF184698E709
:10056000002096E7B64C0308B056030800000000D0
:1005700000000080FFFF7F7F784B0308804B03085B
:1005800091ED010A910710B403460AD11468084995
:100590008C4206D11146DFED070A5DF8044BFEF7E9
:1005A0001BBE114618465DF8044BFFF7A3BE00BF03
:1005B000DC4C03080000000010B504460846114654
:1005C0000022FDF781F96368BDE81040184770B557
:1005D00005461C46084611464FF00212FDF774F915
:1005E0006A682068BDE87040104770B505461C4633
:1005F000084611464FF00412FDF766F96B68D4E91E
:100600000001BDE87040184770B51C460546084615
:1006100011464FF00612FDF757F96B682068D4E9D0
:100620000112BDE8704018472DE9F04105460E461D
:1006300017469846FDF73AF9AC6844F00104434682
:100640003A4631462846A446BDE8F0416047F0B539
:1006500005460C46174685B04268394620461E4678
:10066000FDF732F96B68DB070CD506EB84023946DF
:1006700001A8FDF7E0F9AB6801AA3146204698478A
:1006800005B0F0BDAB68314620469847F8E700005A
:100690001FB510F00103044602D0401004B010BD95
:1006A000224A90423BD0224A904238D0214B984275
:1006B00037D010F0030336D103681F4A934202D1AA
:1006C00000F056FEEAE71D4A934204D101A92046F4
:1006D00003F0C0FAE2E72046FDF7F4FB184B98421E
:1006E00007D12046FFF702FEFDEEC07A17EE900A12
:1006F000D4E7144B984202D0134B984206D101AA7A
:1007000069462046FDF7CAFD0198C7E7022201A904
:100710002046FDF7D6FE0028F6D12046BEE7184653
:10072000BCE70120BAE7022BCFE700BF74610308E2
:10073000784B0308804B0308145C0308606C0308C3
:1007400038570308306F0308AC5D03082DE9F84300
:100750001D46436807460E4611465A0042EA434288
:100760003046FDF7B1F8BC6844F001042EB9A0474B
:10077000F968BDE8F843FCF7B9BF012E286803D13A
:10078000FFF786FFA047F3E7022E09D1FFF780FFAE
:1007900006466868FFF77CFF01463046A047E7E75A
:1007A000032E0ED1FFF774FF06466868FFF770FF4F
:1007B0008046A868FFF76CFF414602463046A047D6
:1007C000D6E7FFF765FF06466868FFF761FF8046DA
:1007D000A868FFF75DFF8146E868FFF759FF4A46C2
:1007E000034641463046A047C2E700002DE9F84FD6
:1007F000804600AF894692469B46FDF757F8D8F8E9
:10080000080009F0ADFA0546D8F8080009F0B0FA7A
:1008100009F0A6FA00EB40000544AD002C2D05F1CF
:10082000140635D8073626F00706ADEB060D6C46E4
:10083000002549460026DFF87490C4F800805B4626
:1008400052462046666009F099FAD9F80030D8F887
:1008500004205B68DB682361D9F800305B683146AF
:10086000DA60204608F0AAFAD9F8003022695B68FD
:100870008046DA6098B9A3681E682DB12046EFF76C
:10088000EAFCB8F1000F0DD13046BD46BDE8F88F47
:100890003046EFF7CEFC04460028CAD1C2E76669AD
:1008A000002DEBD13046EFF799FC00BFEC0600209D
:1008B00008B509F05DFA008808BD000008B5094ACE
:1008C000036893420CD0084A934209D0806809F02B
:1008D0004FFA09F04DFABDE808400430FFF7E8BFD1
:1008E000012008BD30590308185B0308136810B5D0
:1008F00014463BB9172905D1FFF7E0FF800040F00F
:100900000200206010BD000070B5054608460C4688
:10091000FFF7D4FF2346024602492846BDE870404F
:10092000F1F750B8745703082DE9F8430F46914684
:1009300098460646F8B14568FFB1681C043080004F
:10094000EFF76CFC0E4B03600E4B1B685B68DB68BB
:10095000C0F80C800446C0E901392EB1AA0006F1A6
:10096000080110300EF06CFE17B1043544F8257004
:100970002046BDE8F8830546DEE72846DEE700BFEF
:10098000C8570308EC06002008B5FFF7CDFF014B60
:10099000036008BD3059030870B5064610201446A0
:1009A0000D46EFF73BFC034AC0E90254C0E90026BC
:1009B00070BD00BF8C5703082DE9F04105468068E3
:1009C00098460E46174609F0CBF90446A86809F088
:1009D000CFF909F0C5F9073400EB4000204480004E
:1009E000EFF71CFC084B03606B68C0E9013500237E
:1009F000C360044643463A463146083009F0BEF922
:100A00002046BDE8F08100BFA05A03082DE9F84355
:100A1000054680680668304499460F46904609F0BE
:100A20009FF907308000EFF7F9FB0C4B03606B6810
:100A3000C6600446C0E9013542464B463946083097
:100A400009F09CF900236361AB685A68134443F0D2
:100A50000103E3602046BDE8F88300BFA05A030805
:100A600008B503691830834202D10348FCF734FD0E
:100A70001868196008BD00BFC459030870B5054661
:100A800088680C46FFF71AFF2346024602492846AB
:100A9000BDE87040F0F796BFF859030808B5024862
:100AA000FFF7C6F9EFF79AFB0C5503082DE9F84359
:100AB00004460F4691461E46FCF7F8FEE5681DB950
:100AC00035602846BDE8F8832369DFF8CC8004F15F
:100AD0001802934204D1474509D02948FCF7FCFC91
:100AE0001A6842451DBF0021196091461F60626867
:100AF00012B92448FCF73CFB234F39684968C968A0
:100B0000A16139684968CA6000226260626904F1C3
:100B10000800CAB9A3689B68083343F0010349463B
:100B20009847C5B23B68A2695B68DB6863603B6855
:100B30005B68012DDA600CD00023022DE3600FD03A
:100B400023691B683360BCE7494608F037F905465E
:100B5000E8E723691B6833602369C3F80080B0E7C6
:100B6000E0693060FDF7AEF9084905F079FA002830
:100B7000A7D007490748FFF769F93060A1E700BF30
:100B80002C5A0308625A0308EC0600200C5503088F
:100B90007E5A0308945403087461030807B501AB37
:100BA000FFF784FF01280DD00228019808D0084BD8
:100BB00098420BD038B101AA01210648FFF730F95D
:100BC000EFF70CFB019803B05DF804FB0020FAE797
:100BD000746103080C55030808B50B4602280CBFC6
:100BE0004A688A6818680349FFF7D8FF08B9FFF711
:100BF00055FF08BD7461030808B50022FFF7CEFF5A
:100C000008B9FFF74BFF08BD00220149FFF7C6BF37
:100C10007461030807B50E4A0E4901ABFFF746FFA2
:100C2000012805D0022807D00A4803B05DF804FB6C
:100C300009490A48FCF77CFA0198FDF743F908498D
:100C400005F00EFA0028EFD10198EFF7C7FA00BFC0
:100C50003C500308746103086C590308945403085A
:100C6000C451030830B58DB005466846EFF7A4FAC5
:100C7000014680B92A1D0120FBF747FDEB6823F0F0
:100C80000103023343F00103EB600446EFF78AFAF5
:100C900020460DB030BD0198054A0368934204D048
:100CA000044A934201D0EFF799FA0024F0E700BF1D
:100CB0000C55030878520308044B0B6003684B6023
:100CC00043688B600123CB6008467047545B030880
:100CD0002DE9FF4148680E46FDF7E6F9041E02DAE9
:100CE0000020FCF745FAD6F808802146B8F5DB77F6
:100CF000684618BF0127F0F726FA029D2246002118
:100D000028460EF0E1FC3068C3070BD42B46224680
:100D1000394600F014FA69460A4802F065FA04B050
:100D2000BDE8F081042C4FEA6003204628BF042070
:100D3000B8F5DB7F14BF221A00222A44394605F099
:100D4000A7FFE8E784690308F0B50C4685B0606842
:100D5000154F012201A9FDF7C3FBA5680299019A6D
:100D6000B5F5DB7F03BF01F1FF339B184FF0FF3672
:100D7000134618BF01260C46002014B900F0D6FA1D
:100D800009E0B84204F1FF3407D9B5F5DB7018BFAC
:100D9000012000F0C5F905B0F0BD93F800C0334460
:100DA0004CEA0020E9E700BFFFFF3F0010B5F0EE7E
:100DB000C07AF4EE677AF1EE10FA2DED028BB0EE08
:100DC000408A0CD69FED197AF4EE477AF1EE10FACC
:100DD00008DD17491748FFF739F8EFF7FFF916480C
:100DE000FCF7C6F910EE103A002B12DA33F000428D
:100DF00004D003F1FF43B3F19C4F0DD8FDEEC87A48
:100E000017EE900A400040F00104BDEC028B204632
:100E100010BDDB0DDB05EEE700F04CF9B0EE480A43
:100E200004460430F1F734F8EFE700BFFFFF7F7F9F
:100E3000E05B030858540308F95B030873B50D46DB
:100E40002846114604221C46FCF73EFD7DB3012DC9
:100E50001FD12068C3071AD410F0030329D10368F7
:100E6000174A934213D09969164A914208D101A9B1
:100E700002F0F0FE002301991A46FAF7C1FD06E0E0
:100E8000114A934217D1FFF731FAFFF78FFF02B0F3
:100E900070BD01A9206802F0DDFE05466068019E74
:100EA000FDF702F90023024631462846E5E7012016
:100EB000EDE7022BDBD001460820FBF765FBE6E7F8
:100EC000145C03088D3C01083857030838B50A4CF8
:100ED000214411F8014CB0FBF4F45BB1631C032511
:100EE000B3FBF5F510460AB10EF036FC03342C4482
:100EF000204438BD1D46F5E7D05B03082DE9F74FC8
:100F000013F0010F82468B460092DDE90C769DF8C6
:100F100038409DF83C9040D05D1045D44FF000081B
:100F20004B46324639462020FFF7D0FFDBF8003031
:100F30008342024607D20190EFF770F9019ACAF88E
:100F40000000CBF80020DAF800B00BEB0203002120
:100F500003F8011C65B3013B1846A4F10A0EAC4628
:100F6000B5FBF7F507FB15C109298CBF714430317A
:100F7000441E00F8011CB9F1000F30D0BC451BD352
:100F8000A34519D2191B032905D1841EA34500F8D6
:100F9000029C11D223462046E1E7CDE90E4903B079
:100FA000BDE8F04F00F094B86D424FF02D08B7E760
:100FB00030219C1E03F8021CCEB1304601920EF087
:100FC000CBFB201A8345019A11D2013E014616F847
:100FD000013F4BB90446B8F1000F0DD10FE0A34516
:100FE000EAD2BC45D7D2E7E701F8013BEFE7B8F119
:100FF000000F04D05C4502D904F8018C013CDAF8FA
:1010000000301A44121B009B013A20461A6003B0BC
:10101000BDE8F08F30B58DB0102306930023CDE9E5
:10102000023301930A23054608AC009307AA0B4636
:1010300005A806A90594FFF761FF01462846F0F7C9
:1010400074F90598A04201D0EFF705F90DB030BD55
:101050001346134A934230B40C4603D1012230BCEC
:10106000FCF78EB80F4A934201D10322F7E71C2800
:1010700013D103F00302022A0BD072B91A680A498D
:101080009069884205D009498A4202D008498A42BB
:1010900003D1224619461C20E1E7002030BC7047EE
:1010A000784B0308804B03088D3C0108306F030820
:1010B000AC5D030810B51020EFF7B0F8034B044601
:1010C00040F8043BF0F777FE204610BD145C03089F
:1010D0002DE9F74304469DF8346098680F46914621
:1010E0001D46DDE90A1233460001FFF7EFFE3B68BB
:1010F0008342804604D2EFF791F82060C7F8008061
:1011000024689DF83030CDE90064DDE90A12281D1D
:10111000F1F798FDC9F80000204603B0BDE8F08360
:10112000F8B50E4617460546FFF7C4FF3B46044692
:10113000324629460430F0F753FF2046F8BD70B51B
:1011400004460D461846002116460EF0BDFA3246FA
:1011500003462946201DBDE87040F1F718BD03463F
:1011600010F0010006D05B10002B0DDB14BF012036
:10117000002070479A684AB11B7913F0010F14BF21
:101180004FF0FF30012070474FF0FF3070470000F4
:1011900038B50C46072805D8DFE800F005151E0411
:1011A00007040E260024204638BD8968144C1548D3
:1011B000002908BF0446F6E7081DF1F7BCFC400013
:1011C00040F00104EFE7FFF775FF211D05460430ED
:1011D000F0F765FF2C46E6E7FFF76CFF211D05469B
:1011E0000430F0F76BFFF5E70B79DB07DBD5FFF792
:1011F00061FF211D05460430F0F746FFEAE700BF16
:10120000804B0308784B0308D3B50F460646FFF71B
:1012100051FF01230446009332463B460430F0F769
:101220000AFE204602B0D0BD430093EA000F02D56B
:10123000C117FFF7E9BF43F001007047D3B50F4670
:101240000646FFF737FF00230446009332463B462D
:101250000430F0F7F0FD204602B0D0BD2DE9F04F8C
:1012600010F001088BB006460D46144605D18107E3
:1012700015D102682B4B9A4211D115F0010705D107
:10128000AA070CD12A68274B9A4208D114F0010B07
:1012900008D1A30703D12268224B9A4202D02248E8
:1012A000FCF71AF900200021FFF7C8FF0DF104092F
:1012B0008246B8F1000F2FD071104846F0F7A3FD19
:1012C0004E460DF110084FB369104046F0F79BFDF4
:1012D000454607AFBBF1000F22D061103846F0F74A
:1012E00092FD3C4623462A4631460AF10400F1F7B6
:1012F000CBFB4E4502D13046F0F762FD454502D1A9
:101300002846F0F75DFDBC4202D12046F0F758FDBB
:1013100050460BB0BDE8F08F0436D2E70435D8E76D
:101320000434DFE7145C0308915C030810F0404FBD
:1013300002D00021FFF782BF400040F0010070475B
:101340002DE9F34104460E4617469846FFF7B2FED4
:101350003B460546CDF80080324621680430F0F760
:10136000F3FD236818442060284602B0BDE8F081F0
:10137000C30702D40430F1F7DEBB40107047000011
:10138000C30707B503D5401003B05DF804FB01A9FE
:101390000430F1F7E3FB08B10198F5E70149024891
:1013A000FBF7C6FE645C0308585403082DE9F043BC
:1013B0002DED028B8046C80789B00C46164625D510
:1013C0004B10022201A902A8F0F724FD02AFF10799
:1013D0001ED57310022201A902A8F0F71BFD02AD71
:1013E000B8F11E0F02D0B8F1120F3DD16B68002B7F
:1013F00069D03846F1F706FC2846B0EE408AF1F78E
:1014000001FC88EE000AFEF709FF20E00F1DDEE771
:10141000B20723D13368754A934201D1351DDFE706
:10142000734A934207D13846F1F7ECFB3146404608
:10143000FEF760FF0BE06F4A93420FD13846F1F799
:10144000E1FB3146DFED6C0A4046FDF7C5FE044680
:10145000204609B0BDEC028BBDE8F0833246214640
:101460004046FFF7F5FDF2E7A8F109095FFA89F3B5
:10147000182B00F28C80FFF71DFE0446B9F1170F00
:1014800072D8DFE809F042483C4E4E0C12181E712B
:10149000316542483C4E4E0C12181E7131652A4689
:1014A00039460430F0F7F6FED2E72A4639460430D2
:1014B000F0F728FFCCE72A4639460430F1F7EBF87D
:1014C000C6E76B681BB94D494D48FBF731FE05A8CF
:1014D000F0F771FC2B463A4605A9201DF1F791F96A
:1014E00005A8F0F76DFCB3E76B68002BEBD005A8FF
:1014F000F0F761FC2B463A46211D05A8EEE72A4687
:1015000039460430F0F73EFFA2E72A463946043058
:10151000F0F7D2FF9CE72A4639460430F1F750F83D
:1015200096E73046FFF72CFF021E02DA3548FBF73C
:101530001FFEB8F1180F04F10400394602D0B8F1CB
:101540000C0F02D1F0F7F3FD82E7F0F74DFE7FE7D5
:101550006B681BB12B78DB073FF565AF2A46394630
:10156000201DF1F70FF973E76B68002BABD0FFF785
:10157000A1FD211D06462B463A460430F1F741F9FC
:1015800005A90220CDE9056403F0F6FD5FE72946D1
:101590003846F0F759FDB8F1040F24D8DFE808F019
:1015A000030A1D101600184B184C14EA200438BF0B
:1015B0001C464DE7144B154C0028D8BF1C4647E786
:1015C000114B124C0028C8BF1C4641E70E4B0F4C74
:1015D00034EA200428BF1C463AE70B4B0B4C00288A
:1015E00018BF1C4634E7002432E700BF145C030830
:1015F00038570308DC4C030800000000B64C030811
:10160000B05603084A430308784B0308804B03088D
:101610000430F1F7F7BA0000042803D0052808D0F9
:10162000002070478A68054B0548002A08BF184605
:1016300070478868400040F001007047784B03080D
:10164000804B0308044B0B60044BC1E901300023BD
:10165000CB600846704700BF9C60030895160108E0
:1016600070B5836803EBD37149109B00002291424F
:10167000A3F1040301DC064870BDC468E65854F8C1
:10168000225044F82260C4680132E550EFE700BF01
:1016900074610308D0E902130246886883423FBFA1
:1016A000C96851F823000133D36028BF0020704778
:1016B00038B50D46D0E901138B42044613D3C90057
:1016C000C068EEF7BBFD6268A368E060520062602C
:1016D000D21A02F18042013A01339200002100EB5C
:1016E00083000DF0F1FFD4E90232591CA1600248D9
:1016F00042F8235038BD00BF74610308836870B599
:101700004C1048BFE418054648BF24EAE4749C42E4
:101710000A4928BF1C461646FFF7CAFFAB68E968AE
:10172000013B9C4203DB41F82460044870BD01EB9F
:10173000830252F8042C41F82320F0E77461030877
:1017400038B50025044685601021C068EEF776FDA7
:101750000423E0606360102229460DF0B5FF0148C4
:1017600038BD00BF746103082DE9F84F81460E466D
:1017700017469A46FCF79AF8B14501D3BDE8F88FB1
:10178000A9F10408D6F800B027B159463846FAF74F
:10179000B2FF8346354608F10404A54207D9216803
:1017A000B7B95A460020FBF7EBFC82450ED0043D4A
:1017B000AC4222D28FB92A6859460020FBF7E0FCE0
:1017C0008245F4D023682A6822602B60A046E2E7B5
:1017D0003846FAF790FF0146E3E729683846FAF7FA
:1017E0008AFF0246E8E7294653463A464846FFF74D
:1017F000BBFF35462E46C146BEE7326823682260ED
:10180000341BA4103360013CA5EB0903B4EBA30F18
:1018100008F10808E7DC404653463A463146FFF7F0
:10182000A3FFC846E6E7000030B585B002AB0C4622
:101830000193114B0093043102230138FCF772F835
:1018400023689968012913D9D8680C4C9DF80C506D
:101850000B4B029A01F18041002D08BF2346094C31
:101860000139A24208BF002200EB8101FFF77CFF93
:10187000044805B030BD00BFBC5C0308804B0308C2
:10188000784B03087461030810B40C680B460246D9
:10189000D4E902105DF8044B04F016BE70B50C6874
:1018A0000B46A168024619B918491948FBF740FCD4
:1018B000012A18BF5A68206808BF4FF0FF32002382
:1018C000FCF728FDA268E3688600013A53F820502F
:1018D000A260311D121A1944920098190DF0DCFE15
:1018E000D4E90232002142F82310616804290BD99F
:1018F000B1EB430F08D949088900E068EEF79EFC78
:101900006368E0605B086360284670BD705D030833
:101910007852030807B5CDE9000169460220FFF7B8
:10192000B3FF694601900220FFF7B8FF014803B0FA
:101930005DF804FB7461030838B5044608460021CD
:10194000FAF7FCFF05462846FBF754F80146204607
:1019500001B938BDFFF7ACFEF5E70A46D0E9021041
:1019600004F0E6BD2DE9F041032A0F461049DFF8E7
:101970004880154606460CBF15460125EFF7D5FCF5
:101980000024BB68A34205D830460A49BDE8F041AF
:10199000EFF7CBBC1CB141463046EFF7C6FCFB6805
:1019A0002A4653F824103046FCF7A4FA0134E8E73D
:1019B000094A0308D74003080B4A030870B511F021
:1019C000030604460D4629D10A68174B9A4225D1D1
:1019D000AB68816819444368994210D90431890081
:1019E000C068EEF72BFCAA68A368E06013441A1DD8
:1019F00062603146102200EB83000DF065FED4E9F1
:101A00000203AA68E968920003EB80000DF018FE5B
:101A1000A368AA681344A360044870BD2946204601
:101A2000FFF78AFFF8E700BFAC5D030874610308A5
:101A300038B504290B4B03600446084638BF042020
:101A4000C4E9010180000D46EEF7E8FB6268E06042
:101A5000521B00EB850092000021BDE838400DF0DC
:101A600033BE00BFAC5D030838B505461020EEF765
:101A7000D5FB29460446FFF7DBFF204638BD0000B2
:101A80000E287FB503460E46154641D003D80428DC
:101A900044D9002439E01A281BD01C28F9D103A905
:101AA0001046FCF733FB0028F3D0039B002BBCBF90
:101AB000002303930398B3685843FFF7D5FFC36827
:101AC00000930446039BB268F068042104F0D5FB40
:101AD0001BE012F00304DCD112681B4B9A4214D1B4
:101AE000AB6888681844FFF7BFFFB268F168044626
:101AF0009200C0680DF0A4FDB068E368AA68E968C8
:101B0000920003EB80000DF09BFD204604B070BDF9
:101B100011463046FFF752FF3446F6E7AA0703D1D5
:101B20002968094A914203D0022BB2D1074CECE755
:101B3000AB680093D6E90221EB6804F077FC00283B
:101B4000F4D0034CE1E700BFAC5D0308784B030819
:101B5000804B030838B50C462046114602221D462C
:101B6000FBF7B2FE24B92046BDE83840FFF77CBF42
:101B70000020FFF779FF2968BDE83840FFF7DCBE99
:101B800038B50C460546FFF76FFF4CB938BDC26843
:101B900054F8231042F823100133AB42F7D1F5E794
:101BA0000023FAE7D0E90201FFF7EABF83680B6080
:101BB000C368136070478160704738B504461546A6
:101BC00000230A4681680068FCF7A4FBE36843F839
:101BD000205038BDF0B5044689B00D4601F003062B
:101BE000104682BB46BB0A68624B9A4224D102AAC5
:101BF000A06804F057FB10B90020FBF79BFCDDE95F
