:020000040800F2
:10000000F8FF0020457C02085B0302084903020850
:100010005D0302086D0302087D0302080000000072
:100020000000000000000000000000008D03020836
:100030008F03020800000000C51302082114020803
:10004000337B02087D040208890402089104020837
:10005000D56D0208337B0208110402081704020858
:100060001D0402082304020829040208F1350208CD
:10007000013602081136020821360208313602081C
:100080004136020851360208337B020800000000A6
:100090000000000000000000000000002F04020823
:1000A000A5040208AB040208BD040208C304020848
:1000B000C9040208CF040208D5040208337B0208F1
:1000C000337B0208337B0208337B0208337B020850
:1000D000337B0208F5040208FB040208000000005C
:1000E00053040208830402089D0302080000000074
:1000F000000000000000000000000000613602085F
:1001000000000000337B0208DD040208337B020894
:1001100000000000000000000000000000000000DF
:10012000713602088136020891360208A1360208AB
:10013000B1360208000000000000000000000000CE
:100140000000000000000000000000009103020811
:10015000C1360208D1360208E1360208010502085C
:10016000337B0208337B020800000000000000001F
:10017000000000000000000000000000000000007F
:1001800000000000337B02080000000000000000B7
:04019000337B0208B3
:10019400034B1B685B681A69026018610020704792
:1001A40008320020034B1B685B681A6912681A61E5
:1001B400704700BF08320020C46005614661876152
:1001C400C0F81C80C0F82090C0F824A0C0F828B063
:1001D400C0F82CD080ED0C8B80ED0E9B80ED10AB25
:1001E400C0F808E0FFF7D4BF08B5114B1B68596885
:1001F4000B690BB91FF048FE1A6858600A6118466B
:10020400C468056946698769D0F81C80D0F82090D5
:10021400D0F824A0D0F828B0D0F82CD090ED0C8BD6
:1002240090ED0E9B90ED10ABD0F808E001207047E4
:100234000832002010B50021044600F0B9FA18B9BC
:1002440014B1204608F0A8FD10BD002100F0B0BA9A
:1002540010B50121044600F0ABFA18B914B12046D8
:1002640008F09AFD10BDFFF7E5BF10B501220C465A
:1002740000F0B2FB18B914B1204608F08DFD10BD92
:1002840000F0AABB00F06ABB2DE9F0432A4C00251C
:100294000326D4F8EC710021013143189A0803F0C5
:1002A4000303BA5C5B0042FA03F303F00303022B7B
:1002B400F2D0D4F8F83109018A0803EB001089B3AD
:1002C40000EB820103681A0729D1D4F8F8219A4275
:1002D40025D89A1AC2F301174FEA470ED4F8FC71D5
:1002E4009F424FEA921C4FEA121218D9D4F8EC81BB
:1002F40018F80C9049FA0EF707F00307012F0ED1F6
:1003040006FA0EF304EB450E3F2D43EA090308F801
:100314000C309ABF0135AEF80422C4F800720430E0
:100324008842CFD12DB1013D04EB4503B3F804025B
:10033400AFE7BDE8F08300BF6C2B0020F0B4194E8A
:10034400D6E97D43C01AC109C0F30215635C0122DA
:10035400AA4023EA02036354D6F8902283090409CD
:10036400B2EB901FD6F8EC0188BFC6F89032C15C9E
:10037400A50804F0030303275B0007FA03F321EA4B
:10038400030343550134D6F8EC01A50804F0030334
:10039400415D5A0041FA02F202F00302022AEBD054
:1003A400F0BC70476C2B002021F00F0370B5144A89
:1003B400144D1C1AE400A2FB0424640A0219A3EBE2
:1003C4008416C5F8F42100212246C5E97E63C5E9F7
:1003D4007B041BF05DF9A2000732D2080021D5F896
:1003E400F4011BF055F900234FF480314FF0FF3234
:1003F400C5E9A232C5F88412C5F8903270BD00BFB9
:10040400F32C23FA6C2B0020034AB2F88432013314
:10041400A2F88432704700BF6C2B0020034AB2F864
:100424008432013BA2F88432704700BF6C2B002059
:10043400034BB3F88402003818BF0120704700BF93
:100444006C2B0020F8B51D4CB4F884320022013323
:10045400A4F88432C4F88822C4F80022251D04F5C7
:10046400E676032755F8042F13071AD1D4F8F801B8
:10047400824216D3D4F8FC11101AC0F301138A4235
:100484004FEA901C4FEA43034FEA101009D2D4F804
:10049400EC1111F80CE04EFA03F202F00302012A07
:1004A40002D0AE42DED1F8BD07FA03F343EA0E03ED
:1004B40001F80C30FFF7E8FEF3E700BF6C2B0020D7
:1004C40081B3F8B5041F184E04EB8105032754F8D3
:1004D400043F1A071AD1D6F8F801984216D8D6F86C
:1004E400FC11181AC0F3011299424FEA901C4FEA0A
:1004F40042024FEA101009D9D6F8EC1111F80CE0B9
:100504004EFA02F303F00303012B02D0A542DED11D
:10051400F8BD07FA02F242EA0E0201F80C20FFF7D6
:10052400B3FEF3E7704700BF6C2B00202DE9F04FBA
:100534005A4CD4F8003285B0002B00F0AB80D4F8CC
:10054400F03100269A00C4F80062002A43D0002546
:10055400D4F8EC11AB08CB5C05F0030149000B4166
:1005640003F00303032B41D001359542F0D3D4F8B3
:100574000032002BE7D172B34FF0000E76464FF0F5
:10058400030A4FF001094FF0020804E0012B4BD09D
:10059400013696421FD2D4F8ECC1B70806F0030521
:1005A4001CF807106D0041FA05F303F00303022B56
:1005B4000CEB96002AD0032BE8D108FA05F521EAC2
:1005C40005010CF80710D4F8F03101369A00964270
:1005D4004FF0000EDFD3B4F884320022013BA4F8BC
:1005E4008432C4F8902205B0BDE8F08F2846FFF7A6
:1005F4004BFED4F8F0310135B5EB830F4FEA83029B
:10060400A6D3D4F80032002B9DD1B4E7BEF1000F7D
:10061400BED00AFA05F521EA05010170D4F8F031DB
:100624004FF0010E9A00B3E7D4F8F421F30806F072
:10063400070B12F803C001934CFA0BFE1EF0010FD6
:1006440002EBD602E5D0D4F8F8013101415800EBB1
:100654000610A1B102AAB12107F0A6FDDDE901321D
:1006640042B108F0B1FDDDE9020108F083FD08F0B4
:10067400C1FD019BD4F8F42112F803C01A4409FA0D
:100684000BFB2CEA0B0C82F800C0D4F8EC31D95DDA
:10069400D819BEE7D4F8F0319A006CE76C2B00202F
:1006A400054BB3F8842200210132A3F88422C3F855
:1006B4000012FFF73BBF00BF6C2B00203B4BD3E97C
:1006C4007E122DE9F047D3E97B760023C0E902339B
:1006D400C0E90433521AC0E900231D4683619E46D3
:1006E4009C461C461A46994619469846B60017F881
:1006F400093049000B4103F00303012B49D0022BBD
:1007040043D0002B39D0013296420ED04FEA9209E1
:1007140002F0030117F809304FEA410A43FA0AF3D9
:1007240013F0030301D0012BE1D1012C11D0022CD1
:1007340002D14169013141618169A14238BF8461BB
:1007440096420FD0012B28D04FEA920902F0030100
:10075400CDE70169013101618169A14238BF84613A
:100764009642EFD1C44501D9C0F80CC02D014FEA1F
:100774000E13C0E90153BDE8F0870EF1010EC0F875
:1007840008E00CF1010C1C46BDE70135456001345D
:10079400B9E7013545601C46B5E7E04502D2C0F82B
:1007A4000CC0E0464FF0000CCEE700BF6C2B0020DD
:1007B4000F302DE9F843060951D0674CB4F8843260
:1007C400002B4CD1B4F88632002B0D460CBF4FF0F1
:1007D400010E4FF0000E47D1D4F89002D4F8F07116
:1007E400874239D9D4F8ECC1411E614400221AE091
:1007F4000132964253D913F00C0F1ED101329642A6
:1008040040F2A08013F0300F1CD10132964240F226
:100814009C8013F0C00F1AD10132964240F29880A6
:100824000130B84218D211F8013F13F0030FDFD0A2
:1008340013F00C0F4FF00002E0D013F0300F4FF024
:100844000002E2D013F0C00F4FF00002E4D00130F8
:10085400B8424FF00002E6D3BEF1000F14D04FF0BF
:1008640000084046BDE8F883D4E9A2239A42B3D3F2
:1008740024F068FBD4F89002D4F8F071B84238BF81
:100884004FF0010EAED3EAE724F05CFBD4F89002FB
:10089400D4F8F07187424FF0010EA3D8DFE780004F
:1008A400811A012A01F1010703D1431C9B08C4F8F2
:1008B40090324FEA970E07F003031CF80E904FEAAC
:1008C4004308012303FA08F3023143EA0903884287
:1008D4000CF80E3013D34FF002084FEA910CD4F801
:1008E400ECE101F003031EF80C905B0008FA03F33B
:1008F400013143EA090388420EF80C30EDD2D4F8F2
:10090400F891D4F8883209EB07181E4412014046C6
:100914000021C4F888621AF0BBFEEB074FEA071601
:100924009FD50023D4F8F41149F80630FA080123BE
:10093400885C07F0070703FA07F707438F5440461C
:10094400BDE8F88380000130AAE780000230A7E701
:1009540080000330A4E700BF6C2B0020034BB3F8E6
:10096400842212B908B1FFF7E9BC70476C2B002050
:1009740010F00F021CD11749D1F8F831834218D86E
:1009840010B4D1F8FC4184420ED9C31AD1F8EC4119
:100994009909C3F30110615C4000014101F00301B6
:1009A40001294FEA131306D010465DF8044B704733
:1009B40000221046704701329918880801F003019B
:1009C400205C490040FA01F101F003010229F2D050
:1009D4001201E9E76C2B00202DE9F84F8E460746FB
:1009E400002800F0AA80002974D0584EB6F884423A
:1009F400002C74D1D6F8F811D6F8F031411A080950
:100A040000F1010C0EF10F05BCEB830F4FEA830AD2
:100A14004FEA151580F09780D6F8EC914FF0010855
:100A24004FEA9C0B0CF0030319F80BB05B004BFA74
:100A340003F303F00303022B55D023B9013404EB71
:100A44000803AB4251D3454540D020D34444AC4283
:100A540050D2002A43D0D6F8F431C90900F0070077
:100A6400595C014101F001017046FFF7A1FE044603
:100A7400A8B34FEA081239461AF0C4FDB6F8843216
:100A84002BBB3846FFF75AFC2046BDE8F88F0544D7
:100A94002C4640444FF003094FEA940ED6F8EC116B
:100AA40004F0030311F80EC05B0009FA03F30134E8
:100AB4002CEA0303844201F80E30EDD1D6F89032CB
:100AC400AA08B3EB950F88BFC6F890223C4620468F
:100AD400BDE8F88F1D4BB3F88442002CD2D000241B
:100AE4002046BDE8F88F08F101080CF1010CE2453D
:100AF40096D1A8E700EB08022844904211D94FF0A0
:100B0400020E9408D6F8EC1102F0030311F804C0A5
:100B14005B000EFA03F3013243EA0C0390420B55D7
:100B2400EFD1A5EB0802120107EB081000213C46A7
:100B34001AF0AEFD2046BDE8F88F01467046BDE8C8
:100B4400F84FFFF735BE4FF001087CE76C2B00200F
:100B540010B58AB00B4C03A8FFF7B0FD059B0093BA
:100B64000949DDE90323204600F03EFF069A099B6C
:100B7400019200930549DDE90723204600F034FF84
:100B84000AB010BD64320308C0FA0208E4FA02088D
:100B94002DE9F047DFF86CA14B49DAF8F8214B480E
:100BA40000F022FFDAF8F011890078D0DFF85891CC
:100BB400DFF85881454F00250EE0012E3ED02E224D
:100BC4004349384600F010FFDAF8F0310135B5EB4F
:100BD400830F4FEA830162D215F03F0610D005F06F
:100BE40003067600DAF8EC21AB08D35C43FA06F688
:100BF40006F00306022E1FD0032EDED16D22DFE79E
:100C0400DAF8EC012C46A20804F00303825C5B00D2
:100C140042FA03F39B0702D101348C42F3D3621BE3
:100C24007F2A30D805F00306760009EA051241460A
:100C3400384600F0D9FED5E73D22C1E7DAF8F811CD
:100C4400244B2A018A589A422FD0234B9A422ED001
:100C5400224B9A422FD0224B9A422AD0214B9A42BD
:100C640027D0214B9A4228D0204B9A4225D0204BA2
:100C74009A4226D01F4B9A4221D01F4B9A420CBF56
:100C84004D2268229CE71D499209384600F0ACFECB
:100C9400DAF8F03124F03F05B5EB830FC5D3BDE896
:100CA400F0471749094800F021BB542288E74C2239
:100CB40086E7532284E7442282E7412280E74222E6
:100CC4007EE746227CE700BF2CFB0208643203085F
:100CD40070FB02080C600308C85103084C45030864
:100CE400905D0308345B030864410308284103084A
:100CF400C04C0308144D03085C5303084CFB020862
:100D040048FB02086C2B0020F0FF0F0068FB020870
:100D1400054B5B695A68824204D8801A043053F840
:100D2400200070471B68F5E76C2B0020014441F25A
:100D34000553884204D398B2012838BF0120704774
:100D440010F8012B03EB43135340F2E7034B044A1F
:100D54005A610022C3F8D021704700BF6C2B0020D9
:100D6400382403082DE9F84F80460D46FFF7DEFFCF
:100D7400134B5C6907460CB920461EE0E36804F196
:100D8400100B0BEB83095E464E45B24601D3246833
:100D9400F1E756F8040B0388BB42F5D18378AB42E4
:100DA400F2D12A46414603301AF098FC0028EBD1D0
:100DB4006068AAEB0B0A00EBAA00BDE8F88F00BF3D
:100DC4006C2B00202DE9F04780460E46FFF7CAFF42
:100DD4000246002874D1FF2E03D93E493E4807F04D
:100DE40059FA3E4CD4F8D001351D90B1D4E97513AD
:100DF4002B448B422BD92944FFF742FA0746E8B922
:100E04000246D4F8D811D4F8D001FFF739FAC4F85F
:100E1400D071802D2F4638BF80273846FFF715FA4A
:100E2400C4F8D00100284FD12846FFF70EFAC4F8C1
:100E3400D001002847D1284607F0AEFFD4F8D431BA
:100E44002B44C4F8D431D4F8D031002BE1D0D4F8F9
:100E5400D891D4F8D0A131464D444046C4F8D85175
:100E6400FFF764FF0AEB09070AF80900000A787023
:100E7400BE7032464146F81C1AF0C4FBB91900266C
:100E8400CE706369D3E90253AB420FD36D00281DC2
:100E94008000FFF7DAF90028CDD062690260536858
:100EA400D268C6601344C0E9013560616369D968DA
:100EB4005A68481C0431D860013A43F8217002444E
:100EC4001046BDE8F0872F460023C4F8D471C4F857
:100ED400D831BCE773FB0208584A03086C2B002086
:100EE40010B504461AF01CFC01462046BDE810402B
:100EF400FFF768BF08B5FFF70BFF008808BD08B50A
:100F0400FFF706FF807808BD08B5FFF701FF03303F
:100F140008BD08B5FFF7FCFE83780B60033008BDFD
:100F24002DE9F8431D46002303600B6013602B601A
:100F3400174BDFF860905C690746884616460CB18B
:100F44004C4505D12B68326813442B60BDE8F88307
:100F54003B6801333B60E268D8F800301344C8F8BA
:100F64000030E26804F1100303EB8202934207D3DA
:100F74002046FFF7FDFC2B68246818442860DEE750
:100F840053F8041B88783168043101443160EDE77B
:100F94006C2B0020382403082DE9F8430E4B0F4F27
:100FA4005C69DFF83C80DFF83C900CB1BC4201D1B5
:100FB400BDE8F883E36804F1100505EB8306B54248
:100FC40001D32468F1E755F8042B4146033248461F
:100FD40000F00AFDF3E700BF6C2B0020382403085F
:100FE40078FB02086432030830B50023202411F88A
:100FF400012F0AB9027030BD120600F101051FD598
:101004000BB1047028460B78124A03F07F036BB9C6
:10101400013A12F8013F13F0800F054600F1010078
:101024000BD003F07F032B700123E0E712F9015B7F
:10103400002DFBDA013BDBB2E9E700F8013CE8E70D
:10104400012B04BF047028460B7800F8013B0223EF
:10105400CDE700BF7FFB020838B54468036821442C
:101064009942054611D9037BDB0703D507480021C4
:1010740007F010F901F1100424F007040834806823
:101084002146FFF7F2F82C60A86038BD584A0308DF
:1010940070B504460E4611461546FFF7DDFFD4E948
:1010A40001302A46314618441AF0DAFA62682A44B2
:1010B400626070BD70B54668B142044628BF3146CF
:1010C4000D460121FFF7C8FFA368681C5919721B5C
:1010D40018441AF0C5FA6368A068013363602844B1
:1010E40070BD38B50129044638BF012100250846E2
:1010F40021606560FFF79EF8237BA06065F3000321
:10110400237338BD38B505460C460131FFF7E9FFB6
:101114006C6038BD0023C0E90132037B016043F0F9
:10112400010303737047000038B514460546FFF702
:10113400D8FF024B2560636038BD00BF95100008DE
:10114400037BDB0710B5044602D48068FFF79AF8E6
:101154000023A36010BD13B501901020FFF76AF8B7
:1011640001990446FFF7BDFF204602B010BD10B53B
:10117400044650B1037BDB0702D48068FFF782F892
:101184002046BDE81040FFF77DB810BD38B5037B9D
:10119400DB0704460D4603D50748002107F07AF81B
:1011A400016880682944FFF760F82368A0601D4443
:1011B4002560184438BD00BF584A030838B50446B2
:1011C4000D46FFF749FFD4E901301D44656018441A
:1011D40038BDD0E900239A4210B5044602D101215A
:1011E400FFF7D4FFD4E901320021D154A06810BD27
:1011F40010B50C460121FFF7E1FF047010BD7F29F3
:10120400F8B50C46CEB204D80121FFF7D7FF06701B
:10121400F8BD06F03F06B1F5006FC1F3871546F03F
:10122400800607D20221FFF7C9FF65F03F0505706C
:101234004670EDE705F03F05B1F5803FC1F3073790
:1012440045F0800508D20321FFF7B8FF67F01F07B8
:10125400077045708670DBE70421FFF7AFFFA40C2D
:1012640007F03F0764F00F0467F07F0704704770CE
:101274008570C670CCE713B50446084601911AF090
:101284004FFA01990246204602B0BDE81040FFF72C
:10129400FFBE10B51446FFF70DFF047010BD10B566
:1012A4001446FFF707FF047010BD43688B422CBF40
:1012B400591A00214160704738B5044615466268E2
:1012C4008A42084603D929448A4201D8606038BD5D
:1012D400A368521A184419441AF0C2F96268521BDE
:1012E4006260F4E7084611461FF0E8BE37B50546CC
:1012F400084601911AF014FA044620B102466B68BC
:10130400019928689847204603B030BD2DE9F74F6E
:1013140089469DF8301017460D9A11F0DF0F0646E6
:10132400A2EB07023DD0302925490CA813BF804603
:1013340088464FF0100A4FF0010A13F0800535D0AB
:1013440002EBD2746510A2EB6404002D35DDAB46CC
:10135400DA45524673683068A8BF5A46414601923E
:101364009847019AABEB020BBBF1000FF0DC2FB1F5
:10137400736830683A46494698473D44002C0CDD72
:101384002544A2455746A8BF2746736830683A46A5
:101394004146E41B9847002CF3DC284603B0BDE823
:1013A400F08FDFF820804FF0100AC6E713F0010435
:1013B40001D11546C9E71446D9E70025D7E700BF90
:1013C4007D3203086C3203082DE9F04389B00646E8
:1013D4000020119D9DF84880139F8DF80F000AB3DB
:1013E40081421ADA2D228DF80F204942109A08AC56
:1013F400A2F10A000DF11009B1FBF3FC03FB1C126E
:10140400092A8CBF1218303204F8012D4C458E463F
:1014140061460ED07345EFD90BE0A80727D52B22E0
:101424008DF80F200029E1D130238DF81F300DF104
:101434001F0415F040099DF80F301CD023B301227E
:10144400CDE900822B460DF10F013046FFF75EFF18
:10145400013F814608AACDE900872B46121B21468D
:101464003046FFF753FF484409B0BDE8F0836A07EC
:10147400D8D52022D4E7002BECD004AA9442E9D991
:1014840004F8013C013CE5E79946E3E72DE9F04F18
:1014940093B081461D46C8079DF874301C9E069380
:1014A400DDE91E7A0C4690460BD4A10703D12268CD
:1014B400794B9A4205D0204608F06CFB400040F07E
:1014C400010416F0810306D1069A302A03D1574548
:1014D400B8BF57469A4620460BF09BF800280DF1FA
:1014E400280B18DBB20712D52B238DF828300DF109
:1014F4002902F006EDB21DD5B8F1020F0DD1134645
:10150400302103F8021B691C51701A4612E073075C
:1015140001D52023E9E75A46EBE7B8F1080F60D17B
:10152400B1054FF03003137045BF05F10E0353703E
:1015340001320232A2EB0B03002116F0200F1170CE
:1015440005930EAA0CBF0B462C23BAF1010F0B9284
:10155400C8BF46F040061022CDE90C2116F0400227
:10156400CDE902538DF82710079244D0CDE90081CC
:1015740023460DAA0CA90BA80AF01EFF03782D2BF5
:10158400804606D18DF827300D9B013B00F1010800
:101594000D93BAF1010F3CDD0D9D079B5545B8BF76
:1015A40055462BB19DF8273003B10135059B1D44E9
:1015B400AF422BDD16F00103A7EB050527D12C461E
:1015C4001D4626F001064CB120230093002301940C
:1015D40032491A464846FFF799FE044630230693DB
:1015E40019E0B8F1100FA5D11346302103F8021BFE
:1015F40005F1170188E70AABCDE900830DAA23465C
:101604000CA90BA80AF0D8FE8046C2E700250024E6
:10161400D7E700252C46079BDBB19DF8273053B153
:1016240000230122CDE900320DF127014846FFF7DE
:101634006DFE013F0444059B5BB100230122CDE90B
:1016440000325946059A4846FFF760FE059B04445C
:10165400FF1A069B0093BAF1010FC8BF57460D9AB3
:101664000197334641464846FFF750FE04444DB1C6
:10167400202300930023094901951A464846FFF7A1
:1016840045FE04440B980EAB984201D0FEF7FAFDD8
:10169400204613B0BDE8F08F5C5003089191030815
:1016A4002DE9F04316468BB0B207DDF848900746A3
:1016B40098463DD416F0040F0CBF0023202300935A
:1016C4000A46139B202102A805F02EFEF3050446CA
:1016D4000DD5431C1F2B0AD80AAA1444252204F84A
:1016E400202C0AAA1A44002102F8201C1C4616F0D9
:1016F40040051FD09DF808302F2B4FF000031BD856
:10170400012202A9CDE900323846FFF7FFFD09F1B5
:10171400FF390546013C0DF10901CDE90089334645
:1017240022463846FFF7F2FD28440BB0BDE8F083AB
:101734002B23C4E702A9F0E702A91D46EDE7000048
:101744002DE9F04F824689B0144600260B461D460B
:1017540013F8012B82B9A94211D30B78002B00F0A6
:101764003B81013120234FF000080A4612F8015B47
:101774007DB94FF00A0C2AE0252AE8D1EBE76F1A6D
:10178400DAF80430DAF800003A4698473E4429462D
:10179400E3E72D2D03D148F001081146E5E72B2D91
:1017A40002D148F00208F8E7202D02D148F00408DD
:1017B400F3E7212D02D148F00808EEE7302D21D1BE
:1017C40048F040082B46E8E70CFB0525303D0F4662
:1017D40011F8012BA2F130000928F5D92E2A41D1A4
:1017E4007A782A2A10D000204FF00A0C0F4611F8FC
:1017F40001BBABF13002092A09D80CFB00BBABF1E9
:101804003000F3E70025B4E754F8040B023720EA6C
:10181400E07B3A786C2A08BF013797F80090B9F159
:10182400000F00F0D980B9F1780F6AD8B9F1570FD9
:101834001BD8B9F1470F61D8B9F1440F61D9073406
:1018440024F00704F4E8020104932DF06BFFCDE9C2
:10185400005B00EE100A049B424649465046FFF7DF
:101864001FFF62E04FF0FF3BD3E7A9F15802202AA3
:1018740047D801A151F822F0AB1900080719000854
:1018840007190008071900080719000807190008B4
:1018940007190008071900080719000807190008A4
:1018A400191900083B1900088F190008431800088B
:1018B400431800084318000807190008071900080E
:1018C4000719000807190008071900080719000874
:1018D4000719000807190008CD1900084F19000856
:1018E400071900087319000807190008AB19000844
:1018F4000719000807190008AB190008B9F1500FBF
:1019040062D0DAF80430DAF8000001223946984748
:1019140001360BE054F8042BCDE9003543463AB1C7
:101924002F4904225046FFF7F1FC0644791C0DE7C9
:101934002C490522F6E754F8042B8DF81C20CDE938
:1019440000350122434607A9ECE707A954F8040B24
:101954000493FFF7DEFABBF1FF3F049B014601D17C
:10196400DDF81CB0CDE900355A464346DAE7BBF151
:10197400FF3F54F8041BF5D108460593049119F070
:10198400CFFEDDE904138346ECE7CDE9023561239C
:101994000093CDF804800A23012254F8041B504616
:1019A400FFF712FDC1E729F00F0209F101010F3A17
:1019B40001F00601D2B2CDE90235CDF804800092DF
:1019C400C1F110030022E8E7CDE902356123009359
:1019D400CDF804801023F5E7304609B0BDE8F08F58
:1019E400583203085D3203080EB403B503AA52F853
:1019F400041B0192FFF7A4FE02B05DF804EB03B0F0
:101A0400704790F9001003780029024601DB18465C
:101A1400704703F07F004023184206D112F8013FBB
:101A240003F0C001802904D0704720EA03005B085A
:101A3400F2E703F03F0343EA8010EFE7431C184644
:101A44000133027802F0C002802AF8D070470346BE
:101A54000020994200D8704711F8012D02F0C0020D
:101A6400802A18BF0130F4E701440346002099425C
:101A74001A4600D87047127802F0C002802A03F197
:101A8400010318BF0130F2E77F289DBF024B185CA9
:101A9400C0F34000002070478E3203087F289DBFAA
:101AA400024B185CC0F3C000002070478E3203085C
:101AB4007F289DBF024B185CC0F380000020704754
:101AC4008E3203087F289DBF024B185CC0F3801040
:101AD400002070478E3203087F2809D8064B1B5C10
:101AE40013F00C0F06D1A0F15F0358425841704720
:101AF40000207047012070478E3203087F289DBF65
:101B0400024B185CC0F30010002070478E320308AB
:101B14007F289DBF024B185CC0F340100020704723
:101B24008E32030808B50246FFF7E8FF00B1203201
:101B3400104608BD08B50246FFF7EAFF00B1203A97
:101B4400104608BD3038092884BF20F0200007382B
:101B5400704710B501440246E5240020914203D8A1
:101B6400B0FA80F0400917E012F8013B30B103F0FD
:101B7400C003802B11D1431ED8B2EFE7BF2B09D984
:101B8400F72B09D8DB0803F0060344FA03F303F048
:101B94000300E3E71B06E1D510BD0020FCE7023992
:101BA40081420B4603D20233181A401070471A8838
:101BB4000239002AF4D0F6E7B2EB131F70B54FEAEE
:101BC400131415D9121B03F00F0301EB440115463E
:101BD4000E46012D31F8024B18BF3468DC40A4B224
:101BE400013D20F8024BF3D104B9013A104670BD0F
:101BF4000022FBE7F0B5059F0024D21B2646A7422E
:101C040010D100EB470C01EB47010024A24214D190
:101C14000CEB42031EB101212CF812100233181AE6
:101C24004010F0BD31F8145033F814C06544354405
:101C340020F814502E0C0134E1E731F814503544E7
:101C44002CF814502E0C0134E0E7F0B4049F002566
:101C5400D21B2C46AF420BD100EB470601EB4705E4
:101C640000239A420FD106EB4201F0BCFFF797BF65
:101C740031F81560344433F81560A41B20F815407E
:101C840024140135E6E735F813100C4426F8134004
:101C940024140133E5E72DE9F043079CDDF828E03F
:101CA400DDE908760239154684464FF6FF78A4EB41
:101CB400020955B900EB42011FB1012320F812308B
:101CC4000231BDE8F043FFF76ABF31F8024F013D2E
:101CD4004444264405EB0904AC4296BF33F8024B56
:101CE4004FF6FF744444744486EA040E17FA8EF7E0
:101CF4002CF8027B4FEA144E360C3F0CD9E738B56A
:101D040002290446806838BF02210D4618B12368B1
:101D1400B1EB930F07D96900FEF7A7FA2368A06017
:101D240065F39F03236038BD38B504460C20FEF7E5
:101D340081FA23682278054602F00102C3F39D006C
:101D440023F0030313432B6063686B604000FEF7CA
:101D540071FAA8602268A168C2F39D02520019F0CA
:101D640051FC284638BD10B500EB410002EB41029E
:101D740009B9084610BD30F8023D32F8024D1B1B6C
:101D8400002B02DB04D10139F2E74FF0FF30F1E719
:101D94000120EFE710B5044638B18068FEF772FA07
:101DA4002046BDE81040FEF76DBA10BD38B50546B3
:101DB4000C460221FFF7A3FF002C2B78B4BF0122AD
:101DC400002262F300032B70AB68B4BF614221466A
:101DD400023B012223F8021F090C104602F1010202
:101DE400F8D1686038BD0023C0E9003383607047D0
:101DF40028B103789B0702D48068FEF743BA704782
:101E040038B505460C464968FFF779FF22782B78E8
:101E1400A86862F300032B7063686B606268A16852
:101E24005200BDE8384019F0EDBB09B94160704774
:101E3400FFF7BCBF08B5FFF7D6FFBDE80840FFF7C2
:101E4400F4BF920042F0020210B402600022C0E922
:101E540001215DF8044B1946FFF7E7BFF8B59DF87B
:101E640018700421064614461D46FFF748FF87B143
:101E7400002C75F100030CDA624265EB45033178FE
:101E840067F3000131700021716052EA030104D14B
:101E9400F8BD22462B460027F1E7D6E901104C1C79
:101EA400746020F81120110C41EA0341180C0A4611
:101EB4000346EAE72DE9F3418DED010A019C03781D
:101EC400E20F62F300030370C4F30F4313F4FF4300
:101ED400074604D100237B6002B0BDE8F081B3F56E
:101EE400FF4FF7D0C4F3C753A3F17F05002DF1DBF7
:101EF40005D1012102B0BDE8F041FFF757BFB3F1AE
:101F04006F0848BFA3F16008C4F31604162D4FEA06
:101F1400281844F4000421DCC5F11705EC40002521
:101F24002E4641463846FFF7EAFEC7F8048026B13C
:101F3400B8687200002119F0ABFB45B1BB6804FA24
:101F440005F223F81620C5F11005EC400136B04522
:101F5400C2D0BB6823F81640240CF7E7B3F1960609
:101F640005F1090548BFA3F1870605F00F053611F1
:101F7400D7E72DE9F84304468F18C2F35B020D46F8
:101F8400511C9846089EFFF7BAFE237868F30003B5
:101F940023700023636029461FFA86FCB942084671
:101FA40002D3401BBDE8F8830278A2F13003092B69
:101FB40001F1010105D9A2F14103192B14D8A2F1B1
:101FC4003703B342EDD2D4E901E0F0468146B8F1DB
:101FD400000F10D100EB4E0213B120F81E30023274
:101FE400121A52106260D9E7A2F16103192BD8D8F2
:101FF400A2F15703E5E7B9F8002002FB0C3329F8F6
:10200400023B08F1FF381B0CE1E7F8B5044615461E
:102014001E46C1B1531E1E444FF0FF37E9000F3175
:1020240009092046FFF76BFE237800216FF30003B4
:10203400237061604DB9D4E9011000EB4101FFF751
:10204400AEFD6060F8BD0127E8E700230F2908DC36
:1020540032788A401343013D9BB201F108013E44AA
:10206400F4D16268501C6060A068103920F8123006
:10207400E0E770B5456804460DB9486898B10B7837
:10208400267803F0010306F00100181A0BD14B68FF
:102094009D4209D30BD88A68A0682946FFF763FEDE
:1020A400F30748BF404270BD4FF0FF30F8E701200E
:1020B400F6E7884210B5044601D0FFF7A1FE237865
:1020C4006FF30003237010BD884210B5044601D09D
:1020D400FFF796FE2378C3F30002C2F1010262F314
:1020E4000003237010BD88421FB5044601D0FFF7DA
:1020F40087FE626862B901212046FFF700FEA268EC
:10210400012313806360237843F00103237010E0FC
:102114002378D9070FD5A1686FF300032370012337
:10212400ADF80E30009308460DF10E03FFF78DFD58
:10213400606004B010BD511C2046FFF7E0FDD4E9F7
:1021440001210123ADF80E30009308460DF10E0372
:10215400FFF750FD6060D6E72DE9F8434B6805466C
:102164000E46144603B12AB931462846BDE8F84361
:10217400FFF746BE02F10F014FEA111803EB1111EC
:10218400FFF7BDFDD6E9010208EB0007AB6807F1D4
:10219400004114F00F0401F1FF3103EB410308BFC8
:1021A400102402EB400E014699460022C4F11004AB
:1021B40001BB6FF0010C0CFB00FC22FA04F403EBEE
:1021C4000C0023F80C40C8F1010300EB430308F1B1
:1021D400FF321846520019F05BFA831E17B133F828
:1021E400172092B16F6032782B7862F300032B7062
:1021F400BDE8F8833EF802CD4CEA020222FA04FC60
:1022040029F802C912040139D2E7013FE6E7F0B523
:102214000E46496885B00546144601B12AB93146CF
:102224002846FFF7EDFD05B0F0BDFFF768FDD6E9E0
:1022340001212346A868FFF7BFFC686032782B7839
:1022440062F300032B70DB07EDD500237168ADF852
:102254000E302209994201D093420FD19142E2D922
:10226400B36804F00F0433F81220012303FA04F4D2
:10227400013C224213D0ADF80E3008E0B76837F8BD
:10228400137057B101239142ADF80E30E8D8A96814
:10229400012348B90B806B60C5E70133DAE7BDF869
:1022A4000E30002BBFD0F2E7009302460DF10E036F
:1022B4000846FFF79FFC6860B5E773B553680C46A2
:1022C400496899420646154606D308D89268A0681C
:1022D400FFF749FD002802DA23462C461D462378E1
:1022E4002A7861685340DB0713D401313046FFF785
:1022F40006FD6B680093D4E90121AB68B068FFF771
:1023040079FC70602278337862F30003337002B092
:1023140070BD3046FFF7F3FC6B680093D4E90121EC
:10232400AB68B068FFF791FCEBE7F7B553680C4670
:10233400496899420646154606D328D89268A0688B
:10234400FFF711FD002822DA234601272C461D46FB
:1023540023782A7861685340DB071AD50131304667
:10236400FFF7CDFC6B680093D4E90121AB68B0683A
:10237400FFF740FC7060237803F001030FB183F092
:102384000103327863F30002327003B0F0BD00271A
:10239400DEE73046FFF7B3FC6B680093D4E9012114
:1023A400AB68B068FFF751FCE4E72DE9F04F154640
:1023B4004A686B689A420E463EBF2E460B461D463F
:1023C40033787168DB0785B0044621D42B7813F089
:1023D40001071DD1FFF793FCD5E9011CA068B6687D
:1023E4003B4699420BD100EB4101FFF7D8FB237820
:1023F40060606FF30003237005B0BDE8F08F36F81A
:1024040013203CF813502A4020F813200133E8E746
:1024140001312046FFF773FC96F800A02B78D6F81C
:1024240004C0A0688AEA0307FF4307F0010E47F3DC
:102434000007BFB2D5E901120AF001084AF3000A05
:1024440002971FFA8AF703F00109019743F3000387
:10245400B7689BB2A1EB0C01A7F1020A009367468F
:1024640083460391BFB900EB4C01BEF1000F03D0CA
:10247400012320F81C300231FFF791FB60603378B0
:102484002A78C3F30003C2F300021340227863F3F3
:1024940000022270B0E73AF8021F019B5940039BE7
:1024A400013F8844D919B9429BBF32F8021B009BF3
:1024B400009959408944029B08EA090159401EFACF
:1024C40081F12BF8021B4FEA19494FEA18484FEAE9
:1024D400114EC7E72DE9F84F16464A6873689A42C9
:1024E4000D463EBF35460B461E462B786968DB0712
:1024F400044631D4327812F001072DD1FFF7FFFBE7
:10250400D6E9013EA9686D68D4F808C0ED1A3A46C8
:10251400934212D101EB430100220CEB4303954299
:1025240014D103EB4503A3EB0C035B106360237826
:102534006FF300032370BDE8F88F31F812003EF802
:10254400126030432CF812000132E1E731F8120036
:1025540023F812000132E2E701312046FFF7CFFBF6
:102564002F7833786968A068AD68D6E901E203F092
:10257400010947F3000643F3000307F00108A5F13E
:10258400020CB6B29BB20F4682460125AEEB010E99
:1025940047B900EB4101FFF702FB2378606043F089
:1025A4000103C7E73CF802BF013F8BEA060BD8449E
:1025B4000EEB070BBB4596BF32F802BB9B468BEA7A
:1025C400030BD94448EA090B6FEA0B0B15FA8BF598
:1025D4002AF8025B4FEA19494FEA18482D0CD7E74D
:1025E400F0B516464A6873689A4238BF0B460C46E3
:1025F4003CBF34461E462778337861685F4017F045
:10260400010785B005463AD1FFF779FB237813F02B
:10261400010328D1D6E9012C6168A868A768891A42
:102624009A4211D107EB4207002300EB4202994280
:1026340013D102EB4101FFF7B2FA2B7868606FF314
:1026440000032B7005B0F0BD37F813403CF813605D
:10265400744020F813400133E2E737F8134022F8BE
:1026640013400133E3E7CDE90277019773680093E0
:10267400D4E90121B368A868FFF70DFBDDE7013158
:10268400FFF73DFB3378A868DB4303F001030393B2
:102694002378DB4303F0010302930123019373685E
:1026A4000093B368D4E90121FFF7F5FA2B78686049
:1026B40043F00103C5E72DE9F04F4B6885B00646AA
:1026C4000D4614460BB1536823B90023736005B05B
:1026D400BDE8F08F81422ED1FFF726FBB4420546B8
:1026E400074600D104466368696830461944FFF719
:1026F40006FB3268B068C2F39D025200002118F054
:10270400C7FFAB68D6F808E0D5F804A00193A36826
:1027140002930022636803930EEB4A08F4461146C1
:10272400039B934231D0DDF804B0CDF800A0ACF1A6
:102734000200002318E0824204D1FFF7F5FA0446B0
:102744000746D0E70027CEE730F8029F99443BF8CC
:10275400023B1946029B33F8123003FB01930099A4
:10276400038001391B0C009100990029ECD14146EA
:10277400881C13B1A8F800300146A1EB0E014910E2
:102784000CF1020C01328046CAE7716022782B7882
:1027940053403278384663F30002327005B0BDE826
:1027A400F04FFFF7F7BA4B6870B50646144613B1FD
:1027B4001378DA0702D50023736070BD636823B908
:1027C400BDE870400121FFF7F1BA0846FFF7ACFA03
:1027D40005462046FFF7A8FA012104463046FFF7D4
:1027E400E5FA636883B1A3681B88DB0704D52A462E
:1027F40031463046FFF75FFFD4E901210123084643
:10280400FFF7DAF9606038B92846FFF7C3FA2046C3
:10281400BDE87040FFF7BEBA2A4629462846FFF7AE
:102824004AFFDEE72DE9F04F0C4651688FB0914620
:10283400013105460293FFF762FAD9F80420A8682B
:1028440001325200002118F023FF00236B60D9F8F5
:10285400041020460131FFF752FA49462046FFF79B
:10286400CFFA029BD4F804805B680193434531D8C6
:10287400029BA6689F68AB6803932DD33A464146F2
:102884003046FFF770FA18BB039A60600123138087
:102894006B60029A99F8003012785340DB0714D524
:1028A4002B7843F001032B70636873B14FF0FF3151
:1028B4000BA8FFF7BFFA0BAA29462846FFF7FDFC31
:1028C400029A21462046FFF7F8FC0FB0BDE8F08FCE
:1028D400013001D10023DBE7019B03F10042013AFF
:1028E4005300049337F812304FF0000E18040EF121
:1028F400010151D54FEA4800002108F1010326F8EF
:1029040018101FFA8EFA00F1020805936360B044B0
:10291400B446CAF1100BC44542D3019B37F81220C8
:10292400012B02FA0AFB08D9049BFA18CAF1100118
:1029340032F8022CCA404BEA020B059A019BD31AC7
:102944006B60039A03F10043013B02EB43030593DD
:10295400049B02330993BB1E3044089363680493B9
:10296400049A019B934226D302F1004B0BF1FF3BE7
:1029740006EB4B0B0021CAF110005E4579D96FF0CC
:1029840000416B682BB103985A1830F81220002AC2
:1029940079D06FF000417BE05B009BB28E46A5E7E7
:1029A400BCF800E00EFA0AF319432CF8021B2EFAC5
:1029B4000BF189B2AFE7038830F8022C42EA0342F4
:1029C400099BB2FBFBF2C31A0693089B0793DDF83D
:1029D40018E00023984670450CD801885B1A002B38
:1029E40041D1059B23F802290593049B013B02383E
:1029F4006360B3E7079FBEF800C037F8021F07976C
:102A040001FA0AF141EA18481FFA88F15143614575
:102A140003D2ACEB01079F420ED80B44A3EB0C018D
:102A2400ACEB03039FB28BB2003B18BF012303EB53
:102A340011432EF8027BCEE7FF1ABFB20023F8E75A
:102A440038F802CF0CFA0AFC4CEA1E4EB7F800C064
:102A540011FA8EF1614427F8021B090CB842EFD831
:102A64005B1A013ABBE70021DDF82080069F8E4601
:102A7400F4E7BBF8003043FA0AF20A4383402BF828
:102A8400022999B279E7013B6B607AE7013B636005
:102A94006368002B3FF4FDAE5A1836F81220002A62
:102AA400F4D0F6E6F0B51F464B6885B006460C46F2
:102AB40015464BB11378DA0706D47B68012B07D18E
:102AC400BB681B88012B03D10023736005B0F0BDE4
:102AD40001213046FFF76AF96B68002BF6D02046D7
:102AE400FFF722F904462846FFF71EF9054601A818
:102AF400FFF779F96B68B3B1AB681B88DB070AD5BC
:102B0400224631463046FFF7D6FD3B463246314633
:102B140001A8FFF787FED5E9012101230846FFF745
:102B24004BF8686048B901A8FFF762F92046FFF73F
:102B340031F92846FFF72EF9C8E7224621462046F8
:102B4400FFF7B9FD3B462246214601A8FFF76AFE7E
:102B5400D0E710B5D0E90121034601EB4202002081
:102B6400914204D31B78DB0748BF404210BD32F8C2
:102B7400024D44EA0040F3E730B5D0E901240023D4
:102B840004EB4202944206D30278D20748BF5B4268
:102B94000B60012030BDB3F5004F04D232F8025D62
:102BA40045EA0343EEE70020F4E72DE9F04371B171
:102BB4009F18D0E901940025A4F102084FF0010EFA
:102BC400AC461A44B9F1000F03D1BDE8F0831F46A7
:102BD400EFE738F8024F0CF1100C44EA0545BCF15C
:102BE400070F02DC09F1FF39ECE70678ACB2F6070F
:102BF40042BFE4435EFA84FE1FFA8EF4E4B248BF97
:102C0400CEF3072E49B17E1E07F8014CB342DCD047
:102C1400ACF1080C2D0A3746E1E73E4606F8014BB5
:102C24009642F4E7D0E901329FED0C0A9FED0C7A4D
:102C340002EB43039A4205D30378DB0748BFB1EEA6
:102C4400400A704733F8021D07EE901AF8EEE77A4F
:102C5400E0EE077AB0EE670AECE700BF0000000080
:102C6400000080472DE9F84F44689DF828B00B9F79
:102C740081468A4615461E469CB982B1551E3B467E
:102C840015F8011F184639B930230370002300F8E2
:102C9400013FC01BBDE8F88F03F8011BF0E738467D
:102CA400F2E764002046FDF7C5FAD9F8081080461B
:102CB400224618F0A7FC3846394608EB0402A6F170
:102CC4003A03A2F1020C0026E045644639D93036B5
:102CD400392E0C4688BFF61804F8016B4646B242FA
:102CE400B44638D8BBF1000F0AD00126A4EB000C7F
:102CF400BCF1030F02BF8C1C81F801B02046F6B171
:102D04004046FDF7BFFA5DB1284618F009FD2A18C0
:102D1400611E1346AB4229D8954288BF0020044463
:102D240099F80030DB0744BF2D2304F8013B3B46F0
:102D3400621E9A421FD800232370E01BAAE7214693
:102D4400BFE7248844EA0646B6FBFAF42CF80249A5
:102D54000AFB1466B8E7BCF800C00236BCF1000FE9
:102D6400BDD0BBF1000FEAD00026BFE713F8016D18
:102D740001F8016FCEE71978107803F8010B02F817
:102D84000119D6E7D0E9023293423DBF5A1C826052
:102D940018784FF0FF307047036810B5044613B13C
:102DA4004068FDF76FFA2046BDE81040FDF76ABAA7
:102DB400F8B5054610200C461F461646FDF73AFAAC
:102DC400054B8460C0E900743444C4606B60034BF9
:102DD4002860AB60F8BD00BF892D00089D2D000858
:102DE4000369272B1DD0222B1BD0752B03D023F076
:102DF4001002622A10D14269272A12D0222A10D046
:102E0400722B09D1622A0ED18069272809D0A0F13A
:102E14002203584258417047622B04D14369722BF4
:102E2400F1E7012070470020704702690A2A10B5B3
:102E3400044622D1C3690133C36101232362636958
:102E44002361A3696361D4E9010398476369A061BD
:102E54000D2B07D10A239842636103D1D4E90103FE
:102E64009847A061A369013306D163695A1C03D052
:102E74000A2B1CBF0A23A36110BD036A092A04BFDD
:102E8400073323F007030133D8E770B504460D4632
:102E940000262069431C01D1304670BD0A2808D1A0
:102EA40015B1A36A002BF7D02046FFF7BEFF012619
:102EB400EFE7FEF7E9FD18B12046FFF7B6FFE8E7B4
:102EC4002369232B08D12046FFF7AFFF23695A1C3F
:102ED400DFD00A2BF7D1DCE75C2BDDD163690A2B49
:102EE400DAD12046FFF7A1FFE6E700002DE9F74F0E
:102EF400044600218164FFF7C8FF656AE369A363A0
:102F0400002D236AE36307DA062384F84030013591
:102F1400656203B0BDE8F08F04D0052384F8403027
:102F2400013DF5E7002834D0A26A92BB042284F85C
:102F34004020D4E90C205D1E6FF00043D11830F816
:102F440011108D42E5D019D9E16A8A4207D30831BC
:102F54004900FDF78AF9E36A60630833E362D4E960
:102F64000C32591C216322F81350636A01336362E3
:102F7400CFE7013A2263626A013A6262226BD11896
:102F840030F811108D42F4D3C3D0022384F84030BA
:102F9400BFE72169481C01D10023F7E72046FFF76A
:102FA4001FFF0090002800F05881002384F840306F
:102FB40004F144062369752B5CD0622B4ED16369FE
:102FC400722B009B15BF4FF000089846012702277B
:102FD4000B2394F84020002A53D184F840303FB1A9
:102FE4002046FFF722FF022F02D12046FFF71DFFE4
:102FF40023692046222B14BF4FF0270A4FF0220AE0
:10300400FFF713FF236953453ED163699A453BD1CA
:103014002046FFF70AFF2046FFF707FF4FF003099A
:103024000027D4F810B0BBF1FF3F00F01081B9F1D4
:10303400010F03D1BBF10A0F00F009814F4526D3DC
:1030440039463046FEF731F901212046FFF71DFFCE
:103054002046FFF7C5FE0028ACD15AE7722B0ED1EB
:103064006369DDF80080622B15BF012702270A235C
:103074000B23AEE701270A234FF00008A9E72F46E8
:10308400F9E79A42ABD044E74FF00109C8E7DA45C3
:1030940008D1514630460137FEF7B1F82046FFF714
:1030A400C4FEBEE7BBF15C0F40F0CB802046FFF7C7
:1030B400BCFE2769B8F1000F05D05C213046FEF74D
:1030C4009EF8BB469DE0782F06D85B2F0BD8222FA5
:1030D4007AD055D80A2F51D0A7F1300BBBF1070F86
:1030E400EBD80327A1E0A7F15C021C2AF4D801A3C2
:1030F40053F822F0CD310008DD300008DD3000083F
:10310400DD300008DD3000086D3100089F31000813
:10311400DD300008DD300008DD300008B73100087C
:10312400DD300008DD300008DD300008DD30000847
:10313400DD300008DD300008DD300008AB31000868
:10314400DD300008DD300008DD300008993100086A
:10315400DD300008A5310008BD310008B131000898
:10316400DD3000081D3200084FF0070B94F84030A2
:103174000A2B61D159463046FEF741F800278DE706
:10318400552F19D0A8D8272F1ED04E2FA4D1B5481B
:1031940005F0DEFF4FF00D0BE8E74FF0080BE5E715
:1031A4004FF0090BE2E74FF00A0BDFE74FF00B0B90
:1031B400DCE74FF00C0BD9E794F840200B2A05D13B
:1031C4005C213046FEF71BF8BB46CFE7752F0CBFDA
:1031D400042708274FF0000B11E02046FFF725FED7
:1031E400226901921046FEF76DFC002800F04E8122
:1031F400019A1046FEF7A6FC4FEA0B1B8344013FDD
:10320400EBD2BBF1FF3FB9D0BBF5881FAED34FF073
:10321400010384F84030B1E70227DBE72046FFF7DB
:1032240004FE2269303A02EBCB0B6269303A072A7A
:10323400E7D8013FF2D1E4E7BBF1FF0FE7D80B2B4E
:10324400E5D15FFA8BF13046FDF7D2FF96E74F45A3
:103254003CBF032284F84020F2E60846FEF71EFC39
:10326400064620691EB95F2801D07F283ED907236E
:1032740084F8403004F14405C1B22846FDF7B8FF94
:103284002046FFF7D2FD2069421C1BD12846FDF7DA
:10329400A0FF754F0646002557F8041B304618F06A
:1032A4004DFA00281CD10D35EDB2102D84F8405094
:1032B4007FF42FAE6D4BD3F8DC31002B0CBF0F2302
:1032C4000D2363E6FEF7EAFB40B920695F2805D0C9
:1032D4007F2803D8FEF7ECFB0028D7D0217CCCE76D
:1032E400FFF617AE0135242DD6D112E6FEF7E0FB2A
:1032F40068B321692E2935D1092384F8403004F1BB
:1033040044052846FDF77BFF2046FFF78EFD09277D
:103314002069431C3FF4FDAD002E35D120F020037D
:10332400452B31D16521284684F84070FDF767FFAD
:103334002046FFF77AFD21692B2901D02D29E7D1F9
:103344002846FDF75CFF2046FFF76FFDE0E72369A1
:103354002E2B04D16069FEF7ABFB0028C9D1444D84
:10336400002631E00823302984F84030C7D163694E
:1033740043F02003623B162B9EBF3E4DDD4005F01B
:10338400010505F00106BAE7FEF788FB28B12169BB
:103394002E290DD184F84070D2E72069FEF788FB0E
:1033A4000028F4D123692E2BF1D05F2BCBD0B0E5CC
:1033B40021F020034A2BC3D1ECE7652F01D0632F02
:1033C40000D10135013601352F7817B12369BB428D
:1033D400F3D12046FFF729FD0FB90123D6E5212FAC
:1033E40007D123693D2BF8D12046FFF71EFD372373
:1033F400CCE52E2F0FD123692E2B02D163692E2BFE
:1034040001D05A23C2E52046FFF70FFD2046FFF7FF
:103414000CFD0C23BAE50335334615F8027C632F03
:103424000FD0652F0DD0144AD35C84F8403003F0DC
:10343400FB02522A01D0542B20D1A36A0133A36288
:1034440067E515F8012C2169914206F1010607D1BF
:103454002046FFF7EAFC3346652FE4D00235DCE76B
:10346400632FFAE751330308243403086C2B00203C
:103474000E33030801204000F9330308532A02D015
:10348400552B7FF446ADA36A013BD8E74FF0010307
:1034940084F84030834669E67FB5064601AD542082
:1034A40085E80E00FCF7C6FE0446034695E80700CF
:1034B40043F8046B83E8070001236FF00102C4E9B9
:1034C400073200250A22C4E90B23C4E90955142054
:1034D400FCF7B0FE2021606304F14400FDF701FE17
:1034E400636B20461D80C4E905552561FFF79DFCEB
:1034F4002046FFF79AFC2046FFF797FC2046FFF78B
:10350400F5FCE36B012B18BF0523204618BF84F894
:10351400403004B070BD30B585B001AC05462046DE
:10352400FFF746FC94E80E002846FFF7B5FF05B008
:1035340030BD30B585B001AC01460546204617F0D4
:1035440085FA2846FDF7CCFC94E80E00FFF7A4FFAB
:1035540005B030BD10B5044670B1C36840689847E3
:1035640004F14400FDF7ECFD606BFCF78BFE204694
:10357400BDE81040FCF786BE10BDD0E90432013B23
:10358400036152F8230070470369C943194443692E
:1035940053F821007047F8B5446A06460D46B4B1A5
:1035A400D4E900030B44834222D9083100220144A8
:1035B4002046FCF765FE0246B8B96168204608312A
:1035C400FCF75EFE63682360336A63603462802DB7
:1035D4002F4638BF802707F10800FCF72BFE002395
:1035E400076043600446706202E023682B44236052
:1035F40060680544656008342044F8BD38B5D0E9F6
:1036040003329A4204460D4608D3103399004069A8
:10361400FCF72BFEE36860611033E360D4E9043205
:10362400591C216142F8235038BDF8B504461D46A3
:10363400D0E9000383420F46164608D31030C10078
:10364400A068FCF712FE2368A06010332360D4E95D
:103654000103421C626053F8301067F3170143F80A
:10366400301003EBC002D6705560F8BD10B4846905
:10367400CAB20023A16B5DF8044BFFF7D6BF00006C
:10368400F7B5866996F84030072B05460F461ED1DC
:10369400D6E91210FDF796FB8E2F04460ED1C10019
:1036A400002241F0020105F1280005F0C3FF28B112
:1036B4004468E3071FD544F0010102E0210141F011
:1036C4000201284603B0BDE8F040FFF797BF082B7E
:1036D40007D1D6E912103346002204F083F80446D9
:1036E400E7E7092B13D10096D6E912100023012233
:1036F40004F0F6F804460C212846B66BFFF74BFF9E
:1037040040F23913C0E9013401460660D9E7A3F158
:103714000A02012A1CD8D6E912100A290BD8FDF78F
:1037240051FB96F8403048B10A2B0CBF06230A23FC
:1037340043EA0011C5E7FDF715FBF2E7064C07481D
:10374400D6E912210A2B08BF20460AF0F5FFD1E77B
:10375400190141F00E01B4E7905D0308345B0308DE
:10376400DE2807D010F0010306D043080CBF012067
:10377400002070470120704718467047FE2807D084
:1037840010F0010306D0430814BF01200020704745
:10379400012070471846704710F0010204D040F031
:1037A4000100086001207047A8B110F003030FD195
:1037B4000279392A0ED183680B6013F00100F1D12C
:1037C4009A0708D11868044BC31A584258417047E5
:1037D40010467047184670475C5003082DE9F04FB7
:1037E4002C2A85B00446884616461D460BD1002176
:1037F400FFF7CAFE98B3810702D10379902B2ED02C
:1038040005B0BDE8F08FA2F11D03012B5AD8A946DB
:103814002F460AE01D2E48D1FFF7B0FFC8B9104665
:10382400FFF79EFF002808BF574607F1FF3AB9F19A
:10383400000F0ED009F1FF3949462046FFF7A4FED8
:1038440023696169DB1B024641F82300B9F1000FCB
:10385400E0D10021514530D16D1A012DD0D0A6F10F
:103864002203022B01D9292E78D1691E2046FFF7A5
:103874008BFE01A9FFF790FF002859D0222E39D0E2
:10388400232E3AD0242E0CBF4FF018094FF02209F2
:10389400AF1E002F34DA002D40F06D81019EF30736
:1038A40040F16E8146F001011EE0FFF759FF002848
:1038B400CFD11046FFF762FFB4E72046FFF75DFE65
:1038C4000131C7E71F2ACAD10021FFF75DFE024676
:1038D400FFF746FF60B91046FFF750FF0028BED03F
:1038E400DE212046FFF749FE2046FFF787FE87E7E3
:1038F400FE21F6E74FF01609CAE74FF01709C7E7AC
:1039040039462046FFF740FE02A9FFF745FF78B18C
:10391400B9F1220F07D0DDE90112484605F058FA43
:10392400013F0190B5E7029808F073FE0028F2DA2F
:10393400A91C89002046FFF72EFE46EA05264660AC
:103944000146C0F8008000F10806002DCCD02046C6
:10395400FFF713FE013D46F82500F6E7A6F125031F
:10396400022B38D8691E2046FFF70EFE01A9FFF787
:1039740013FF0028DCD0A5F10209B9F1000F8ADD9C
:1039840009F1FF312046FFF7FFFD02A9FFF704FF0D
:103994000028CDD049462046FFF7F6FDC0F30710B6
:1039A40000F0FD03402BC3D02238C7B2029808F0C0
:1039B40030FE1A2F0AD80028BADBDDE90112384696
:1039C40005F006FAA9F102090190D6E71E2FF4D9F1
:1039D4000028F2D1ACE7282E19D100212046FFF7A8
:1039E400D3FD01A9FFF7D8FE0028A1D0012120466C
:1039F400FFF7CAFDC0F30710312818BF3D380199FD
:103A040014BFC0B2022004F0ABFC019043E7052EC2
:103A140071D100212046FFF7B7FD0746002887D063
:103A240010F0030A05D1436803F0FE03562B3FF45C
:103A34007FAF01212046FFF7A7FD00F00F03022B03
:103A44007FF476AFBAF1000F7FF472AF3B792B2B82
:103A54007FF46EAFBB6803F00F02022A7FF468AFF5
:103A64001B09482B7FF464AFFB68002B3FF460AF65
:103A74009A077FF45DAF1A792F2A7FF459AFD3F8F0
:103A840008B04FEA101902A95846FFF785FE68B935
:103A94004149424807F05AFDA1693A680968054658
:103AA400534607F019FE2846FCF79EFB4FEAC9016E
:103AB400012241F0020104F1280005F0BBFD029B44
:103AC40043604846FDF720FA03785F2B20460BD16C
:103AD400FFF753FD2046FFF750FD00230822194647
:103AE4002046FFF77BFE8BE6FFF747FD594620464D
:103AF400FFF784FD1CE72B2E7FF41AAF012120462B
:103B0400FFF742FD00F00F03022B02467FF410AFD3
:103B140000212046FFF738FD00283FF409AF87074E
:103B24007FF406AF0379312B7FF402AF1109C9008A
:103B340087681B48002241F0020105F07BFD002844
:103B44003FF4F6AE406802AA390904F02DFB029B4B
:103B5400002B3FF4EDAED90707D49A077FF4E8AE03
:103B64001968104A91427FF4E3AE039A002A7FF465
:103B7400DFAE01938FE62046FFF7FFFC013D8AE6A6
:103B84000C212046FFF707FD40F23913C0E9013646
:103B940001460560A8E600BFB43403080C4B0308D3
:103BA400F83403085C5003080346006830B508B9CC
:103BB400106030BD840702D013600120F9E7446827
:103BC400E5B28D42F8D108301060200AF1E7000018
:103BD4002DE9F04F93B00024402301904FF400707E
:103BE4000D460092CDE90534FCF724FB2023079011
:103BF4008020CDE90834FCF71DFB2146CDE90A05F8
:103C04000FA8CDE90D4405F0DFFC009B002B49D043
:103C1400022B0CBF3C222246A96BDFF8E0A2002352
:103C240005A8FFF702FD0027069C002C00F0688120
:103C3400013C0799AC4E069401EBC40351F83410CF
:103C4400DA785B68C1F31709A84911F802B0A849EA
:103C5400895C642A88BF41F4807106EB41060BF04D
:103C6400300110290BF00F081ED020294BD0002F53
:103C740000F00D81B8F1020F40F0FC80012B18D048
:103C840000211BF0010F03F1FF3006D074880AEA0B
:103C94000404B4F5805F08BF5808012800D161B15D
:103CA4000346B3E03A22B7E72BB906EB430698453F
:103CB40005D80127B8E7002FF7D10027B4E7374626
:103CC40036F8021B01EA0A00B0F5805F0DD195F8C1
:103CD4004000C1F30B01884213D105A81146FFF738
:103CE400CFFC2846FFF702F9E7E70133434503D247
:103CF400494605A8FFF799FC398805A8FFF7B6FCE3
:103D0400DBE70133D3E78FB103F10041013936F822
:103D140011100AEA0101B1F5405F1ED1002105A886
:103D2400CDE90232FFF76AFCDDE9023206EB430417
:103D3400984526D8009B002B49D1002406EB48085F
:103D44002746464567D1012F40F088801BF0400F7D
:103D540000F08480002631467AE0012BA9D995F839
:103D64004030052B40F0FA806249634807F0EEFBCF
:103D7400AA6B29680446002307F0AEFC2046FCF732
:103D840033FA274634F8021B01EA0A00B0F5805FD3
:103D94001BD195F84000C9B2884212D1072807D137
:103DA400114605A803930292FFF76AFCDDE902239A
:103DB4002846CDE90232FFF799F8029B039A0133B2
:103DC400B6E7002B3FF475AFC9E7013390E7052A46
:103DD400B3D1002105A80292FFF7D6FB029A00286E
:103DE400ABD1012105A8FFF7CFFB10F0030F029A16
:103DF40000F0BB8000F00F0002289ED005A8FFF75A
:103E0400BCFB05A8FFF7B9FB00230822494605A817
:103E1400FFF7E4FC51E738F8023D03EA0A01B1F583
:103E2400805F05D1DBB2072B8BD10134013788E7E2
:103E3400214605A80292FFF7A7FB029A00B10137B9
:103E440001347EE7FFF799FB0136002818BF0146CD
:103E5400A64205A8F6D1FFF7D1FB2EE71BF0800F91
:103E640006D0002105A80292FFF7C8FB029A01348C
:103E74002346CBE7012B3FF41CAF13F001013FF4C1
:103E840000AFB8F1030F7FF46AAF0121F9E608EA45
:103E9400030101F0010136F8114004EA0A00B0F50B
:103EA400805F17D195F84000C4F30B04A04203F1DE
:103EB40001040DD129B9114605A80292FFF7E0FBD0
:103EC400029A02922846FFF711F8029A2346DEE787
:103ED4002346CFE6494605A80133FFF7A6FB214652
:103EE40005A8FFF7C3FB9FE6DC3503082C35030860
:103EF4005A390308C23403080048030800F0FFFFDE
:103F04000FA805F075FB0E9850B1416822460831A0
:103F1400FCF7B6F90E9B5A681A600D9A5A600D9315
:103F240095F84030002B7FF41AAF099B002B3FF427
:103F340016AF0A9B07981B680C93FCF7A3F90A9821
:103F4400FCF7A0F92846FFF705FBDDE90C01019B0E
:103F540083E80300184613B0BDE8F08F022B01D1AB
:103F6400064902E70649074800E700283FF4E5AEA2
:103F74000379392B3FF442AFDFE600BFCB340308AB
:103F8400F23403080C4B030810B5406800B910BDA7
:103F94004468FCF777F92046F8E700002DE9F04182
:103FA400054630200E4690461F46FCF75CF9072D67
:103FB40004460570C660A0F8148001D0012D10D10C
:103FC400B268C2F30F12E28203F0D4FD042320612D
:103FD400678323852020FCF72DF9E0622046BDE8A5
:103FE400F081014B5A5DEEE7093A030810B5044627
:103FF400C06AFCF747F92046BDE81040FCF742B917
:1040040030B5458D04460022954201D8002030BDCC
:10401400E36A03EBC20043688B42F8D00132F3E752
:1040240070B504460D461646FFF7EAFFC0B9238D66
:10403400628D9A4208D30633D900E06AFCF715F979
:10404400238DE06206332385638DE26A591C02EBFB
:10405400C300618502F833600023437043804560E8
:1040640070BD034618465B68002BFBD1FFF7C8BF41
:10407400F8B544680E462CB9F8BD032BFCD10423D3
:104084000370F9E7254628466D68002DF4D077685B
:104094003946FFF7B5FF0028F5D00378033B022B20
:1040A400EAD8052333701D46002239462046FFF71F
:1040B400B7FF0378002BE0D105706468F4E7F7B527
:1040C4001E4659B111F0030511D14F68FCB2944258
:1040D4000DD13F0A01F10804BD4201DB03B0F0BD7C
:1040E40054F8041B01900135B0470198F4E73346B6
:1040F40003B0BDE8F0401847024B89689B22FFF7E4
:10410400DEBF00BF814C0008024B89686A22FFF7BA
:10411400D6BF00BFD566000810B504460846114650
:104124002268FFF73BFF636A436000238360236ACE
:104134000BB9206210BD1A469B68002BFBD190601E
:10414400F8E78968806A0022090902F084BF896857
:10415400806A02F05ABF2DE9F74F05460C46174610
:1041640098461BB10B8B43F008030B836B6A2784BF
:104174001B78002B3FD1A86A43463A46214603B038
:10418400BDE8F04F03F070B8DB6A03EBC60B13F81D
:104194003630043B012B1BD84FF0000915E0E36ACD
:1041A40003EBC90213F83930052B0CD1DBF80410EA
:1041B4005368994207D1BBF80220A86A002302F091
:1041C400D0FD0AF1010A09F10109638D4B45E6DCD2
:1041D40001366B6A5A8DB242D6DCBAF1000FCAD0EE
:1041E400A86ACDF800803B465246214603F04AF8BF
:1041F40003B0BDE8F08F0026B246EAE7F8B50446FE
:104204000E4611461A460023857947698371436136
:104214000D4BFFF754FFA368A3B9E18A39B1A28A11
:104224002AB9A06A02F0EFFFA06A02F0F0FEA38AA6
:10423400E28A31462046FFF78EFF003D18BF012574
:10424400A5716761F8BD00BF6553000870B5437977
:10425400012B05460C4606D1436A0A465B8B0221B4
:10426400FFF75AFF2061A268216928464B23BDE865
:104274007040FFF7C3BF70B513464279012A054663
:104284000C4604D10A460721FFF746FFA061A66940
:10429400E268284643233146FFF7B0FFF08A70BD39
:1042A40010B50446806A02F051FFA38B626A0133A1
:1042B400D18C9BB29942A38338BFD38410BD838B26
:1042C400013B8383806A02F060BF31B1026801F070
:1042D4000303134304BF0B680360704738B5836856
:1042E4000D460446114653B9054807F02FF92946EF
:1042F400A06004F10C00BDE83840FFF7E6BF38BD0C
:104304000C4B0308014AFFF7E9BF00BF103A03084A
:1043140038B50B79092B0CBF058B458B4FF6FF7312
:104324009D42044602D1064AFFF7D8FFA28BE38BD5
:10433400A06AD21A2946BDE8384002F0D6BE00BFB2
:104344001D3A030870B50546406A068B0C46B10752
:1043540006D5214A21462846BDE87040FFF7BEBF76
:1043640004F00F01022912D12109AB791BB1C38BCF
:104374000133C38302E0838B01338383012651B36A
:104384000022FFF74DFE037813B3144AE2E72179C4
:10439400914202D1A1680909E7E7994211D1AB79A9
:1043A400002BD6D10123AB71A168A1B101F00F0399
:1043B400022B18BF896846F0040606830909032600
:1043C400DDE7A16846F00206068309090526D6E75B
:1043D40003230370467070BDF2340308363A0308B1
:1043E4004E234D22FFF7AEBF46234522FFF7AABF57
:1043F40010B504460021006802F0CCFE20680E21AE
:1044040002F0B0FD20680121BDE8104002F077BF42
:1044140010B504460022806A02F0FDFD54F8280F0E
:1044240000231A46194602F04EFF2046BDE810400C
:10443400FFF7DEBF10B404460B466279406A012AD6
:1044440003D15DF8044BFFF7EBBD02460249A06AB5
:104454005DF8044B02F09EBA5C3C030810B4426A57
:104464000446407901280B4604D15DF8044B1046FC
:1044740002F082BAA06A02495DF8044B02F08ABADB
:10448400643C0308436A10B55A8B0446FFF7F3FEF5
:1044940001462046BDE81040FFF7E0BF10B4426A71
:1044A4000446407901280B4604D15DF8044B1046BC
:1044B40002F062BAA06A02495DF8044B02F06ABADB
:1044C400543C030837B505460C4629B1CA0705D53F
:1044D400806A491002F052FD03B030BD8B072CD026
:1044E40001F00F04062C4FEA111307D00A2C0AD04E
:1044F400022C1BD11946FFF79DFFEDE7806A194690
:1045040002F07EFDE8E74279042A04D0806A06219D
:1045140002F07BFDE0E701A91846FCF7FAFC0199DB
:10452400AC6A0AF0ABFB01462046F1E7042BD3D07A
:10453400806AD9B202F016FDCEE70968806A02F0FB
:1045440099FC2279034B214653F822302846984798
:10455400C2E700BF6C3B03082DE9F14F0D46A907E4
:104564000446164611D005F00F03022B16D1F207AC
:104574004FEA151104D401B0BDE8F04FFFF76EBF48
:1045840001B0BDE8F04FFFF755BF6968CBB22C2BE3
:1045940072D00BD8062B0DD02B2B12D0504A2946A3
:1045A400204601B0BDE8F04FFFF798BE2D2B74D024
:1045B4009B2BF3D1002EF1D105F108030A0A002147
:1045C4007EE0022A02D0A968FFF77CFFEF68002F83
:1045D400E4D017F00309E1D17B68DAB28C2AB8463B
:1045E4000DD1022E4FEA132805D007F1080A08F16D
:1045F400FF3BD9450EDB08F1010857F8288098F8ED
:104604000430302B1FD1022E0CD1A06A02F03CFDE5
:10461400012112E05AF8041B2046FFF753FF09F169
:104624000109E6E7D8F808102046FFF74BFF012EF2
:10463400EED1A06A02F002FD0021A06A01B0BDE83B
:10464400F04F02F025BD312BA8D1012EA06A0BD169
:1046540002F0F0FCD8F808100022A06A090901B0A1
:10466400BDE8F04F02F0F7BC022E01D102F0EFFCDE
:10467400D8F808100122F0E7A86800288ED0002A94
:104684008CD1C16839B311F0030324D14A68D6B27E
:10469400932E17D11A46816812E0002A7FF47EAF68
:1046A400A96829B90B4601B0BDE8F04F00F01AB86B
:1046B4008B0703D10B79902B0846E2D000231A46CE
:1046C4002046F0E7942E03D101F10803120AE2E731
:1046D400AB2E3FF463AF00F1080302226FE700BF83
:1046E400403A03082DE9F84F0E1E05461746994631
:1046F40014BF4FF001084FF000081DD016F003045A
:104704001AD13379212B17D1806A214602F0A2FDF8
:104714004FF0000A07F1FF3BBA4510D1631C29D1C1
:10472400A86A08EB070102F090FD66BB09EB870756
:10473400B9452BD1BDE8F88F4FF0FF34E8E759F8BD
:104744002A1071B18A070CD10B79212B09D10134BC
:104754000AD10AEB0804A86AABEB0A02214602F06C
:1047640079FD0AF1010AD7E728460E4ABDE8F84F59
:10477400FFF7B4BD002ED9D02CB9B1682246284623
:10478400FFF7EAFED2E700223146F8E759F8041BA6
:10479400A04508BF896800222846FFF7DDFE08F11E
:1047A4000108C5E74B3A03082DE9F74F06460C46C6
:1047B40015461F462046FEF7D3FF08B1E5B904E0CD
:1047C4002046FEF7DBFF38B1B5B1B06A394603B015
:1047D400BDE8F04F02F072BC002C54D0A30752D1B4
:1047E40063684FEA132BDBB21D2B1BD1F5B10834E0
:1047F40004EB8B0B5C450DD103B0BDE8F08F5AF888
:10480400041B019243463046FFF7CEFF09F101092C
:10481400019A19E054F8041B3B462A463046FFF738
:10482400C3FFE7E71E2B22D1002DE0D0D6F810807D
:1048340008F1010333610BF1FF3304F1080A4FF06F
:104844000009009385F00102009B4B45D7DC0BF176
:104854000101304654F821103B462A46FFF7A4FFD5
:10486400B06A414603B0BDE8F04F02F053BB1F2BC2
:1048740003D1A46885F001059CE72C2B03D1A36820
:10488400002BA1D19AE721463046FFF71BFEB06A00
:104894003A46294603B0BDE8F04F02F014BC2DE9B6
:1048A400F843076904461E46BB1C03610D46806A33
:1048B400394607F10109904602F02CFBA06A4946EB
:1048C40002F070FCA96800222046FFF745FE2D691E
:1048D4000DBB41462046FFF7F5FD636A19780629AA
:1048E40013D1A06A294602F00AFDA06A02F0AAFBCD
:1048F400A06A394602F0E2FBA06A494602F00AFBCC
:10490400A06ABDE8F84302F052BCB200A06A0532C6
:1049140002F089FCECE72B79AC2B07D1A9683B4664
:1049240000222046FFF740FFED68D1E7E968204602
:10493400FFF7C8FDA06A012102F02CFC731C42465B
:1049440029462046FFF7ABFFD2E700002DE9F041EE
:104954000E46002504464271056111464662324600
:10496400806A02F079F86779012F08BF7562F568EB
:1049740065B1AA070AD12B793C2B07D1A968204637
:10498400FFF7A0FDA06A02F0AAFC1FE0337843B948
:1049940029462046FFF796FDA06A0E2102F0E2FAAE
:1049A400F0E7072B17D1012F07D10023A371E96882
:1049B4004E4B43222046FFF782FB20466969FFF7EE
:1049C40081FDA06A02F049F90028E5D0A06ABDE89B
:1049D400F04102F0FBB8022B19D12968A06A02F059
:1049E40049FA6379012B07D10023A371A968404BCD
:1049F4004B222046FFF763FBE9682046FFF762FD80
:104A0400338BDB07BED5A06A02F01CFBC4E7033B73
:104A1400032B40D8012FD5F80C8005D1606A0322FE
:104A24003946FFF7FDFAB7832968A06A02F022FA33
:104A34003378032B1ED10122A06A002102F0E3FB8C
:104A44003378062B1ED1A06A02F0E1FA0121204638
:104A5400FFF7F0FCA06A02F0DAFAA06A02F0D7FAD3
:104A64000023AA6841462046FFF719FF3378062B36
:104A740088D191E7042B01D10222DDE7052BDFD198
:104A84000322D9E720460121FFF7D4FCA06A0121C3
:104A940002F080FBE4E7012F04D103220A2130460F
:104AA400FFF7BEFA17212046FFF7C4FC1621204663
:104AB400FFF7D4FCA968A06A090902F0A1FA1A2137
:104AC4002046FFF7CBFC29692046FFF7FBFC0A21AF
:104AD4003046FFF795FA0378032B3FF45DAF428825
:104AE400A06A00230A2102F03CF94BE7ED430008D9
:104AF400E543000838B50C460546C968FFF7E2FCF3
:104B0400A1682846BDE83840FFF7DCBC38B50B790E
:104B1400332B04460D460CD18968FFF7D3FCED68AE
:104B2400AD685DB9A06A0E2102F01CFA04220221CC
:104B340015E0806A0E2102F015FAF1E7AB071CD1EB
:104B44002B79982B10D10E21A06A02F00BFAA968D8
:104B54000029EBD02046FFF7B5FC04220321A06A0C
:104B6400BDE8384002F04FBB992B06D1A968204616
:104B7400FFF7A8FCEB689968EAE729462046FFF7A7
:104B8400A1FCD3E710B504468968FFF79BFCA06A33
:104B94000021BDE8104002F07BBA2DE9F041064641
:104BA40015460C4611B1FFF78DFC01243DB16F6829
:104BB4004FF000083F0A0835B84507DB3C44B06AAB
:104BC40021460022BDE8F04102F01DBB55F8041B4C
:104BD4003046FFF777FC08F10108EDE70A460021AB
:104BE400FFF7DBBF2DE9F0470669D0F818A0B0F84D
:104BF4001E900683B31C036106F10108838BA0F8A1
:104C04001A800446C38388680D46FEF7A9FDE0B9FF
:104C140027697B1C2361A868FEF7B0FD18B9A06A58
:104C2400414602F04BFAA06A394602F073F9E9688A
:104C34002046FFF747FCA06A414602F06BF9A968D9
:104C44003B4601222046FFF7AFFD2969C4F818A0AE
:104C54002046A4F81E90FFF735FCA06A3146BDE853
:104C6400F04702F057B910B504468968FFF72AFCEB
:104C7400A06ABDE8104002F0E5B900002DE9F74351
:104C84000C4604F00F03022B05D1210903B0BDE843
:104C9400F043FFF703BC002C6DD0A2076BD123793E
:104CA4002B2B3BD1A1680190FFF70CFCE568019820
:104CB400002D60D015F003075DD16E68F2B28C2A26
:104CC4002B4609D1360A05F1080806F1FF39B94522
:104CD40011DC013655F826301A79302A13D1996837
:104CE4000190FFF7EFFB0198806A022103B0BDE851
:104CF400F04302F0CDB958F8041B01900137FFF7D7
:104D0400E1FB0198E3E7312A35D19968806A0222F0
:104D1400090903B0BDE8F04302F09DB92C2B2AD158
:104D2400A46844B3E568FDB1AB071DD16E68F2B267
:104D3400932A01D1A468A4E7942A13D1A16801900D
:104D4400FFF79CFF360A08350024B442019802DBC1
:104D540003B0BDE8F08355F8041B01900134FFF75C
:104D64008DFFF2E7AB2A06D0A1680190FFF786FF1A
:104D7400E468019885E7034A214603B0BDE8F0439F
:104D8400FFF7ACBA523A03084B682DE9F0410546E7
:104D94000E461F0A01F108080024BC4201DBBDE8ED
:104DA400F08158F8041B2846FFF78CFBAB6843B12D
:104DB400023405F10C0056F82410BDE8F041FFF769
:104DC40084BA0134E9E710B50446FFF7DDFFA06AB1
:104DD4002221BDE8104002F0F8B92DE9F347066935
:104DE400731C0361044688680D46FEF7B9FC02464D
:104DF400F8B927697B1C2361A9683B462046FFF765
:104E0400D3FC2046E968FFF75DFBA868FEF7B6FC13
:104E1400E8B92B690BB96B693BB1A06A01F01DFFBE
:104E240018B9A06A314602F049F9A06A394602F07D
:104E340071F801AA702105F11000FEF7B5FE0027F4
:104E440081464F450AD169692046FFF73BFBA06ABA
:104E5400314602F05FF802B0BDE8F087019B53F8D9
:104E64002780D8F80800FEF77BFC024608BBD4F87C
:104E740010A00AF101032361D8F808105346204614
:104E8400FFF792FC2046D8F80C10FFF71BFBD8F86C
:104E94000800FEF773FC0028D9D1A06A01F0DDFEFA
:104EA40018B9A06A314602F009F9A06A514602F025
:104EB40031F80137C5E770B54379CE68012B044654
:104EC400154606D1436A0A465B8B2946FFF724F947
:104ED4007061002371691A462046FFF73CF9F168B6
:104EE4002046FFF7EFFA062D03D1A06A002102F055
:104EF40051F90023A06A1A46BDE87040012102F06E
:104F0400D7B970B58D68044635B901222946A06A1F
:104F1400BDE8704002F077B9AA0730D12B79902B05
:104F24002DD1EE6806B3B3071ED13379932B05D187
:104F3400A968FFF7C7FA01221146E8E7942B0BD1C1
:104F4400A968FFF7BFFA31462046FFF71DFF7168D5
:104F54000122090A1144DAE7AB2B05D129460322C1
:104F6400BDE87040FFF7A7BFA9682046FFF7AAFA7B
:104F7400E9682046FFF7A6FA01220221C7E729467D
:104F84002046D6E72DE9F04F87B0CDE9022104464B
:104F940005AAA32103A81F46FEF706FE4FF0000B47
:104FA4000190D946DA465E46D846019B9B4516D108
:104FB4005EB1BAF1000F67D1A06A02F028F8B9F126
:104FC400000F67D1A06A02F022F8029BA06A002BAE
:104FD40066D033464246394602F075F910E0059A28
:104FE40052F82B50002D40D0A8073ED12A79A52A8B
:104FF4000FD1F10707D52D4A29462046FFF76EF950
:1050040007B0BDE8F08F46F00106AA460BF1010B8C
:10501400CBE7A62A07D1B20701D5254AECE746F02B
:105024000206A946F2E7A72A1FD1EA6822B193072C
:1050340002D11279AB2A11D0A96801F00F02022A19
:1050440001D01C4AD8E7A06A090901F0D9FFE96830
:105054002046FFF737FA08F10108D7E70622294668
:105064002046FFF728FF0137D0E70EB1124AC3E705
:10507400B8F1000F01D0114ABEE729462046FFF7D8
:1050840021FA01374646C1E7DAF808102046FFF74F
:1050940019FA94E7D9F808102046FFF713FA94E7B1
:1050A40033464246394602F003F9A9E75C3A03085D
:1050B400633A03086B3A0308783A0308813A030811
:1050C40070B50D46417901290446134603D12A4699
:1050D400FFF722F86861A06A01F0A8FF6E69002357
:1050E4001A4631462046FFF736F8F18AA06A01F0E5
:1050F40087FFE96829B18B0703D10B79A22B08BF7D
:105104000021204602230022FFF73CFFF08A70BDF5
:10511400436A10B55A8B0446FFF7D2FF0146204676
:10512400BDE81040FFF79AB9002389681A46FFF7D3
:1051340029BF00002DE9F04F044685B00F4602AAAE
:105144003F2107F10800FEF72FFD636ADFF8E0A0B6
:105154005E8B00258346A9465D4509D1F9680B7924
:10516400032B3ED132462046FFF785F8054646E03C
:10517400029B53F82530009303AA6B2103F1080026
:10518400FEF712FD039B19680A09732A80460CD0A6
:105194002046FFF797F90123434516D3009BD968AE
:1051A40059B12046FFF78EF907E0022807D052468E
:1051B4002046FFF793F809F101090135CCE7596856
:1051C4000B09412BF3D10126F5E7039AA06A52F8A3
:1051D400231001930022090901F03DFF019B0133D3
:1051E400DAE7412B17D18F68324639462046FFF75C
:1051F40042F8BA69138B43F0010305461383002672
:10520400ABEB0909B1450BD829462046FFF726F92F
:1052140005B0BDE8F08F32462046FFF751FFA5E701
:105224000023A06A1A46012102F042F80136E9E798
:10523400883A03082DE9F7438D680446164635B9C4
:10524400C2B102222946A06A01F0DDFF12E015F086
:10525400030776D12B79362B0FD122B1806A022233
:10526400012101F0D0FF20462946FFF72BF9A06A5F
:1052740001F0D4FF03B0BDE8F0839D2B61D1EB684E
:105284001A79A02A4DD1A12101AA03F10800FEF741
:105294008BFCA9688046D9B18B0719D10B79362BC1
:1052A40016D126B1411C0222A06A01F0ACFFA96804
:1052B4002046FFF707F9A06A01F0B0FF4FF001099B
:1052C40047450BD1B9F1000FD4D10322791CBAE7B9
:1052D4002046FFF7F7F84FF00009F1E7019B53F878
:1052E400271099B18E0711D10E79A6F136004642E6
:1052F40046412046FFF7E6F8B9F1000F0DD03EB95C
:10530400134A29462046FEF7E9FFB3E70026F0E7F3
:10531400A06A01F083FF0137D2E7002EFBD00D4ACB
:10532400EFE7AB684BB19A0707D11B79362B04D151
:1053340004222946FFF7BFFD9CE7052229462046A3
:10534400F8E729462046FFF7BDF8032201217AE752
:10535400A03A0308AE3A03080122FFF76BBF00002E
:1053640001F00F03022B70B504460ED04B6803F016
:10537400F702462A02D10123837170BD472AFCD06B
:10538400DBB2452B0DD10D696DB9A379002BF4D196
:10539400E38A002BF1D02046194ABDE87040FEF79D
:1053A4009DBFCD68F0E7A3790BB3A38A8E68013360
:1053B4009BB2012BA3820AD1E18AA06AA1B1002287
:1053C40001F021FFA06A0222002101F01CFF2946FE
:1053D4002046FFF777F8A06A310901F011FEA06AB0
:1053E400BDE8704001F01ABF01F011FEEAE7E38A5C
:1053F4000133E38229462046BDE87040FFF762B8D6
:10540400B93A03082DE9F7430C4689680546FFF7C6
:1054140059F8E668002E56D07768696AFBB20978B5
:105424008C2BA36819BF04F10C0601273F0A083628
:10543400072903F00F024BD1022A47D11A099A2AED
:1054440048D1326811792F2944D19268002A41D178
:105454000A212846FEF7EEFF6A6AD36A528D3AB9EA
:105464003F4A3168284603B0BDE8F043FEF736BF33
:105474005978C9070DD559682846FEF7DBFF022F76
:105484000AD80023A86A1A46022101F011FF012458
:1054940017E0013A0833E2E773681A79312AF0D148
:1054A400B46822792F2AECD19968A86A01220909E3
:1054B40001F0B1FDA168002301222846FFF762FD37
:1054C4000324A74225D803B0BDE8F0830024F8E7FD
:1054D400022AFBD140F2B112B2EB131FF6D13368AA
:1054E4001A792F2AF2D19C68002CEAD014F0030216
:1054F400ECD123792E2BE9D1A86A019213461146E7
:1055040001F0D6FE3368019A99682846FFF792FEA7
:10551400BDE704F10108B84556F824104FEA8403A6
:1055240019D20A79312A16D13344D3F8049099F860
:1055340004302F2B0FD18968A86A0022090901F0D1
:105544006AFDD9F80810002301222846FFF71AFD46
:1055540008F10104B5E72846FEF7B4FFA046F7E7D3
:10556400D73A030810B5426A1278072A04460B4654
:1055740006D0022A04D0BDE81040064AFEF7AEBEAB
:1055840020461946FFF73EFF04F12800BDE810400D
:10559400FEF72EBFE63A0308F8B54B680C46896857
:1055A40005461F0AFEF78EFF0C3400260236B7426A
:1055B40004F1080400DCF8BD54F8041C2846FEF786
:1055C40081FF54F8081CA86A09092239C9B201F0FC
:1055D400FCFDEBE72DE9F0414D680C468968064671
:1055E400FEF770FFA5F10C085FFA88F82D0A0C3459
:1055F4000127AF4201DBBDE8F08154F8041B3046BB
:10560400FEF760FFB06A414601F0DFFD0137F0E7C5
:105614002DE9F041CD6804460E461DBB0379A3B1C4
:10562400436A1D788DB9CC21FEF704FFB16820468A
:10563400FEF748FFA06A2B462A46012101F038FEF6
:10564400A06ABDE8F04101F0FDBCB168880700F034
:10565400A28001F00F03022B40F0A4802046FEF745
:1056640031FFEDE7A90740F090806B68DAB2562A63
:1056740011D10122B168FEF76FFFE9682046FEF7F9
:1056840021FFA968A06A09093C39C9B201F09DFD4E
:105694000222B16874E0572A21D11B0A5F1E01332C
:1056A40055F82310FEF70EFF002F02DDA06A01F06B
:1056B400C1FCB16800222046FEF74EFF08350026E3
:1056C400BE426FDA0136BE4202DAA06A01F0B2FCD1
:1056D40055F8041B00222046FEF73EFFF0E7062A99
:1056E40053D1B768002F50D0BA074ED17A68D1B2DF
:1056F40006294AD11B0AB3EB122F4FEA122844D1D0
:10570400A8F10203012B40D8BB6823B1980702D14A
:105714001B79212B39D0FB6823B1990702D11B795E
:10572400212B32D0B8F1020F06D03B6923B19A077E
:1057340002D11B79212B28D0A9682046FEF7C2FE8E
:10574400E9682046FEF7BEFEB8F1030F06D12046F5
:105754002969FEF7B7FEA06A01F096FCA06A01F081
:1057640076FCB96800222046FEF7F6FEF9680022AE
:105774002046FEF7F1FEB8F1030F13D13969002278
:105784002046BDE8F041FEF7E7BE29462046FEF775
:1057940099FE00227DE700293FF460AF0B79392B95
:1057A4007FF45CAFBDE8F08138B50C46C9680546A6
:1057B400FEF788FEA168A86AC1F30711312918BF52
:1057C4003D39BDE8384014BFC9B2022101F0F8BC2C
:1057D40010B504468968FEF775FEA06A0321BDE88A
:1057E400104001F0EDBC2DE9F8434E68D0F810806C
:1057F4005FFA86F9A9F11D03D3F1000949EB030906
:1058040008F1010304460361360A01F10805002783
:10581400B74205DBA06A4146BDE8F84301F07ABB14
:1058240055F8041B20460137FEF74CFEB742F1DA67
:10583400A06A4246494601F04FFCE9E72DE9F041F0
:105844004E6804460D46360A8968FEF73BFE032E71
:1058540083BFD4F8108008F1010323614FF00008DE
:1058640001277B1CB3421CDB032E4ADD2569A06A99
:105874006B1C2361294601F021FCA06A414601F01A
:1058840049FB0121A06A01F0EDF9A06A01F0DFFBF8
:10589400A06A01F0D7FBA06A2946BDE8F04101F0F7
:1058A40039BB296920460237FEF70CFEB74205DAF8
:1058B400A06A01F0BFFBA06A01F0E6FBEB68A06AF6
:1058C40003F00F020E2A11D1C3F30713242B1ABFBE
:1058D400323BD9B2062101F078FCB74204DAA06A5F
:1058E4004246002101F0F8FB0835BAE71A79832A09
:1058F40001D13221EFE79B680BB90721EBE7332194
:10590400E9E7BDE8F0812DE9F0410569D1F80C80A3
:10591400AB1C03610E4604462B460022D8F808103F
:10592400FEF742FF6F1CB1682046FEF7CBFDA06A6C
:10593400394601F0C3FBA06A294601F0EBFAA06ADC
:105944004FF0FF3101F08EF9D8F80C102046FEF725
:10595400B9FDA06A3946BDE8F04101F0DBBA2DE992
:10596400F04F8B682DED028B03F00F03022B87B0F1
:1059740004460E4640F0EE80CB68002B00F0EA802F
:10598400980740F0E7801A792B2A40F0E3809A6860
:1059940002F00F01022940F0DD8012097C2A40F058
:1059A400D980DB681A792F2A40F0D4809B6804934D
:1059B40005AAA32104A8FEF7F7F8431E022B00F260
:1059C400C980059901280A6800F0B7800228D1F837
:1059D40004A000F002818D68E90740F1BB806B08E8
:1059E40000F0B88032B1930704D11179A5390229A6
:1059F40040F2B080BAF1000F08D01AF0030F05D1BD
:105A04009AF80410A539022940F2A480B368776992
:105A1400A18B08EE103A3369266908EE903AA3691F
:105A24000293E38B0193E183731C311D1AF0010B84
:105A3400039306F102082683638306F103092161B7
:105A440005D1514620460392FEF73CFD039A1146C8
:105A54002046FEF737FDA06A494601F02FFB414678
:105A6400A06A01F057FAA06A01F0E4FA002218EEE5
:105A7400101A2046FEF770FD18EE901A2046FEF725
:105A840021FDA06A711C01F045FA29462046FEF763
:105A940019FDA06A0E2101F098FBA06A494601F0A5
:105AA40039FAA06ABBF1000F4BD101F0C7FAA06A22
:105AB40001F0CDFA002DACBF00210121A06A01F054
:105AC40084FBA06A4246012101F0FDFA029BA36116
:105AD400019BE383002F3BD0A06A01F0B3FABBF132
:105AE400000F02D1A06A01F0ADFA39462046FEF754
:105AF400E9FC2569A06A6B1C2946236101F0DEFAE2
:105B04008BF00101A06A013101F0ACF8A06A3146C2
:105B140001F000FAA06A01F095FABBF1000F02D17E
:105B2400A06A01F08FFA1FB1A06A294601F0F2F9C8
:105B340007B0BDEC028BBDE8F08F92460325024608
:105B440058E701F077FA51462046FEF7BBFCB1E76F
:105B54003D46DBE72569A38BB4F81E90E3836FEA27
:105B640045436FEA5343D4F818A02383EB1C236105
:105B74006F1CF16867832046FEF7A4FCA06A01212C
:105B840001F008FB05F10208A06A394601F0C2F9E8
:105B9400A06A414601F006FBB16800222046FEF7E8
:105BA400DBFC20463169FEF78DFCA06A01F055F854
:105BB40018B9A06A394601F081FA4146A06A01F099
:105BC400A9F9A06A01F0F3FA7169C4F818A0A4F85D
:105BD4001E902046FEF776FCA6E7032502E72DE992
:105BE400F7430446904699460F4629B9194603B02F
:105BF400BDE8F043FEF766BC0669731C03611568D3
:105C040025B315F0030221D12B797A2B1ED1A96873
:105C14000192FEF757FC019A31462046FEF740FBFD
:105C2400019AE9682046FEF797FC4B4608F1040206
:105C3400791E2046FFF7D3FFA06A314601F090FA9F
:105C4400204603B0BDE8F043FEF739BB29462046A1
:105C5400FEF738FC204600223146FEF721FBA06AFD
:105C640001F0F0F9E1E737B50C46054601AA7921C0
:105C740004F10800FDF798FFE368019A01462846FD
:105C8400FFF7ADFF03B030BD2DE9F04F2DED028BD2
:105C940083B0056901921E460E9B08EE103AAB1CB8
:105CA400044603610F4601222946FEF7F9FA05F17D
:105CB400010A39462046FEF705FC0022A06A514637
:105CC40001F079FAA06A294601F024F9A06A01F0EA
:105CD40024FBD4F8108008F1010323610027019B01
:105CE4009F4217DB2046FEF7EAFAA06A01F018FB90
:105CF400A06A514601F00EF918EE101A2046FEF77C
:105D0400E1FBA06A414603B0BDEC028BBDE8F04F55
:105D140001F000B93346D4F810901A68009209F1E2
:105D240001022261009AD2F808B004360137BBF1AF
:105D3400000F3FD1019ABA422FD1A06A01F082F933
:105D44000025AB46009B2046D968FEF7BBFBB5B1E6
:105D5400A06A0E2101F006F9A06A594601F0DAF8AA
:105D6400A06A0E2101F0FEF829462046FEF776FBD4
:105D740020462946FEF792FB2046FEF7A0FAA06AC9
:105D84000122414601F017FAA06A494601F0C2F81F
:105D9400A06A012100F066FFA1E720461D4A1968A8
:105DA400FEF79CFA204603B0BDEC028BBDE8F04F31
:105DB400FEF785BA1BF0030529D19BF80420752A48
:105DC4005B4603D1DD68DBF808B02D09A06A01F059
:105DD40031F959462046FEF775FBA06A082101F007
:105DE400F4F9A06A4A46002101F06DF9002DA4D00F
:105DF40029462046FEF732FBD4F810B00BF101021D
:105E04002261594602222046FEF74AFA9AE7002503
:105E1400DCE700BFF13A03082DE9F043076985B0D8
:105E240016467A1C02610D46022239460393DDE9C7
:105E34000C980446FEF734FA039BF6B9A06A0321D2
:105E440000F010FF29462046FEF73CFBA06A6FF0E5
:105E5400020100F007FFA06A0E2101F083F8A06A96
:105E6400394601F057F820464146FEF72BFB204601
:105E740005B0BDE8F043FEF722BACDF800903246F3
:105E840029462046FFF700FFE5E77FB5CD682B796B
:105E9400772B06460C4609D1AB6801930023009387
:105EA40089681A46FFF7B8FF04B070BD732B03AAC4
:105EB4004FF0760116D105F10800FDF775FE2B6948
:105EC40002463BB9EB680093A168039B3046FFF799
:105ED400DBFEE9E79B680193EB680093A168039BF1
:105EE4003046DFE704F10C00FDF75EFE00230246B6
:105EF400E9E72DE9F74F044693460F4629B91946B9
:105F040003B0BDE8F04FFEF7DDBA0669321D026149
:105F1400DBF8005006F1010906F1020A06F1030854
:105F2400002D00F0CA8015F0030240F0C6802979E4
:105F34007A2940F0C280A968CDE90032FEF7C2FA9E
:105F4400A06A01F077F8A8212046FEF761FA019AC9
:105F5400E9682046FEF700FB009B009302223146CD
:105F64002046FEF79DF9A06A032100F07BFE009B0A
:105F74000BF10402791E2046FFF7BBFFA06A6FF005
:105F8400020100F06FFEA06A0E2100F0EBFFA06A90
:105F940001F05DF8A06A494601F090F83146A06A24
:105FA40000F0B8FFA06A01F045F8A06A012221219F
:105FB40000F012FFA06A082101F007F952460021FF
:105FC400A06A01F080F8A06A01F034F8A06A01F038
:105FD4005BF8A06A01F03BF80022A921A06A01F055
:105FE4001AF8A06A01F050F8A06A01F04DF8A06A0E
:105FF40001F020F80022A06A0A2101F02CF82546BD
:10600400A06A01F024F8A06A0E2100F0ABFF00237F
:1060140055F8280F1A46032101F055F92846FEF7D2
:10602400E7F94246A06A002101F04DF8A06A01F0A8
:1060340009F8A06A0E2100F095FFA06A414601F01C
:106044003DF8A06A022100F00DFE5146A06A00F05E
:1060540061FFA06A01F018F8A06A01F015F8A06ABF
:10606400494600F057FF0022A06AA92100F0D3FF9F
:106074000E21A06A00F076FFA06A00F0DBFFA06AA0
:1060840000F0D8FF00231A460321A06A01F01BF98F
:106094002846FEF7ADF9A06A00F0D4FFA06A4FF0DD
:1060A400FF3100F0DFFDA06A414600F033FF2046D7
:1060B40003B0BDE8F04FFEF702B92946204600932D
:1060C400FEF700FAA06A00F0B5FF2046A821FEF70B
:1060D4009FF9A06A00F0B6FF3EE72DE9F04F8D6806
:1060E4002B79032B87B004460AD12946FEF7CAF957
:1060F400AA69138B43F00103138307B0BDE8F08F43
:10610400162B40F08E800669EB68321D02614FEA5F
:106114001318E968731C0393FEF7D4F92046AA21E7
:10612400FEF776F941462046FEF798F92769A369F8
:10613400A06A0293BA1C07F101092261A28BE38BC6
:106144002783E2834946A4F81A90019300F0E2FE03
:10615400039B012219462046FEF7A2F84146204639
:10616400FEF768F92046AC21FEF752F906F1020A5F
:10617400A96820460022FEF7EFF90022A06A5146E2
:1061840001F019F8039BA06A194600F0C3FEA06A47
:1061940001F0C3F8A06A00F04DFFA06A01224FF499
:1061A400E67100F019FE06F1030BA06A082101F064
:1061B4000CF85A46A06A002100F085FFA06A00F09E
:1061C40041FF0122A06A314600F0F5FFA06A59465A
:1061D40000F0A0FE0121A06A00F044FD2046FEF775
:1061E4006EF8A06A01F09CF8A06A514600F092FE95
:1061F40029692046FEF766F9A06A494600F05EFF69
:10620400029BA361019BA06AE383314600F082FEF6
:1062140069692046FEF756F9A06A394600F07AFE0D
:106224006BE705AA792105F10800FDF7BDFCEB68D1
:10623400059A01462046FFF75CFE5EE738B5426AE0
:106244001278072A04460B4606D0022A04D0BDE879
:106254003840114AFEF742B89D684DB9A06A0E2134
:1062640000F080FEA06A0021BDE8384001F047B884
:10627400AB070CD12B79AE2B09D12046A968FEF7C8
:1062840021F904F12800BDE83840FEF7B1B82946E9
:106294002046FEF717F9E5E7093B0308F8B5426A1B
:1062A4001278072A044604D0BDE8F840164AFEF7DF
:1062B40015B88D6845B9806A0E2100F053FEA06AB6
:1062C400BDE8F84001F00BB815F003021AD12B79A0
:1062D4001A2B17D10669EF68731C0361B96833463A
:1062E400FEF762FAA9682046FEF7ECF8A06A00F00F
:1062F400F6FF3146A06A00F00DFEF9682046FEF76D
:10630400E1F8DCE72946F9E7143B0308896830B46F
:10631400044619B90A4630BCFEF73FBCCB688BB1C2
:1063240013F003020ED11D79932D01D18968F2E790
:10633400942D01D11A46F9E7AB2D03D130BC0622C6
:10634400FEF7B9BD0A4620460021E4E7F8B5144B30
:10635400D3F8DC7104460D460FBB0669731C036158
:10636400896833460122FEF71FFA1F21A06A012221
:1063740000F032FDE96841B12046FEF7A3F8A06AB7
:106384003B463A46012100F093FFA06A012100F048
:10639400B0FFA06A3146BDE8F84000F0BBBDF8BDCF
:1063A4006C2B002038B58D6804462DB92946A06AA7
:1063B400BDE8384000F09DBFAB070BD12B795D2BB6
:1063C40008D1A968FEF77EF8E9682046FEF77AF856
:1063D4000221ECE729462046FEF774F80121E6E79E
:1063E4002DE9F04F4379012B85B004460D460AD1BF
:1063F40091F80480B8F1100F08D0436A1B782BB9C8
:10640400234AFDF76BFF05B0BDE8F08F03AA6C21AA
:1064140005F10800FDF7C8FBDFF87890DFF878A0F5
:10642400DFF878B007460026B742ECD0039B606AD9
:1064340053F8261000220909FDF7F2FDB8F1100FF8
:106444000378014613D113F0FD0F05D05A462946AF
:106454002046FDF743FF08E0022303704168606AA9
:10646400FDF7FFFD08B1022303700136DCE75BB9D9
:10647400012303700190606AFDF7FAFD01990B781E
:10648400012BF2D15246E2E7052BEED04A46DEE775
:10649400203B0308503B0308433B0308363B0308F7
:1064A4002DE9F04F87B0814600AF0C4611B90121A8
:1064B400116013E011F0030619D10B79672B06D193
:1064C400CB681B0913608C68002CF0D0012604F003
:1064D4000F03022B0DD12109002EE9D0D9F80000B9
:1064E400002200F026FD1C37BD46BDE8F08F0026D3
:1064F400EDE716B9A3681B09136063684FEA132814
:1065040004F1080308F1FF3AFB609B460025A84507
:1065140025DC0AF1070323F00703ADEB030D6B46FB
:106524001D464FF0000BD84521DC51461846FAF7BA
:1065340049FC00220146D9F8000000F0FAFC002EC4
:10654400D1D00C340125A845CDDD54F8041BD9F86D
:1065540000000022090900F07EFD0135F3E75BF835
:10656400040B0009FAF7CBFC01358244CFE7BBF1F9
:10657400000F03D04FF02E0205F8012B7B60FB685F
:1065840053F8040BFB6007F114010009FAF7C1FC8E
:106594007A69BA600146284615F034F8BA687B680F
:1065A40015440BF1010BBEE7F0B58D6805F00F0340
:1065B4000E2B85B004460E4606D0002D2FD0AB0717
:1065C4002DD12B79642B1DD10295002503AA6421BA
:1065D40002A8FDF7E9FA039B002103EB800040F2D7
:1065E400AE52984214D1F26840F2FE339A4231D14D
:1065F400636A1F78AFB1354A31462046FDF76EFE17
:1066040005B0F0BD612B0AD1AB680293ED68DDE7FC
:1066140053F8047B97420CBF01310331E1E70021B9
:10662400E1E7A06A264600F0A9FCA06A052100F073
:10663400E7FC56F8280F3A46012100F0E4FD03AACE
:1066440029463046FFF72CFFA06A0222394600F0A3
:1066540070FCD5E7A06A00F091FC06F10C0002AAD8
:106664006921FDF7A1FA00270646B742A06A10D1B6
:106674000022314600F0C7FD294603AA04F1280090
:10668400FFF70EFF0025B542A06A0BD100F0DAFC3B
:10669400B6E7029B53F827309968090900F0B0FC6B
:1066A4000137E2E7029B53F82570B9680122090912
:1066B400019100F03EFCFB682BB901992046FDF7DF
:1066C400CDFE0135DFE71909F8E700BF573B0308A2
:1066D40073B5044625460E46806A002100F04EFC40
:1066E40055F8280F0E2100F03DFC01AA314628463A
:1066F400FFF7D6FE01992046FDF7B0FE02B070BD4B
:106704002DE9F04F8FB00D4614460646282200218D
:1067140004A814F0BDFF4FF0FF330993002332683F
:106724000395194603A88DF81040FDF7F5FC0446BF
:1067340000F07DF9DDF82C900D9005464FF000082F
:10674400B9F1000F01D0059FEFB10B9B13B1059A6E
:10675400002A35D04146284600F06CF90B9F059B72
:10676400002F00F0ED80002B00F0D4800C9B06A8D5
:10677400D968FDF7AAFD0C9B069ADB8A0399059854
:1067840004F0AAFFDFE00122494603A8FEF7DEF881
:10679400B9F82A309F4206D3079BD9F80890984548
:1067A40038BF9846CCE7D9F82C3003EBC70113F86F
:1067B4003730012B02D14846FDF75AFC0137E7E791
:1067C400198BB3F82AC0490713D50CF1FF314F1CBC
:1067D4000FD0DF6A07EBC107787810F0020F22D0E0
:1067E4003AB1D2E9009E97E8030082E80300C7E9C2
:1067F400009E4FF000025A840022624519DB0022F9
:10680400624539DBD3F80490B9F1000F09D0B9F827
:106814002A20019200210A46019881423CDB002A89
:1068240076D19B6892E712B9012808BF3A4601392C
:10683400CDE71978D86A01294FEAC20E00EBC207E6
:1068440004D179680A290ED10132D6E710F8321042
:1068540009D9012907D14FF0020100F80E10797807
:10686400C80704D4F0E710F80E100329F7D1598CA7
:10687400481C58847980E7E7D96A01EBC20011F813
:106884003210042906D14178C9075FBF598C418071
:10689400013159840132B3E7D9F82C0000EBC10B64
:1068A40010F831000438012817D84FF0000E12E018
:1068B400D86A00EBCE0A10F83E00052809D1DAF8B0
:1068C40004000746DBF80400B84204BFAAF802201B
:1068D40001320EF1010EE645EADB01319CE7DF6A85
:1068E40007EBC10017F83170052F02D14778FF0775
:1068F40002D547881744478001316145EFDB998B06
:1069040011FA82F19983598C11FA82F25A8488E738
:106914000021F2E70222394603A80D95FEF716F886
:10692400059B5BB90322394603A8FEF70FF8059BC4
:1069340023B90422394603A8FEF708F8BF680EE716
:10694400002B7FF413AF284600F07CF83046FDF7A7
:106954001BFB25692046A468FDF748FB002CF9D1F0
:10696400059808B1F9F740FC22462146284601F073
:106974001BF90FB0BDE8F08F10B504460122FDF7F6
:106984004FFB2378012B04D90378012B04BF032385
:10699400037010BD37B504460D46104619460193E1
:1069A400FDF72EFB03780199012B06D16B680022B9
:1069B400204603B0BDE830401847022B02D16B6873
:1069C4000122F5E72D684288032B0CBF0023012325
:1069D4002046AC4603B0BDE8304060474379026AC4
:1069E400032B88BF036B114494BF03469B180162B9
:1069F4001846704710B50C460121FFF7EFFF0470ED
:106A040010BD4279836A032A88BF426A194484BF4D
:106A1400D218036B816294BF03469B1818467047D3
:106A240010B50C460121FFF7ECFF047010BD48209F
:106A3400F9F719BC10B5044681618800F9F7FAFB2F
:106A4400E06110BD10B50446C069F9F71BFC20468F
:106A5400BDE81040F9F716BC2DE9F74F15460023A1
:106A6400C0E903236E8C8360837183620362AB8C01
:106A7400B5F82680AF8B417101221E44964238BF7F
:106A840016468A464FEA8801013E426101F004013C
:106A940007F003021143B5F81890EB8BB5F820B05A
:106AA400F20002F07802044609F00F091143360996
:106AB4004FEA5808BF0846EA080242EA09023A4384
:106AC4001A4352EA0B023ED12046FFF793FFBAF174
:106AD400020F16D9D4E90D32590002F001009B09C6
:106AE400520801F07E01014363631343A26318BF9C
:106AF40041F080012046FFF77DFFD4E90D321343B6
:106B0400E8D1236A636302212046EE8AFFF766FF19
:106B14000670360A467002212046AE8AFFF75EFFF1
:106B240000230670BAF1040F4FEA16264670A387B5
:106B3400A4F8403047D1A88BEA8B1044984242D045
:106B44006E8D00213BE041F0800120460193FFF768
:106B540051FF4FEA89113201019B02F0300201F02A
:106B6400400111430BF001021143DA0002F0080264
:106B74001143BA0002F0040211434FEA480202F042
:106B840002021143B6084FEA58084FEA59097F0830
:106B94005B084FEA5B0B8EE7EA6A02EBC1025778A7
:106BA400FF070BD557889F4208D15268616CD20009
:106BB40042F0020241F823200133BFE701318E4243
:106BC400EADC0522F2E703B0BDE8F08F4379012B3C
:106BD40070B5044626D00021FFF70CFF626B236AD0
:106BE40000259B1A6363A563E068438DAB421AD802
:106BF400A38FE3876379032B25D1A36A206A60629C
:106C0400E3621844F9F72FFBE3682063988BDB8B6E
:106C14001844A38F1844B4F8403018448000F9F79E
:106C240022FB606470BDC36A03EBC50213F8353000
:106C3400042B06D191782046FFF7DCFEA36B0133C9
:106C4400A3630135D0E7042BECD1038B626C216B79
:106C54000069BDE8704000F097BF8079003818BF24
:106C6400012070474379012B09D083681944C36814
:106C740081609A8C9142C8BF9984002383717047C4
:106C840038B51446FFF7EEFF0121FFF7BAFE047092
:106C940038BD73B50DF1050406461D46FFF7F0FF38
:106CA400214605F07F03ED0904F8013DF9D1091BE4
:106CB4003046FFF7A6FE01AD01462346AB4205D19F
:106CC4009DF804201B1BC25402B070BD13F8012BA5
:106CD40062F07F0201F8012BF0E770B41E46C3682E
:106CE400B0F840409D8BDB8B1D44C38F1D44631C57
:106CF400A0F8403063194479042C04BF446C44F870
:106D0400236070BCFFF7C5BF03F128011346CAB264
:106D14000021FFF7BEBF70B4DDE90365D2B203EB17
:106D2400460443EA062315B101320234D2B2091BE8
:106D340070BCFFF7AEBFC268938BD28B1A44838FAB
:106D440010B45C1C134442798487042A08BF426C43
:106D54005DF8044B08BF42F8231023220121FFF7FA
:106D640098BF10B4044643B90F2A06D8503A5DF8C8
:106D7400044BD2B20121FFF783BF03F12401204663
:106D840013465DF8044BCAB20121FFF782BF10B469
:106D940004464BB90F2A07D8403A5DF8044BD2B2E7
:106DA4004FF0FF31FFF76CBF03F126012046134675
:106DB4005DF8044BCAB24FF0FF31FFF76ABF70B5FC
:106DC4001C461546FFF74EFF0321FFF71AFE4470D9
:106DD400240A0570847070BD11320B46D2B20121B1
:106DE400FFF7EDBF16320B46D2B24FF0FF31FFF77B
:106DF400E6BF19320B46D2B20021FFF7E0BFF8B567
:106E040016461F46FFF72EFF4379032B81BF846A82
:106E1400C369C4F5FF4453F8273088BF7D344FF06D
:106E240003018CBFE4180024FFF7EBFD4470241227
:106E340006708470F8BDF8B516461F46FFF712FFBA
:106E44004379032B81BF846AC369C4F1FF2404F529
:106E54007F0484BF53F82730FD344FF003018CBF07
:106E6400E4180024FFF7CDFD4470240A06708470F2
:106E7400F8BD0000264BD3F8DC31022B2DE9F04796
:106E8400044689460ED846698E420BD2856A036948
:106E94008E1BED1A40F2FF7756EA050304D1A36A6C
:106EA400C4E90439BDE8F087062E01D90F2D1AD99B
:106EB4001F2DAA4628BF4FF01F0A554510D8032E90
:106EC400B04628BF4FF0030801212046FFF786FD96
:106ED4004AEA48130370A5EB0A05A6EB0806DBE7AC
:106EE4004FF00008F0E7BE42B0464FF0020128BF61
:106EF400B8462046FFF772FD4FEA181303F07003FB
:106F04002B4363F07F03037080F80180AA46E2E715
:106F14006C2B002038B50D460021FFF7A3FE437902
:106F2400012B05D0032B9EBFC369826A43F8252039
:106F340038BD012A10B40B46044608D0022A0ED1EB
:106F44005DF8044B69224FF0FF31FFF799BE1146FB
:106F54001B322046D2B25DF8044BFFF730BF4FF02E
:106F6400FF31F5E70C2902D10349FFF7E4BE4331B1
:106F7400CAB20121FFF784BE7858030801F1100357
:106F84003F2B73B506460C4607D8A1F18002D2B256
:106F94000121FFF775FE02B070BD012122220DF11F
:106FA4000505FFF76DFE294604F07F00E3B2E41106
:106FB4002A4605F8010D601C0128F5D8013403F0B8
:106FC400400312D11BB97F2305F8013C951E491BD0
:106FD4003046FFF716FD01AC01462B46A34208D10B
:106FE4005D1B9DF804204255D5E7002BEFD000230C
:106FF400EAE713F8012B62F07F0201F8012BEDE7B9
:107004000B4610220121FFF7DABEFFF794BE53228C
:107014000121FFF735BE002A0B464FEA4201C1F1B8
:10702400010114BF15221422FFF7C9BE5422012105
:10703400FFF726BE57220121FFF722BE5822022164
:10704400FFF71EBE59224FF0FF31FFF719BE5A2237
:107054000021FFF715BE23B50B46054611462AB994
:10706400132202B0BDE82040FFF7A9BE022A06D1D0
:107074000193FFF7CCFF2846FFF7E9FF019B182295
:107084006FF001012846ECE75B220021FFF7F8BD11
:1070940010B5044631B955224FF0FF31BDE8104018
:1070A400FFF7EEBD022904D1FFF7B1FF2046FFF739
:1070B400EBFF56226FF002012046EFE70B46422217
:1070C4000021FFF79CBE134621B143224FF0FF314C
:1070D400FFF795BE4422F9E7134621B145224FF04C
:1070E400FF31FFF78CBE4622F9E773B521F4004364
:1070F40005460C461646D2B90A0410D55921019307
:10710400FFF78EFC59212846FFF78AFC59212846AF
:10711400FFF786FC59212846FFF782FC019B422297
:107124000021284602B0BDE87040FFF768BE402247
:107134000021FFF764FE210A21F07F013143C9B227
:10714400284602B0BDE87040FFF76ABC002A02F18D
:1071540047020B46D2B20CBF02210021FFF76BBEDF
:1071640038B504460D460E21FFF7FCFE204629469D
:10717400FFF7D0FE02215C22FFF782FD20466FF06C
:107184000301BDE83840FFF76DBD5D224FF0FF31CC
:10719400FFF776BD002915BF5F225E22032100217F
:1071A400FFF76EBD0B464B220121FFF744BE6FF083
:1071B4000301FFF757BD0B464A220021FFF73BBEF0
:1071C4003039CAB20021FFF75BBD322913B513D0A1
:1071D400332914D1012407212939CAB24FF0FF31D0
:1071E4000190FFF74DFD01985CB1D322002102B05C
:1071F400BDE81040FFF744BD01240621ECE700245C
:10720400EAE702B010BD022A02F12A020B46D2B20A
:1072140014BFC1F101010121FFF73BBD62226FF0F0
:107224000101FFF72DBD03290AD004290BD0002149
:1072340002230A4443EA8203C9432F22FFF729BDEC
:1072440000210B46F5E70121FBE70B46302201390B
:10725400FFF71FBD10B4144641EA02232144312232
:107264005DF8044BFFF715BD10B41C4622430B69AF
:107274005DF8044B07BF3222012133224FF0FF3166
:10728400FFF72BBDF8B51446D6B2069A1F463A430B
:107294000B6905460BBFC4F10101E1432022212201
:1072A400FFF71BFD31462846BDE8F840FFF7B8BBA1
:1072B40007B5CDE900230B4634220021FFF72BFD4F
:1072C40003B05DF804FB07B5CDE900230B46362275
:1072D4004FF0FF31FFF71FFD03B05DF804FB10B55D
:1072E400632204464FF0FF31FFF7CAFC0123A37168
:1072F40010BD01F16402D2B24942FFF7C1BC10B51E
:1073040001F167020446D2B24942FFF7B9FCE268D0
:10731400138B43F00103138310BD0421FFF7A2BCB8
:107324006FF00201FFF79EBC2DE9F74F06299DF887
:10733400305010D8012905D93F2300F8013B002320
:10734400037001E00029FAD1012994BF0020012033
:1073540003B0BDE8F08F10EE104A002C044622DA88
:10736400B4EE400AF1EE10FA1DD62D2504F8015BA7
:10737400B1EE400A9FEDC27AF0EEC07AF4EE477A9D
:10738400F1EE10FA02F0200E12DD8EF049032370A4
:107394008EF046058EF04E036370E11CA570002349
:1073A4000B70081AD4E7002DE4D004F8015BE1E780
:1073B400B4EE400AF1EE10FA08D74EF04E038EF008
:1073C400410523706570E11CA370E8E7002B42F0CF
:1073D4002002B8BF0623672A02D1002B08BF01236D
:1073E40010EE106A251A491B002E01F1FF3547D112
:1073F400662A37D15E1CAE42A8BFCB1E00275D1C97
:107404006621BC463E46652923EAE37840F00981BB
:1074140008F10105002301934FF02E0BB2EE047A1C
:10742400019B9D4200F30681662A40F03381AE42FF
:1074340040F3848197B10A2196FBF1F301FB1366B3
:1074440093FBF1F201FB12324EF0450E303230362E
:1074540084F800E06770A270E6700434002323709F
:10746400201A75E75E1DAE42A8BFCB1F652A1146E0
:107474004FF0000540F0CF802B27AC462E46C2E7E4
:10748400B6F17E5F6FD2DFED7F7ADFF80082DFF83E
:1074940000A2B4EEE70AF1EE10FA4FF00007ACBF19
:1074A4004FF031094FF030094FF0200C3E46B8EC54
:1074B400017AB4EEC07AF1EE10FAC4BF0AEB070BFE
:1074C4009BED007A07F10407C4BF664420EE070A67
:1074D400182F4FEA6C0CEAD110EE107AB7F17E5FE8
:1074E40027D2B4EEE70AF1EE10FA1DDB002E14BF2A
:1074F4002D272B27B7EE000A662A03D0672A28D146
:10750400042E26DC672A04BF06F1FF37DB195F1C53
:10751400AF42A8BFCB1E84F8009063B901341D4666
:107524001F464FF0FF3C58E0F2EE047A20EE270AA3
:1075340001362D27E0E72E2161701D4602343021EB
:10754400013E6AD00DB92F46EBE704F8011B013D5B
:10755400F6E78D1F9D4202DC672A60D0CB1F1146DF
:107564000025AC464FE70027DFF82481DFF81C91A3
:107574004FF0200C3E46F8EC017AF4EEC07AF1EEBE
:1075840010FA9CBF09EB070ADAED007A07F1040749
:107594009CBF664420EE270A182F4FEA6C0CEAD1F0
:1075A400FDEEC07A17EE907A092FC2BFDFED367A6E
:1075B400013620EE270A662A11D1AE4217DA99194C
:1075C4000131A94205DBAD1B012DA5F1020308BF62
:1075D4000023F5180135B4460027662113E7652A10
:1075E40005D0672A0CD0114600252B27B9E78D1F3B
:1075F4009D4200DCCB1F00252B27AC46652102E70A
:107604001F1DAF4200DB8B1F9E4201DB6721EBE7AE
:10761400711C5B1ADDE72F462FE7374681E72B46BF
:107624009DE767297FF4F6AE002BDABF0125A84653
:107634004546EFE6FDEEC07A04F1010A17EE903AF2
:10764400002BA8BF03F13009019BACBF5FFA89F995
:107654004FF030099C4584F8009006D1B8F1000F32
:1076640003D004F1020A84F801B0F8EEE77A019B32
:1076740030EE670A013320EE070A01935446CFE641
:10768400FFFF7F7FF8FF7F3FCDCCCC3D6C3C0308F0
:10769400843C0308F1EE047AB4EEE70AF1EE10FA42
:1076A40024DB631E4FF030091D782E2D03F1FF3CBF
:1076B4002ED0A5F1300ABAF1090F2BD901331D7868
:1076C400302D13D193F801C0BCF12E0F2FD16629B0
:1076D4002DD02D2F83F800C05D7026D1013E08BF48
:1076E4002B2721468B4224D331211970672A7FF43A
:1076F400A1AEB8F1000F3FF49DAE23461C46013BFA
:1077040014F8012C302AF9D02E2A08BF1C4691E621
:107714006346C9E7392D02D001351D70CFE7984281
:107724008CF80190F4D10346C9E70136D9E7013456
:10773400D7E711F8015C01F80159D3E7F1EE047AB7
:10774400B4EEE70AF1EE10FAABDA73E6012910B5EC
:10775400146828D934F01001037815D1302B1ED1C8
:10776400417841F02001782900F1020303D110216E
:107774001160181A10BDCCB96F2901D10821F7E79F
:10778400622911D10221F3E7082C11D1302B0DD13C
:10779400437843F020036F2B08D1831CE9E7082CBE
:1077A40004D0022C02D00CB90A2313600346E0E78C
:1077B400022CFBD1302BF9D1437843F02003622B08
:1077C400EAE7000008B5044631B1054B8A6B036053
:1077D4000968002303F080FF2046F8F705FD00BF89
:1077E4000C4B03082DE9FF471E460192451812B1C0
:1077F400023A222A34D80446AC42274639D214F835
:10780400010BFAF741F980460028F5D13B782B2B80
:1078140029D12746E91B384601AAFFF797FF0744F9
:10782400B9460024A9454B4626D3B8F1000F00D031
:107834006442640044F00104BB4209D01F46AF42D5
:107844003B4641D218780137FAF71EF90028F6D1E1
:107854002049019A204803F003FF3146FFF7B2FFA5
:107864001E4801F0ADFA2D2B04BF27464FF0010846
:10787400D0E74FF00008CDE719F8012BA2F1300A48
:10788400BAF1090F09D95F2ACCD042F02002A2F143
:1078940061011929C9D8A2F1570A01995145C4D9DE
:1078A40020460EF023F828B9019B03FB04A494EAB4
:1078B4004403B7D5019B03974246E91B03A804F090
:1078C40095FF039B0446B7E7C2D1204604B0BDE848
:1078D400F08700BFB13C0308FC4B03089C3C030841
:1078E4002DE9F04F2DED028B83B00446DDF838808E
:1078F400019391464618B442254680F023812878A6
:10790400FAF7C2F8013407460028F4D12B782B2B60
:1079140009D125468246B4420CD30023DFED8C8A7C
:107924001F46184686E02D2B03D125464FF0010A49
:10793400F1E782462B7843F02003692B32D1AB1C4C
:107944009E4240F2F7806B7843F020036E2B40F0A8
:10795400F180AB7843F02003662B40F0EB80EB1D05
:107964009E4205F103041AD9EB7843F02003692BF6
:1079740015D12B7943F020036E2B10D16B7943F092
:107984002003692B0BD1AB7943F02003742B06D170
:10799400EB7943F02003792B01D105F108049FED25
:1079A4006D8A14E06E2B25D1AB1C9E4240F2C2803E
:1079B4006B7843F02003612B40F0BC80AB7843F03C
:1079C40020036E2B40F0B6809FED638AEC1CBAF165
:1079D400000F01D0B1EE488AA54209D0B442234633
:1079E40080F0938018780134FAF74EF80028F5D126
:1079F4005A4990E00023DFED568A9FED597A0093AF
:107A0400AC4618461946F2EE046A644614F801EBD3
:107A1400AEF1300BBBF1090F38D8022922D1514AFB
:107A2400904202DC0A2202FB00B0A6425ED8009A11
:107A340002B14042034413F1250FBEBFDFED4A7A81
:107A4400253368EEA78A13F1090F53D35B4200EE86
:107A5400903AB2EE040AF8EEE00A14F011FD88EE52
:107A6400808AB4E7F4EEC78AF1EE10FA0BD507EE7C
:107A740090BAF8EEE77A0129E8EEA67AF0EE678A82
:107A840031D1013BD1E729B90133CEE721B9BEF1A8
:107A94002E0F03D10121C8E7022917D04EF0200B85
:107AA400BBF1650F12D1A6424FD99CF801102B29C6
:107AB40005D10CF10204B4429AD00221B5E72D2974
:107AC40013D101220CF102040092F4E7B9F1000F82
:107AD40004D04EF0200BBBF16A0F09D0BEF15F0F4A
:107AE400A3D06446A3E700219FE70221A4468CE7C4
:107AF4004F469CE707EE903AB2EE040AF8EEE70A26
:107B040014F0BEFC28EE808A61E77FF471AF0FB9F0
:107B1400019B33B11549164803F018FD4146FFF7A0
:107B240051FEB0EE480A03B0BDEC028BBDE8F04F45
:107B340003F0F0BEBAF1000F3FF45AAF9FED048A90
:107B44002C4647E74FF0000AE7E63FF451AF6EE7F3
:107B5400000000000000807F0000C07FC93C0308D3
:107B6400EC78AD6064666606EA1C0802BD3C030856
:107B7400FC4B030808B50C20F8F775FB02780121CB
:107B840061F30202027008BD10B5048803F07F039C
:107B9400DB0024F47F7443F0020324F00304234342
:107BA400C0E90112038010BD10B504460846114611
:107BB400D4E9012304F050F923881B0744BF014B87
:107BC400036010BD804F030838B5154611F4807268
:107BD4000C4614BFD5E900121146FFF7E5FF620910
:107BE40002F008022A44E1B2BDE8384002F012BFB4
:107BF400D0E90003184770B505460C468E18B44208
:107C040000D170BDD5E90003984704F8010BF6E7ED
:107C140070B505460C460026D5E90003984724B103
:107C24002368187023680133236000F07F0343EA5C
:107C3400C6160306F0D4304670BDF8B50C460021D4
:107C44000746FFF7E5FF20B93846BDE8F840FFF7DF
:107C5400CFBFC3074FEA500527D523885A1B02F02C
:107C64001F0204EB420193424E8835460DD2911C0B
:107C740004EB4100C2F11F0252000146023813F026
:107C8400EFFC6388A4F8403000222388501C400095
:107C94009A1A811C21442044520013F0E1FC2188EB
:107CA40004EB410466802846F8BD2846F8F7C2FA7A
:107CB4002A46064601463846FFF79DFF29463046C8
:107CC400F9F780F805463046F8F7DCFA21880131E7
:107CD40001F01F01218004EB41046580E3E700000B
:107CE4002DE9F04F0E468BB000210446FFF790FFBC
:107CF40010F003054FEA900802D08E4801F060F8B6
:107D04004046F8F797FA06A9029006902046FFF736
:107D14007FFF06A92046FFF77BFF029A029912F81B
:107D2400013B039503F003092F466FEA010C4FFA58
:107D340083FE9246BEF1000F1AF8013B02EB0C00E1
:107D440019DB00210B4608464FF0060A12F801CB56
:107D54000CF0010E0EFA01FE43EA0E030AFB01FBCE
:107D6400CCF3450E0EFA0BFE1CF0800F40EA0E0019
:107D740013D00131EAE70399C3F38012824011431F
:107D840003F00402824049EA0209C3F3C00202FA82
:107D940000F0039107435246C9E7034431462046A5
:107DA400DDF818B002EB030AFFF747FF8BF8000079
:107DB400000A8BF8010031462046FFF73EFF8BF89E
:107DC4000200000A8BF8030006990431AAEB0102B1
:107DD40020460691FFF70FFF029B9844D0452CD80C
:107DE40000212046FFF714FF002182462046FFF7BA
:107DF4000FFFB9440490504448448000F8F71AFA3D
:107E04004FF0000B8046D9454AD108EB890B4FF05F
:107E14000009D14550D10BEB8909049B9D4240F0E8
:107E24008180FFF7A7FE039B029942460446FFF7B1
:107E3400ABFE20460BB0BDE8F08F2046FFF7D8FE1E
:107E440000228AF8000006A950460DF051FB069B5B
:107E5400012803F1FF330AF1010B069316D13146D1
:107E64002046FFF7EAFE8AF80100000A8AF80200B9
:107E7400069B023B0AF1030B0693069A59462046D9
:107E8400FFF7B9FE069A0BEB020AA7E70228F4D122
:107E94002046FFF7ADFE03060BF8010BF8D4ECE720
:107EA40031462046FFF7C9FEC00040F0020048F802
:107EB4002B000BF1010BA6E72046FFF799FEC7B292
:107EC400652F2DD000212046FFF7A2FE0146059024
:107ED40006A8F9F717F9059A08992046FFF78BFECB
:107EE400732F0AD0622F0AD1134806A906F048FC62
:107EF4004BF8290009F101098BE71048F5E7692FD0
:107F0400DDE907104FF0000303D10A22FFF76AFCF2
:107F1400EEE7633F7A4200937A41FFF7E1FCE7E73B
:107F24000748E5E731462046FFF7DAFE49F8250021
:107F3400013572E7D43C0308345B0308905D030801
:107F44007858030830B593B0042269460446FFF715
:107F540052FE9DF800304D2B02D0154800F030FF42
:107F64009DF80130052BF8D19DF8023003F003038E
:107F7400022BF2D19DF803301F2BEED800212046AE
:107F8400FFF746FE2028E8D89DF802309B0801D070
:107F94000848E3E701A92046ADF80430FFF7A0FE46
:107FA400A368054620689847284613B030BD00BF33
:107FB400D43C0308E03C03081FB5014601A812F0B5
:107FC40045FD01A8FFF7BEFF05B05DF804FB000006
:107FD400F8B51F4C00250127F8F7B8FEE564A4F8AE
:107FE400E651A4F8E47103F04DFA1A4B656304F109
:107FF4009006C4E90B3504F13C00174BA36303213D
:10800400C4F8DC5103F056F83946304603F052F810
:10801400BA21AA22304603F0CCF8104B1A681B6828
:1080240052685B68966004F5F470DE60C4E96F55CD
:10803400C4E97155C4F8C050C4F8CC5119F0F6FD28
:10804400394604F5F470BDE8F84019F0F3BD00BFFB
:108054006C2B0020B4480308046003080832002095
:1080640008B5084BD3F8C00008B9074808BD00227A
:1080740040F27A51043001F0DDFA0028F5D040686E
:10808400F4E700BF6C2B002014650308044B1B6845
:108094005B68C0000A4640F00201986803F089B8A2
:1080A40008320020044B1B685B68C00040F00201EA
:1080B400986803F08DB800BF08320020044B1B6899
:1080C4005B68C0000A4640F00201D86803F071B84A
:1080D40008320020044B1B685B68C00040F00201BA
:1080E400D86803F075B800BF08320020F8B51C4604
:1080F400930707460E46154614D11368204A934247
:1081040002D16B682360F8BD1E4A934207D110B1B7
:1081140001F0A8FC06466B68C4E90036F3E71A4A86
:10812400934201D12560EEE7DA88B2F5197F07D0D2
:1081340040F219218A4203D040F267218A42F1D1E8
:10814400D7B9124A93420BD0114A934208D0114A2C
:10815400934205D0104A934202D0104A93420BD165
:108164000F4B9E4208D00C20F8F764F80D4B856045
:10817400C0E900362060C6E7C4E90057C3E700BF82
:10818400E4610308A86103085C620308504D030816
:108194008C4D0308C84D0308044E0308404E0308E1
:1081A400B05303081C3E030800232DE9F041C2E943
:1081B40000330D460746144601F054FC0A2D0646CA
:1081C40002D12060BDE8F081192D05D1836A1BB16D
:1081D4000F4BC4E90037F5E7F3692BB12246294672
:1081E4003846BDE8F0411847B06B0028EAD0E900F2
:1081F4001A4641F00201043001F01CFA0028E1D0D3
:108204004268234631463846BDE8F041FFF76EBF69
:10821400E465030830B595B0054602A8CDE9002110
:108224001C46F7F7C9FFDDE9002130B92846FFF7FE
:10823400BBFFF7F7B7FF15B030BD002CFBD1039B94
:108244000449186809F04AFA0028F4D10398F7F7AA
:10825400CBFF00BF9846030870B545680024AB689F
:10826400A34200D870BDEB6853F83400E60078B13F
:1082740004280DD006F0BEFF03785F2B08D0EB680E
:10828400985906F09FFFEB6833445968FFF7FEFEE8
:108294000134E4E708B519B903F048F9F7F7A4FF86
:1082A40003F054F9FAE70EB403B503AA52F8041B19
:1082B400019203F073F9F7F797FF0000134B1B6863
:1082C40013B55B68C1000446D86841F0020100227E
:1082D4000430019101F0AEF9019948B90C4BD3F87F
:1082E400C03043B10246181D01F0A4F9019910B140
:1082F400406802B010BD0748002201F09BF9002835
:10830400F6D1054905482246FFF7CDFF0832002083
:108314006C2B002054660308EC3C030868490308EE
:108324000E4B1A681968526849689268C968914284
:1083340010B504460CD01B685B68C1009868002225
:1083440041F00201043001F075F908B1406810BD34
:108354002046BDE81040FFF7B1BF00BF083200203F
:1083640030B5032885B005460C4607D1084601F010
:1083740045FDF8B10E24204605B030BDCA072DD501
:108384004910082828D801A353F820F07B8300085B
:10839400C1830008DD830008DD830008B58300087D
:1083A400DD8300087B830008BD8300087B8300080D
:1083B4000029DFD01E24DEE70029DCDAB1F1404FCA
:1083C40005D14FF0804004F082F90446D3E74C42D3
:1083D400640044F00104CEE7CC43F9E7062821D138
:1083E40001F00703022B0CD08B071BD10B689A6991
:1083F4001D4B9A4216D1486840B98B68C8680393EC
:108404000CE0CC082046F8F775FD18B1400040F0A8
:108414000104B0E703A92046F8F77BFD0399F8F7B8
:1084240085FCF3E7204601F01DFB43694BB9082D99
:108434000DD1204601F022FB0C4902460C48FFF7FF
:1084440032FF2146284698470028BED1EFE7094B62
:1084540020465A5D019201F011FB019A0649034638
:108464000348FFF720FF00BF69F20008F83C030847
:10847400844B030898620308FF3C030830B585B0B9
:10848400CDE902210446019301F0ECFA056945B1F6
:10849400DDE9013203992046AC4605B0BDE8304021
:1084A4006047204601F0EAFA024902460248FFF713
:1084B400FAFE00BF083D0308844B030800231A4654
:1084C4001946FFF7DBBF00002DE9F043214C1546A8
:1084D4002268526897B0D268009222685268926803
:1084E400019222685268D5602268526807469360F8
:1084F40004A88946F7F760FEA0460646F8B93C682A
:108504004A46394602A8FBF763FB2146324602A8D5
:10851400FEF7F6F8044615B1FFF7D0FF0446F7F767
:1085240041FE009AD8F800305B68DA60019AD8F806
:1085340000305B6820469A6017B0BDE8F083009A6B
:10854400236805985B68DA60019A23685B689A601F
:10855400F7F74AFE0832002007B50022019101AB6B
:108564000121FFF78BFF03B05DF804FB30B45568BD
:10857400003D144618BF0125C5F1020302EB830335
:108584000A462918206830BCFFF778BF10B50446A6
:1085940003F074F838B1002320461A46BDE81040B1
:1085A4001946FFF76BBF204603F07EF828B9BDE8F3
:1085B40010400349034802F0C9BF204610BD00BF64
:1085C4000E3D0308844B03087FB50623CDE902332F
:1085D400C0000F4B40F002000190D3F8C000CDE979
:1085E400041278B1002240F2EA51043001F022F87A
:1085F40040B1406801AB00220521FFF73FFF07B0FF
:108604005DF804FB01A905200AF092F8F7E700BF22
:108614006C2B002037B5154604460191FFF7C4FDC5
:108624002A68019B92B9A20708D12168084A91429D
:1086340004D1E28807490848FFF735FE2046019334
:1086440001F01CFA019B05490246F4E703B030BD72
:108654005C6203082F3D030898460308383D03086D
:1086640007B56A46FFF7D6FFDDE9000111B903B08B
:108674005DF804FB02F068F9F9E700002DE9FF4119
:108684001D4606460C46174601F0ECF9324B98425B
:1086940008D12B463A462146304603F06BFC04B021
:1086A400BDE8F081D0F82880B8F1000F08D0062C7E
:1086B40021D13046C0472860003818BF0120EEE7BA
:1086C400062C18D101AA19213046FFF76DFD019B34
:1086D4006BB901AA8A213046FFF79CFF039401AAD3
:1086E40000210120FFF742FF28600120D7E701AAFB
:1086F40041464046F6E7002CEBD1384601F0B2F98A
:10870400164908F0EBFF01AA68B147213046FFF78C
:108714004BFD019B7BB101AA21462046FFF726FFB2
:1087240028602046BBE79B213046FFF73DFD019BB7
:108734000BB10397D3E70A49384602F0BCFF30B1C6
:108744000849094802F002FF28600220A7E73846DA
:10875400FFF71CFFF8E700BF444F030888470308EE
:10876400D04A0308403D0308584A030873B5054638
:108774000C46164601F076F9C36943B10422CDE9EB
:10878400002621466A4628469847009B43B128465E
:1087940001F074F90349024623460348FFF783FDB9
:1087A40002B070BD383D03089846030873B5064609
:1087B4000C4601F057F9174A436A9342054627D0FD
:1087C40063B134B9144A934203D01020F7F732FD51
:1087D40004466B6A21463046984778B96A460F21A9
:1087E4003046FFF7E1FC009B53B11CB91020F7F7AA
:1087F40021FD04462146684603F0BAFC02B070BD70
:10880400304601F03BF9054902460548FFF74BFDA8
:108814003046F3E7C19F000815110108573D0308CE
:10882400844B030837B5044601F01CF9856A1DB171
:108834002046A84703B030BD6A4619212046FFF7F9
:10884400B3FC009B2BB16A4629462846FFF78EFEEF
:10885400F0E7204601F012F9024902460248FFF708
:1088640022FD00BF643D0308844B030830B5054670
:1088740095B000F0F5FD284601F0F4F8846A2CB1B7
:108884002846A0470446204615B030BD6A46192143
:108894002846FFF789FC009BABB102A8F7F78CFCD4
:1088A400014630B96A46FFF761FE0446F7F77AFCE1
:1088B400E9E7039B0849186808F010FF0028E2D193
:1088C4000398F7F791FC284601F0D8F803490246CB
:1088D4000348FFF7E8FC00BFD04A0308643D0308DF
:1088E400844B03082DE9F04F2DED028B13688BB0F8
:1088F40008EE103A00284ED102F104090446C1F3EF
:10890400072301935B005FFA81F853FA81F1029324
:1089140059F821B009EB81014F68002F3FD017F0BF
:1089240003003CD13968824A914202D1384602F0B0
:108934003DFC019B1E1876004FEA880ABBF1000F2C
:108944002FD108F101031E44B000F7F773FC05466C
:108954000CB10460012405EB84005246494612F030
:1089640051FE4444019B09EB0A01DA0005EB840043
:1089740012F048FE029B23449846002F00F08680A4
:1089840017F0030340F095803968694A914240F03A
:1089940090801E4677E0546802F10809AFE7002092
:1089A400C7E71BF0030F2AD1DBF8002061498A4294
:1089B40002D061498A4222D106AA05A9584601F08B
:1089C40079F9059B013343441E44B000F7F732FCA8
:1089D40005460CB1046001245246494605EB840067
:1089E40012F010FE059A069908EB0400920005EBBC
:1089F400800012F007FE059B43441C44B2E708F1D3
:108A040004021644B000F7F715FC05460CB10460E7
:108A140001245246494605EB840012F0F3FD06A9F1
:108A24005846FFF7C3FE444480464046FFF71EFF06
:108A34000246002896D0A64207D8F10028460392A1
:108A4400F7F713FC039A0546760045F82420013411
:108A5400EBE7FB6853F836004FEAC60990B10428E7
:108A640010D000F00703022B01D007F03FFB45F8BC
:108A74002800FA684FEA88034A442B4452685A6033
:108A840008F102080136BB689E42E2D3A8EB040257
:108A940021462B46520818EE100AFFF7EFFC044655
:108AA4002846F7F7EFFB20460BB0BDEC028BBDE880
:108AB400F08F06AA6A213846FFF7ACFD002106AA0A
:108AC4000846FFF753FD0021FFF770FE824650462B
:108AD400FFF7CCFE81460028D8D008F101039E425E
:108AE40008D87600042E38BF04262846B100F7F7CC
:108AF400BCFB054609F00703022B03D0484607F0E8
:108B0400F5FA814606AA0F213846FFF783FD06AA27
:108B140000210120CDF82090FFF728FD4FEA8803BB
:108B24002B4445F8289008F102085860CFE700BFAD
:108B34004C4503080C600308C851030870B583074B
:108B440086B00C4615461BD103681D4A934202D0D9
:108B54001C4A934214D102AA01A901F0ABF8019B6B
:108B6400A34228D31AD8029B043D03EB84049C42FD
:108B740001D106B070BD54F8042D45F8042FF6E772
:108B840002A9FFF713FE002306460193019BA342AB
:108B9400304606D3FFF76AFE0028EAD00A49224687
:108BA4000BE0FFF763FE30B1019BDA43224401334B
:108BB40045F82200E9E7019A04490548FFF773FBE9
:108BC4000C600308C8510308873D0308723D03087D
:108BD400FC4B03082DE9FF4183071546CFB2C1F3CF
:108BE400072437D103683A4A934202D0394A934260
:108BF40030D10290029803AA01A901F05BF8019810
:108C04003B1983425ED80399002601EB8003A642F8
:108C140016D1C01B01EB8701801B04F0D1F9039925
:108C240045F82600BC0005EB86080B19424699421C
:108C340002F104020AD10023029304B0BDE8F081DA
:108C440053F8042D45F826200136E0E753F8040DC7
:108C54001060ECE70021FFF7A9FD00238046019393
:108C6400019BBB4219D30021084604F0A9F906462A
:108C74004046FFF7FBFD0146D0B9B168A14221D3BC
:108C840045F8246005EB810205EB8403091BAB4224
:108C940012D1304604F0AFF9CFE74046FFF7E6FDC6
:108CA40080B1019BFA1A2244013345F82200D6E729
:108CB400304603F02EFFDBE7F468D01A205843F85F
:108CC400040DE4E7019A04490448FFF7ECFA00BFF5
:108CD4000C600308C8510308723D0308FC4B0308E9
:108CE4002DE9F04786B000AF07F1100205460C46A7
:108CF400FFF75AFA7B6923B1254926482246FFF734
:108D0400D2FA386900283ED1284609F0A9FE002885
:108D1400F2D007F1100228461721FFF745FA07F1B0
:108D24000C01386906F080FA78602046F8F7E7F815
:108D3400D7F80C90796809F101068519EB1D23F029
:108D44000703ADEB030D6B464A464FEAD30A1846B8
:108D540012F058FC2E2309F83A302046F8F7D4F8DC
:108D640078602046F8F7CBF8E8464644024679682E
:108D7400304612F047FC29464046F8F723F8012212
:108D84001E21FFF721FC1837BD46BDE8F08700BF60
:108D9400A43D0308C447030807B50190F7F748FB4F
:108DA400019A18B103490448FFF774FA03490248C9
:108DB400FFF779FAAA3D03082C490308C23D0308CA
:108DC400014608B50148FFF765FA00BFFC4B0308EC
:108DD4002DE9F043072889B081468846174603D118
:108DE400914218D00E2528E1022801D0052806D189
:108DF4003A464146484601F027F805461DE1082851
:108E04002AD1104602F03AFC38B13946404602F005
:108E140052FC0028E6D01E250FE117F0030440F0B1
:108E240030813A68AB4B9A4240F02B8107F1080538
:108E34007B68A342D6D955F8041B0291084602F078
:108E44001DFC0299002800F03F81404602F033FCEB
:108E54000028E0D10134EBE711F0010F00F0238189
:108E64004E10D10740F1FD805410232800F20981EF
:108E7400DFE810F0E700EB000701EF00F300070163
:108E840007010701070124003000330036006B009E
:108E9400730076007900070185008E009E00A6000D
:108EA40024003000330036006B0073007600790034
:108EB400070185008E009E00A600CC0046EA040847
:108EC40098EA48034FEA480056D54046C11703F0D4
:108ED400EEFB92E786EA0408F2E706EA0408EFE705
:108EE400002C02DA7C48FFF76BFF1F2C09DC6FF0C3
:108EF40040432341B34204DB4FF040432341B34298
:108F040020DD3046F11703F0D2FB8046404600F0E6
:108F1400A9FD8369002B40F0CF80B9F1240F40F004
:108F2400B08004A94046FFF741FC04462046FFF701
:108F34009DFC00283FF456AF394600F0FBFF0028A3
:108F4400F4D068E706FA04F8BAE7002CCADB1F2C51
:108F5400A8BF1F2446FA04F8B2E706EB0408AFE7FB
:108F6400A6EB0408ACE7214630460CF0BFFC002811
:108F7400C7D104FB06F0400040F001055DE0002C81
:108F840000F0A480214630460CF0E1FC804697E7CF
:108F9400002C00F09B8007EE906AB8EEE70A07EE1B
:108FA400904AF8EEE77A80EE270A02F0B3FC24E751
:108FB400002C00F08B80214630460CF0BAFCE5E72B
:108FC400002C1FDA07EE906A1146B8EEE70A02F0A9
:108FD40007FD12E7E20707D5294640460CF086FC58
:108FE40000288ED105FB08F8012C3FF469AF29460F
:108FF400284664100CF07AFC002882D16D43002CC2
:10900400E8D15DE735464FF00108F8E7002C5DD064
:109014000021022007F0E8FB2146054630460CF00B
:1090240096FC400040F00100A860214630460CF058
:1090340080FC400040F00100E860284609B0BDE82B
:10904400F083A642FFF6E7AECCE6A6423FF7E3AED6
:10905400C8E6A6427FF7DFAEC4E6A642BFF6DBAEA3
:10906400C0E693071FD112681C4B9A421BD107EE2E
:10907400906A3946B8EEE70A02F0B2FC05460028C9
:10908400DBD1174B404613F80920039200F0F6FC9D
:109094000290384600F0F2FCDDE9023200901149FA
:1090A4001148FFF700F9B9F1060F01BF43464FF02D
:1090B4002409B8461F4629E73A4641464846984798
:1090C40005460028B9D128E70F46DAE707490848DA
:1090D400FFF7E0F80C600308E13D0308C04C030807
:1090E40071610308EF3D0308844B0308023E030843
:1090F400384C0308014608B50148FFF7CBF800BF18
:10910400844B030873B504461E460D4651B11868D6
:10911400019200F0A7FC6368019A834202D00548DB
:10912400FFF7E8FFA0683346294602B0BDE8704067
:10913400FFF7A4B90E3E0308400040F0010108B552
:10914400024802F0F8F9F7F74FF800BFE0490308C6
:10915400014608B50148FFF79DF800BFA44903087C
:1091640008B540F2C261024802F0E5F9F7F73CF8AD
:10917400584A030810B594B0044602A80191F7F7C1
:109184001BF848B920460199FFF7E6F90446F7F7BA
:1091940009F8204614B010BD0399024800F09AFC67
:1091A4000024F6E764320308064B03F12C02DA6468
:1091B400B3F8E42112B20021012A596308BFA3F8CD
:1091C400E41170476C2B0020EFF3108172B6084A4B
:1091D400B2F8E4311B0443BFB2F8E43103F1FF33C6
:1091E4001BB24FF6FF73A2F8E43181F31088704785
:1091F4006C2B0020EFF3108172B60C4BB3F8E42112
:10920400013212B2A3F8E42118463AB9DA6C12B961
:1092140093F8E6212AB10023A0F8E43181F3108801
:1092240070470122A3F8E421F8E700BF6C2B00206B
:1092340070B5124B93F8E6514FF6FF720446A3F84B
:10924400E421C5B193F8E72102F10A0103EBC10659
:10925400013202F00702013D53F83100716883F8CE
:10926400E72183F8E65184F31088FFF783FFBDE814
:109274007040FFF7BFBF80F31088F8E76C2B002025
:10928400114BB3F8E42112B210B5E2B9EFF3108137
:1092940072B6B3F8E42112B29AB9DC6C64B1DA6440
:1092A40093F8E62112B90122A3F8E42120B181F355
:1092B40010882046F6F798FFBDE810400846FFF7EF
:1092C400B7BF81F3108810BD6C2B002070B5EFF38D
:1092D400108572B60F4B93F8E621082A18D0B3F81C
:1092E400E44124B2012C04BF0024A3F8E44193F820
:1092F400E741561C224402F00702093283F8E66172
:1093040003EBC203C3E90201012085F3108870BD99
:109314000020FAE76C2B002038B5034615460C46AE
:1093240009B92C460BE052B111462046984758B172
:10933400636833B9656044F00103A560EB602046BF
:1093440038BDA368DD60F6E76B68E3606C60002BF2
:10935400E7D145F00103AC60E360E2E7F8B5064607
:1093640031B1002511F0010304D00023EB6029463C
:109374000846F8BDCC68CB6014F0010307D1E76858
:10938400E36022463046FFF7C7FF3C4601460A46E3
:1093940030462946FFF7C0FF21460546E2E78A42E8
:1093A4002DE9F04184460E4606D1002351685360EE
:1093B400BDE8F041FFF7D2BFD2F80C80B8F1000F3E
:1093C40012D01446E468E307FCD524F00104516884
:1093D4006368934208F0010716D1002339B99F420C
:1093E40008BF41466160D3603046BDE8F0815360F8
:1093F400D3606046FFF7B2FF05466060C5F80C8095
:10940400002FF1D0A560EFE71D46DB689342FBD146
:1094140000225A60DA606046FFF7A0FF0028EDD012
:10942400E8600546EAE70000024B1B685B681860C9
:10943400704700BF08320020044B1B685B6882B091
:10944400186801ABC01A02B0704700BF0832002090
:10945400024B1B685B685860704700BF08320020ED
:1094640008B5FFF7E9FF044B1B685B685B6898422B
:1094740001D3FFF775FE08BD0832002010B503467E
:10948400C2F34F04500C21B1D20702D40C48FFF7A9
:1094940031FEA04206D1984210D00A4902460A4839
:1094A400FEF701FF984204D9C21A08490648FEF79C
:1094B400FAFE9C4202D206492246F0E710BD00BFE4
:1094C400583E0308623E0308844B0308743E0308B5
:1094D4007C3E03082DE9F74FDDE90CA7002406467E
:1094E4008B4615460193A046A146019B9C4204D19C
:1094F400B1453CD22248FFF7FDFDB44210D2BAF880
:1095040002209205F6D45BF8240009F101099AF8C7
:109514000220012A24D100F071FC07F8240017E08E
:10952400BAF80010C900002241F00201284600F0F8
:1095340081F888B9BAF80220D30505D5BAF8002015
:1095440010491148FEF7AFFEDAF8042047F824204A
:1095540001340AF1080AC8E7406808F10108D6E7AF
:10956400022A01D100F016FB47F82400F0E72B682B
:10957400B8EBD30F01D20548BDE703B0BDE8F08FC7
:10958400903E03088B3E0308844B03089A3E03086D
:1095940030B589B00446154602EB800205A8039352
:1095A40000F01FF80D9A01920C9A0092039B05AAF1
:1095B40029462046FFF78EFF09B030BD08B50148A3
:1095C400FFF7C6FDA43E030810B50446416019B96F
:1095D40081600123236010BDC800F6F744FEA0603B
:1095E400F7E74160C90041F00701016082607047FC
:1095F40003789B0710B5044602D48068F6F742FE50
:109604002368002262F3DF036260236010BD0378E5
:109614009B0710B5044602D48068F6F733FE23682E
:1096240003F0040343F0010323600023C4E901337E
:1096340010BD00002DE9F74F0378914613F00102A5
:1096440004460E46009210D001F00702022A0CD004
:1096540011F0030203D108687A49884204D0B9F1B1
:10966400010F02D0002556E000925B0760D5276801
:10967400A56827F007072F44BD4230D3B9F1010F85
:10968400F0D1D4E90032B2EBD30FC3F3DC0111D132
:1096940004316160A068C900F6F7E7FDD4E900323F
:1096A400A2EBD30223F00703A060D20000211844E8
:1096B40011F0EEFF2368A168C3F3DC02501C60F3D1
:1096C400DF03236041F8326006F00706022E01EB47
:1096D400C20520D023786FF3000323701BE02868B1
:1096E400B0421CD1B9F1020F15D123686E68083B52
:1096F4007A1B05F108012360083A284611F0B0FFEF
:109704002568A368C5F3DC0225F007051D44002184
:1097140043F832106E60284603B0BDE8F08F009B1A
:1097240023B9314600F006FC0028DBD10835A3E755
:1097340063682BB9B9F1010F94D1204600F084F885
:1097440006F0070BBBF1020F29D1F008F7F7D2FBA3
:1097540082466268BAFBF2F102FB11A217464FF08F
:109764000008A16851F8370001EBC705F0B9B9F159
:10977400010F7FF477AF2368C3F3DC020132B8F141
:10978400000F18BF454662F3DF03BBF1020F2360ED
:10979400C5E90060BFD0237860F300039DE731463C
:1097A4000620FEF7DDFD4FEA600AD2E7042823D144
:1097B400B8F1000F08BFA84661680137B7FBF1F0A4
:1097C40001FB1077BA42CCD1B9F1010F7FF44AAF53
:1097D400B8F1000F31D0236800220833BBF1020F27
:1097E4002360C8F80060C8F8042003D0237862F32B
:1097F4000003237045468EE7B04211D1B9F1020F40
:1098040089D123686268083B01372360B7FBF2F310
:1098140002FB1377A36853F8373063B92B607AE7F8
:10982400009B002BC8D13146019200F083FB019AC2
:109834000028C1D0E2E70423F0E7204600F004F852
:1098440087E700BF905D03082DE9F04146681A4997
:109854000446731C002231F8025BAB4206D9013284
:10986400222AF8D103EB530343F00105E800A7686B
:10987400F6F7F9FC2368656003F0060343F001037F
:109884002360A0603D1D4FF00008B04504D1384668
:10989400BDE8F041F6F7F6BC55F8041C39B10429CB
:1098A40005D001222046FFF7C5FE2B68436008F16E
:1098B40001080835E9E700BFCC3E030810B50023D2
:1098C4000446016043608800F6F7CDFCA06010BD3B
:1098D40003682DE9F74F04460F46924623B912F068
:1098E400010F60D000F062F839460620FEF738FD1B
:1098F40022684FEA600B0AF00103BBFBF2F9009304
:1099040002FB19B94D460026A06850F82580AA002C
:1099140000EB8501B8F1000F0BD11AF0010F42D012
:10992400002E08BF0E46636801336360B846376093
:1099340033E0B8F1040F17D1002E08BF0E46226899
:109944000135B5FBF2F102FB1155A945DCD1009BB1
:109954004BB3002EE7D1204600F028F82268BBFB69
:10996400F2F902FB19B9CDE739464046019200F0FD
:10997400E1FA019A0028E2D01AF0020F0DD06368D0
:109984002068013B01356360B5FBF0F1A36800FB7F
:10999400115553F8251021B99950404603B0BDE83C
:1099A400F08F0421F8E74FF00008F6E7F8B50568F2
:1099B4008668154904466B1C002231F8020B834269
:1099C40006D90132222AF8D103EB530343F00100F4
:1099D4000023206063608000F6F745FC3746A060F2
:1099E40006EB8505AF4204D13046BDE8F840F6F7F2
:1099F40049BC57F8041B0029F4D00429F2D00122F1
:109A04002046FFF765FFEDE7CC3E030870B501681B
:109A14000023994201D1002214E0846854F82320E1
:109A240004EB83060133002AF3D0042AF1D04568FD
:109A3400013D4560B3FBF1F001FB103354F82330D2
:109A440013B93360104670BD0423FAE710B5044619
:109A54008068F6F717FC0023C4E90033A36010BD47
:109A64007047000083070FBF0068034B00F00F002E
:109A740053F82000704700BFFC3F030808B5FFF708
:109A8400F1FFBDE80840C088F7F73EBA37B50D4688
:109A940004460192FFF7E4FC2846FFF7E3FF8368DE
:109AA40033B1019A2946204603B0BDE83040184737
:109AB400C2880349204603B0BDE83040F7F794BF9D
:109AC4001C3F03080A4601460148FFF7DFBF00BFF9
:109AD400707003082DE9F347044608460E4601F06A
:109AE400E3FD98B101AA6946304601F03BFE009BB4
:109AF40063B11A491A4FDFF87080DFF86890204686
:109B0400F7F7F4FB009D033D002D0BDA02223146EA
:109B14002046FFF7BBFF13492046F7F7E7FB02B0E7
:109B2400BDE8F087019A02EB850339465B6852F879
:109B340025202046F7F758FF019B4FEA850A534436
:109B44009A682AB949462046F7F7D0FB033DDBE77C
:109B540041462046F7F748FFF8E700BF213F0308D6
:109B6400453F030890FE02085A3F030808B5024621
:109B7400FFF778FF06490069884203D0003818BF10
:109B8400012008BDBDE80840104607F097BC00BF9F
:109B9400E91201080E2808B5014613D01E2813D077
:109BA400C20701D5401008BD830707D10268074BDF
:109BB4009A4203D1BDE8084002F038BE0820FEF7FF
:109BC400CFFBF7E70020EEE70120ECE75C50030849
:109BD400C20705D4830705D10268034B9A4201D119
:109BE40002F01CBEFFF7D6BF5C5003080E2810B568
:109BF4000C4603D100230B60012203E01E2803D18D
:109C040001220A60104610BD10F0010202D0431078
:109C14000B60F7E78107F5D10168034B9942F1D155
:109C240002F004FE2060E7E75C5003080E2810B53C
:109C34000C461DD01E281ED010F0010209D043107E
:109C440000EE103AB8EEC00A84ED000A0122104674
:109C540010BD8107FBD1036808498B4202D102F091
:109C640011FFF1E706498B42F1D101F0B6FEEBE7B3
:109C74009FED040AE8E7B7EE000AE5E75C50030845
:109C8400C04C03080000000013B501A90446FFF707
:109C9400CDFF38B92046FFF7F1FE044902460448D7
:109CA400FEF701FB9DED010A02B010BD633F0308FE
:109CB400844B030838B5840703460ED104680B4D62
:109CC400AC4203D1BDE8384006F098BE084DAC4222
:109CD40003D1BDE8384003F089B91846FFF7CEFE3A
:109CE400044902460448FEF7DEFA00BF0C6003088C
:109CF400C85103086E3F0308844B030813B50C4690
:109D040001A9FFF7D7FF019BA34204D003490448EC
:109D14002246FEF7C8FA02B010BD00BF773F030821
:109D2400FC4B0308F0B51F46D30785B006460D4625
:109D340014460FD554100394039A002ABCBF521939
:109D44000392039ADFB1002A15DA002303930398E0
:109D540005B0F0BD03A91046FFF748FF0028EBD17A
:109D6400F28801922046FFF789FE019A08490346CA
:109D74000848FEF798FAAA42E9D90395E7E7002ACA
:109D840001DBAA42E3D3F28803490448FEF78BFAC5
:109D9400893F0308844B0308923F03083C480308A7
:109DA400820701D002F093BC002803DB400040F09E
:109DB4000100704702F010BD830710B5014610D1B1
:109DC40002680D4B9A420CD100F00703022B06D116
:109DD400C008F7F794F8400040F0010010BD806817
:109DE400F9E70846FFF73EFE43691BB1BDE81040A2
:109DF400052018471846F1E7345B03080E2810B510
:109E040004461FD01E2801D1012010BD062819D0F8
:109E1400C20703D5013818BF0120F6E7FFF722FE79
:109E2400436943B121460420984720B1A0F11E03A1
:109E340058425841E9E72046FFF7BEFF0028E3D027
:109E44000138E8E70020E0E705282DE9F84F15BFC1
:109E54001E260E264FF00E094FF01E0991420746AA
:109E64000C46154607D1C80720D40846FFF7FAFD6B
:109E7400838859061AD504F00703022B05D0A207DC
:109E840017D122682A4B9A4213D105F00703022BFB
:109E940005D0AB0712D12A68254B9A420ED1294628
:109EA400204605F047F9002808BF4E463046BDE875
:109EB400F88F14F0010A06D0E80734D423464FF093
:109EC400010A2C461D462046FFF7CCFDD0F818B0F9
:109ED4008046BBF1000F10D08288110604D42846B6
:109EE400FFF7C0FD804508D1052F0DD0D8F81830F4
:109EF4002A4621460220984780B9BAF1000FDDD0E6
:109F0400AC4218BF4E46D1E7D306EFD52A462146C8
:109F14003846D8470028E9D00646C7E7022F04D0C0
:109F2400FFF76CFFBFE74E46C0E70646BEE700BF3B
:109F3400905D030808B50A4601460220FFF784FF36
:109F4400BDE80840FFF75ABF10B50446FFF734FFD9
:109F540038B92046FFF792FD024902460248FEF74F
:109F6400A2F910BD993F0308844B030838B5044691
:109F74001546FFF777FD036A13B120469847A0B949
:109F8400204635B9FFF77AFD084902460848FEF72E
:109F94008AF9042D04D1FFF771FD06490246F5E75D
:109FA400FFF76CFD04490246F0E738BDA63F0308FD
:109FB400844B0308C03F0308D23F0308704710B521
:109FC4000446FFF74FFDC36A2BB120469847B0FA09
:109FD40080F0400910BD1846FCE7000008B5FFF703
:109FE400EEFF10B90148FFF785F808BDE43F030808
:109FF400062806BF480040F00100002070470428EE
:10A0040003D0052807D0002070478B68002B14BFAD
:10A014001E200E2070478868400040F00100704701
:10A02400074B0268C1E900300023C1E90233054B44
:10A034009A4202BF4368C3F317238B6008467047F4
:10A04400C4400308A0410308F8B50D46017904464D
:10A0540001F07F0116464020002207F0C1FFA368EB
:10A06400E26827682A6043436B60237903F07F0129
:10A07400A96008498F4209D1190601D4B30707D44E
:10A084006368C3F3172300FB032028600020F8BD96
:10A094000120FCE7A0410308F8B5002205460E465E
:10A0A4000146402007F09CFF07461020F6F7C2F84F
:10A0B400094A0A4B0571012D18BF13460360436812
:10A0C4006FF31F230446C0E9013606FB07F0F6F7D9
:10A0D400B1F8E0602046F8BD284103086441030854
:10A0E4007FB504460122084601A9FFF777FF002245
:10A0F4002179402007F074FF6368029DB5FBF0F5F9
:10A10400B5EB132F0646C3F3172219D9A1682944C6
:10A114004143E068F6F7A9F86368E0606FF31F2332
:10A124006360D4E9020305FB06F200FB06300199E3
:10A1340011F068FAA36806201D44A56004B070BD40
:10A14400521B62F31F23EBE7F7B5466836F0FF06B0
:10A1540004460B461FD1019132460179402007F095
:10A164003FFF6268082161F31F22A1686260083121
:10A1740005464143E068F6F778F86268A168E06054
:10A18400C2F3172201FB0557013A6A4331463844AA
:10A1940011F07EFA019B2079D4E9022108F0F2F94A
:10A1A400A3680133A36063680620A3F5807363602A
:10A1B40003B0F0BD4268C36891688B4230B40AD2E0
:10A1C4001479D16882685D1CC5601A4404F07F006C
:10A1D40030BC07F0A5BF002030BC70472DE9F04F1C
:10A1E400044687B00D4616460AB90025C6E011F0AC
:10A1F40003078068DFF8149240F0D6800B687D4A2C
:10A20400934240F0D1806A4607F08EFB10B97A4839
:10A21400FEF79EFF2179042E01F07F013A464FF0AC
:10A22400400000F0948007F0DBFE16F003020546C0
:10A2340059D133687149186A884247D1317940202D
:10A2440001F07F0107F0CCFEA84202D06C48FEF773
:10A25400B7FD33684B45D6E9028B04D17368C3F369
:10A26400172305FB03BBDDE900022368E668A2EBC4
:10A27400000A4B45A8EB0A0737D194F90430002BA8
:10A28400B3DA002FE2D16368C3F3172305FB036637
:10A2940005FB08F2594605FB006011F0B3F901997A
:10A2A400A2680098521A40446A4305FB016105FB09
:10A2B400006011F0D5F9A068AAEB080238446A439B
:10A2C400002105FB006011F0E3F935E04D4A9342AB
:10A2D40009D1012DBAD12A4603A93046FFF77EFEE3
:10A2E400DDE903B8BFE7484892E7002FD0DD636893
:10A2F400B7EB132F0BD9A168394430466943F5F7FE
:10A30400B4FF6368E06067F31F2306466360009848
:10A31400A268019940443A44121A6A4301FB056158
:10A3240005FB006011F09CF9009805FB08F2594602
:10A3340000FB056011F094F96368C7EB132262F324
:10A344001F236360A3681F44A760062516E007F077
:10A3540047FE23684B45064614D11020F5F76AFFE3
:10A36400054694E80F0085E80F00009A02EB1123DC
:10A3740063F31F216960019B9B1AAB60284607B0F9
:10A38400BDE8F08FDDE900312079C91AFFF784FEBA
:10A39400DDE90032E168D21A0546724306FB031177
:10A3A400C06811F02FF9E9E700232A460146206826
:10A3B400FFF7B8FC23684B45024611D16368042EAD
:10A3C40000EB13220ED094F90430002BBFF60DAF2E
:10A3D4002079E168334600F07F0008F0D3F8B4E751
:10A3E400042EF5D12079E16800F07F0007F098FE93
:10A3F4000546C3E7DC5803083C400308E1A1000814
:10A4040060400308345B03087B400308A041030851
:10A4140070B51B2888B006460C46154626D005D8CC
:10A42400022865D00E284CD0002447E02428FBD114
:10A43400012205A92846FFF7C2FD00284AD0A1073A
:10A4440012D12268364B9A420ED1012202A920462B
:10A45400FFF7FAFD01230093DDE90201DDE905239D
:10A4640004F0BCF8002858D10E2427E0012202A9E8
:10A474002046FFF7E9FD2846012205A9FFF7AEFDB6
:10A4840000229DF81010402007F0AAFDA168069E46
:10A49400B6FBF0F6054631449DF81000FFF7FCFDCD
:10A4A4000446DDE90212C06811F0ACF8E068039BD1
:10A4B400059906FB05F2184411F0A4F8204608B0EB
:10A4C40070BD0A68174B9A42AED029462046FFF762
:10A4D40007FEF3E7EA0708D4AB07C5D12B68124A95
:10A4E400934202D0114A9342BED10020FEF730FEBF
:10A4F400012202A92046FFF7A7FD012205A928464B
:10A50400FFF75DFD0028AFD0069B0093DDE9021242
:10A51400059B304607F047FAA4E71E24CEE700BFA8
:10A5240064410308A04103085C500308C04C0308BD
:10A534002DE9F043012885B007460E4608D08B0765
:10A5440024D10B68254A934202D0254A93421DD157
:10A55400012201A93046FFF732FDB8B10022394685
:10A56400402007F03DFD029EB6FBF0F6054631465D
:10A574003846FFF791FD0199044606FB05F2C068D1
:10A5840011F040F8204605B0BDE8F0833046FFF7EF
:10A5940013FC054600B1451029463846FFF77CFDFB
:10A5A400002104463046FEF701F94FF00008064644
:10A5B4003046FEF75BF903460028E3D025B9194677
:10A5C4002046FFF7C1FDF3E74246E16808F10109BF
:10A5D400384607F0D7FFC846EAE700BF345B0308F4
:10A5E4006441030838B50D461C4611462846094AFD
:10A5F400FEF744FF206804F0FDFD012D007804D12E
:10A60400BDE838400021FFF747BD6168BDE8384028
:10A61400FFF78EBF040002000B79012BF7B5054646
:10A624000C4610D11B490193F6F760FED4E90221D0
:10A63400019B284603F0F8FE1749284603B0BDE8FD
:10A64400F040F6F753BE1A461449F7F7CDF9A3685C
:10A65400002BF1D01249134F2846F6F747FE002687
:10A66400A368B34204D810492846F6F73FFEE3E74F
:10A674001EB139462846F6F739FE3246E16820799C
:10A6840007F04EFD012201462846FFF7FFF9013687
:10A69400E6E700BF94400308B6D30308A0400308CC
:10A6A400AB400308AF40030808DB030837B50C468A
:10A6B4002046114606221D46FEF7E0FE34B9214627
:10A6C400012003B0BDE83040FFF7E6BC2968CA07A3
:10A6D4000BD48B0703D10A680C4B9A4205D0012096
:10A6E40003B0BDE83040FFF723BF0846FFF752FA36
:10A6F400014601900120FFF7CFFC019A0446002196
:10A70400C06810F0C5FF204603B030BD5C5003089C
:10A7140070B50646102014460D46F5F78BFD054A24
:10A72400067102604268C4606FF31F22C0E901250C
:10A7340070BD00BFA04103087FB51D460846114601
:10A744004FF00212FEF79AFE2868012201A9FFF7D2
:10A7540045FC9DF80C40029E21460022402007F053
:10A764003FFC019AB6FBF0F12046FFF7D1FF03222C
:10A77400044601A92868FFF722FC18B1237963F085
:10A784007F032371204604B070BD000038B5054630
:10A7940010200C46F5F74EFD034A02600122C0E981
:10A7A4000125C46038BD00BF64410308136870B557
:10A7B4006BB94468A51C50F825509C4207D055F845
:10A7C4002360B14204D1023350F82330136070BDCA
:10A7D4000133F2E72DE9F0470F461449DFF85490AE
:10A7E400DFF854A016460446F6F780FD06F1080883
:10A7F40000257368AB4205D820460D49BDE8F047F3
:10A80400F6F774BD1DB149462046F6F76FFD57F8BB
:10A81400252051462046F7F7E7F858F8041B012293
:10A824002046FFF733F90135E3E700BFC9580308B1
:10A83400B6D30308AF400308DC4103084B68023376
:10A844000A4651F82310FFF7C5BF0E2914BF032190
:10A854000121FEF7BDBA052805D00E2914BF032136
:10A864000121FDF77DBD0020704738B50C46204618
:10A87400114602221D46FEF701FE1CB12868FFF7AF
:10A88400BDFA08B90E2038BD1E20FCE7032A05D105
:10A894000E2914BF04490549F6F728BD0E2914BF33
:10A8A40003490449F8E700BF583203085D3203083E
:10A8B4006D33030862330308136813B94068FDF766
:10A8C40073BC70472DE9F84F984602EB43035D1CB7
:10A8D400042B00AF82468B4616464FEA85051FD8E7
:10A8E400EB1D23F00703ADEB030D6C464FF000099D
:10A8F4002046B96A40F804BB2A1F10F083FE2346A1
:10A904004246711C5046FDF7B9FD0446B9F1000FEB
:10A9140002D04846F5F7B6FC2046BD46BDE8F88FA0
:10A924002846F5F792FC04460028D9D08146DFE793
:10A9340007B5009313460A46D0E90101FFF7C2FFA9
:10A9440003B05DF804FB000038B505460C200C4646
:10A95400F5F770FC024A8460C0E9002538BD00BFE9
:10A9640058420308406870474160704710B5044678
:10A974000820F5F75FFC024AC0E9002410BD00BFBF
:10A98400944203082DE9F047866806EB010A044661
:10A994000F460AEB420007EB4209052888B015462A
:10A9A400984604F10C014FEA890915D8B6003246DD
:10A9B40003A810F027FE03AB4A464146981910F04D
:10A9C40021FE606803AB2A465146FDF757FD044655
:10A9D400204608B0BDE8F08780000191F5F72AFC15
:10A9E400A26801999200064610F00CFEA0684A463F
:10A9F400414606EB800010F005FEA168606833460E
:10AA04002A463944FDF73AFD04463046F5F73AFC48
:10AA1400DEE70000F7B5CD1CAD00074628460E461C
:10AA24000192F5F707FC074B8660C0E9003704463E
:10AA34000199A5F10C020C3010F0E4FD204603B09E
:10AA4400F0BD00BFD04203082DE9F0411E460F4679
:10AA5400804611463846134AFEF710FD3268124B01
:10AA64009A4202D00020FEF7ABF97068FFF792F823
:10AA7400051EF7DB1820F5F7DDFB0446C0F800805F
:10AA84000023681C6060C4E902338000F5F7EBFB27
:10AA9400022F206103D9B068FFF77CF8606120467B
:10AAA400BDE8F0810600040004600308042803D014
:10AAB400052808D000207047D1E90203984214BF4A
:10AAC4001E200E207047D1E90230C01A44BF4B68E3
:10AAD400C018400040F0010070470000D0E9023186
:10AAE4008B4210B5024603D108490948FDF7D2FB51
:10AAF4000169002451F8230041F8234051680133CF
:10AB04008B4208BF2346936010BD00BF0C4303086B
:10AB14003C48030870B5C5684268466984686B1C84
:10AB24009A4208BF0023F60705D5A34203D108497A
:10AB34000848FDF7AFFB0669A34246F82510C36039
:10AB440004D101339A4208BF00238360062070BDFC
:10AB5400346E03083C480308044B0B60037A0B7102
:10AB640043688B600023CB6008467047C8440308E1
:10AB7400044B0B6001230B7100238860CB600846F3
:10AB8400704700BFC844030810B504460C20F5F70D
:10AB940051FB034AC0E900240222027210BD00BF27
:10ABA4000445030808B503799B0702D50020FEF786
:10ABB400A1FA08BD10B50446FFF7F4FF201DFEF707
:10ABC40026FD062010BD042803D0052808D0002047
:10ABD40070474B6833F0070314BF1E200E207047E4
:10ABE4004868C0F3DC00400040F0010070470000FA
:10ABF400F8B50F6806460D46144612B13846FFF7FD
:10AC0400D1FF69682246381DFEF714FD034608B1DA
:10AC1400406880B9022E07D1022C0AD1696808481D
:10AC240000F089FCF5F7E0FAA868012C00D158601F
:10AC3400F8BD0620F9E7022C04BF00225A60F7E7AA
:10AC4400784803080122FFF7D3BF0222FFF7D0BFE1
:10AC54000022FFF7CDBF30B50B688568AB4201D346
:10AC640000220AE0C46804EBC30254F83340013301
:10AC7400002CF3D0042CF1D00B60104630BD13B57A
:10AC8400044600F10C018068FFF7E5FF60B1237909
:10AC9400012B0BD0022B0BD0036800934368019364
:10ACA4006946022005F0A0FD02B010BD0068FBE774
:10ACB4004068F9E7F0B5174B0A7A174F85B00D468F
:10ACC400044653F82210F6F711FB14492046F6F710
:10ACD4000DFB134B00932B7A8DF804306B680293B1
:10ACE4000023039301266846FFF7C9FF054628B9E8
:10ACF4000C492046F6F7FAFA05B0F0BD1EB93946FC
:10AD04002046F6F7F3FA012229462046FEF7BEFE56
:10AD14000026E8E740450308AF4003087C430308E6
:10AD2400C84403087F4303082DE9F3470C6816461B
:10AD3400074620460D46FFF735FF3168314AC908FA
:10AD44003846FEF79BFB022F14D1686810F003030A
:10AD54001BD10268D1682C4A914216D12A689042CC
:10AD640008D0019304F10408686801A9FFF773FF90
:10AD7400074610B9002504343CE0396801224046F6
:10AD8400FEF758FC7B684360EEE70021FDF70EFDFB
:10AD940004F1040A81464846FDF768FD0028E9D01D
:10ADA4000021FDF703FD8046FDF760FD07464046A0
:10ADB400FDF75CFD05464046FDF758FD0FB105B1B2
:10ADC40010B11248FDF7FCFF012239465046FEF748
:10ADD40031FC4560DFE7B36853F8351003EBC50772
:10ADE40039B1042905D001222046FEF723FC7B68F3
:10ADF400436001357368AB42EDD8062002B0BDE86C
:10AE0400F08700BF0500020059B10008824303081F
:10AE14001FB50446FFF7C6FE636833F0070203D18B
:10AE240011491248FDF736FA00220192227951079E
:10AE340044BFC3F3DC0303F1FF3301A9204648BF39
:10AE44000193FFF708FF6368083B6360036802939C
:10AE54004368039304220023C0E9002302A90220CB
:10AE640005F0C2FC04B010BD8F4303087848030802
:10AE74000228F7B50E4614460BD0242857D10022D9
:10AE84002146301DFEF7D6FB002840D10E2003B02A
:10AE9400F0BD02F003038A0725D10A6826498A42D5
:10AEA40021D1002BF2D1216891421ED1CDE900338A
:10AEB40069463046FFF7CFFE01A907462046FFF753
:10AEC400CAFE0546002F34D00028DFD02968386830
:10AED400FFF730F80028D9D069687868FFF72AF8B6
:10AEE4000028E5D1D2E7002BD0D12268134B9A4237
:10AEF400CCD173686268534033F00703C6D1019321
:10AF0400043401A93046FFF7A6FE054608B91E2001
:10AF1400BDE7296800222046FEF78CFB0028B5D047
:10AF240041686868FFF706F80028EAD1AEE7002018
:10AF3400ADE70028AAD1EAE7884503084C45030891
:10AF440010B40C7A012C06D1242804D149685DF888
:10AF5400044BFFF78DBF00205DF8044B70470000E1
:10AF64002DE9F04F032A15460B68324A18BF012514
:10AF7400934285B004460F46904605D0032D03D076
:10AF8400DA882D49F6F730FD2C49DFF8C0A0DFF848
:10AF9400C090DFF8C0B02046F6F7A8F90023039369
:10AFA400012303A938460193FFF755FE019B06468A
:10AFB40078B923492046F6F799F93B68434505D00B
:10AFC400032D03D01F492046F6F790F905B0BDE8DC
:10AFD400F08F1BB951462046F6F788F9032D27D187
:10AFE400326802F00703022B22D012F0030303D1CC
:10AFF400126892695A4504D049462046F6F776F914
:10B004000123316801932A462046FEF73FFD019B48
:10B014001BB149462046F6F769F90B492046F6F775
:10B0240065F971682A462046FEF730FD0023B8E72B
:10B034000023E6E74C450308A8430308AC43030890
:10B0440086070308B6D3030815910308AF40030825
:10B05400AE43030869F2000810B504460C20F5F766
:10B06400E9F8034AC0E900240022027210BD00BFBF
:10B074000445030810B504460C20F5F7DBF8034A31
:10B08400C0E900240122027210BD00BF0445030878
:10B0940010B5002204300C46FEF7CCFA28B921463C
:10B0A400034800F048FAF5F79FF8406810BD00BF68
:10B0B40078480308024B40F8043BFEF785BA00BF0A
:10B0C4004C45030813B501901020F5F7B3F8019926
:10B0D4000446FFF7EFFF204602B010BDF8B50C465A
:10B0E400064600216068FDF761FB022E0546606894
:10B0F4008CBFA6680626FEF75FFE50B9FFF7E2FF95
:10B104000446071D2846FDF7B1FB014618B9204641
:10B11400F8BD4010F2E701223846FEF78BFA46608C
:10B12400F0E738B504468068FFF7CCFF236862680F
:10B134000360237922F0070203F0050313434360FD
:10B14400A268E1680546D200C06810F05BFA2846A0
:10B1540038BD00002DE9F041804686B000200D4640
:10B1640016461F46FFF7AEFF0F4BC0F80080984508
:10B1740002BF037943F00403037155EA060304464E
:10B184000DD03B68019007EB8502314603A802937A
:10B19400FEF727FA03AA01A9681CFFF7C5FD20469C
:10B1A40006B0BDE8F08100BF884503084068C008C8
:10B1B400704737B5044615460191FFF7F3FC019932
:10B1C4000122201DFEF736FA4560204603B030BD4B
:10B1D40013B50222CDE90001044669461046FFF783
:10B1E40007FD204602B010BD38B50C461AB9FFF76A
:10B1F400EFFF06200DE0042A0CD100220430FEF7F4
:10B2040019FA28B92146054800F095F9F4F7ECFF3E
:10B21400406838BDFFF7CDFFEBE700BF784803086F
:10B2240013B504464068FDF721FB58B1A3685A1CC6
:10B234005B0043F00103CDE90030A26069460220BF
:10B2440005F0D2FA02B010BD30B585B00546084607
:10B2540011461A4602AB0193094B00930223FEF7F1
:10B2640097F90C20F4F7E6FF0021044605600298E4
:10B27400FDF79CFA039B60602046A36005B030BDD7
:10B28400C44503082DE9F8430E46044611463046EA
:10B29400194ADFF870809946FEF7F0F81020F4F7A9
:10B2A400D4FF002814BF0546454600232C60AB603C
:10B2B400E6B1B71CBF003846F4F7C7FF044650B9DF
:10B2C400D8F8C82107F118039A42A8F118080DD339
:10B2D400D8F828401834094BA7F10802C4E900360D
:10B2E400494604F1080010F08DF900E0044CEC60CC
:10B2F4002846BDE8F88300BFFEFF01000C60030888
:10B3040004600308842B0020F8B51546D0E9012316
:10B314000F465919914204460FD30178D9B105F16A
:10B3240010061644C06801223146F4F7A9FF78B923
:10B334006568A2682070013DAD1AD4E902302A463E
:10B344003946184410F05EF9A2682A44A260F8BD98
:10B354006660E060F1E7013AD51AEEE703685A68DF
:10B36400012A70B506462AD19C68A30727D1226812
:10B37400154B9A4223D1E3681B78FF2B20D14A2036
:10B38400F4F763FF054638B9104B9D6AD3F8E031F2
:10B39400343B492B11D93435E1682846F5F724FEAE
:10B3A400E560284610F0BCF90023A0606360D4E98E
:10B3B4000210F5F7BBFC606001E0054B336070BD23
:10B3C4006368002BFBD1F2E7905D03086C2B00202F
:10B3D400046003082DE9F041164602F07F073206A7
:10B3E40005460C460AD47B1E012B07D80B68D88867
:10B3F400F5F78AFD01462846F5F778FF022F03D1B9
:10B404001C492846F5F772FF04F10C00FFF7A6FF6C
:10B4140016F07D0F27D1E3680BB15A682AB9284684
:10B424001549BDE8F041F5F761BF012A1BD1216838
:10B43400124A91420FD19868C3070CD508F0BEFD9B
:10B4440048B1E3680E499A68034652102846BDE89D
:10B45400F041F6F7C9BAE36828469968BDE8F041B7
:10B464000022FEF713BBE16832462846BDE8F041EE
:10B4740005F042B91591030891910308E0490308C6
:10B4840010460308024B0022C3F8E0219A62704779
:10B494006C2B002010B5FEF77DFB041E11DDF4F7C4
:10B4A400C9FE094B9A6AEFF3108172B6C3F8E04102
:10B4B400986281F3108812B11046F4F7E3FE062077
:10B4C40010BD0020EDE700BF6C2B0020C3685B6853
:10B4D40010B504462BB10C30FFF740FFE3689868C1
:10B4E40010BD0620FCE7000038B513680546144675
:10B4F40043B1D22905D15368062B02D10023C3805E
:10B50400236038BD3D2904D10C30FFF727FFEB68D9
:10B51400F6E70268044B9A42F3D1A229F1D1FFF76E
:10B52400D5FF2060EDE700BFD04A030800231A4688
:10B534001946FFF7A7BE07B50022019101AB01210F
:10B54400FFF7A0FE03B05DF804FB000073B50546E9
:10B5540010200E46F4F779FE044630B90D4BD3F8AB
:10B56400E021332A0ED99C6A24340B4B23603046E5
:10B5740010F0D6F80022C4E902066260019401AB1F
:10B58400012102E00346024601462846FFF77AFEFF
:10B5940002B070BD6C2B0020905D03082DE9F043D0
:10B5A40006469BB010200D461746F4F74EFE04469F
:10B5B400284610F0B5F800F1010980464846F4F732
:10B5C40044FE0CB1002843D12249D1F8E021432A9A
:10B5D40029D9886AA2F1340900F124040121343004
:10B5E40003AB01931C4B02932B78CDF8109081F0A0
:10B5F40001010022FF2BCDE905208DF80C1004D1A8
:10B60400294607A8F5F7F0FC07AD3A46294601A8F4
:10B61400F6F796F8DDE905320021D154059BA360C5
:10B62400069BE3600CE044B923462246214630469B
:10B63400FFF728FE1BB0BDE8F08348B9C4E90285D2
:10B64400064B23600022626007AB07940121EEE7FA
:10B654000021C5E76C2B00200DB30008905D0308A2
:10B664000EB403B503AA52F8041B0192FFF796FF28
:10B6740002B05DF804EB03B070470000830707D104
:10B684000268064B9A4203D1C268054B9A4202D023
:10B69400044906F023B80120704700BF5C62030828
:10B6A40089B20008D446030808B5FEF7DBF9BDE803
:10B6B4000840FFF7E3BF38B504460D46FFF7F4FF33
:10B6C40018B12046FEF7CEF9044629462046BDE8C7
:10B6D400384006F003B800002DE9F041044617464F
:10B6E4001E468846FEF7BEF91C4BC2689A4218BF34
:10B6F4002469A068E8B90C20F4F7A7FDA060B0B9EC
:10B70400174BD3F8E021172A0FD99B6AA3600623AD
:10B71400A3800023E380E388A168D81C01EB8302A3
:10B72400E08041F82380C2E90176BDE8F08103237B
:10B73400EEE7E388A5880233AB42ECDB084B9B6A57
:10B744009842F2D003350122A900F4F799FD0028AC
:10B75400EBD0A388A0600333A380DCE789B20008A0
:10B764006C2B002070B5044615460E46FEF77AF998
:10B77400064BC2689A4218BF2469A36813B93360A0
:10B784002B6070BDE2883260FAE700BF89B200081E
:10B7940037B50446A068FDF769F8019068B165689B
:10B7A400062D05D001AB002201212846FCF766FED8
:10B7B400FEF724FB0028EDD0019803B030BD70B52E
:10B7C4000646084611464FF004121D46FDF756FE84
:10B7D4000C20F4F72FFD06602B684360044600211B
:10B7E4006868FCF7E3FFA060204670BD30B587B001
:10B7F400002300930D4695ED010A044607236722B2
:10B80400102102A8FBF790FD02A92046F5F76EFD72
:10B814002E2102A80FF0D8FF68B9652102A80FF005
:10B82400D3FF40B96E2102A80FF0CEFF18B9034927
:10B834002046F5F75BFD07B030BD00BFE4D0030838
:10B8440038B5D1ED000A90ED000A2DED028B0546C6
:10B854000C4612F06DFB95ED007AD4ED007A77EE8C
:10B86400406AB5EE400AF1EE10FAC6EEA78AB0EED1
:10B87400408A21D117EE903A9FED248ADFED246AA5
:10B88400002BB8BFB0EE668AF5EE408AF1EE10FAEE
:10B8940029D1C7EE277A9FED1D0A17EE903ADFED06
:10B8A4001C7A002BB8BFB0EE670A85ED000A84ED60
:10B8B400008ABDEC028B38BDB5EEC00AF1EE10FA79
:10B8C400F5EEC07A4CBF01220022F1EE10FA4CBF13
:10B8D400012300239A421EBFF7EE006A30EE278A46
:10B8E40078EEE68AD0E7B0EE680A11F083FB78EED2
:10B8F400C08AF6EE007AF4EEE78AF1EE10FAC4BFDD
:10B90400F7EE007A30EE270ACFE700BF0000000010
:10B914000000008008B508202DED028BB0EE408AAF
:10B92400F4F788FC80ED018ABDEC028B014A0260C9
:10B9340008BD00BFC04C030830B50D4687B01146A2
:10B94400284602221C46FDF799FD25B99FED0E0AF3
:10B95400FFF7E0FF0CE02068012203A9FEF72FFBAC
:10B9640040B10023DDE9030100931A46FBF7B8FF59
:10B9740007B030BD2068830703D10268034B9A42A5
:10B98400F6D0FEF781F9E3E700000000C04C03089D
:10B9940091ED010A072805D8DFE800F0051B04042F
:10B9A40007040F17002108467047B5EE400AF1EE70
:10B9B40010FA14BF1E210E21F5E7BDEEC00A10EEE9
:10B9C400103A590041F00101EDE710EE103A002B56
:10B9D400E9DAB1EE400AFFF79DBF90ED010A704726
:10B9E40010B52DED028B86B00446084603A98DEDF3
:10B9F400010AFEF71BF9002800F0DE80232C00F278
:10BA04001B81DFE814F0DD00E900F50001010D0100
:10BA14001901190119011901190119011901190152
:10BA2400190124003100380019013F004F005D0066
:10BA3400900019011901190119011901240031009B
:10BA4400380019013F004F005D009000BF00DDED9C
:10BA5400017A9DED037A77EE877ACDED017A9DED3B
:10BA6400010AFFF757FFA7E0DDED017A9DED037AA8
:10BA740077EEC77AF1E7DDED017A9DED037A67EEA3
:10BA8400877AEAE7DDED037AF5EE407AF1EE10FA13
:10BA940003D16A496A48FCF7FDFB03A901A8FFF733
:10BAA400CFFEDCE7DDED037AF5EE407AF1EE10FA35
:10BAB400EFD0DDED016A86EEA77A8DED017ACEE74F
:10BAC400DDED030AF5EE400AF1EE10FAE1D09DED4A
:10BAD400010A12F02DFAB5EE400AF1EE10FA8DEDDE
:10BAE400010A09D1039BDFED577A9FED577A002BAA
:10BAF400B8BFF0EE477AB0E7DDED037AB5EEC00AE1
:10BB0400F1EE10FAF5EEC07A4CBF01220022F1EEFC
:10BB140010FA4CBF012300239A42A0D030EE270A2A
:10BB24008DED010A9BE7DDED018A9DED038AF5EEBB
:10BB3400408AF1EE10FA0DD1B5EEC08AF1EE10FA9A
:10BB440008D59FED427AF0EEC87AF4EE477AF1EE2A
:10BB540010FA9EDDF5EEC08AF1EE10FA0BD5B0EEC8
:10BB6400480A11F047FAB4EE480AF1EE10FA02D08E
:10BB74003748FDF725F9F0EE480AB0EE680A10F0F0
:10BB84007FFCCDE7DDED037AF5EE407AF1EE10FAB5
:10BB94003FF47FAF03A901A8FFF752FE9DED010A10
:10BBA400FFF7B8FE9DED030A0490FFF7B3FE04A966
:10BBB4000590022004F018FE06B0BDEC028B10BD07
:10BBC4009DED017ADDED037AB4EEE77AF1EE10FA39
:10BBD4004CBF1E200E20EFE79DED017ADDED037AC8
:10BBE400B4EEE77AF1EE10FACCBF1E200E20E3E7A4
:10BBF4009DED017ADDED037AB4EE677AF1EE10FA89
:10BC040014BF0E201E20D7E79DED017ADDED037AE7
:10BC1400B4EEE77AF1EE10FA94BF1E200E20CBE7C3
:10BC24009DED017ADDED037AB4EEE77AF1EE10FAD8
:10BC3400ACBF1E200E20BFE70020BDE7023E030874
:10BC4400384C03080000000000000080FFFF7F7FE5
:10BC5400BD3C03080B4693ED010A1146FFF7C0BE35
:10BC640010B50446084611460022FDF707FC636838
:10BC7400BDE81040184770B51C46054608461146F5
:10BC84004FF00212FDF7FAFB6B682068BDE87040C4
:10BC9400184770B505461C46084611464FF0041275
:10BCA400FDF7ECFBD4E900016B68BDE87040184770
:10BCB40070B51C460546084611464FF00612FDF7BE
:10BCC400DDFBD4E901126B682068BDE870401847B9
:10BCD40070B5054686B00C4611464268019120466F
:10BCE4001E46FDF7CBFB6B68019913F0010F0BD0D7
:10BCF40006EB840203A8FDF774FCAB6803AA314683
:10BD04002046984706B070BDAB6831462046984738
:10BD1400F8E700002DE9F04F064683B000AF8846EF
:10BD240091469A46FDF79CFBB16811F8012B00205F
:10BD3400C2F3C303C2F38005120640D4013305EBFA
:10BD440045051D44AD002C2D05F1140B46D80BF10F
:10BD5400070B2BF0070BADEB0B0D6C460025414692
:10BD64004FF0000BDFF894802660A3814A465346C7
:10BD74002046C4F804B009F039FAD8F800307268E3
:10BD84005B68DB682361D8F800305B685946DA6089
:10BD9400204608F05FFAD8F8003022695B6806464E
:10BDA400DA6020BBA368D3F800801DB12046F4F705
:10BDB40069FA06BB40460C37BD46BDE8F08F11F862
:10BDC400012B4FEA400C02F0300404FA0CF4234334
:10BDD40002F00204844025430130ADE758467B60FD
:10BDE400F4F733FA7B6804460028B8D1AFE7D4F8F7
:10BDF4001480002DDAD14046F4F7F6F90832002019
:10BE040010F9013B002BFBDB00887047806810F8B9
:10BE1400013B1B06FBD4FFF7F3BF08B513683BB91E
:10BE2400172905D1FFF7F2FFC00040F002001060AF
:10BE340008BD000013B5044608460191FFF7E6FF6C
:10BE4400019B04490246204602B0BDE81040F5F7C4
:10BE5400CBBD00BFFC4C03082DE9F8430F469146C7
:10BE640098460646F8B14568FFB1681C0430800066
:10BE7400F4F7E0F90E4B03600E4B1B685B68DB685C
:10BE8400C0F80C80C0E9013904462EB1AA0006F1BD
:10BE9400080110300FF0B6FB17B1043544F82570D3
:10BEA4002046BDE8F8830546DEE72846DEE700BF06
:10BEB400144D0308083200202DE9FF41064680682E
:10BEC40010F8015B0027C5F3C30CC5F380042D06ED
:10BED4001FD40CF1010504EB44042C440734A000E6
:10BEE400CDE902230191F4F7A5F904461248206034
:10BEF4000620C4E901060020E060DDE9022304F124
:10BF040008000199A58209F071F9204604B0BDE842
:10BF1400F08110F8015B4FEA470805F0300E0EFA85
:10BF240008FE4CEA0E0C05F0020E0EFA07FE44EA77
:10BF34000E040137CBE700BF444F030808B543683C
:10BF440013B90348FCF73CFF4160184608BD00BF25
:10BF54007C4E030870B5054688680C46FFF756FF0B
:10BF64002346024602492846BDE87040F5F73CBD29
:10BF7400894E03082DE9F84304460D4617461E462C
:10BF8400FDF76EFAE06820B9306005462846BDE842
:10BF9400F883636813B92748FCF712FF062B18BF10
:10BFA4001F46236904F11802934204D1062D03D0DD
:10BFB4002148FDF79FF81D60DFF88C90D9F8003018
:10BFC4005B682046DB68A361D9F8003050F8082F7D
:10BFD4005B6852684FF00008C4F804803946DA60A0
:10BFE40008F038F9D9F80030A2695B680128DA60F2
:10BFF4004FF006030546636007D00228C4F80C809E
:10C0040009D023691B683360C0E722691268326073
:10C0140022691360BAE7E0693060FDF723FD074940
:10C0240005F05CFB0028B1D005490648FFF78EFAFD
:10C034003060ABE77C4E0308A74E0308D04A0308E0
:10C04400403D0308584A03080832002007B501ABF5
:10C05400FFF790FF01280AD002280DD00199062984
:10C064000CD029B10648FFF766FAF4F7BDF8019938
:10C07400084603B05DF804FB0198F6E70021F7E7F2
:10C08400D04A0308022808B54A680B4603D98968D0
:10C09400062918BF0A4606211868FFF7D7FF01468C
:10C0A40010B90248FCF7F6F808BD00BFD04A0308EF
:10C0B40008B50022FFF7CAFF014610B90148FCF792
:10C0C400E9F808BDD04A030800220621FFF7BEBFE5
:10C0D40007B50E4A01AB0621FFF74CFF012805D036
:10C0E400022807D0062003B05DF804FB084909487C
:10C0F400FCF7D0F80198FDF7B5FC074905F0EEFA16
:10C104000028EFD10198F4F76FF800BF344F03080B
:10C11400C74E0308584A03088847030830B593B04C
:10C1240005466846F4F748F8014680B92A1D0120FF
:10C13400FCF71CFAEB6823F00103023343F001031C
:10C14400EB600446F4F72EF8204613B030BD019896
:10C15400054A0368934204D0044A934201D0F4F799
:10C1640043F80024F0E700BFD04A03083C48030822
:10C17400044B0B6003684B6043688B600123CB6006
:10C1840008467047BC4F03082DE9F041486886B063
:10C194000C46FDF7FFFC021E02DA0020FCF710FE3D
:10C1A400D4F80880019240F26A37B8EB07061146CA
:10C1B40002A818BF0126F4F7A5FF049D019A0021E7
:10C1C40028460FF065FA2068019A10F0010F0AD191
:10C1D4002B46314600F00DFA02A90A4802F0D0FAC3
:10C1E40006B0BDE8F081042A4FEA6003104628BF78
:10C1F4000420B84514BF121A00222A44314606F01E
:10C20400B0F8E9E7345B0308F0B50C4685B0606824
:10C21400012201A9FDF7E2FEA5680299019A40F204
:10C224006A339D4203BF01F1FF339B184FF0FF3681
:10C23400134618BF01260C46002014B900F0CCFAAE
:10C244000BE0B0F5800F04F1FF3408D340F26A30FC
:10C25400281A18BF012000F0BCF905B0F0BD1F7802
:10C26400334447EA0020E8E710B510EE103AC3F370
:10C274000F4202F4FF42B2F5FF4F2DED028BB0EEF8
:10C28400408A09D1C3F316031BB914491448FCF7B7
:10C2940001F81448FCF794FD002B13DA33F0004244
:10C2A40013D003F1FF43B3F19C4F0ED900F05AF9B8
:10C2B400B0EE480A04460430F5F7FCFDBDEC028BF1
:10C2C400204610BDDB0DDB05EDE7FDEEC87A17EE69
:10C2D400900A400040F00104F0E700BFF84F030863
:10C2E4001C4A03080150030830B50D4685B01146B9
:10C2F400284604221C46FDF7C1F8002D3BD0012D31
:10C304002AD12068C30720D410F0030303D10168A5
:10C314001A4A914219D000F00702022A05D0B3B993
:10C324000368174A9969914208D103A902F07CFF76
:10C33400002303991A46FBF755FA06E0114A934283
:10C3440005D1FFF74AFBFFF78FFF05B030BD01466B
:10C354000820FCF705F8F8E703A9206802F064FF59
:10C364000399019105466068FDF714FC01990246A2
:10C3740000232846DFE70120E7E700BF5C500308FD
:10C3840069F20008C04C030838B50A4C214411F87E
:10C39400015CB0FBF5F55BB16C1C0320B4FBF0F45D
:10C3A40010460AB10FF0BCF903352C44204438BDC3
:10C3B4001C46F5E74C5003082DE9F74F13F0010F25
:10C3C400DDE90C869DF838409DF83CA000920746B4
:10C3D4008B463FD05D1044D44FF00009534641468C
:10C3E40032462020FFF7D0FFDBF8003083420146BD
:10C3F40006D20190F3F71EFF01993860CBF80010C4
:10C40400D7F800B00BEB0102002302F8013C65B33E
:10C41400013A1046A4F10A0EAC46B5FBF8F508FB48
:10C4240015C3092B8CBF73443033441E00F8013C00
:10C43400BAF1000F30D0C4451BD3A34519D2131B46
:10C44400032B05D1841EA34500F802AC11D2224669
:10C454002046E1E7CDE90E4A03B0BDE8F04F00F015
:10C464008FB86D424FF02D09B8E73023941E02F8BF
:10C47400023CCEB1304601910FF052F9201A8345A7
:10C48400019911D2013E024616F8013F4BB9044608
:10C49400B9F1000F0DD10FE0A345EAD2C445D7D2BC
:10C4A400E7E702F8013BEFE7B9F1000F04D05C4580
:10C4B40002D904F8019C013C3868009B0144091B23
:10C4C40001392046196003B0BDE8F08F30B58DB056
:10C4D400102206920022CDE9022201920A220B4682
:10C4E400044608AD009206A907AA05A80595FFF71A
:10C4F40063FF01462046F4F7F9FE0598A84201D0EF
:10C50400F3F7C0FE0DB030BD0E2A30B413460C460E
:10C5140003D1012230BCFCF75BBC1E2A01D10322EB
:10C52400F8E71D2814D102F00702022A0CD09A075A
:10C534000ED11A6808499069884205D007498A4291
:10C5440002D007498A4203D1224619461D20E1E759
:10C55400002030BC704700BF69F200080C6003087B
:10C56400C851030810B51020F3F764FE034B0446CA
:10C5740040F8043BF5F737FC204610BD5C50030837
:10C584002DE9F74FDDE90C9A9DF83CB00546986813
:10C594000E4690461C4652465B4649460001FFF74C
:10C5A400F3FE33688342074603D2F3F743FE286061
:10C5B40037602D689DF83830CDE900B552464946BC
:10C5C400201DF6F74FFBC8F80000284603B0BDE86D
:10C5D400F08F73B50E4605460192FFF7C3FF019B2A
:10C5E4000446324629460430F5F70FFD204602B0D2
:10C5F40070BD70B504460D461846002116460FF06E
:10C6040047F8324603462946201DBDE87040F6F738
:10C61400CCBAC30706D5401000280DDB14BF012097
:10C6240000207047836853B1037913F0010F14BFDE
:10C634004FF0FF30012070474FF0FF30704718462D
:10C64400704738B50C46072805D8DFE800F0051414
:10C654001D0407040D250024204638BD8B68002BDB
:10C6640014BF1E240E24F7E7081DF6F772FA4000E3
:10C6740040F00104F0E7FFF775FF211D0546043083
:10C68400F5F722FD2C46E7E7FFF76CFF211D054671
:10C694000430F5F728FDF5E70B79DB07DCD5FFF768
:10C6A40061FF211D05460430F5F703FDEAE71FB5D8
:10C6B40002910390FFF756FF01210446DDE902329F
:10C6C40000910430F5F7CAFB204604B010BD90EA8F
:10C6D40040024FEA400302D443F001007047C117FF
:10C6E400FFF7E5BF1FB502910390FFF73BFF002161
:10C6F4000446DDE9023200910430F5F7AFFB204631
:10C7040004B010BD2DE9F04F10F001098BB00646BE
:10C714000D46144605D1810715D102682C4B9A4267
:10C7240011D115F0010805D1AA070CD12A68284BAC
:10C734009A4208D114F0010B08D1A30703D122684F
:10C74400234B9A4202D02348FCF7D4FC002000215A
:10C75400FFF7C8FF0DF1040A0746B9F1000F31D005
:10C7640071105046F5F766FB56460DF11009B8F105
:10C77400000F29D069104846F5F75CFB4D460DF1D2
:10C784001C08BBF1000F21D061104046F5F752FBA5
:10C79400444623462A463146381DF6F783F9564562
:10C7A40002D13046F5F724FB4D4502D12846F5F772
:10C7B4001FFB444502D12046F5F71AFB38460BB05F
:10C7C400BDE8F08F0436D0E70435D8E70434E0E759
:10C7D4005C5003089850030810F0404F03D1400008
:10C7E40040F0010070470021FFF77CBF2DE9F341C1
:10C7F40004460E4617469846FFF7B4FE3B460546E8
:10C804002168CDF8008032460430F5F7B2FB236886
:10C8140018442060284602B0BDE8F081C30701D562
:10C82400401070470430F6F794B90000C30707B509
:10C8340003D5401003B05DF804FB01A90430F6F7FA
:10C844009BF908B10198F5E701490248FBF722FD7D
:10C85400B35003081C4A03082DE9F0432DED028B65
:10C864009046CA0789B007460C4625D54B100222CC
:10C8740001A902A8F5F7E5FA02AE18F0010F1DD0E0
:10C884004FEA6803022201A902A8F5F7DAFA02AD19
:10C89400202F01D0132F33D16B68002B60D030468A
:10C8A400F6F7C0F92846B0EE408AF6F7BBF988EEF1
:10C8B400000AFFF72FF81CE00E1DDEE718F0030F47
:10C8C40012D1D8F800306A4A934202D108F1040523
:10C8D400DEE7684A934207D13046F6F7A3F94146AA
:10C8E4003846FFF77DF804E0424621463846FFF714
:10C8F4000BFE0446204609B0BDEC028BBDE8F08374
:10C90400A7F109095FFA89F31A2B00F28B80FFF76C
:10C9140029FE0446B9F1190F71D8DFE809F043493B
:10C924003D4F4F0D1319701F70326443493D4F4FF3
:10C934000D1319701F7032642A4631460430F5F71E
:10C94400BCFCD7E72A4631460430F5F7EEFCD1E7C4
:10C954002A4631460430F5F7AEFECBE76B681BB9C7
:10C9640045494648FBF796FC05A8F5F73CFA2B46E3
:10C97400324605A9201DF5F755FF05A8F5F738FA45
:10C98400B8E76B68002BEBD005A8F5F72CFA2B461B
:10C994003246211D05A8EEE72A4631460430F5F754
:10C9A40004FDA7E72A4631460430F5F793FDA1E7D5
:10C9B4002A4631460430F5F713FE9BE74046FFF75D
:10C9C40035FF021E02DA2E48FCF7FAF9192F04F19A
:10C9D4000400314601D00C2F02D1F5F7BDFB89E7E5
:10C9E400F5F715FC86E76B681BB12B78DB073FF581
:10C9F40073AF2A463146201DF5F7D5FE7AE76B68FA
:10CA0400002BADD0FFF7AEFD211D07462B46324665
:10CA14000430F5F707FF05A90220CDE9057403F0FA
:10CA2400E3FE66E729463046F5F723FB042F1DD8BD
:10CA3400DFE807F00308170D12000028ACBF0E242E
:10CA44001E2457E70028D4BF0E241E2452E70028D2
:10CA5400CCBF0E241E244DE70028B4BF0E241E2490
:10CA640048E7002814BF0E241E2443E7002441E7AE
:10CA74005C500308C04C0308023E0308384C03080A
:10CA8400E13D03080430F6F7CDB8042803D00528A7
:10CA940007D0002070478B68002B14BF1E200E2087
:10CAA40070478868400040F001007047044B0B60F9
:10CAB400044BC1E901300023CB600846704700BF36
:10CAC40044540308FBCA000870B5836803EBD371B0
:10CAD40049109B0000229142A3F1040301DC0620CB
:10CAE40070BDC468E65854F8225044F82260C46803
:10CAF4000132E550EFE7D0E9022391688B423BBF56
:10CB0400D26852F823200022013338BFC360104694
:10CB1400704738B50D46D0E901138B42044611D352
:10CB2400C900C068F3F7A1FB6268A368E060520023
:10CB34006260D21A013A01339200002100EB8300B3
:10CB44000EF0A6FDD4E90232591CA160062042F879
:10CB5400235038BD8368491048BFC91870B521EA0D
:10CB6400E17405469C424FF0060128BF1C46164658
:10CB7400FFF7CFFFAB68E968013B9C4203DB41F858
:10CB84002460062070BD01EB830252F8042C41F8A6
:10CB94002320F0E738B50025044685601021C068DD
:10CBA400F3F763FB0423E0606360102229460EF070
:10CBB4006FFD062038BD2DE9F84F81460F4690469B
:10CBC4009A46FCF74DFCB94501D3BDE8F88F3D68A2
:10CBD400A9F1040BB8F1000F04D029464046FBF735
:10CBE400BBFC05463E460BF10404A64209D9216864
:10CBF400B8F1000F18D12A460020FCF7E9F8824565
:10CC040010D0043EB44224D2B8F1000F11D13268DE
:10CC140029460020FCF7DCF88245F2D0236832680C
:10CC240022603360A346DEE74046FBF795FC0146ED
:10CC3400E1E731684046FBF78FFC0246E8E73146FE
:10CC4400534642464846FFF7B6FF3E463746D94666
:10CC5400B9E73A68236822603C1BA4103B60013C9E
:10CC6400A6EB0903B4EBA30F0BF1080BE7DC584662
:10CC7400534642463946FFF79EFFCB46E6E700009F
:10CC84001FB502AB0C460193104B009304310223F1
:10CC94000138FCF71FFC23689968012912D9029A0C
:10CCA400D8689DF80C30062A01F1804101F1FF316A
:10CCB40008BF0022002B14BF0E231E2300EB8101AA
:10CCC400FFF779FF062004B010BD00BFEC50030845
:10CCD40010B40C6802460B46D4E902105DF8044B0C
:10CCE40004F0E0BE38B50C68A56803461DB91A49BE
:10CCF4001A48FBF7CFFA012B18BF4A68206808BF0F
:10CD04004FF0FF3229460023FDF70CF8A268E368D0
:10CD1400013A53F82050A26003EB8001121A9200EA
:10CD2400043103EB80000EF09BFCD4E902320021B5
:10CD340042F82310616804290BD9B1EB430F08D9D9
:10CD44004908E0688900F3F790FA6368E0605B08DB
:10CD54006360284638BD00BFE45003083C4803081C
:10CD640007B5CDE9000169460220FFF7B1FF694626
:10CD740001900220FFF7B6FF062003B05DF804FB24
:10CD840038B5044608460021FBF710FD0546284641
:10CD9400FBF76CFD0146204601B938BDFFF7B9FE2B
:10CDA400F5E70A46D0E9021004F0B0BE2DE9F041DF
:10CDB400032A0F461049DFF84880144605460CBF85
:10CDC40014460124F4F792FA0026BB68B34205D84E
:10CDD40028460A49BDE8F041F4F788BA1EB1414635
:10CDE4002846F4F783FAFB68224653F826102846AF
:10CDF400FCF74CFE0136E8E7AD40030808DB030806
:10CE0400AF40030870B511F0030604460D4629D15E
:10CE14000A68174B9A4225D1AB6881681944436864
:10CE2400994210D904318900C068F3F71EFAAA6840
:10CE3400A368E06013441A1D62603146102200EBBF
:10CE440083000EF025FCD4E90203AA68E968920085
:10CE540003EB80000EF0D6FBA368AA681344A3601A
:10CE6400062070BD29462046FFF78AFFF8E700BF79
:10CE7400C851030838B504290B4B0360044608461F
:10CE840038BF0420C4E9010180000D46F3F7D2F94C
:10CE94006268E060521B00EB85009200BDE83840F8
:10CEA40000210EF0F5BB00BFC851030813B5019073
:10CEB4001020F3F7BFF901990446FFF7DBFF204682
:10CEC40002B010BD1B287FB503460E46154622D07E
:10CED40005D8042844D90E283CD0002437E01D2866
:10CEE400FBD103A91046FCF781FE0028F5D0039B73
:10CEF400002BBCBF002303930398B3685843FFF788
:10CF0400D5FFC36800930446039BB268F06804210C
:10CF140004F0F7FC1BE012F00304DED112681B4B93
:10CF24009A4214D1AB6888681844FFF7BFFFB2680F
:10CF3400F16804469200C0680EF064FBB068E368D0
:10CF4400AA68E968920003EB80000EF05BFB2046C0
:10CF540004B070BD11463046FFF754FF3446F6E77F
:10CF6400AA0703D12968094A914203D0022BB4D1FC
:10CF74000E24ECE7AB680093D6E90221EB6804F0D9
:10CF840046FD0028F4D01E24E1E700BFC851030881
:10CF940013B508461146022201901C46FCF76EFAAE
:10CFA400019820B902B0BDE81040FFF77FBF002010
:10CFB400FFF77CFF216802B0BDE81040FFF7E0BE38
:10CFC40038B50C460546FFF771FF4CB938BDC26849
:10CFD40054F8231042F823100133AB42F7D1F5E79C
:10CFE4000023FAE7D0E90201FFF7EABF83680B6088
:10CFF400C368136070478160704738B504461546AE
:10D0040000230A4681680068FCF78CFEE36843F855
:10D01400205038BDF0B5044689B00D4601F0030632
:10D0240010466ABB26BB0A685B4B9A4220D1A068B3
:10D0340002AA04F079FC10B90020FCF789F8DDE9B4
:10D044000257D4E90220D21B00EB8701920000EBC7
:10D0540085000EF005FBED1BA068E36828446FF023
:10D0640003026A43314603EB80000EF011FB73E0C8
:10D0740005A90220CDE90545FFF734FE062511E098
:10D08400042A2CD1A06806BB0A68434B9A421CD1DF
:10D0940005AA04F049FC40B9D4E9020105AA04F048
:10D0A40060FC0546284609B0F0BDDDE90530C01A2C
:10D0B400FFF7FCFEE368826805990546920003EBDE
:10D0C4008101C0680EF09EFAECE700232A4601466F
:10D0D4002068FCF727FEE36853F82050E2E7002EAF
:10D0E40053D10A682C4B9A424FD101AA6946FCF7E6
:10D0F400E1FDA06805AA294604F016FC00289BD08F
:10D10400DDE90535009AE068ED1A551B002D27DD91
:10D11400A16863682944994206D98900F3F7A5F800
:10D12400A368E0602B446360009A059BE06806995D
:10D134001344A2682A44D21A00EB8101920000EB46
:10D1440083000EF08DFAE368009A05980199920025
:10D1540003EB80000EF084FAA3681D44A5608DE7FC
:10D164000199920000EB83000EF04CFA0699A26834
:10D17400059B009FE068521A3B4400EB810192003A
:10D1840000EB83000EF06CFA66E70246294620465F
:10D19400FFF733FF72E700BFDC580308F7B5044616
:10D1A40040688000F3F746F804F10C0703460026B4
:10D1B4006168B14206D8A068002203B0BDE8F0401F
:10D1C400FBF75CB957F8040B0193FBF74FFB019B8A
:10D1D400054618B143F826000136E9E71846F3F787
:10D1E40051F8284603B0F0BD2DE9F0410C4606463F
:10D1F400114620460F4A1F46FCF740F9A01C800048
:10D20400F3F718F806603B688360013C0546446008
:10D2140000F10C080026B44202D82846BDE8F0818B
:10D224000136002157F82600FBF7C0FA48F8040B32
:10D23400F1E700BFFEFF050070B5054648680E46DD
:10D244000022BA210430FCF7F5F9B0B1406801F0CE
:10D25400D1FF04467068002240F2BA510430FCF752
:10D26400E9F960B1406801F0C5FF22460346074969
:10D274002846BDE87040F4F7B7BB054CEAE7224600
:10D2840028460449BDE87040F4F7AEBB4052030899
:10D294009191030858520308F8B5154612680746D9
:10D2A4000C464068CAB9CE0046F002063146043046
:10D2B400FCF7C0F9024610B143682B600CE00E2C59
:10D2C4000AD0786872210430FCF7B4F920B14068C0
:10D2D4003146FBF741F92860F8BD03799B070DD56A
:10D2E4000C4B9842F8D10C4ED6F8C03023B901202B
:10D2F400FDF7E8FEC6F8C000D6F8C0006A68E10091
:10D3040041F002011AB9FDF763FF0023D5E7FDF7E9
:10D3140050FFFAE7506603086C2B0020C00070B57C
:10D3240040F0020501220C482946FCF783F94468C1
:10D33400064674B90820F2F77DFF084B03600446E3
:10D344000120FDF7BFFE2A466060BA21FDF731FFD8
:10D354007460204670BD00BFAC2B00205C530308F2
:10D3640007B5C00040F00201002207480191FCF714
:10D3740061F9019920B902460448FCF75BF900B150
:10D38400406803B05DF804FBAC2B0020685203082E
:10D3940070B50C4C064600252068C008F3F7B4FDB0
:10D3A4000378752B06D1314601300EF0C7F908B960
:10D3B400606870BD01351D2D04F10804ECD1002016
:10D3C400F7E700BF745203080620704770B515468E
:10D3D40006460C46FCF746FB0D4BC2689A4202D047
:10D3E4000C48FBF787FE04F00703022B07D0A307C2
:10D3F40003D12268084B9A4201D00020F1E70122B0
:10D404002146301DFCF716F94560062070BD00BFAB
:10D414008113010898530308905D030807B5820738
:10D4240007D10168074A914203D1C268064B9A4268
:10D4340002D00648FBF75EFE01A903F089FF03B0A2
:10D444005DF804FB5C620308811301089853030828
:10D4540010B50446084611460022FCF70FF80420D4
:10D46400F2F7E8FE046010BD38B505460C46FCF73B
:10D47400F9FA0F4BC2689A4202D00E48FBF73AFE03
:10D4840004F00703022B07D0A30703D122680A4B39
:10D494009A4201D00020F1E702222146281DFCF720
:10D4A400C9F818B905490648FAF7F4FE062038BD4C
:10D4B4008113010898530308905D0308A6530308D9
:10D4C400984603084368184770B5054610200E4671
:10D4D400F2F7B0FE044695E80F0084E80F00E6601A
:10D4E400204670BD70B5054610200E46F2F7A2FE28
:10D4F400044695E80F0084E80F00A660204670BD3E
:10D5040070B5054610200E46F2F794FE044695E8E1
:10D514000F0084E80F006660204670BD10B586B029
:10D524000446084611461A4602AB0193084B009381
:10D534000423FCF72DF81020F2F77CFE029A4260D7
:10D54400039A8260049A0460C26006B010BD00BFF2
:10D554008054030804307047032A0CBF0149024970
:10D56400F3F7C4BE1C5503086833030838B50B68C9
:10D574000C46DA8805490546F4F736FA216822464E
:10D5840028464031BDE83840FDF724B91B4603085E
:10D5940010B5C26B00F140030020824202D14FF06B
:10D5A400FF3010BD53F8044B8C42FAD00130F4E73D
:10D5B40038B51368054614464BB90068FFF7E8FF11
:10D5C400431C03D0831C55F82330236038BD024923
:10D5D4000248FAF75FFE00BF605503089846030847
:10D5E4002DE9F3471746C26BCD19954280460C4688
:10D5F400994604D01E491F482B46FAF754FE0021D1
:10D60400284603F0F1F84FEA840A06465246494692
:10D6140040F8088B0DF0F6FF0AF10800BA0000216B
:10D6240030440EF035F82F4409F1040AA74203D818
:10D63400304602B0BDE8F08759F8240001F0C2FD7D
:10D64400014601904046FFF7A3FF431C019A03D112
:10D6540009490848FAF727FE06EB8005AB680BB1C9
:10D664000649F6E75AF82430AB600234DEE700BF1F
:10D67400623E0308844B0308655503086B55030891
:10D68400F8B500F11004A400074620460D46F2F751
:10D69400D1FD06463C220021403C0DF0F9FF2C440C
:10D6A400F76306F14007A54201D13046F8BD55F8AD
:10D6B400040B01F087FD47F8040BF4E71FB5019153
:10D6C40001F080FD019B03F00702022A044605D005
:10D6D4009A0708D11A68144B9A4204D101A901206F
:10D6E40002F078F8019003AA019802A9FCF7E2FA83
:10D6F400DDE90201FFF7C4FF0C4A02608022828048
:10D704000B4A82600B4AC2600B4A42610B4A826137
:10D714000B4AC2610B4A02620B4A42620B4AC48042
:10D72400426304B010BD00BF905D03085C6203084F
:10D7340071D50008E5D500089907010829080108F2
:10D74400B5D5000815090108E10601080C600308B5
:10D75400C268002A05DDD0E90113994206DB0023E3
:10D764000AE0FCD0D0E901139942F8DD41684B008E
:10D774000A4443F0010342601846704710B5D0E9EB
:10D784000142C3680348C1E90223C1E90004084611
:10D7940010BD00BFD8550308F8B50E46074611461C
:10D7A4003046134A1D46FBF769FE1020F2F742FD8E
:10D7B40000234360012307609E420446C360286837
:10D7C40004D1FCF7E7F9A0602046F8BDFCF7E2F9C4
:10D7D40060606868FCF7DEF9032EA060F4D1A868E5
:10D7E400FCF7D8F9E0600028EED10248FBF7E8FA2C
:10D7F400060002008055030838B50C46D1E9012320
:10D8040009490546F4F7F0F8E268012A05D12846EB
:10D814000649BDE83840F3F769BD28460449BDE828
:10D824003840F4F7E1B800BF87550308B6D30308BE
:10D8340094550308042A1FB504463ED1D0E90230AA
:10D8440062689B1A03440028CCBF03F1FF33013301
:10D8540093FBF0F08B0720EAE07020D10A68184BA4
:10D864009A421CD101AA04F05FF81020F2F7E2FCFE
:10D87400144BE26861680360019B03FB021343607D
:10D884006168029B03FB0213039983604A430029E6
:10D89400C26002DAE2689B1A836004B010BD0A46D3
:10D8A400002301462068FCF73DFAE268636802FB46
:10D8B4000030400040F00100EFE70020EDE700BF3A
:10D8C400DC5803089C550308136810B514462BB99B
:10D8D400922904D14068FEF7FAFE206010BD962913
:10D8E40001D18068F7E79529F8D1C068F3E7D1E959
:10D8F400023249685B1A1344002ACCBF03F1FF3398
:10D904000133042893FBF2F303D0052806D000204A
:10D914007047002BCCBF1E200E20704723EAE37013
:10D92400400040F0010070470346806840B1411E4A
:10D93400996049005868042241F00101FCF716BBC4
:10D94400704773B51D460646084611464FF002124D
:10D95400FBF794FD28686A46CD21FAF725FC009B65
:10D9640043B100216A460846FAF700FE0446204601
:10D9740002B070BD0C20F2F75DFC04460660286816
:10D984006060FCF7E1FAFCF705F9A060EFE700003E
:10D99400820708D10068064B984206D0054BC31A8B
:10D9A400584258417047002070470120704700BF1B
:10D9B40008570308CC560308044B0B60044BC1E919
:10D9C40001300023CB600846704700BF445403086D
:10D9D40051DC000808B501220430FBF779FF06206A
:10D9E40008BD08B502220430FBF772FF062008BD0B
:10D9F40038B5044608460021FAF7D8FE0434054633
:10DA04002846FAF733FF014600B938BD0122204603
:10DA1400FBF75EFFF4E770B506460D460124B442F9
:10DA240001D3062070BD55F824102868FFF7E0FFE5
:10DA34000134F4E738B5044608460021FAF7B6FE87
:10DA4400043405462846FAF711FF014608B90620B2
:10DA540038BD03222046FBF73BFFF3E730B585B022
:10DA6400044608466946FAF7A1FE043405462846EA
:10DA7400FAF7FCFE014610B91E2005B030BD0022A5
:10DA84002046FBF725FF0028F1D00E20F5E738B536
:10DA940004461020F2F7CEFB23686168054640F87F
:10DAA400043BFBF70BFF6268A368E168E868AB60BE
:10DAB40092000DF0A7FD284638BD13B50191FFF77C
:10DAC400E6FF01990446FFF793FF204602B010BD1C
:10DAD40013B50191FFF7DBFF01990446FFF7AAFF95
:10DAE400204602B010BD08B50430FBF7AFFF062096
:10DAF40008BD2DE9F8430C6807460E461AB92046BE
:10DB0400FFF7C5FF0446012504F10409BD4202D311
:10DB14002046BDE8F88356F82500844204D14846DF
:10DB2400FBF794FF0135F1E70021FAF73FFE804649
:10DB34004046FAF79BFE01460028F3D002224846ED
:10DB4400FBF7C6FEF4E708B50122FFF7D2FF062073
:10DB540008BD0022FFF7CDBF8A072DE9F84304462C
:10DB64000D4611D10E68214BF31A5E425E41AB683B
:10DB740063B91EB11E492046F3F7B8FB1D49204680
:10DB8400BDE8F843F3F7B2BB0026F0E71EB11A492B
:10DB94002046F3F7ABFB1949DFF86C802046F3F716
:10DBA400A5FB002701236A68BA4206D81449204617
:10DBB400F3F79CFBC6B11349E1E7EA6852F8272062
:10DBC4004FEA870972B1042A0CD01BB9414620469A
:10DBD400F3F78CFBEB68012253F809102046FBF79E
:10DBE40055FF00230137DEE7BDE8F883CC56030870
:10DBF40050560308575603085D560308AC43030800
:10DC040086070308B6D30308AF40030810B5022201
:10DC140004300C46FBF75CFE28B921460348FDF7A7
:10DC24008AFCF2F7E1FA062010BD00BF7848030829
:10DC340008B50430FBF7EAFE18B902490248FAF7BE
:10DC440029FB08BD68560308784803088168C3683F
:10DC540010B54C68A34201D3002208E0CA6852F808
:10DC640023200133002AF5D0042AF3D0C3601046E0
:10DC740010BD00000528F8B50D4609D006280CD0C3
:10DC8400042824D18B68002B14BF1E200E20F8BD5D
:10DC94008868400040F00100F9E711F0030016D154
:10DCA4000E680C4B9E42F2D14F680446A74201D144
:10DCB4007000EFE7EB6853F8241031B1042904D065
:10DCC4000620FAF74DFB06EB60060134EEE7002070
:10DCD400DDE700BFCC560308F8B5054610200C4616
:10DCE400F2F7A8FA07460A4B47F8043B29460646CA
:10DCF4003846FBF7E3FD04EB8505AC4201D1304621
:10DD0400F8BD54F8041B01223846FBF7E1FDF4E7A3
:10DD1400085703082DE9F3410F460021054608463C
:10DD24001646FFF7D9FF002104463846FAF73EFDB0
:10DD340005F1040807463846FAF798FD014670B91C
:10DD44004EB1E868F2F79EFA63686B60A368AB6053
:10DD5400E368EB600624204602B0BDE8F0810022AF
:10DD640040460191FBF7B4FD01990028E3D0204619
:10DD7400FFF730FEDFE7814202D00122FFF7CABF7E
:10DD840006207047814201D1FFF781BE0022FFF7D0
:10DD9400C1BF01220430FBF79BBD70B50C4605469C
:10DDA4001146204602221E46FBF768FB3CB9214679
:10DDB4002046FFF791FF04462560204670BD0021F0
:10DDC4000846FFF789FF002104463068FAF7EEFCA5
:10DDD40006463046FAF74AFD01460028ECD02046B4
:10DDE400FFF7D7FFF5E700002DE9F04186B01646AE
:10DDF400CDE900100446FFF7CBFD0246002835D1DB
:10DE0400214801AB0121FFF7C8FF01270446009D0B
:10DE14002846FFF7BDFD024650BB1B486B46012157
:10DE2400FFF7BBFF4FF0010805461EB1A268AB68BF
:10DE34009A4226D0154B0293154BCDE903340023A7
:10DE440005932E1D02A8FFF701FF014698B91E266F
:10DE540017B1201DFBF7FAFDB8F1000F02D0281D01
:10DE6400FBF7F4FD304606B0BDE8F0810027CEE7AD
:10DE74004FF00008D9E700223046FBF729FD0028BF
:10DE8400E0D10E26E4E700BF085703084454030812
:10DE940051DC00080B46002201461846FFF7A4BFD8
:10DEA4000022FFF7A1BF0000F0B585B0CDE9021252
:10DEB40017468A0706460C4620D10D683F4BEB1ADD
:10DEC4005D425D41242E01956BD03846FFF760FD1D
:10DED40000286ED0019A1C2E6BD8DFE806F04A5059
:10DEE40054585D6A6A6A6A212E356A6A6A456A6AA2
:10DEF4006A6A6A6A2911166A6A6A1C000025E1E7DF
:10DF040039462046FFF7E4FD03E039462046FFF793
:10DF140039FF044609E002A90220FFF71AFEF8E7D8
:10DF240035B102A90220FFF776FD204605B0F0BD09
:10DF340039462046FFF7C1FDEBE739462046002D60
:10DF4400E0D0FFF777FDF0E7BC4205D1002DECD11E
:10DF54002046FFF79CFDDCE720463946FFF7DAFE52
:10DF6400002D08BF0446E0E702A90220FFF7C1FD27
:10DF7400CFE7012239462046FFF736FFC9E70122E1
:10DF840021463846F8E7A268BB689A420FD1394661
:10DF94002046FFF785FFBCE739462046FFF77AFFA6
:10DFA400B7E700223946201DFBF792FC18B90E246E
:10DFB400BBE70024B9E71E24B7E700BF08570308EE
:10DFC4004A680149F3F710BD1B46030870B50D46B6
:10DFD4000446104E1049F3F789F969680122204676
:10DFE400FBF754FD31462046F3F780F9A968012276
:10DFF4002046FBF74BFD31462046F3F777F9E968F5
:10E0040020460122FBF742FD20460449BDE870404A
:10E01400F3F76CB9AF400308C4580308B6D3030838
:10E0240013689BB9922902D14368136070479629FB
:10E0340001D18368F9E7952901D1C368F5E740F276
:10E044008123994204BF024BC2E90030704700BFEC
:10E054001859030870B50646102014460D46F2F709
:10E06400E9F8034AC0E90254C0E9002670BD00BFC4
:10E07400DC5803082DE9F0418046C06806280D46A7
:10E0840016461BD0FBF786FD071E02D12548FAF77A
:10E0940097FE14DCD8F80400062833D16C1ED8F897
:10E0A4000800062838D0FBF775FD0028B8BF4019D2
:10E0B40040EAE070A84232DB013D1CE00127D8F8B9
:10E0C400040006281CD0FBF765FD041EB8BF6419C4
:10E0D40024EAE474AC42A8BF2C46D8F80800062809
:10E0E40009D0FBF757FD0028B8BF401920EAE070BB
:10E0F4008542A8BF0546C6E90045B760BDE8F08182
:10E104000024EAE7FBF746FD041EB8BF641944EA9D
:10E11400E474AC42C2DAC2E74FF0FF35EBE70546E0
:10E12400E9E700BFCB58030810B5044686B008469B
:10E13400FEF77CFB6A4601462046FFF79BFF009BE7
:10E144005B0043F001030393019B5B0043F0010375
:10E154000493029B5B0043F0010303A9032005938E
:10E1640002F042FB06B010BD0E280CD01E280AD0C7
:10E1740010F0010307D1820707D10068044BC31ACA
:10E18400584258417047012070471846704700BFF5
:10E194005C50030808B50146FFF7E6FF38B98A0763
:10E1A40004D10868034BC31A5842584108BD0120E2
:10E1B400FCE700BFC04C0308044B0B60044BC1E9EF
:10E1C40001300023CB600846704700BF4454030865
:10E1D400D9E1000813B50446806800F00703022B58
:10E1E40011D101A9C008F2F794FEE268019B9A429A
:10E1F4003FBF835C5B0043F0010001322CBF002071
:10E20400E26002B010BD83680193C068EDE70000CE
:10E2140008B5FBF727FCC28803490448972A0CBFBA
:10E2240042239723FAF73FF820590308844B030845
:10E234002DE9FF47824608680C46FBF713FC81462C
:10E244006068FBF70FFC814502D06068FFF7E0FFD0
:10E25400206800F00703022B39D102A9C008F2F7A5
:10E2640058FE0646606800F00703022B33D103A969
:10E27400C008F2F74EFE8046029ABAF1020F06EB8E
:10E2840002072FD9A368062B2AD001210091484602
:10E29400314602F021F80546BAF1030F0AD0E368CB
:10E2A400062B07D0012200923146029A484602F01A
:10E2B40013F80746039B4BBB791B2846F3F7D4FBA3
:10E2C4000130400040F0010004B0BDE8F0878368ED
:10E2D400C6680293C6E78368D0F80C800393CBE743
:10E2E4003546D9E73546E5E7414628460DF0F6F9C7
:10E2F40038B901343546039AAE18BE42F4D96000E9
:10E30400E0E72846F3F79AFB0646F3E70024F2E732
:10E3140001F00703022BF7B50746084610D101A9FF
:10E32400C008F2F7F6FD0646019B2BB3144B9F423F
:10E3340024D0144B9F424FF0000409D1254616E027
:10E344008B68CE680193EFE7305DB847A0B1013424
:10E35400019BA342F8D81E2003B0F0BD305DF3F753
:10E364009DFB18B1305DB847054628B10134019BC7
:10E37400A342F3D8002DEED10E20EDE70024DDE713
:10E38400011B0008151B000801460148FFF7C0BF28
:10E394008D1A000801460148FFF7BABFA11A000808
:10E3A40001460148FFF7B4BFB51A00080146014809
:10E3B400FFF7AEBF011B000801460148FFF7A8BFE5
:10E3C400151B0008884230B513D20378303B092B63
:10E3D4000FD8002313600A2510F8014B1368303C52
:10E3E40005FB03438142136003D00378303B092BC0
:10E3F400F2D930BD012A13B50C4613D100F007033E
:10E40400022B0BD101A9C008F2F783FD019B6360C5
:10E4140042232060A360002002B010BD83680193F2
:10E42400C068F3E70120F7E72DE9F84F98468F1805
:10E4340004460D460B4600229F4217D8002A0CBF03
:10E44400272622262349DFF89C90DFF89CA0DFF8DA
:10E454009CB032462046F3F7C7FABD4210D3324689
:10E4640020461C49BDE8F84FF3F7BEBA13F8011B68
:10E47400272903D02229DFD12726E3E70122DBE77E
:10E4840015F8012BB24205D1134932462046F3F761
:10E49400ABFAE2E75C2A04D110492046F2F726FFE2
:10E4A400DBE71F2A08D97F2A12D0B8F1000F01D068
:10E4B40013060DD40749E9E70A2A01D10849ECE714
:10E4C4000D2A01D15946E8E7092A01D15146E4E76A
:10E4D4004946DBE733590308325903083659030820
:10E4E40039590308425903083F5903083C590308A2
:10E4F4002DE9F8430D461949194FDFF87480DFF808
:10E50400749016460446F2F7F1FE2E44AE4205D846
:10E5140020461249BDE8F843F2F7E8BE15F8012B8E
:10E52400222A01D05C2A04D139462046F3F75CFA4A
:10E53400ECE71F2A01D90B49F7E70A2A04D10A4953
:10E544002046F2F7D3FEE1E70D2A01D10749F7E7A8
:10E55400092A01D14946F3E74146E6E7AE430308F9
:10E564003259030833590308395903083C5903083D
:10E57400495903083F59030801F00703022B73B5F7
:10E584000446164608460DD101A9C008F2F7C1FC9D
:10E594000546032E0AD1019A29462046FFF7A8FF13
:10E5A40002B070BD8B68CD680193F2E7042E06D1EA
:10E5B400019A08492B462046F3F716FAF0E7064974
:10E5C4002046F2F793FE019A012329462046FFF7DD
:10E5D4002BFFE5E7505903089E4003082DE9F04757
:10E5E4009942DDF820A0804691461E4613D3BAF125
:10E5F400000FA1EB0304D6BF25460025002408EB39
:10E6040005073246494638460DF068F820B1A54260
:10E6140001D05544F3E700273846BDE8F0870000F1
:10E624002DE9F04F87B08246086803930D46934660
:10E63400FBF718FA07466868FBF714FA874202D01A
:10E644006868FFF7E5FD286800F00703022B3ED158
:10E6540004A9C008F2F75DFC0446686800F00703EB
:10E66400022B38D105A9C008F2F753FC8146049A5D
:10E67400BAF1020F04EB020834D9AB68062B2FD091
:10E68400012100913846214601F026FE0646BAF1E2
:10E69400030F0AD0EB68062B07D001220092214613
:10E6A400049A384601F018FE8046B0450AD3A8EB18
:10E6B4000601059BCDF800B04A463046FFF78EFFB1
:10E6C400014688B9039BEBB11048FAF779FB8368DC
:10E6D400C4680493C1E78368D0F80C900593C6E737
:10E6E4002646D4E72646E0E7094B9F4208D1204658
:10E6F400F3F7ADF9400040F0010007B0BDE8F08F3A
:10E70400001BF7E74FF0FF30F7E700BF5559030848
:10E71400905D030800230122FFF782BF00234FF01E
:10E72400FF32FFF77DBF01231A46FFF779BF0123AC
:10E734004FF0FF32FFF774BFF8B5074610201546B7
:10E744000E46F1F777FD0446076085607EB12946E1
:10E754003046F2F7EBFA6060681CF1F76BFD2A466D
:10E764000746E06031460CF04DFF00237B55204600
:10E77400F8BD08B5F2F726FBC00040F0020008BD62
:10E78400194B984270B506460D460FD1D1E90110D8
:10E79400F2F7E8FA044648B12846F2F7D1FCE4005F
:10E7A40000232B6044F00204204670BD1020F1F7D2
:10E7B40041FD6968816004460660A868F2F7B6FA0C
:10E7C40069682B6860600131994208D1AB68E360E5
:10E7D400D4E9022100238B54AB602B60E4E7A868E2
:10E7E400F1F743FDE060F3E7905D03082DE9F041A4
:10E7F4008AB004460191FBF735F904F00703022BB4
:10E80400064630D102A9E008F2F783FB0746019AD5
:10E81400364B12F0030F05D112689A4209D03449DD
:10E824008A4206D0DC68314801AB00220121A047AE
:10E834000190019804AA03A9FBF73CFA0024254699
:10E84400039BA34213D8294606A8F2F75BFC089C55
:10E854000025039BAB4228D806A93046FFF790FF5A
:10E864000AB0BDE8F081A368E7680293CFE7049B90
:10E8740053F82400FBF7F6F886424FEA840802D0E6
:10E884001C48FAF737FC0CB1029B1D44049B53F857
:10E89400080000F00703022B05D1C008F2F72FFB94
:10E8A40005440134CCE78068FAE735B12046029A82
:10E8B40039460CF0A7FE029B1C44049B53F8250028
:10E8C40000F00703022B0CD105A9C008F2F721FBC5
:10E8D40001462046059A0CF095FE059B01351C4423
:10E8E400B7E78368C1680593F3E700BFC85103081D
:10E8F4000C6003086259030870B500F00703022B8B
:10E9040086B004460D4626D101A9C008F2F701FBE2
:10E9140006462846FBF73EF9019B8342054617D27B
:10E92400014602A8F2F7EEFB2A46202104980CF0D7
:10E93400AFFE019A0498AD1A314600EB55000CF075
:10E9440061FE2046FBF78EF802A9FFF719FF044683
:10E95400204606B070BD8368C6680193D9E72DE9E7
:10E96400F04F042891B00C4618D1C868FBF712F98F
:10E9740018B9206811B0BDE8F08F40EAE073206850
:10E984000493FBF76FF806906068FBF76BF8069B3F
:10E994009842054605D06068FFF73AFC4FF0FF3314
:10E9A400EDE7A068FBF75EF8854201D0A068F3E7C5
:10E9B400206800F00703022B4DD109A9C008F2F723
:10E9C400A8FA0390606800F00703022B48D10AA953
:10E9D400C008F2F79EFA0590A06800F00703022B26
:10E9E40043D10BA9C008F2F794FA8346DDE9093252
:10E9F4009A42BED80026DDE90953002B3AD126B14C
:10EA04000B9A594630460CF0FDFD0B9F4FF0010A5E
:10EA1400DDF80C80049B9A450CD05DB101220A9B61
:10EA240000922946059A07934046FFF7D7FD079BB6
:10EA3400814618BB26B12A464146F0190CF0E2FD86
:10EA4400E919002E39D1BAF1000F92D00CA8F2F7CF
:10EA540059FB0E9ECFE783680993C3680393B1E71C
:10EA640083680A93C3680593B6E78368D0F80CB04B
:10EA74000B93BBE74FF0000A5746C9E70BB909F1FE
:10EA84000109A9EB080526B12A464146F0190CF004
:10EA9400B9FD2F4426B10B9A5946F0190CF0B2FD7A
:10EAA4000A9B099D0B9909EB0308039B1D440F4422
:10EAB400A5EB08050AF1010AACE706980CA9FFF7D3
:10EAC4005FFE57E72DE9F04101F00703022B86B002
:10EAD40007460C4617D101A9E008F2F71AFA0646D0
:10EAE400019902A8F2F70EFBDDF810800025019BC6
:10EAF400AB420CD82046FAF7B5FF02A9FFF740FE57
:10EB040006B0BDE8F0818B68CE680193E8E7705DDC
:10EB1400B84708F805000135E9E700000146014857
:10EB2400FFF7D0BF291B000801460148FFF7CABF01
:10EB3400391B000813B504460191F2F713F9019A41
:10EB440020B1C00040F0020002B010BD03482146CD
:10EB540002B0BDE81040FFF7EFBD00BF905D0308B1
:10EB6400F0B5064687B00F461C4615460AB1FAF7BB
:10EB740025FD062229463846FAF780FC002F60D08E
:10EB8400012F0FD16A46102102A8F2F7CDFA2168AD
:10EB940068462A46FAF77AFF02A93046FFF7F0FDE5
:10EBA40007B0F0BD206883073CD10268264B9A4227
:10EBB40038D100F00703022B1CD16946C008F2F7D4
:10EBC400A8F90546206800F00703022B16D1C008F7
:10EBD400F2F790F9044624B900992846F2F7A6F80A
:10EBE400044600992846F2F7B4FF48B917480021B3
:10EBF400F9F750FB8368C5680093E3E74468EAE7E4
:10EC040000992846F2F7AEF818B1C00040F00200AF
:10EC1400C6E71020009FF1F70DFBC0E902750660FE
:10EC24004460BDE702A90122FBF7D8F9DDE902013E
:10EC3400F2F78FFF0028D9D0DDE90201FFF77AFF50
:10EC4400AEE70A20ACE700BF345B0308C04B0308FF
:10EC5400012807B50B4606D10B68009340F20A530E
:10EC6400019302206B46014600220348FFF778FF18
:10EC740003B05DF804FB00BF905D03080A4601463B
:10EC84000148FFF759BD00BF345B030870B5034664
:10EC9400086800F00702022A8EB00C4605D08107EE
:10ECA4002DD1056838498D4229D1023B012B68D802
:10ECB400022A1ED10AA9C008F2F72BF905462068DA
:10ECC40000F00703022B18D1C008F2F713F9044629
:10ECD40024B90A992846F2F729F8044610200A9E16
:10ECE400F1F7A8FAC0E90265284B036044600EB04E
:10ECF40070BD8368C5680A93E1E74468E8E7012BBF
:10ED04003FD8C30713D5421002D50020FAF758F8AC
:10ED140011460AA80192F2F7F5F90021019A0C981C
:10ED24000CF0B6FC0AA91948FFF72AFDDFE7012217
:10ED340003A9FBF744F920B1DDE90301FFF79EFFC6
:10ED4400D5E72068FBF738F870B9102106A8F2F768
:10ED5400C8F920680AA9F9F729FD04462046F9F7FD
:10ED640085FD18B906A9DEE74110EFE7FAF712FFAF
:10ED7400FF2801D90648C9E7C1B206A8F2F738FA54
:10ED8400ECE70448FAF7B6F9905D0308345B03082E
:10ED94009259030899590308084608B519460AB157
:10EDA400FAF70CFC18B1BDE80840FFF76FBF014843
:10EDB40008BD00BF245B0308012807B50BD10B680D
:10EDC400009340F20A53019369460220FFF75EFF65
:10EDD40003B05DF804FB0028F8D10148F8E700BF50
:10EDE400245B0308034608461146034A9A4201D1AC
:10EDF400FFF7A0BEFFF742BF905D03082DE9FF4176
:10EE040002AB0C460193244B0093043101230138D7
:10EE1400FAF760FB2068FAF725FE002180460846D1
:10EE2400FEF7CEF80546206800F00703022B0CD14C
:10EE340003A9C008F2F76DF80146039E0E44B142DF
:10EE440007D3284604B0BDE8F0818368C168039302
:10EE5400F3E70B461A780A2A1C4603F1010319D07A
:10EE64000D2A12D163780A2B0CBF022701279DF8C3
:10EE74000830621A03B13A444046FFF7B3FF014633
:10EE84002846FDF746FEE119D9E79E421C46E1D12A
:10EE94000027ECE70127EAE7105B03082DE9F04FB0
:10EEA4008BB00C46059010681646FAF7DBFD012C72
:10EEB400074642D07068FAF7D5FD8742706801D0E2
:10EEC400FFF7A6F900F00703022B31D109A9C00806
:10EED400F2F71FF88346099B0693306800F0070396
:10EEE400022B2FD109A9C008F2F713F80390059B50
:10EEF400DDF82490CDF81090012B4FF0000409BFE9
:10EF04004FF0FF33012309F1FF3507931CBF07932B
:10EF14000025A246A046049BCBB9BAF1000F27D125
:10EF2400234B24489F4208BF0A200BB0BDE8F08F52
:10EF34008368D0F80CB00993CDE70623DFF878B0E6
:10EF44000693CAE783680993C3680393CFE7039AD8
:10EF54000699012300932A445846FFF73FFBA8B9BA
:10EF6400BAF1000F18D1059B4BB909F1FF34A8463B
:10EF7400621CA2EB08024A4512D13068D5E7059B12
:10EF8400012B2C460AD0A8464FF0010A079B1D44CA
:10EF9400049B013B0493BEE72C46F7E7D046E7E722
:10EFA400039B434419463846FFF71CFFBDE700BFE7
:10EFB400905D0308245B0308705D03080A4601465C
:10EFC4000220FFF76BBF0A4601460020FFF766BF29
:10EFD4000A4601460120FFF761BF00002DE9F04118
:10EFE40088B00C4690460546FAF73CFD0746204695
:10EFF400FAF738FD874202D02046FFF709F905F0F9
:10F004000703022B11D103A9E808F1F782FF064692
:10F0140004F00703022B0CD104A9E008F1F779FFEF
:10F02400049B53B91C48F9F7CBFEAB68EE68039315
:10F03400EEE7A368E0680493F2E7184A0399CDF871
:10F044000080974214BF164A0A22CDE90522B8F17E
:10F05400010F0792024630460CBF05950795FFF74E
:10F06400BDFA88B1851B2A4631463846FFF7BAFEF9
:10F07400DDE90321521A2944CDE90504521B314428
:10F084003846FFF7AFFE079005A9032001F0ACFB5B
:10F0940008B0BDE8F08100BFA4590308905D0308DF
:10F0A400245B03080122FFF799BF4FF0FF32FFF7FB
:10F0B40095BF0000F0B585B005460C461746FAF733
:10F0C400D1FC05F00703022B064615D1E808694672
:10F0D400F1F71FFF0546042F26D1A307009818D186
:10F0E4002268124B9A4214D101AA214602F01CFC58
:10F0F40030B90F48FAF72CF8AB680093ED68EAE7EB
:10F10400DDE901123046521A2944FFF76BFE05B0BF
:10F11400F0BD0146002322463046FAF703FE285C80
:10F12400400040F00100F2E70020F0E7DC5803085B
:10F134003C4003082DE9F34100F00708B8F1020F41
:10F1440004460D4601F0070712D1022F05D1431AD8
:10F154005842584102B0BDE8F081C008F1F7CAFE38
:10F164000646686886B178B1B0420DD00020F1E758
:10F17400022F4668F5D1C808F1F7BCFE002EF2D183
:10F18400A3680093E46807E0B8F1020FF8D1E0083F
:10F194006946F1F7BEFE0446022F0FD101A9E80823
:10F1A400F1F7B7FE0146DDE900239A42DED120469D
:10F1B4000CF094FAB0FA80F04009CBE7AB68E96848
:10F1C4000193F0E708B500F00703022B01D1C00852
:10F1D40008BD830709D10268054B9A4205D1BDE8F1
:10F1E4000840D0E90210F1F7EDBDFFF711F800BFB8
:10F1F400905D030800F00703022B07B508D08307CE
:10F2040004D103689A69074B9A4208D0FFF700F8C3
:10F2140001A9C008F1F77DFE03B05DF804FBC068E6
:10F22400FAE700BF69F2000800F00703022B13B5E8
:10F234000C4608D0830704D103689A69084B9A42A4
:10F2440009D0FEF7E5FF01A9C008F1F762FE019BB2
:10F25400236002B010BD83680193C068F7E700BF64
:10F2640069F200082DE9F04F9DB0212804460D46AF
:10F27400099201F0070740F0098209AB0B9312F0E1
:10F2840003044FF001030C93914608D11368B44A68
:10F29400934207D10BAA0CA9484601F0AFFB4FF0EB
:10F2A400000904E0AF4A934218BF4FF000090C9BD9
:10F2B4000493022F0B9B06931FD10DA9E808F1F7C5
:10F2C40028FE0590AC071DD1A74B2A68D01A4342EB
:10F2D400434110AA102114A80793F1F725FF059ABA
:10F2E4000D9B144602EB03080027A0450CD8049B91
:10F2F400BB4200F0C1819D4822E0AB680D93EB68EE
:10F304000593DFE70023E4E72178252904D014A836
:10F31400F1F76EFF0134E8E7661CB04502D8944863
:10F32400F9F74EFD6178252904D114A8F1F760FF9F
:10F334003446EFE7282930D1B9F1000F02D18D48C6
:10F34400F9F7D8FEA01C01460E4616F8013B292BFE
:10F354001DD1091AFFF70DFA01464846FBF798FE3E
:10F36400012705464FF0000B33464FF0200A5E4656
:10F3740098451C4613D80023A0450E9336D923780C
:10F384002A2B6DD1049BBB4225D87B48D8E78845FE
:10F3940001D17A48C4E73146D6E70025E2E713F8FD
:10F3A400012B2D2A02D146F00106E1E72B2A02D1D6
:10F3B40046F00206DCE7202A02D146F00406D7E72D
:10F3C400232A05D0302AD6D146F040069246CFE70C
:10F3D4004FF0100BCCE77B1C0893069B53F82700D7
:10F3E400FAF7D8FB089B0E9001341F464FF0FF3309
:10F3F400A0450F9393D923782E2B16D1601C8045FA
:10F404008DD963782A2B32D1049BBB42BDD97B1C96
:10F414000893069B53F82700FAF7BCFB089B0F9050
:10F4240002341F46A0457FF67AAF35B9049BBB4230
:10F43400ABD9069B53F8275001372378472B65D85F
:10F44400442B68D92846FAF71FFC0F9B21780193B7
:10F454000E9B00933246534610A8F2F721F959E760
:10F4640020460EAA4146FEF7ADFF0446BEE7002340
:10F474000FAA41460F93FEF7A5FF0446D2E7202AC0
:10F4840049D801A151F822F067F600081BF50008DD
:10F494001BF500081BF500081BF500081BF5000808
:10F4A4001BF500081BF500081BF500081BF50008F8
:10F4B4001BF500082BF50008BBF5000849F400080B
:10F4C40049F4000849F400081BF50008BBF50008DE
:10F4D4001BF500081BF500081BF500081BF50008C8
:10F4E4001BF50008EDF500081BF500081BF50008E6
:10F4F40009F6000809F600081BF50008BBF500082A
:10F504001BF500081BF5000867F60008A3F1580274
:10F51400D1B22029B3D9059A19491A48A41A0094DA
:10F524001A46F8F7C0FE05F00703022B05D0A90719
:10F534002ED12B68144A93422AD118A92846FFF7E2
:10F5440073FE189A012A014601D01048F8E60E9B72
:10F55400019320230093334610A8F1F7D7FED9E690
:10F564000C6003084C450308345B0308FB5903088B
:10F57400B0590308B4590308C1590308BA59030818
:10F58400DF590308FC4B0308905D0308CB590308BB
:10F594002846FEF7E9FD60B12846FAF7FBFA0E9B10
:10F5A4000193202300938DF860003346012218A9AB
:10F5B400D2E78348C4E6AA0709D12B68814A93425B
:10F5C40005D12846FCF709FAFCF74EFE05460F9BC9
:10F5D40003930E9B0096CDE901A30A2261232946D9
:10F5E40010A8F1F753FF95E6BBF1000F01D046F4E4
:10F5F40004760F9B03930E9B0096CDE901A308228A
:10F604006123ECE712AA102118A8F1F78DFD2378E5
:10F61400722B0CBF0122002208D0079B33B1AB0729
:10F6240004D12B6868498B4208BF0422294612A8DA
:10F63400FAF72CFA0F9B199A002BB8BF0F920F9967
:10F644000E9B01938A424FF02003009328BF0A4681
:10F6540033461A9910A8F1F759FE18A8F1F770FD6E
:10F6640058E60F9A03920E9A46EA0B06CDE901A2D8
:10F674000096173B1022B2E75348544B079A14A93B
:10F68400002A08BF1846FFF77BF81AE00846FAF785
:10F69400E9F9022F064617D112A9E808F1F739FC57
:10F6A40007461D2C099823D114A9FAF79FFA40B1F3
:10F6B400149B002B0CDC4548454B864214BF18466E
:10F6C4000A201DB0BDE8F08FAB68EF681293E8E73D
:10F6D400129918A85943F1F715FD1A9B00930121BB
:10F6E4003846149B129A02F00CF918A93046CAE75E
:10F6F400FAF7B8F98642099818D100F00703022BEB
:10F704000FD118A9C008F1F704FC8046DDF8609019
:10F714001B2C26D018D8042C49D90E2C21D000201B
:10F72400CFE78368D0F80C801893EFE7264B9E420E
:10F7340008D1012218A9FAF742FC0028C1D0DDE95A
:10F744001889E5E7FEF764FD242CE8D10123009332
:10F7540012994B4642463846FEF740FF28BB0E201E
:10F76400AFE7129B3BB90998FAF77CF9864202D1BC
:10F77400099D2846A5E7B9F1000FFAD0129918A8F7
:10F784004944F1F7BFFC129A1A9839460BF03AFF34
:10F79400129B1A984A46414618440BF033FF18A9A5
:10F7A4003046FEF7EDFF0546E3E71E2089E7129A8F
:10F7B400CDF8009043463946204602F0F4F8CDE7F0
:10F7C400D6590308C04C0308345B0308905D030852
:10F7D400245B03082DE9F74F054608680C46FAF741
:10F7E40041F9012D814625D9022D676823D0A068EF
:10F7F400FAF7D0F9054600210846FDF7E1FB8046FB
:10F80400206800F00703022B18D16946C008F1F7FD
:10F8140080FB0446009E062F264447D1B442274667
:10F824002DD238780134F2F72FF90028F6D19DB3A0
:10F83400BA460AE006274FF0FF35DCE78368C46860
:10F844000093E7E75645544607D954460AF1010A9E
:10F854002078F2F719F90028F4D0E21B394648461B
:10F86400FFF7C0FA01464046FDF753F9A64206D910
:10F87400A642274607D1002D0CDCB742D7D3404619
:10F8840003B0BDE8F08F38780134F2F7FDF80028B2
:10F89400EED1F0E7013DF0E73946F21B4846FFF7A9
:10F8A400A1FA01464046FDF734F9E8E73846FAF78D
:10F8B400D9F8814502D03846FEF7AAFC01A938469A
:10F8C400FFF7B2FC019B8246A3B91348F9F778FA13
:10F8D400B346ABEB040221464846FFF783FA0146E0
:10F8E4004046FDF716F9B345C9D2019C002D5C448E
:10F8F40000DD013D019FA346002DE9D00BEB07037A
:10F904009E42E5D33A46514658460BF0E7FE00289E
:10F91400DFD00BF1010BEFE7A45903082DE9F04FF9
:10F92400022885B006460C4606D8FFF753FF044666
:10F93400204605B0BDE8F08F0868FAF793F88246D0
:10F94400D4E9000700F00703022B0CD102A9C00878
:10F95400F1F7DFFA8046A068FAF71CF9051E07DA0A
:10F9640021463046E1E78368D0F80C800293F2E741
:10F9740005F1010900214846FDF722FB062F044644
:10F9840002D12548F9F7E4FB03A93846FFF74CFCFC
:10F99400039B834613B92148F9F712FA029E4644A1
:10F9A400039BF71A5DB1B84509D81A46594638463B
:10F9B40001930BF093FE019B00B3013FF2E7A6EB2A
:10F9C400080241465046D4F80CB0FFF70BFAAF00DA
:10F9D4004BF82500002DABD0A9EB0505E068AE007F
:10F9E4003246C1190BF03CFE6268E068521B92007B
:10F9F400002130440BF04CFEA56099E7E2680192C7
:10FA0400F21BD21AF9185046FFF7ECF9019B3E4657
:10FA140043F82500013DC3E70A5A0308A459030823
:10FA24002DE9FF41804608680D46FAF71BF80746A2
:10FA3400286800F00702022A24D102A9C008F1F7BD
:10FA440068FA0446686803A9FFF7EEFBB8F1020FF1
:10FA540006461BD901230093029AAB682146384617
:10FA640000F03AFC039A029B041B14449C420FD8F6
:10FA740031460BF033FE002814BF0E201E2004B0C4
:10FA8400BDE8F0818268C4680292DBE72046E9E7BA
:10FA94000E20F4E773B50646086800F00702022A50
:10FAA4000D460ED16946C008F1F733FA044601A9A0
:10FAB4006868FFF7B9FB022E014606D90B48F9F72F
:10FAC40047FB8268C4680092F1E7DDE900329A429C
:10FAD40009D89B1AE0180BF001FE002814BF0E2071
:10FAE4001E2002B070BD0E20FBE700BF195A0308A8
:10FAF4002DE9F04F2DED028B95B00F460490914601
:10FB0400102108AA0CA89A46F1F70EFB9FEDB18AC2
:10FB14004F450AD30CAB0FCB049C84E80F0020465E
:10FB240015B0BDEC028BBDE8F08F3E4616F8011B04
:10FB34007D290CD1B14507D979787D2904D10CA848
:10FB4400F1F756FB374607E0A348F9F739F97B2963
:10FB540004D00CA8F1F74CFB0137D9E7B1451AD909
:10FB640079787B29EBD07D2900F08782212900F068
:10FB740084823A2900F0818231460A787D2A0B4634
:10FB840001F1010103D0212A01D03A2A01D11D46F5
:10FB940076E28945F1D19148D7E75A1C91451AD9A3
:10FBA4005C78A4F17202012A15D802339945F2D97E
:10FBB4001A783A2A40F05F825F1C5B787D2B13D061
:10FBC4003946012249450B46E5D211F8010B7B2841
:10FBD40003D10132F6E78248B7E77D28F2D1013A32
:10FBE400F0D1B8461F4603E0B945D4D94FF0000818
:10FBF4003B787D2B01D07B48A7E7002E45D000231E
:10FC040030781093F1F754FFD8B93346AB429B4692
:10FC140005D213F8012B2E2A01D05B2AF6D1ABEBC7
:10FC240006013046FEF7A5FD002201460590229804
:10FC3400F9F700FD059930BB6B48FBF77CFCF0F746
:10FC4400D3FADAF80030002B01DD68487DE710AA0A
:10FC540029463046FEF7B6FB209A109B013A9A4299
:10FC6400834603D862496348F8F714FB0133219AA9
:10FC740052F823604FF0FF33CAF80030AB4514D27A
:10FC84005D48F9F765FA4668F8E7DAF80030002BC2
:10FC940001DA5A4859E7209A013A9342E2D20133F1
:10FCA400219A52F82360CAF80030B8F1000F13D13A
:10FCB40014B1733C18BF01240AAA102110A8F1F74B
:10FCC40033FA314622460AA8F9F7E0FE4C4810A957
:10FCD400FEF756FD064601E0002CEAD14FF0FF3353
:10FCE40007930A93B8F1000F00F0B080F9F7B8FB5E
:10FCF400229B0293219B0193209B00933A465346F7
:10FD0400414610A8FFF7F4FE10A8F1F762FA119A21
:10FD140090F80080034600EB020BB8F1000F55D0B9
:10FD24000590414637480BF04FFD059B002800F035
:10FD34009C81013300251A782B2A49D02D2A67D0BB
:10FD4400202A67D1042401331A78232A04BF0133FB
:10FD540044F010041A78302A07D1B8F1000F08BF14
:10FD64004FF03D08002D08BF302507AA1846594614
:10FD7400FEF728FB027803462C2A04BF013344F023
:10FD840020041A782E2A04D1581C0AAAFEF71AFB5A
:10FD9400034693F800B00593BBF1000F3CD01A481A
:10FDA40059460BF011FD10B1059B5B78A3B31748BE
:10FDB400CBE61448059329460BF006FD059B20B1BC
:10FDC4002A46023345469046B5E780464546B2E7A3
:10FDD4000224B8E70000C842255A03084E5A030813
:10FDE400405A03085F5A030878480308685A03080E
:10FDF4007E5A03083C480308855A0308965A0308A8
:10FE0400905D0308AC5A0308B15A0308C15A0308A9
:10FE1400002498E7002497E710A8F1F791F9B8F1C6
:10FE2400000F08D13046FEF7B5F9002814BF4FF093
:10FE34003E084FF03C08002D08BF202514F0060FA3
:10FE44000DD0BBF1730F05D190487EE64446C346FE
:10FE54004546E7E7BBF1630F01D18D4875E6B8F17C
:10FE64003D0F2AD0B8F15E0F2AD0B8F13C0F01D172
:10FE740044F001043046FEF777F9002800F098803A
:10FE8400BBF1780F10D8BBF1610F1CD8BBF1470F41
:10FE94004ED8BBF1440F00F28B80BBF1000F70D041
:10FEA400BBF1250F00F084803046F9F7E7FD79496E
:10FEB40003465A467848F8F7F6F944F04004D9E77F
:10FEC40044F08004D6E7ABF16203162BECD801A210
:10FED40052F823F04FFF000869FF000887FF00086D
:10FEE400B5FF0008B5FF0008B5FF0008ADFE000827
:10FEF400ADFE0008ADFE0008ADFE0008ADFE000832
:10FF0400ADFE000887FF000899FF0008ADFE000859
:10FF1400ADFE0008ADFE0008ADFE0008ADFE000811
:10FF2400ADFE0008ADFE0008ADFE00083BFF000872
:10FF3400BBF1580FB8D100230393079B0094CDE97C
:10FF440001531022ABF1170307E000230393079B2F
:10FF54000094CDE9015302226123314608A8F1F748
:10FF640095FAF9E53046F9F715FE079B8DF8400040
:10FF7400CDE900530122234610A908A8F1F7C6F9D8
:10FF8400EAE500230393079B0094CDE901530A2279
:10FF94006123E2E7E3064FF000030393079B48BFA6
:10FFA40044F40074CDE90153009461230822D4E79A
:10FFB4003046FEF7EFF8002837D0BBF1000F23D00E
:10FFC400BBF16E0F20D0BBF1250F20D0BBF1240F65
:10FFD4007FF66AAFBBF1470F11D8BBF1440F7FF630
:10FFE40063AF3046F9F750FE0A9B0193079B0093D9
:0CFFF40022462B46594608A8F1F752FBA4
:020000040801F1
:10000000ACE5ABF16503022BEDD94FE74FF0670B81
:10001000E9E73046F9F73AFE0A9B0193079B009304
:1000200020EE080A2B4644F480726621E5E7B8F119
:100030003D0F01D11A488AE5BBF1000F03D0BBF197
:10004000730F7FF433AF10A93046FFF7EFF80A9B28
:10005000109A002BB8BF0A920A9B9A4288BF10934D
:10006000079B109ACDE900530146234687E75D7848
:10007000002D7FF4A0AEA8465FE60027B3E5334627
:10008000002635461A78212A3FF489AD002491E5EF
:10009000C65A0308D25A0308E15A0308FC4B030866
:1000A000F95A030870B505460868164600F00702BD
:1000B000022A8AB00C4617D104A9C008F0F72BFF1A
:1000C0000146049A009500230A44059306A805AB4F
:1000D000CDE90146FFF70EFD2068F9F7C5FC06A93A
:1000E000FEF750FB0AB070BD8268C1680492E8E771
:1000F00007B501A9FFF79AF80199FEF73CFB03B099
:100100005DF804FB044B0B60044BC1E90130002394
:10011000CB600846704700BF445403082101010822
:1001200073B50546806800F00703022B16D101A9BC
:10013000C008F0F7F0FE0446E868019B984211D22F
:1001400004442046F1F77CFC061B31462046FEF7AE
:1001500012FBE9683144E96002B070BD8368C4688D
:100160000193E9E70020F7E701F00702022A13B53F
:10017000044608460AD101A9C008F0F7CCFE042CB9
:1001800008D0052C0CD0002002B010BD8A68C868C9
:100190000192F4E7019B002B14BF1E200E20F3E711
:1001A0000199F1F763FC400040F00100ECE700002A
:1001B00001F00703022B2DE9F74F044615460846C8
:1001C0000ED101A9C008F0F7A6FE0646032D019A3C
:1001D0000AD131462046FEF78DF903B0BDE8F08F15
:1001E0008B68CE680193F1E72DB93249334620463A
:1001F000F1F7FCFBF1E7B718334600229F4218D80D
:10020000002A0CBF4FF027084FF022082A49DFF8D8
:10021000C090DFF8C0A0DFF8C0B042462046F1F73A
:10022000E5FBB74210D8244942462046F1F7DEFBF1
:10023000D3E713F8011B272904D02229DED14FF080
:100240002708E3E70122D9E73046F1F7DCFB054652
:100250003046F1F7F5FBA845064605D11749424659
:100260002046F1F7C3FBDCE75C2D04D1144920469E
:10027000F1F73EF8D5E7A5F120035E2B02D80E4931
:100280002A46EDE70A2D01D10E49F0E70D2D01D1E7
:100290000D49ECE7092D01D10C49E8E7FF2D2A466D
:1002A00001D85946DCE7B5F5803F34BF5146494691
:1002B000D6E700BF505903083359030832590308E1
:1002C00036590308395903083C5903083F590308B4
:1002D000775D030849590308425903087FB514465E
:1002E0001A462B4B9DF8206083420D4607D13346BA
:1002F0002146F9F719FD0544284604B070BDD3071F
:100300000CD5521003920399002905EB040229DA57
:10031000013A0020134689B9551CEDE7104603A9A0
:100320000192F9F765FC019A0028ECD11046F9F723
:10033000A7FB184902461848F7F7B7FFAA4207D2A9
:1003400000B10391002ED7D114491548F7F7A4FF47
:100350001B7803F0C003802B02F1FF321CBF013178
:100360000120D7E70024954205D304B10391002E64
:10037000EAD01546C0E70139BED3681C0124054602
:1003800001302B7803F0C003802BF8D0EBE700BFDF
:10039000345B03087E5D0308844B0308875D030814
:1003A0003C480308F0B585B004460D461746F9F7FA
:1003B0005BFB04F00703022B064616D1E00803A9F5
:1003C000F0F7A9FD0446042F4ED1AB0733D12A68BC
:1003D000274B9A422FD1EA68062AD5E9013708D07F
:1003E000032A06D02348F8F7B5FEA3680393E46810
:1003F000E9E7062B1BD0012200922146039A3046E2
:10040000FFF76CFF0546062F039A12D001230093D5
:1004100021463B463046FFF761FF0446A54225D8FA
:10042000621B29463046FEF7DFFC05B0F0BD2546CD
:10043000E9E71444F2E70023039A009321462B4690
:100440003046FFF74BFF90F900300278002B08DBB5
:100450000121FEF790F9E8E701315B081A42FBD170
:10046000F7E740230121F9E70020DEE70A20DCE777
:10047000DC5803083C400308086801F05EBB00003C
:1004800030B4064B0D68064C0A4606498D420CBF37
:100490002146194630BCF1F7A9BA00BFC75E030870
:1004A000B45E0308385F03082DE9F341456804464C
:1004B0000F461646984615B92348F8F783FC2B7B60
:1004C000DB0711D5A96868680191EFF7B5FEA86050
:1004D00060680199037B42686FF300030373002394
:1004E0008068E3600BF090F8A568AD1922D26068CF
:1004F000D0E90018A94203D24160691AF0F760FE02
:10050000A268424507D963689868A2EB08020021F7
:1005100040440BF0BFF863689868A36832461844FB
:1005200039460BF071F86368A5605A68AA4238BF73
:100530005D6004E01B23C8F800304FF0FF36304602
:1005400002B0BDE8F08100BFD95E0308F0B50746F0
:1005500085B010201E460D46EFF76EFE0023C0E961
:10056000023304460760002D3BD03068C50705D430
:10057000810713D102681C4B9A420FD1F9F70CFB8B
:100580000025F0F7EAFD60602DB30023DDE90112DC
:100590002046FFF789FF0023A3601CE0012201A988
:1005A000F9F71EFD336803F00702022A06D09A0706
:1005B00014D11B689A690D4B9A420FD11020EFF7A6
:1005C0003BFEDDE901216060F0F7A6FD6368029A59
:1005D0005A603368E360204605B0F0BD02980125FB
:1005E000CFE71020CDE700BF5C50030869F2000898
:1005F0000229F8B5044605D0042923D001291CD1CD
:10060000002024E05668012E10D0022E10D00020C9
:10061000156829182CBF0127002766B1002D0ADABA
:10062000884238BF0021A1601160E9E78068EFE7E8
:1006300041684868ECE7002FF5D016221A604FF0A9
:10064000FF3004E04068F0F794FD00206060F8BDE2
:1006500038B5436813B90848F8F7B4FB0568074C88
:100660000748D3E90121074B85420CBF20461846B5
:10067000BDE83840FEF7B8BBD95E0308905D0308BB
:10068000385F0308345B030870B5054608466E689A
:1006900016B90B48F8F796FB7468A9688C420DD917
:1006A000641AB368944228BF1446194422460AF0DB
:1006B000ABFFAB682344AB60204670BD0024FBE772
:1006C000D95E0308D0E9022351688B4237BF991CD9
:1006D000002252F82120013338BFC3601046704712
:1006E000044B0B60044BC1E901300023CB6008468A
:1006F000704700BF44540308C5060108032A2DE9CA
:10070000F84304460F46154612D11649F0F7F0FD9E
:10071000DFF8649007F1080800267B68B3420CD824
:10072000032D17D110492046BDE8F843F0F7E0BD8E
:100730000E49F0F7DDFD0125EAE71EB149462046E6
:10074000F0F7D6FD58F8041B2A462046F9F7A0F921
:100750000136E2E7012B03D105492046F0F7C8FD39
:100760000449E0E7AD40030808DB0308C958030863
:1007700000600308B6D30308AF40030802460868C8
:100780000B46083050F8041C01F08EB90A460830B8
:1007900050F8041C01F0BCB9052870B50D461DD0F9
:1007A000062807D004281CD14B68002B14BF1E203C
:1007B0000E2070BD0C4C01236A685E1C013B9A42FE
:1007C00003D8600040F00100F3E755F8261006203A
:1007D000F7F7C8FD334604EB6004EDE748684000D6
:1007E000F0E70020E5E700BF0460030838B50D46D8
:1007F000044690B102308000EFF71EFD084BC0E9BF
:1008000000344DB100F10802002355F8231042F8DE
:10081000041B01339C42F8D138BD0248FCE700BFFD
:100820000C6003080460030810287FB504460E46D8
:1008300015460CD007D8042848D90E2821D000240A
:10084000204604B070BD1B281BD01D28F7D103A97A
:100850002846F9F7CDF90028F1D0039B002B33DDB2
:10086000706800215843FFF7C1FF00F108030446F8
:1008700000937268039B042106F1080001F043F81D
:10088000DEE72846F9F7F0F81F4900F029FF0028B5
:10089000D5D06B68706800211844FFF7A7FF726815
:1008A00000F1080306F108010446920018460AF018
:1008B000ABFE6A6803467068920005F1080103EB1D
:1008C00080000AF0A1FEBBE7104CB9E71046F9F72B
:1008D000CBF80F4B426A9A4206D028460A4900F0EC
:1008E00083FF05460028AAD06B68009320467268F3
:1008F00005F1080306F1080101F08BF8002814BF88
:100900001E240E249CE700BF0C600308046003084B
:10091000E1060108042A7FB504460D462BD111F0EB
:10092000030640681DD10A68144B9A4219D101AAE6
:1009300000F0FCFF10B91248F8F70CFCDDE90130BB
:100940003146C01AFFF752FF019942680834054644
:10095000920004EB810108300AF056FE284604B0EC
:1009600070BD2A46014600232068F9F7DDF9023000
:1009700054F82050F2E70025F0E700BFDC580308E8
:100980003C4003082DE9F0410C4620461146022266
:100990001E46F8F775FD6CB33568AB0703D12A68BE
:1009A000154B9A4217D01020EFF746FC0021044661
:1009B0003068F7F7FDFE0025804604274046F7F72C
:1009C00057FF064650B928462146FFF70FFF054658
:1009D0002046EFF759FC2846BDE8F081AF4205D824
:1009E000F9002046EFF743FC7F00044644F82560F9
:1009F0000135E3E7014DEEE70C60030804600308EE
:100A000043680B60083010607047EFF73DBC000092
:100A1000F8B50E46114C1249124B88421AD0C268E2
:100A2000A24203D0306001242046F8BD406B98B14B
:100A300002689A42F1D1476800F1080505EB870783
:100A40000024BD42F0D255F8040B3146FFF7E0FF19
:100A50000444F6E70024E7E70446E5E781130108CC
:100A6000B05303080C6003082DE9F3410C4605461A
:100A700054F8046B002701A930680197FFF7C8FFFD
:100A800001982346D0F80C803A46691EC047306171
:100A9000062002B0BDE8F0812DE9F047DFF8CC80F8
:100AA000314FDFF8CC9005460C46AB684BB1E2689D
:100AB000424506D0E35823B1EB6804221A60BDE832
:100AC000F087A06BF0B16968C900002241F0020113
:100AD0000430F8F7B1FDA8B1297C4268EB682868BA
:100AE00029B101460020BDE8F047F7F701BB38B156
:100AF000E5681E498D4203D01B498C4218BF00692E
:100B00002146F0E72B6893B9646B002CD7D023689B
:100B10004B4509D1A2465AF8046F04EB8604261D02
:100B20005AF8044FB24514D3BC42BED1C7E72A7C61
:100B3000002AE9D1E2684245E6D0BC42E4D0186917
:100B4000EA686968F7F732FBEB681B68002BDBD0BB
:100B5000B5E7BC42E4D021462846FFF79DFFEB688D
:100B60001B68002BDCD0AAE7B053030881130108EF
:100B70000C6003082DE9F043136887B0064615465C
:100B80006BBBD0E901201129CDE90101516B8DF832
:100B90001430CDE9033504BF0C230393B9B10A68BF
:100BA000174B9A421ED10C46DFF85C9054F8048F24
:100BB000002747450BD054F8041F494501D10137A0
:100BC000F7E701A8FFF768FF2B68002BF7D02B6829
:100BD0007BB1042B03D10B4B2B60B3686B6007B068
:100BE000BDE8F083084B9942F1D001A8FFF754FF0C
:100BF000EDE70549039301A8FFF74EFFEFE700BFBC
:100C00000C600308A4620308B053030838B5044617
:100C1000084611464FF002121D46F8F731FC082035
:100C2000EFF70AFB2B68C0E9004338BD38B51C4616
:100C30000546084611464FF00412F8F721FC2368D8
:100C40009A0703D11A68074B9A4202D00020F8F79E
:100C500053FA0C20EFF7F0FAD4E90013C0E9005181
:100C6000836038BD5C620308CA880149F0F7BEBEE4
:100C70007C600308F0B50E468BB0CDE903620546F3
:100C80000021144606A81022CDE9011101AF0AF097
:100C900001FD20230595079308977CB90B2305A830
:100CA00029680693FFF7F8FE019804280BD12869FC
:100CB00022463146F9F75CF90BB0F0BD042C0CBFAD
:100CC0000F231C23EBE70028F6D05CB1042C14BFE3
:100CD000022001203A460021F7F74AFC042C18BFF5
:100CE0000620E9E70120F5E72DE9F041DFF8708003
:100CF00088B004460F461546002618F804300493C1
:100D00003968CDF818D0182303A80593CDE90066FB
:100D1000CDE902678DF81C60FFF7BEFE009B042B37
:100D200008D139692A462046F8F754F80B4B984207
:100D30000DD10BE033B16A46002101200295F7F78F
:100D400017FCF3E7A4F109030C2B03D9002008B02A
:100D5000BDE8F0810D34E4B2CFE700BF805803084E
:100D60007161030870B5244B0D46195C88B0CDE95C
:100D7000035101AA14210023CDE905120646296872
:100D80008DF81C3003A8CDE90133FFF785FE019CE7
:100D9000042C07D129693046F7F7E4FA04462046C7
:100DA00008B070BDCCB120462946F7F7D7FB062E18
:100DB00004460CD0082EF2D1C207F0D4830703D129
:100DC00002680E4B9A42EAD00020F8F795F9F8F73E
:100DD00001FF400040F00104E1E7062EDFD1B62319
:100DE0002968049303A8FFF757FE019B002BD6D177
:100DF0006C0044F00104D2E7986203085C500308D9
:100E000070B5151E88B00C460CBF1D211B21CDE905
:100E1000034101AA08210023CDE9051206462168F5
:100E20008DF81C3003A8CDE90133FFF735FE019B97
:100E30003BB935B91B23216803A8CDE90435FFF779
:100E40002BFE0198042819D12069F8F70DFE144BE8
:100E5000C2689A4210D13DB12368D888F0F756F89D
:100E600001463046F0F744FA45F0800221693046E9
:100E7000F8F70EFE08B070BD2A46F7E728B1214604
:100E8000F7F76CFB00220146F1E72046F8F7F8FD82
:100E90000449024623463046F0F7A8FDEAE700BFC2
:100EA00089B200088960030838B50D4604460B492D
:100EB000F0F71EFA696800222046F8F7E9FD0849B4
:100EC0002046F0F715FAA96820460022F8F7E0FD61
:100ED00020460449BDE83840F0F70ABA9B60030891
:100EE000AF400308876003082DE9F04117461268F8
:100EF0008EB005460C46002A7BD14FEAC10848F067
:100F00000208039041460430F8F796FB064610B1FC
:100F100043683B600BE0B42C1AD16868C008FAF74C
:100F2000D3F88046AB689E4204D3C7F800800EB069
:100F3000BDE8F081EB6853F8361003EBC60229B127
:100F4000042903D052684046FAF735F90136E9E73B
:100F5000CDE90B078DF83400296809A8CDE90954BB
:100F6000FFF79AFD3E68002E2FD02B689B889A07CA
:100F7000DDD516F0030215D131685B4B994211D1D2
:100F800030460192FCF7E8FA0068019A062803D17E
:100F900056495748F7F780F903AB0121F7F770FA84
:100FA0003860C4E705AABA213046F7F7FFF8059B79
:100FB000002BBCD003980790F8F756FD05AA0890BF
:100FC00000210220F7F7D4FAEAE70E2CAFD0D02C9C
:100FD000ADD0B22CABD0039805AA0E21F7F7E6F8F6
:100FE000059B002BA3D0CDF81C8005AA314601201B
:100FF000E8E701687E688B889B0761D50023CDE90F
:10100000090403AA09A8CDE90333CDE90B328DF811
:101010003430FFF741FD0398002838D010F0030268
:101020001CD10168304B994218D10192FCF794FA17
:10103000CDE90556019A56B9806806283FF477AF86
:1010400005AB32460121F7F71BFA002361E7406840
:1010500006283FF46CAF05AB0221F4E705AA5EB9A0
:10106000B321F7F7A3F8059B93B1079505AA0021D3
:101070000120F7F77DFAE8E7CF21F7F797F8059B0E
:1010800093B10795089605AA00210220F1E75EB901
:1010900005AAB2212846F7F789F8059B8BB1E40031
:1010A00044F002040794E1E705AAD0212846F7F7A7
:1010B0007DF8059B7BB1E40044F002040794E1E76E
:1010C0004EB9E10002221143281DF8F7B5FA0028B5
:1010D0003FF42DAFB9E7E100012241F00201281DE4
:1010E000F8F7AAFA4660B0E7A0540308A460030822
:1010F0009846030870B5C56825B9C28803490448F5
:10110000F7F7D3F8AC46BDE870406047B16003081C
:10111000844B0308F0B589B001AF00260390132279
:10112000242305460C460168019603A8CDE9042353
:101130007E6006978DF81C60FFF7AEFC019870B1D9
:1011400004280ED12869F8F78FFC06461CB9102038
:10115000EFF772F80446736A28692146984709B088
:10116000F0BD3A4631463046F7F702FAF7E7F0B5F8
:1011700089B00E4601242C210023CDE904410390BF
:1011800001688DF81C300546174603A801AACDE971
:1011900001330692FFF780FC019B042B09D12869DB
:1011A000F8F762FC3A46C36A28693146984709B0A5
:1011B000F0BD2046FBE7000040F28263984273B521
:1011C0000C4610D040F2925398420CD08B0711D0AD
:1011D0000B4E0025204616F8011B01236A46F7F73F
:1011E0001BF8009808B1012002E00135032DF1D170
:1011F00002B070BD0A68034B9A42E9D1F3E700BF21
:10120000B0620308A05403082DE9F041136886B0CA
:10121000064614466BBB172905D1C388DB0043F093
:101220000203236016E0AD2917D12A4A904201D16A
:10123000294BF6E7436B002B08BF13469E0701932B
:1012400003D11968254A9142EBD001A90120FFF78B
:10125000CDFA206006B0BDE8F081CDE90101CDE90D
:1012600003320146012301A88DF81430FFF714FC66
:10127000F0E7806B0028EDD003799D07EAD457682A
:10128000C90000F1040841F0020547B902222946CD
:101290004046F8F7D1F90028DCD02760DAE7B388B8
:1012A00099070ED439462846FFF786FF48B1B38820
:1012B000DA0703D50A490B48F6F7EEFF43F00203BD
:1012C000B380012229464046F8F7B6F963684360C7
:1012D0000023A6E7B0530308046003080C6003086A
:1012E000C46003089846030870B58CB00D4603929D
:1012F00010210922CDE9082105A907900A91044689
:1013000001681E4607A80023CDE905338DF82C306F
:10131000FFF7C2FB0598039A38B92046F8F7B0FBEF
:101320000A4902460A48F6F7C0FF042806D1206998
:1013300033462946F7F7A4F80CB070BD134606995A
:1013400000962A46F9F7C0FAF6E700BF083D030801
:10135000844B030870B50646FFF75AFB0546043078
:101360008000EEF769FF0021044640F8046BF8F7AF
:101370002DF90DB1014B2361204670BDA462030815
:101380002DE9F0478AB00DF10C09002407460D46FF
:1013900016460146182205A898460C23CDE90623D7
:1013A0000394C9F804400594CDF820908DF82440AA
:1013B000FFF772FB0398019408B1042824D101A916
:1013C0003846FFF7C7FF044600231122394605A817
:1013D000CDE90333CDE906230594FFF75DFB039BBD
:1013E000002B58D055EA060139D14A460846F7F78E
:1013F000BFF80746062F4ED03846F8F741FB2D4977
:1014000002462D48F6F751FF55EA06020ED102AB0F
:1014100001210297F7F734F804462046F8F724FB39
:101420008742D1D020460AB0BDE8F08705EB4604DC
:101430000134A4002046EEF7FFFE221F82464146FB
:1014400040F8047B0AF0E0F8039853463246691CE2
:10145000F7F716F804465046EEF716FFDDE705EB02
:1014600046070237BF003846EEF7E6FE039B0360EF
:10147000049B43608146A7F10802414608300AF008
:10148000C3F84A4631462846F7F772F807464846F9
:10149000EEF7FAFEAEE701980028C3D02269074BA9
:1014A0009A42BFD1C768434632462946B8472061B1
:1014B000B8E700BFED600308844B0308A46203088B
:1014C00000B589B009211022CDE90412002301687A
:1014D000039001AA03A8CDE9013306928DF81C30D0
:1014E000FFF7DAFA0198003818BF012009B05DF85B
:1014F00004FB00002DE9FF470F46B907804616465A
:1015000002D00020F7F7F8FD3A684B4B9A42F8D129
:1015100016F00305F5D13268484B9A42F1D13846AE
:1015200002AA01A9FFF76CFADDE90104DFF840A186
:10153000DFF840912B46D025984230D13C20EEF781
:1015400094FE3F4B019AC0F800A0C0E902393D4B20
:1015500003613D4B43613D4B83613D4BC3613D4B5B
:1015600003623D4B43623D4B85800446A0F80680F4
:10157000C36242B1029B1968096B0163012A96BFDD
:101580001B684763436315F00205A66327D003A9D0
:101590002046FFF73DFA012832D93148B2E754F826
:1015A00023108A07ADD10A685245AAD1CA6822B968
:1015B000CA882C482C49F6F778FE4A4506D18A8815
:1015C00042F001028A8002F0020215430133B3E7C0
:1015D000DB6853F8350003EBC50228B90135A36B6E
:1015E0009A68AA42F4D8D2E70428F7D05168FFF7E6
:1015F000E3FD0028F2D0A38843F00203A380C6E7EE
:10160000A06B0022C2210430F8F716F8054670B12D
:10161000436813F003020AD11B68DB88B3F5197F16
:1016200005D1031D01211148FFF7F0FA686020463B
:1016300004B0BDE8F08700BF0C6003084C45030808
:10164000010E0108E9120108650D0108E90C010805
:10165000E90E0108750C0108151101086F11010848
:1016600025610308844B03080F610308E461030844
:101670005C6203088113010838B50D4628461146FF
:101680000C4A1C46F7F7FCFE012D04D0032D07D0B1
:101690000948F7F731FD2068BDE83840F8F7E4B9AC
:1016A0002068FDF791FDD4E90112BDE83840FFF74D
:1016B00021BF00BF06000200476103081FB5074BAA
:1016C00001934B6802930A468B680393014601A875
:1016D000F6F7A2FF05B05DF804FB00BF2062030827
:1016E0002DE9F041134E144F0D46A8421CD010F0C6
:1016F00003031BD10268B2421AD1406B90B1036858
:10170000BB42F2D1044654F8043F00EB830000F1E1
:10171000040854F8040FA045E7D92946FFF7E0FF75
:101720000028F6D0BDE8F0810120FBE70020F9E7B2
:101730001846F7E75C6203080C6003082DE9FF41D7
:101740008B070546019108461AD10B68144A93424B
:101750000ED10123029301AB0393DDE90267DFF8A9
:101760004C800024A6420ED10E2004B0BDE8F081CA
:101770000C4A934204D103AA02A9FFF741F9ECE70E
:101780000948F7F7B9FC57F82410414505D0284619
:10179000FFF7A6FF08B90134E4E71E20E5E700BF24
:1017A0005C6203080C60030854610308B05303082B
:1017B000820708B503D10268044B9A4202D004485C
:1017C000F7F79AFCBDE80840FFF7B8BF5C62030872
:1017D0006861030807B50191F8F746F9019903B06C
:1017E0005DF804EBFFF7AABF38B50D460446F8F7DD
:1017F0003BF9854204D02946FFF772FF10B12469F6
:10180000204638BD0446FBE72DE9F843054640680D
:10181000E0B10021FEF7EAFF05F10809044600F1F6
:10182000080800276B68BB4209D959F8040BF7F781
:101830001FF8064630B92046FFF7E7F83446204641
:10184000BDE8F88348F8040B0137EBE70446F6E7F8
:101850002DE9F0410F46BC1C114680460E4A384621
:10186000A4001D46F7F70CFE2046EEF7E5FC083C09
:10187000C0E90087064600F108072C44A54202D1C2
:101880003046BDE8F08155F8040B0021F6F790FFD3
:1018900047F8040BF2E700BFFEFF010013B5044652
:1018A0000191F8F7E1F80199036A0422204602B099
:1018B000BDE81040184713B50446CDE90021F8F7FC
:1018C000D3F8DDE90021036A204602B0BDE81040EC
:1018D000184713B504460191F8F7C6F80199036A51
:1018E0000022204602B0BDE81040184713B5044658
:1018F0000191F8F7B9F8019A83692146242002B0D2
:10190000BDE810401847F8B51D46069B074602FB88
:1019100001F40026AE4200D1F8BD184622463946F1
:1019200009F072FE034623440136F3E70B4610B577
:10193000144601461846FCF79FFBA068002809DA08
:101940006268236801329A4262600ADC431E584290
:10195000584110BDFAD0D4E900329342F6DD6360FD
:10196000F4E70133FBE72DE9F0410E46002108467C
:101970009768D2E90048FBF725FB002F054611DAEE
:10198000444502DA2846BDE8F08156F8241028467E
:10199000FBF7C1F83C44F3E756F824102846FBF760
:1019A000BAF83C444445F7DBECE770B50446022C3A
:1019B000049E1546184610D1B24226D1024608466A
:1019C0001146AE42324628BF2A4609F089FE022C53
:1019D0000ED1B0FA80F0400970BD2CB1032C05D0B7
:1019E00032462E461546E9E70124EAE70424E8E7F3
:1019F00000280ADB0BD1AE4203D02CBF012000200F
:101A0000EAE7601E18BF0120E6E70020E4E70120B6
:101A1000E2E72DE9F74F0228DDF83080044617464B
:101A200005D1424509D0002003B0BDE8F08FB8B120
:101A3000032817D04246B84617461A460B461146A9
:101A4000B845C3461E4628BFBB460D464FF00009A9
:101A5000D94509D1B84523D02CBF01200020E3E7A8
:101A60000124EDE70424EBE72B46B2461968DAF8C7
:101A700000000193F8F760FA0436019B043510B1B9
:101A800009F10109E4E7022CCDD01A68DAF8001058
:101A9000E0B2F7F79FF9A0F11E0358425841C3E79F
:101AA000601E18BF0120BFE72DE9F0478046186887
:101AB00016461D460F46F7F7D7FF022ED5F804A0AD
:101AC000814613D9AA6801233946F8F72DF9032E68
:101AD000044606D03946EA6801234846F8F724F957
:101AE0000746A74204D80948F7F76CF90024F8E73D
:101AF00058F824005146F8F71FFA20B1600040F072
:101B00000100BDE8F0870134EBE700BF1063030874
:101B1000F8B51746044600EB81060025B44203D110
:101B2000680040F00100F8BD54F8040B3946F8F79E
:101B300003FA0028F2D00135F0E713B503681B6BF8
:101B400000229C68042101ABA047013002D101981A
:101B5000F7F7F4FA062002B010BD13B503681B6B4B
:101B600000229C68012101ABA047013002D10198FD
:101B7000F7F7E4FA062002B010BD00002DE9F041AD
:101B80000B681B6801281F6B86B00D4626D94C6870
:101B90006410611C22D0214602A8EFF7A4FA631C4E
:101BA00002D0631E44B31C46012102A8EFF708FBD4
:101BB000012201463E68804601AB2868B047421CBE
:101BC00015D101980B2810D1039B012B10D102A82D
:101BD000EFF7B8FA062006B0BDE8F081102102A8A0
:101BE000EFF781FA4FF0FF34D9E7F7F7A7FA70B9AA
:101BF000012102A8EFF75BFB3B7B074813F0010FC5
