:020000040800F2
:1000000060050020A9010008EB14000899130008FE
:10001000E9140008B50200083D1A000800000000BD
:10002000000000000000000000000000A916000809
:100030006903000800000000ED140008AB1600087A
:10004000C3010008C3010008C3010008C301000880
:10005000C3010008C3010008C3010008C301000870
:10006000C3010008C3010008C3010008C301000860
:10007000C3010008C3010008C3010008C301000850
:10008000C3010008C3010008C3010008000000000C
:10009000000000000000000000000000C301000894
:1000A000C3010008C3010008C3010008C301000820
:1000B000C3010008C3010008C3010008C301000810
:1000C000C3010008C3010008C3010008C301000800
:1000D000C3010008C3010008C301000800000000BC
:1000E000C3010008C3010008C301000800000000AC
:1000F000000000000000000000000000C301000834
:1001000000000000C3010008C3010008C30100088B
:1001100000000000000000000000000000000000DF
:10012000C3010008C3010008C3010008B9020008A8
:10013000C3010008000000000000000000000000F3
:10014000000000000000000000000000C3010008E3
:10015000C3010008C3010008C3010008C30100086F
:10016000C3010008C30100080000000000000000F7
:10017000000000000000000000000000000000007F
:1001800000000000C30100080000000000000000A3
:10019000C3010008DFF80CD000F07AF800480047EF
:1001A0007D1A000860050020064880470648004781
:1001B000FEE7FEE7FEE7FEE7FEE7FEE7FEE7FEE717
:1001C000FEE7FEE73D170008950100082DE9F05F06
:1001D0000546002092469B468846064681464024B6
:1001E0001BE0284641464746224600F041F8534668
:1001F0005A46C01A914110D311461846224600F0C3
:1002000028F82D1A67EB01084F46224601200021ED
:1002100000F01FF817EB00094E41201EA4F1010465
:10022000DFDC484631462A464346BDE8F09FD2B25D
:1002300001E000F8012B491EFBD270470022F6E7CF
:1002400010B513460A4604461946FFF7F0FF20464C
:1002500010BD202A04DB203A00FA02F1002070478A
:100260009140C2F1200320FA03F3194390407047F4
:10027000202A04DB203A21FA02F00021704721FAFB
:1002800002F3D040C2F12002914008431946704762
:10029000064C074D06E0E06840F0010394E80700D3
:1002A00098471034AC42F6D3FFF778FF601B000884
:1002B000801B0008FEE70000014800F057B800006E
:1002C000C000002001681823CAB2103AB2FBF3F252
:1002D000054B6FF30901032A9B5CC36500D9091D17
:1002E0008165084670470000401B000810B50146B4
:1002F00000208B698A6A4FF0C07453B1B3F5005F78
:1003000015D072B1012A0CD0022A0AD0032A09D1D1
:1003100004E01AB1012A06D0022A03D1C96AC90130
:1003200000D5012010BDC96AA142FAD010BD002A33
:10033000F7D0012AF2D0022AF3D0032AF3D010BD5D
:1003400030B50468256825F480252560046863605D
:100350008368402B036803D099600068C26030BD99
:100360009A600068C16030BD704770472DE9F8435E
:1003700004464FF00009CDF8009063484FF4165141
:10038000A56D0068B0FBF1F72E6894F85C100820AA
:1003900000FA01F131420FD021680A6852070BD5EB
:1003A0000A6822F004020A6094F85C108840A86091
:1003B000606D40F00100606594F85C104FF001083A
:1003C00008FA01F0304208D021684969090604D5CD
:1003D000A860606D40F00200606594F85C10042035
:1003E0008840304208D021680968890704D5A86090
:1003F000606D40F00400606594F85C101020884047
:10040000304218D021680968090714D5A86020680F
:100410000168490304D50068000308D5A16C07E012
:100420000168C90503D4016821F008010160216C4D
:1004300009B12046884794F85C102020884030425B
:1004400031D021680968C9062DD5A86094F8350017
:1004500005282068016806D0490347D500680003D5
:100460001DD4616C1CE021F0160101602068416917
:1004700021F080014161206C08B9A06C20B1206896
:10048000016821F00801016094F85C103F20884069
:10049000A86084F8349084F83580216D1FE0E16B0A
:1004A00009B120468847606D00282BD0606DC007D9
:1004B00014D0052084F835002068016821F001017E
:1004C00001600098401C0090B84203D82068006882
:1004D000C007F6D184F8349084F83580E16C0029A7
:1004E00010D001B02046BDE8F04308470168C905B7
:1004F000D5D4016821F01001016084F8349084F8AB
:100500003580CCE7BDE8F883180000202DE9F041E4
:10051000044600F083F906465CB1002584F83450A7
:10052000022084F835002068016821F00101016093
:100530000DE00120BDE8F08100F070F9801B052876
:1005400005D920206065032084F83500F2E7206893
:100550000068C007F0D12268116820480140D4E942
:1005600001031843D4E9033633431843636918433E
:10057000A3691843E3691843236A18430843616A6F
:10058000042903D1D4E90B131943084310602068F0
:100590004069666A20F0070130460E4301270428AF
:1005A0000CD1A06A0643E06A40B12046FFF79EFEE8
:1005B00020B14020606584F83570BAE72068466154
:1005C0002046FFF77FFE94F85C203F219140816038
:1005D000656584F835700020ACE700003F8010F0BE
:1005E0002DE9F0410446866D90F83400002501287D
:1005F0000DD0012084F8340094F835700020012FCC
:1006000007D084F8340002252846BDE8F081022096
:10061000FBE7022784F8357060652046FFF790FEFF
:1006200094F85C103F208840B0602068016841F079
:10063000160101602068416941F080014161206C30
:1006400020B12068016841F008010160206801685C
:1006500041F001010160D7E770B5044600F0DEF813
:100660000546601C02D004480078044400F0D6F827
:10067000401BA042FAD370BD0C0000202DE9F84FBA
:10068000DFF860B100224FF001084FF0030A4FF08D
:100690000F090BF1040E00BF0B6808FA02F42340A7
:1006A000A3426ED14D68022D01D0122D0ED1D50876
:1006B00000EB850CDCF820505607F70E09FA07F618
:1006C000B5430E69BE402E43CCF820600668550045
:1006D0000F790AFA05FC07F0030726EA0C06AF407B
:1006E000374307604E68012E05D0022E03D0112E2D
:1006F00001D0122E0ED18668CF6826EA0C06AF40D4
:10070000374387604668A6430C79C4F300149440CD
:1007100034434460C6688C6826EA0C06AC40344317
:10072000C4604C68E40056D52F4C256845F48045DC
:100730002560246822F0030504F4804400942B4CC7
:100740002E19D6F8084895072F0F09FA07F5AC437C
:10075000274DA84201D1002515E0264DA84201D120
:10076000012510E0244DA84201D102250BE0234DC4
:10077000A84201D1032506E0214DA84202D104255B
:1007800001E028E00725BD402543C6F80858DBF8FE
:1007900000405D464E689C43F60300D51C432C6028
:1007A000DEF8004075464E689C43B60300D51C43F6
:1007B0002C600C4D08352C684E689C43F60200D521
:1007C0001C432C60074D0C352C684E689C43B602C8
:1007D00000D51C432C60521C102AFFF45DAFBDE80D
:1007E000F88F0000003C01404438024000300140D6
:1007F000000002400004024000080240000C0240D9
:1008000000100240426931EA020200D1090481610C
:1008100070470AB1816170470904FBE701488068AD
:10082000704700000C0000200248816802781144E3
:10083000816070470C0000200B4810B5016841F43E
:1008400000710160016841F480610160016841F458
:1008500080710160032000F06FF8002000F006F8BE
:1008600000F024F8002010BD003C024070B50D4D92
:1008700004464FF47A712878B1FBF0F00A49096810
:10088000B1FBF0F000F00DFD48B9102C07D20022AA
:100890002146501E00F030F800206C6070BD012031
:1008A00070BD00000C000020180000200A4808B5A8
:1008B000016841F480410160006800F480400090CC
:1008C0000548001F016841F080510160006800F098
:1008D0008050009008BD000044380240002809DB29
:1008E00000F01F02012191404009800000F1E0204A
:1008F000C0F8001170470000F0B40E4B1B680C46A6
:10090000C3F30223C3F10705042D00D90425191DE3
:10091000072901D2002300E0DB1E012606FA05F1BB
:10092000491E214099409E40761E16403143F0BC3E
:1009300001F085B80CED00E0064900F007020868F8
:100940004FF6FF03184040EA0220034A10430860B4
:10095000704700000CED00E00000FA052DE9F843B7
:10096000044600684FF00109C1074FF0000601D1AD
:10097000400727D5DFF81C81C8F86860FFF74EFFF5
:100980000746454D05E000BFFFF748FFC01B0228A2
:1009900057D828680001F7D460688101207A41EABD
:1009A00000703D4984310860C8F86890FFF736FF51
:1009B000074604E0FFF732FFC01B022841D8286831
:1009C0000001F7D52078800752D5334840300168C0
:1009D00041F0805101600068304D00F0805000907F
:1009E000286840F480702860FFF718FF074604E08D
:1009F000FFF714FFC01B022823D82868C005F7D5CD
:100A0000254D7035286810F4407020D0A18901F47C
:100A1000407181421BD0286820F440712048C0F802
:100A20000090066029602868C00710D0FFF7F6FE26
:100A3000064641F2883707E0FFF7F0FE801BB84218
:100A400002D90320BDE8F88328688007F4D5E1685F
:100A50001148C1F301220830032A12D0016821F4A1
:100A6000F81101602868A189C1F30B0108432860CF
:100A70002078000703D50B49207CC1F8E001002055
:100A8000E0E70268084B22F4F81219400A430260BA
:100A9000E8E70000000047420038024000700040D4
:100AA000400E474200104742FFFCFF0F2DE9F04780
:100AB0000E46050065D0DFF81481D8F80000F7B2C3
:100AC00000F00F00B04207D288F80070D8F800009C
:100AD00000F00F00B04254D128683D4C810712D578
:100AE000400703D5206840F4E050206028780007D4
:100AF00003D5206840F4604020602068A96820F099
:100B0000F000084320602878C0072DD0304968687D
:100B10000839012812D0022813D0032811D00968FF
:100B2000890700292DDA216821F0030101432160A2
:100B3000FFF774FE814641F2883A0EE009688903A6
:100B4000EFE709688901ECE7FFF768FEA0EB090110
:100B5000514502D90320BDE8F0872068696800F09C
:100B60000C00B0EB810FEFD1D8F80010404601F037
:100B70000F01B14207D90770006800F00F00B042C2
:100B800001D00120E7E72878400705D52068E9680B
:100B900020F4E050084320602878000706D520683C
:100BA000296920F4604040EAC100206000F036F876
:100BB0002168084AC1F30311515CC8400649086026
:100BC0000020FFF753FE0020C5E70000003C024074
:100BD00008380240481B0008180000200448054956
:100BE00000680968044AC1F38221515CC84070471B
:100BF0001800002008380240581B00080448054926
:100C000000680968044AC1F34231515CC84070472A
:100C10001800002008380240581B0008154810B57D
:100C2000006810F00C02144813D01449042A0FD0A5
:100C3000082A0ED10F4C241F2268236802F03F02BD
:100C40005B0207D52068C0F38810A0FB010106E015
:100C5000084610BD2168C1F38811A1FB00010023E3
:100C6000FFF7B4FA2168C1F30141491C4900B0FB08
:100C7000F1F010BD083802400024F40040787D01F6
:100C80002DE9F84F050076D02878DFF8F8B2BE4C91
:100C9000C00749D0DBF800105846C1F38101012993
:100CA00008D00068C0F3810002280AD1201D006826
:100CB000400206D52068800336D568680028E2D057
:100CC00032E06868B0F5803F10D0B0F5A02F206802
:100CD00010D020F480302060206820F48020206034
:100CE0006868A0B1FFF79AFD06460CE0206840F462
:100CF0008030F4E740F480202060F7E7FFF78EFDB6
:100D0000801B642873D820688003F7D50CE0FFF7B8
:100D100085FD064605E000BFFFF780FD801B6428C7
:100D2000F0D820688003F7D42878DFF86082800745
:100D30004FF000093ED5DBF80010584611F00C0FBB
:100D400009D00068C0F3810002280BD18D48001F34
:100D50000068400206D42068800715D5E86801289D
:100D600009D111E0E868B8B10120C8F80000FFF728
:100D700055FD064605E002E1FFF750FD801B022805
:100D8000C0D820688007F7D52068296920F0F800CE
:100D900040EAC10020600DE0C8F80090FFF73EFD7A
:100DA000064604E0FFF73AFD801B02281FD82068A2
:100DB0008007F7D42878000722D5724E74486969F5
:100DC0006C3671B101210160FFF728FD074604E090
:100DD000FFF724FDC01B022809D830688007F7D52B
:100DE0000EE0C0F80090FFF719FD074605E083E02C
:100DF000FFF714FDC01B02287ED830688007F7D4A7
:100E00002878400768D5DFF87CA100270AF1380A66
:100E1000DAF80000C0000BD4DAF8001041F080517D
:100E2000CAF80010DAF80000012700F080500090A6
:100E3000584E3068C00510D4306840F4807030607F
:100E4000FFF7ECFC009005E0FFF7E8FC0099401A82
:100E5000022851D83068C005F6D54A4EA8686836D1
:100E600001280FD00528306810D020F00100306034
:100E7000306820F004003060A868B8B1FFF7CEFCFD
:100E800000900FE0306840F00100F4E740F004000B
:100E90003060F7E7FFF7C2FC0099411A41F2883051
:100EA000814264D830688007F4D50EE0FFF7B6FCC5
:100EB000009007E0FFF7B2FC0099411A41F2883038
:100EC000814254D830688007F4D42FB1DAF800108A
:100ED00021F08051CAF80010A869C0B3DBF80010F7
:100EE000C1F3810102294AD00228484607D0C8F838
:100EF0006000FFF793FC00E039E005463AE0474622
:100F0000C8F86000FFF78AFC064604E0FFF786FC9D
:100F1000801B02282BD820688001F7D4D5E907016F
:100F20000843A96A1C4A490802EB01416A6A41EA7E
:100F30008211084395F82C1040EA01611148001F06
:100F4000016001203866FFF769FC054605E014E002
:100F5000FFF764FC401B022809D820688001F7D500
:100F60000BE000BFFFF75AFC401B022802D9032008
:100F7000BDE8F88F20688001F4D40020F8E7012054
:100F8000F6E70000083802400038024000004742FF
:100F9000800E4742007000400000FFFF70B5040063
:100FA00002D0607F10B106E0012070BD00202077E4
:100FB000204600F049F8022060772168CA20486284
:100FC000216853204862204600F092FAFF2504264B
:100FD00018BB206881681B4A1140816021688868BD
:100FE00062681043D4E904231A43104388602168DF
:100FF000E068086120680169228941EA02410161D3
:101000002068C16821F08001C16020688068800686
:1010100007D4204600F024F818B1206845626677AE
:10102000C2E72068016C21F4802101642068016C12
:10103000A2691143016420684562012060770020A5
:1010400070BD0000BFFF8FFF00680349884202D1D6
:101050000249012008607047002800403C0E4742CA
:1010600070B504460068C16821F0A001C160FFF7B7
:10107000D5FB05464FF47A7607E000BFFFF7CEFBBD
:10108000401BB04201D9032070BD2068C0688006B3
:10109000F4D5002070BD704770B5040005D0002560
:1010A000A56294F8510010B106E0012070BD84F8EB
:1010B0005050204600F030F8022084F8510020689B
:1010C000016821F040010160D4E901010843D4E93D
:1010D00003121143084361690843218B01F4007135
:1010E0000843E1690843216A0843A16A084321686B
:1010F0000860A069042101EA1040616A0843216880
:1011000048602068C16921F40061C1616565012002
:1011100084F85100002070BD70B586B006461421D9
:101120006846FFF78BF820493068884239D11F485C
:101130000025016841F480510160006800F480508E
:1011400005901A481438016841F0010101600068F7
:10115000694600F001000590E02000900220CDE9F2
:10116000010503200390052004901148FFF786FA3B
:10117000114C104820604FF0C06060604020C4E90E
:1011800002050001C4E904058001A561C4E9075016
:1011900020466562FFF7BAF908B1FFF7E6F8B464D4
:1011A000A66306B070BD0000003001404438024024
:1011B0000000024058640240C00000202DE9F041C8
:1011C000044690F850000026012809D0012784F831
:1011D000507094F851000025012804D0022649E0FF
:1011E0000220BDE8F08189B182B1032084F851006A
:1011F00065652163A286E286A56365642564A5878B
:10120000E587A068B0F5004F02D006E0012631E086
:101210002068016841F480410160A16C17480864AE
:10122000A16C1748C863A16C1648C864A06C05651A
:10123000E38E2268216B0C32A06CFFF7D1F938B134
:10124000606D40F010006065012684F8517011E077
:1012500020680168490603D4016841F0400101603B
:101260002068416841F0200141602068416841F0F8
:101270000201416084F850503046B2E74D15000835
:10128000571500082B15000800680349884202D151
:1012900002490120886070470030014000000020B2
:1012A000704710B5401EB0F1807F01D3012010BD02
:1012B0004FF0E02460610F21601700F0C0FB0020B8
:1012C000A06107202061002010BD70B5040004D08B
:1012D00094F83900002510B106E0012070BD84F8B3
:1012E0003850204600F022F8242084F83900206885
:1012F000C16821F40051C160204600F049FA20681D
:10130000016921F4904101612068416921F02A01BD
:1013100041612068C16841F40051C160E56320204B
:1013200084F8390084F83A00002070BD10B586B00A
:10133000044614216846FEF781FF1449206888425C
:1013400021D11348016841F010010160006800F0EC
:10135000100005900E481438016841F00101016049
:101360000068694600F0010005904FF4C0600090ED
:101370000220019001200290032003900720049096
:101380000448FFF77BF906B010BD000000100140D3
:101390004438024000000240FEE70000094808B55A
:1013A000016841F4800101600068002200F48000BF
:1013B000009011463B20FFF79FFABDE808403B2014
:1013C000FFF78CBA3038024070B586B014216846F9
:1013D000FEF734FF15480024016841F00401016064
:1013E000016801F004010591016841F0800101608C
:1013F000016801F080010591016841F0010101607F
:101400000068012200F00100094E550305902946AD
:101410003046FFF7FEF901200095CDE90104694649
:1014200030460394FFF72AF906B070BD3038024009
:10143000000802400B4810B50949016000217F22D5
:10144000C0E90112FF22C0E9032141618161FFF778
:10145000A5FD002803D0BDE81040FEF786BF10BDF3
:101460000028004048000020104810B50E490160D7
:101470004FF48271416000218160C1604FF40072BD
:101480000161C0E905122822C0E907214162816299
:101490000A21C162FFF700FE002803D0BDE810401A
:1014A000FEF763BF10BD000000300140680000205F
:1014B0000C4810B50A4901604FF4E1314160002148
:1014C00081600C22C160C0E904128161C161FFF733
:1014D000FCFE002803D0BDE81040FEF746BF10BD5B
:1014E0000010014020010020FEE770477047000017
:1014F00070B504460068C168490614D44FF0FF3146
:10150000C160FFF78BF905464FF47A7607E000BF1C
:10151000FFF784F9401BB04201D9032070BD206859
:10152000C0684006F4D5002070BD10B5806B01681E
:101530004A6822F003024A60416D41F010014165A2
:10154000012180F85110FFF7A6FD10BD10B5806B8A
:10155000FFF7A6FE10BD38B50546846BFFF75EF9B0
:10156000024628680068C00523D42068416821F03D
:10157000200141602068416821F00201416064213E
:10158000204600F01BF818B1606D40F02000606547
:10159000A068002118B92068C26880680090E186C0
:1015A000012084F85100606D18B12046FFF773FDEB
:1015B00038BD2046FFF768FE38BD000038B5044648
:1015C0001248134B0068B0FBF3F04FF47A735843A2
:1015D00000906068B0F5827F0DD10B46009200222A
:1015E0008021204600F016F870B1606D40F02000B8
:1015F0006065032038BD009830B1401E009020681F
:101600008068C0430006F6D5002038BD18000020D1
:1016100000366E012DE9F0411D4617460E46044680
:10162000DDF8188008E0681C06D0FFF7F7F8A0EB9B
:101630000800A8420BD255B12068806836EA000045
:1016400030D00020B842EED10020BDE8F081206803
:10165000416821F0E00141606068B0F5827F0BD104
:10166000A068B0F5004F02D0B0F5806F04D12068BB
:10167000016821F040010160A06AB0F5005F09D166
:101680002068016821F4005101602068016841F47C
:1016900000510160012084F85100002084F85000BE
:1016A0000320D2E70120CDE77047FFF7BDB8000067
:1016B00030B597B030216846FEF7C0FD14210CA864
:1016C000FEF7BCFD142111A8FEF7B8FD194800244F
:1016D000016841F080510160006800F08050169070
:1016E0001548016821F4404141F40041016000685F
:1016F000012500F440401690092000904FF48030FE
:101700000190CDE905546846FFF7BAFA0F200C9016
:10171000CDE90D540F9400210CA81094FFF7C6F9E1
:10172000022011900002149011A8FFF717F917B0CA
:1017300030BD000040380240007000401048016891
:1017400041F4700101600F48016841F0010101603E
:101750000C4A00210832116002680B4B1A400260EB
:10176000031D0A4A1A60026822F4802202600548BA
:101770000C3001600249580680390860704700004B
:1017800088ED00E000380240FFFFF6FE1030002434
:101790002DE9F041044600680169E26821F44051F6
:1017A000114301612169A068E2690843616911433D
:1017B00022680843D16849F20C6399430143D16020
:1017C00020684169A26921F4407111434161E269D5
:1017D0006425B2F5004F9748974922684FF03208C8
:1017E0003FD08A4201D082427CD1FFF707FA00EB5A
:1017F000C00101EB001061688900B0FBF1F6FFF752
:10180000FDF900EBC00101EB001061688900B0FB3D
:10181000F1F0B0FBF5F06FF01801484306EB8001E2
:1018200008EB0110B0FBF5F000F0F006FFF7E6F969
:1018300000EBC00101EB001061688900B0FBF1F022
:10184000B0FBF5F006EB0016FFF7D8F900EBC0018E
:1018500001EB001061688900B0FBF1F7FFF7CEF9EA
:10186000D2E08A4201D082423DD1FFF7C7F900EBB6
:10187000C00101EB001061684900B0FBF1F0B0FB62
:10188000F5F00601FFF7BAF900EBC00101EB00101B
:1018900061684900B0FBF1F7FFF7B0F900EBC00158
:1018A00001EB001061684900B0FBF1F0B0FBF5F00E
:1018B0006FF01801484307EB800108EBC100B0FB53
:1018C000F5F000F0F80006EB4006FFF797F900EBA3
:1018D000C00101EB001061684900B0FBF1F7FFF7B0
:1018E0008DF93CE055E0FFF779F900EBC00101EB21
:1018F000001061684900B0FBF1F0B0FBF5F00601A3
:10190000FFF76CF900EBC00101EB001061684900C2
:10191000B0FBF1F7FFF762F900EBC00101EB00103B
:1019200061684900B0FBF1F0B0FBF5F06FF0180111
:10193000484307EB800108EBC100B0FBF5F000F075
:10194000F80006EB4006FFF749F900EBC00101EB98
:10195000001061684900B0FBF1F7FFF73FF900EBB9
:10196000C00101EB001061684900B0FBF1F0B0FB71
:10197000F5F06FF01801484307EB800108EBC10058
:10198000B0FBF5F000F00700216830448860BDE846
:10199000F081FFF723F900EBC00101EB0010616853
:1019A0008900B0FBF1F6FFF719F900EBC00101EB7C
:1019B000001061688900B0FBF1F0B0FBF5F06FF04A
:1019C0001801484306EB800108EB0110B0FBF5F06D
:1019D00000F0F006FFF702F900EBC00101EB001088
:1019E00061688900B0FBF1F0B0FBF5F006EB001682
:1019F000FFF7F4F800EBC00101EB0010616889000B
:101A0000B0FBF1F7FFF7EAF800EBC00101EB0010C3
:101A100061688900B0FBF1F0B0FBF5F06FF01801E0
:101A2000484307EB800108EB0110B0FBF5F000F034
:101A30000F00A9E70014014000100140FEE709076C
:101A4000090E002804DB00F1E02080F80014704744
:101A500000F00F0000F1E02080F8141D704702E054
:101A600008C8121F08C1002AFAD170477047002029
:101A700001E001C1121F002AFBD17047FEF7DCFE16
:101A8000FFF716FEFFF7A0FCFFF788FCFFF7D2FC7C
:101A9000FFF7EAFCFFF70CFD254900200854401C25
:101AA0002A28FBD3234C00252A2221492248A5605D
:101AB000FFF784FB4FF40056DFF8808003E03146E7
:101AC0004046FEF79FFEA0680028F8D0B146502798
:101AD000464660780028A08805D0401E0004000C0F
:101AE000A08009D009E0401C80B2A080B0F5487FFA
:101AF00003D30120607000E06570A088B0FBF7F0B0
:101B0000C0B22070A178142901D9A57001E0491C48
:101B1000A170A178814201D3012200E00022494650
:101B20003046FEF776FE0020FEF796FDD1E7000076
:101B30001C00002000000020680000200008024077
:101B4000000610160006101600000000000000003D
:101B50000102030406070809000000000102030453
:101B6000801B0008000000201C0000005E1A000816
:101B70009C1B00081C000020440500006E1A000891
:101B80000000000000000000000000000100000054
:0C1B900010000000000000000024F40021
:040000050800019559
:00000001FF
